:0300000002AB311F
:0800F800FFFF4457494E543547
:10AB3100759401759502758E0075930075C87075D1
:10AB4100C96075F80075F90175A80075B800759AA6
:10AB51000075A90075B90053D0E7787FE4F6D8FDF8
:10AB61009080007F007E80E4F0A3DFFCDEFA758137
:04AB71001B02ABB068
:10930B0090C7F1EEF0A3EFF0A3EBF0A3EAF0A3E923
:01931B00F061
:10931C00E490C7F8F0A3F0A3F0A3F0A3F0A3F0A39C
:10932C00F0A3F090C7F6E0FAA3E0FB4A70030294B6
:10933C00CA90C7F1E0FEA3E0FFC3E49FFFE49EFEEA
:10934C00E4FCFD90C8001283DBAF03AE02E4FCFD2D
:10935C0090C800E0F8A3E0F9A3E0FAA3E0FBC31285
:10936C0083A4501190C800A3A3E0FFA3E090C7F61C
:10937C00CFF0A3EFF090C7F1E0FCA3E0FDECC3133A
:10938C00FFED1390C7F8CFF0A3EFF0ED5401FFA35E
:10939C00E4F0A3EFF0C2AFE4F5F190C7F8E0FCA362
:1093AC00E0FDECF5F28DF375F40175F8AF30FCFDD2
:1093BC0090C7FAE07002A3E0603DD2FE20FEFD9063
:1093CC00C7F3E0FBA3E475F0011281B7A9F0FAE54D
:1093DC00FC12810690C7F3E0FBA3E475F001128147
:1093EC00B7A9F0FAE5FD12810690C7F7E024FFF06B
:1093FC0090C7F6E034FFF090C7F6E0FCA3E0FDEC7C
:10940C00C313FFED1390C7FCCFF0A3EFF0ED5401A5
:10941C00FFA3E4F0A3EFF090C7FC74FFF5F012810A
:10942C00B745F0605BD2FE20FEFD90C7F3E0FBA3D6
:10943C00E475F0011281B7A9F0FAE5FA12810690F1
:10944C00C7F3E0FBA3E475F0011281B7A9F0FAE5CC
:10945C00FB12810690C7F3E0FBA3E475F0011281C7
:10946C00B7A9F0FAE5FC12810690C7F3E0FBA3E480
:10947C0075F0011281B7A9F0FAE5FD12810680970B
:10948C0090C7FEE07002A3E0602FD2FE20FEFD909C
:10949C00C7F3E0FBA3E475F0011281B7A9F0FAE57C
:1094AC00FA12810690C7F3E0FBA3E475F001128178
:0E94BC00B7A9F0FAE5FB128106E4F5F8D2AF8D
:0194CA00227F
:1098300090C7F5EEF0A3EFF0A3EBF0A3EAF0A3E9F5
:01984000F037
:10984100E490C7FCF0A3F0A3F0A3F0A3F0A3F09081
:10985100C7FAE07002A3E070030299C290C7F5E075
:10986100FEA3E0FFC3E49FFFE49EFED390C7FBE0AD
:109871009F90C7FAE09E4005EEF0A3EFF090C7F588
:10988100E0FAA3E0FBEAC313FCEB13FDEB5401FF89
:1098910090C7FCE4F0A3EFF0C2AFE4F5F1ECF5F210
:1098A100AF058FF375F40175F88330FCFD90C7FCAB
:1098B100E07002A3E0603D90C7F7E0FBA3E475F020
:1098C100011281B7A9F0FA1280C0F5FC90C7F7E048
:1098D100FBA3E475F0011281B7A9F0FA1280C0F57B
:1098E100FDD2FE20FEFD90C7FBE024FFF090C7FAF9
:1098F100E034FFF090C7FAE0FCA3E0FDECC313FFF6
:10990100ED1390C7FECFF0A3EFF0ED5401FFA3E4F8
:10991100F0A3EFF075F88F90C7FE74FFF5F0128198
:10992100B745F0605B90C7F7E0FBA3E475F0011267
:1099310081B7A9F0FA1280C0F5FA90C7F7E0FBA34E
:10994100E475F0011281B7A9F0FA1280C0F5FB901D
:10995100C7F7E0FBA3E475F0011281B7A9F0FA1291
:1099610080C0F5FC90C7F7E0FBA3E475F00112811C
:10997100B7A9F0FA1280C0F5FDD2FE30FE9980FB46
:1099810090C800E07002A3E0603275F88C90C7F7D0
:10999100E0FBA3E475F0011281B7A9F0FA1280C0CF
:1099A100F5FA90C7F7E0FBA3E475F0011281B7A9BE
:1099B100F0FA1280C0F5FBD2FE20FEFDE4F5F8D2EC
:0199C100AFF6
:0199C2002282
:109E660090C92CEEF0A3EFF0A3EBF0A3EAF0A3E980
:019E7600F0FB
:109E7700A3E0FEA3E0FF4E7003029FDF90C92CE032
:109E8700FCA3E0FDC3E49DFDE49CFCD3EF9DEE9CA9
:109E9700400AAF0590C931ECF0A3EFF090C92CE070
:109EA700FCA3E0FDECC313FEED13FBAA06ED540182
:109EB700FDC2AFE4F5F1EAF5F2AF038FF375F401F4
:109EC70075F88330FCFDED604FC390C932E0940212
:109ED70090C931E094005003029FDA90C92EE0FB4D
:109EE700A3E475F0011281B7A9F0FA1280C0F5FC5E
:109EF70090C92EE0FBA3E475F0011281B7A9F0FA2F
:109F07001280C0F5FDD2FE20FEFD90C932E024FE8E
:109F1700F090C931E034FFF090C931E0FEA3E0785A
:109F270002CEC313CE13D8F9FF75F88FEF1FAC0617
:109F370070011E4C605B90C92EE0FBA3E475F00135
:109F47001281B7A9F0FA1280C0F5FA90C92EE0FB8A
:109F5700A3E475F0011281B7A9F0FA1280C0F5FBEE
:109F670090C92EE0FBA3E475F0011281B7A9F0FABE
:109F77001280C0F5FC90C92EE0FBA3E475F0011236
:109F870081B7A9F0FA1280C0F5FDD2FE30FE9D80A0
:109F9700FB90C932E030E1047F0180027F00EF606F
:109FA7003275F88C90C92EE0FBA3E475F00112819D
:109FB700B7A9F0FA1280C0F5FA90C92EE0FBA3E426
:109FC70075F0011281B7A9F0FA1280C0F5FBD2FE35
:089FD70020FEFDE4F5F8D2AF15
:019FDF00225F
:10C4CB00EC90C962F0EDA3F07B017AC9796290C957
:0AC4DB0031E4F0A37402F0029E6643
:10C57E00EF4E6010E4FD0DEDC3943240F9EF1F70E5
:04C58E00EF1E80EC30
:01C592002286
:08B42A0090C93AEEF0A3EFF027
:10B43200A3745AF0A37401F090C93AE0FCA3E0FDB2
:10B44200EC90C93EF0A3EDF07B017AC9793C90C73C
:10B45200FAE4F0A37402F07F847E001298307FF445
:10B462007E0112C57E7B017AC9793C90C7F6E4F071
:10B47200A37402F07F147E0012930B90C93AE0FE8F
:10B48200A3E0FFA3E0B506D6A3E0B507D1E490C9D7
:10B492003CF0A3F0A3F0A3F07B017AC9793C90C7FA
:0DB4A200FAF0A37402F07F167E00029830CD
:08BD8D0090C7D4EEF0A3EFF023
:10BD9500E4A3F0A3F090C7D4E0FEA3E0FFC390C7EF
:10BDA500D7E09F90C7D6E09E5025E4FBFA7F017E41
:10BDB5000012C57E0BBB00010ABA01F1BB2CEE9047
:0FBDC500C7D7E004F070CE90C7D6E004F080C678
:01BDD400224C
:10BDD500EF14601814602314602E24037039740165
:10BDE500A805088002C333D8FC42B7227401A80510
:10BDF500088002C333D8FC42BC227401A805088020
:10BE050002C333D8FC42BD22AF057401A8070880E0
:08BE150002C333D8FC42BE2237
:10BCAD00EF1460191460251460312403703D740184
:10BCBD00A805088002C333D8FCF452B7227401A83A
:10BCCD0005088002C333D8FCF452BC227401A805C8
:10BCDD00088002C333D8FCF452BD22AF057401A80D
:0CBCED0007088002C333D8FCF452BE22CA
:10B15A00EF14602D14604A1460672403600302B17F
:10B16A00ECEB600E7401A805088002C333D8FC42D8
:10B17A0080227401A805088002C333D8FCF45280E7
:10B18A0022EB600E7401A805088002C333D8FC4282
:10B19A0090227401A805088002C333D8FCF45290A7
:10B1AA0022EB600E7401A805088002C333D8FC4262
:10B1BA00A0227401A805088002C333D8FCF452A067
:10B1CA0022EB600E7401A805088002C333D8FC4242
:10B1DA00B022AF057401A807088002C333D8FCF473
:03B1EA0052B0223E
:10BB1400EF14601A14602714603424037042740113
:10BB2400A805088002C333D8FC5580FE8034740114
:10BB3400A805088002C333D8FC5590FE8024740104
:10BB4400A805088002C333D8FC55A0FE8014AF05B5
:10BB54007401A807088002C333D8FC55B0FE8002E4
:04BB6400E4FEAF0646
:01BB680022BA
:10C37A00758911E4F58CF58AC28CF518F51A43898A
:0EC38A0001758CBC758ACDD2A9D2AFD28C229F
:03000B0002B5A299
:0DB5A200C0E0C0D075D000C000C006C007DA
:10B5AF00C2AF758CBC758ACD0519751B0074017EF1
:10B5BF0000A81B088005C333CE33CED8F9FFEF5553
:10B5CF001A602DE51B25E02408F808E6161870010F
:10B5DF0016E51B25E02408F8E6FE08E64E7011AFCD
:10B5EF001B04A807088002C333D8FC4218F4521A70
:09B5FF00051BE51BB408B6D2AF30
:0BB60800D007D006D000D0D0D0E03238
:10C4E500758911E4F58DF58BC28ED2AF4389107530
:0AC4F5008DBC758BCDD2ABD28E2228
:03001B0002C61A00
:0DC61A00C2AF758DBC758BCDB290D2AF3222
:10C5BD0075C8F075CD58E4F5CC75CB58F5CA43C8A0
:04C5CD0001D2AD22C8
:03002B0002C633D7
:09C63300C2AFC2C6B291D2AF320F
:10C33700C2AF7401A807088002C333D8FCFE421AB3
:10C34700EF25E02408F8A60408A605EEF45218D253
:02C35700AF2213
:10C59300C2AF7401A807088002C333D8FCF4521A4F
:05C5A3005218D2AF2286
:10C5E500C2AF7401A807088002C333D8FC5518FFF1
:02C5F500D2AFC3
:01C5F7002221
:10BC1100AB07AA06A905A8047F007E387D317C0008
:10BC2100128312C3E49F90C7D3F074049E90C7D2CD
:10BC3100F043C9407D04E4FF12BDD57D05E4FF1248
:10BC4100BCAD43803075D88075985090C7D2E0FC68
:0DBC5100A3E0FDECF5BA8DAA43A810D2AC1B
:01BC5E0022C3
:10BD4400AB07AA06A905A8047F007E707D627C006B
:10BD5400128312C3E49F90C7D3F074049E90C7D299
:10BD6400F043C9207D06E4FF12BDD57D07E4FF1230
:10BD7400BCAD4380C0759B9090C7D2E0FCA3E0FDAE
:08BD8400ECF5BB8D9D439A0113
:01BD8C002294
:10C00100759680759780AB07AA06A905A8047F00DD
:10C011007EC07D897C01128312AD07AC06ECF5D997
:10C02100AF058FE743B80CE4909812F0A3F0A3F0AA
:10C03100A3F090981AF0909816F0A3F0A3F0A3F053
:01C0410022DC
:10C2EC0075A78075AB80AB07AA06A905A8047F00CB
:10C2FC007EC07D897C01128312AD07AC06ECF5AED5
:07C30C00AF058FAF43B8300D
:01C313002207
:10BBBE00EF14601B1460291460372403704490C77F
:10BBCE00CEE0FCA3E0FDA3E0FEA3E0FF02BC1190DB
:10BBDE00C7CEE0FCA3E0FDA3E0FEA3E0FF02BD4460
:10BBEE0090C7CEE0FCA3E0FDA3E0FEA3E0FF02C001
:10BBFE000190C7CEE0FCA3E0FDA3E0FEA3E0FF12A0
:03BC0E00C2EC2263
:1094CB0090C7CDEFF0A3ECF0A3EDF0A3EBF0A3EA84
:0494DB00F0A3E9F021
:1094DF00C2AFE4A3F0A3F090C7CEE0FEA3E0FFC3BA
:1094EF0090C7D4E09F90C7D3E09E40030295A3900E
:1094FF00C7D0E0FBA3E475F0011281B7A9F0FA120F
:10950F0080C0FF90C7CDE0FE75F009A42400F5825E
:10951F00E5F03488F583EE75F008A42583F583E034
:10952F00FCA3E0FD75F009EEA42400F582E5F0340C
:10953F0080F583EE75F008A42583F583E5822DF57C
:10954F0082E5833CF583EFF075F009EEA42400F576
:10955F0082E5F03488F583EE75F008A42583F58352
:10956F00E475F0011281A175F009EEA42400F582D3
:10957F00E5F03488F583EE75F008A42583F583E0D4
:10958F005403F090C7D4E004F0700690C7D3E00402
:10959F00F00294E690C7CDE014604214607014702E
:1095AF000302964B2403600302967B908808E060C9
:1095BF000302967B04F0908802E0FEA3E02400F5FE
:1095CF008274803EF583E0F599908803E004F07093
:1095DF0006908802E004F09088020296779090112E
:1095EF00E0600302967B04F090900BE0FEA3E02472
:1095FF0009F58274883EF583E0F59C90900CE004A9
:10960F00F0700690900BE004F090900B805A9098B9
:10961F001AE0705804F0909814E0FEA3E02412F5BD
:10962F008274903EF583E0F59E909815E004F070FB
:10963F0006909814E004F0909814802C90A023E0EA
:10964F00702A04F090A01DE0FEA3E0241BF58274A5
:10965F00983EF583E0F5AC90A01EE004F070069004
:0E966F00A01DE004F090A01DE05403F0D2AF67
:01967D0022CA
:0300230002B30E17
:10B30E00C0E0C083C082C0D075D000C006C007C2E6
:10B31E00AF30982AC298908804E0FEA3E02400F58E
:10B32E008274843EF583E599F0908805E004F07010
:10B33E0006908804E004F0908804E05403F03099FD
:10B34E003FC299908802E0FEA3E0FF908800E06E75
:10B35E007003A3E06F602474002FF58274803EF5B5
:10B36E0083E0F599908803E004F07006908802E07F
:10B37E0004F0908802E05403F08005908808E4F011
:0FB38E00D2AFD007D006D0D0D082D083D0E0325B
:0300530002B8945C
:10B89400C0E0C083C082C0D075D000C006C007C25B
:10B8A400AF5396FE909814E0FEA3E0FF909812E048
:10B8B4006E7003A3E06F602474122FF58274903EBF
:10B8C400F583E0F59E909815E004F07006909814C6
:10B8D400E004F0909814E05403F0800590981AE482
:10B8E400F0D2AFD007D006D0D0D082D083D0E0320F
:03005B0002BE1DC5
:10BE1D00C0E0C083C082C0D075D000C006C2AF5391
:10BE2D0097FE909816E0FEA3E02412F58274943EDE
:10BE3D00F583E59FF0909817E004F0700690981642
:10BE4D00E004F0909816E05403F0D2AFD006D0D0B5
:07BE5D00D082D083D0E03257
:0300630002B8F4EC
:10B8F400C0E0C083C082C0D075D000C006C007C2FB
:10B90400AF53A7FE90A01DE0FEA3E0FF90A01BE0B4
:10B914006E7003A3E06F6024741B2FF58274983E4D
:10B92400F583E0F5AC90A01EE004F0700690A01D35
:10B93400E004F090A01DE05403F0800590A023E4FF
:10B94400F0D2AFD007D006D0D0D082D083D0E032AE
:03006B0002BE646E
:10BE6400C0E0C083C082C0D075D000C006C2AF534A
:10BE7400ABFE90A01FE0FEA3E0241BF582749C3E61
:10BE8400F583E5ADF090A020E004F0700690A01FCB
:10BE9400E004F090A01FE05403F0D2AFD006D0D05D
:07BEA400D082D083D0E03210
:0300830002B0BF09
:10B0BF00C0E0C083C082C0D075D000C006C007C238
:10B0CF00AFE59B30E02E759B90539BFE90900DE06B
:10B0DF00FEA3E02409F582748C3EF583E59CF09085
:10B0EF00900EE004F0700690900DE004F090900D3B
:10B0FF00E05403F0E59B30E143759B90539BFD902B
:10B10F00900BE0FEA3E0FF909009E06E7003A3E0C8
:10B11F006F602474092FF58274883EF583E0F59CE7
:10B12F0090900CE004F0700690900BE004F090907B
:10B13F000BE05403F08005909011E4F0D2AFD007EC
:0BB14F00D006D0D0D082D083D0E032F8
:10C5A8007596807597807C00ECF5D975E7E0759EE7
:04C5B8000D53B8F374
:01C5BC00225C
:0BC3140090C840EBF0A3EAF0A3E9F0B2
:10C31F0090C86B7401F0A374C8F0A37443F090C875
:07C32F006BE4F0A3F0A3F0A2
:01C3360022E4
:02C64A0080FE70
:0556740042C9640000C2
:10AE2A00E490C7C8F0A3F0A3740AF0A3740DF0A3CA
:10AE3A0074EFF012C37A12C4E5129144E4FD7F0262
:10AE4A0012BCAD7D607CEAE4FF12C3377DF47C015D
:10AE5A007F0112C33712B52CD2AF90C6E8E0FF12B9
:10AE6A00C1421288167D887C137F0712C3377B0183
:10AE7A007AC779C990C7FAE4F0A304F07F007E820A
:10AE8A00129830124D4A12BF7C90C964E07002A336
:10AE9A00E070187F0712C5E5EF601090C964E4F00E
:10AEAA00A304F090C6E8F0FF12C14290C964E070B2
:10AEBA0002A3E060D112BFBF12B7611299C390C753
:0BAECA00C6EEF0A3EFF012010080BB09
:1056790041C7630042C6EC000041C6DB0044C73B9A
:105689000000000046C6D3000000000000604EC6BE
:105699008500000001000200030004000500060067
:1056A9000700080009000A000B000C000D000E009D
:1056B9000F0010001100120013001400150016004D
:1056C9001700180019001A001B001C001D001E00FD
:1056D9001F0020002100220023002400250026426B
:1056E900C6FF000041C7660042C6DE000042C6FC94
:1056F900000050C74D00000000000000000000003D
:10570900000000000050C71C00000000000000005D
:10571900000000000000000050C709000000000060
:10572900000000000000000000000042C76B0000FC
:1057390042C737000042C6FA000042C7680000426B
:10574900C734000042C75E000042C707000042C7D5
:1057590032000042C6D9000042C701000041C74CCF
:105769000042C76D000042C6E1000042C6EA0000DF
:1057790041C6DC0041C7420141C7430241C7460354
:1057890041C7470441C7480541C7490641C74A07B8
:1057990041C6E00841C6F30941C6F90A41C7300BC1
:1057A90041C6E70C41C6F20D41C7050E41C71B0FA3
:1057B90041C7621041C76A1141C6F11241C74B1373
:1057C90041C7611441C6E41541C75D1641C73F177A
:1057D90041C6F01841C6E91941C6E31A41C6FE1B84
:1057E90041C6EF1C41C7361D41C7411E41C72F1F86
:1057F90041C6EE2041C72E2141C7672241C7062372
:1058090041C7602441C6DD2541C7402642C739004A
:105819000042C6F4000041C7310041C6F60042C744
:105829002C000042C703000042C764000042C6F7CB
:10583900000041C6720041C6730041C6740041C6EA
:10584900750041C6760041C6770041C6780042C658
:1058590079000042C67B000042C67D000042C67F37
:07586900000042C6810000AF
:10B4AF0090C67FF0A3F090C674F090C6E5E0FEA3BF
:10B4BF00E0FF7C007D0A12813AAA06AB0790C719FC
:10B4CF00E0FEA3E0FF7D6412813AEF2BFFEE3AFE20
:10B4DF0090C745E02FFF90C744E03E90C7D1F0A33F
:0EB4EF00EFF07F0090C7D1E0FCA3E0FD7E816E
:10B4FD0090C683EEF0A3EFF090C76DECF0A3EDF0E6
:10B50D0090C74C7401F0FB7AC7796D90C7FAE4F0DF
:0FB51D00A304F01298307DBC7C027F0602C33776
:0CC62700E490C74CF090C6EAF0A3F022AB
:10B7610090C74CE060637F0612C5E5EF605B90C651
:10B7710083E0FEA3E0FF7B017AC679E190C7F6E49E
:10B78100F0A304F012930B90C6E1E0FEA3E0FF905A
:10B79100C76DE0FCA3E0FDB50707ECB5060302C6E3
:10B7A10027C390C6EBE0940290C6EAE094005019DA
:10B7B10090C683E0FEA3E0FF12B4FD90C6EBE00467
:0AB7C100F0700690C6EAE004F022E2
:06C64400E490C6DBF022C9
:10A2AD0090C7F1ECF0A3EDF0EE600302A3CBEF2429
:10A2BD00FE606A14606B14700302A39024036003A4
:10A2CD0002A3CB90C7F1E0FEA3E0FFEE703DEF14CB
:10A2DD006019146026240270327F037E1012C4446C
:10A2ED007F137E1012C4447F33805C7F037E101277
:10A2FD00C4447F137E1012C45F801E7F037E101234
:10A30D00C45F7F137E1012C444800E7F037E101233
:10A31D00C4447F137E1012C4447F3380627F538008
:10A32D002690C7F1E0FEA3E0FFEE7043EF14601B33
:10A33D0014602A240270387F637E1012C4447F7328
:10A34D007E1012C4447F837E1080627F637E101264
:10A35D00C4447F737E1012C45F7F8380227F637E2F
:10A36D001012C45F7F737E1012C4447F8380107FF0
:10A37D00637E1012C4447F737E1012C4447F837EAB
:10A38D0010803890C7F1E0FEA3E0FFEE7022EF14CD
:10A39D00601004701B7F137E1112C45F7F337E111A
:10A3AD0080197F137E1112C4447F337E1102C45F66
:0FA3BD007F137E1112C4447F337E1112C44422D9
:0A849B0090C6E8E0FF7E00E4FDFC5F
:1084A50090C7F1ECF0A3EDF0EE6003028815EF2420
:1084B500F0B4080040030288159084CC75F003A43D
:1084C500C58325F0C583730284E40285610285C4F2
:1084D5000286410286BE02872102879D0287EF90B0
:1084E500C7F1E07002A3E070177F537E1112C42913
:1084F5007F637E1112C4297F737E1112C45F80428F
:1085050090C7F1E07004A3E0640170107F537E1101
:1085150012C4297F637E1112C45F801F90C7F1E0EA
:108525007004A3E064027F537E11700512C45F805E
:108535000312C4297F637E1112C4297F737E111231
:10854500C42990C7F1E07004A3E0640370047D01C1
:108555008002E4FDFC7F807E2102881290C7F1E055
:108565007002A3E070107F937E1112C4297F037EF1
:108575001212C45F802F90C7F1E07004A3E064017C
:1085850070097F937E1112C45F801390C7F1E0706C
:1085950004A3E06402700E7F937E1112C4297F0349
:1085A5007E1212C42990C7F1E07004A3E064027042
:1085B500047D018002E4FDFC7F107E22028812907A
:1085C500C7F1E07002A3E070177F237E1212C42961
:1085D5007F837E9012C4297F937E9012C45F804270
:1085E50090C7F1E07004A3E0640170107F237E1250
:1085F50012C4297F837E9012C45F801F90C7F1E06B
:108605007004A3E064027F237E12700512C45F80AC
:108615000312C4297F837E9012C4297F937E901212
:10862500C42990C7F1E07004A3E0640370047D01E0
:108635008002E4FDFC7F307E3902881290C7F1E0AC
:108645007002A3E070177F637E1212C4297F337E08
:108655001212C4297F437E1212C45F804290C7F173
:10866500E07004A3E0640170107F637E1212C429D8
:108675007F337E1212C45F801F90C7F1E07004A3A0
:10868500E064027F637E12700512C45F800312C42A
:10869500297F337E1212C4297F437E1212C429908A
:1086A500C7F1E07004A3E0640370047D018002E477
:1086B500FDFC7F507E2202881290C7F1E07002A374
:1086C500E070107F037E1312C4297413FFFE12C4D9
:1086D5005F802F90C7F1E07004A3E0640170097F0B
:1086E500037E1312C45F801390C7F1E07004A3E00A
:1086F5006402700E7F037E1312C4297413FFFE12E9
:10870500C42990C7F1E07004A3E0640270047D0100
:108715008002E4FDFC7F207E2302881290C7F1E0F1
:108725007002A3E070177F337E1312C4297F437E46
:108735001312C4297F537E1312C45F804290C7F180
:10874500E07004A3E0640170107F337E1312C42926
:108755007F437E1312C45F801F90C7F1E07004A3AE
:10876500E064027F337E13700512C45F800312C478
:10877500297F437E1312C4297F537E1312C4299087
:10878500C7F1E07004A3E0640370047D018002E496
:10879500FDFC7F607E23807590C7F1E07002A3E049
:1087A50070097F737E1312C45F801F90C7F1E0705C
:1087B50004A3E064017F737E13700C12C4297F83C8
:1087C5007E1312C45F800A12C4297F837E1312C4EC
:1087D5002990C7F1E07004A3E0640270047D018074
:1087E50002E4FDFC7F907E23802390C7F1E07004B6
:1087F500A3E064017F037E14700912C4297D017C06
:1088050000800612C45FE4FDFC7F107E2412C39D28
:018815002240
:05C39800E4FDFC7F90B4
:10C39D0090C7F3ECF0A3EDF07B017AC779F390C76A
:09C3AD00FAE4F0A304F002983058
:06C13C00E0FF90C6E8F0F0
:10C1420090C73B745AF0A37401F0E4A3F0EF25E02A
:10C152002485F582E434C6F583A3E090C73EF07BE4
:10C16200017AC7793B90C7FAE4F0A37402F07F84A6
:05C172007E0002983080
:08C63C0090C6E8EFF002C142D4
:10A5D80090C819E0B40800400302A6D090A5EBF893
:10A5E80028287302A60302A62502A65402A667021B
:10A5F800A67A02A67F02A69902A69E7F637E5012C3
:10A60800C4447F937E5012C5337F237E5112C533D5
:10A618007F537E5112C53390C6EF02A6CB7F937E3F
:10A628005112C4447F137E5212C5337F337E5212B7
:10A63800C5337F537E5212C5337F737E5212C533A2
:10A648007F937E5212C53390C73680777F437E53FF
:10A6580012C4447453FFFE12C53390C74180647F0F
:10A66800737E5312C4447F837E5312C53390C72F21
:10A67800805190C767804C7F537E5512C4447F63D6
:10A688007E5512C5337F737E5512C53390C7068039
:10A698003290C760802D7F937E5512C4447F037E1D
:10A6A8005612C5337F137E5612C5337F237E56124A
:10A6B800C5337F337E5612C5337F437E5612C5336A
:09A6C80090C6DDE0FF12C63C2241
:10BA68007F037E1012C5337F137E1012C5337F33D8
:10BA78007E1012C5337F437E1012C5337F537E106C
:10BA880012C5337F637E1012C5337F737E1012C5D3
:10BA9800337F837E1012C5337F137E1112C5337F27
:10BAA800337E1112C5337F737E9212C533E4FDFCD9
:06BAB800FF7E3002C39D79
:07B39D0090C678E0FF7E007E
:10B3A40090C7F1EEF0A3EFF064014E70197F037EB5
:10B3B4001012C4447F137E1012C4447F337E1012D3
:10B3C400C4447D01803C90C7F1E07004A3E06402B2
:10B3D400700D7F437E1012C4447F537E10804390CF
:10B3E400C7F1E07004A3E0640370207F637E101251
:10B3F400C4447F737E1012C4447F837E1012C444FD
:10B404007D027C007F007E3002C39D90C7F1E07016
:10B4140004A3E06404700E7F137E1112C4447F33CE
:06B424007E1112C4442257
:04BC5F00AB07AA067F
:10BC63007C007D3C12814C90C7CFEEF0A3EFF0AE89
:10BC730002AF037C007D3C12814CA3ECF0A3EDF0FA
:10BC83007B017AC779CF90C7FAE4F0A304F07F1061
:10BC93007E211298307B017AC779D190C7FAE4F0FC
:0ABCA300A304F07F307E21029830E8
:08BABE0090C6F7E0FEA3E0FFD3
:04BAC600AB07AA061A
:10BACA007C007D3C12814C90C7F1EEF0A3EFF0AE02
:10BADA0002AF037C007D3C12814CA3ECF0A3EDF095
:10BAEA007B017AC779F190C7FAE4F0A304F07F00EA
:10BAFA007E311298307B017AC779F390C7FAE4F065
:0ABB0A00A304F07F007E32029830A1
:10C0420090C6F67401F07F037E1112C4447F137E02
:10C052001112C4447F237E1112C4447F337E111215
:10C06200C4447B017AC679F790C7F6E4F0A304F0E2
:10C072007F067E8112930B7DE87C037F0502C33726
:10C35900E490C6F6F07F037E1112C5337F137E1178
:10C3690012C5337F237E1112C5337F337E1102C577
:01C379003390
:10BFBF0090C6F6E070077F037E1102C5337F05122E
:10BFCF00C5E5EF602C90C6F8E024FFF090C6F7E0CF
:10BFDF0034FFF012BAC1D390C6F8E0940090C6F7C0
:10BFEF00E09400500302C3597DE87C037F0512C320
:02BFFF003722E7
:10881600E490C7CDF0A3F07B017AC7790190C7F643
:10882600F0A304F07F047E8112930B7B017AC77953
:10883600CD90C7F6E4F0A304F07F007E8112930B7F
:1088460090C7CDE0FAA3E0FB7C007D64FFAE021288
:10885600814C90C719EEF0A3EFF07C007D0AAF03C0
:10886600AE0212814C7C007D0A12814C90C6E5EC6A
:10887600F0A3EDF090C7CDE0FEA3E0FF7C007D0AFB
:1088860012814C90C744ECF0A3EDF07B017AC779D6
:108896001990C7FAE4F0A304F07F007E2012983006
:1088A6007B017AC679E590C7FAE4F0A304F07F105D
:1088B6007E201298307B017AC7794490C7FAE4F09B
:1088C600A304F07F307E201298307B017AC7791995
:1088D60090C7FAE4F0A304F07F507E211298307B13
:1088E600017AC679E590C7FAE4F0A304F07F607ECA
:1088F600211298307B017AC7794490C7FAE4F0A335
:1089060004F07F707E211298307B017AC779CD9072
:10891600C7F6E4F0A304F07F027E8112930B90C7A2
:10892600CDE0FAA3E0FB7C007D64FFAE0212814C31
:1089360090C6FAEEF0A3EFF07C007D0AAF03AE021C
:1089460012814C7C007D0A12814C90C768ECF0A322
:10895600EDF090C7CDE0FEA3E0FF7C007D0A12811A
:108966004C90C734ECF0A3EDF07B017AC679FA900F
:10897600C7FAE4F0A304F07F607E201298307B01F2
:108986007AC7796890C7FAE4F0A304F07F707E2076
:108996001298307B017AC7793490C7FAE4F0A304C1
:1089A600F07F807E201298307B017AC679FA90C7D4
:1089B600FAE4F0A304F07F607E221298307B017AFD
:1089C600C7796890C7FAE4F0A304F07F707E22129C
:1089D60098307B017AC7793490C7FAE4F0A304F0A3
:1089E6007F807E221298307B017AC7790390C7F682
:1089F600E4F0A304F07F067E8112930B90C703E098
:108A0600FEA3E0FF12BC5F90C7CDE0FAA3E0FB7CBB
:108A1600007D3CFFAE0212814C90C732EEF0A3EF10
:108A2600F07C007D3CAF03AE0212814C90C6D9ECBF
:108A3600F0A3EDF07B017AC7793290C7FAE4F0A390
:108A46007402F07F107E211298307B017AC679D9A4
:108A560090C7FAE4F0A37402F07F207E21129830CA
:108A66007B017AC7793290C7FAE4F0A37402F07FEB
:108A7600707E231298307B017AC679D990C7FAE4C2
:108A8600F0A37402F07F807E231298307B017AC7B0
:108A960079CD90C7F6E4F0A304F07F087E811293A7
:108AA6000B90C7CDE0FAA3E0FB7C007D0AFFAE0287
:108AB60012814C7C007D0A12814C90C76BECF0A3AE
:108AC600EDF07C007D0AAF03AE0212814C90C737F1
:108AD600ECF0A3EDF07B017AC7796B90C7FAE4F06E
:108AE600A37402F07F907E211298307B017AC779B9
:108AF6003790C7FAE4F0A37402F07F007E22129842
:108B0600307B017AC779CD90C7F6E4F0A304F07FF5
:108B16000A7E8112930B90C7CDE0FAA3E0FB7C009E
:108B26007D0AFFAE0212814C7C007D0A12814C90B8
:108B3600C75EECF0A3EDF07C007D0AAF03AE021237
:108B4600814C90C707ECF0A3EDF07B017AC7796BF7
:108B560090C7FAE4F0A37402F07F007E23129830E7
:108B66007B017AC7793790C7FAE4F0A37402F07FE5
:0D8B7600107E231298307F737E9202C5336B
:0801000090C7CDEEF0A3EFF073
:10010800E4A3F0A3F0A3F0A3F090C672E0600DE4BE
:10011800FF12C5E5EF6005E490C672F090C7CDE028
:10012800FEA3E0FF64014E6006EF64024E70099082
:10013800C672E06003023B987B017AC6798190C75A
:10014800F6E4F0A304F07F0C7E8012930B90C68136
:10015800A3E0FF7C0030E0047D0180027D0090C7B1
:10016800D3ECF0A3EDF0EF7E0030E1047F018002D4
:100178007F0090C7D5EEF0A3EFF090C681A3E0FF13
:100188007C0030E2047D0180027D0090C7E5ECF040
:10019800A3EDF0EF7E0030E3047F0180027F009042
:1001A800C7E7EEF0A3EFF090C681A3E0FF7C003034
:1001B800E4047D0180027D0090C7E9ECF0A3EDF036
:1001C800EF7E0030E7047F0180027F0090C7D7EE02
:1001D800F0A3EFF090C681E0FEEE7C0030E4047DF1
:1001E8000180027D0090C7D9ECF0A3EDF0EE7E000F
:1001F80030E0047F0180027F0090C7DBEEF0A3EFC0
:10020800F090C681A3E0FF7C0030E5047D01800208
:100218007D0090C7DDECF0A3EDF0EF7E0030E60442
:100228007F0180027F0090C7DFEEF0A3EFF090C659
:1002380081E0FEEE7C0030E1047D0180027D0090CB
:10024800C7E1ECF0A3EDF0EE7E0030E2047F018020
:10025800027F0090C7E3EEF0A3EFF090C681E0FEC6
:10026800EE7C0030E3047D0180027D0090C7EBEC5A
:10027800F0A3EDF0EE7E0030E5047F0180027F0000
:1002880090C7EDEEF0A3EFF090C7DDE07004A3E0B7
:040298006401700B82
:09029C0090C7EF74C0F0A3744494
:1002A500801D90C7E1E07004A3E0640190C7EF7082
:0102B5000840
:0602B6007405F0A3741CA6
:0202BC008006BA
:1002BE0074CEF0A37459F07B017AC779EF90C7FA28
:0C02CE00E4F0A304F07F237E14129830AB
:0C02DA0090C7DFE07004A3E06401700B2B
:0902E60090C7EF74C0F0A374444A
:1002EF00801D90C7E3E07004A3E0640190C7EF7036
:0102FF0008F6
:060300007405F0A3741C5B
:0203060080066F
:1003080074CEF0A37459F07B017AC779EF90C7FADD
:0C031800E4F0A304F07F337E1412983050
:1003240090C7DBE07004A3E06401700F90C766E03F
:10033400700912C04290C7667401F090C6E8E0B438
:10034400182990C6DEE07002A3E0701F7B017AC614
:1003540079F790C7F6F0A304F07F067E8112930B21
:1003640012BABE90C6DEE4F0A304F090C7D3E070E6
:1003740004A3E06401600302042C90C6FFE070044F
:10038400A3E06401600302042C90C6F0E0FF12C6EF
:100394003C7B017AC779D190C7F6E4F0A304F07FDF
:1003A400067E8112930B90C7D1E0FAA3E0FB7C0098
:1003B4007D3CFFAE0212814C90C732EEF0A3EFF009
:1003C4007C007D3CAF03AE0212814C90C6D9ECF0A8
:1003D400A3EDF07B017AC7793290C7FAE4F0A30465
:1003E400F07F107E211298307B017AC679D990C7AC
:1003F400FAE4F0A304F07F307E21129830E490C632
:1004040077F090C673F0A3F090C67FF0A3F090C687
:1004140078F090C6FFF0A3F090C766F090C6DEF0C7
:10042400A3F012C3590204E590C7D7E07004A3E017
:100434006401602690C7DFE07004A3E06401601AE1
:1004440090C7DDE07004A3E064017002800C90C7E3
:10045400DBE07004A3E06401703012BA6890C6FF58
:10046400E4F0A304F090C6E9E0FF12C63CE490C6B1
:1004740077F090C673F0A3F090C67FF0A3F090C617
:1004840078F090C6FCF0A3F0805790C7E3E07004C6
:10049400A3E06401600C90C7E1E07004A3E0640190
:1004A400703F12BA6890C6E3E0FF12C63C12C3590B
:1004B40090C6F7E07004A3E06401700990C6F7F0F9
:1004C400A3F012BABEE490C677F090C673F0A3F01E
:1004D40090C67FF0A3F090C678F090C6FFF0A30416
:1004E400F090C7CDE0FEA3E0FFEE6003023B98EF7F
:1004F40024FE7003021AF61470030231711470039F
:10050400023AFD24036003023B9890C67FE0700426
:10051400A3E06401600302199490C762E0FF90C6EF
:10052400E8E06F600302077190C674E0600302059F
:10053400E190C744E0FEA3E0FF90C7CFEEF0A3EF45
:10054400F04E700A90C744F0A37409F0800E90C76F
:1005540045E024FFF090C744E034FFF090C6E5E0A6
:10056400FEA3E0FF7C007D0A12813AAA06AB079045
:10057400C719E0FEA3E0FF7D6412813AEF2BFFEE82
:100584003AFE90C745E02FFF90C744E03E90C7D1A4
:10059400F0A3EFF090C82AE0FEA3E0FF90C7D1E0FB
:1005A400FCA3E0FDD39FEC9E501190C827E0FEA36E
:1005B400E0FFC3ED9FEC9E4002800F90C7CFE0FFA9
:1005C400A3E090C744CFF0A3EFF07B017AC779444E
:1005D40090C7FAE4F0A304F07F700218B590C674D3
:1005E400E0640160030206A990C6E5E0FEA3E0FF13
:1005F40090C7CFEEF0A3EFF04E700A90C6E5F0A3DB
:100604007409F0800E90C6E6E024FFF090C6E5E0A1
:1006140034FFF090C6E5E0FEA3E0FF7C007D0A1203
:10062400813AAA06AB0790C719E0FEA3E0FF7D64F8
:1006340012813AEF2BFFEE3AFE90C745E02FFF9070
:10064400C744E03E90C7D1F0A3EFF090C82AE0FE83
:10065400A3E0FF90C7D1E0FCA3E0FDD39FEC9E5044
:100664002290C827E0FEA3E0FFC3ED9FEC9E401359
:100674007B017AC679E590C7FAE4F0A304F07F60C1
:100684000218B590C7CFE0FFA3E090C6E5CFF0A372
:10069400EFF07B017AC679E590C7FAE4F0A304F0A1
:1006A4007F600218B590C674E06402600302316290
:1006B40090C719E0FEA3E0FF90C7CFEEF0A3EFF0E0
:1006C4004E700A90C719F0A37402F0800E90C71AF6
:1006D400E024FFF090C719E034FFF090C6E5E0FE97
:1006E400A3E0FF7C007D0A12813AAA06AB0790C7FB
:1006F40019E0FEA3E0FF7D6412813AEF2BFFEE3A8E
:10070400FE90C745E02FFF90C744E03E90C7D1F06C
:10071400A3EFF090C82AE0FEA3E0FF90C7D1E0FC6D
:10072400A3E0FDD39FEC9E502290C827E0FEA3E0F7
:10073400FFC3ED9FEC9E40137B017AC7791990C7E4
:10074400FAE4F0A304F07F500218B590C7CFE0FF9D
:10075400A3E090C719CFF0A3EFF07B017AC7791912
:1007640090C7FAE4F0A304F07F500218B590C76A6A
:10077400E0FF90C6E8E06F60030208BC90C674E036
:10078400600302081890C737E0FEA3E0FF90C7CFCC
:10079400EEF0A3EFF04E700A90C737F0A37409F09F
:1007A400800E90C738E024FFF090C737E034FFF0A4
:1007B40090C76BE0FEA3E0FF7C007D0A12813A90B3
:1007C400C738E02FFF90C737E03E90C7D1F0A3EFC2
:1007D400F090C7D1E0FEA3E0FFD39450EE94005014
:1007E4001BEF9400EE940040137B017AC779379095
:1007F400C7FAE4F0A304F07F000218B590C7CFE075
:10080400FFA3E090C737CFF0A3EFF07B017AC7795D
:100814003702097B90C674E0640160030231629080
:10082400C76BE0FEA3E0FF90C7CFEEF0A3EFF04E5E
:10083400700A90C76BF0A37408F0800E90C76CE048
:1008440024FFF090C76BE034FFF090C76BE0FEA389
:10085400E0FF7C007D0A12813A90C738E02FFF90B8
:10086400C737E03E90C7D1F0A3EFF090C7D1E0FEC8
:10087400A3E0FFD39450EE9400501BEF9400EE9449
:100884000040137B017AC7796B90C7FAE4F0A304A4
:10089400F07F900218B590C7CFE0FFA3E090C76B3C
:1008A400CFF0A3EFF07B017AC7796B90C7FAE4F03D
:1008B400A304F07F900218B590C6F1E0FF90C6E85B
:1008C400E06F6003020B1690C674E06003020988AF
:1008D40090C679E0FEA3E0FF90C7CFEEF0A3EFF05F
:1008E4004E700A90C679F0A37402F0800E90C67A16
:1008F400E024FFF090C679E034FFF090C67BE0FE80
:10090400A3E0FF7C007D0A12813AAA06AB0790C6D9
:1009140079E0FEA3E0FF7D6412813AEF2BFFEE3A0B
:10092400FE90C67EE02FFF90C67DE03E90C7D1F0DA
:10093400A3EFF090C7D1E0FEA3E0FFD39432EE948E
:1009440000501FEF9400EE9400401790C679E0FF2A
:10095400A3E090C751CFF0A3EFF07B017AC6797979
:10096400801590C7CFE0FFA3E090C679CFF0A3EF46
:10097400F07B017AC6797990C7FAE4F0A304F07F9A
:100984000002126E90C674E064016003020A529081
:10099400C67BE0FEA3E0FF90C7CFEEF0A3EFF04EDE
:1009A400700A90C67BF0A37405F0800E90C67CE0BC
:1009B40024FFF090C67BE034FFF090C67BE0FEA3FA
:1009C400E0FF7C007D0A12813AAA06AB0790C67943
:1009D400E0FEA3E0FF7D6412813AEF2BFFEE3AFEC6
:1009E40090C67EE02FFF90C67DE03E90C7D1F0A375
:1009F400EFF090C7D1E0FEA3E0FFD39432EE940071
:100A0400502AEF9400EE9400402290C67BE0FFA3AE
:100A1400E090C720CFF0A3EFF07B017AC6797B90FA
:100A2400C7FAE4F0A304F07F1002126E90C7CFE07F
:100A3400FFA3E090C67BCFF0A3EFF07B017AC679E9
:100A44007B90C7FAE4F0A304F07F1002126E90C604
:100A540074E06402600302316290C67DE0FEA3E0AC
:100A6400FF90C7CFEEF0A3EFF04E700A90C67DF072
:100A7400A37409F0800E90C67EE024FFF090C67D3A
:100A8400E034FFF090C67BE0FEA3E0FF7C007D0A2B
:100A940012813AAA06AB0790C679E0FEA3E0FF7D77
:100AA4006412813AEF2BFFEE3AFE90C67DE0FCA380
:100AB400E0FD2FFFEC3E90C7D1F0A3EFF090C7D13B
:100AC400E0FEA3E0FFD39432EE94005023EF9400B1
:100AD400EE9400401B90C70DECF0A3EDF07B017A7F
:100AE400C6797D90C7FAE4F0A304F07F2002126E69
:100AF40090C7CFE0FFA3E090C67DCFF0A3EFF07BDB
:100B0400017AC6797D90C7FAE4F0A304F07F20024D
:100B1400126E90C74BE0FF90C6E8E06F6003020DD1
:100B24007B90C674E06003020BEB90C734E0FEA335
:100B3400E0FF90C7CFEEF0A3EFF04E700A90C734F9
:100B4400F0A37409F0800E90C735E024FFF090C73D
:100B540034E034FFF090C768E0FEA3E0FF7C007D42
:100B64000A12813AAA06AB0790C6FAE0FEA3E0FF98
:100B74007D6412813AEF2BFFEE3AFE90C735E02FE9
:100B8400FF90C734E03E90C7D1F0A3EFF090C822A5
:100B9400E0FEA3E0FF90C7D1E0FCA3E0FDD39FEC0F
:100BA4009E502290C81FE0FEA3E0FFC3ED9FEC9E81
:100BB40040137B017AC7793490C7FAE4F0A304F0B8
:100BC4007F8002126E90C7CFE0FFA3E090C734CFBE
:100BD400F0A3EFF07B017AC7793490C7FAE4F0A36D
:100BE40004F07F8002126E90C674E0640160030218
:100BF4000CB390C768E0FEA3E0FF90C7CFEEF0A36C
:100C0400EFF04E700A90C768F0A37409F0800E905C
:100C1400C769E024FFF090C768E034FFF090C7682C
:100C2400E0FEA3E0FF7C007D0A12813AAA06AB072E
:100C340090C6FAE0FEA3E0FF7D6412813AEF2BFF39
:100C4400EE3AFE90C735E02FFF90C734E03E90C7E0
:100C5400D1F0A3EFF090C822E0FEA3E0FF90C7D14B
:100C6400E0FCA3E0FDD39FEC9E502290C81FE0FE61
:100C7400A3E0FFC3ED9FEC9E40137B017AC7796824
:100C840090C7FAE4F0A304F07F7002126E90C7CF0D
:100C9400E0FFA3E090C768CFF0A3EFF07B017AC731
:100CA400796890C7FAE4F0A304F07F7002126E90A2
:100CB400C674E06402600302316290C6FAE0FEA3E7
:100CC400E0FF90C7CFEEF0A3EFF04E700A90C6FAA3
:100CD400F0A37402F0800E90C6FBE024FFF090C6EF
:100CE400FAE034FFF090C768E0FEA3E0FF7C007DEB
:100CF4000A12813AAA06AB0790C6FAE0FEA3E0FF07
:100D04007D6412813AEF2BFFEE3AFE90C735E02F57
:100D1400FF90C734E03E90C7D1F0A3EFF090C82213
:100D2400E0FEA3E0FF90C7D1E0FCA3E0FDD39FEC7D
:100D34009E502290C81FE0FEA3E0FFC3ED9FEC9EEF
:100D440040137B017AC679FA90C7FAE4F0A304F061
:100D54007F6002126E90C7CFE0FFA3E090C6FACF87
:100D6400F0A3EFF07B017AC679FA90C7FAE4F0A316
:100D740004F07F6002126E90C761E0FF90C6E8E065
:100D84006F6003020EBF90C674E06003020E1B90F6
:100D9400C707E0FEA3E0FF90C7CFEEF0A3EFF04E4D
:100DA400700A90C707F0A37409F0800E90C708E09A
:100DB40024FFF090C707E034FFF090C75EE0FEA385
:100DC400E0FF7C007D0A12813A90C708E02FFF9073
:100DD400C707E03E90C7D1F0A3EFF090C7D1E0FE83
:100DE400A3E0FFD39450EE9400500AEF9400EE94E5
:100DF400004002800F90C7CFE0FFA3E090C707CF69
:100E0400F0A3EFF07B017AC7790790C7FAE4F0A367
:100E140004F07F100211BA90C674E064016003020A
:100E2400316290C75EE0FEA3E0FF90C7CFEEF0A36F
:100E3400EFF04E700A90C75EF0A37408F0800E9035
:100E4400C75FE024FFF090C75EE034FFF090C75E18
:100E5400E0FEA3E0FF7C007D0A12813A90C708E01F
:100E64002FFF90C707E03E90C7D1F0A3EFF090C7E3
:100E7400D1E0FEA3E0FFD39450EE9400501BEF9416
:100E840000EE940040137B017AC7795E90C7FAE4C0
:100E9400F0A304F07F000211BA90C7CFE0FFA3E0F3
:100EA40090C75ECFF0A3EFF07B017AC7795E90C75D
:100EB400FAE4F0A304F07F000211BA90C6E4E0FF64
:100EC40090C6E8E06F600302110F90C674E06003FF
:100ED400020F8090C679E0FEA3E0FF90C7CFEEF04A
:100EE400A3EFF064024E700890C679F0A3F0800E70
:100EF40090C67AE024FFF090C679E034FFF090C603
:100F04007BE0FEA3E0FF7C007D0A12813AAA06ABD7
:100F14000790C679E0FEA3E0FF7D6412813AEF2BCF
:100F2400FFEE3AFE90C67EE02FFF90C67DE03E9035
:100F3400C7D1F0A3EFF090C7D1E0FEA3E0FFD394B4
:100F440032EE94005014EF9400EE9400400C90C6DE
:100F540079E0FFA3E090C757800A90C7CFE0FFA3D2
:100F6400E090C679CFF0A3EFF07B017AC67979904F
:100F7400C7FAE4F0A304F07F0002110A90C674E0FB
:100F84006401600302104A90C67BE0FEA3E0FF9078
:100F9400C7CFEEF0A3EFF04E700A90C67BF0A374B7
:100FA40005F0800E90C67CE024FFF090C67BE03410
:100FB400FFF090C67BE0FEA3E0FF7C007D0A128177
:100FC4003AAA06AB0790C679E0FEA3E0FF7D64125F
:100FD400813AEF2BFFEE3AFE90C67EE02FFF90C6DB
:100FE4007DE03E90C7D1F0A3EFF090C7D1E0FEA31F
:100FF400E0FFD39432EE9400502AEF9400EE940074
:10100400402290C67BE0FFA3E090C726CFF0A3EF79
:10101400F07B017AC6797B90C7FAE4F0A304F07FF1
:101024001002110A90C7CFE0FFA3E090C67BCFF077
:10103400A3EFF07B017AC6797B90C7FAE4F0A304AE
:10104400F07F1002110A90C674E06402600302315A
:101054006290C67DE0FEA3E0FF90C7CFEEF0A3EF61
:10106400F04E700A90C67DF0A37409F0800E90C60D
:101074007EE024FFF090C67DE034FFF090C67BE074
:10108400FEA3E0FF7C007D0A12813AAA06AB07901A
:10109400C679E0FEA3E0FF7D6412813AEF2BFFEEF8
:1010A4003AFE90C67DE0FCA3E0FD2FFFEC3E90C726
:1010B400D1F0A3EFF090C7D1E0FEA3E0FFD39432C8
:1010C400EE94005022EF9400EE9400401A90C7135F
:1010D400ECF0A3EDF07B017AC6797D90C7FAE4F0D9
:1010E400A304F07F20801F90C7CFE0FFA3E090C649
:1010F4007DCFF0A3EFF07B017AC6797D90C7FAE447
:10110400F0A304F07F207E2502198E90C75DE0FFD6
:1011140090C6E8E06F600302129790C674E0600323
:101124000211E390C732E0FEA3E0FF90C7CFEEF0D8
:10113400A3EFF04E701D90C6D9E07002A3E090C7F3
:10114400326008E4F0A3743BF08016E4F0A3743C2E
:10115400F0800E90C733E024FFF090C732E034FFF4
:10116400F090C732E0FEA3E0FF7C007D3C12813AA0
:1011740090C6DAE02FFF90C6D9E03E90C7D1F0A325
:10118400EFF090C830E0FEA3E0FF90C7D1E0FCA3ED
:10119400E0FDD39FEC9E502390C82EE0FEA3E0FF19
:1011A400ED9FEC9E40157B017AC7793290C7FAE433
:1011B400F0A304F07F707E2302198E90C7CFE0FF66
:1011C400A3E090C732CFF0A3EFF07B017AC7793266
:1011D40090C7FAE4F0A304F07F707E2302198E9086
:1011E400C674E06401600302316290C6D9E0FEA3D4
:1011F400E0FF90C7CFEEF0A3EFF04E700A90C6D98F
:10120400F0A3743BF0800E90C6DAE024FFF090C6A1
:10121400D9E034FFF090C732E0FEA3E0FF7C007D0C
:101224003C12813A90C6DAE02FFF90C6D9E03E9096
:10123400C7D1F0A3EFF090C830E0FEA3E0FF90C761
:10124400D1E0FCA3E0FDD39FEC9E502390C82EE098
:10125400FEA3E0FFED9FEC9E40157B017AC679D991
:1012640090C7FAE4F0A304F07F807E2202198E90E6
:10127400C7CFE0FFA3E090C6D9CFF0A3EFF07B0186
:101284007AC679D990C7FAE4F0A304F07F807E226D
:1012940002198E90C73FE0FF90C6E8E06F7042905D
:1012A400C674E0600302316290C83CE0FEA3E0FF34
:1012B400D390C702E09F90C701E09E5003023162C1
:1012C400A3E024FFF090C701E034FFF07B017AC76C
:1012D400790190C7FAE4F0A304F07F007E24021998
:1012E4008E90C6E0E0FF90C6E8E06F6003023162D2
:1012F40090C678E06401600302156190C674E060F2
:10130400030213C990C744E0FEA3E0FF90C7CFEEE9
:10131400F0A3EFF04E700A90C744F0A37409F08074
:101324000E90C745E024FFF090C744E034FFF090EE
:10133400C6E5E0FEA3E0FF7C007D0A12813AAA061E
:10134400AB0790C719E0FEA3E0FF7D6412813AEF7A
:101354002BFFEE3AFE90C745E02FFF90C744E03ED6
:1013640090C7D1F0A3EFF090C82AE0FEA3E0FF906D
:10137400C7D1E0FCA3E0FDD39FEC9E502490C82786
:10138400E0FEA3E0FFC3ED9FEC9E40157B017AC70E
:10139400794490C7FAE4F0A304F07F307E20021968
:1013A4008E90C7CFE0FFA3E090C744CFF0A3EFF047
:1013B4007B017AC7794490C7FAE4F0A304F07F3044
:1013C4007E2002198E90C674E064016003021495B5
:1013D40090C6E5E0FEA3E0FF90C7CFEEF0A3EFF0E8
:1013E4004E700A90C6E5F0A37409F0800E90C6E62C
:1013F400E024FFF090C6E5E034FFF090C6E5E0FE9F
:10140400A3E0FF7C007D0A12813AAA06AB0790C7CD
:1014140019E0FEA3E0FF7D6412813AEF2BFFEE3A60
:10142400FE90C745E02FFF90C744E03E90C7D1F03F
:10143400A3EFF090C82AE0FEA3E0FF90C7D1E0FC40
:10144400A3E0FDD39FEC9E502490C827E0FEA3E0C8
:10145400FFC3ED9FEC9E40157B017AC679E590C7EA
:10146400FAE4F0A304F07F107E2002198E90C7CF17
:10147400E0FFA3E090C6E5CFF0A3EFF07B017AC6CE
:1014840079E590C7FAE4F0A304F07F107E200219F6
:101494008E90C674E06402600302316290C719E062
:1014A400FEA3E0FF90C7CFEEF0A3EFF04E700A90DA
:1014B400C719F0A37402F0800E90C71AE024FFF05D
:1014C40090C719E034FFF090C6E5E0FEA3E0FF7C8E
:1014D400007D0A12813AAA06AB0790C719E0FEA361
:1014E400E0FF7D6412813AEF2BFFEE3AFE90C74590
:1014F400E02FFF90C744E03E90C7D1F0A3EFF090F7
:10150400C82AE0FEA3E0FF90C7D1E0FCA3E0FDD32E
:101514009FEC9E502490C827E0FEA3E0FFC3ED9FFC
:10152400EC9E40157B017AC7791990C7FAE4F0A3C1
:1015340004F07F007E2002198E90C7CFE0FFA3E065
:1015440090C719CFF0A3EFF07B017AC7791990C740
:10155400FAE4F0A304F07F007E2002198E90C6788E
:10156400E0B4023990C83CE0FEA3E0FFD390C70288
:10157400E09F90C701E09E5003023162A3E024FF84
:10158400F090C701E034FFF07B017AC7790190C77E
:10159400FAE4F0A304F07F507E2002198E90C678FE
:1015A400E06403600302180E90C674E06003021640
:1015B4007690C734E0FEA3E0FF90C7CFEEF0A3EF30
:1015C400F04E700A90C734F0A37409F0800E90C7EF
:1015D40035E024FFF090C734E034FFF090C768E0B2
:1015E400FEA3E0FF7C007D0A12813AAA06AB0790B5
:1015F400C6FAE0FEA3E0FF7D6412813AEF2BFFEE12
:101604003AFE90C735E02FFF90C734E03E90C7D133
:10161400F0A3EFF090C822E0FEA3E0FF90C7D1E072
:10162400FCA3E0FDD39FEC9E502490C81FE0FEA3D2
:10163400E0FFC3ED9FEC9E40157B017AC77934909F
:10164400C7FAE4F0A304F07F807E2002198E90C7CD
:10165400CFE0FFA3E090C734CFF0A3EFF07B017A93
:10166400C7793490C7FAE4F0A304F07F807E2002A7
:10167400198E90C674E06401600302174290C76833
:10168400E0FEA3E0FF90C7CFEEF0A3EFF04E700AA8
:1016940090C768F0A37409F0800E90C769E024FF36
:1016A400F090C768E034FFF090C768E0FEA3E0FF65
:1016B4007C007D0A12813AAA06AB0790C6FAE0FEC6
:1016C400A3E0FF7D6412813AEF2BFFEE3AFE90C750
:1016D40035E02FFF90C734E03E90C7D1F0A3EFF080
:1016E40090C822E0FEA3E0FF90C7D1E0FCA3E0FD98
:1016F400D39FEC9E502490C81FE0FEA3E0FFC3EDEF
:101704009FEC9E40157B017AC7796890C7FAE4F094
:10171400A304F07F707E2002198E90C7CFE0FFA350
:10172400E090C768CFF0A3EFF07B017AC7796890A7
:10173400C7FAE4F0A304F07F707E2002198E90C6ED
:1017440074E06402600302316290C6FAE0FEA3E032
:10175400FF90C7CFEEF0A3EFF04E700A90C6FAF0F8
:10176400A37402F0800E90C6FBE024FFF090C6FA4A
:10177400E034FFF090C768E0FEA3E0FF7C007D0A40
:1017840012813AAA06AB0790C6FAE0FEA3E0FF7DF9
:101794006412813AEF2BFFEE3AFE90C735E02FFF3B
:1017A40090C734E03E90C7D1F0A3EFF090C822E098
:1017B400FEA3E0FF90C7D1E0FCA3E0FDD39FEC9E25
:1017C400502490C81FE0FEA3E0FFC3ED9FEC9E40B1
:1017D400157B017AC679FA90C7FAE4F0A304F07F86
:1017E400607E2002198E90C7CFE0FFA3E090C6FA76
:1017F400CFF0A3EFF07B017AC679FA90C7FAE4F050
:10180400A304F07F607E2002198E90C678E0640401
:10181400600302316290C674E060030218DE90C770
:1018240032E0FEA3E0FF90C7CFEEF0A3EFF04E70DE
:101834001D90C6D9E07002A3E090C7326008E4F0BE
:10184400A3743BF08016E4F0A3743CF0800E90C7C0
:1018540033E024FFF090C732E034FFF090C732E069
:10186400FEA3E0FF7C007D3C12813A90C6DAE02FB3
:10187400FF90C6D9E03E90C7D1F0A3EFF090C830F6
:10188400E0FEA3E0FF90C7D1E0FCA3E0FDD39FEC12
:101894009E502390C82EE0FEA3E0FFED9FEC9E40F7
:1018A400157B017AC7793290C7FAE4F0A304F07F7C
:1018B400107E2102198E90C7CFE0FFA3E090C732BB
:1018C400CFF0A3EFF07B017AC7793290C7FAE4F046
:1018D400A304F07F107E2102198E90C674E0640187
:1018E400600302316290C6D9E0FEA3E0FF90C7CF47
:1018F400EEF0A3EFF04E700A90C6D9F0A3743BF05B
:10190400800E90C6DAE024FFF090C6D9E034FFF0F0
:1019140090C732E0FEA3E0FF7C007D3C12813A9048
:10192400C6DAE02FFF90C6D9E03E90C7D1F0A3EF0E
:10193400F090C830E0FEA3E0FF90C7D1E0FCA3E044
:10194400FDD39FEC9E502290C82EE0FEA3E0FFED55
:101954009FEC9E40147B017AC679D990C7FAE4F0D3
:10196400A304F07F307E21802190C7CFE0FFA3E065
:1019740090C6D9CFF0A3EFF07B017AC679D990C78E
:10198400FAE4F0A304F07F307E2112983002316231
:1019940090C677E06401702890C67FE07002A3E0EF
:1019A400600302316212BA6890C678E0B40105742B
:1019B40004F0800690C678E014F012B39D02316200
:1019C40090C6E8E0FFD394014008EFD39407500297
:1019D400804490C742E0FF90C6E8E0B5070B90C78B
:1019E4004AE0FF90C6E8F0803290C675E06401706A
:1019F4002F90C71BE0FF90C6E8E0B5070590C730FD
:101A0400803A90C6F3E0FF90C6E8E0B5070590C7BA
:101A14001B802990C6E8E014F0E0FF12C142803632
:101A240090C676E0B4011C90C6E7E0FFA3E0B507DA
:101A34000590C71B800690C6E8E014F0E0FF12C6CC
:101A44003C801390C6FEE0FF90C6E8E0B507077F30
:101A5400017E0012C28790C6EFE0FF90C6E8E0B5B1
:101A6400070E90C7CDE0FEA3E0FF127AE6023162D2
:101A740090C736E0FF90C6E8E0B5070E90C7CDE00A
:101A8400FEA3E0FF12A3CC02316290C741E0FF90B5
:101A9400C6E8E0B5070E90C7CDE0FEA3E0FF12A6AE
:101AA400D102316290C72FE0FF90C6E8E0B5070E7F
:101AB40090C7CDE0FEA3E0FF12BA1002316290C7D6
:101AC40006E0FF90C6E8E0B5070E90C7CDE0FEA3A0
:101AD400E0FF12ACB202316290C6DDE0FF90C6E8CE
:101AE400E0B5070B90C7CDE0FEA3E0FF127019022A
:101AF400316290C67FE07004A3E064016003022FAA
:101B0400D990C762E0FF90C6E8E06F6003021D5CF5
:101B140090C674E06003021BCA90C744E0FEA3E0D1
:101B2400FF90C7CFEEF0A3EFF064094E601090C7AA
:101B340045E004F0700F90C744E004F08007E4909F
:101B4400C744F0A3F090C6E5E0FEA3E0FF7C007D6F
:101B54000A12813AAA06AB0790C719E0FEA3E0FF78
:101B64007D6412813AEF2BFFEE3AFE90C745E02FD9
:101B7400FF90C744E03E90C7D1F0A3EFF090C82A8D
:101B8400E0FEA3E0FF90C7D1E0FCA3E0FDD39FEC0F
:101B94009E501190C827E0FEA3E0FFC3ED9FEC9E8A
:101BA4004002800F90C7CFE0FFA3E090C744CFF07E
:101BB400A3EFF07B017AC7794490C7FAE4F0A30459
:101BC400F07F70022EF990C674E064016003021C79
:101BD4009390C6E5E0FEA3E0FF90C7CFEEF0A3EF3D
:101BE400F064094E601090C6E6E004F0700F90C6F1
:101BF400E5E004F08007E490C6E5F0A3F090C6E5C4
:101C0400E0FEA3E0FF7C007D0A12813AAA06AB073E
:101C140090C719E0FEA3E0FF7D6412813AEF2BFF29
:101C2400EE3AFE90C745E02FFF90C744E03E90C7D0
:101C3400D1F0A3EFF090C82AE0FEA3E0FF90C7D153
:101C4400E0FCA3E0FDD39FEC9E502290C827E0FE69
:101C5400A3E0FFC3ED9FEC9E40137B017AC679E5B8
:101C640090C7FAE4F0A304F07F60022EF990C7CF86
:101C7400E0FFA3E090C6E5CFF0A3EFF07B017AC6C6
:101C840079E590C7FAE4F0A304F07F60022EF9909E
:101C9400C674E06402600302316290C719E0FEA3D7
:101CA400E0FF90C7CFEEF0A3EFF064024E60109017
:101CB400C71AE004F0700F90C719E004F08007E43D
:101CC40090C719F0A3F090C6E5E0FEA3E0FF7C0006
:101CD4007D0A12813AAA06AB0790C719E0FEA3E079
:101CE400FF7D6412813AEF2BFFEE3AFE90C745E088
:101CF4002FFF90C744E03E90C7D1F0A3EFF090C807
:101D04002AE0FEA3E0FF90C7D1E0FCA3E0FDD39F4F
:101D1400EC9E502290C827E0FEA3E0FFC3ED9FECA9
:101D24009E40137B017AC7791990C7FAE4F0A304A3
:101D3400F07F50022EF990C7CFE0FFA3E090C719BF
:101D4400CFF0A3EFF07B017AC7791990C7FAE4F0DA
:101D5400A304F07F50022EF990C76AE0FF90C6E812
:101D6400E06F6003021E9790C674E06003021DF3E7
:101D740090C737E0FEA3E0FF90C7CFEEF0A3EFF0EB
:101D840064094E601090C738E004F0700F90C737B4
:101D9400E004F08007E490C737F0A3F090C76BE04D
:101DA400FEA3E0FF7C007D0A12813A90C738E02F41
:101DB400FF90C737E03E90C7D1F0A3EFF090C7D1B2
:101DC400E0FEA3E0FFD39450EE9400500AEF940099
:101DD400EE94004002800F90C7CFE0FFA3E090C7CD
:101DE40037CFF0A3EFF07B017AC77937021F569003
:101DF400C674E06401600302316290C76BE0FEA325
:101E0400E0FF90C7CFEEF0A3EFF064084E700890A7
:101E1400C76BF0A3F0800E90C76CE004F0700690DE
:101E2400C76BE004F090C76BE0FEA3E0FF7C007D8D
:101E34000A12813A90C738E02FFF90C737E03E90EE
:101E4400C7D1F0A3EFF090C7D1E0FEA3E0FFD39495
:101E540050EE9400501BEF9400EE940040137B016D
:101E64007AC7796B90C7FAE4F0A304F07F90022E4E
:101E7400F990C7CFE0FFA3E090C76BCFF0A3EFF0DA
:101E84007B017AC7796B90C7FAE4F0A304F07F90E2
:101E9400022EF990C6F1E0FF90C6E8E06F600302FD
:101EA40020F190C674E06003021F6390C679E0FEDF
:101EB400A3E0FF90C7CFEEF0A3EFF064094E7008E3
:101EC40090C679F0A3F0800E90C67AE004F0700614
:101ED40090C679E004F090C67BE0FEA3E0FF7C00AE
:101EE4007D0A12813AAA06AB0790C679E0FEA3E008
:101EF400FF7D6412813AEF2BFFEE3AFE90C67EE03E
:101F04002FFF90C67DE03E90C7D1F0A3EFF090C7BD
:101F1400D1E0FEA3E0FFD39432EE9400501FEF947F
:101F240000EE9400401790C679E0FFA3E090C751FB
:101F3400CFF0A3EFF07B017AC67979801590C7CFF3
:101F4400E0FFA3E090C679CFF0A3EFF07B017AC65F
:101F5400797990C7FAE4F0A304F07F000223559046
:101F6400C674E06401600302202D90C67BE0FEA3EA
:101F7400E0FF90C7CFEEF0A3EFF064054E70089039
:101F8400C67BF0A3F0800E90C67CE004F07006904F
:101F9400C67BE004F090C67BE0FEA3E0FF7C007DFE
:101FA4000A12813AAA06AB0790C679E0FEA3E0FFC5
:101FB4007D6412813AEF2BFFEE3AFE90C67EE02F4D
:101FC400FF90C67DE03E90C7D1F0A3EFF090C7D15B
:101FD400E0FEA3E0FFD39432EE9400502AEF940085
:101FE400EE9400402290C67BE0FFA3E090C720CF90
:101FF400F0A3EFF07B017AC6797B90C7FAE4F0A3F3
:1020040004F07F1002235590C7CFE0FFA3E090C6F1
:102014007BCFF0A3EFF07B017AC6797B90C7FAE41B
:10202400F0A304F07F1002235590C674E0640260AC
:102034000302316290C67DE0FEA3E0FF90C7CFEEBD
:10204400F0A3EFF064094E700890C67DF0A3F08011
:102054000E90C67EE004F0700690C67DE004F09019
:10206400C67BE0FEA3E0FF7C007D0A12813AAA064B
:10207400AB0790C679E0FEA3E0FF7D6412813AEFDE
:102084002BFFEE3AFE90C67DE0FCA3E0FD2FFFECB3
:102094003E90C7D1F0A3EFF090C7D1E0FEA3E0FFDC
:1020A400D39432EE94005023EF9400EE9400401B3E
:1020B40090C70DECF0A3EDF07B017AC6797D90C753
:1020C400FAE4F0A304F07F2002235590C7CFE0FF89
:1020D400A3E090C67DCFF0A3EFF07B017AC6797DB3
:1020E40090C7FAE4F0A304F07F2002235590C74B75
:1020F400E0FF90C6E8E06F600302235A90C674E0E4
:1021040060030221C790C734E0FEA3E0FF90C7CF6D
:10211400EEF0A3EFF064094E601090C735E004F0D0
:10212400700F90C734E004F08007E490C734F0A344
:10213400F090C768E0FEA3E0FF7C007D0A12813ABC
:10214400AA06AB0790C6FAE0FEA3E0FF7D64128105
:102154003AEF2BFFEE3AFE90C735E02FFF90C734DD
:10216400E03E90C7D1F0A3EFF090C822E0FEA3E0D8
:10217400FF90C7D1E0FCA3E0FDD39FEC9E502290DA
:10218400C81FE0FEA3E0FFC3ED9FEC9E40137B015C
:102194007AC7793490C7FAE4F0A304F07F8002236D
:1021A4005590C7CFE0FFA3E090C734CFF0A3EFF082
:1021B4007B017AC7793490C7FAE4F0A304F07F80F6
:1021C40002235590C674E06401600302229090C714
:1021D40068E0FEA3E0FF90C7CFEEF0A3EFF0640940
:1021E4004E601090C769E004F0700F90C768E00477
:1021F400F08007E490C768F0A3F090C768E0FEA3FE
:10220400E0FF7C007D0A12813AAA06AB0790C6FA69
:10221400E0FEA3E0FF7D6412813AEF2BFFEE3AFE6D
:1022240090C735E02FFF90C734E03E90C7D1F0A3AC
:10223400EFF090C822E0FEA3E0FF90C7D1E0FCA33A
:10224400E0FDD39FEC9E502290C81FE0FEA3E0FF68
:10225400C3ED9FEC9E40137B017AC7796890C7FA5F
:10226400E4F0A304F07F7002235590C7CFE0FFA3EE
:10227400E090C768CFF0A3EFF07B017AC77968904C
:10228400C7FAE4F0A304F07F7002235590C674E00B
:102294006402600302316290C6FAE0FEA3E0FF909C
:1022A400C7CFEEF0A3EFF064024E601090C6FBE0DF
:1022B40004F0700F90C6FAE004F08007E490C6FAC8
:1022C400F0A3F090C768E0FEA3E0FF7C007D0A1253
:1022D400813AAA06AB0790C6FAE0FEA3E0FF7D644C
:1022E40012813AEF2BFFEE3AFE90C735E02FFF90B4
:1022F400C734E03E90C7D1F0A3EFF090C822E0FECF
:10230400A3E0FF90C7D1E0FCA3E0FDD39FEC9E5077
:102314002190C81FE0FEA3E0FFC3ED9FEC9E401296
:102324007B017AC679FA90C7FAE4F0A304F07F60DF
:10233400801F90C7CFE0FFA3E090C6FACFF0A3EFD1
:10234400F07B017AC679FA90C7FAE4F0A304F07F2F
:10235400607E22022FD390C761E0FF90C6E8E06F51
:1023640060030224B790C674E0600302240F90C790
:1023740007E0FEA3E0FF90C7CFEEF0A3EFF06409FF
:102384004E700890C707F0A3F0800E90C708E004D1
:10239400F0700690C707E004F090C75EE0FEA3E08B
:1023A400FF7C007D0A12813A90C708E02FFF90C796
:1023B40007E03E90C7D1F0A3EFF090C7D1E0FEA3B1
:1023C400E0FFD39450EE9400501DEF9400EE94007F
:1023D40040157B017AC7790790C7FAE4F0A304F0AB
:1023E4007F107E23022FD390C7CFE0FFA3E090C7D6
:1023F40007CFF0A3EFF07B017AC7790790C7FAE41F
:10240400F0A304F07F107E23022FD390C674E064FF
:1024140001600302316290C75EE0FEA3E0FF90C753
:10242400CFEEF0A3EFF064084E700890C75EF0A3FF
:10243400F0800E90C75FE004F0700690C75EE00481
:10244400F090C75EE0FEA3E0FF7C007D0A12813AB3
:1024540090C708E02FFF90C707E03E90C7D1F0A3D4
:10246400EFF090C7D1E0FEA3E0FFD39450EE9400C8
:10247400501DEF9400EE940040157B017AC7795EFD
:1024840090C7FAE4F0A304F07F007E23022FD390D8
:10249400C7CFE0FFA3E090C75ECFF0A3EFF07B01CE
:1024A4007AC7795E90C7FAE4F0A304F07F007E2334
:1024B400022FD390C6E4E0FF90C6E8E06F60030209
:1024C400272890C674E0600302259290C679E0FE46
:1024D400A3E0FF90C7CFEEF0A3EFF064094E7008BD
:1024E40090C679F0A3F0800E90C67AE004F07006EE
:1024F40090C679E004F090C67BE0FEA3E0FF7C0088
:102504007D0A12813AAA06AB0790C679E0FEA3E0E1
:10251400FF7D6412813AEF2BFFEE3AFE90C67EE017
:102524002FFF90C67DE03E90C7D1F0A3EFF090C797
:10253400D1E0FEA3E0FFD39432EE9400502CEF944C
:1025440000EE9400402490C679E0FFA3E090C757C2
:10255400CFF0A3EFF07B017AC6797990C7FAE4F063
:10256400A304F07F007E25022FD390C7CFE0FFA302
:10257400E090C679CFF0A3EFF07B017AC679799029
:10258400C7FAE4F0A304F07F007E25022FD390C69F
:1025940074E06401600302266090C67BE0FEA3E061
:1025A400FF90C7CFEEF0A3EFF064054E700890C61D
:1025B4007BF0A3F0800E90C67CE004F0700690C619
:1025C4007BE004F090C67BE0FEA3E0FF7C007D0A84
:1025D40012813AAA06AB0790C679E0FEA3E0FF7D1C
:1025E4006412813AEF2BFFEE3AFE90C67EE02FFF95
:1025F40090C67DE03E90C7D1F0A3EFF090C7D1E044
:10260400FEA3E0FFD39432EE9400502CEF9400EE3E
:102614009400402490C67BE0FFA3E090C726CFF04F
:10262400A3EFF07B017AC6797B90C7FAE4F0A304A8
:10263400F07F107E25022FD390C7CFE0FFA3E09058
:10264400C67BCFF0A3EFF07B017AC6797B90C7FA03
:10265400E4F0A304F07F107E25022FD390C674E02B
:102664006402600302316290C67DE0FEA3E0FF9045
:10267400C7CFEEF0A3EFF064094E700890C67DF06A
:10268400A3F0800E90C67EE004F0700690C67DE054
:1026940004F090C67BE0FEA3E0FF7C007D0A12817B
:1026A4003AAA06AB0790C679E0FEA3E0FF7D641268
:1026B400813AEF2BFFEE3AFE90C67DE0FCA3E0FDED
:1026C4002FFFEC3E90C7D1F0A3EFF090C7D1E0FE0E
:1026D400A3E0FFD39432EE94005025EF9400EE94DF
:1026E40000401D90C713ECF0A3EDF07B017AC6798E
:1026F4007D90C7FAE4F0A304F07F207E25022FD357
:1027040090C7CFE0FFA3E090C67DCFF0A3EFF07BAE
:10271400017AC6797D90C7FAE4F0A304F07F207EA5
:1027240025022FD390C75DE0FF90C6E8E06F6003F9
:102734000228C690C674E0600302281290C732E0F3
:10274400FEA3E0FF90C7CFEEF0A3EFF0643B4E7022
:102754001D90C6D9E07002A3E06003E4801C90C71A
:1027640033E004F0702A90C732E004F0802290C76E
:1027740032E07004A3E0643C700890C732F0A3F028
:10278400800E90C733E004F0700690C732E004F086
:1027940090C732E0FEA3E0FF7C007D3C12813A90BA
:1027A400C6DAE02FFF90C6D9E03E90C7D1F0A3EF80
:1027B400F090C830E0FEA3E0FF90C7D1E0FCA3E0B6
:1027C400FDD39FEC9E502390C82EE0FEA3E0FFEDC6
:1027D4009FEC9E40157B017AC7793290C7FAE4F0EA
:1027E400A304F07F707E23022FD390C7CFE0FFA312
:1027F400E090C732CFF0A3EFF07B017AC779329033
:10280400C7FAE4F0A304F07F707E23022FD390C6AE
:1028140074E06401600302316290C6D9E0FEA3E073
:10282400FF90C7CFEEF0A3EFF0643B4E700890C664
:10283400D9F0A3F0800E90C6DAE004F0700690C6DA
:10284400D9E004F090C732E0FEA3E0FF7C007D3CB9
:1028540012813A90C6DAE02FFF90C6D9E03E90C7C5
:10286400D1F0A3EFF090C830E0FEA3E0FF90C7D111
:10287400E0FCA3E0FDD39FEC9E502390C82EE0FE25
:10288400A3E0FFED9FEC9E40157B017AC679D990B9
:10289400C7FAE4F0A304F07F807E23022FD390C70D
:1028A400CFE0FFA3E090C6D9CFF0A3EFF07B017A8D
:1028B400C679D990C7FAE4F0A304F07F807E23029E
:1028C4002FD390C73FE0FF90C6E8E0B5073990C822
:1028D4003EE0FEA3E0FFC390C702E09F90C701E083
:1028E4009E4003023162A3E004F0700690C701E049
:1028F40004F07B017AC7790190C7FAE4F0A304F0ED
:102904007F007E24022FD390C6E0E0FF90C6E8E06B
:102914006F600302316290C678E064016003022BA9
:102924008A90C674E060030229F090C744E0FEA3D5
:10293400E0FF90C7CFEEF0A3EFF064094E60109073
:10294400C745E004F0700F90C744E004F08007E44A
:1029540090C744F0A3F090C6E5E0FEA3E0FF7C003E
:102964007D0A12813AAA06AB0790C719E0FEA3E0DC
:10297400FF7D6412813AEF2BFFEE3AFE90C745E0EB
:102984002FFF90C744E03E90C7D1F0A3EFF090C86A
:102994002AE0FEA3E0FF90C7D1E0FCA3E0FDD39FB3
:1029A400EC9E502490C827E0FEA3E0FFC3ED9FEC0B
:1029B4009E40157B017AC7794490C7FAE4F0A304DA
:1029C400F07F307E20022FD390C7CFE0FFA3E090AA
:1029D400C744CFF0A3EFF07B017AC7794490C7FADC
:1029E400E4F0A304F07F307E20022FD390C674E07D
:1029F40064016003022ABD90C6E5E0FEA3E0FF90F7
:102A0400C7CFEEF0A3EFF064094E601090C6E6E085
:102A140004F0700F90C6E5E004F08007E490C6E58A
:102A2400F0A3F090C6E5E0FEA3E0FF7C007D0A126F
:102A3400813AAA06AB0790C719E0FEA3E0FF7D64C4
:102A440012813AEF2BFFEE3AFE90C745E02FFF903C
:102A5400C744E03E90C7D1F0A3EFF090C82AE0FE4F
:102A6400A3E0FF90C7D1E0FCA3E0FDD39FEC9E5010
:102A74002490C827E0FEA3E0FFC3ED9FEC9E401521
:102A84007B017AC679E590C7FAE4F0A304F07F10DD
:102A94007E20022FD390C7CFE0FFA3E090C6E5CFFE
:102AA400F0A3EFF07B017AC679E590C7FAE4F0A3CE
:102AB40004F07F107E20022FD390C674E06402607D
:102AC4000302316290C719E0FEA3E0FF90C7CFEE86
:102AD400F0A3EFF064024E601090C71AE004F070A7
:102AE4000F90C719E004F08007E490C719F0A3F031
:102AF40090C6E5E0FEA3E0FF7C007D0A12813AAABD
:102B040006AB0790C719E0FEA3E0FF7D6412813A8B
:102B1400EF2BFFEE3AFE90C745E02FFF90C744E04D
:102B24003E90C7D1F0A3EFF090C82AE0FEA3E0FFE7
:102B340090C7D1E0FCA3E0FDD39FEC9E502490C845
:102B440027E0FEA3E0FFC3ED9FEC9E40157B017AD6
:102B5400C7791990C7FAE4F0A304F07F007E20023D
:102B64002FD390C7CFE0FFA3E090C719CFF0A3EF16
:102B7400F07B017AC7791990C7FAE4F0A304F07FD7
:102B8400007E20022FD390C678E0B4023A90C83E6B
:102B9400E0FEA3E0FF90C701E06E7003A3E06F7056
:102BA4000302316290C702E004F0700690C701E0AE
:102BB40004F07B017AC7790190C7FAE4F0A304F02A
:102BC4007F507E20022FD390C678E0640360030216
:102BD4002E3B90C674E06003022CA190C734E0FE43
:102BE400A3E0FF90C7CFEEF0A3EFF064094E6010AE
:102BF40090C735E004F0700F90C734E004F080070C
:102C0400E490C734F0A3F090C768E0FEA3E0FF7C33
:102C1400007D0A12813AAA06AB0790C6FAE0FEA329
:102C2400E0FF7D6412813AEF2BFFEE3AFE90C73548
:102C3400E02FFF90C734E03E90C7D1F0A3EFF090AF
:102C4400C822E0FEA3E0FF90C7D1E0FCA3E0FDD3DF
:102C54009FEC9E502490C81FE0FEA3E0FFC3ED9FAD
:102C6400EC9E40157B017AC7793490C7FAE4F0A34F
:102C740004F07F807E20022FD390C7CFE0FFA3E033
:102C840090C734CFF0A3EFF07B017AC7793490C7B3
:102C9400FAE4F0A304F07F807E20022FD390C67460
:102CA400E064016003022D6E90C768E0FEA3E0FFBC
:102CB40090C7CFEEF0A3EFF064094E601090C7699F
:102CC400E004F0700F90C768E004F08007E490C758
:102CD40068F0A3F090C768E0FEA3E0FF7C007D0AE3
:102CE40012813AAA06AB0790C6FAE0FEA3E0FF7D84
:102CF4006412813AEF2BFFEE3AFE90C735E02FFFC6
:102D040090C734E03E90C7D1F0A3EFF090C822E022
:102D1400FEA3E0FF90C7D1E0FCA3E0FDD39FEC9EAF
:102D2400502490C81FE0FEA3E0FFC3ED9FEC9E403B
:102D3400157B017AC7796890C7FAE4F0A304F07FA1
:102D4400707E20022FD390C7CFE0FFA3E090C76826
:102D5400CFF0A3EFF07B017AC7796890C7FAE4F06B
:102D6400A304F07F707E20022FD390C674E0640227
:102D7400600302316290C6FAE0FEA3E0FF90C7CF81
:102D8400EEF0A3EFF064024E601090C6FBE004F096
:102D9400700F90C6FAE004F08007E490C6FAF0A33E
:102DA400F090C768E0FEA3E0FF7C007D0A12813A40
:102DB400AA06AB0790C6FAE0FEA3E0FF7D64128189
:102DC4003AEF2BFFEE3AFE90C735E02FFF90C73461
:102DD400E03E90C7D1F0A3EFF090C822E0FEA3E05C
:102DE400FF90C7D1E0FCA3E0FDD39FEC9E5024905C
:102DF400C81FE0FEA3E0FFC3ED9FEC9E40157B01DE
:102E04007AC679FA90C7FAE4F0A304F07F607E20D2
:102E1400022FD390C7CFE0FFA3E090C6FACFF0A370
:102E2400EFF07B017AC679FA90C7FAE4F0A304F0D4
:102E34007F607E20022FD390C678E0640460030292
:102E4400316290C674E06003022F2290C732E0FE24
:102E5400A3E0FF90C7CFEEF0A3EFF0643B4E701DEC
:102E640090C6D9E07002A3E06003E4801C90C733ED
:102E7400E004F0702A90C732E004F0802290C73258
:102E8400E07004A3E0643C700890C732F0A3F080C3
:102E94000E90C733E004F0700690C732E004F0905F
:102EA400C732E0FEA3E0FF7C007D3C12813A90C66D
:102EB400DAE02FFF90C6D9E03E90C7D1F0A3EFF03F
:102EC40090C830E0FEA3E0FF90C7D1E0FCA3E0FD92
:102ED400D39FEC9E502490C82EE0FEA3E0FFC3EDE8
:102EE4009FEC9E40157B017AC7793290C7FAE4F0D3
:102EF400A304F07F107E21022FD390C7CFE0FFA35D
:102F0400E090C732CFF0A3EFF07B017AC77932901B
:102F1400C7FAE4F0A304F07F107E21022FD390C6F9
:102F240074E06401600302316290C6D9E0FEA3E05C
:102F3400FF90C7CFEEF0A3EFF0643B4E700890C64D
:102F4400D9F0A3F0800E90C6DAE004F0700690C6C3
:102F5400D9E004F090C732E0FEA3E0FF7C007D3CA2
:102F640012813A90C6DAE02FFF90C6D9E03E90C7AE
:102F7400D1F0A3EFF090C830E0FEA3E0FF90C7D1FA
:102F8400E0FCA3E0FDD39FEC9E502390C82EE0FE0E
:102F9400A3E0FFC3ED9FEC9E40147B017AC679D970
:102FA40090C7FAE4F0A304F07F307E21802190C71B
:102FB400CFE0FFA3E090C6D9CFF0A3EFF07B017A76
:102FC400C679D990C7FAE4F0A304F07F307E2112C9
:102FD400983002316290C677E06401702A90C6E0AE
:102FE400E0FF90C6E8E06F600302316212BA6890B5
:102FF400C678E0B404057401F0800690C678E00455
:10300400F012B39D02316290C74AE0FF90C6E8E037
:10301400FEC39F501490C742E0FFEEC39F400A9046
:10302400C6E8E004F0E0FF801590C74AE0FF90C6D0
:10303400E8E0B5070F90C742E0FF90C6E8F012C180
:103044004202316290C675E06401702790C730E097
:10305400FF90C6E8E0B50702802D90C71BE0FF9003
:10306400C6E8E0B5070590C6F3803890C6E8E004EA
:10307400F0803090C676E06401703090C705E0FFC0
:1030840090C6E8E0B5070590C71B801790C71BE002
:10309400FF90C6E8E0B5070590C6E7800690C6E84D
:1030A400E004F0E0FF12C63C02316290C6FEE0FF8D
:1030B40090C6E8E0B5070A7F027E0012C28702319B
:1030C4006290C6EFE0FF90C6E8E0B5070E90C7CD6A
:1030D400E0FEA3E0FF127AE602316290C736E0FF19
:1030E40090C6E8E0B5070D90C7CDE0FEA3E0FF125F
:1030F400A3CC806A90C741E0FF90C6E8E0B5070D15
:1031040090C7CDE0FEA3E0FF12A6D1805190C72F57
:10311400E0FF90C6E8E0B5070D90C7CDE0FEA3E060
:10312400FF12BA10803890C767E0FF90C6E8E0FE4F
:103134006F602B90C706E0B5060D90C7CDE0FEA3E7
:10314400E0FF12ACB2801790C6DDE0FF90C6E8E065
:10315400B5070B90C7CDE0FEA3E0FF12701990C62F
:10316400727401F07D1E7C00E4FF02C33790C67FB9
:10317400E07004A3E0640160030234DD90C6E0E083
:10318400FF90C6E8E06F600302330990C678E064FC
:1031940001702990C674E004F0E06403700F12B467
:1031A400AF90C678E0FF7E007D6402330490C67859
:1031B400E0FF7E0090C674E0FD02330490C678E020
:1031C400B40221E490C67FF0A3F090C674F090C7D7
:1031D40001E0FCA3E0FD7F047E8112B4FD7F537EF9
:1031E4001002C44490C678E06403706C90C674E026
:1031F40004F0E06403705290C67FF0A3F090C674AC
:10320400F090C768E0FEA3E0FF7C007D0A12813ADB
:10321400AA06AB0790C6FAE0FEA3E0FF7D64128124
:103224003AEF2BFFEE3AFE90C735E02FFF90C734FC
:10323400E03E90C7D1F0A3EFF07F0212B4F390C642
:1032440078E0FF7E007D64800C90C678E0FF7E000D
:1032540090C674E0FD02330490C678E06404600311
:10326400023B9890C674E004F0E06402600302320A
:10327400F890C67FF0A3F090C674F07B017AC7790A
:103284003290C7F6F0A304F07F107E2112930B7BDB
:10329400017AC679D990C7F6E4F0A304F07F307EB2
:1032A4002112930B90C732E0FEA3E0FF7C007D3C2B
:1032B40012813A90C6DAE02FFF90C6D9E03E90C75B
:1032C400D1F0A3EFF07B017AC679D990C7FAE4F084
:1032D400A304F07F307E2112983090C7D1E0FCA384
:1032E400E0FD7F067E8112B4FD90C678E0FF7E008B
:1032F4007D64800C90C678E0FF7E0090C674E0FD8B
:103304007C00023A4190C674E004F090C6E8E0FF05
:103314007E0090C674E0FD7C001284A590C762E034
:10332400FF90C6E8E06F701190C674E06404700901
:1033340012B4AF90C6F3023A0E90C76AE0FF90C68B
:10334400E8E06F704890C674E06403704090C67FF4
:10335400F0A3F090C674F090C76BE0FEA3E0FF7C8E
:10336400007D0A12813A90C738E02FFF90C737E0FA
:103374003E90C7D1F0A3EFF090C7D1E0FCA3E0FDED
:103384007F087E8112B4FD90C6F9023A0E90C6F110
:10339400E0FF90C6E8E06F705F90C674E06404706C
:1033A4005790C67FF0A3F090C674F090C768E0FE13
:1033B400A3E0FF7C007D0A12813AAA06AB0790C6FF
:1033C400FAE0FEA3E0FF7D6412813AEF2BFFEE3AB0
:1033D400FE90C735E02FFF90C734E03E90C7D1F090
:1033E400A3EFF090C7D1E0FCA3E0FD7F027E811241
:1033F400B4FD90C730023A0E90C74BE0FF90C6E888
:10340400E06F704890C674E06403704090C67FF02B
:10341400A3F090C674F090C75EE0FEA3E0FF7C00CA
:103424007D0A12813A90C708E02FFF90C707E03E5B
:1034340090C7D1F0A3EFF090C7D1E0FCA3E0FD7FEB
:103444000A7E8112B4FD90C6E7023A0E90C761E08D
:10345400FF90C6E8E06F704890C674E06403704063
:1034640090C67FF0A3F090C674F090C732E0FEA33C
:10347400E0FF7C007D3C12813A90C6DAE02FFF9099
:10348400C6D9E03E90C7D1F0A3EFF090C7D1E0FCDD
:10349400A3E0FD7F067E8112B4FD90C6F2023A0ECF
:1034A40090C6E4E0FF90C6E8E06F6003023B9890AA
:1034B400C674E064026003023B9890C67FF0A3F0F8
:1034C40090C674F090C701E0FCA3E0FD7F047E8108
:1034D40012B4FD90C705023A0E90C742E0FF90C6B1
:1034E400E8E06F60030236E07B017AC779D190C7C8
:1034F400F6F0A304F07F007E8112930B90C7D1E015
:10350400FAA3E0FB7C007D64FFAE0212814C90C7FD
:1035140019EEF0A3EFF07C007D0AAF03AE02128136
:103524004C7C007D0A12814C90C6E5ECF0A3EDF0D2
:1035340090C7D1E0FEA3E0FF7C007D0A12814C908D
:10354400C744ECF0A3EDF07B017AC7791990C7FA70
:10355400E4F0A304F07F007E201298307B017AC649
:1035640079E590C7FAE4F0A304F07F107E20129866
:10357400307B017AC7794490C7FAE4F0A304F07F62
:10358400307E201298307B017AC779D190C7F6E457
:10359400F0A304F07F027E8112930B90C7D1E0FA6E
:1035A400A3E0FB7C007D64FFAE0212814C90C6FA5E
:1035B400EEF0A3EFF07C007D0AAF03AE0212814C63
:1035C4007C007D0A12814C90C768ECF0A3EDF0906A
:1035D400C7D1E0FEA3E0FF7C007D0A12814C90C7B6
:1035E40034ECF0A3EDF07B017AC679FA90C7FAE4E3
:1035F400F0A304F07F607E201298307B017AC779B3
:103604006890C7FAE4F0A304F07F707E201298302B
:103614007B017AC7793490C7FAE4F0A304F07F8081
:103624007E201298307B017AC779D190C7F6E4F0F6
:10363400A37402F07F067E8112930B90C7D1E0FA47
:10364400A3E0FB7C007D3CFFAE0212814C90C732AC
:10365400EEF0A3EFF07C007D3CAF03AE0212814C90
:1036640090C6D9ECF0A3EDF07B017AC7793290C70C
:10367400FAE4F0A37402F07F107E211298307B01EB
:103684007AC679D990C7FAE4F0A37402F07F207E59
:10369400211298307B017AC7790190C7F6E4F0A330
:1036A4007402F07F047E8112930B7B017AC7790147
:1036B40090C7FAE4F0A37402F07F507E2012983091
:1036C400E490C7D1F0A3F090C67804F012B3A090B0
:1036D400C6E012C13C90C6777401F02290C743E063
:1036E400FF90C6E8E0B5071290C6757401F090C665
:1036F400F3E0FF90C6E8F002C14290C746E0FF90B5
:10370400C6E8E0B5070C90C6767401F090C6E702EF
:103714003A0E90C747E0FF90C6E8E0B5072190C68F
:103724007FE4F0A304F07F737E1312C45F7F837E73
:103734001312C4297E2312C39890C75D023A0E90D7
:10374400C748E0FF90C6E8E06F704790C67FF0A3DB
:1037540004F0FB7AC7790190C7F6E4F0A304F07F84
:10376400047E8112930B7B017AC7790190C7FAE436
:10377400F0A304F07F007E241298307F037E14129D
:10378400C45FE4FDFC7F107E2412C39D90C73F02FA
:103794003A0E90C749E0FF90C6E8E06F6003023834
:1037A4005590C7D3E07004A3E06401700590C6F09F
:1037B400802590C7D5E07004A3E06401700590C62D
:1037C400E9801490C7D9E07004A3E0640170059007
:1037D400C6E3800390C6F0E0FF12C63C90C766E0E3
:1037E4006003023B987B017AC779D190C7F6F0A3B6
:1037F4007402F07F067E8112930B90C7D1E0FAA386
:10380400E0FB7C007D3CFFAE0212814C90C732EE9F
:10381400F0A3EFF07C007D3CAF03AE0212814C902C
:10382400C6D9ECF0A3EDF07B017AC7793290C7FAE0
:10383400E4F0A304F07F107E211298307B017AC655
:1038440079D990C7FAE4F0A304F07F307E2102987E
:103854003090C74AE0FF90C6E8E0B5070990C6FE7D
:1038640012C13C023B9D90C6F3E0FF90C6E8E06FB6
:10387400705890C67FF0A304F0FB7AC7791990C7FB
:10388400FAE4F0A304F07F507E211298307B017A91
:10389400C679E590C7FAE4F0A304F07F607E2112B4
:1038A40098307B017AC7794490C7FAE4F0A304F016
:1038B4007F707E2112983012849BE4FDFC7F807E11
:1038C4002112C39D90C762023A0E90C6F9E0FF90A0
:1038D400C6E8E06F704390C67FF0A304F0FB7AC79C
:1038E400796B90C7FAE4F0A304F07F907E211298DC
:1038F400307B017AC7793790C7FAE4F0A304F07FEC
:10390400007E2212983012849BE4FDFC7F107E22FC
:1039140012C39D90C76A023A0E90C730E0FF90C66A
:10392400E8E0B5070690C6F1023A0E90C6E7E0FF5C
:10393400A3E06F705390C67FF0A304F0FB7AC679BE
:10394400FA90C7FAE4F0A304F07F607E2212983064
:103954007B017AC7796890C7FAE4F0A304F07F701A
:103964007E221298307B017AC7793490C7FAE4F04A
:10397400A304F07F807E2212983012849B7E221250
:10398400C39890C74B023A0E90C6F2E0FF90C6E887
:10399400E06F704290C67FF0A304F0FB7AC7795EB3
:1039A40090C7FAE4F0A304F07F007E231298307BE2
:1039B400017AC7790790C7FAE4F0A304F07F107E78
:1039C4002312983012849BE4FDFC7F207E2312C3D3
:1039D4009D90C761803490C705E0FF90C6E8E0B5CC
:1039E400070690C6E4023ADE90C71BE0FF90C6E8E3
:1039F400E0B5071990C675E0B40107E4F090C74339
:103A04008008E490C676F090C746023ADE90C6F08D
:103A1400E0FF90C6E8E0B5070690C749023ADE9099
:103A2400C6E0E0FF90C6E8E0B5071590C67FE4F075
:103A3400A304F090C678E0FF7E00E4FDFC02A2AD92
:103A440090C6FEE0FF90C6E8E0B5070302A5D89053
:103A5400C6EFE0FF90C6E8E0B5070B90C7CDE0FEE7
:103A6400A3E0FF027AE690C736E0FF90C6E8E0B52F
:103A74000703026AA290C741E0FF90C6E8E0B507D9
:103A84000B90C7CDE0FEA3E0FF02A6D190C72FE0C4
:103A9400FF90C6E8E0B5070B90C7CDE0FEA3E0FFBA
:103AA40002BA1090C767E0FF90C6E8E0B50705903A
:103AB400C74A802690C706E0FF90C6E8E0B5070B2A
:103AC40090C7CDE0FEA3E0FF02ACB290C760E0FF78
:103AD40090C6E8E0B5070890C74AE0FF02C63C90EC
:103AE400C6DDE0FF90C6E8E06F6003023B9890C734
:103AF400CDE0FEA3E0FF02701990C6EFE0FF90C690
:103B0400E8E0FE6F603F90C736E0FFEE6F603690EE
:103B1400C741E0FFEE6F602D90C72FE0FFEE6F60AE
:103B24002490C767E0FFEE6F601B90C706E0FFEECE
:103B34006F601290C760E0FFEE6F600990C6DDE031
:103B4400FFEEB5070590C6FE800F90C6FEE0FF901D
:103B5400C6E8E0B5070A90C74AE0FF12C63C802FCA
:103B640090C6E0E0FF90C6E8E0B5072390C67FE08A
:103B74007002A3E0701990C677F090C67FF0A3F0AE
:103B840090C678F090C742E0FF12C63C12BA68E4CF
:043B940090C731F0B5
:013B9800220A
:1058700041C5060041C5090042C507000047C4FFF5
:0758800018091203091E00C4
:10C0FF007B017AC479FF90C7FAE4F0A37404F07F50
:10C10F00107E0012983090C8B27410F0A3E4F0A320
:10C11F00F0A3F0FFFEFDFC12AF7A7B017AC5790A1E
:0DC12F00E490C7F6F0A3F0FF7E1002930B22
:109CE2007F007E2012000090C506EFF090C509E0CB
:109CF2006F7003029E6590C506E090C509F070037F
:109D0200029E6590C508E004F0700690C507E00465
:109D1200F090C507E07004A3E0641E700690C507CA
:109D2200F0A3F07B017AC879D690C7F6E4F0A37469
:109D320004F07F107E0012930B90C507E0FEA3E0B3
:109D4200FF90C50A75F00C128418EE75F00CA4256C
:109D520083F583E4F0A3745AF090C507E0FCA3E016
:109D6200FD90C507E0FAA3E0FB90C50C75F00CEF7F
:109D7200128418EE75F00CA42583F583ECF0A3EDA4
:109D8200F090C8D6E0FF90C50E75F00CEB12841867
:109D9200EA75F00CA42583F583EFF090C8D7E0FFB5
:109DA20090C50F75F00CEB128418EA75F00CA4251F
:109DB20083F583EFF090C8D8E0FF90C51075F00CE2
:109DC200EB128418EA75F00CA42583F583EFF0906A
:109DD200C8DAE0FF90C51175F00CEB128418EA7531
:109DE200F00CA42583F583EFF090C8DBE0FF90C56B
:109DF2001275F00CEB128418EA75F00CA42583F5A9
