:030000000266E3B2
:0800F800FFFF4457494E543547
:1066E300759401759502758E0075930075C8707564
:1066F300C96075F80075F90175A80075B800759A39
:106703000075A90075B90053D0E7787FE4F6D8FD8A
:106713009080007F007E80E4F0A3DFFCDEFA7581C9
:046723001B0267628C
:10509A0090C310EEF0A3EFF0A3EBF0A3EAF0A3E9BC
:0150AA00F015
:1050AB00E490C317F0A3F0A3F0A3F0A3F0A3F0A335
:1050BB00F0A3F090C315E0FAA3E0FB4A7003025291
:1050CB005990C310E0FEA3E0FFC3E49FFFE49EFEF4
:1050DB00E4FCFD90C31F124492AF03AE02E4FCFD4F
:1050EB0090C31FE0F8A3E0F9A3E0FAA3E0FBC3121F
:1050FB00445B501190C31FA3A3E0FFA3E090C31523
:10510B00CFF0A3EFF090C310E0FCA3E0FDECC313D2
:10511B00FFED1390C317CFF0A3EFF0ED5401FFA3F6
:10512B00E4F0A3EFF0C2AFE4F5F190C317E0FCA3FA
:10513B00E0FDECF5F28DF375F40175F8AF30FCFD85
:10514B0090C319E07002A3E0603DD2FE20FEFD90FB
:10515B00C312E0FBA3E475F0011242BDA9F0FAE51E
:10516B00FC12420C90C312E0FBA3E475F001124257
:10517B00BDA9F0FAE5FD12420C90C316E024FFF036
:10518B0090C315E034FFF090C315E0FCA3E0FDECF9
:10519B00C313FFED1390C31BCFF0A3EFF0ED54013E
:1051AB00FFA3E4F0A3EFF090C31B74FFF5F01242E2
:1051BB00BD45F0605BD2FE20FEFD90C312E0FBA369
:1051CB00E475F0011242BDA9F0FAE5FA12420C9017
:1051DB00C312E0FBA3E475F0011242BDA9F0FAE59E
:1051EB00FB12420C90C312E0FBA3E475F0011242D8
:1051FB00BDA9F0FAE5FC12420C90C312E0FBA3E44C
:10520B0075F0011242BDA9F0FAE5FD12420C809730
:10521B0090C31DE07002A3E0602FD2FE20FEFD9034
:10522B00C312E0FBA3E475F0011242BDA9F0FAE54D
:10523B00FA12420C90C312E0FBA3E475F001124288
:0E524B00BDA9F0FAE5FB12420CE4F5F8D2AF73
:015259002232
:10590E0090C314EEF0A3EFF0A3EBF0A3EAF0A3E93B
:01591E00F098
:10591F00E490C31BF0A3F0A3F0A3F0A3F0A3F090C7
:10592F00C319E07002A3E07003025AA090C314E001
:10593F00FEA3E0FFC3E49FFFE49EFED390C31AE0F3
:10594F009F90C319E09E4005EEF0A3EFF090C314B3
:10595F00E0FAA3E0FBEAC313FCEB13FDEB5401FFEA
:10596F0090C31BE4F0A3EFF0C2AFE4F5F1ECF5F256
:10597F00AF058FF375F40175F88330FCFD90C31BF1
:10598F00E07002A3E0603D90C316E0FBA3E475F066
:10599F00011242BDA9F0FA1241C6F5FC90C316E000
:1059AF00FBA3E475F0011242BDA9F0FA1241C6F54E
:1059BF00FDD2FE20FEFD90C31AE024FFF090C31924
:1059CF00E034FFF090C319E0FCA3E0FDECC313FF3C
:1059DF00ED1390C31DCFF0A3EFF0ED5401FFA3E43F
:1059EF00F0A3EFF075F88F90C31D74FFF5F012421E
:1059FF00BD45F0605B90C316E0FBA3E475F00112A8
:105A0F0042BDA9F0FA1241C6F5FA90C316E0FBA306
:105A1F00E475F0011242BDA9F0FA1241C6F5FB90F0
:105A2F00C316E0FBA3E475F0011242BDA9F0FA1210
:105A3F0041C6F5FC90C316E0FBA3E475F0011242DA
:105A4F00BDA9F0FA1241C6F5FDD2FE30FE9980FBDA
:105A5F0090C31FE07002A3E0603275F88C90C316FC
:105A6F00E0FBA3E475F0011242BDA9F0FA1241C6A2
:105A7F00F5FA90C316E0FBA3E475F0011242BDA93D
:105A8F00F0FA1241C6F5FBD2FE20FEFDE4F5F8D286
:015A9F00AF57
:015AA00022E3
:105DB80090C426EEF0A3EFF0A3EBF0A3EAF0A3E97A
:015DC800F0EA
:105DC900A3E0FEA3E0FF4E7003025F3190C426E01A
:105DD900FCA3E0FDC3E49DFDE49CFCD3EF9DEE9C98
:105DE900400AAF0590C42BECF0A3EFF090C426E075
:105DF900FCA3E0FDECC313FEED13FBAA06ED540171
:105E0900FDC2AFE4F5F1EAF5F2AF038FF375F401E2
:105E190075F88330FCFDED604FC390C42CE094020B
:105E290090C42BE094005003025F2C90C428E0FB3F
:105E3900A3E475F0011242BDA9F0FA1241C6F5FCBE
:105E490090C428E0FBA3E475F0011242BDA9F0FA61
:105E59001241C6F5FDD2FE20FEFD90C42CE024FEC1
:105E6900F090C42BE034FFF090C42BE0FEA3E0785F
:105E790002CEC313CE13D8F9FF75F88FEF1FAC0606
:105E890070011E4C605B90C428E0FBA3E475F0012F
:105E99001242BDA9F0FA1241C6F5FA90C428E0FBF6
:105EA900A3E475F0011242BDA9F0FA1241C6F5FB4F
:105EB90090C428E0FBA3E475F0011242BDA9F0FAF1
:105EC9001241C6F5FC90C428E0FBA3E475F0011269
:105ED90042BDA9F0FA1241C6F5FDD2FE30FE9D8001
:105EE900FB90C42CE030E1047F0180027F00EF6069
:105EF9003275F88C90C428E0FBA3E475F0011242D6
:105F0900BDA9F0FA1241C6F5FA90C428E0FBA3E452
:105F190075F0011242BDA9F0FA1241C6F5FBD2FE95
:085F290020FEFDE4F5F8D2AF03
:015F3100224D
:10802600EC90C462F0EDA3F07B017AC4796290C44F
:0A8036002BE4F0A37402F0025DB821
:1080DA00EF4E6010E4FD0DEDC3943240F9EF1F70CE
:0480EA00EF1E80EC19
:0180EE00226F
:086FC60090C434EEF0A3EFF0DB
:106FCE00A3745AF0A37401F090C434E0FCA3E0FD66
:106FDE00EC90C438F0A3EDF07B017AC4793690C3FF
:106FEE0019E4F0A37402F07F847E0012590E7FF430
:106FFE007E011280DA7B017AC4793690C315E4F0F3
:10700E00A37402F07F147E0012509A90C434E0FEF6
:10701E00A3E0FFA3E0B506D6A3E0B507D1E490C484
:10702E0036F0A3F0A3F0A3F07B017AC4793690C3B7
:0D703E0019F0A37402F07F167E0002590EB7
:08791A0090C2F3EEF0A3EFF0C0
:10792200E4A3F0A3F090C2F3E0FEA3E0FFC390C291
:10793200F6E09F90C2F5E09E5025E4FBFA7F017EBF
:10794200001280DA0BBB00010ABA01F1BB2CEE90E7
:0F795200C2F6E004F070CE90C2F5E004F080C6FB
:017961002203
:10796200EF14601814602314602E2403703974011C
:10797200A805088002C333D8FC42B7227401A805C7
:10798200088002C333D8FC42BC227401A8050880D7
:1079920002C333D8FC42BD22AF057401A807088098
:0879A20002C333D8FC42BE22EF
:10783A00EF1460191460251460312403703D74013B
:10784A00A805088002C333D8FCF452B7227401A8F1
:10785A0005088002C333D8FCF452BC227401A8057F
:10786A00088002C333D8FCF452BD22AF057401A8C4
:0C787A0007088002C333D8FCF452BE2281
:106CFB00EF14602D14604A14606724036003026D67
:106D0B008DEB600E7401A805088002C333D8FC42DA
:106D1B0080227401A805088002C333D8FCF452808A
:106D2B0022EB600E7401A805088002C333D8FC4225
:106D3B0090227401A805088002C333D8FCF452904A
:106D4B0022EB600E7401A805088002C333D8FC4205
:106D5B00A0227401A805088002C333D8FCF452A00A
:106D6B0022EB600E7401A805088002C333D8FC42E5
:106D7B00B022AF057401A807088002C333D8FCF416
:036D8B0052B022E1
:1076A100EF14601A146027146034240370427401CB
:1076B100A805088002C333D8FC5580FE80347401CC
:1076C100A805088002C333D8FC5590FE80247401BC
:1076D100A805088002C333D8FC55A0FE8014AF056D
:1076E1007401A807088002C333D8FC55B0FE80029C
:0476F100E4FEAF06FE
:0176F5002272
:107ED300758911E4F58CF58AC28CF518F51A438976
:0E7EE30001758CBC758ACDD2A9D2AFD28C228B
:03000B000270C1BF
:0D70C100C0E0C0D075D000C000C006C00700
:1070CE00C2AF758CBC758ACD0519751B0074017E17
:1070DE0000A81B088005C333CE33CED8F9FFEF5579
:1070EE001A602DE51B25E02408F808E61618700135
:1070FE0016E51B25E02408F8E6FE08E64E7011AFF3
:10710E001B04A807088002C333D8FC4218F4521A95
:09711E00051BE51BB408B6D2AF55
:0B712700D007D006D000D0D0D0E0325E
:10804000758911E4F58DF58BC28ED2AF4389107519
:0A8050008DBC758BCDD2ABD28E2211
:03001B00028176E9
:0D817600C2AF758DBC758BCDB290D2AF320B
:1081190075C8F075CD58E4F5CC75CB58F5CA43C888
:0481290001D2AD22B0
:03002B0002818FC0
:09818F00C2AFC2C6B291D2AF32F8
:107E9200C2AF7401A807088002C333D8FCFE421A9D
:107EA200EF25E02408F8A60408A605EEF45218D23D
:027EB200AF22FD
:1080EF00C2AF7401A807088002C333D8FCF4521A38
:0580FF005218D2AF226F
:10814100C2AF7401A807088002C333D8FC5518FFD9
:02815100D2AFAB
:018153002209
:10779E00AB07AA06A905A8047F007E387D317C00C0
:1077AE001243C9C3E49F90C2F2F074049E90C2F1DA
:1077BE00F043C9407D04E4FF1279627D05E4FF12B7
:1077CE00783A43803075D88075985090C2F1E0FCBD
:0D77DE00A3E0FDECF5BA8DAA43A810D2ACD3
:0177EB00227B
:1078D100AB07AA06A905A8047F007E707D627C0023
:1078E1001243C9C3E49F90C2F2F074049E90C2F1A6
:1078F100F043C9207D06E4FF1279627D07E4FF129F
:10790100783A4380C0759B9090C2F1E0FCA3E0FD02
:08791100ECF5BB8D9D439A01CA
:01791900224B
:107B8E00759680759780AB07AA06A905A8047F0095
:107B9E007EC07D897C011243C9AD07AC06ECF5D9D8
:107BAE00AF058FE743B80CE4909812F0A3F0A3F062
:107BBE00A3F090981AF0909816F0A3F0A3F0A3F00B
:017BCE002294
:107E470075A78075AB80AB07AA06A905A8047F00B4
:107E57007EC07D897C011243C9AD07AC06ECF5AE47
:077E6700AF058FAF43B830F7
:017E6E0022F1
:10774B00EF14601B1460291460372403704490C23B
:10775B00EDE0FCA3E0FDA3E0FEA3E0FF02779E902B
:10776B00C2EDE0FCA3E0FDA3E0FEA3E0FF0278D1B5
:10777B0090C2EDE0FCA3E0FDA3E0FEA3E0FF027BE3
:10778B008E90C2EDE0FCA3E0FDA3E0FEA3E0FF12B0
:03779B007E472204
:1054150090C2ECEFF0A3ECF0A3EDF0A3EBF0A3EA60
:04542500F0A3E9F017
:10542900C2AFE4A3F0A3F090C2EDE0FEA3E0FFC396
:1054390090C2F3E09F90C2F2E09E40030254ED90C7
:10544900C2EFE0FBA3E475F0011242BDA9F0FA1224
:1054590041C6FF90C2ECE0FE75F009A42400F58274
:10546900E5F03488F583EE75F008A42583F583E02B
:10547900FCA3E0FD75F009EEA42400F582E5F03403
:1054890080F583EE75F008A42583F583E5822DF573
:1054990082E5833CF583EFF075F009EEA42400F56D
:1054A90082E5F03488F583EE75F008A42583F58349
:1054B900E475F0011242A775F009EEA42400F58203
:1054C900E5F03488F583EE75F008A42583F583E0CB
:1054D9005403F090C2F3E004F0700690C2F2E004C5
:1054E900F002543090C2ECE0146042146070147001
:1054F90003025595240360030255C5908808E060AE
:10550900030255C504F0908802E0FEA3E02400F5EB
:105519008274803EF583E0F599908803E004F07089
:1055290006908802E004F09088020255C19090111B
:10553900E060030255C504F090900BE0FEA3E0245F
:1055490009F58274883EF583E0F59C90900CE0049F
:10555900F0700690900BE004F090900B805A9098B0
:105569001AE0705804F0909814E0FEA3E02412F5B4
:105579008274903EF583E0F59E909815E004F070F2
:1055890006909814E004F0909814802C90A023E0E1
:10559900702A04F090A01DE0FEA3E0241BF582749C
:1055A900983EF583E0F5AC90A01EE004F0700690FB
:0E55B900A01DE004F090A01DE05403F0D2AF5E
:0155C70022C1
:03002300026EAFBB
:106EAF00C0E0C083C082C0D075D000C006C007C28A
:106EBF00AF30982AC298908804E0FEA3E02400F532
:106ECF008274843EF583E599F0908805E004F070B4
:106EDF0006908804E004F0908804E05403F03099A1
:106EEF003FC299908802E0FEA3E0FF908800E06E19
:106EFF007003A3E06F602474002FF58274803EF559
:106F0F0083E0F599908803E004F07006908802E022
:106F1F0004F0908802E05403F08005908808E4F0B4
:0F6F2F00D2AFD007D006D0D0D082D083D0E032FE
:03005300027479BB
:10747900C0E0C083C082C0D075D000C006C007C2BA
:10748900AF5396FE909814E0FEA3E0FF909812E0A7
:107499006E7003A3E06F602474122FF58274903E1E
:1074A900F583E0F59E909815E004F0700690981425
:1074B900E004F0909814E05403F0800590981AE4E1
:1074C900F0D2AFD007D006D0D0D082D083D0E0326E
:03005B000279AA7D
:1079AA00C0E0C083C082C0D075D000C006C2AF5349
:1079BA0097FE909816E0FEA3E02412F58274943E96
:1079CA00F583E59FF0909817E004F07006909816FA
:1079DA00E004F0909816E05403F0D2AFD006D0D06D
:0779EA00D082D083D0E0320F
:030063000274D94B
:1074D900C0E0C083C082C0D075D000C006C007C25A
:1074E900AF53A7FE90A01DE0FEA3E0FF90A01BE014
:1074F9006E7003A3E06F6024741B2FF58274983EAD
:10750900F583E0F5AC90A01EE004F0700690A01D94
:10751900E004F090A01DE05403F0800590A023E45E
:10752900F0D2AFD007D006D0D0D082D083D0E0320D
:03006B000279F126
:1079F100C0E0C083C082C0D075D000C006C2AF5302
:107A0100ABFE90A01FE0FEA3E0241BF582749C3E18
:107A1100F583E5ADF090A020E004F0700690A01F82
:107A2100E004F090A01FE05403F0D2AFD006D0D014
:077A3100D082D083D0E032C7
:03008300026C60AC
:106C6000C0E0C083C082C0D075D000C006C007C2DB
:106C7000AFE59B30E02E759B90539BFE90900DE00E
:106C8000FEA3E02409F582748C3EF583E59CF09028
:106C9000900EE004F0700690900DE004F090900DDE
:106CA000E05403F0E59B30E143759B90539BFD90CE
:106CB000900BE0FEA3E0FF909009E06E7003A3E06C
:106CC0006F602474092FF58274883EF583E0F59C8B
:106CD00090900CE004F0700690900BE004F090901F
:106CE0000BE05403F08005909011E4F0D2AFD00790
:0B6CF000D006D0D0D082D083D0E0329C
:108104007596807597807C00ECF5D975E7E0759ECF
:048114000D53B8F35C
:018118002244
:0B7E6F0090C324EBF0A3EAF0A3E9F0BD
:107E7A0090C34F7401F0A374C3F0A37427F090C3A6
:077E8A004FE4F0A3F0A3F0A8
:017E910022CE
:0281A60080FE59
:05525A0042C4640000E5
:1069200090C2E6741AF0E4A3F0A3F0A3740AF0A3F3
:10693000740DF0A374EFF0127ED3128040124ED388
:10694000E4FD7F0212783A7D607CEAE4FF127E92D9
:106950007DF47C017F01127E9212704BD2AF90C207
:10696000E6E0FF127CC912577A7D887C137F0712FC
:106970007E927B017AC279E890C319E4F0A304F017
:106980007F007E8212590E127B0990C464E070026F
:10699000A3E070197F07128141EF601190C464E495
:1069A000F0A304F0E490C2E6F0FF127CC990C46446
:1069B000E07002A3E060D0127B4C127280125AA1E8
:1069C00090C2E4EEF0A3EFF0120100900000E0604E
:0569D000B6E4F080B206
:10525F0041C2830042C221000041C21E0041C21759
:10526F000044C2660000000046C20E0000000000AD
:10527F00006048C1C60000000100020003000400E6
:10528F00050006000700080009000A000B000C00CB
:10529F000D000E000F00100011001200130014007B
:1052AF00150016001700180019001A001B001C002B
:1052BF001D001E001F002000210022002342C22DCE
:1052CF00000041C2860042C218000042C2290000FD
:1052DF0050C270000000000000000000000000003D
:1052EF0000000050C24B0000000000000000000052
:1052FF0000000000000050C2370000000000000056
:10530F0000000000000000000042C289000042C2FD
:10531F0062000042C227000042C287000042C26002
:10532F00000042C280000042C235000042C25E004F
:10533F000042C215000042C231000041C26E00425D
:10534F00C28B000042C21A000042C21F000041C2BD
:10535F005D0042C22B000041C2240042C25B00002C
:10536F0042C233000042C284000042C22500004105
:10537F00C2300041C2230041C2640041C2820041D9
:10538F00C26F0041C2140041C2470041C26A0041CE
:10539F00C22F0041C2650041C2480041C26B0041AB
:1053AF00C1B20042C1B3000042C1B5000042C1B753
:1053BF00000041C1B90041C1BA0042C1BB00004168
:1053CF00C1BD0041C1BE0041C1BF0042C1C000000C
:0553DF0042C1C2000004
:0C7C89007F0690C2F0E0FCA3E0FD7E81CD
:107C950090C1C4EEF0A3EFF090C28BECF0A3EDF031
:107CA50090C26E7401F0FB7AC2798B90C319E4F02F
:0F7CB500A304F012590E7DBC7C027F06027E9262
:0C818300E490C26EF090C21FF0A3F02246
:1072800090C26EE060637F06128141EF605B90C147
:10729000C4E0FEA3E0FF7B017AC2791A90C315E433
:1072A000F0A304F012509A90C21AE0FEA3E0FF90FF
:1072B000C28BE0FCA3E0FDB50707ECB50603028135
:1072C00083C390C220E0940290C21FE09400501942
:1072D00090C1C4E0FEA3E0FF127C9590C220E004C0
:0A72E000F0700690C21FE004F022D7
:107F840090C46674C0F0A37464F07B017AC479660B
:0B7F940090C319E4F0A304F002590EA2
:107F9F0090C3127418F0A374E3F07B017AC37912C3
:0B7FAF0090C319E4F0A304F002590E87
:047EB4007F037E9436
:107EB80090C31274FFF0A37460F07B017AC3791247
:0B7EC80090C319E4F0A304F002590E6F
:107FBA0090C3127405F0A3741DF07B017AC3791281
:0B7FCA0090C319E4F0A304F002590E6C
:107FD50090C46874CEF0A37459F07B017AC47968B3
:0B7FE50090C319E4F0A304F002590E51
:047F4B007F237E50C2
:107F4F0074FF90C312F0A3F07B017AC3791290C330
:097F5F0019E4F0A304F002590E2C
:0681A000E490C217F0227A
:106B1F0090C3A2EEF0A3EFF0A3ECF0A3EDF0A3EA85
:046B2F00F0A3EBF0F4
:106B3300A3E0FAA3E0FB7C007D64FFAE02124252A5
:106B4300A3EEF0A3EFF07C007D0AAF03AE02124286
:106B5300527C007D0A124252A3ECF0A3EDF090C3E5
:106B6300A8E0FEA3E0FF7C007D0A12425290C3AE70
:106B7300ECF0A3EDF090C3A2E0FEA3E0FF7B017A6B
:106B8300C379AA90C319E4F0A304F012590E90C379
:106B9300A4E0FEA3E0FF7B017AC379AC90C319E4C0
:106BA300F0A304F012590E90C3A6E0FEA3E0FF7B0E
:106BB300017AC379AE90C319E4F0A304F002590E2D
:0E74170090C3F6EEF0A3EFF0A3ECF0A3EDF0BF
:107425007C007D3CAF03AE02124252A3EEF0A3EF07
:10743500F0AE02AF037C007D3C124252A3ECF0A3F8
:10744500EDF090C3F6E0FEA3E0FF7B017AC379FA85
:1074550090C319E4F0A304F012590E90C3F8E0FEAE
:10746500A3E0FF7B017AC379FC90C319E4F0A30480
:04747500F002590EBA
:086BC30090C43AEEF0A3EFF0DC
:106BCB00E4A3F0A3F0A3F0A304F0FB7AC4793C9008
:106BDB00C319E4F0A304F07F007E2912590E7B0148
:106BEB007AC4793E90C319E4F0A304F07F007E3998
:106BFB0012590E90C43AE0FEA3E0FFEE7056EF146C
:106C0B00602A04704F7B017AC4793C90C319E4F07D
:106C1B00A304F07F007E2912590E7B017AC4793EC2
:106C2B0090C319E4F0A304F07F0080237B017AC4A6
:106C3B00793C90C319E4F0A304F0FF7E2912590E9E
:106C4B007B017AC4793E90C319E4F0A304F0FF7E74
:046C5B003912590E83
:016C5F002212
:1063480090C310ECF0A3EDF0EE600302645BEF2461
:10635800FE605E146060147003026420240360030E
:1063680002645B90C310E0FEA3E0FFEE7035EF140B
:10637800601514601E2402702A127EB47F137E9466
:10638800127EB87F238055127EB47F137E94127FCD
:10639800BA801A7F037E94127FBA7F137E94127E8E
:1063A800B8800A127EB47F137E94127EB87F238051
:1063B800637F5302644890C310E0FEA3E0FFEE70D1
:1063C80043EF14601B14602A240270387F537E94B4
:1063D800127EB87F637E94127EB87F737E9480624B
:1063E8007F537E94127EB87F637E94127FBA7F7348
:1063F80080227F537E94127FBA7F637E94127EB888
:106408007F7380107F537E94127EB87F637E9412D0
:106418007EB87F737E94803890C310E0FEA3E0FFBF
:10642800EE7022EF14601004701B7F837E92127F3F
:10643800BA7F937E9280197F837E92127EB87F9373
:106448007E92027FBA7F837E92127EB87F937E927D
:04645800127EB822D6
:0A45780090C21EE0FF7E00E4FDFC8F
:1045820090C310ECF0A3EDF0EE6003024911EF24AA
:10459200F3B40B0040030249119045A975F003A43E
:1045A200C58325F0C583730245CA0246450246A665
:1045B20002472102479C0247FD0248770248C70290
:1045C20049110249110248ED90C310E07002A3E0C4
:1045D20070177F037E90127F9F7F137E90127F9FC2
:1045E2007F237E90127FBA804290C310E07004A3B2
:1045F200E0640170107F037E90127F9F7F137E9094
:10460200127FBA801F90C310E07004A3E064027F9F
:10461200037E907005127FBA8003127F9F7F137E04
:1046220090127F9F7F237E90127F9F90C310E07035
:1046320004A3E0640370047D018002E4FDFC7F10AA
:104642000248E890C310E07002A3E070107F537E2E
:1046520090127F9F7F637E90127FBA802F90C3104B
:10466200E07004A3E0640170097F537E90127FBA68
:10467200801390C310E07004A3E06402700E7F53B5
:104682007E90127F9F7F637E90127F9F90C310E087
:104692007004A3E0640270047D018002E4FDFC7FEB
:1046A200200248E890C310E07002A3E070177F7305
:1046B2007E90127F9F7F837E90127F9F7F937E905A
:1046C200127FBA804290C310E07004A3E0640170CC
:1046D200107F737E90127F9F7F837E90127FBA80BD
:1046E2001F90C310E07004A3E064027F737E907099
:1046F20005127FBA8003127F9F7F837E90127F9F75
:104702007F937E90127F9F90C310E07004A3E064B9
:104712000370047D018002E4FDFC7F300248E890D2
:10472200C310E07002A3E070177F037E91127F9F97
:104732007F137E91127F9F7F237E91127FBA8042E8
:1047420090C310E07004A3E0640170107F037E91B7
:10475200127F9F7F137E91127FBA801F90C310E059
:104762007004A3E064027F037E917005127FBA8019
:1047720003127F9F7F137E91127F9F7F237E911270
:104782007F9F90C310E07004A3E0640370047D0176
:104792008002E4FDFC7F400248E890C310E0700212
:1047A200A3E070107F437E91127F9F7F537E911210
:1047B2007FBA802F90C310E07004A3E064017009F7
:1047C2007F437E91127FBA801390C310E07004A3DE
:1047D200E06402700E7F437E91127F9F7F537E9131
:1047E200127F9F90C310E07004A3E0640270047D06
:1047F200018002E4FDFC7F500248E890C310E070A3
:1048020002A3E070177F637E91127F9F7F737E9178
:10481200127F9F7F837E91127FBA804290C310E005
:104822007004A3E0640170107F637E91127F9F7F0A
:10483200737E91127FBA801F90C310E07004A3E0D0
:1048420064027F637E917005127FBA8003127F9F9C
:104852007F737E91127F9F7F837E91127F9F90C391
:1048620010E07004A3E0640370047D018002E4FDA3
:10487200FC7F60807190C310E07002A3E070097F3A
:10488200937E91127FBA801F90C310E07004A3E060
:1048920064017F937E91700C127F9F7F037E921240
:1048A2007FBA800A127F9F7F037E92127F9F90C3FE
:1048B20010E07004A3E0640270047D018002E4FD54
:1048C200FC7F70802190C310E07004A3E064017F3C
:1048D200137E927009127F9F7D017C008006127FF9
:1048E200BAE4FDFC7F807E39027EF690C310E07050
:1048F20002A3E070077F337E94027FBA90C310E078
:104902007004A3E0640170077F337E94127F4F220C
:057EF100E4FDFC7E39F8
:107EF60090C312ECF0A3EDF07B017AC3791290C324
:097F060019E4F0A304F002590E85
:057CC40090C21EF0FF5C
:107CC90090C266745AF0A37401F0E4A3F0EF25E0C2
:107CD90024C6F582E434C1F583A3E090C269F07B40
:107CE900017AC2796690C319E4F0A37402F07F8423
:057CF9007E0002590E9F
:0881980090C21EEFF0027CC949
:1075F5007F037E94127F4F7F137E94127F4F7F23EC
:107605007E94127F4F7F237E92127F4F7F537E920F
:10761500127F4F7F537E94127F4F7F637E94127F3C
:107625004F7F737E94127F4F7F837E92127F4F7FB1
:10763500937E92127F4F7F737E92127F4FE4FDFC03
:06764500FF7E30027EF61C
:086F3E0090C1C0E0FEA3E0FFDA
:106F460090C310EEF0A3EFF064014E7015127EB4FC
:106F56007F137E94127EB87F237E94127EB87D01C5
:106F6600803A90C310E07004A3E06402700B7F23A4
:106F76007E92127EB87F53804190C310E07004A3C6
:106F8600E0640370207F537E94127EB87F637E9404
:106F9600127EB87F737E94127EB87D027C007F00DD
:106FA6007E30027EF690C310E07004A3E0640470A5
:106FB6000E7F837E92127EB87F937E92127EB822D7
:0477EC00AB07AA0637
:1077F0007C007D3C12425290C2EEEEF0A3EFF0AE60
:1078000002AF037C007D3C124252A3ECF0A3EDF0EA
:107810007B017AC279EE90C319E4F0A304F07F50A3
:107820007E2812590E7B017AC279F090C319E4F0D8
:0A783000A304F07F607E2802590EC9
:08764B0090C225E0FEA3E0FF60
:04765300AB07AA06D1
:107657007C007D3C12425290C310EEF0A3EFF0AED7
:1076670002AF037C007D3C124252A3ECF0A3EDF085
:107677007B017AC3791090C319E4F0A304F07F006B
:107687007E3112590E7B017AC3791290C319E4F047
:0A769700A304F07F007E3202590EBA
:107CFE0090C2247401F07F737E92127EB87F337E21
:107D0E0093127EB87F437E93127EB87B017AC2793E
:107D1E002590C315E4F0A304F07F067E8112509ADD
:097D2E007DE87C037F05027E92D2
:10805A00E490C224F07F737E92127F4F7F337E9327
:0A806A00127F4F7F437E93027F4F89
:107B4C0090C224E070077F737E92027F4F7F0512F4
:107B5C008141EF602C90C226E024FFF090C225E01A
:107B6C0034FFF012764ED390C226E0940090C225DA
:107B7C00E09400500302805A7DE87C037F05127E5E
:027B8C00922243
:10577A00E490C2ECF0A3F07B017AC2793190C315B0
:10578A00F0A304F07F047E8112509A7B017AC279D9
:10579A00EC90C315E4F0A304F07F007E8112509AC6
:1057AA0090C2ECE0FAA3E0FB7C007D64FFAE02123B
:1057BA00425290C249EEF0A3EFF07C007D0AAF039B
:1057CA00AE021242527C007D0A12425290C21CEC76
:1057DA00F0A3EDF090C2ECE0FEA3E0FF7C007D0AAE
:1057EA0012425290C26CECF0A3EDF07B017AC279BE
:1057FA00EC90C315E4F0A304F07F027E8112509A64
:10580A0090C2ECE0FAA3E0FB7C007D64FFAE0212DA
:10581A00425290C227EEF0A3EFF07C007D0AAF035C
:10582A00AE021242527C007D0A12425290C287ECAA
:10583A00F0A3EDF090C2ECE0FEA3E0FF7C007D0A4D
:10584A0012425290C260ECF0A3EDF07B017AC27969
:10585A003390C315E4F0A304F07F067E8112509AB8
:10586A0090C233E0FEA3E0FF1277EC7B017AC279A3
:10587A00EC90C315E4F0A304F07F087E8112509ADD
:10588A0090C2ECE0FAA3E0FB7C007D0AFFAE0212B4
:10589A0042527C007D0A12425290C289ECF0A3ED7A
:1058AA00F07C007D0AAF03AE0212425290C262EC53
:1058BA00F0A3EDF07B017AC279EC90C315E4F0A372
:1058CA0004F07F0A7E8112509A90C2ECE0FAA3E0BB
:1058DA00FB7C007D0AFFAE021242527C007D0A1256
:1058EA00425290C280ECF0A3EDF07C007D0AAF0337
:1058FA00AE0212425290C235ECF0A3EDF07F737EF5
:04590A0092027F4F37
:1061FF0090C230E0B408004003026347906212F887
:10620F0028287302622A02623602624D0262670216
:10621F0062880262B00262DF0263137F137E501244
:10622F007EB8127F4B800E7F137E50127F4F7F23DD
:10623F007E50127EB87F337E50127F4F80117F13B6
:10624F007E50127F4F127F4B7F337E50127EB87F6E
:10625F00437E50127F4F80187F137E50127F4F1254
:10626F007F4B7F337E50127F4F7F437E50127EB81D
:10627F007F537E50127F4F801F7F137E50127F4FB0
:10628F00127F4B7F337E50127F4F7F437E50127FA2
:10629F004F7F537E50127EB87F637E50127F4F80A8
:1062AF00267F137E50127F4F127F4B7F337E50120B
:1062BF007F4F7F437E50127F4F7F537E50127F4F11
:1062CF007F637E50127EB87F737E50127F4F802D7A
:1062DF007F137E50127F4F127F4B7F337E50127F82
:1062EF004F7F437E50127F4F7F537E50127F4F7FE1
:1062FF00637E50127F4F7F737E50127EB87F437E36
:10630F0056027F4F7F137E50127F4F127F4B7F338A
:10631F007E50127F4F7F437E50127F4F7F537E50B0
:10632F00127F4F7F637E50127F4F7F737E50127F9D
:09633F004F7F437E56127EB82206
:1073500090C230E0B40800505A907360F828287347
:107360000273780273820273B302738C0273960203
:10737000739A0273A40273A890C2647401F07F1D13
:10738000802E90C26F7401F07F1E802490C24774DB
:1073900001F07F22801A7F1F801690C22F7401F0A7
:1073A0007F20800C7F21800890C2487401F07F23E9
:0473B000128198228C
:0801000090C2ECEEF0A3EFF059
:10010800E4A3F0A3F0A3F0A3F090C1B2E0600DE483
:10011800FF128141EF6005E490C1B2F090C2ECE0BB
:10012800FEA3E0FF64014E6006EF64024E70099082
:10013800C1B2E06003023B767B017AC179C290C309
:1001480015E4F0A304F07F0C7E8012509A90C1C28F
:10015800A3E0FF7C0030E0047D0180027D0090C2B6
:10016800F2ECF0A3EDF0EF7E0030E1047F018002B5
:100178007F0090C2F4EEF0A3EFF090C1C2A3E0FFBD
:100188007C0030E2047D0180027D0090C304ECF025
:10019800A3EDF0EF7E0030E3047F0180027F009042
:1001A800C306EEF0A3EFF090C1C2A3E0FF7C0030DD
:1001B800E4047D0180027D0090C308ECF0A3EDF01B
:1001C800EF7E0030E7047F0180027F0090C2F6EEE8
:1001D800F0A3EFF090C1C2E0FEEE7C0030E4047DB5
:1001E8000180027D0090C2F8ECF0A3EDF0EE7E00F5
:1001F80030E0047F0180027F0090C2FAEEF0A3EFA6
:10020800F090C1C2A3E0FF7C0030E5047D018002CC
:100218007D0090C2FCECF0A3EDF0EF7E0030E60428
:100228007F0180027F0090C2FEEEF0A3EFF090C144
:10023800C2E0FEEE7C0030E1047D0180027D00908A
:10024800C300ECF0A3EDF0EE7E0030E2047F018005
:10025800027F0090C302EEF0A3EFF090C1C2E0FE6F
:10026800EE7C0030E3047D0180027D0090C30AEC3F
:10027800F0A3EDF0EE7E0030E5047F0180027F0000
:1002880090C30CEEF0A3EFF090C2FCE07004A3E082
:040298006401700B82
:09029C0090C30E74C0F0A3744479
:1002A500801D90C300E07004A3E0640190C30E704C
:0102B5000840
:0602B6007405F0A3741CA6
:0202BC008006BA
:1002BE0074CEF0A37459F07B017AC3790E90C319F2
:0C02CE00E4F0A304F07F137E9312590E9D
:0C02DA0090C2FEE07004A3E06401700B11
:0902E60090C30E74C0F0A374442F
:1002EF00801D90C302E07004A3E0640190C30E7000
:0102FF0008F6
:060300007405F0A3741C5B
:0203060080066F
:1003080074CEF0A37459F07B017AC3790E90C319A7
:0C031800E4F0A304F07F237E9312590E42
:1003240090C229E07002A3E0701990C30CE070043D
:10033400A3E06401700D741B127CC490C229E4F024
:10034400A304F090C2FAE07004A3E06401700F907B
:10035400C286E07009127CFE90C2867401F090C2DD
:100364001EE0B4182990C218E07002A3E0701F7B4D
:10037400017AC2792590C315F0A304F07F067E812B
:1003840012509A12764B90C218E4F0A304F090C273
:10039400F2E07004A3E06401600302044C90C22DF7
:1003A400E07004A3E06401600302044C7417127C3F
:1003B400C47B017AC279F090C315E4F0A304F07F02
:1003C400067E8112509A90C2F0E0FAA3E0FB7C0012
:1003D4007D3CFFAE0212425290C25EEEF0A3EFF0FB
:1003E4007C007D3CAF03AE0212425290C215ECF089
:1003F400A3EDF07B017AC2795E90C319E4F0A30403
:10040400F07F507E2812590E7B017AC2791590C371
:1004140019E4F0A304F07F607E2812590EE490C121
:10042400BFF090C1B9F0A3F0A3F0A3F090C1C0F065
:10043400A3F090C22DF0A3F090C286F090C218F001
:10044400A3F012805A02050990C2F6E07004A3E0FA
:100454006401602690C2FEE07004A3E06401601AA7
:1004640090C2FCE07004A3E064017002800C90C2AE
:10047400FAE07004A3E0640170321275F590C22DA5
:10048400E4F0A304F090C21E7418F0FF127CC9E4D7
:1004940090C1BFF090C1B9F0A3F0A3F0A3F090C154
:1004A400C0F0A3F090C229F0A3F0805990C302E0F9
:1004B4007004A3E06401600C90C300E07004A3E046
:1004C400640170411275F590C21E7419F0FF127C1C
:1004D400C912805A90C225E07004A3E06401700937
:1004E40090C225F0A3F012764BE490C1BFF090C106
:1004F400B9F0A3F0A3F0A3F090C1C0F0A3F090C2B0
:100504002DF0A304F090C2ECE0FEA3E0FFEE600344
:10051400023B76EF24FE70030219F4147003022EDA
:10052400E6147003023B0624036003023B7690C189
:10053400BBE07004A3E06401600302191D90C21EB5
:10054400E024F3B409004003022ED790055D75F052
:1005540003A4C58325F0C583730205780207A002AE
:1005640008EE020B50020D8B020ED902113B02124F
:100574009C0212D890C1BAE0600302062290C26CB9
:10058400E0FEA3E0FF90C2EEEEF0A3EFF04E700A9F
:1005940090C26CF0A37409F0800E90C26DE024FF49
:1005A400F090C26CE034FFF090C21CE0FEA3E0FFC8
:1005B4007C007D0A124240AA06AB0790C249E0FEC5
:1005C400A3E0FF7D64124240EF2BFFEE3AFE90C29F
:1005D4006DE02FFF90C26CE03E90C2F0F0A3EFF00C
:1005E40090C2F0E0FEA3E0FFD394C8EE9400500A5A
:1005F400EF9400EE94004002800F90C2EEE0FFA35F
:10060400E090C26CCFF0A3EFF07B017AC2796C90DA
:10061400C319E4F0A304F07420FFFE02191790C17B
:10062400BAE0640160030206E190C21CE0FEA3E0AC
:10063400FF90C2EEEEF0A3EFF04E700A90C21CF0F1
:10064400A37409F0800E90C21DE024FFF090C21C38
:10065400E034FFF090C21CE0FEA3E0FF7C007D0AC2
:10066400124240AA06AB0790C249E0FEA3E0FF7D18
:1006740064124240EF2BFFEE3AFE90C26DE02FFF72
:1006840090C26CE03E90C2F0F0A3EFF090C2F0E0B4
:10069400FEA3E0FFD394C8EE9400501DEF9400EE47
:1006A400940040157B017AC2791C90C319E4F0A32D
:1006B40004F07F107E2002191790C2EEE0FFA3E041
:1006C40090C21CCFF0A3EFF07B017AC2791C90C3D7
:1006D40019E4F0A304F07F107E2002191790C1BA28
:1006E400E064026003022ED790C249E0FEA3E0FF5B
:1006F40090C2EEEEF0A3EFF04E700A90C249F0A360
:100704007402F0800E90C24AE024FFF090C249E0E7
:1007140034FFF090C21CE0FEA3E0FF7C007D0A12CF
:100724004240AA06AB0790C249E0FEA3E0FF7D6405
:10073400124240EF2BFFEE3AFE90C26DE02FFF9085
:10074400C26CE03E90C2F0F0A3EFF090C2F0E0FE85
:10075400A3E0FFD394C8EE9400501DEF9400EE94F0
:100764000040157B017AC2794990C319E4F0A304CF
:10077400F07F007E2002191790C2EEE0FFA3E09004
:10078400C249CFF0A3EFF07B017AC2794990C31933
:10079400E4F0A304F07F007E2002191790C1BAE0B0
:1007A400600302084690C262E0FEA3E0FF90C2EE3E
:1007B400EEF0A3EFF04E700A90C262F0A37409F059
:1007C400800E90C263E024FFF090C262E034FFF038
:1007D40090C289E0FEA3E0FF7C007D0A12424090B3
:1007E400C263E02FFF90C262E03E90C2F0F0A3EF3C
:1007F400F090C2F0E0FEA3E0FFD39450EE940050DA
:100804001DEF9400EE940040157B017AC27962904A
:10081400C319E4F0A304F07F207E2102191790C2CB
:10082400EEE0FFA3E090C262CFF0A3EFF07B017A89
:10083400C2796290C319E4F0A304F07F207E210200
:10084400191790C1BAE064016003022ED790C289DF
:10085400E0FEA3E0FF90C2EEEEF0A3EFF04E700ACC
:1008640090C289F0A37408F0800E90C28AE024FF3D
:10087400F090C289E034FFF090C289E0FEA3E0FF6B
:100884007C007D0A12424090C263E02FFF90C26256
:10089400E03E90C2F0F0A3EFF090C2F0E0FEA3E0DF
:1008A400FFD39450EE9400501DEF9400EE9400405A
:1008B400157B017AC2798990C319E4F0A304F07F0F
:1008C400107E2102191790C2EEE0FFA3E090C289C6
:1008D400CFF0A3EFF07B017AC2798990C319E4F0D9
:1008E400A304F07F107E2102191790C1BAE06003BF
:1008F4000209BA90C1B3E0FEA3E0FF90C2EEEEF0AD
:10090400A3EFF04E700A90C1B3F0A37402F0800E0E
:1009140090C1B4E024FFF090C1B3E034FFF090C183
:10092400B5E0FEA3E0FF7C007D0A124240AA06ABBC
:100934000790C1B3E0FEA3E0FF7D64124240EF2BB9
:10094400FFEE3AFE90C1B8E02FFF90C1B7E03E90B1
:10095400C2F0F0A3EFF090C2F0E0FEA3E0FFD39466
:1009640032EE9400502CEF9400EE9400402490C199
:10097400B3E0FFA3E090C274CFF0A3EFF07B017A61
:10098400C179B390C319E4F0A304F07F007E22027E
:10099400191790C2EEE0FFA3E090C1B3CFF0A3EF2C
:1009A400F07B017AC179B390C319E4F0A304F07F1A
:1009B400007E2202191790C1BAE064016003020AA2
:1009C4008890C1B5E0FEA3E0FF90C2EEEEF0A3EF85
:1009D400F04E700A90C1B5F0A37405F0800E90C17A
:1009E400B6E024FFF090C1B5E034FFF090C1B5E06B
:1009F400FEA3E0FF7C007D0A124240AA06AB0790EA
:100A0400C1B3E0FEA3E0FF7D64124240EF2BFFEE92
:100A14003AFE90C1B8E02FFF90C1B7E03E90C2F01B
:100A2400F0A3EFF090C2F0E0FEA3E0FFD39432EE27
:100A34009400502CEF9400EE9400402490C1B5E053
:100A4400FFA3E090C24FCFF0A3EFF07B017AC1790E
:100A5400B590C319E4F0A304F07F107E22021917A5
:100A640090C2EEE0FFA3E090C1B5CFF0A3EFF07B1E
:100A7400017AC179B590C319E4F0A304F07F107E24
:100A84002202191790C1BAE064026003022ED790C3
:100A9400C1B7E0FEA3E0FF90C2EEEEF0A3EFF04E8C
:100AA400700A90C1B7F0A37409F0800E90C1B8E049
:100AB40024FFF090C1B7E034FFF090C1B5E0FEA38D
:100AC400E0FF7C007D0A124240AA06AB0790C1B346
:100AD400E0FEA3E0FF7D64124240EF2BFFEE3AFEFE
:100AE40090C1B7E0FCA3E0FD2FFFEC3E90C2F0F014
:100AF400A3EFF090C2F0E0FEA3E0FFD39432EE94B3
:100B0400005025EF9400EE9400401D90C23BECF0A1
:100B1400A3EDF07B017AC179B790C319E4F0A30483
:100B2400F07F207E2202191790C2EEE0FFA3E0902E
:100B3400C1B7CFF0A3EFF07B017AC179B790C319A5
:100B4400E4F0A304F07F207E2202191790C1BAE0DA
:100B54006003020C0D90C260E0FEA3E0FF90C2EEC1
:100B6400EEF0A3EFF04E700A90C260F0A37409F0A7
:100B7400800E90C261E024FFF090C260E034FFF088
:100B840090C287E0FEA3E0FF7C007D0A124240AAE7
:100B940006AB0790C227E0FEA3E0FF7D641242404B
:100BA400EF2BFFEE3AFE90C261E02FFF90C260E0AF
:100BB4003E90C2F0F0A3EFF090C2F0E0FEA3E0FF9D
:100BC400D394C8EE9400501DEF9400EE94004015A9
:100BD4007B017AC2796090C319E4F0A304F07F200A
:100BE4007E2302191790C2EEE0FFA3E090C260CF0B
:100BF400F0A3EFF07B017AC2796090C319E4F0A30B
:100C040004F07F207E2302191790C1BAE0640160CA
:100C140003020CCC90C287E0FEA3E0FF90C2EEEE8C
:100C2400F0A3EFF04E700A90C287F0A37409F0802D
:100C34000E90C288E024FFF090C287E034FFF09069
:100C4400C287E0FEA3E0FF7C007D0A124240AA06B0
:100C5400AB0790C227E0FEA3E0FF7D64124240EFA1
:100C64002BFFEE3AFE90C261E02FFF90C260E03E9F
:100C740090C2F0F0A3EFF090C2F0E0FEA3E0FFD347
:100C840094C8EE9400501DEF9400EE940040157B40
:100C9400017AC2798790C319E4F0A304F07F107E2F
:100CA4002302191790C2EEE0FFA3E090C287CFF0B1
:100CB400A3EFF07B017AC2798790C319E4F0A3040F
:100CC400F07F107E2302191790C1BAE0640260031A
:100CD400022ED790C227E0FEA3E0FF90C2EEEEF012
:100CE400A3EFF04E700A90C227F0A37402F0800EB6
:100CF40090C228E024FFF090C227E034FFF090C2B5
:100D040087E0FEA3E0FF7C007D0A124240AA06AB06
:100D14000790C227E0FEA3E0FF7D64124240EF2B60
:100D2400FFEE3AFE90C261E02FFF90C260E03E9079
:100D3400C2F0F0A3EFF090C2F0E0FEA3E0FFD39482
:100D4400C8EE9400501DEF9400EE940040157B0112
:100D54007AC2792790C319E4F0A304F07F007E23BC
:100D640002191790C2EEE0FFA3E090C227CFF0A3D0
:100D7400EFF07B017AC2792790C319E4F0A304F061
:100D84007F007E2302191790C1BAE06003020E317E
:100D940090C235E0FEA3E0FF90C2EEEEF0A3EFF0C8
:100DA4004E700A90C235F0A37409F0800E90C236DA
:100DB400E024FFF090C235E034FFF090C280E0FE02
:100DC400A3E0FF7C007D0A12424090C236E02FFF70
:100DD40090C235E03E90C2F0F0A3EFF090C2F0E094
:100DE400FEA3E0FFD39450EE9400501DEF9400EE68
:100DF400940040157B017AC2793590C319E4F0A3BD
:100E040004F07F207E2402191790C2EEE0FFA3E0D5
:100E140090C235CFF0A3EFF07B017AC2793590C34D
:100E240019E4F0A304F07F207E2402191790C1BABC
:100E3400E064016003022ED790C280E0FEA3E0FFCD
:100E440090C2EEEEF0A3EFF04E700A90C280F0A3D1
:100E54007408F0800E90C281E024FFF090C280E01C
:100E640034FFF090C280E0FEA3E0FF7C007D0A1214
:100E7400424090C236E02FFF90C235E03E90C2F06F
:100E8400F0A3EFF090C2F0E0FEA3E0FFD39450EEA5
:100E94009400501DEF9400EE940040157B017AC23B
:100EA400798090C319E4F0A304F07F107E24021922
:100EB4001790C2EEE0FFA3E090C280CFF0A3EFF062
:100EC4007B017AC2798090C319E4F0A304F07F1007
:100ED4007E2402191790C1BAE06003020FA590C1E5
:100EE400B3E0FEA3E0FF90C2EEEEF0A3EFF06402E5
:100EF4004E700890C1B3F0A3F0800E90C1B4E0240A
:100F0400FFF090C1B3E034FFF090C1B5E0FEA3E080
:100F1400FF7C007D0A124240AA06AB0790C1B3E0F1
:100F2400FEA3E0FF7D64124240EF2BFFEE3AFE90F9
:100F3400C1B8E02FFF90C1B7E03E90C2F0F0A3EF3C
:100F4400F090C2F0E0FEA3E0FFD39432EE940050A0
:100F54002CEF9400EE9400402490C1B3E0FFA3E092
:100F640090C27ACFF0A3EFF07B017AC179B390C33A
:100F740019E4F0A304F07F007E2502191790C2EE55
:100F8400E0FFA3E090C1B3CFF0A3EFF07B017AC1FF
:100F940079B390C319E4F0A304F07F007E2502190D
:100FA4001790C1BAE06401600302107390C1B5E008
:100FB400FEA3E0FF90C2EEEEF0A3EFF04E700A90B5
:100FC400C1B5F0A37405F0800E90C1B6E024FFF023
:100FD40090C1B5E034FFF090C1B5E0FEA3E0FF7C22
:100FE400007D0A124240AA06AB0790C1B3E0FEA3FB
:100FF400E0FF7D64124240EF2BFFEE3AFE90C1B851
:10100400E02FFF90C1B7E03E90C2F0F0A3EFF09064
:10101400C2F0E0FEA3E0FFD39432EE9400502CEF34
:101024009400EE9400402490C1B5E0FFA3E090C288
:1010340055CFF0A3EFF07B017AC179B590C319E4E1
:10104400F0A304F07F107E2502191790C2EEE0FF92
:10105400A3E090C1B5CFF0A3EFF07B017AC179B5DD
:1010640090C319E4F0A304F07F107E2502191790B1
:10107400C1BAE064026003022ED790C1B7E0FEA3B8
:10108400E0FF90C2EEEEF0A3EFF04E700A90C1B70D
:10109400F0A37409F0800E90C1B8E024FFF090C171
:1010A400B7E034FFF090C1B5E0FEA3E0FF7C007D23
:1010B4000A124240AA06AB0790C1B3E0FEA3E0FFC8
:1010C4007D64124240EF2BFFEE3AFE90C1B7E0FC84
:1010D400A3E0FD2FFFEC3E90C2F0F0A3EFF090C22E
:1010E400F0E0FEA3E0FFD39432EE94005025EF9499
:1010F40000EE9400401D90C241ECF0A3EDF07B01A2
:101104007AC179B790C319E4F0A304F07F207E2557
:1011140002191790C2EEE0FFA3E090C1B7CFF0A38D
:10112400EFF07B017AC179B790C319E4F0A304F01E
:101134007F207E2502191790C1BAE060030211F4E2
:1011440090C25EE0FEA3E0FF90C2EEEEF0A3EFF0EB
:101154004E701D90C215E07002A3E090C25E60085C
:10116400E4F0A3743BF08016E4F0A3743CF0800E2A
:1011740090C25FE024FFF090C25EE034FFF090C2C2
:101184005EE0FEA3E0FF7C007D3C12424090C2166C
:10119400E02FFF90C215E03E90C2F0F0A3EFF09074
:1011A400C2F0E0FEA3E0FFD39410EE940E501DEFC6
:1011B4009400EE940040157B017AC2795E90C319C5
:1011C400E4F0A304F07F507E2802191790C2EEE0E9
:1011D400FFA3E090C25ECFF0A3EFF07B017AC27967
:1011E4005E90C319E4F0A304F07F507E280219171F
:1011F40090C1BAE064016003022ED790C215E0FEEC
:10120400A3E0FF90C2EEEEF0A3EFF04E700A90C29E
:1012140015F0A3743BF0800E90C216E024FFF0900A
:10122400C215E034FFF090C25EE0FEA3E0FF7C0054
:101234007D3C12424090C216E02FFF90C215E03E62
:1012440090C2F0F0A3EFF090C2F0E0FEA3E0FFD371
:101254009410EE940E501DEF9400EE940040157B14
:10126400017AC2791590C319E4F0A304F07F607E7B
:101274002802191790C2EEE0FFA3E090C215CFF048
:10128400A3EFF07B017AC2791590C319E4F0A304AB
:10129400F07F607E2802191790C1BAE06003022E25
:1012A400D7D390C232E0940190C231E0940050034D
:1012B400022ED7A3E024FFF090C231E034FFF07B8C
:1012C400017AC2793190C319E4F0A304F07F207E3F
:1012D4002902191790C1C0E07004A3E064016003FF
:1012E40002152290C1BAE060030213A490C26CE01C
:1012F400FEA3E0FF90C2EEEEF0A3EFF04E700A9072
:10130400C26CF0A37409F0800E90C26DE024FFF06B
:1013140090C26CE034FFF090C21CE0FEA3E0FF7CBE
:10132400007D0A124240AA06AB0790C249E0FEA320
:10133400E0FF7D64124240EF2BFFEE3AFE90C26D57
:10134400E02FFF90C26CE03E90C2F0F0A3EFF0906B
:10135400C2F0E0FEA3E0FFD394C8EE9400501DEF6A
:101364009400EE940040157B017AC2796C90C31905
:10137400E4F0A304F07F207E2802191790C2EEE067
:10138400FFA3E090C26CCFF0A3EFF07B017AC279A7
:101394006C90C319E4F0A304F07F207E280219178F
:1013A40090C1BAE06401600302146390C21CE0FEC1
:1013B400A3E0FF90C2EEEEF0A3EFF04E700A90C2ED
:1013C4001CF0A37409F0800E90C21DE024FFF0907D
:1013D400C21CE034FFF090C21CE0FEA3E0FF7C00DE
:1013E4007D0A124240AA06AB0790C249E0FEA3E080
:1013F400FF7D64124240EF2BFFEE3AFE90C26DE097
:101404002FFF90C26CE03E90C2F0F0A3EFF090C2C8
:10141400F0E0FEA3E0FFD394C8EE9400501DEF94D7
:1014240000EE940040157B017AC2791C90C319E444
:10143400F0A304F07F107E2802191790C2EEE0FF9B
:10144400A3E090C21CCFF0A3EFF07B017AC2791C19
:1014540090C319E4F0A304F07F107E2802191790BA
:10146400C1BAE064026003022ED790C249E0FEA331
:10147400E0FF90C2EEEEF0A3EFF04E700A90C24986
:10148400F0A37402F0800E90C24AE024FFF090C2F0
:1014940049E034FFF090C21CE0FEA3E0FF7C007D35
:1014A4000A124240AA06AB0790C249E0FEA3E0FF3D
:1014B4007D64124240EF2BFFEE3AFE90C26DE02FA6
:1014C400FF90C26CE03E90C2F0F0A3EFF090C2F047
:1014D400E0FEA3E0FFD394C8EE9400501DEF940007
:1014E400EE940040157B017AC2794990C319E4F067
:1014F400A304F07F007E2802191790C2EEE0FFA338
:10150400E090C249CFF0A3EFF07B017AC279499011
:10151400C319E4F0A304F07F007E2802191790C1D8
:10152400C0E07004A3E064027033D390C232E0944C
:101534000190C231E094005003022ED7A3E024FFAF
:10154400F090C231E034FFF07B017AC2793190C36C
:1015540019E4F0A304F07F307E2902191790C1C06A
:10156400E07004A3E0640360030217AB90C1BAE027
:10157400600302162D90C260E0FEA3E0FF90C2EE6D
:10158400EEF0A3EFF04E700A90C260F0A37409F07D
:10159400800E90C261E024FFF090C260E034FFF05E
:1015A40090C287E0FEA3E0FF7C007D0A124240AABD
:1015B40006AB0790C227E0FEA3E0FF7D6412424021
:1015C400EF2BFFEE3AFE90C261E02FFF90C260E085
:1015D4003E90C2F0F0A3EFF090C2F0E0FEA3E0FF73
:1015E400D394C8EE9400501DEF9400EE940040157F
:1015F4007B017AC2796090C319E4F0A304F07F9070
:101604007E2802191790C2EEE0FFA3E090C260CFDB
:10161400F0A3EFF07B017AC2796090C319E4F0A3E0
:1016240004F07F907E2802191790C1BAE06401602B
:10163400030216EC90C287E0FEA3E0FF90C2EEEE38
:10164400F0A3EFF04E700A90C287F0A37409F08003
:101654000E90C288E024FFF090C287E034FFF0903F
:10166400C287E0FEA3E0FF7C007D0A124240AA0686
:10167400AB0790C227E0FEA3E0FF7D64124240EF77
:101684002BFFEE3AFE90C261E02FFF90C260E03E75
:1016940090C2F0F0A3EFF090C2F0E0FEA3E0FFD31D
:1016A40094C8EE9400501DEF9400EE940040157B16
:1016B400017AC2798790C319E4F0A304F07F807E95
:1016C4002802191790C2EEE0FFA3E090C287CFF082
:1016D400A3EFF07B017AC2798790C319E4F0A304E5
:1016E400F07F807E2802191790C1BAE0640260037B
:1016F400022ED790C227E0FEA3E0FF90C2EEEEF0E8
:10170400A3EFF04E700A90C227F0A37402F0800E8B
:1017140090C228E024FFF090C227E034FFF090C28A
:1017240087E0FEA3E0FF7C007D0A124240AA06ABDC
:101734000790C227E0FEA3E0FF7D64124240EF2B36
:10174400FFEE3AFE90C261E02FFF90C260E03E904F
:10175400C2F0F0A3EFF090C2F0E0FEA3E0FFD39458
:10176400C8EE9400501DEF9400EE940040157B01E8
:101774007AC2792790C319E4F0A304F07F707E281D
:1017840002191790C2EEE0FFA3E090C227CFF0A3A6
:10179400EFF07B017AC2792790C319E4F0A304F037
:1017A4007F707E2802191790C1C0E07004A3E06422
:1017B400046003022ED790C1BAE06003021873904C
:1017C400C25EE0FEA3E0FF90C2EEEEF0A3EFF04EA7
:1017D400701D90C215E07002A3E090C25E6008E440
:1017E400F0A3743BF08016E4F0A3743CF0800E90F8
:1017F400C25FE024FFF090C25EE034FFF090C25E6E
:10180400E0FEA3E0FF7C007D3C12424090C216E063
:101814002FFF90C215E03E90C2F0F0A3EFF090C20B
:10182400F0E0FEA3E0FFD39410EE940E501DEF946D
:1018340000EE940040157B017AC2795E90C319E4EE
:10184400F0A304F07F507E2802191790C2EEE0FF47
:10185400A3E090C25ECFF0A3EFF07B017AC2795E81
:1018640090C319E4F0A304F07F507E280219179066
:10187400C1BAE064016003022ED790C215E0FEA352
:10188400E0FF90C2EEEEF0A3EFF04E700A90C215A6
:10189400F0A3743BF0800E90C216E024FFF090C2D7
:1018A40015E034FFF090C25EE0FEA3E0FF7C007D13
:1018B4003C12424090C216E02FFF90C215E03E90C9
:1018C400C2F0F0A3EFF090C2F0E0FEA3E0FFD394E7
:1018D40010EE940E501CEF9400EE940040147B0123
:1018E4007AC2791590C319E4F0A304F07F607E28CE
:1018F400802190C2EEE0FFA3E090C215CFF0A3EFE9
:10190400F07B017AC2791590C319E4F0A304F07F47
:10191400607E2812590E022ED790C1BFE064017078
:101924003A90C1BBE07002A3E06003022ED71275A7
:10193400F590C1C0E07004A3E06401700A90C1C0D6
:10194400F0A37404F0800E90C1C1E024FFF090C1B4
:10195400C0E034FFF0126F3E022ED790C21EE0FFAB
:10196400D39400400CEFD394055006E014F0E080CB
:101974005A90C21EE070057405F0804F90C1BDE01E
:101984006401702090C21EE0B4060474098026909D
:10199400C21EE0B409057407F0800790C21EE0146B
:1019A400F0E0802790C1BEE06401702690C21EE082
:1019B400B40905740BF0801390C21EE0B40A0574D8
:1019C40009F0800790C21EE014F0E0FF127CC90207
:1019D4002ED790C21EE0B41C1490C230E07005747F
:1019E40007F0800690C230E014F01261FF022ED797
:1019F40090C1BBE07004A3E064016003022E0E906A
:101A0400C21EE024F3B409004003022ED7901A1F2B
:101A140075F003A4C58325F0C58373021A3A021C2A
:101A240065021DB40220160222540223A2022604D7
:101A340002277B0227AE90C1BAE06003021AE59048
:101A4400C26CE0FEA3E0FF90C2EEEEF0A3EFF06400
:101A5400094E601090C26DE004F0700F90C26CE00B
:101A640004F08007E490C26CF0A3F090C21CE0FE86
:101A7400A3E0FF7C007D0A124240AA06AB0790C295
:101A840049E0FEA3E0FF7D64124240EF2BFFEE3AF3
:101A9400FE90C26DE02FFF90C26CE03E90C2F0F069
:101AA400A3EFF090C2F0E0FEA3E0FFD394C8EE945D
:101AB40000500AEF9400EE94004002800F90C2EEB2
:101AC400E0FFA3E090C26CCFF0A3EFF07B017AC2F9
:101AD400796C90C319E4F0A304F07420FFFE022E85
:101AE4000890C1BAE064016003021BA590C21CE027
:101AF400FEA3E0FF90C2EEEEF0A3EFF064094E60A7
:101B04001090C21DE004F0700F90C21CE004F0803D
:101B140007E490C21CF0A3F090C21CE0FEA3E0FF17
:101B24007C007D0A124240AA06AB0790C249E0FE3F
:101B3400A3E0FF7D64124240EF2BFFEE3AFE90C219
:101B44006DE02FFF90C26CE03E90C2F0F0A3EFF086
:101B540090C2F0E0FEA3E0FFD394C8EE9400501DC1
:101B6400EF9400EE940040157B017AC2791C90C377
:101B740019E4F0A304F07F107E20022E0890C2EE38
:101B8400E0FFA3E090C21CCFF0A3EFF07B017AC288
:101B9400791C90C319E4F0A304F07F107E20022E78
:101BA4000890C1BAE064026003022ED790C249E0F3
:101BB400FEA3E0FF90C2EEEEF0A3EFF064024E60ED
:101BC4001090C24AE004F0700F90C249E004F08023
:101BD40007E490C249F0A3F090C21CE0FEA3E0FF2A
:101BE4007C007D0A124240AA06AB0790C249E0FE7F
:101BF400A3E0FF7D64124240EF2BFFEE3AFE90C259
:101C04006DE02FFF90C26CE03E90C2F0F0A3EFF0C5
:101C140090C2F0E0FEA3E0FFD394C8EE9400501D00
:101C2400EF9400EE940040157B017AC2794990C389
:101C340019E4F0A304F07F007E20022E0890C2EE87
:101C4400E0FFA3E090C249CFF0A3EFF07B017AC29A
:101C5400794990C319E4F0A304F07F007E20022E9A
:101C64000890C1BAE06003021D0C90C262E0FEA3BA
:101C7400E0FF90C2EEEEF0A3EFF064094E60109026
:101C8400C263E004F0700F90C262E004F08007E4E5
:101C940090C262F0A3F090C289E0FEA3E0FF7C0052
:101CA4007D0A12424090C263E02FFF90C262E03E80
:101CB40090C2F0F0A3EFF090C2F0E0FEA3E0FFD3F7
:101CC4009450EE9400501DEF9400EE940040157B68
:101CD400017AC2796290C319E4F0A304F07F207EF4
:101CE40021022E0890C2EEE0FFA3E090C262CFF082
:101CF400A3EFF07B017AC2796290C319E4F0A304E4
:101D0400F07F207E21022E0890C1BAE064016003B6
:101D1400022ED790C289E0FEA3E0FF90C2EEEEF05F
:101D2400A3EFF064084E700890C289F0A3F0800E0F
:101D340090C28AE004F0700690C289E004F090C278
:101D440089E0FEA3E0FF7C007D0A12424090C2635A
:101D5400E02FFF90C262E03E90C2F0F0A3EFF0905B
:101D6400C2F0E0FEA3E0FFD39450EE9400501DEFC8
:101D74009400EE940040157B017AC2798990C319CE
:101D8400E4F0A304F07F107E21022E0890C2EEE05E
:101D9400FFA3E090C289CFF0A3EFF07B017AC27970
:101DA4008990C319E4F0A304F07F107E21022E0869
:101DB40090C1BAE06003021E8090C1B3E0FEA3E0CC
:101DC400FF90C2EEEEF0A3EFF064094E700890C1EC
:101DD400B3F0A3F0800E90C1B4E004F0700690C19B
:101DE400B3E004F090C1B5E0FEA3E0FF7C007D0AFF
:101DF400124240AA06AB0790C1B3E0FEA3E0FF7D08
:101E040064124240EF2BFFEE3AFE90C1B8E02FFF80
:101E140090C1B7E03E90C2F0F0A3EFF090C2F0E0C2
:101E2400FEA3E0FFD39432EE9400502CEF9400EE26
:101E34009400402490C1B3E0FFA3E090C274CFF0BB
:101E4400A3EFF07B017AC179B390C319E4F0A30442
:101E5400F07F007E22022E0890C2EEE0FFA3E09005
:101E6400C1B3CFF0A3EFF07B017AC179B390C3196A
:101E7400E4F0A304F07F007E22022E0890C1BAE0B1
:101E840064016003021F4E90C1B5E0FEA3E0FF9021
:101E9400C2EEEEF0A3EFF064054E700890C1B5F009
:101EA400A3F0800E90C1B6E004F0700690C1B5E0D6
:101EB40004F090C1B5E0FEA3E0FF7C007D0A12426D
:101EC40040AA06AB0790C1B3E0FEA3E0FF7D641215
:101ED4004240EF2BFFEE3AFE90C1B8E02FFF90C1D5
:101EE400B7E03E90C2F0F0A3EFF090C2F0E0FEA3A2
:101EF400E0FFD39432EE9400502CEF9400EE940063
:101F0400402490C1B5E0FFA3E090C24FCFF0A3EF0F
:101F1400F07B017AC179B590C319E4F0A304F07F92
:101F2400107E22022E0890C2EEE0FFA3E090C1B51D
:101F3400CFF0A3EFF07B017AC179B590C319E4F037
:101F4400A304F07F107E22022E0890C1BAE064023E
:101F54006003022ED790C1B7E0FEA3E0FF90C2EE6B
:101F6400EEF0A3EFF064094E700890C1B7F0A3F04F
:101F7400800E90C1B8E004F0700690C1B7E004F0A0
:101F840090C1B5E0FEA3E0FF7C007D0A124240AAA6
:101F940006AB0790C1B3E0FEA3E0FF7D64124240AC
:101FA400EF2BFFEE3AFE90C1B7E0FCA3E0FD2FFF5C
:101FB400EC3E90C2F0F0A3EFF090C2F0E0FEA3E09C
:101FC400FFD39432EE94005025EF9400EE94004039
:101FD4001D90C23BECF0A3EDF07B017AC179B79080
:101FE400C319E4F0A304F07F207E22022E0890C2DD
:101FF400EEE0FFA3E090C1B7CFF0A3EFF07B017A4E
:10200400C179B790C319E4F0A304F07F207E2202C3
:102014002E0890C1BAE060030220D490C260E0FEB2
:10202400A3E0FF90C2EEEEF0A3EFF064094E60105F
:1020340090C261E004F0700F90C260E004F0800789
:10204400E490C260F0A3F090C287E0FEA3E0FF7CBE
:10205400007D0A124240AA06AB0790C227E0FEA305
:10206400E0FF7D64124240EF2BFFEE3AFE90C26126
:10207400E02FFF90C260E03E90C2F0F0A3EFF0903A
:10208400C2F0E0FEA3E0FFD394C8EE9400501DEF2D
:102094009400EE940040157B017AC2796090C319D4
:1020A400E4F0A304F07F207E23022E0890C2EEE029
:1020B400FFA3E090C260CFF0A3EFF07B017AC27976
:1020C4006090C319E4F0A304F07F207E23022E085D
:1020D40090C1BAE06401600302219490C287E0FEDB
:1020E400A3E0FF90C2EEEEF0A3EFF064094E60109F
:1020F40090C288E004F0700F90C287E004F080077B
:10210400E490C287F0A3F090C287E0FEA3E0FF7CD6
:10211400007D0A124240AA06AB0790C227E0FEA344
:10212400E0FF7D64124240EF2BFFEE3AFE90C26165
:10213400E02FFF90C260E03E90C2F0F0A3EFF09079
:10214400C2F0E0FEA3E0FFD394C8EE9400501DEF6C
:102154009400EE940040157B017AC2798790C319EC
:10216400E4F0A304F07F107E23022E0890C2EEE078
:10217400FFA3E090C287CFF0A3EFF07B017AC2798E
:102184008790C319E4F0A304F07F107E23022E0885
:1021940090C1BAE064026003022ED790C227E0FE29
:1021A400A3E0FF90C2EEEEF0A3EFF064024E6010E5
:1021B40090C228E004F0700F90C227E004F080077A
:1021C400E490C227F0A3F090C287E0FEA3E0FF7C76
:1021D400007D0A124240AA06AB0790C227E0FEA384
:1021E400E0FF7D64124240EF2BFFEE3AFE90C261A5
:1021F400E02FFF90C260E03E90C2F0F0A3EFF090B9
:10220400C2F0E0FEA3E0FFD394C8EE9400501DEFAB
:102214009400EE940040157B017AC2792790C3198B
:10222400E4F0A304F07F007E23022E0890C2EEE0C7
:10223400FFA3E090C227CFF0A3EFF07B017AC2792D
:102244002790C319E4F0A304F07F007E23022E0834
:1022540090C1BAE060030222FA90C235E0FEA3E026
:10226400FF90C2EEEEF0A3EFF064094E700890C246
:1022740035F0A3F0800E90C236E004F0700690C2F0
:1022840035E004F090C280E0FEA3E0FF7C007D0A0C
:1022940012424090C236E02FFF90C235E03E90C219
:1022A400F0F0A3EFF090C2F0E0FEA3E0FFD394506F
:1022B400EE9400501DEF9400EE940040157B017ADB
:1022C400C2793590C319E4F0A304F07F207E240280
:1022D4002E0890C2EEE0FFA3E090C235CFF0A3EF4A
:1022E400F07B017AC2793590C319E4F0A304F07F3E
:1022F400207E24022E0890C1BAE064016003022EFD
:10230400D790C280E0FEA3E0FF90C2EEEEF0A3EF10
:10231400F064084E700890C280F0A3F0800E90C262
:1023240081E004F0700690C280E004F090C280E086
:10233400FEA3E0FF7C007D0A12424090C236E02FEB
:10234400FF90C235E03E90C2F0F0A3EFF090C2F0EF
:10235400E0FEA3E0FFD39450EE9400501DEF9400F0
:10236400EE940040157B017AC2798090C319E4F0A1
:10237400A304F07F107E24022E0890C2EEE0FFA397
:10238400E090C280CFF0A3EFF07B017AC279809015
:10239400C319E4F0A304F07F107E24022E0890C138
:1023A400BAE0600302246E90C1B3E0FEA3E0FF90A4
:1023B400C2EEEEF0A3EFF064094E700890C1B3F0E2
:1023C400A3F0800E90C1B4E004F0700690C1B3E0B5
:1023D40004F090C1B5E0FEA3E0FF7C007D0A124248
:1023E40040AA06AB0790C1B3E0FEA3E0FF7D6412F0
:1023F4004240EF2BFFEE3AFE90C1B8E02FFF90C1B0
:10240400B7E03E90C2F0F0A3EFF090C2F0E0FEA37C
:10241400E0FFD39432EE9400502CEF9400EE94003D
:10242400402490C1B3E0FFA3E090C27ACFF0A3EFC1
:10243400F07B017AC179B390C319E4F0A304F07F6F
:10244400007E25022E0890C2EEE0FFA3E090C1B307
:10245400CFF0A3EFF07B017AC179B390C319E4F014
:10246400A304F07F007E25022E0890C1BAE0640127
:10247400600302253C90C1B5E0FEA3E0FF90C2EEEC
:10248400EEF0A3EFF064054E700890C1B5F0A3F030
:10249400800E90C1B6E004F0700690C1B5E004F07F
:1024A40090C1B5E0FEA3E0FF7C007D0A124240AA81
:1024B40006AB0790C1B3E0FEA3E0FF7D6412424087
:1024C400EF2BFFEE3AFE90C1B8E02FFF90C1B7E0CA
:1024D4003E90C2F0F0A3EFF090C2F0E0FEA3E0FF64
:1024E400D39432EE9400502CEF9400EE94004024E8
:1024F40090C1B5E0FFA3E090C255CFF0A3EFF07B0D
:10250400017AC179B590C319E4F0A304F07F107E79
:1025140025022E0890C2EEE0FFA3E090C1B5CFF0F3
:10252400A3EFF07B017AC179B590C319E4F0A30459
:10253400F07F107E25022E0890C1BAE06402600389
:10254400022ED790C1B7E0FEA3E0FF90C2EEEEF0FA
:10255400A3EFF064094E700890C1B7F0A3F0800EA9
:1025640090C1B8E004F0700690C1B7E004F090C1E7
:10257400B5E0FEA3E0FF7C007D0A124240AA06AB50
:102584000790C1B3E0FEA3E0FF7D64124240EF2B4D
:10259400FFEE3AFE90C1B7E0FCA3E0FD2FFFEC3E56
:1025A40090C2F0F0A3EFF090C2F0E0FEA3E0FFD3FE
:1025B4009432EE94005025EF9400EE9400401D9068
:1025C400C241ECF0A3EDF07B017AC179B790C31955
:1025D400E4F0A304F07F207E25022E0890C2EEE0F2
:1025E400FFA3E090C1B7CFF0A3EFF07B017AC179EC
:1025F400B790C319E4F0A304F07F207E25022E08CF
:1026040090C1BAE060030226D390C25EE0FEA3E06C
:10261400FF90C2EEEEF0A3EFF0643B4E701D90C24B
:1026240015E07002A3E06003E4801C90C25FE00444
:10263400F0702A90C25EE004F0802290C25EE070E6
:1026440004A3E0643C700890C25EF0A3F0800E9096
:10265400C25FE004F0700690C25EE004F090C25ED7
:10266400E0FEA3E0FF7C007D3C12424090C216E0F5
:102674002FFF90C215E03E90C2F0F0A3EFF090C29D
:10268400F0E0FEA3E0FFD39410EE940E501DEF94FF
:1026940000EE940040157B017AC2795E90C319E480
:1026A400F0A304F07F507E28022E0890C2EEE0FFD3
:1026B400A3E090C25ECFF0A3EFF07B017AC2795E13
:1026C40090C319E4F0A304F07F507E28022E0890F2
:1026D400C1BAE064016003022ED790C215E0FEA3E4
:1026E400E0FF90C2EEEEF0A3EFF0643B4E70089072
:1026F400C215F0A3F0800E90C216E004F0700690AC
:10270400C215E004F090C25EE0FEA3E0FF7C007D11
:102714003C12424090C216E02FFF90C215E03E905A
:10272400C2F0F0A3EFF090C2F0E0FEA3E0FFD39478
:1027340010EE940E501DEF9400EE940040157B01B2
:102744007AC2791590C319E4F0A304F07F607E285F
:10275400022E0890C2EEE0FFA3E090C215CFF0A3D2
:10276400EFF07B017AC2791590C319E4F0A304F069
:102774007F607E28022E08C390C232E0941490C277
:1027840031E094004003022ED7A3E004F0700690D9
:10279400C231E004F07B017AC2793190C319E4F0CC
:1027A400A304F07F207E29022E0890C1C0E07004AB
:1027B400A3E0640160030229FB90C1BAE060030254
:1027C400287B90C26CE0FEA3E0FF90C2EEEEF0A383
:1027D400EFF064094E601090C26DE004F0700F9049
:1027E400C26CE004F08007E490C26CF0A3F090C2E5
:1027F4001CE0FEA3E0FF7C007D0A124240AA06AB67
:102804000790C249E0FEA3E0FF7D64124240EF2B33
:10281400FFEE3AFE90C26DE02FFF90C26CE03E9056
:10282400C2F0F0A3EFF090C2F0E0FEA3E0FFD39477
:10283400C8EE9400501DEF9400EE940040157B0107
:102844007AC2796C90C319E4F0A304F07F207E2847
:10285400022E0890C2EEE0FFA3E090C26CCFF0A37A
:10286400EFF07B017AC2796C90C319E4F0A304F011
:102874007F207E28022E0890C1BAE0640160030222
:10288400293B90C21CE0FEA3E0FF90C2EEEEF0A351
:10289400EFF064094E601090C21DE004F0700F90D8
:1028A400C21CE004F08007E490C21CF0A3F090C2C4
:1028B4001CE0FEA3E0FF7C007D0A124240AA06ABA6
:1028C4000790C249E0FEA3E0FF7D64124240EF2B73
:1028D400FFEE3AFE90C26DE02FFF90C26CE03E9096
:1028E400C2F0F0A3EFF090C2F0E0FEA3E0FFD394B7
:1028F400C8EE9400501DEF9400EE940040157B0147
:102904007AC2791C90C319E4F0A304F07F107E28E6
:10291400022E0890C2EEE0FFA3E090C21CCFF0A309
:10292400EFF07B017AC2791C90C319E4F0A304F0A0
:102934007F107E28022E0890C1BAE0640260030270
:102944002ED790C249E0FEA3E0FF90C2EEEEF0A3C2
:10295400EFF064024E601090C24AE004F0700F90F1
:10296400C249E004F08007E490C249F0A3F090C2A9
:102974001CE0FEA3E0FF7C007D0A124240AA06ABE5
:102984000790C249E0FEA3E0FF7D64124240EF2BB2
:10299400FFEE3AFE90C26DE02FFF90C26CE03E90D5
:1029A400C2F0F0A3EFF090C2F0E0FEA3E0FFD394F6
:1029B400C8EE9400501DEF9400EE940040157B0186
:1029C4007AC2794990C319E4F0A304F07F007E2809
:1029D400022E0890C2EEE0FFA3E090C249CFF0A31C
:1029E400EFF07B017AC2794990C319E4F0A304F0B3
:1029F4007F007E28022E0890C1C0E07004A3E0642A
:102A040002703290C231E07004A3E06414700302D7
:102A14002ED790C232E004F0700690C231E004F088
:102A24007B017AC2793190C319E4F0A304F07F30BA
:102A34007E29022E0890C1C0E07004A3E064036004
:102A440003022C8690C1BAE06003022B0690C26098
:102A5400E0FEA3E0FF90C2EEEEF0A3EFF064094EB7
:102A6400601090C261E004F0700F90C260E004F066
:102A74008007E490C260F0A3F090C287E0FEA3E078
:102A8400FF7C007D0A124240AA06AB0790C227E0F1
:102A9400FEA3E0FF7D64124240EF2BFFEE3AFE906E
:102AA400C261E02FFF90C260E03E90C2F0F0A3EF5D
:102AB400F090C2F0E0FEA3E0FFD394C8EE9400507F
:102AC4001DEF9400EE940040157B017AC27960906A
:102AD400C319E4F0A304F07F907E28022E0890C26C
:102AE400EEE0FFA3E090C260CFF0A3EFF07B017AA9
:102AF400C2796090C319E4F0A304F07F907E2802A9
:102B04002E0890C1BAE064016003022BC690C2870C
:102B1400E0FEA3E0FF90C2EEEEF0A3EFF064094EF6
:102B2400601090C288E004F0700F90C287E004F057
:102B34008007E490C287F0A3F090C287E0FEA3E090
:102B4400FF7C007D0A124240AA06AB0790C227E030
:102B5400FEA3E0FF7D64124240EF2BFFEE3AFE90AD
:102B6400C261E02FFF90C260E03E90C2F0F0A3EF9C
:102B7400F090C2F0E0FEA3E0FFD394C8EE940050BE
:102B84001DEF9400EE940040157B017AC279879082
:102B9400C319E4F0A304F07F807E28022E0890C2BB
:102BA400EEE0FFA3E090C287CFF0A3EFF07B017AC1
:102BB400C2798790C319E4F0A304F07F807E2802D1
:102BC4002E0890C1BAE064026003022ED790C22797
:102BD400E0FEA3E0FF90C2EEEEF0A3EFF064024E3D
:102BE400601090C228E004F0700F90C227E004F057
:102BF4008007E490C227F0A3F090C287E0FEA3E030
:102C0400FF7C007D0A124240AA06AB0790C227E06F
:102C1400FEA3E0FF7D64124240EF2BFFEE3AFE90EC
:102C2400C261E02FFF90C260E03E90C2F0F0A3EFDB
:102C3400F090C2F0E0FEA3E0FFD394C8EE940050FD
:102C44001DEF9400EE940040157B017AC279279021
:102C5400C319E4F0A304F07F707E28022E0890C20A
:102C6400EEE0FFA3E090C227CFF0A3EFF07B017A60
:102C7400C2792790C319E4F0A304F07F707E280280
:102C84002E0890C1C0E07004A3E064046003022E27
:102C9400D790C1BAE06003022D6490C25EE0FEA347
:102CA400E0FF90C2EEEEF0A3EFF0643B4E701D9097
:102CB400C215E07002A3E06003E4801C90C25FE0F0
:102CC40004F0702A90C25EE004F0802290C25EE0BC
:102CD4007004A3E0643C700890C25EF0A3F0800E20
:102CE40090C25FE004F0700690C25EE004F090C20F
:102CF4005EE0FEA3E0FF7C007D3C12424090C216E1
:102D0400E02FFF90C215E03E90C2F0F0A3EFF090E8
:102D1400C2F0E0FEA3E0FFD39410EE940E501DEF3A
:102D24009400EE940040157B017AC2795E90C31939
:102D3400E4F0A304F07F507E28022E0890C2EEE057
:102D4400FFA3E090C25ECFF0A3EFF07B017AC279DB
:102D54005E90C319E4F0A304F07F507E28022E088D
:102D640090C1BAE064016003022ED790C215E0FE60
:102D7400A3E0FF90C2EEEEF0A3EFF0643B4E7008C8
:102D840090C215F0A3F0800E90C216E004F0700615
:102D940090C215E004F090C25EE0FEA3E0FF7C0068
:102DA4007D3C12424090C216E02FFF90C215E03ED7
:102DB40090C2F0F0A3EFF090C2F0E0FEA3E0FFD3E6
:102DC4009410EE940E501CEF9400EE940040147B8B
:102DD400017AC2791590C319E4F0A304F07F607EF0
:102DE40028802190C2EEE0FFA3E090C215CFF0A3AB
:102DF400EFF07B017AC2791590C319E4F0A304F0D3
:102E04007F607E2812590E022ED790C1BFE0640164
:102E1400703790C21EE064156003022ED71275F558
:102E240090C1C0E07004A3E06404700990C1C0F0D4
:102E3400A304F0800E90C1C1E004F0700690C1C0FC
:102E4400E004F0126F3E022ED790C21EE0C3940538
:102E54005006E004F0E0805A90C21EE0B40504E499
:102E6400F0804F90C1BDE06401702090C21EE0B4B8
:102E740009047406802690C21EE0B407057409F0A4
:102E8400800790C21EE004F0E0802790C1BEE06499
:102E940001702590C21EE0B40905740AF0801390F5
:102EA400C21EE0B40B057409F0800790C21EE00452
:102EB400F0E0FF127CC9801B90C21EE0B41C149089
:102EC400C230E0B40704E4F0800690C230E004F0BD
:102ED4001261FF90C1B27401F07D1E7C00E4FF0218
:102EE4007E9290C223E0B4010302735090C1BBE010
:102EF4007004A3E06401600302332490C21EE06402
:102F040015600302310090C1C0E07004A3E06401C5
:102F1400706D90C1BAE004F0E064037052A3F0A3B2
:102F2400F090C1BAF090C21CE0FEA3E0FF7C007DEB
:102F34000A124240AA06AB0790C249E0FEA3E0FF92
:102F44007D64124240EF2BFFEE3AFE90C26DE02FFB
:102F5400FF90C26CE03E90C2F0F0A3EFF07F00124D
:102F64007C8B90C1C0E0FEA3E0FF7D640230FB9047
:102F7400C1C0E0FEA3E0FF90C1BAE0FD0230FB90C7
:102F8400C1C0E07004A3E06402702090C1BBF0A350
:102F9400F090C1BAF090C231E0FCA3E0FD7F047E62
:102FA40081127C957F537E92027EB890C1C0E070FE
:102FB40004A3E06403707690C1BAE004F0E0640313
:102FC400705BA3F0A3F090C1BAF090C287E0FEA3B7
:102FD400E0FF7C007D0A124240AA06AB0790C2279C
:102FE400E0FEA3E0FF7D64124240EF2BFFEE3AFEC9
:102FF40090C261E02FFF90C260E03E90C2F0F0A367
:10300400EFF090C2F0E0FCA3E0FD7F027E81127C31
:103014009590C1C0E0FEA3E0FF7D64800D90C1C027
:10302400E0FEA3E0FF90C1BAE0FD0230FB90C1C016
:10303400E07004A3E064046003023B7690C1BAE04C
:1030440004F0E0640260030230EEA3F0A3F090C148
:10305400BAF07B017AC2795E90C315F0A304F07FC5
:10306400507E2812509A7B017AC2791590C315E4D8
:10307400F0A304F07F607E2812509A90C25EE0FEB6
:10308400A3E0FF7C007D3C12424090C216E02FFF7B
:1030940090C215E03E90C2F0F0A3EFF07B017AC23B
:1030A400791590C319E4F0A304F07F607E281259C7
:1030B4000E127C897B017AC279F090C319E4F0A3E3
:1030C40004F07F007E8212590E7B017AC279F0905F
:1030D400C319E4F0A304F07F027E8212590E90C15A
:1030E400C0E0FEA3E0FF7D64800D90C1C0E0FEA3BC
:1030F400E0FF90C1BAE0FD7C0002634890C1BAE0F1
:1031040004F090C21EE0FF7E0090C1BAE0FD7C0096
:1031140012458290C21EE0640D705B90C1BAE064F7
:10312400047053A3F0A3F090C1BAF090C21E7406C9
:10313400F090C21CE0FEA3E0FF7C007D0A12424036
:10314400AA06AB0790C249E0FEA3E0FF7D641242E9
:1031540040EF2BFFEE3AFE90C26DE02FFF90C26C61
:10316400E03E90C2F0F0A3EFF090C2F0E0FCA3E0E8
:10317400FD7F0002327190C21EE0640E704490C163
:10318400BAE06403703CA3F0A3F090C1BAF090C21B
:103194001E7407F090C289E0FEA3E0FF7C007D0A64
:1031A40012424090C263E02FFF90C262E03E90C2A0
:1031B400F0F0A3EFF090C2F0E0FCA3E0FD7F080282
:1031C400327190C21EE06410705A90C1BAE0640477
:1031D4007052A3F0A3F090C1BAF090C21E740AF02A
:1031E40090C287E0FEA3E0FF7C007D0A124240AA61
:1031F40006AB0790C227E0FEA3E0FF7D64124240C5
:10320400EF2BFFEE3AFE90C261E02FFF90C260E028
:103214003E90C2F0F0A3EFF090C2F0E0FCA3E0FD1A
:103224007F02804990C21EE06411704D90C1BAE0E3
:1032340064037045A3F0A3F090C1BAF090C21E7469
:103244000BF090C280E0FEA3E0FF7C007D0A1242F6
:103254004090C236E02FFF90C235E03E90C2F0F0BD
:10326400A3EFF090C2F0E0FCA3E0FD7F0A7E8112A0
:103274007C9590C21EE002357A90C21EE064137001
:103284006890C1BAE064037060A3F0A3F090C1BA7F
:10329400F090C21E7403F0FF127CC990C25EE0FE7F
:1032A400A3E0FF7C007D3C12424090C216E02FFF59
:1032B40090C215E03E90C2F0F0A3EFF0127C897B3F
:1032C400017AC279F090C319E4F0A304F07F007E80
:1032D4008212590E7B017AC279F090C319E4F0A3EB
:1032E40004F07F027E8202590E90C21EE0641460D4
:1032F40003023B7690C1BAE064026003023B76A30A
:10330400F0A3F090C1BAF090C21E7404F0FF127CD6
:10331400C990C231E0FCA3E0FD7F047E81027C956C
:1033240090C21EE012452B336200356001356E02F7
:10333400357E0336160436580536660637190737C0
:10334400A508382B0938430A38FB0B39800C3A0698
:10335400153AF9163AFD173B011B00003B767B0139
:103364007AC279F090C315E4F0A304F07F007E8163
:1033740012509A90C2F0E0FAA3E0FB7C007D64FF57
:10338400AE0212425290C249EEF0A3EFF07C007DEF
:103394000AAF03AE021242527C007D0A12425290DE
:1033A400C21CECF0A3EDF090C2F0E0FEA3E0FF7CC1
:1033B400007D0A12425290C26CECF0A3EDF07B0146
:1033C4007AC2794990C319E4F0A304F07F007E28FF
:1033D40012590E7B017AC2791C90C319E4F0A3043C
:1033E400F07F107E2812590E7B017AC2796C90C34B
:1033F40019E4F0A304F07F207E2812590E7B017A91
:10340400C279F090C315E4F0A304F07F027E811228
:10341400509A90C2F0E0FAA3E0FB7C007D64FFAE1A
:103424000212425290C227EEF0A3EFF07C007D0A14
:10343400AF03AE021242527C007D0A12425290C285
:1034440087ECF0A3EDF090C2F0E0FEA3E0FF7C0077
:103454007D0A12425290C260ECF0A3EDF07B017A37
:10346400C2792790C319E4F0A304F07F707E281278
:10347400590E7B017AC2798790C319E4F0A304F052
:103484007F807E2812590E7B017AC2796090C3191D
:10349400E4F0A304F07F907E2812590E7B017AC2D7
:1034A40079F090C315E4F0A37402F07F067E8112D4
:1034B400509A90C2F0E0FAA3E0FB7C007D3CFFAEA2
:1034C4000212425290C25EEEF0A3EFF07C007D3C0B
:1034D400AF03AE0212425290C215ECF0A3EDF07BA2
:1034E400017AC2795E90C319E4F0A37402F07F50AC
:1034F4007E2812590E7B017AC2791590C319E4F023
:10350400A37402F07F607E2812590E7B017AC2797F
:103514003190C315E4F0A37402F07F047E8112504D
:103524009A7B017AC2793190C319E4F0A37402F052
:103534007F307E2912590EE490C2F0F0A3F090C1BE
:10354400C0F0A304F0FF7E00126F4690C21E7415F3
:10355400F0FF127CC990C1BF7401F02290C1BD7408
:1035640001F090C21E7406F0800C90C1BE7401F08C
:1035740090C21E740AF0FF027CC990C1BBE4F0A3A0
:1035840004F090C21E7413F07B017AC279F090C3E8
:1035940015E4F0A304F07F067E8112509A90C2F0E5
:1035A400E0FAA3E0FB7C007D3CFFAE0212425290A5
:1035B400C25EEEF0A3EFF07C007D3CAF03AE0212DE
:1035C400425290C215ECF0A3EDF07B017AC2795E11
:1035D40090C319E4F0A304F07F507E2812590E7BA7
:1035E400017AC2791590C319E4F0A304F07F607ED8
:1035F4002812590E90C21EE0FF127CC97F937E915F
:10360400127FBA7F037E92127F9FE4FDFC7F7002DB
:103614003A0190C1BBE4F0A304F0FB7AC279319083
:10362400C315E4F0A304F07F047E8112509A7B0159
:103634007AC2793190C319E4F0A304F07F207E2983
:1036440012590E7F137E92127FBA7F80127EF17F11
:1036540014023B037F1C12819890C2237401F00270
:1036640061FF90C1BBE4F0A304F0FB7AC279F0904F
:10367400C315E4F0A304F07F007E8112509A90C237
:10368400F0E0FAA3E0FB7C007D64FFAE021242523C
:1036940090C249EEF0A3EFF07C007D0AAF03AE02C6
:1036A4001242527C007D0A12425290C21CECF0A3DA
:1036B400EDF090C2F0E0FEA3E0FF7C007D0A124230
:1036C4005290C26CECF0A3EDF07B017AC279499080
:1036D400C319E4F0A304F07F007E2012590E7B018D
:1036E4007AC2791C90C319E4F0A304F07F107E2001
:1036F40012590E7B017AC2796C90C319E4F0A304C9
:10370400F07420FFFE12590E1245787F10127EF1DC
:103714007F0D023B0390C1BBE4F0A304F0FB7AC22B
:1037240079F090C315E4F0A304F07F087E81125071
:103734009A90C2F0E0FAA3E0FB7C007D0AFFAE029F
:103744001242527C007D0A12425290C289ECF0A3CC
:10375400EDF07C007D0AAF03AE0212425290C262C9
:10376400ECF0A3EDF07B017AC2798990C319E4F0FF
:10377400A304F07F107E2112590E7B017AC2796274
:1037840090C319E4F0A304F07F207E2112590E1295
:103794004578E4FDFC7F207E39127EF67F0E023BE5
:1037A4000390C1BBE4F0A304F090C274E0FFA3E073
:1037B40090C1B3CFF0A3EFF090C24FE0FFA3E0902D
:1037C400C1B5CFF0A3EFF090C23BE0FFA3E090C1FE
:1037D400B7CFF0A3EFF07B017AC179B390C319E4BA
:1037E400F0A304F07F007E2212590E7B017AC17986
:1037F400B590C319E4F0A304F07F107E2212590E91
:103804007B017AC179B790C319E4F0A304F07F2057
:103814007E2212590E124578E4FDFC7F307E391267
:103824007EF67F0F023B0390C1BDE0B40107E4F0D4
:103834007F01023B03E490C1BEF07F02023B039090
:10384400C1BBE4F0A304F0FB7AC279F090C315E4A1
:10385400F0A304F07F027E8112509A90C2F0E0FA45
:10386400A3E0FB7C007D64FFAE0212425290C227AB
:10387400EEF0A3EFF07C007D0AAF03AE02124252D9
:103884007C007D0A12425290C287ECF0A3EDF090C6
:10389400C2F0E0FEA3E0FF7C007D0A12425290C217
:1038A40060ECF0A3EDF07B017AC2792790C319E4B0
:1038B400F0A304F07F007E2312590E7B017AC279B3
:1038C4008790C319E4F0A304F07F107E2312590EED
:1038D4007B017AC2796090C319E4F0A304F07F20DD
:1038E4007E2312590E124578E4FDFC7F407E291296
:1038F4007EF67F10023B0390C1BBE4F0A304F0FB0F
:103904007AC279F090C315E4F0A304F07F0A7E81B3
:1039140012509A90C2F0E0FAA3E0FB7C007D0AFF0B
:10392400AE0212425290C280EEF0A3EFF07C007D12
:103934000AAF03AE0212425290C235ECF0A3EDF08E
:103944007B017AC2798090C319E4F0A304F07F105C
:103954007E2412590E7B017AC2793590C319E4F0A2
:10396400A304F07F207E2412590E124578E4FDFC56
:103974007F507E39127EF67F11023B0390C1BBE477
:10398400F0A304F07F1212819890C27AE0FFA3E0C2
:1039940090C1B3CFF0A3EFF090C255E0FFA3E09045
:1039A400C1B5CFF0A3EFF090C241E0FFA3E090C116
:1039B400B7CFF0A3EFF07B017AC179B390C319E4D8
:1039C400F0A304F07F007E2512590E7B017AC179A1
:1039D400B590C319E4F0A304F07F107E2512590EAC
:1039E4007B017AC179B790C319E4F0A304F07F2076
:1039F4007E2512590E124578E4FDFC7F607E390263
:103A04007EF690C1C0E0FEA3E0FF4E7003023B7659
:103A140090C1BBE4F0A304F0E4FDFC12634890C140
:103A2400C0E07004A3E06401705C7B017AC279F0A9
:103A340090C315F0A304F07F007E8112509A90C2C7
:103A4400F0E0FAA3E0FB7C007D64FFAE0212425278
:103A540090C249EEF0A3EFF07C007D0AAF03AE0202
:103A64001242527C007D0A12425290C21CECF0A316
:103A7400EDF090C2F0E0FEA3E0FF7C007D0A12426C
:103A84005290C26C806990C1C0E07004A3E06403EA
:103A94006003023B767B017AC279F090C315F0A3F0
:103AA40004F07F027E8112509A90C2F0E0FAA3E003
:103AB400FB7C007D64FFAE0212425290C227EEF0FE
:103AC400A3EFF07C007D0AAF03AE021242527C00E9
:103AD4007D0A12425290C287ECF0A3EDF090C2F03E
:103AE400E0FEA3E0FF7C007D0A12425290C260EC2B
:103AF400F0A3EDF0227F0580067F058002E4FF023B
:103B0400819890C21EE0B41C057F0512819890C272
:103B140023E0B40130E490C264F090C282F090C219
:103B24006FF090C214F090C22FF090C265F090C272
:103B340047F090C26AF090C248F090C26BF07F1CCC
:103B4400128198802890C21EE0B4152190C1BBE078
:103B54007002A3E0701790C1BFF090C1BBF0A3F056
:103B640090C1C0F0A3F0FF1281981275F5E490C2E1
:023B74005DF002
:013B7600222C
:1053E40041C0460041C0490042C047000047C03F99
:0753F40018091203091E0055
:107C4C007B017AC0793F90C319E4F0A37404F07FF0
:107C5C00107E0012590E90C3967410F0A3E4F0A39A
:107C6C00F0A3F0FFFEFDFC126A7A7B017AC0794A20
:0D7C7C00E490C315F0A3F0FF7E1002509AB3
:105C34007F007E2012000090C046EFF090C049E043
:105C44006F7003025DB790C046E090C049F07003E6
:105C5400025DB790C048E004F0700690C047E004CD
:105C6400F090C047E07004A3E0641E700690C04743
:105C7400F0A3F07B017AC379C890C315E4F0A37450
:105C840004F07F107E0012509A90C047E0FEA3E01B
:105C9400FF90C04A75F00C1244CFEE75F00CA425A9
:105CA40083F583E4F0A3745AF090C047E0FCA3E0CA
:105CB400FD90C047E0FAA3E0FB90C04C75F00CEFF8
:105CC4001244CFEE75F00CA42583F583ECF0A3ED1C
