:0300000002AE59F4
:0800F800FFFF4457494E543547
:10AE5900759401759502758E0075930075C87075A6
:10AE6900C96075F80075F90175A80075B800759A7B
:10AE79000075A90075B90053D0E7787FE4F6D8FDCD
:10AE89009080007F007E80E4F0A3DFFCDEFA75810C
:04AE99001B02AED812
:1094D90090C8A2EEF0A3EFF0A3EBF0A3EAF0A3E9A2
:0194E900F092
:1094EA00E490C8A9F0A3F0A3F0A3F0A3F0A3F0A31B
:1094FA00F0A3F090C8A7E0FAA3E0FB4A7003029633
:10950A009890C8A2E0FEA3E0FFC3E49FFFE49EFE9A
:10951A00E4FCFD90C8B11285A9AF03AE02E4FCFDDC
:10952A0090C8B1E0F8A3E0F9A3E0FAA3E0FBC31204
:10953A008572501190C8B1A3A3E0FFA3E090C8A719
:10954A00CFF0A3EFF090C8A2E0FCA3E0FDECC313B8
:10955A00FFED1390C8A9CFF0A3EFF0ED5401FFA3DC
:10956A00E4F0A3EFF0C2AFE4F5F190C8A9E0FCA3E0
:10957A00E0FDECF5F28DF375F40175F8AF30FCFD02
:10958A0090C8ABE07002A3E0603DD2FE20FEFD90E1
:10959A00C8A4E0FBA3E475F001128385A9F0FAE5FB
:1095AA00FC1282D490C8A4E0FBA3E475F0011283F4
:1095BA0085A9F0FAE5FD1282D490C8A8E024FFF04C
:1095CA0090C8A7E034FFF090C8A7E0FCA3E0FDEC48
:1095DA00C313FFED1390C8ADCFF0A3EFF0ED540124
:1095EA00FFA3E4F0A3EFF090C8AD74FFF5F0128387
:1095FA008545F0605BD2FE20FEFD90C8A4E0FBA387
:10960A00E475F001128385A9F0FAE5FA1282D49082
:10961A00C8A4E0FBA3E475F001128385A9F0FAE57A
:10962A00FB1282D490C8A4E0FBA3E475F001128374
:10963A0085A9F0FAE5FC1282D490C8A4E0FBA3E461
:10964A0075F001128385A9F0FAE5FD1282D480979C
:10965A0090C8AFE07002A3E0602FD2FE20FEFD901A
:10966A00C8A4E0FBA3E475F001128385A9F0FAE52A
:10967A00FA1282D490C8A4E0FBA3E475F001128325
:0E968A0085A9F0FAE5FB1282D4E4F5F8D2AF20
:0196980022AF
:1099FE0090C8A6EEF0A3EFF0A3EBF0A3EAF0A3E974
:019A0E00F067
:109A0F00E490C8ADF0A3F0A3F0A3F0A3F0A3F090FF
:109A1F00C8ABE07002A3E07003029B9090C8A6E071
:109A2F00FEA3E0FFC3E49FFFE49EFED390C8ACE02B
:109A3F009F90C8ABE09E4005EEF0A3EFF090C8A654
:109A4F00E0FAA3E0FBEAC313FCEB13FDEB5401FFB9
:109A5F0090C8ADE4F0A3EFF0C2AFE4F5F1ECF5F28E
:109A6F00AF058FF375F40175F88330FCFD90C8AD29
:109A7F00E07002A3E0603D90C8A8E0FBA3E475F09E
:109A8F0001128385A9F0FA12828EF5FC90C8A8E026
:109A9F00FBA3E475F001128385A9F0FA12828EF50B
:109AAF00FDD2FE20FEFD90C8ACE024FFF090C8ABC5
:109ABF00E034FFF090C8ABE0FCA3E0FDECC313FF74
:109ACF00ED1390C8AFCFF0A3EFF0ED5401FFA3E477
:109ADF00F0A3EFF075F88F90C8AF74FFF5F0128315
:109AEF008545F0605B90C8A8E0FBA3E475F0011218
:109AFF008385A9F0FA12828EF5FA90C8A8E0FBA32D
:109B0F00E475F001128385A9F0FA12828EF5FB90AD
:109B1F00C8A8E0FBA3E475F001128385A9F0FA123F
:109B2F00828EF5FC90C8A8E0FBA3E475F0011283C8
:109B3F0085A9F0FA12828EF5FDD2FE30FE9980FBD8
:109B4F0090C8B1E07002A3E0603275F88C90C8A89D
:109B5F00E0FBA3E475F001128385A9F0FA12828E5F
:109B6F00F5FA90C8A8E0FBA3E475F001128385A96C
:109B7F00F0FA12828EF5FBD2FE20FEFDE4F5F8D24C
:019B8F00AF26
:019B900022B2
:10A0340090C9A2EEF0A3EFF0A3EBF0A3EAF0A3E93A
:01A04400F02B
:10A04500A3E0FEA3E0FF4E700302A1AD90C9A2E01C
:10A05500FCA3E0FDC3E49DFDE49CFCD3EF9DEE9CD9
:10A06500400AAF0590C9A7ECF0A3EFF090C9A2E0B4
:10A07500FCA3E0FDECC313FEED13FBAA06ED5401B2
:10A08500FDC2AFE4F5F1EAF5F2AF038FF375F40124
:10A0950075F88330FCFDED604FC390C9A8E09402CC
:10A0A50090C9A7E09400500302A1A890C9A4E0FBC1
:10A0B500A3E475F001128385A9F0FA12828EF5FCEE
:10A0C50090C9A4E0FBA3E475F001128385A9F0FA19
:10A0D50012828EF5FDD2FE20FEFD90C9A8E024FE79
:10A0E500F090C9A7E034FFF090C9A7E0FEA3E0789F
:10A0F50002CEC313CE13D8F9FF75F88FEF1FAC0648
:10A1050070011E4C605B90C9A4E0FBA3E475F001EF
:10A11500128385A9F0FA12828EF5FA90C9A4E0FBA4
:10A12500A3E475F001128385A9F0FA12828EF5FB7E
:10A1350090C9A4E0FBA3E475F001128385A9F0FAA8
:10A1450012828EF5FC90C9A4E0FBA3E475F0011220
:10A155008385A9F0FA12828EF5FDD2FE30FE9D8030
:10A16500FB90C9A8E030E1047F0180027F00EF6029
:10A175003275F88C90C9A4E0FBA3E475F001128355
:10A1850085A9F0FA12828EF5FA90C9A4E0FBA3E442
:10A1950075F001128385A9F0FA12828EF5FBD2FEC5
:08A1A50020FEFDE4F5F8D2AF45
:01A1AD00228F
:10C86900EC90C9D8F0EDA3F07B017AC979D890C9C9
:0AC87900A7E4F0A37402F002A0345B
:10C91C00EF4E6010E4FD0DEDC3943240F9EF1F7043
:04C92C00EF1E80EC8E
:01C9300022E4
:08B7520090C9B0EEF0A3EFF086
:10B75A00A3745AF0A37401F090C9B0E0FCA3E0FD11
:10B76A00EC90C9B4F0A3EDF07B017AC979B290C824
:10B77A00ABE4F0A37402F07F847E001299FE7FF49A
:10B78A007E0112C91C7B017AC979B290C8A7E4F07C
:10B79A00A37402F07F147E001294D990C9B0E0FE1F
:10B7AA00A3E0FFA3E0B506D6A3E0B507D1E490C9AC
:10B7BA00B2F0A3F0A3F0A3F07B017AC979B290C8E2
:0DB7CA00ABF0A37402F07F167E000299FE22
:08C12B0090C885EEF0A3EFF0CF
:10C13300E4A3F0A3F090C885E0FEA3E0FFC390C89A
:10C1430088E09F90C887E09E5025E4FBFA7F017E3C
:10C153000012C91C0BBB00010ABA01F1BB2CEE9003
:0FC16300C888E004F070CE90C887E004F080C672
:01C1720022AA
:10C17300EF14601814602314602E240370397401C3
:10C18300A805088002C333D8FC42B7227401A8056E
:10C19300088002C333D8FC42BC227401A80508807E
:10C1A30002C333D8FC42BD22AF057401A80708803F
:08C1B30002C333D8FC42BE2296
:10C04B00EF1460191460251460312403703D7401E2
:10C05B00A805088002C333D8FCF452B7227401A898
:10C06B0005088002C333D8FCF452BC227401A80526
:10C07B00088002C333D8FCF452BD22AF057401A86B
:0CC08B0007088002C333D8FCF452BE2228
:10B48200EF14602D14604A1460672403600302B550
:10B4920014EB600E7401A805088002C333D8FC4285
:10B4A20080227401A805088002C333D8FCF45280BC
:10B4B20022EB600E7401A805088002C333D8FC4257
:10B4C20090227401A805088002C333D8FCF452907C
:10B4D20022EB600E7401A805088002C333D8FC4237
:10B4E200A0227401A805088002C333D8FCF452A03C
:10B4F20022EB600E7401A805088002C333D8FC4217
:10B50200B022AF057401A807088002C333D8FCF447
:03B5120052B02212
:10BEB200EF14601A14602714603424037042740172
:10BEC200A805088002C333D8FC5580FE8034740173
:10BED200A805088002C333D8FC5590FE8024740163
:10BEE200A805088002C333D8FC55A0FE8014AF0514
:10BEF2007401A807088002C333D8FC55B0FE800243
:04BF0200E4FEAF06A4
:01BF06002218
:10C71800758911E4F58CF58AC28CF518F51A4389E8
:0EC7280001758CBC758ACDD2A9D2AFD28C22FD
:03000B0002B940F7
:0DB94000C0E0C0D075D000C000C006C00738
:10B94D00C2AF758CBC758ACD0519751B0074017E4F
:10B95D0000A81B088005C333CE33CED8F9FFEF55B1
:10B96D001A602DE51B25E02408F808E6161870016D
:10B97D0016E51B25E02408F8E6FE08E64E7011AF2B
:10B98D001B04A807088002C333D8FC4218F4521ACE
:09B99D00051BE51BB408B6D2AF8E
:0BB9A600D007D006D000D0D0D0E03297
:10C88300758911E4F58DF58BC28ED2AF438910758E
:0AC893008DBC758BCDD2ABD28E2286
:03001B0002C9B85F
:0DC9B800C2AF758DBC758BCDB290D2AF3281
:10C95B0075C8F075CD58E4F5CC75CB58F5CA43C8FE
:04C96B0001D2AD2226
:03002B0002C9D136
:09C9D100C2AFC2C6B291D2AF326E
:10C6D500C2AF7401A807088002C333D8FCFE421A12
:10C6E500EF25E02408F8A60408A605EEF45218D2B2
:02C6F500AF2272
:10C93100C2AF7401A807088002C333D8FCF4521AAD
:05C941005218D2AF22E4
:10C98300C2AF7401A807088002C333D8FC5518FF4F
:02C99300D2AF21
:01C99500227F
:10BFAF00AB07AA06A905A8047F007E387D317C0067
:10BFBF001284E0C3E49F90C884F074049E90C883F9
:10BFCF00F043C9407D04E4FF12C1737D05E4FF1205
:10BFDF00C04B43803075D88075985090C883E0FC73
:0DBFEF00A3E0FDECF5BA8DAA43A810D2AC7A
:01BFFC002222
:10C0E200AB07AA06A905A8047F007E707D627C00CA
:10C0F2001284E0C3E49F90C884F074049E90C883C5
:10C10200F043C9207D06E4FF12C1737D07E4FF12EC
:10C11200C04B4380C0759B9090C883E0FCA3E0FDB8
:08C12200ECF5BB8D9D439A0171
:01C12A0022F2
:10C39F00759680759780AB07AA06A905A8047F003C
:10C3AF007EC07D897C011284E0AD07AC06ECF5D927
:10C3BF00AF058FE743B80CE4909812F0A3F0A3F009
:10C3CF00A3F090981AF0909816F0A3F0A3F0A3F0B2
:01C3DF00223B
:10C68A0075A78075AB80AB07AA06A905A8047F0029
:10C69A007EC07D897C011284E0AD07AC06ECF5AE64
:07C6AA00AF058FAF43B8306C
:01C6B1002266
:10BF5C00EF14601B1460291460372403704490C8DC
:10BF6C007FE0FCA3E0FDA3E0FEA3E0FF02BFAF90E7
:10BF7C00C87FE0FCA3E0FDA3E0FEA3E0FF02C0E26B
:10BF8C0090C87FE0FCA3E0FDA3E0FEA3E0FF02C3AA
:10BF9C009F90C87FE0FCA3E0FDA3E0FEA3E0FF12AE
:03BFAC00C68A2220
:1096990090C87EEFF0A3ECF0A3EDF0A3EBF0A3EA02
:0496A900F0A3E9F051
:1096AD00C2AFE4A3F0A3F090C87FE0FEA3E0FFC338
:1096BD0090C885E09F90C884E09E4003029771900A
:1096CD00C881E0FBA3E475F001128385A9F0FA12BD
:1096DD00828EFF90C87EE0FE75F009A42400F5820D
:1096ED00E5F03488F583EE75F008A42583F583E065
:1096FD00FCA3E0FD75F009EEA42400F582E5F0343D
:10970D0080F583EE75F008A42583F583E5822DF5AC
:10971D0082E5833CF583EFF075F009EEA42400F5A6
:10972D0082E5F03488F583EE75F008A42583F58382
:10973D00E475F00112836F75F009EEA42400F58233
:10974D00E5F03488F583EE75F008A42583F583E004
:10975D005403F090C885E004F0700690C884E004CE
:10976D00F00296B490C87EE01460421460701470DC
:10977D000302981924036003029849908808E06059
:10978D000302984904F0908802E0FEA3E02400F55E
:10979D008274803EF583E0F599908803E004F070C3
:1097AD0006908802E004F09088020298459090118E
:1097BD00E0600302984904F090900BE0FEA3E024D2
:1097CD0009F58274883EF583E0F59C90900CE004D9
:1097DD00F0700690900BE004F090900B805A9098EA
:1097ED001AE0705804F0909814E0FEA3E02412F5EE
:1097FD008274903EF583E0F59E909815E004F0702C
:10980D0006909814E004F0909814802C90A023E01A
:10981D00702A04F090A01DE0FEA3E0241BF58274D5
:10982D00983EF583E0F5AC90A01EE004F070069034
:0E983D00A01DE004F090A01DE05403F0D2AF97
:01984B0022FA
:0300230002B636EC
:10B63600C0E0C083C082C0D075D000C006C007C2BB
:10B64600AF30982AC298908804E0FEA3E02400F563
:10B656008274843EF583E599F0908805E004F070E5
:10B6660006908804E004F0908804E05403F03099D2
:10B676003FC299908802E0FEA3E0FF908800E06E4A
:10B686007003A3E06F602474002FF58274803EF58A
:10B6960083E0F599908803E004F07006908802E054
:10B6A60004F0908802E05403F08005908808E4F0E6
:0FB6B600D2AFD007D006D0D0D082D083D0E03230
:0300530002BC32BA
:10BC3200C0E0C083C082C0D075D000C006C007C2B9
:10BC4200AF5396FE909814E0FEA3E0FF909812E0A6
:10BC52006E7003A3E06F602474122FF58274903E1D
:10BC6200F583E0F59E909815E004F0700690981424
:10BC7200E004F0909814E05403F0800590981AE4E0
:10BC8200F0D2AFD007D006D0D0D082D083D0E0326D
:03005B0002C1BB24
:10C1BB00C0E0C083C082C0D075D000C006C2AF53F0
:10C1CB0097FE909816E0FEA3E02412F58274943E3D
:10C1DB00F583E59FF0909817E004F07006909816A1
:10C1EB00E004F0909816E05403F0D2AFD006D0D014
:07C1FB00D082D083D0E032B6
:0300630002BC924A
:10BC9200C0E0C083C082C0D075D000C006C007C259
:10BCA200AF53A7FE90A01DE0FEA3E0FF90A01BE013
:10BCB2006E7003A3E06F6024741B2FF58274983EAC
:10BCC200F583E0F5AC90A01EE004F0700690A01D94
:10BCD200E004F090A01DE05403F0800590A023E45E
:10BCE200F0D2AFD007D006D0D0D082D083D0E0320D
:03006B0002C202CC
:10C20200C0E0C083C082C0D075D000C006C2AF53A8
:10C21200ABFE90A01FE0FEA3E0241BF582749C3EBF
:10C22200F583E5ADF090A020E004F0700690A01F29
:10C23200E004F090A01FE05403F0D2AFD006D0D0BB
:07C24200D082D083D0E0326E
:0300830002B3E7DE
:10B3E700C0E0C083C082C0D075D000C006C007C20D
:10B3F700AFE59B30E02E759B90539BFE90900DE040
:10B40700FEA3E02409F582748C3EF583E59CF09059
:10B41700900EE004F0700690900DE004F090900D0F
:10B42700E05403F0E59B30E143759B90539BFD90FF
:10B43700900BE0FEA3E0FF909009E06E7003A3E09D
:10B447006F602474092FF58274883EF583E0F59CBC
:10B4570090900CE004F0700690900BE004F0909050
:10B467000BE05403F08005909011E4F0D2AFD007C1
:0BB47700D006D0D0D082D083D0E032CD
:10C946007596807597807C00ECF5D975E7E0759E45
:04C956000D53B8F3D2
:01C95A0022BA
:0BC6B20090C8B6EBF0A3EAF0A3E9F09B
:10C6BD0090C8E17401F0A374C8F0A374B9F090C8E8
:07C6CD00E1E4F0A3F0A3F08B
:01C6D4002243
:02C9E80080FECF
:0556DC0042C9DA0000E4
:10B15200E490C879F0A3F0A3740AF0A3740DF0A3ED
:10B1620074EFF012C71812C883129312E4FD7F0223
:10B1720012C04B7D607CEAE4FF12C6D57DF47C01EF
:10B182007F0112C6D512B8CAD2AF90C756E0FF12DD
:10B19200C4E01289E47D887C137F0712C6D57B0147
:10B1A2007AC8797A90C8ABE4F0A304F07F007E827B
:10B1B2001299FE124D4A12C31A90C9DAE07002A324
:10B1C200E070187F0712C983EF601090C9DAE4F0CB
:10B1D200A304F090C756F0FF12C4E090C9DAE07001
:10B1E20002A3E060D112C35D12BAFF129B9190C814
:0BB1F20077EEF0A3EFF012010080BB2D
:1056E10041C7D10042C75A000041C7490044C7A978
:1056F1000000000046C741000000000000604EC6E7
:10570100F300000001000200030004000500060090
:105711000700080009000A000B000C000D000E0034
:105721000F001000110012001300140015001600E4
:105731001700180019001A001B001C001D001E0094
:105741001F00200021002200230024002500264202
:10575100C76D000041C7D40042C74C000042C76A70
:10576100000050C7BB000000000000000000000066
:10577100000000000050C78A000000000000000087
:10578100000000000000000050C77700000000008A
:10579100000000000000000000000042C7D9000026
:1057A10042C7A5000042C768000042C7D6000042B8
:1057B100C7A2000042C7CC000042C775000042C723
:1057C100A0000042C747000042C76F000041C7BAAE
:1057D1000042C7DB000042C74F000042C75800002B
:1057E10041C74A0041C7B00141C7B10241C7B40333
:1057F10041C7B50441C7B60541C7B70641C7B80798
:1058010041C74E0841C7610941C7670A41C79E0B9D
:1058110041C7550C41C7600D41C7730E41C7890F80
:1058210041C7D01041C7D81141C75F1241C7B91351
:1058310041C7CF1441C7521541C7CB1641C7AD1758
:1058410041C75E1841C7571941C7511A41C76C1B5F
:1058510041C75D1C41C7A41D41C7AF1E41C79D1F64
:1058610041C75C2041C79C2141C7D52241C7742350
:1058710041C7CE2441C74B2541C7AE2642C7A70029
:105881000042C762000041C79F0041C7640042C790
:105891009A000042C771000042C7D2000042C765AA
:1058A100000041C6E00041C6E10041C6E20041C638
:1058B100E30041C6E40041C6E50041C6E60042C638
:1058C100E7000042C6E9000042C6EB000042C6ED17
:0758D100000042C6EF0000D9
:10B7D70090C6EDF0A3F090C6E2F090C753E0FEA349
:10B7E700E0FF7C007D0A128308AA06AB0790C78793
:10B7F700E0FEA3E0FF7D64128308EF2BFFEE3AFE25
:10B8070090C7B3E02FFF90C7B2E03E90C882F0A385
:0EB81700EFF07F0090C882E0FCA3E0FD7E8190
:10B8250090C6F1EEF0A3EFF090C7DBECF0A3EDF0DE
:10B8350090C7BA7401F0FB7AC779DB90C8ABE4F026
:0FB84500A304F01299FE7DBC7C027F0602C6D5DB
:0CC9C500E490C7BAF090C758F0A3F0222D
:10BAFF0090C7BAE060637F0612C983EF605B90C6A0
:10BB0F00F1E0FEA3E0FF7B017AC7794F90C8A7E46D
:10BB1F00F0A304F01294D990C74FE0FEA3E0FF907A
:10BB2F00C7DBE0FCA3E0FDB50707ECB5060302C9D0
:10BB3F00C5C390C759E0940290C758E094005019BC
:10BB4F0090C6F1E0FEA3E0FF12B82590C759E004BC
:0ABB5F00F0700690C758E004F022D1
:06C9E200E490C749F022B9
:10A5D50090C8A2ECF0A3EDF0EE600302A6F3EF2421
:10A5E500FE606A14606B14700302A6B8240360034E
:10A5F50002A6F390C8A2E0FEA3E0FFEE703DEF14C3
:10A605006019146026240270327F037E1012C7E29F
:10A615007F137E1012C7E27F33805C7F037E1012AA
:10A62500C7E27F137E1012C7FD801E7F037E1012C6
:10A63500C7FD7F137E1012C7E2800E7F037E1012C6
:10A64500C7E27F137E1012C7E27F3380627F53809B
:10A655002690C8A2E0FEA3E0FFEE7043EF14601B56
:10A6650014602A240270387F637E1012C7E27F735C
:10A675007E1012C7E27F837E1080627F637E101298
:10A68500C7E27F737E1012C7FD7F8380227F637EC2
:10A695001012C7FD7F737E1012C7E27F8380107F83
:10A6A500637E1012C7E27F737E1012C7E27F837E3E
:10A6B50010803890C8A2E0FEA3E0FFEE7022EF14F0
:10A6C500601004701B7F137E1112C7FD7F337E114E
:10A6D50080197F137E1112C7E27F337E1102C7FDF9
:0FA6E5007F137E1112C7E27F337E1112C7E2226C
:0A86690090C756E0FF7E00E4FDFC20
:1086730090C8A2ECF0A3EDF0EE60030289E3EF24CF
:10868300F0B4080040030289E390869A75F003A4CE
:10869300C58325F0C583730286B202872F028792B2
:1086A30002880F02888C0288EF02896B0289BD90D1
:1086B300C8A2E07002A3E070177F537E1112C7C7F0
:1086C3007F637E1112C7C77F737E1112C7FD80427D
:1086D30090C8A2E07004A3E0640170107F537E1180
:1086E30012C7C77F637E1112C7FD801F90C8A2E027
:1086F3007004A3E064027F537E11700512C7FD80EE
:108703000312C7C77F637E1112C7C77F737E11121F
:10871300C7C790C8A2E07004A3E0640370047D019E
:108723008002E4FDFC7F807E210289E090C8A2E004
:108733007002A3E070107F937E1112C7C77F037E80
:108743001212C7FD802F90C8A2E07004A3E0640159
:1087530070097F937E1112C7FD801390C8A2E07049
:1087630004A3E06402700E7F937E1112C7C77F03D8
:108773007E1212C7C790C8A2E07004A3E06402701F
:10878300047D018002E4FDFC7F107E220289E090DB
:10879300C8A2E07002A3E070177F237E1212C7C73E
:1087A3007F837E9012C7C77F937E9012C7FD80425E
:1087B30090C8A2E07004A3E0640170107F237E12CE
:1087C30012C7C77F837E9012C7FD801F90C8A2E0A7
:1087D3007004A3E064027F237E12700512C7FD803C
:1087E3000312C7C77F837E9012C7C77F937E901201
:1087F300C7C790C8A2E07004A3E0640370047D01BE
:108803008002E4FDFC7F307E390289E090C8A2E05B
:108813007002A3E070177F637E1212C7C77F337E97
:108823001212C7C77F437E1212C7FD804290C8A2AF
:10883300E07004A3E0640170107F637E1212C7C767
:108843007F337E1212C7FD801F90C8A2E07004A37D
:10885300E064027F637E12700512C7FD800312C7B6
:10886300C77F337E1212C7C77F437E1212C7C790DA
:10887300C8A2E07004A3E0640370047D018002E4F5
:10888300FDFC7F507E220289E090C8A2E07002A323
:10889300E070107F037E1312C7C77413FFFE12C765
:1088A300FD802F90C8A2E07004A3E0640170097FEB
:1088B300037E1312C7FD801390C8A2E07004A3E0E7
:1088C3006402700E7F037E1312C7C77413FFFE1278
:1088D300C7C790C8A2E07004A3E0640270047D01DE
:1088E3008002E4FDFC7F207E230289E090C8A2E0A1
:1088F3007002A3E070177F337E1312C7C77F437ED6
:108903001312C7C77F537E1312C7FD804290C8A2BC
:10891300E07004A3E0640170107F337E1312C7C7B5
:108923007F437E1312C7FD801F90C8A2E07004A38B
:10893300E064027F337E13700512C7FD800312C704
:10894300C77F437E1312C7C77F537E1312C7C790D7
:10895300C8A2E07004A3E0640370047D018002E414
:10896300FDFC7F607E23807590C8A2E07002A3E0C7
:1089730070097F737E1312C7FD801F90C8A2E07039
:1089830004A3E064017F737E13700C12C7C77F8357
:108993007E1312C7FD800A12C7C77F837E1312C7D7
:1089A300C790C8A2E07004A3E0640270047D018054
:1089B30002E4FDFC7F907E23802390C8A2E0700434
:1089C300A3E064017F037E14700912C7C77D017C95
:1089D30000800612C7FDE4FDFC7F107E2412C73B16
:0189E3002271
:05C73600E4FDFC7F9012
:10C73B0090C8A4ECF0A3EDF07B017AC879A490C863
:09C74B00ABE4F0A304F00299FE36
:06C4DA00E0FF90C756F0E0
:10C4E00090C7A9745AF0A37401F0E4A3F0EF25E01B
:10C4F00024F3F582E434C6F583A3E090C7ACF07B67
:10C50000017AC779A990C8ABE4F0A37402F07F84E4
:05C510007E000299FE0F
:08C9DA0090C756EFF002C4E023
:10A9000090C84CE0B40800400302A9F890A913F8DD
:10A9100028287302A92B02A94D02A97C02A98F0243
:10A92000A9A202A9A702A9C102A9C67F637E5012EB
:10A93000C7E27F937E5012C8D17F237E5112C8D1C7
:10A940007F537E5112C8D190C75D02A9F37F937ED9
:10A950005112C7E27F137E5212C8D17F337E52124A
:10A96000C8D17F537E5212C8D17F737E5212C8D194
:10A970007F937E5212C8D190C7A480777F437E53C5
:10A9800012C7E27453FFFE12C8D190C7AF80647F34
:10A99000737E5312C7E27F837E5312C8D190C79D46
:10A9A000805190C7D5804C7F537E5512C7E27F639C
:10A9B0007E5512C8D17F737E5512C8D190C774805E
:10A9C0003290C7CE802D7F937E5512C7E27F037EE3
:10A9D0005612C8D17F137E5612C8D17F237E5612DD
:10A9E000C8D17F337E5612C8D17F437E5612C8D15C
:09A9F00090C74BE0FF12C9DA2206
:10BE06007F037E1012C8D17F137E1012C8D17F33F4
:10BE16007E1012C8D17F437E1012C8D17F537E1088
:10BE260012C8D17F637E1012C8D17F737E1012C8EC
:10BE3600D17F837E1012C8D17F137E1112C8D17FA5
:10BE4600337E1112C8D17F737E9212C8D1E4FDFCF5
:06BE5600FF7E3002C73B35
:07B6C50090C6E6E0FF7E00E5
:10B6CC0090C8A2EEF0A3EFF064014E70197F037ED8
:10B6DC001012C7E27F137E1012C7E27F337E101266
:10B6EC00C7E27D01803C90C8A2E07004A3E0640234
:10B6FC00700D7F437E1012C7E27F537E1080439003
:10B70C00C8A2E07004A3E0640370207F637E101273
:10B71C00C7E27F737E1012C7E27F837E1012C7E2EE
:10B72C007D027C007F007E3002C73B90C8A2E07097
:10B73C0004A3E06404700E7F137E1112C7E27F3302
:06B74C007E1112C7E2228B
:04BFFD00AB07AA06DE
:10C001007C007D3C12831A90C880EEF0A3EFF0AE65
:10C0110002AF037C007D3C12831AA3ECF0A3EDF088
:10C021007B017AC8798090C8ABE4F0A304F07F105B
:10C031007E211299FE7B017AC8798290C8ABE4F027
:0AC04100A304F07F307E210299FE77
:08BE5C0090C765E0FEA3E0FFC2
:04BE6400AB07AA0678
:10BE68007C007D3C12831A90C8A2EEF0A3EFF0AEDE
:10BE780002AF037C007D3C12831AA3ECF0A3EDF023
:10BE88007B017AC879A290C8ABE4F0A304F07F00E4
:10BE98007E311299FE7B017AC879A490C8ABE4F090
:0ABEA800A304F07F007E320299FE31
:10C3E00090C7647401F07F037E1112C7E27F137E51
:10C3F0001112C7E27F237E1112C7E27F337E111232
:10C40000C7E27B017AC7796590C8A7E4F0A304F07E
:10C410007F067E811294D97DE87C037F0502C6D514
:10C6F700E490C764F07F037E1112C8D17F137E11C7
:10C7070012C8D17F237E1112C8D17F337E1102C890
:01C71700D150
:10C35D0090C764E070077F037E1102C8D17F05127C
:10C36D00C983EF602C90C766E024FFF090C765E0AD
:10C37D0034FFF012BE5FD390C766E0940090C7659E
:10C38D00E09400500302C6F77DE87C037F0512C6DA
:02C39D00D522A7
:1089E400E490C87EF0A3F07B017AC7796F90C8A7A2
:1089F400F0A304F07F047E811294D97B017AC879B4
:108A04007E90C8A7E4F0A304F07F007E811294D97D
:108A140090C87EE0FAA3E0FB7C007D64FFAE021206
:108A2400831A90C787EEF0A3EFF07C007D0AAF03B2
:108A3400AE0212831A7C007D0A12831A90C753EC8B
:108A4400F0A3EDF090C87EE0FEA3E0FF7C007D0A79
:108A540012831A90C7B2ECF0A3EDF07B017AC779C8
:108A64008790C8ABE4F0A304F07F007E201299FE47
:108A74007B017AC7795390C8ABE4F0A304F07F106C
:108A84007E201299FE7B017AC779B290C8ABE4F0DC
:108A9400A304F07F307E201299FE7B017AC7798788
:108AA40090C8ABE4F0A304F07F507E211299FE7BC2
:108AB400017AC7795390C8ABE4F0A304F07F607ED9
:108AC400211299FE7B017AC779B290C8ABE4F0A376
:108AD40004F07F707E211299FE7B017AC8797E9022
:108AE400C8A7E4F0A304F07F027E811294D990C851
:108AF4007EE0FAA3E0FB7C007D64FFAE0212831AE1
:108B040090C768EEF0A3EFF07C007D0AAF03AE02DD
:108B140012831A7C007D0A12831A90C7D6ECF0A344
:108B2400EDF090C87EE0FEA3E0FF7C007D0A128396
:108B34001A90C7A2ECF0A3EDF07B017AC779689094
:108B4400C8ABE4F0A304F07F607E201299FE7B01A1
:108B54007AC779D690C8ABE4F0A304F07F707E2086
:108B64001299FE7B017AC779A290C8ABE4F0A30402
:108B7400F07F807E201299FE7B017AC7796890C8C5
:108B8400ABE4F0A304F07F607E221299FE7B017AAD
:108B9400C779D690C8ABE4F0A304F07F707E2212AC
:108BA40099FE7B017AC779A290C8ABE4F0A304F0E4
:108BB4007F807E221299FE7B017AC7797190C8A7C3
:108BC400E4F0A304F07F067E811294D990C771E08B
:108BD400FEA3E0FF12BFFD90C87EE0FAA3E0FB7C99
:108BE400007D3CFFAE0212831A90C7A0EEF0A3EF03
:108BF400F07C007D3CAF03AE0212831A90C747ECB1
:108C0400F0A3EDF07B017AC779A090C8ABE4F0A3A0
:108C14007402F07F107E211299FE7B017AC7794796
:108C240090C8ABE4F0A37402F07F207E211299FE79
:108C34007B017AC779A090C8ABE4F0A37402F07FFB
:108C4400707E231299FE7B017AC7794790C8ABE402
:108C5400F0A37402F07F807E231299FE7B017AC810
:108C6400797E90C8A7E4F0A304F07F087E81129473
:108C7400D990C87EE0FAA3E0FB7C007D0AFFAE0237
:108C840012831A7C007D0A12831A90C7D9ECF0A3D0
:108C9400EDF07C007D0AAF03AE0212831A90C7A5E3
:108CA400ECF0A3EDF07B017AC779D990C8ABE4F07E
:108CB400A37402F07F907E211299FE7B017AC7791A
:108CC400A590C8ABE4F0A37402F07F007E22129951
:108CD400FE7B017AC8797E90C8A7E4F0A304F07FF4
:108CE4000A7E811294D990C87EE0FAA3E0FB7C004E
:108CF4007D0AFFAE0212831A7C007D0A12831A9049
:108D0400C7CCECF0A3EDF07C007D0AAF03AE0212F9
:108D1400831A90C775ECF0A3EDF07B017AC779D97B
:108D240090C8ABE4F0A37402F07F007E231299FE96
:108D34007B017AC779A590C8ABE4F0A37402F07FF5
:0D8D4400107E231299FE7F737E9202C8D12B
:0801000090C87EEEF0A3EFF0C1
:10010800E4A3F0A3F0A3F0A3F090C6E0E0600DE450
:10011800FF12C983EF6005E490C6E0F090C87EE066
:10012800FEA3E0FF64014E6006EF64024E70099082
:10013800C6E0E06003023B987B017AC679EF90C87D
:10014800A7E4F0A304F07F0C7E801294D990C6EF48
:10015800A3E0FF7C0030E0047D0180027D0090C8B0
:1001680084ECF0A3EDF0EF7E0030E1047F01800223
:100178007F0090C886EEF0A3EFF090C6EFA3E0FFF3
:100188007C0030E2047D0180027D0090C896ECF08E
:10019800A3EDF0EF7E0030E3047F0180027F009042
:1001A800C898EEF0A3EFF090C6EFA3E0FF7C003014
:1001B800E4047D0180027D0090C89AECF0A3EDF084
:1001C800EF7E0030E7047F0180027F0090C888EE50
:1001D800F0A3EFF090C6EFE0FEEE7C0030E4047D83
:1001E8000180027D0090C88AECF0A3EDF0EE7E005D
:1001F80030E0047F0180027F0090C88CEEF0A3EF0E
:10020800F090C6EFA3E0FF7C0030E5047D0180029A
:100218007D0090C88EECF0A3EDF0EF7E0030E60490
:100228007F0180027F0090C890EEF0A3EFF090C6A7
:10023800EFE0FEEE7C0030E1047D0180027D00905D
:10024800C892ECF0A3EDF0EE7E0030E2047F01806E
:10025800027F0090C894EEF0A3EFF090C6EFE0FEA6
:10026800EE7C0030E3047D0180027D0090C89CECA8
:10027800F0A3EDF0EE7E0030E5047F0180027F0000
:1002880090C89EEEF0A3EFF090C88EE07004A3E053
:040298006401700B82
:09029C0090C8A074C0F0A37444E2
:1002A500801D90C892E07004A3E0640190C8A0701E
:0102B5000840
:0602B6007405F0A3741CA6
:0202BC008006BA
:1002BE0074CEF0A37459F07B017AC879A090C8ABC4
:0C02CE00E4F0A304F07F237E141299FEDC
:0C02DA0090C890E07004A3E06401700B79
:0902E60090C8A074C0F0A3744498
:1002EF00801D90C894E07004A3E0640190C8A070D2
:0102FF0008F6
:060300007405F0A3741C5B
:0203060080066F
:1003080074CEF0A37459F07B017AC879A090C8AB79
:0C031800E4F0A304F07F337E141299FE81
:1003240090C88CE07004A3E06401700F90C7D4E01F
:10033400700912C3E090C7D47401F090C756E0B4BA
:10034400182990C74CE07002A3E0701F7B017AC7A4
:10035400796590C8A7F0A304F07F067E811294D932
:1003640012BE5C90C74CE4F0A304F090C884E07023
:1003740004A3E06401600302042C90C76DE07004E0
:10038400A3E06401600302042C90C75EE0FF12C97D
:10039400DA7B017AC8798290C8A7E4F0A304F07FDD
:1003A400067E811294D990C882E0FAA3E0FB7C0017
:1003B4007D3CFFAE0212831A90C7A0EEF0A3EFF0CB
:1003C4007C007D3CAF03AE0212831A90C747ECF069
:1003D400A3EDF07B017AC779A090C8ABE4F0A30445
:1003E400F07F107E211299FE7B017AC7794790C86D
:1003F400ABE4F0A304F07F307E211299FEE490C6B2
:10040400E5F090C6E1F0A3F090C6EDF0A3F090C63D
:10041400E6F090C76DF0A3F090C7D4F090C74CF00D
:10042400A3F012C6F70204E590C888E07004A3E0C4
:100434006401602690C890E07004A3E06401601A2F
:1004440090C88EE07004A3E064017002800C90C830
:100454008CE07004A3E06401703012BE0690C76D96
:10046400E4F0A304F090C757E0FF12C9DAE490C6A1
:10047400E5F090C6E1F0A3F090C6EDF0A3F090C6CD
:10048400E6F090C76AF0A3F0805790C894E0700437
:10049400A3E06401600C90C892E07004A3E06401DE
:1004A400703F12BE0690C751E0FF12C9DA12C6F7B8
:1004B40090C765E07004A3E06401700990C765F01B
:1004C400A3F012BE5CE490C6E5F090C6E1F0A3F0A0
:1004D40090C6EDF0A3F090C6E6F090C76DF0A304CB
:1004E400F090C87EE0FEA3E0FFEE6003023B98EFCD
:1004F40024FE7003021AF61470030231711470039F
:10050400023AFD24036003023B9890C6EDE07004B8
:10051400A3E06401600302199490C7D0E0FF90C780
:1005240056E06F600302077190C6E2E060030205C3
:10053400E190C7B2E0FEA3E0FF90C880EEF0A3EF25
:10054400F04E700A90C7B2F0A37409F0800E90C701
:10055400B3E024FFF090C7B2E034FFF090C753E05B
:10056400FEA3E0FF7C007D0A128308AA06AB079075
:10057400C787E0FEA3E0FF7D64128308EF2BFFEE44
:100584003AFE90C7B3E02FFF90C7B2E03E90C88216
:10059400F0A3EFF090C861E0FEA3E0FF90C882E012
:1005A400FCA3E0FDD39FEC9E501190C85EE0FEA337
:1005B400E0FFC3ED9FEC9E4002800F90C880E0FFF7
:1005C400A3E090C7B2CFF0A3EFF07B017AC779B272
:1005D40090C8ABE4F0A304F07F700218B590C6E2B3
:1005E400E0640160030206A990C753E0FEA3E0FFA4
:1005F40090C880EEF0A3EFF04E700A90C753F0A3BA
:100604007409F0800E90C754E024FFF090C753E0C3
:1006140034FFF090C753E0FEA3E0FF7C007D0A1294
:100624008308AA06AB0790C787E0FEA3E0FF7D64BA
:10063400128308EF2BFFEE3AFE90C7B3E02FFF9032
:10064400C7B2E03E90C882F0A3EFF090C861E0FE2C
:10065400A3E0FF90C882E0FCA3E0FDD39FEC9E5092
:100664002290C85EE0FEA3E0FFC3ED9FEC9E401322
:100674007B017AC7795390C8ABE4F0A304F07F60A0
:100684000218B590C880E0FFA3E090C753CFF0A351
:10069400EFF07B017AC7795390C8ABE4F0A304F080
:1006A4007F600218B590C6E2E06402600302316222
:1006B40090C787E0FEA3E0FF90C880EEF0A3EFF0C0
:1006C4004E700A90C787F0A37402F0800E90C7881A
:1006D400E024FFF090C787E034FFF090C753E0FEBA
:1006E400A3E0FF7C007D0A128308AA06AB0790C72B
:1006F40087E0FEA3E0FF7D64128308EF2BFFEE3A50
:10070400FE90C7B3E02FFF90C7B2E03E90C882F0DE
:10071400A3EFF090C861E0FEA3E0FF90C882E0FC84
:10072400A3E0FDD39FEC9E502290C85EE0FEA3E0C0
:10073400FFC3ED9FEC9E40137B017AC7798790C875
:10074400ABE4F0A304F07F500218B590C880E0FF3A
:10075400A3E090C787CFF0A3EFF07B017AC7798736
:1007640090C8ABE4F0A304F07F500218B590C7D84A
:10077400E0FF90C756E06F60030208BC90C6E2E059
:10078400600302081890C7A5E0FEA3E0FF90C880AC
:10079400EEF0A3EFF04E700A90C7A5F0A37409F031
:1007A400800E90C7A6E024FFF090C7A5E034FFF0C8
:1007B40090C7D9E0FEA3E0FF7C007D0A1283089075
:1007C400C7A6E02FFF90C7A5E03E90C882F0A3EF34
:1007D400F090C882E0FEA3E0FFD39450EE94005062
:1007E4001BEF9400EE940040137B017AC779A59027
:1007F400C8ABE4F0A304F07F000218B590C880E011
:10080400FFA3E090C7A5CFF0A3EFF07B017AC779EF
:10081400A502097B90C6E2E06401600302316290A4
:10082400C7D9E0FEA3E0FF90C880EEF0A3EFF04E3E
:10083400700A90C7D9F0A37408F0800E90C7DAE06C
:1008440024FFF090C7D9E034FFF090C7D9E0FEA3AD
:10085400E0FF7C007D0A12830890C7A6E02FFF907A
:10086400C7A5E03E90C882F0A3EFF090C882E0FEF6
:10087400A3E0FFD39450EE9400501BEF9400EE9449
:100884000040137B017AC779D990C8ABE4F0A30484
:10089400F07F900218B590C880E0FFA3E090C7D91C
:1008A400CFF0A3EFF07B017AC779D990C8ABE4F01D
:1008B400A304F07F900218B590C75FE0FF90C7567D
:1008C400E06F6003020B1690C6E2E0600302098841
:1008D40090C6E7E0FEA3E0FF90C880EEF0A3EFF03F
:1008E4004E700A90C6E7F0A37402F0800E90C6E83A
:1008F400E024FFF090C6E7E034FFF090C6E9E0FEA4
:10090400A3E0FF7C007D0A128308AA06AB0790C609
:10091400E7E0FEA3E0FF7D64128308EF2BFFEE3ACD
:10092400FE90C6ECE02FFF90C6EBE03E90C882F04C
:10093400A3EFF090C882E0FEA3E0FFD39432EE94DC
:1009440000501FEF9400EE9400401790C6E7E0FFBC
:10095400A3E090C7BFCFF0A3EFF07B017AC679E79D
:10096400801590C880E0FFA3E090C6E7CFF0A3EF26
:10097400F07B017AC679E790C8ABE4F0A304F07F7A
:100984000002126E90C6E2E064016003020A529013
:10099400C6E9E0FEA3E0FF90C880EEF0A3EFF04EBE
:1009A400700A90C6E9F0A37405F0800E90C6EAE0E0
:1009B40024FFF090C6E9E034FFF090C6E9E0FEA31E
:1009C400E0FF7C007D0A128308AA06AB0790C6E705
:1009D400E0FEA3E0FF7D64128308EF2BFFEE3AFEF6
:1009E40090C6ECE02FFF90C6EBE03E90C882F0A3E7
:1009F400EFF090C882E0FEA3E0FFD39432EE9400BF
:100A0400502AEF9400EE9400402290C6E9E0FFA340
:100A1400E090C78ECFF0A3EFF07B017AC679E9901E
:100A2400C8ABE4F0A304F07F1002126E90C880E01B
:100A3400FFA3E090C6E9CFF0A3EFF07B017AC6797B
:100A4400E990C8ABE4F0A304F07F1002126E90C6E4
:100A5400E2E06402600302316290C6EBE0FEA3E0D0
:100A6400FF90C880EEF0A3EFF04E700A90C6EBF052
:100A7400A37409F0800E90C6ECE024FFF090C6EB5E
:100A8400E034FFF090C6E9E0FEA3E0FF7C007D0ABD
:100A9400128308AA06AB0790C6E7E0FEA3E0FF7D39
:100AA40064128308EF2BFFEE3AFE90C6EBE0FCA342
:100AB400E0FD2FFFEC3E90C882F0A3EFF090C882D7
:100AC400E0FEA3E0FFD39432EE94005023EF9400B1
:100AD400EE9400401B90C77BECF0A3EDF07B017A11
:100AE400C679EB90C8ABE4F0A304F07F2002126E49
:100AF40090C880E0FFA3E090C6EBCFF0A3EFF07BBB
:100B0400017AC679EB90C8ABE4F0A304F07F20022D
:100B1400126E90C7B9E0FF90C756E06F6003020DF4
:100B24007B90C6E2E06003020BEB90C7A2E0FEA359
:100B3400E0FF90C880EEF0A3EFF04E700A90C7A2D9
:100B4400F0A37409F0800E90C7A3E024FFF090C7CF
:100B5400A2E034FFF090C7D6E0FEA3E0FF7C007D66
:100B64000A128308AA06AB0790C768E0FEA3E0FF59
:100B74007D64128308EF2BFFEE3AFE90C7A3E02FAB
:100B8400FF90C7A2E03E90C882F0A3EFF090C8594E
:100B9400E0FEA3E0FF90C882E0FCA3E0FDD39FEC5D
:100BA4009E502290C856E0FEA3E0FFC3ED9FEC9E4A
:100BB40040137B017AC779A290C8ABE4F0A304F098
:100BC4007F8002126E90C880E0FFA3E090C7A2CF9E
:100BD400F0A3EFF07B017AC779A290C8ABE4F0A34D
:100BE40004F07F8002126E90C6E2E06401600302AA
:100BF4000CB390C7D6E0FEA3E0FF90C880EEF0A34C
:100C0400EFF04E700A90C7D6F0A37409F0800E90EE
:100C1400C7D7E024FFF090C7D6E034FFF090C7D6E2
:100C2400E0FEA3E0FF7C007D0A128308AA06AB075E
:100C340090C768E0FEA3E0FF7D64128308EF2BFFFA
:100C4400EE3AFE90C7A3E02FFF90C7A2E03E90C803
:100C540082F0A3EFF090C859E0FEA3E0FF90C882B1
:100C6400E0FCA3E0FDD39FEC9E502290C856E0FE2A
:100C7400A3E0FFC3ED9FEC9E40137B017AC779D6B6
:100C840090C8ABE4F0A304F07F7002126E90C880A9
:100C9400E0FFA3E090C7D6CFF0A3EFF07B017AC7C3
:100CA40079D690C8ABE4F0A304F07F7002126E9082
:100CB400C6E2E06402600302316290C768E0FEA30A
:100CC400E0FF90C880EEF0A3EFF04E700A90C76882
:100CD400F0A37402F0800E90C769E024FFF090C77F
:100CE40068E034FFF090C7D6E0FEA3E0FF7C007D0F
:100CF4000A128308AA06AB0790C768E0FEA3E0FFC8
:100D04007D64128308EF2BFFEE3AFE90C7A3E02F19
:100D1400FF90C7A2E03E90C882F0A3EFF090C859BC
:100D2400E0FEA3E0FF90C882E0FCA3E0FDD39FECCB
:100D34009E502290C856E0FEA3E0FFC3ED9FEC9EB8
:100D440040137B017AC7796890C8ABE4F0A304F040
:100D54007F6002126E90C880E0FFA3E090C768CF66
:100D6400F0A3EFF07B017AC7796890C8ABE4F0A3F5
:100D740004F07F6002126E90C7CFE0FF90C756E088
:100D84006F6003020EBF90C6E2E06003020E1B9088
:100D9400C775E0FEA3E0FF90C880EEF0A3EFF04E2D
:100DA400700A90C775F0A37409F0800E90C776E0BE
:100DB40024FFF090C775E034FFF090C7CCE0FEA3A9
:100DC400E0FF7C007D0A12830890C776E02FFF9035
:100DD400C775E03E90C882F0A3EFF090C882E0FEB1
:100DE400A3E0FFD39450EE9400500AEF9400EE94E5
:100DF400004002800F90C880E0FFA3E090C775CF49
:100E0400F0A3EFF07B017AC7797590C8ABE4F0A347
:100E140004F07F100211BA90C6E2E064016003029C
:100E2400316290C7CCE0FEA3E0FF90C880EEF0A34F
:100E3400EFF04E700A90C7CCF0A37408F0800E90C7
:100E4400C7CDE024FFF090C7CCE034FFF090C7CCCE
:100E5400E0FEA3E0FF7C007D0A12830890C776E0E1
:100E64002FFF90C775E03E90C882F0A3EFF090C8C2
:100E740082E0FEA3E0FFD39450EE9400501BEF9465
:100E840000EE940040137B017AC779CC90C8ABE4A0
:100E9400F0A304F07F000211BA90C880E0FFA3E041
:100EA40090C7CCCFF0A3EFF07B017AC779CC90C880
:100EB400ABE4F0A304F07F000211BA90C752E0FF44
:100EC40090C756E06F600302110F90C6E2E0600322
:100ED400020F8090C6E7E0FEA3E0FF90C880EEF02A
:100EE400A3EFF064024E700890C6E7F0A3F0800E02
:100EF40090C6E8E024FFF090C6E7E034FFF090C627
:100F0400E9E0FEA3E0FF7C007D0A128308AA06AB99
:100F14000790C6E7E0FEA3E0FF7D64128308EF2B91
:100F2400FFEE3AFE90C6ECE02FFF90C6EBE03E9059
:100F3400C882F0A3EFF090C882E0FEA3E0FFD39450
:100F440032EE94005014EF9400EE9400400C90C6DE
:100F5400E7E0FFA3E090C7C5800A90C880E0FFA344
:100F6400E090C6E7CFF0A3EFF07B017AC679E79073
:100F7400C8ABE4F0A304F07F0002110A90C6E2E0DB
:100F84006401600302104A90C6E9E0FEA3E0FF900A
:100F9400C880EEF0A3EFF04E700A90C6E9F0A37497
:100FA40005F0800E90C6EAE024FFF090C6E9E03434
:100FB400FFF090C6E9E0FEA3E0FF7C007D0A128307
:100FC40008AA06AB0790C6E7E0FEA3E0FF7D641223
:100FD4008308EF2BFFEE3AFE90C6ECE02FFF90C69D
:100FE400EBE03E90C882F0A3EFF090C882E0FEA34D
:100FF400E0FFD39432EE9400502AEF9400EE940074
:10100400402290C6E9E0FFA3E090C794CFF0A3EF9D
:10101400F07B017AC679E990C8ABE4F0A304F07FD1
:101024001002110A90C880E0FFA3E090C6E9CFF057
:10103400A3EFF07B017AC679E990C8ABE4F0A3048E
:10104400F07F1002110A90C6E2E0640260030231EC
:101054006290C6EBE0FEA3E0FF90C880EEF0A3EF41
:10106400F04E700A90C6EBF0A37409F0800E90C69F
:10107400ECE024FFF090C6EBE034FFF090C6E9E02A
:10108400FEA3E0FF7C007D0A128308AA06AB07904A
:10109400C6E7E0FEA3E0FF7D64128308EF2BFFEEBA
:1010A4003AFE90C6EBE0FCA3E0FD2FFFEC3E90C8B7
:1010B40082F0A3EFF090C882E0FEA3E0FFD3943265
:1010C400EE94005022EF9400EE9400401A90C781F1
:1010D400ECF0A3EDF07B017AC679EB90C8ABE4F0B9
:1010E400A304F07F20801F90C880E0FFA3E090C697
:1010F400EBCFF0A3EFF07B017AC679EB90C8ABE4B9
:10110400F0A304F07F207E2502198E90C7CBE0FF68
:1011140090C756E06F600302129790C6E2E0600346
:101124000211E390C7A0E0FEA3E0FF90C880EEF0B8
:10113400A3EFF04E701D90C747E07002A3E090C784
:10114400A06008E4F0A3743BF08016E4F0A3743CC0
:10115400F0800E90C7A1E024FFF090C7A0E034FF18
:10116400F090C7A0E0FEA3E0FF7C007D3C12830862
:1011740090C748E02FFF90C747E03E90C882F0A395
:10118400EFF090C867E0FEA3E0FF90C882E0FCA304
:10119400E0FDD39FEC9E502390C865E0FEA3E0FFE2
:1011A400ED9FEC9E40157B017AC779A090C8ABE413
:1011B400F0A304F07F707E2302198E90C880E0FFB4
:1011C400A3E090C7A0CFF0A3EFF07B017AC779A08A
:1011D40090C8ABE4F0A304F07F707E2302198E90D4
:1011E400C6E2E06401600302316290C747E0FEA3F7
:1011F400E0FF90C880EEF0A3EFF04E700A90C7476E
:10120400F0A3743BF0800E90C748E024FFF090C731
:1012140047E034FFF090C7A0E0FEA3E0FF7C007D30
:101224003C12830890C748E02FFF90C747E03E90E8
:10123400C882F0A3EFF090C867E0FEA3E0FF90C877
:1012440082E0FCA3E0FDD39FEC9E502390C865E0B0
:10125400FEA3E0FFED9FEC9E40157B017AC7794722
:1012640090C8ABE4F0A304F07F807E2202198E9034
:10127400C880E0FFA3E090C747CFF0A3EFF07B0165
:101284007AC7794790C8ABE4F0A304F07F807E224C
:1012940002198E90C7ADE0FF90C756E06F70429080
:1012A400C6E2E0600302316290C873E0FEA3E0FF8F
:1012B400D390C770E09F90C76FE09E5003023162E5
:1012C400A3E024FFF090C76FE034FFF07B017AC7FE
:1012D400796F90C8ABE4F0A304F07F007E24021978
:1012E4008E90C74EE0FF90C756E06F6003023162F4
:1012F40090C6E6E06401600302156190C6E2E06016
:10130400030213C990C7B2E0FEA3E0FF90C880EEC9
:10131400F0A3EFF04E700A90C7B2F0A37409F08006
:101324000E90C7B3E024FFF090C7B2E034FFF09012
:10133400C753E0FEA3E0FF7C007D0A128308AA06DF
:10134400AB0790C787E0FEA3E0FF7D64128308EF3C
:101354002BFFEE3AFE90C7B3E02FFF90C7B2E03EFA
:1013640090C882F0A3EFF090C861E0FEA3E0FF9084
:10137400C882E0FCA3E0FDD39FEC9E502490C85E9D
:10138400E0FEA3E0FFC3ED9FEC9E40157B017AC70E
:1013940079B290C8ABE4F0A304F07F307E20021948
:1013A4008E90C880E0FFA3E090C7B2CFF0A3EFF027
:1013B4007B017AC779B290C8ABE4F0A304F07F3024
:1013C4007E2002198E90C6E2E06401600302149547
:1013D40090C753E0FEA3E0FF90C880EEF0A3EFF0C7
:1013E4004E700A90C753F0A37409F0800E90C7544E
:1013F400E024FFF090C753E034FFF090C753E0FEC1
:10140400A3E0FF7C007D0A128308AA06AB0790C7FD
:1014140087E0FEA3E0FF7D64128308EF2BFFEE3A22
:10142400FE90C7B3E02FFF90C7B2E03E90C882F0B1
:10143400A3EFF090C861E0FEA3E0FF90C882E0FC57
:10144400A3E0FDD39FEC9E502490C85EE0FEA3E091
:10145400FFC3ED9FEC9E40157B017AC7795390C87A
:10146400ABE4F0A304F07F107E2002198E90C880B4
:10147400E0FFA3E090C753CFF0A3EFF07B017AC75E
:10148400795390C8ABE4F0A304F07F107E200219D6
:101494008E90C6E2E06402600302316290C787E086
:1014A400FEA3E0FF90C880EEF0A3EFF04E700A9028
:1014B400C787F0A37402F0800E90C788E024FFF081
:1014C40090C787E034FFF090C753E0FEA3E0FF7CB1
:1014D400007D0A128308AA06AB0790C787E0FEA323
:1014E400E0FF7D64128308EF2BFFEE3AFE90C7B352
:1014F400E02FFF90C7B2E03E90C882F0A3EFF090D7
:10150400C861E0FEA3E0FF90C882E0FCA3E0FDD345
:101514009FEC9E502490C85EE0FEA3E0FFC3ED9FC5
:10152400EC9E40157B017AC7798790C8ABE4F0A3A1
:1015340004F07F007E2002198E90C880E0FFA3E0B3
:1015440090C787CFF0A3EFF07B017AC7798790C863
:10155400ABE4F0A304F07F007E2002198E90C6E66F
:10156400E0B4023990C873E0FEA3E0FFD390C770E3
:10157400E09F90C76FE09E5003023162A3E024FF16
:10158400F090C76FE034FFF07B017AC7796F90C8A1
:10159400ABE4F0A304F07F507E2002198E90C6E6DF
:1015A400E06403600302180E90C6E2E060030216D2
:1015B4007690C7A2E0FEA3E0FF90C880EEF0A3EF10
:1015C400F04E700A90C7A2F0A37409F0800E90C781
:1015D400A3E024FFF090C7A2E034FFF090C7D6E068
:1015E400FEA3E0FF7C007D0A128308AA06AB0790E5
:1015F400C768E0FEA3E0FF7D64128308EF2BFFEED3
:101604003AFE90C7A3E02FFF90C7A2E03E90C882A5
:10161400F0A3EFF090C859E0FEA3E0FF90C882E089
:10162400FCA3E0FDD39FEC9E502490C856E0FEA39B
:10163400E0FFC3ED9FEC9E40157B017AC779A29031
:10164400C8ABE4F0A304F07F807E2002198E90C81A
:1016540080E0FFA3E090C7A2CFF0A3EFF07B017A74
:10166400C779A290C8ABE4F0A304F07F807E200287
:10167400198E90C6E2E06401600302174290C7D657
:10168400E0FEA3E0FF90C880EEF0A3EFF04E700AF6
:1016940090C7D6F0A37409F0800E90C7D7E024FF5A
:1016A400F090C7D6E034FFF090C7D6E0FEA3E0FF89
:1016B4007C007D0A128308AA06AB0790C768E0FE87
:1016C400A3E0FF7D64128308EF2BFFEE3AFE90C780
:1016D400A3E02FFF90C7A2E03E90C882F0A3EFF0F2
:1016E40090C859E0FEA3E0FF90C882E0FCA3E0FDAF
:1016F400D39FEC9E502490C856E0FEA3E0FFC3EDB8
:101704009FEC9E40157B017AC779D690C8ABE4F074
:10171400A304F07F707E2002198E90C880E0FFA39E
:10172400E090C7D6CFF0A3EFF07B017AC779D690CB
:10173400C8ABE4F0A304F07F707E2002198E90C63B
:10174400E2E06402600302316290C768E0FEA3E055
:10175400FF90C880EEF0A3EFF04E700A90C768F0D7
:10176400A37402F0800E90C769E024FFF090C7686C
:10177400E034FFF090C7D6E0FEA3E0FF7C007D0AD2
:10178400128308AA06AB0790C768E0FEA3E0FF7DBA
:1017940064128308EF2BFFEE3AFE90C7A3E02FFFFD
:1017A40090C7A2E03E90C882F0A3EFF090C859E041
:1017B400FEA3E0FF90C882E0FCA3E0FDD39FEC9E73
:1017C400502490C856E0FEA3E0FFC3ED9FEC9E407A
:1017D400157B017AC7796890C8ABE4F0A304F07F65
:1017E400607E2002198E90C880E0FFA3E090C76855
:1017F400CFF0A3EFF07B017AC7796890C8ABE4F02F
:10180400A304F07F607E2002198E90C6E6E0640493
:10181400600302316290C6E2E060030218DE90C702
:10182400A0E0FEA3E0FF90C880EEF0A3EFF04E70BE
:101834001D90C747E07002A3E090C7A06008E4F0E1
:10184400A3743BF08016E4F0A3743CF0800E90C7C0
:10185400A1E024FFF090C7A0E034FFF090C7A0E01F
:10186400FEA3E0FF7C007D3C12830890C748E02F74
:10187400FF90C747E03E90C882F0A3EFF090C8679E
:10188400E0FEA3E0FF90C882E0FCA3E0FDD39FEC60
:101894009E502390C865E0FEA3E0FFED9FEC9E40C0
:1018A400157B017AC779A090C8ABE4F0A304F07F5C
:1018B400107E2102198E90C880E0FFA3E090C7A09B
:1018C400CFF0A3EFF07B017AC779A090C8ABE4F026
:1018D400A304F07F107E2102198E90C6E2E0640119
:1018E400600302316290C747E0FEA3E0FF90C88026
:1018F400EEF0A3EFF04E700A90C747F0A3743BF0EC
:10190400800E90C748E024FFF090C747E034FFF012
:1019140090C7A0E0FEA3E0FF7C007D3C128308900A
:10192400C748E02FFF90C747E03E90C882F0A3EF7E
:10193400F090C867E0FEA3E0FF90C882E0FCA3E05B
:10194400FDD39FEC9E502290C865E0FEA3E0FFED1E
:101954009FEC9E40147B017AC7794790C8ABE4F0B2
:10196400A304F07F307E21802190C880E0FFA3E0B3
:1019740090C747CFF0A3EFF07B017AC7794790C8AF
:10198400ABE4F0A304F07F307E211299FE023162B1
:1019940090C6E5E06401702890C6EDE07002A3E013
:1019A400600302316212BE0690C6E6E0B40105741B
:1019B40004F0800690C6E6E014F012B6C502316267
:1019C40090C756E0FFD394014008EFD39407500228
:1019D400804490C7B0E0FF90C756E0B5070B90C7AE
:1019E400B8E0FF90C756F0803290C6E3E06401701F
:1019F4002F90C789E0FF90C756E0B5070590C79EB2
:101A0400803A90C761E0FF90C756E0B5070590C7DC
:101A140089802990C756E014F0E0FF12C4E08036B4
:101A240090C6E4E0B4011C90C755E0FFA3E0B507FD
:101A34000590C789800690C756E014F0E0FF12C9EC
:101A4400DA801390C76CE0FF90C756E0B507077FB4
:101A5400017E0012C62590C75DE0FF90C756E0B531
:101A6400070E90C87EE0FEA3E0FF127CB402316250
:101A740090C7A4E0FF90C756E0B5070E90C87EE07B
:101A8400FEA3E0FF12A6F402316290C7AFE0FF901C
:101A9400C756E0B5070E90C87EE0FEA3E0FF12A98A
:101AA400F902316290C79DE0FF90C756E0B5070E7A
:101AB40090C87EE0FEA3E0FF12BDAE02316290C783
:101AC40074E0FF90C756E0B5070E90C87EE0FEA311
:101AD400E0FF12AFDA02316290C74BE0FF90C756C5
:101AE400E0B5070B90C87EE0FEA3E0FF1271E702A9
:101AF400316290C6EDE07004A3E064016003022F3C
:101B0400D990C7D0E0FF90C756E06F6003021D5C18
:101B140090C6E2E06003021BCA90C7B2E0FEA3E0F5
:101B2400FF90C880EEF0A3EFF064094E601090C7F8
:101B3400B3E004F0700F90C7B2E004F08007E490C3
:101B4400C7B2F0A3F090C753E0FEA3E0FF7C007D92
:101B54000A128308AA06AB0790C787E0FEA3E0FF3A
:101B64007D64128308EF2BFFEE3AFE90C7B3E02F9B
:101B7400FF90C7B2E03E90C882F0A3EFF090C86136
:101B8400E0FEA3E0FF90C882E0FCA3E0FDD39FEC5D
:101B94009E501190C85EE0FEA3E0FFC3ED9FEC9E53
:101BA4004002800F90C880E0FFA3E090C7B2CFF05E
:101BB400A3EFF07B017AC779B290C8ABE4F0A30439
:101BC400F07F70022EF990C6E2E064016003021C0B
:101BD4009390C753E0FEA3E0FF90C880EEF0A3EF1C
:101BE400F064094E601090C754E004F0700F90C781
:101BF40053E004F08007E490C753F0A3F090C75378
:101C0400E0FEA3E0FF7C007D0A128308AA06AB076E
:101C140090C787E0FEA3E0FF7D64128308EF2BFFEB
:101C2400EE3AFE90C7B3E02FFF90C7B2E03E90C8F3
:101C340082F0A3EFF090C861E0FEA3E0FF90C882B9
:101C4400E0FCA3E0FDD39FEC9E502290C85EE0FE32
:101C5400A3E0FFC3ED9FEC9E40137B017AC7795349
:101C640090C8ABE4F0A304F07F60022EF990C88022
:101C7400E0FFA3E090C753CFF0A3EFF07B017AC756
:101C8400795390C8ABE4F0A304F07F60022EF9907E
:101C9400C6E2E06402600302316290C787E0FEA3FB
:101CA400E0FF90C880EEF0A3EFF064024E60109065
:101CB400C788E004F0700F90C787E004F08007E461
:101CC40090C787F0A3F090C753E0FEA3E0FF7C0029
:101CD4007D0A128308AA06AB0790C787E0FEA3E03B
:101CE400FF7D64128308EF2BFFEE3AFE90C7B3E04A
:101CF4002FFF90C7B2E03E90C882F0A3EFF090C8E7
:101D040061E0FEA3E0FF90C882E0FCA3E0FDD39F66
:101D1400EC9E502290C85EE0FEA3E0FFC3ED9FEC72
:101D24009E40137B017AC7798790C8ABE4F0A30483
:101D3400F07F50022EF990C880E0FFA3E090C7879F
:101D4400CFF0A3EFF07B017AC7798790C8ABE4F0BA
:101D5400A304F07F50022EF990C7D8E0FF90C75635
:101D6400E06F6003021E9790C6E2E06003021DF379
:101D740090C7A5E0FEA3E0FF90C880EEF0A3EFF0CB
:101D840064094E601090C7A6E004F0700F90C7A5D8
:101D9400E004F08007E490C7A5F0A3F090C7D9E071
:101DA400FEA3E0FF7C007D0A12830890C7A6E02F03
:101DB400FF90C7A5E03E90C882F0A3EFF090C882E0
:101DC400E0FEA3E0FFD39450EE9400500AEF940099
:101DD400EE94004002800F90C880E0FFA3E090C71B
:101DE400A5CFF0A3EFF07B017AC779A5021F569027
:101DF400C6E2E06401600302316290C7D9E0FEA349
:101E0400E0FF90C880EEF0A3EFF064084E700890F5
:101E1400C7D9F0A3F0800E90C7DAE004F070069002
:101E2400C7D9E004F090C7D9E0FEA3E0FF7C007DB1
:101E34000A12830890C7A6E02FFF90C7A5E03E9042
:101E4400C882F0A3EFF090C882E0FEA3E0FFD39431
:101E540050EE9400501BEF9400EE940040137B016D
:101E64007AC779D990C8ABE4F0A304F07F90022E2E
:101E7400F990C880E0FFA3E090C7D9CFF0A3EFF0BA
:101E84007B017AC779D990C8ABE4F0A304F07F90C2
:101E9400022EF990C75FE0FF90C756E06F6003021F
:101EA40020F190C6E2E06003021F6390C6E7E0FE03
:101EB400A3E0FF90C880EEF0A3EFF064094E700831
:101EC40090C6E7F0A3F0800E90C6E8E004F0700638
:101ED40090C6E7E004F090C6E9E0FEA3E0FF7C00D2
:101EE4007D0A128308AA06AB0790C6E7E0FEA3E0CA
:101EF400FF7D64128308EF2BFFEE3AFE90C6ECE000
:101F04002FFF90C6EBE03E90C882F0A3EFF090C89C
:101F140082E0FEA3E0FFD39432EE9400501FEF94CE
:101F240000EE9400401790C6E7E0FFA3E090C7BF1F
:101F3400CFF0A3EFF07B017AC679E7801590C880D3
:101F4400E0FFA3E090C6E7CFF0A3EFF07B017AC6F1
:101F540079E790C8ABE4F0A304F07F000223559026
:101F6400C6E2E06401600302202D90C6E9E0FEA30E
:101F7400E0FF90C880EEF0A3EFF064054E70089087
:101F8400C6E9F0A3F0800E90C6EAE004F070069073
:101F9400C6E9E004F090C6E9E0FEA3E0FF7C007D22
:101FA4000A128308AA06AB0790C6E7E0FEA3E0FF87
:101FB4007D64128308EF2BFFEE3AFE90C6ECE02F0F
:101FC400FF90C6EBE03E90C882F0A3EFF090C88289
:101FD400E0FEA3E0FFD39432EE9400502AEF940085
:101FE400EE9400402290C6E9E0FFA3E090C78ECFB4
:101FF400F0A3EFF07B017AC679E990C8ABE4F0A3D3
:1020040004F07F1002235590C880E0FFA3E090C63F
:10201400E9CFF0A3EFF07B017AC679E990C8ABE48D
:10202400F0A304F07F1002235590C6E2E06402603E
:102034000302316290C6EBE0FEA3E0FF90C880EE9D
:10204400F0A3EFF064094E700890C6EBF0A3F080A3
:102054000E90C6ECE004F0700690C6EBE004F0903D
:10206400C6E9E0FEA3E0FF7C007D0A128308AA060D
:10207400AB0790C6E7E0FEA3E0FF7D64128308EFA0
:102084002BFFEE3AFE90C6EBE0FCA3E0FD2FFFEC45
:102094003E90C882F0A3EFF090C882E0FEA3E0FF78
:1020A400D39432EE94005023EF9400EE9400401B3E
:1020B40090C77BECF0A3EDF07B017AC679EB90C876
:1020C400ABE4F0A304F07F2002235590C880E0FF26
:1020D400A3E090C6EBCFF0A3EFF07B017AC679EBD7
:1020E40090C8ABE4F0A304F07F2002235590C7B955
:1020F400E0FF90C756E06F600302235A90C6E2E007
:1021040060030221C790C7A2E0FEA3E0FF90C8804D
:10211400EEF0A3EFF064094E601090C7A3E004F062
:10212400700F90C7A2E004F08007E490C7A2F0A368
:10213400F090C7D6E0FEA3E0FF7C007D0A1283087E
:10214400AA06AB0790C768E0FEA3E0FF7D64128394
:1021540008EF2BFFEE3AFE90C7A3E02FFF90C7A233
:10216400E03E90C882F0A3EFF090C859E0FEA3E0EF
:10217400FF90C882E0FCA3E0FDD39FEC9E50229028
:10218400C856E0FEA3E0FFC3ED9FEC9E40137B0125
:102194007AC779A290C8ABE4F0A304F07F8002234D
:1021A4005590C880E0FFA3E090C7A2CFF0A3EFF062
:1021B4007B017AC779A290C8ABE4F0A304F07F80D6
:1021C40002235590C6E2E06401600302229090C7A6
:1021D400D6E0FEA3E0FF90C880EEF0A3EFF0640920
:1021E4004E601090C7D7E004F0700F90C7D6E0049B
:1021F400F08007E490C7D6F0A3F090C7D6E0FEA322
:10220400E0FF7C007D0A128308AA06AB0790C7682A
:10221400E0FEA3E0FF7D64128308EF2BFFEE3AFE9D
:1022240090C7A3E02FFF90C7A2E03E90C882F0A31E
:10223400EFF090C859E0FEA3E0FF90C882E0FCA351
:10224400E0FDD39FEC9E502290C856E0FEA3E0FF31
:10225400C3ED9FEC9E40137B017AC779D690C8AB3F
:10226400E4F0A304F07F7002235590C880E0FFA33C
:10227400E090C7D6CFF0A3EFF07B017AC779D69070
:10228400C8ABE4F0A304F07F7002235590C6E2E0EB
:102294006402600302316290C768E0FEA3E0FF902D
:1022A400C880EEF0A3EFF064024E601090C769E0BE
:1022B40004F0700F90C768E004F08007E490C768EA
:1022C400F0A3F090C7D6E0FEA3E0FF7C007D0A12E5
:1022D4008308AA06AB0790C768E0FEA3E0FF7D640D
:1022E400128308EF2BFFEE3AFE90C7A3E02FFF9076
:1022F400C7A2E03E90C882F0A3EFF090C859E0FE78
:10230400A3E0FF90C882E0FCA3E0FDD39FEC9E50C5
:102314002190C856E0FEA3E0FFC3ED9FEC9E40125F
:102324007B017AC7796890C8ABE4F0A304F07F60BE
:10233400801F90C880E0FFA3E090C768CFF0A3EFB0
:10234400F07B017AC7796890C8ABE4F0A304F07F0E
:10235400607E22022FD390C7CFE0FF90C756E06F74
:1023640060030224B790C6E2E0600302240F90C722
:1023740075E0FEA3E0FF90C880EEF0A3EFF06409DF
:102384004E700890C775F0A3F0800E90C776E004F5
:10239400F0700690C775E004F090C7CCE0FEA3E0AF
:1023A400FF7C007D0A12830890C776E02FFF90C758
:1023B40075E03E90C882F0A3EFF090C882E0FEA3DF
:1023C400E0FFD39450EE9400501DEF9400EE94007F
:1023D40040157B017AC7797590C8ABE4F0A304F08B
:1023E4007F107E23022FD390C880E0FFA3E090C724
:1023F40075CFF0A3EFF07B017AC7797590C8ABE491
:10240400F0A304F07F107E23022FD390C6E2E06491
:1024140001600302316290C7CCE0FEA3E0FF90C8E4
:1024240080EEF0A3EFF064084E700890C7CCF0A3E0
:10243400F0800E90C7CDE004F0700690C7CCE004A5
:10244400F090C7CCE0FEA3E0FF7C007D0A12830875
:1024540090C776E02FFF90C775E03E90C882F0A346
:10246400EFF090C882E0FEA3E0FFD39450EE940016
:10247400501DEF9400EE940040157B017AC779CC8F
:1024840090C8ABE4F0A304F07F007E23022FD39026
:10249400C880E0FFA3E090C7CCCFF0A3EFF07B01AE
:1024A4007AC779CC90C8ABE4F0A304F07F007E2314
:1024B400022FD390C752E0FF90C756E06F6003022B
:1024C400272890C6E2E0600302259290C6E7E0FE6A
:1024D400A3E0FF90C880EEF0A3EFF064094E70080B
:1024E40090C6E7F0A3F0800E90C6E8E004F0700612
:1024F40090C6E7E004F090C6E9E0FEA3E0FF7C00AC
:102504007D0A128308AA06AB0790C6E7E0FEA3E0A3
:10251400FF7D64128308EF2BFFEE3AFE90C6ECE0D9
:102524002FFF90C6EBE03E90C882F0A3EFF090C876
:1025340082E0FEA3E0FFD39432EE9400502CEF949B
:1025440000EE9400402490C6E7E0FFA3E090C7C5E6
:10255400CFF0A3EFF07B017AC679E790C8ABE4F043
:10256400A304F07F007E25022FD390C880E0FFA350
:10257400E090C6E7CFF0A3EFF07B017AC679E7904D
:10258400C8ABE4F0A304F07F007E25022FD390C6ED
:10259400E2E06401600302266090C6E9E0FEA3E085
:1025A400FF90C880EEF0A3EFF064054E700890C66B
:1025B400E9F0A3F0800E90C6EAE004F0700690C63D
:1025C400E9E004F090C6E9E0FEA3E0FF7C007D0AA8
:1025D400128308AA06AB0790C6E7E0FEA3E0FF7DDE
:1025E40064128308EF2BFFEE3AFE90C6ECE02FFF57
:1025F40090C6EBE03E90C882F0A3EFF090C882E072
:10260400FEA3E0FFD39432EE9400502CEF9400EE3E
:102614009400402490C6E9E0FFA3E090C794CFF073
:10262400A3EFF07B017AC679E990C8ABE4F0A30488
:10263400F07F107E25022FD390C880E0FFA3E090A6
:10264400C6E9CFF0A3EFF07B017AC679E990C8AB75
:10265400E4F0A304F07F107E25022FD390C6E2E0BD
:102664006402600302316290C6EBE0FEA3E0FF90D7
:10267400C880EEF0A3EFF064094E700890C6EBF04A
:10268400A3F0800E90C6ECE004F0700690C6EBE078
:1026940004F090C6E9E0FEA3E0FF7C007D0A12830B
:1026A40008AA06AB0790C6E7E0FEA3E0FF7D64122C
:1026B4008308EF2BFFEE3AFE90C6EBE0FCA3E0FDAF
:1026C4002FFFEC3E90C882F0A3EFF090C882E0FEAA
:1026D400A3E0FFD39432EE94005025EF9400EE94DF
:1026E40000401D90C781ECF0A3EDF07B017AC67920
:1026F400EB90C8ABE4F0A304F07F207E25022FD337
:1027040090C880E0FFA3E090C6EBCFF0A3EFF07B8E
:10271400017AC679EB90C8ABE4F0A304F07F207E85
:1027240025022FD390C7CBE0FF90C756E06F60031C
:102734000228C690C6E2E0600302281290C7A0E017
:10274400FEA3E0FF90C880EEF0A3EFF0643B4E7070
:102754001D90C747E07002A3E06003E4801C90C7AB
:10276400A1E004F0702A90C7A0E004F0802290C792
:10277400A0E07004A3E0643C700890C7A0F0A3F04C
:10278400800E90C7A1E004F0700690C7A0E004F0AA
:1027940090C7A0E0FEA3E0FF7C007D3C128308907C
:1027A400C748E02FFF90C747E03E90C882F0A3EFF0
:1027B400F090C867E0FEA3E0FF90C882E0FCA3E0CD
:1027C400FDD39FEC9E502390C865E0FEA3E0FFED8F
:1027D4009FEC9E40157B017AC779A090C8ABE4F0CA
:1027E400A304F07F707E23022FD390C880E0FFA360
:1027F400E090C7A0CFF0A3EFF07B017AC779A09057
:10280400C8ABE4F0A304F07F707E23022FD390C6FC
:10281400E2E06401600302316290C747E0FEA3E096
:10282400FF90C880EEF0A3EFF0643B4E700890C7B1
:1028340047F0A3F0800E90C748E004F0700690C7FC
:1028440047E004F090C7A0E0FEA3E0FF7C007D3CDD
:1028540012830890C748E02FFF90C747E03E90C816
:1028640082F0A3EFF090C867E0FEA3E0FF90C88277
:10287400E0FCA3E0FDD39FEC9E502390C865E0FEEE
:10288400A3E0FFED9FEC9E40157B017AC77947904A
:10289400C8ABE4F0A304F07F807E23022FD390C85A
:1028A40080E0FFA3E090C747CFF0A3EFF07B017A6D
:1028B400C7794790C8ABE4F0A304F07F807E23027D
:1028C4002FD390C7ADE0FF90C756E0B5073990C845
:1028D40075E0FEA3E0FFC390C770E09F90C76FE070
:1028E4009E4003023162A3E004F0700690C76FE0DB
:1028F40004F07B017AC7796F90C8ABE4F0A304F0CD
:102904007F007E24022FD390C74EE0FF90C756E08D
:102914006F600302316290C6E6E064016003022B3B
:102924008A90C6E2E060030229F090C7B2E0FEA3F9
:10293400E0FF90C880EEF0A3EFF064094E601090C1
:10294400C7B3E004F0700F90C7B2E004F08007E46E
:1029540090C7B2F0A3F090C753E0FEA3E0FF7C0061
:102964007D0A128308AA06AB0790C787E0FEA3E09E
:10297400FF7D64128308EF2BFFEE3AFE90C7B3E0AD
:102984002FFF90C7B2E03E90C882F0A3EFF090C84A
:1029940061E0FEA3E0FF90C882E0FCA3E0FDD39FCA
:1029A400EC9E502490C85EE0FEA3E0FFC3ED9FECD4
:1029B4009E40157B017AC779B290C8ABE4F0A304BA
:1029C400F07F307E20022FD390C880E0FFA3E090F8
:1029D400C7B2CFF0A3EFF07B017AC779B290C8AB4E
:1029E400E4F0A304F07F307E20022FD390C6E2E00F
:1029F40064016003022ABD90C753E0FEA3E0FF9088
:102A0400C880EEF0A3EFF064094E601090C754E064
:102A140004F0700F90C753E004F08007E490C753AC
:102A2400F0A3F090C753E0FEA3E0FF7C007D0A1200
:102A34008308AA06AB0790C787E0FEA3E0FF7D6486
:102A4400128308EF2BFFEE3AFE90C7B3E02FFF90FE
:102A5400C7B2E03E90C882F0A3EFF090C861E0FEF8
:102A6400A3E0FF90C882E0FCA3E0FDD39FEC9E505E
:102A74002490C85EE0FEA3E0FFC3ED9FEC9E4015EA
:102A84007B017AC7795390C8ABE4F0A304F07F10BC
:102A94007E20022FD390C880E0FFA3E090C753CFDD
:102AA400F0A3EFF07B017AC7795390C8ABE4F0A3AD
:102AB40004F07F107E20022FD390C6E2E06402600F
:102AC4000302316290C787E0FEA3E0FF90C880EE66
:102AD400F0A3EFF064024E601090C788E004F07039
:102AE4000F90C787E004F08007E490C787F0A3F055
:102AF40090C753E0FEA3E0FF7C007D0A128308AA7E
:102B040006AB0790C787E0FEA3E0FF7D641283084D
:102B1400EF2BFFEE3AFE90C7B3E02FFF90C7B2E071
:102B24003E90C882F0A3EFF090C861E0FEA3E0FFFE
:102B340090C882E0FCA3E0FDD39FEC9E502490C893
:102B44005EE0FEA3E0FFC3ED9FEC9E40157B017A9F
:102B5400C7798790C8ABE4F0A304F07F007E20021D
:102B64002FD390C880E0FFA3E090C787CFF0A3EFF6
:102B7400F07B017AC7798790C8ABE4F0A304F07FB7
:102B8400007E20022FD390C6E6E0B4023A90C875C6
:102B9400E0FEA3E0FF90C76FE06E7003A3E06F70E8
:102BA4000302316290C770E004F0700690C76FE0D2
:102BB40004F07B017AC7796F90C8ABE4F0A304F00A
:102BC4007F507E20022FD390C6E6E06403600302A8
:102BD4002E3B90C6E2E06003022CA190C7A2E0FE67
:102BE400A3E0FF90C880EEF0A3EFF064094E6010FC
:102BF40090C7A3E004F0700F90C7A2E004F0800730
:102C0400E490C7A2F0A3F090C7D6E0FEA3E0FF7C57
:102C1400007D0A128308AA06AB0790C768E0FEA3EA
:102C2400E0FF7D64128308EF2BFFEE3AFE90C7A30A
:102C3400E02FFF90C7A2E03E90C882F0A3EFF0908F
:102C4400C859E0FEA3E0FF90C882E0FCA3E0FDD3F6
:102C54009FEC9E502490C856E0FEA3E0FFC3ED9F76
:102C6400EC9E40157B017AC779A290C8ABE4F0A32F
:102C740004F07F807E20022FD390C880E0FFA3E081
:102C840090C7A2CFF0A3EFF07B017AC779A290C8D6
:102C9400ABE4F0A304F07F807E20022FD390C6E241
:102CA400E064016003022D6E90C7D6E0FEA3E0FF4E
:102CB40090C880EEF0A3EFF064094E601090C7D77F
:102CC400E004F0700F90C7D6E004F08007E490C7EA
:102CD400D6F0A3F090C7D6E0FEA3E0FF7C007D0A07
:102CE400128308AA06AB0790C768E0FEA3E0FF7D45
:102CF40064128308EF2BFFEE3AFE90C7A3E02FFF88
:102D040090C7A2E03E90C882F0A3EFF090C859E0CB
:102D1400FEA3E0FF90C882E0FCA3E0FDD39FEC9EFD
:102D2400502490C856E0FEA3E0FFC3ED9FEC9E4004
:102D3400157B017AC779D690C8ABE4F0A304F07F81
:102D4400707E20022FD390C880E0FFA3E090C7D606
:102D5400CFF0A3EFF07B017AC779D690C8ABE4F04B
:102D6400A304F07F707E20022FD390C6E2E06402B9
:102D7400600302316290C768E0FEA3E0FF90C88060
:102D8400EEF0A3EFF064024E601090C769E004F027
:102D9400700F90C768E004F08007E490C768F0A360
:102DA400F090C7D6E0FEA3E0FF7C007D0A12830802
:102DB400AA06AB0790C768E0FEA3E0FF7D64128318
:102DC40008EF2BFFEE3AFE90C7A3E02FFF90C7A2B7
:102DD400E03E90C882F0A3EFF090C859E0FEA3E073
:102DE400FF90C882E0FCA3E0FDD39FEC9E502490AA
:102DF400C856E0FEA3E0FFC3ED9FEC9E40157B01A7
:102E04007AC7796890C8ABE4F0A304F07F607E20B1
:102E1400022FD390C880E0FFA3E090C768CFF0A34F
:102E2400EFF07B017AC7796890C8ABE4F0A304F0B3
:102E34007F607E20022FD390C6E6E0640460030224
:102E4400316290C6E2E06003022F2290C7A0E0FE48
:102E5400A3E0FF90C880EEF0A3EFF0643B4E701D3A
:102E640090C747E07002A3E06003E4801C90C7A110
:102E7400E004F0702A90C7A0E004F0802290C7A07C
:102E8400E07004A3E0643C700890C7A0F0A3F08055
:102E94000E90C7A1E004F0700690C7A0E004F09083
:102EA400C7A0E0FEA3E0FF7C007D3C12830890C72E
:102EB40048E02FFF90C747E03E90C882F0A3EFF0B0
:102EC40090C867E0FEA3E0FF90C882E0FCA3E0FDA9
:102ED400D39FEC9E502490C865E0FEA3E0FFC3EDB1
:102EE4009FEC9E40157B017AC779A090C8ABE4F0B3
:102EF400A304F07F107E21022FD390C880E0FFA3AB
:102F0400E090C7A0CFF0A3EFF07B017AC779A0903F
:102F1400C8ABE4F0A304F07F107E21022FD390C647
:102F2400E2E06401600302316290C747E0FEA3E07F
:102F3400FF90C880EEF0A3EFF0643B4E700890C79A
:102F440047F0A3F0800E90C748E004F0700690C7E5
:102F540047E004F090C7A0E0FEA3E0FF7C007D3CC6
:102F640012830890C748E02FFF90C747E03E90C8FF
:102F740082F0A3EFF090C867E0FEA3E0FF90C88260
:102F8400E0FCA3E0FDD39FEC9E502390C865E0FED7
:102F9400A3E0FFC3ED9FEC9E40147B017AC7794701
:102FA40090C8ABE4F0A304F07F307E21802190C868
:102FB40080E0FFA3E090C747CFF0A3EFF07B017A56
:102FC400C7794790C8ABE4F0A304F07F307E2112A8
:102FD40099FE02316290C6E5E06401702A90C74E02
:102FE400E0FF90C756E06F600302316212BE0690A4
:102FF400C6E6E0B404057401F0800690C6E6E00479
:10300400F012B6C502316290C7B8E0FF90C756E02F
:10301400FEC39F501490C7B0E0FFEEC39F400A90D8
:10302400C756E004F0E0FF801590C7B8E0FF90C7F2
:1030340056E0B5070F90C7B0E0FF90C756F012C432
:10304400E002316290C6E3E06401702790C79EE01D
:10305400FF90C756E0B50702802D90C789E0FF9026
:10306400C756E0B5070590C761803890C756E0049D
:10307400F0803090C6E4E06401703090C773E0FFE4
:1030840090C756E0B5070590C789801790C789E0B7
:10309400FF90C756E0B5070590C755800690C75600
:1030A400E004F0E0FF12C9DA02316290C76CE0FF7D
:1030B40090C756E0B5070A7F027E0012C62502318A
:1030C4006290C75DE0FF90C756E0B5070E90C87EDA
:1030D400E0FEA3E0FF127CB402316290C7A4E0FFDB
:1030E40090C756E0B5070D90C87EE0FEA3E0FF123E
:1030F400A6F4806A90C7AFE0FF90C756E0B5070D0D
:1031040090C87EE0FEA3E0FF12A9F9805190C79D0C
:10311400E0FF90C756E0B5070D90C87EE0FEA3E03F
:10312400FF12BDAE803890C7D5E0FF90C756E0FED1
:103134006F602B90C774E0B5060D90C87EE0FEA3C7
:10314400E0FF12AFDA801790C74BE0FF90C756E05C
:10315400B5070B90C87EE0FEA3E0FF1271E790C6AE
:10316400E07401F07D1E7C00E4FF02C6D590C6ED3C
:10317400E07004A3E0640160030234DD90C74EE014
:10318400FF90C756E06F600302330990C6E6E0641F
:1031940001702990C6E2E004F0E06403700F12B7F6
:1031A400D790C6E6E0FF7E007D6402330490C6E655
:1031B400E0FF7E0090C6E2E0FD02330490C6E6E044
:1031C400B40221E490C6EDF0A3F090C6E2F090C7FB
:1031D4006FE0FCA3E0FD7F047E8112B8257F537E5F
:1031E4001002C7E290C6E6E06403706C90C6E2E0A9
:1031F40004F0E06403705290C6EDF0A3F090C6E2D0
:10320400F090C7D6E0FEA3E0FF7C007D0A1283089D
:10321400AA06AB0790C768E0FEA3E0FF7D641283B3
:1032240008EF2BFFEE3AFE90C7A3E02FFF90C7A252
:10323400E03E90C882F0A3EFF07F0212B81B90C664
:10324400E6E0FF7E007D64800C90C6E6E0FF7E0031
:1032540090C6E2E0FD02330490C6E6E06404600335
:10326400023B9890C6E2E004F0E06402600302329C
:10327400F890C6EDF0A3F090C6E2F07B017AC7792E
:10328400A090C8A7F0A304F07F107E211294D97BEC
:10329400017AC7794790C8A7E4F0A304F07F307E91
:1032A400211294D990C7A0E0FEA3E0FF7C007D3CEE
:1032B40012830890C748E02FFF90C747E03E90C8AC
:1032C40082F0A3EFF07B017AC7794790C8ABE4F0B2
:1032D400A304F07F307E211299FE90C882E0FCA303
:1032E400E0FD7F067E8112B82590C6E6E0FF7E00F1
:1032F4007D64800C90C6E6E0FF7E0090C6E2E0FDAF
:103304007C00023A4190C6E2E004F090C756E0FF28
:103314007E0090C6E2E0FD7C0012867390C7D0E088
:10332400FF90C756E06F701190C6E2E06404700924
:1033340012B7D790C761023A0E90C7D8E0FF90C782
:1033440056E06F704890C6E2E06403704090C6EDAA
:10335400F0A3F090C6E2F090C7D9E0FEA3E0FF7CB2
:10336400007D0A12830890C7A6E02FFF90C7A5E04E
:103374003E90C882F0A3EFF090C882E0FCA3E0FD89
:103384007F087E8112B82590C767023A0E90C75F06
:10339400E0FF90C756E06F705F90C6E2E06404708F
:1033A4005790C6EDF0A3F090C6E2F090C7D6E0FEC9
:1033B400A3E0FF7C007D0A128308AA06AB0790C72E
:1033C40068E0FEA3E0FF7D64128308EF2BFFEE3A72
:1033D400FE90C7A3E02FFF90C7A2E03E90C882F002
:1033E400A3EFF090C882E0FCA3E0FD7F027E81128F
:1033F400B82590C79E023A0E90C7B9E0FF90C75611
:10340400E06F704890C6E2E06403704090C6EDF04F
:10341400A3F090C6E2F090C7CCE0FEA3E0FF7C00EE
:103424007D0A12830890C776E02FFF90C775E03EAF
:1034340090C882F0A3EFF090C882E0FCA3E0FD7F87
:103444000A7E8112B82590C755023A0E90C7CFE084
:10345400FF90C756E06F704890C6E2E06403704086
:1034640090C6EDF0A3F090C6E2F090C7A0E0FEA3F2
:10347400E0FF7C007D3C12830890C748E02FFF905A
:10348400C747E03E90C882F0A3EFF090C882E0FC0A
:10349400A3E0FD7F067E8112B82590C760023A0E34
:1034A40090C752E0FF90C756E06F6003023B9890CC
:1034B400C6E2E064026003023B9890C6EDF0A3F01C
:1034C40090C6E2F090C76FE0FCA3E0FD7F047E812C
:1034D40012B82590C773023A0E90C7B0E0FF90C7A8
:1034E40056E06F60030236E07B017AC8798290C8A7
:1034F400A7F0A304F07F007E811294D990C882E0E3
:10350400FAA3E0FB7C007D64FFAE0212831A90C72D
:1035140087EEF0A3EFF07C007D0AAF03AE021283C6
:103524001A7C007D0A12831A90C753ECF0A3EDF0C5
:1035340090C882E0FEA3E0FF7C007D0A12831A900B
:10354400C7B2ECF0A3EDF07B017AC7798790C8ABE2
:10355400E4F0A304F07F007E201299FE7B017AC779
:10356400795390C8ABE4F0A304F07F107E20129945
:10357400FE7B017AC779B290C8ABE4F0A304F07F74
:10358400307E201299FE7B017AC8798290C8A7E424
:10359400F0A304F07F027E811294D990C882E0FAED
:1035A400A3E0FB7C007D64FFAE0212831A90C7681F
:1035B400EEF0A3EFF07C007D0AAF03AE0212831A93
:1035C4007C007D0A12831A90C7D6ECF0A3EDF0902C
:1035D400C882E0FEA3E0FF7C007D0A12831A90C734
:1035E400A2ECF0A3EDF07B017AC7796890C8ABE454
:1035F400F0A304F07F607E201299FE7B017AC779E4
:10360400D690C8ABE4F0A304F07F707E201299FE3C
:103614007B017AC779A290C8ABE4F0A304F07F8061
:103624007E201299FE7B017AC8798290C8A7E4F0C3
:10363400A37402F07F067E811294D990C882E0FAC6
:10364400A3E0FB7C007D3CFFAE0212831A90C7A06E
:10365400EEF0A3EFF07C007D3CAF03AE0212831AC0
:1036640090C747ECF0A3EDF07B017AC779A090C82E
:10367400ABE4F0A37402F07F107E211299FE7B016B
:103684007AC7794790C8ABE4F0A37402F07F207E38
:10369400211299FE7B017AC7796F90C8A7E4F0A341
:1036A4007402F07F047E811294D97B017AC7796F0A
:1036B40090C8ABE4F0A37402F07F507E201299FE10
:1036C400E490C882F0A3F090C6E604F012B6C89065
:1036D400C74E12C4DA90C6E57401F02290C7B1E077
:1036E400FF90C756E0B5071290C6E37401F090C787
:1036F40061E0FF90C756F002C4E090C7B4E0FF90C9
:10370400C756E0B5070C90C6E47401F090C75502A3
:103714003A0E90C7B5E0FF90C756E0B5072190C6B2
:10372400EDE4F0A304F07F737E1312C7FD7F837E64
:103734001312C7C77E2312C73690C7CB023A0E9026
:10374400C7B6E0FF90C756E06F704790C6EDF0A390
:1037540004F0FB7AC7796F90C8A7E4F0A304F07F64
:10376400047E811294D97B017AC7796F90C8ABE447
:10377400F0A304F07F007E241299FE7F037E1412CE
:10378400C7FDE4FDFC7F107E2412C73B90C7AD0249
:103794003A0E90C7B7E0FF90C756E06F6003023857
:1037A4005590C884E07004A3E06401700590C75E7E
:1037B400802590C886E07004A3E06401700590C77A
:1037C40057801490C88AE07004A3E06401700590E7
:1037D400C751800390C75EE0FF12C9DA90C7D4E0F6
:1037E4006003023B987B017AC8798290C8A7F0A352
:1037F4007402F07F067E811294D990C882E0FAA305
:10380400E0FB7C007D3CFFAE0212831A90C7A0EE61
:10381400F0A3EFF07C007D3CAF03AE0212831A905C
:10382400C747ECF0A3EDF07B017AC779A090C8AB51
:10383400E4F0A304F07F107E211299FE7B017AC785
:10384400794790C8ABE4F0A304F07F307E2102995D
:10385400FE90C7B8E0FF90C756E0B5070990C76C63
:1038640012C4DA023B9D90C761E0FF90C756E06F37
:10387400705890C6EDF0A304F0FB7AC7798790C81E
:10388400ABE4F0A304F07F507E211299FE7B017A11
:10389400C7795390C8ABE4F0A304F07F607E211293
:1038A40099FE7B017AC779B290C8ABE4F0A304F027
:1038B4007F707E211299FE128669E4FDFC7F807E72
:1038C4002112C73B90C7D0023A0E90C767E0FF9021
:1038D400C756E06F704390C6EDF0A304F0FB7AC7BF
:1038E40079D990C8ABE4F0A304F07F907E211299BB
:1038F400FE7B017AC779A590C8ABE4F0A304F07FFE
:10390400007E221299FE128669E4FDFC7F107E225D
:1039140012C73B90C7D8023A0E90C79EE0FF90C7EB
:1039240056E0B5070690C75F023A0E90C755E0FF10
:10393400A3E06F705390C6EDF0A304F0FB7AC7794F
:103944006890C8ABE4F0A304F07F607E221299FE75
:103954007B017AC779D690C8ABE4F0A304F07F70FA
:103964007E221299FE7B017AC779A290C8ABE4F05B
:10397400A304F07F807E221299FE1286697E2212B1
:10398400C73690C7B9023A0E90C760E0FF90C75699
:10399400E06F704290C6EDF0A304F0FB7AC779CCD7
:1039A40090C8ABE4F0A304F07F007E231299FE7B61
:1039B400017AC7797590C8ABE4F0A304F07F107E58
:1039C400231299FE128669E4FDFC7F207E2312C730
:1039D4003B90C7CF803490C773E0FF90C756E0B5E3
:1039E400070690C752023ADE90C789E0FF90C75697
:1039F400E0B5071990C6E3E0B40107E4F090C7B15D
:103A04008008E490C6E4F090C7B4023ADE90C75E42
:103A1400E0FF90C756E0B5070690C7B7023ADE90BC
:103A2400C74EE0FF90C756E0B5071590C6EDE4F029
:103A3400A304F090C6E6E0FF7E00E4FDFC02A5D5F9
:103A440090C76CE0FF90C756E0B5070302A9009049
:103A5400C75DE0FF90C756E0B5070B90C87EE0FE57
:103A6400A3E0FF027CB490C7A4E0FF90C756E0B582
:103A74000703026C7090C7AFE0FF90C756E0B5072C
:103A84000B90C87EE0FEA3E0FF02A9F990C79DE079
:103A9400FF90C756E0B5070B90C87EE0FEA3E0FF99
:103AA40002BDAE90C7D5E0FF90C756E0B5070590BC
:103AB400C7B8802690C774E0FF90C756E0B5070BDF
:103AC40090C87EE0FEA3E0FF02AFDA90C7CEE0FF2D
:103AD40090C756E0B5070890C7B8E0FF02C9DA906E
:103AE400C74BE0FF90C756E06F6003023B9890C855
:103AF4007EE0FEA3E0FF0271E790C75DE0FF90C7A0
:103B040056E0FE6F603F90C7A4E0FFEE6F60369012
:103B1400C7AFE0FFEE6F602D90C79DE0FFEE6F60D2
:103B24002490C7D5E0FFEE6F601B90C774E0FFEEF2
:103B34006F601290C7CEE0FFEE6F600990C74BE054
:103B4400FFEEB5070590C76C800F90C76CE0FF903F
:103B5400C756E0B5070A90C7B8E0FF12C9DA802F4C
:103B640090C74EE0FF90C756E0B5072390C6EDE03E
:103B74007002A3E0701990C6E5F090C6EDF0A3F0D2
:103B840090C6E6F090C7B0E0FF12C9DA12BE06E4B0
:043B940090C79FF047
:013B9800220A
:1058D80041C5740041C5770042C575000047C56DD4
:0758E80018091203091E005C
:10C49D007B017AC5796D90C8ABE4F0A37404F07F8D
:10C4AD00107E001299FE90C9287410F0A3E4F0A339
:10C4BD00F0A3F0FFFEFDFC12B2A27B017AC57978E4
:0DC4CD00E490C8A7F0A3F0FF7E100294D900
:109EB0007F007E2012000090C574EFF090C577E01F
:109EC0006F700302A03390C574E090C577F0700303
:109ED00002A03390C576E004F0700690C575E004EA
:109EE000F090C575E07004A3E0641E700690C5751F
:109EF000F0A3F07B017AC9794C90C8A7E4F0A37471
:109F000004F07F107E001294D990C575E0FEA3E0A6
:109F1000FF90C57875F00C1285E6EE75F00CA4255F
:109F200083F583E4F0A3745AF090C575E0FCA3E0D8
:109F3000FD90C575E0FAA3E0FB90C57A75F00CEFD3
:109F40001285E6EE75F00CA42583F583ECF0A3ED05
:109F5000F090C94CE0FF90C57C75F00CEB1285E6E3
:109F6000EA75F00CA42583F583EFF090C94DE0FF6E
:109F700090C57D75F00CEB1285E6EA75F00CA42512
:109F800083F583EFF090C94EE0FF90C57E75F00C2D
:109F9000EB1285E6EA75F00CA42583F583EFF090CB
:109FA000C950E0FF90C57F75F00CEB1285E6EA75AD
:109FB000F00CA42583F583EFF090C951E0FF90C524
:109FC0008075F00CEB1285E6EA75F00CA42583F59C
