:03000000026B8B05
:0800F800FFFF4457494E543547
:106B8B00759401759502758E0075930075C87075B7
:106B9B00C96075F80075F90175A80075B800759A8C
:106BAB000075A90075B90053D0E7787FE4F6D8FDDE
:106BBB009080007F007E80E4F0A3DFFCDEFA75811D
:046BCB001B026C0A33
:1058460090C7ACEEF0A3EFF0A3EBF0A3EAF0A3E968
:01585600F061
:10585700E490C7B3F0A3F0A3F0A3F0A3F0A3F0A3E1
:10586700F0A3F090C7B1E0FAA3E0FB4A7003025A35
:105877000590C7ACE0FEA3E0FFC3E49FFFE49EFEF4
:10588700E4FCFD90C7BB124C3EAF03AE02E4FCFD47
:1058970090C7BBE0F8A3E0F9A3E0FAA3E0FBC312CB
:1058A7004C07501190C7BBA3A3E0FFA3E090C7B17B
:1058B700CFF0A3EFF090C7ACE0FCA3E0FDECC3137F
:1058C700FFED1390C7B3CFF0A3EFF0ED5401FFA3A3
:1058D700E4F0A3EFF0C2AFE4F5F190C7B3E0FCA3A7
:1058E700E0FDECF5F28DF375F40175F8AF30FCFDD2
:1058F70090C7B5E07002A3E0603DD2FE20FEFD90A8
:10590700C7AEE0FBA3E475F001124A69A9F0FAE516
:10591700FC1249B890C7AEE0FBA3E475F001124A48
:1059270069A9F0FAE5FD1249B890C7B2E024FFF083
:1059370090C7B1E034FFF090C7B1E0FCA3E0FDEC05
:10594700C313FFED1390C7B7CFF0A3EFF0ED5401EA
:10595700FFA3E4F0A3EFF090C7B774FFF5F0124A86
:105967006945F0605BD2FE20FEFD90C7AEE0FBA369
:10597700E475F001124A69A9F0FAE5FA1249B890FC
:10598700C7AEE0FBA3E475F001124A69A9F0FAE596
:10599700FB1249B890C7AEE0FBA3E475F001124AC9
:1059A70069A9F0FAE5FC1249B890C7AEE0FBA3E499
:1059B70075F001124A69A9F0FAE5FD1249B8809716
:1059C70090C7B9E07002A3E0602FD2FE20FEFD90E1
:1059D700C7AEE0FBA3E475F001124A69A9F0FAE546
:1059E700FA1249B890C7AEE0FBA3E475F001124A7A
:0E59F70069A9F0FAE5FB1249B8E4F5F8D2AF61
:015A0500227E
:105EFF0090C7B0EEF0A3EFF0A3EBF0A3EAF0A3E9A5
:015F0F00F0A1
:105F1000E490C7B7F0A3F0A3F0A3F0A3F0A3F09030
:105F2000C7B5E07002A3E0700302609190C7B0E0D3
:105F3000FEA3E0FFC3E49FFFE49EFED390C7B6E05C
:105F40009F90C7B5E09E4005EEF0A3EFF090C7B07C
:105F5000E0FAA3E0FBEAC313FCEB13FDEB5401FFF3
:105F600090C7B7E4F0A3EFF0C2AFE4F5F1ECF5F2BF
:105F7000AF058FF375F40175F88330FCFD90C7B75A
:105F8000E07002A3E0603D90C7B2E0FBA3E475F0CF
:105F900001124A69A9F0FA124972F5FC90C7B2E001
:105FA000FBA3E475F001124A69A9F0FA124972F5EF
:105FB000FDD2FE20FEFD90C7B6E024FFF090C7B5ED
:105FC000E034FFF090C7B5E0FCA3E0FDECC313FFA5
:105FD000ED1390C7B9CFF0A3EFF0ED5401FFA3E4A8
:105FE000F0A3EFF075F88F90C7B974FFF5F0124A7F
:105FF0006945F0605B90C7B2E0FBA3E475F0011265
:106000004A69A9F0FA124972F5FA90C7B2E0FBA307
:10601000E475F001124A69A9F0FA124972F5FB9091
:10602000C7B2E0FBA3E475F001124A69A9F0FA12C5
:106030004972F5FC90C7B2E0FBA3E475F001124A87
:1060400069A9F0FA124972F5FDD2FE30FE9980FB83
:1060500090C7BBE07002A3E0603275F88C90C7B2C5
:10606000E0FBA3E475F001124A69A9F0FA12497243
:10607000F5FA90C7B2E0FBA3E475F001124A69A9F2
:10608000F0FA124972F5FBD2FE20FEFDE4F5F8D2DB
:01609000AF60
:0160910022EC
:1063A90090C8C2EEF0A3EFF0A3EBF0A3EAF0A3E9E3
:0163B900F0F3
:1063BA00A3E0FEA3E0FF4E700302652290C8C2E08C
:1063CA00FCA3E0FDC3E49DFDE49CFCD3EF9DEE9CA1
:1063DA00400AAF0590C8C7ECF0A3EFF090C8C2E03E
:1063EA00FCA3E0FDECC313FEED13FBAA06ED54017A
:1063FA00FDC2AFE4F5F1EAF5F2AF038FF375F401EC
:10640A0075F88330FCFDED604FC390C8C8E0940274
:10641A0090C8C7E09400500302651D90C8C4E0FB11
:10642A00A3E475F001124A69A9F0FA124972F5FC5F
:10643A0090C8C4E0FBA3E475F001124A69A9F0FA16
:10644A00124972F5FDD2FE20FEFD90C8C8E024FE76
:10645A00F090C8C7E034FFF090C8C7E0FEA3E07828
:10646A0002CEC313CE13D8F9FF75F88FEF1FAC060F
:10647A0070011E4C605B90C8C4E0FBA3E475F00198
:10648A00124A69A9F0FA124972F5FA90C8C4E0FBF7
:10649A00A3E475F001124A69A9F0FA124972F5FBF0
:1064AA0090C8C4E0FBA3E475F001124A69A9F0FAA6
:1064BA00124972F5FC90C8C4E0FBA3E475F001121E
:1064CA004A69A9F0FA124972F5FDD2FE30FE9D80A2
:1064DA00FB90C8C8E030E1047F0180027F00EF60D2
:1064EA003275F88C90C8C4E0FBA3E475F001124A37
:1064FA0069A9F0FA124972F5FA90C8C4E0FBA3E45C
:10650A0075F001124A69A9F0FA124972F5FBD2FE36
:08651A0020FEFDE4F5F8D2AF0C
:016522002256
:10845500EC90C8FEF0EDA3F07B017AC879FE90C8D8
:0A846500C7E4F0A37402F00263A95B
:10851E00EF4E6010E4FD0DEDC3943240F9EF1F7085
:04852E00EF1E80ECD0
:018532002226
:08747B0090C8D0EEF0A3EFF081
:10748300A3745AF0A37401F090C8D0E0FCA3E0FD0C
:10749300EC90C8D4F0A3EDF07B017AC879D290C701
:1074A300B5E4F0A37402F07F847E00125EFF7FF4E4
:1074B3007E0112851E7B017AC879D290C7B1E4F0B0
:1074C300A37402F07F147E0012584690C8D0E0FEE9
:1074D300A3E0FFA3E0B506D6A3E0B507D1E490C8C7
:1074E300D2F0A3F0A3F0A3F07B017AC879D290C7BE
:0D74F300B5F0A37402F07F167E00025EFF6C
:087D670090C78FEEF0A3EFF0CE
:107D6F00E4A3F0A3F090C78FE0FEA3E0FFC390C79A
:107D7F0092E09F90C791E09E5025E4FBFA7F017E31
:107D8F000012851E0BBB00010ABA01F1BB2CEE904D
:0F7D9F00C792E004F070CE90C791E004F080C668
:017DAE0022B2
:107DAF00EF14601814602314602E240370397401CB
:107DBF00A805088002C333D8FC42B7227401A80576
:107DCF00088002C333D8FC42BC227401A805088086
:107DDF0002C333D8FC42BD22AF057401A807088047
:087DEF0002C333D8FC42BE229E
:107C8700EF1460191460251460312403703D7401EA
:107C9700A805088002C333D8FCF452B7227401A8A0
:107CA70005088002C333D8FCF452BC227401A8052E
:107CB700088002C333D8FCF452BD22AF057401A873
:0C7CC70007088002C333D8FCF452BE2230
:1071B000EF14602D14604A146067240360030272A8
:1071C00042EB600E7401A805088002C333D8FC426C
:1071D00080227401A805088002C333D8FCF45280D1
:1071E00022EB600E7401A805088002C333D8FC426C
:1071F00090227401A805088002C333D8FCF4529091
:1072000022EB600E7401A805088002C333D8FC424B
:10721000A0227401A805088002C333D8FCF452A050
:1072200022EB600E7401A805088002C333D8FC422B
:10723000B022AF057401A807088002C333D8FCF45C
:0372400052B02227
:107A9C00EF14601A146027146034240370427401CC
:107AAC00A805088002C333D8FC5580FE80347401CD
:107ABC00A805088002C333D8FC5590FE80247401BD
:107ACC00A805088002C333D8FC55A0FE8014AF056E
:107ADC007401A807088002C333D8FC55B0FE80029D
:047AEC00E4FEAF06FF
:017AF0002273
:10832000758911E4F58CF58AC28CF518F51A438924
:0E83300001758CBC758ACDD2A9D2AFD28C2239
:03000B0002757605
:0D757600C0E0C0D075D000C000C006C00746
:10758300C2AF758CBC758ACD0519751B0074017E5D
:1075930000A81B088005C333CE33CED8F9FFEF55BF
:1075A3001A602DE51B25E02408F808E6161870017B
:1075B30016E51B25E02408F8E6FE08E64E7011AF39
:1075C3001B04A807088002C333D8FC4218F4521ADC
:0975D300051BE51BB408B6D2AF9C
:0B75DC00D007D006D000D0D0D0E032A5
:10846F00758911E4F58DF58BC28ED2AF43891075E6
:0A847F008DBC758BCDD2ABD28E22DE
:03001B000285BAA1
:0D85BA00C2AF758DBC758BCDB290D2AF32C3
:10855D0075C8F075CD58E4F5CC75CB58F5CA43C840
:04856D0001D2AD2268
:03002B000285D378
:0985D300C2AFC2C6B291D2AF32B0
:1082DF00C2AF7401A807088002C333D8FCFE421A4C
:1082EF00EF25E02408F8A60408A605EEF45218D2EC
:0282FF00AF22AC
:10853300C2AF7401A807088002C333D8FCF4521AEF
:058543005218D2AF2226
:10858500C2AF7401A807088002C333D8FC5518FF91
:02859500D2AF63
:0185970022C1
:107BEB00AB07AA06A905A8047F007E387D317C006F
:107BFB00124B75C3E49F90C78EF074049E90C78D93
:107C0B00F043C9407D04E4FF127DAF7D05E4FF1214
:107C1B007C8743803075D88075985090C78DE0FC79
:0D7C2B00A3E0FDECF5BA8DAA43A810D2AC81
:017C38002229
:107D1E00AB07AA06A905A8047F007E707D627C00D1
:107D2E00124B75C3E49F90C78EF074049E90C78D5E
:107D3E00F043C9207D06E4FF127DAF7D07E4FF12FC
:107D4E007C874380C0759B9090C78DE0FCA3E0FDBF
:087D5E00ECF5BB8D9D439A0179
:017D660022FA
:107FDB00759680759780AB07AA06A905A8047F0044
:107FEB007EC07D897C01124B75AD07AC06ECF5D9D3
:107FFB00AF058FE743B80CE4909812F0A3F0A3F011
:10800B00A3F090981AF0909816F0A3F0A3F0A3F0B9
:01801B002242
:1082940075A78075AB80AB07AA06A905A8047F0063
:1082A4007EC07D897C01124B75AD07AC06ECF5AE42
:0782B400AF058FAF43B830A6
:0182BB0022A0
:107B4600EF14601B1460291460372403704490C737
:107B560089E0FCA3E0FDA3E0FEA3E0FF027BEB903F
:107B6600C789E0FCA3E0FDA3E0FEA3E0FF027D1EC3
:107B760090C789E0FCA3E0FDA3E0FEA3E0FF027F3F
:107B8600DB90C789E0FCA3E0FDA3E0FEA3E0FF12C3
:037B9600829422B4
:105A060090C788EFF0A3ECF0A3EDF0A3EBF0A3EAC8
:045A1600F0A3E9F020
:105A1A00C2AFE4A3F0A3F090C789E0FEA3E0FFC3FE
:105A2A0090C78FE09F90C78EE09E4003025ADE9097
:105A3A00C78BE0FBA3E475F001124A69A9F0FA12D8
:105A4A004972FF90C788E0FE75F009A42400F58228
:105A5A00E5F03488F583EE75F008A42583F583E034
:105A6A00FCA3E0FD75F009EEA42400F582E5F0340C
:105A7A0080F583EE75F008A42583F583E5822DF57C
:105A8A0082E5833CF583EFF075F009EEA42400F576
:105A9A0082E5F03488F583EE75F008A42583F58352
:105AAA00E475F001124A5375F009EEA42400F58258
:105ABA00E5F03488F583EE75F008A42583F583E0D4
:105ACA005403F090C78FE004F0700690C78EE0048C
:105ADA00F0025A2190C788E0146042146070147072
:105AEA0003025B8624036003025BB6908808E060C9
:105AFA0003025BB604F0908802E0FEA3E02400F5FE
:105B0A008274803EF583E0F599908803E004F07092
:105B1A0006908802E004F0908802025BB29090112D
:105B2A00E06003025BB604F090900BE0FEA3E02471
:105B3A0009F58274883EF583E0F59C90900CE004A8
:105B4A00F0700690900BE004F090900B805A9098B9
:105B5A001AE0705804F0909814E0FEA3E02412F5BD
:105B6A008274903EF583E0F59E909815E004F070FB
:105B7A0006909814E004F0909814802C90A023E0EA
:105B8A00702A04F090A01DE0FEA3E0241BF58274A5
:105B9A00983EF583E0F5AC90A01EE004F070069004
:0E5BAA00A01DE004F090A01DE05403F0D2AF67
:015BB80022CA
:0300230002736401
:10736400C0E0C083C082C0D075D000C006C007C2D0
:10737400AF30982AC298908804E0FEA3E02400F578
:107384008274843EF583E599F0908805E004F070FA
:1073940006908804E004F0908804E05403F03099E7
:1073A4003FC299908802E0FEA3E0FF908800E06E5F
:1073B4007003A3E06F602474002FF58274803EF59F
:1073C40083E0F599908803E004F07006908802E069
:1073D40004F0908802E05403F08005908808E4F0FB
:0F73E400D2AFD007D006D0D0D082D083D0E03245
:030053000278CA66
:1078CA00C0E0C083C082C0D075D000C006C007C265
:1078DA00AF5396FE909814E0FEA3E0FF909812E052
:1078EA006E7003A3E06F602474122FF58274903EC9
:1078FA00F583E0F59E909815E004F07006909814D0
:10790A00E004F0909814E05403F0800590981AE48B
:10791A00F0D2AFD007D006D0D0D082D083D0E03218
:03005B00027DF72C
:107DF700C0E0C083C082C0D075D000C006C2AF53F8
:107E070097FE909816E0FEA3E02412F58274943E44
:107E1700F583E59FF0909817E004F07006909816A8
:107E2700E004F0909816E05403F0D2AFD006D0D01B
:077E3700D082D083D0E032BD
:0300630002792AF5
:10792A00C0E0C083C082C0D075D000C006C007C204
:10793A00AF53A7FE90A01DE0FEA3E0FF90A01BE0BE
:10794A006E7003A3E06F6024741B2FF58274983E57
:10795A00F583E0F5AC90A01EE004F0700690A01D3F
:10796A00E004F090A01DE05403F0800590A023E409
:10797A00F0D2AFD007D006D0D0D082D083D0E032B8
:03006B00027E3ED4
:107E3E00C0E0C083C082C0D075D000C006C2AF53B0
:107E4E00ABFE90A01FE0FEA3E0241BF582749C3EC7
:107E5E00F583E5ADF090A020E004F0700690A01F31
:107E6E00E004F090A01FE05403F0D2AFD006D0D0C3
:077E7E00D082D083D0E03276
:03008300027115F2
:10711500C0E0C083C082C0D075D000C006C007C221
:10712500AFE59B30E02E759B90539BFE90900DE054
:10713500FEA3E02409F582748C3EF583E59CF0906E
:10714500900EE004F0700690900DE004F090900D24
:10715500E05403F0E59B30E143759B90539BFD9014
:10716500900BE0FEA3E0FF909009E06E7003A3E0B2
:107175006F602474092FF58274883EF583E0F59CD1
:1071850090900CE004F0700690900BE004F0909065
:107195000BE05403F08005909011E4F0D2AFD007D6
:0B71A500D006D0D0D082D083D0E032E2
:108548007596807597807C00ECF5D975E7E0759E87
:048558000D53B8F314
:01855C0022FC
:0B82BC0090C7C0EBF0A3EAF0A3E9F0CC
:1082C70090C7EB7401F0A374C7F0A374C3F090C711
:0782D700EBE4F0A3F0A3F0BB
:0182DE00227D
:0285E20080FE19
:053BC80042C9000000ED
:106C4F0090C784741AF0E4A3F0A3F0A3740AF012AF
:106C5F00832012846F12567FE4FD7F02127C877DA2
:106C6F00607CEAE4FF1282DF7DF47C017F011282F7
:106C7F00DF127500D2AF90C784E0FF128116125D4C
:106C8F006B7D887C137F071282DF7B017AC7798641
:106C9F0090C7B5E4F0A304F07F007E82125EFF7B05
:106CAF00017AC7798690C7B5E4F0A304F07F007E20
:106CBF0085125EFF127F5690C900E07002A3E0704C
:106CCF00197F07128585EF601190C900E4F0A304C6
:106CDF00F0E490C784F0FF12811690C900E07002B3
:106CEF00A3E060D0127F9912773512609290C7821D
:106CFF00EEF0A3EFF0120100900000E060B6E4F0B8
:026D0F0080B250
:103BCD0041BF2E0042BB3D000041BB3A0041BA79D6
:103BDD000044BE4B00000000603ABA3D00000001F9
:103BED00000200030004000500060007000800099C
:103BFD00000A000B000C000D000E000F001000114C
:103C0D0000120013001400150016001700180019FB
:103C1D00001A001B001C42BC46000041BF4300427D
:103C2D00BAD0000042BC02000050BEBE0000000031
:103C3D0000000000000000000000000050BCEE007D
:103C4D000000000000000000000000000000005017
:103C5D00BC92000000000000000000000000000009
:103C6D00000042BF6A000042BDDD000042BBF8000B
:103C7D000042BF68000042BDC5000042BF140000F5
:103C8D0042BC8C000042BDA7000042BA7700004242
:103C9D00BC70000041BEB50042BF6C000042BAD2FC
:103CAD00000042BB3B00004ABB45C720C8000020B6
:103CBD00C138D3054CBC260049004F0020D14CC261
:103CCD00A4D2B84CBE4FACF5C7A50020CD08AE3080
:103CDD00D6544EBB8EB85CADF8002000260020C532
:103CED00D0B7EC4ABBDEC791B3D90020C2DCAC041F
:103CFD0044BB73C5B8C5B448BF1AD68CC0ACC18C13
:103D0D00AC1C4EBBEAC5D4C9C0B2C8C5B40020BAFC
:103D1D00A8B4DC4ABB30C0C1D3100020C628B3C440
:103D2D004ABF2FD558D3100020C628B3C444BF7A3C
:103D3D00C555B82548BA96C9C0C5F0C2DCAC044A11
:103D4D00BE8DC0C1D3100020D788D1304ABD3ED51D
:103D5D0058D3100020D788D13048BF60C0C1D310D0
:103D6D000020D32C48BE85D558D3100020D32C4825
:103D7D00BE97CF64D504B808C0E44ABC3CC194B822
:103D8D0008B178C774B4DC4CBD66B370C774D1305C
:103D9D00C774D130B97C52BD95CD08AE30D654D54F
:103DAD0058C2DCACA0C2B5B2C8AE4C44BF16D65595
:103DBD00C77844BF52CDE8C18C4ABA8CD65CC131AC
:103DCD000020B85CADF84ABE61C5D0B7EC0020B894
:103DDD005CADF848BEADAC00C5F4C2DCAC0442BB72
:103DED00DCD32C44BE81C601C5B446BE5BC911AD42
:103DFD006DC5B446BB3FD55CAD6DC5B44ABF56C6A7
:103E0D00A9B9ACCF54B9ACC54446BBBEACBDAE3000
:103E1D00B3C44EBE9FD30CC8FCC2DC0020C870B921
:103E2D00ACC74D4EBC62B2F9C7ACBD09B85C002041
:103E3D000032003958BC72003000330031002D00C3
:103E4D003900350033002D00340030003600334C7E
:103E5D00BF2200410044004D0049004E000058BFF4
:103E6D008A005500530045005200200053004500C4
:103E7D005400540049004E00474EBF440049004FC6
:103E8D00002000540045005300545CBCD200460095
:103E9D004100430054004F00520059000D000A002C
:103EAD0052004500530045005456BB04004C004FD2
:103EBD000047002000260020004500520052004F10
:103ECD00005250BD4800520055004E0020005400D5
:103EDD0049004D004550BAC0004C0041004E00470E
:103EED00005500410047004558BECE0043004F002D
:103EFD004D00500041004E005900200049004E0079
:103F0D0046004F5ABB590045004E00470049004E30
:103F1D000045004500520020004D004F0044004573
:103F2D0050BDB50054004F00500020005400450016
:103F3D004D005056BC040042004F00540054004F39
:103F4D00004D002000540045004D005050BCA20013
:103F5D005000520045005300530055005200455487
:103F6D00BD2200440045004C004100590020005482
:103F7D000049004D004554BDFD0054004F00500058
:103F8D00200048004500410054004500525ABC48ED
:103F9D000042004F00540054004F004D00200048D7
:103FAD00004500410054004500524EBF060054002C
:103FBD004F0050002000460041004E54BDDF00422E
:103FCD00004F00540054004F004D002000460041AA
:103FDD00004E54BE370043004F004D0050005200BC
:103FED004500530053004F005250BB7D0053004F0E
:103FFD00004C0045004E004F0049004448BE6F0084
:10400D004400410054004156BE210049004E004974
:10401D00005400490041004C0049005A0045003F42
:10402D0046BC2000590045005344BE7B004E004F56
:10403D0054BD0E0041004300540049005600450098
:10404D0020004C004F004752BAF20045005200527A
:10405D00004F00520020004C004F00474EBDCF00D6
:10406D0045004E0047004C0049005300484EBD002E
:10407D00004300480049004E0045005300454CBF29
:10408D007E004B004F005200450041004E58BEEEE1
:10409D000059004F004E0047004C00490020004BD6
:1040AD00004F00520045004156BB1A004700590011
:1040BD0045004F004E004700470049002D004400C9
:1040CD004F6022BA9E00500041004A0055002D005D
:1040DD00530049002C0020004A004F0052004900B7
:1040ED002D0045005500506022BB9C003200390068
:1040FD002000440061006E0067006A0061006500E9
:10410D0062006F006E0067002D0072006F6022BDAF
:10411D007300440041004E0047004A004100450035
:10412D0042004F004E0047002D0052004F0020006E
:10413D0032003948BF72752862378BBE7F6E48BF1B
:10414D003B0049004F6D4B8BD54ABCB45DE55382A6
:10415D00521D59CB53164EBADC65E55FD7002000D2
:10416D0026002095198BEF48BD368FD0884C65F60B
:10417D0095F444BA888BED8A0048BEB6516C53F85D
:10418D007B804ECB4ABB4F5DE57A0B5E086A215FA3
:10419D000F4ABDF39876677F52A070ED56684ABC02
:1041AD00325E95677F52A070ED566848BEE69876F0
:1041BD00677F98CE624748BDC75E95677F98CE6290
:1041CD004746BE1B538B7F29673A46BB77753578BB
:1041DD00C1960048BDA99876677F6E295EA648BB3B
:1041ED00FA5E95677F6E295EA644BC8E538B529BFB
:1041FD0048BCCA5EF68FDF65F695F444BE6B6570FC
:10420D00636E4ABE11521D59CB53165417003F44CD
:10421D00BC1C786E8BA444BE7753D66D8848BCC247
:10422D008FD0884C65E55FD748BAD495198BEF656B
:10423D00E55FD744BDB182F18BED44BCBE4E2D651B
:10424D008744BF6E97E98BED46BAEC4EAC757F9007
:10425D00534EBA7A57615DDE5E020020676191CCE4
:10426D0090914EBD585802624D5CF08DEF002000CC
:10427D0032003958BBC4003000330031002D0039F5
:10428D0000350033002D003400300036003341BDC1
:10429D00720042BC1A000041BB8D0042BCFE000002
:1042AD0042BC8A000042BF39000042BBE800004119
:1042BD00BA290042BA2A000042BA2C000042BA2E96
:1042CD00000041BA300041BA310042BA320000411B
:1042DD00BA340041BA350041BA360042BA3700004F
:0542ED0042BA39000097
:0C80D6007F0690C78CE0FCA3E0FD7E81DB
:1080E20090BA3BEEF0A3EFF090BF6CECF0A3EDF092
:1080F20090BEB57401F0FB7ABF796C90C7B5E4F01D
:0F810200A304F0125EFF7DBC7C027F060282DFC9
:0C85C700E490BEB5F090BB3BF0A3F022A6
:1077350090BEB5E060637F06128585EF605B90BA09
:107745003BE0FEA3E0FF7B017ABA79D290C7B1E4B2
:10775500F0A304F012584690BAD2E0FEA3E0FF90E1
:10776500BF6CE0FCA3E0FDB50707ECB50603028599
:10777500C7C390BB3CE0940290BB3BE0940050191A
:1077850090BA3BE0FEA3E0FF1280E290BB3CE00430
:0A779500F0700690BB3BE004F02208
:1083B30090C90274C0F0A37464F07B017AC9790296
:0B83C30090C7B5E4F0A304F0025EFFD9
:1083CE0090C7AE7418F0A374E3F07B017AC779AE50
:0B83DE0090C7B5E4F0A304F0025EFFBE
:048301007F037E94E4
:1083050090C7AE74FFF0A37460F07B017AC779AEB5
:0B83150090C7B5E4F0A304F0025EFF87
:1083E90090C7AE7405F0A3741DF07B017AC779AE0E
:0B83F90090C7B5E4F0A304F0025EFFA3
:1084040090C90474CEF0A37459F07B017AC979043D
:0B84140090C7B5E4F0A304F0025EFF87
:04837A007F737E92FD
:10837E0074FF90C7AEF0A3F07B017AC779AE90C7B9
:09838E00B5E4F0A304F0025EFF67
:0685DC00E490BA79F022E0
:106FD40090C83EEEF0A3EFF0A3ECF0A3EDF0A3EA2B
:046FE400F0A3EBF03B
:106FE800A3E0FAA3E0FB7C007D64FFAE021249FE39
:106FF800A3EEF0A3EFF07C007D0AAF03AE021249C6
:10700800FE7C007D0A1249FEA3ECF0A3EDF090C8C7
:1070180044E0FEA3E0FF7C007D0A1249FE90C84AC6
:10702800ECF0A3EDF090C83EE0FEA3E0FF7B017A10
:10703800C8794690C7B5E4F0A304F0125EFF90C883
:1070480040E0FEA3E0FF7B017AC8794890C7B5E429
:10705800F0A304F0125EFF90C842E0FEA3E0FF7BBD
:10706800017AC8794A90C7B5E4F0A304F0025EFF3C
:0E78680090C892EEF0A3EFF0A3ECF0A3EDF0C9
:107876007C007D3CAF03AE021249FEA3EEF0A3EFFF
:10788600F0AE02AF037C007D3C1249FEA3ECF0A3F0
:10789600EDF090C892E0FEA3E0FF7B017AC87996EE
:1078A60090C7B5E4F0A304F0125EFF90C894E0FE22
:1078B600A3E0FF7B017AC8799890C7B5E4F0A304EA
:0478C600F0025EFF6F
:0870780090C8D6EEF0A3EFF082
:10708000E4A3F0A3F0A3F0A304F0FB7AC879D890AE
:10709000C7B5E4F0A304F07F007E29125EFF7B01F8
:1070A0007AC879DA90C7B5E4F0A304F07F007E399E
:1070B000125EFF90C8D6E0FEA3E0FFEE7056EF141C
:1070C000602A04704F7B017AC879D890C7B5E4F084
:1070D000A304F07F007E29125EFF7B017AC879DA73
:1070E00090C7B5E4F0A304F07F0080237B017AC849
:1070F00079D890C7B5E4F0A304F0FF7E29125EFFB3
:107100007B017AC879DA90C7B5E4F0A304F0FF7E7A
:0471100039125EFFD3
:017114002258
:1067F00090C7ACECF0A3EDF0EE6003026903EF2468
:10680000FE605E1460601470030268C824036003B5
:1068100002690390C7ACE0FEA3E0FFEE7035EF1411
:10682000601514601E2402702A1283017F137E9467
:106830001283057F2380551283017F137E94128378
:10684000E9801A7F037E941283E97F137E9412837A
:1068500005800A1283017F137E941283057F2380B3
:10686000637F530268F090C7ACE0FEA3E0FFEE70D8
:1068700043EF14601B14602A240270387F537E9407
:106880001283057F637E941283057F737E948062FA
:106890007F537E941283057F637E941283E97F7316
:1068A00080227F537E941283E97F637E9412830556
:1068B0007F7380107F537E941283057F637E9412D2
:1068C00083057F737E94803890C7ACE0FEA3E0FF21
:1068D000EE7022EF14601004701B7F837E9212838F
:1068E000E97F937E9280197F837E921283057F9346
:1068F0007E920283E97F837E921283057F937E924C
:0469000012830522D7
:0A4D240090BB3AE0FF7E00E4FDFCC6
:104D2E0090C7ACECF0A3EDF0EE60030250BDEF24A3
:104D3E00F3B40B0040030250BD904D5575F003A423
:104D4E00C58325F0C58373024D76024DF1024E5296
:104D5E00024ECD024F48024FA90250230250730259
:104D6E0050BD0250BD02509990C7ACE07002A3E056
:104D7E0070177F037E901283CE7F137E901283CEA8
:104D8E007F237E901283E9804290C7ACE07004A32B
:104D9E00E0640170107F037E901283CE7F137E90AD
:104DAE001283E9801F90C7ACE07004A3E064027F19
:104DBE00037E9070051283E980031283CE7F137EEB
:104DCE00901283CE7F237E901283CE90C7ACE0707C
:104DDE0004A3E0640370047D018002E4FDFC7F10F7
:104DEE0002509490C7ACE07002A3E070107F537E27
:104DFE00901283CE7F637E901283E9802F90C7AC92
:104E0E00E07004A3E0640170097F537E901283E981
:104E1E00801390C7ACE07004A3E06402700E7F5361
:104E2E007E901283CE7F637E901283CE90C7ACE0CD
:104E3E007004A3E0640270047D018002E4FDFC7F37
:104E4E002002509490C7ACE07002A3E070177F73FD
:104E5E007E901283CE7F837E901283CE7F937E9040
:104E6E001283E9804290C7ACE07004A3E064017045
:104E7E00107F737E901283CE7F837E901283E980A3
:104E8E001F90C7ACE07004A3E064027F737E907045
:104E9E00051283E980031283CE7F837E901283CE28
:104EAE007F937E901283CE90C7ACE07004A3E06433
:104EBE000370047D018002E4FDFC7F30025094906B
:104ECE00C7ACE07002A3E070177F037E911283CE11
:104EDE007F137E911283CE7F237E911283E98042CF
:104EEE0090C7ACE07004A3E0640170107F037E9164
:104EFE001283CE7F137E911283E9801F90C7ACE0A0
:104F0E007004A3E064027F037E9170051283E98032
:104F1E00031283CE7F137E911283CE7F237E911256
:104F2E0083CE90C7ACE07004A3E0640370047D01EF
:104F3E008002E4FDFC7F4002509490C7ACE070020A
:104F4E00A3E070107F437E911283CE7F537E911229
:104F5E0083E9802F90C7ACE07004A3E06401700970
:104F6E007F437E911283E9801390C7ACE07004A357
:104F7E00E06402700E7F437E911283CE7F537E914A
:104F8E001283CE90C7ACE07004A3E0640270047D7F
:104F9E00018002E4FDFC7F5002509490C7ACE0709B
:104FAE0002A3E070177F637E911283CE7F737E9192
:104FBE001283CE7F837E911283E9804290C7ACE04C
:104FCE007004A3E0640170107F637E911283CE7F24
:104FDE00737E911283E9801F90C7ACE07004A3E04A
:104FEE0064027F637E9170051283E980031283CE83
:104FFE007F737E911283CE7F837E911283CE90C774
:10500E00ACE07004A3E0640370047D018002E4FD53
:10501E00FC7F60807190C7ACE07002A3E070097FE6
:10502E00937E911283E9801F90C7ACE07004A3E0D9
:10503E0064017F937E91700C1283CE7F037E921259
:10504E0083E9800A1283CE7F037E921283CE90C7AD
:10505E00ACE07004A3E0640270047D018002E4FD04
:10506E00FC7F70802190C7ACE07004A3E064017FE8
:10507E00137E9270091283CE7D017C00800612830E
:10508E00E9E4FDFC7F807E390284BD90C7ACE07000
:10509E0002A3E070077F337E940283E990C7ACE0F1
:1050AE007004A3E0640170077F337E9412837E2226
:1084BD0090C7AEECF0A3EDF07B017AC779AE90C713
:0984CD00B5E4F0A304F0025EFF27
:0581110090BB3AF0FFF5
:1081160090BE4B745AF0A37401F0E4A3F0EF25E08F
:10812600243DF582E434BAF583A3E090BE4EF07B9D
:10813600017ABE794B90C7B5E4F0A37402F07F8450
:058146007E00025EFF57
:107B99007F037E9412837E7F137E9412837E7F23DC
:107BA9007E9412837E7F237E9212837E7F537E9200
:107BB90012837E7F537E9412837E7F637E94128329
:107BC9007E7F737E9412837E7F837E9212837E7F73
:107BD900937E9212837E12837AE4FDFCFF7E30024B
:027BE90084BD59
:0873F30090BA37E0FEA3E0FFB1
:1073FB0090C7ACEEF0A3EFF064014E701512830151
:10740B007F137E941283057F237E941283057D0167
:10741B00803A90C7ACE07004A3E06402700B7F234A
:10742B007E921283057F53804190C7ACE07004A31A
:10743B00E0640370207F537E941283057F637E94F8
:10744B001283057F737E941283057D027C007F007F
:10745B007E300284BD90C7ACE07004A3E06404707E
:10746B000E7F837E921283057F937E921283052279
:047C3900AB07AA06E5
:107C3D007C007D3C1249FE90C78AEEF0A3EFF0AEBA
:107C4D0002AF037C007D3C1249FEA3ECF0A3EDF0E6
:107C5D007B017AC7798A90C7B5E4F0A304F07F5011
:107C6D007E28125EFF7B017AC7798C90C7B5E4F050
:0A7C7D00A304F07F607E28025EFF82
:087A460090BBE8E0FEA3E0FFA5
:047A4E00AB07AA06D2
:107A52007C007D3C1249FE90C7ACEEF0A3EFF0AE85
:107A620002AF037C007D3C1249FEA3ECF0A3EDF0D3
:107A72007B017AC779AC90C7B5E4F0A304F07F002C
:107A82007E31125EFF7B017AC779AE90C7B5E4F012
:0A7A9200A304F07F007E32025EFFC5
:10814B0090BB8D7401F07F737E921283057F337E1B
:10815B00931283057F437E931283057B017ABB7950
:10816B00E890C7B1E4F0A304F07F067E8112584675
:09817B007DE87C037F050282DF30
:10850800E490BB8DF012837A7F337E9312837E7F53
:06851800437E9302837E06
:107F990090BB8DE070077F737E9202837E7F05120E
:107FA9008585EF602C90BBE9E024FFF090BBE8E009
:107FB90034FFF0127A49D390BBE9E0940090BBE812
:107FC900E0940050030285087DE87C037F05128256
:027FD900DF22A5
:105D6B00E490C788F0A3F07B017ABC797090C7B13F
:105D7B00F0A304F07F047E811258467B017AC77929
:105D8B008890C7B1E4F0A304F07F007E81125846DF
:105D9B0090C788E0FAA3E0FB7C007D64FFAE0212A3
:105DAB0049FE90BCB2EEF0A3EFF07C007D0AAF038E
:105DBB00AE021249FE7C007D0A1249FE90BAEAEC53
:105DCB00F0A3EDF090C788E0FEA3E0FF7C007D0A16
:105DDB001249FE90BE7FECF0A3EDF07B017AC77900
:105DEB008890C7B1E4F0A304F07F027E811258467D
:105DFB0090C788E0FAA3E0FB7C007D64FFAE021243
:105E0B0049FE90BBF8EEF0A3EFF07C007D0AAF03E8
:105E1B00AE021249FE7C007D0A1249FE90BF68EC6F
:105E2B00F0A3EDF090C788E0FEA3E0FF7C007D0AB5
:105E3B001249FE90BDC5ECF0A3EDF07B017ABC7965
:105E4B008A90C7B1E4F0A304F07F067E8112584616
:105E5B0090BC8AE0FEA3E0FF127C397B017AC77904
:105E6B008890C7B1E4F0A304F07F087E81125846F6
:105E7B0090C788E0FAA3E0FB7C007D0AFFAE02121C
:105E8B0049FE7C007D0A1249FE90BF6AECF0A3ED3F
:105E9B00F07C007D0AAF03AE021249FE90BDDDEC33
:105EAB00F0A3EDF07B017AC7798890C7B1E4F0A33A
:105EBB0004F07F0A7E8112584690C788E0FAA3E06F
:105ECB00FB7C007D0AFFAE021249FE7C007D0A12AC
:105EDB0049FE90BF14ECF0A3EDF07C007D0AAF03FC
:105EEB00AE021249FE90BC8CECF0A3EDF07F737EFA
:045EFB009202837E0E
:0801000090C788EEF0A3EFF0B8
:10010800E4A3F0A3F0A3F0A3F090BA29E0600DE413
:10011800FF128585EF6005E490BA29F090C788E062
:10012800FEA3E0FF64014E6006EF64024E70099082
:10013800BA29E06003023BC77B017ABA793990C7D4
:10014800B1E4F0A304F07F0C7E8012584690BA39CF
:10015800A3E0FF7C0030E0047D0180027D0090C7B1
:100168008EECF0A3EDF0EF7E0030E1047F01800219
:100178007F0090C790EEF0A3EFF090BA39A3E0FFAC
:100188007C0030E2047D0180027D0090C7A0ECF085
:10019800A3EDF0EF7E0030E3047F0180027F009042
:1001A800C7A2EEF0A3EFF090BA39A3E0FF7C0030CD
:1001B800E4047D0180027D0090C7A4ECF0A3EDF07B
:1001C800EF7E0030E7047F0180027F0090C792EE47
:1001D800F0A3EFF090BA39E0FEEE7C0030E4047D45
:1001E8000180027D0090C794ECF0A3EDF0EE7E0054
:1001F80030E0047F0180027F0090C796EEF0A3EF05
:10020800F090BA39A3E0FF7C0030E5047D0180025C
:100218007D0090C798ECF0A3EDF0EF7E0030E60487
:100228007F0180027F0090C79AEEF0A3EFF090BAAA
:1002380039E0FEEE7C0030E1047D0180027D009013
:10024800C79CECF0A3EDF0EE7E0030E2047F018065
:10025800027F0090C79EEEF0A3EFF090BA39E0FE5F
:10026800EE7C0030E3047D0180027D0090C7A6EC9F
:10027800F0A3EDF0EE7E0030E5047F0180027F0000
:1002880090C7A8EEF0A3EFF090C798E07004A3E041
:040298006401700B82
:09029C0090C7AA74C0F0A37444D9
:1002A500801D90C79CE07004A3E0640190C7AA700C
:0102B5000840
:0602B6007405F0A3741CA6
:0202BC008006BA
:1002BE0074CEF0A37459F07B017AC779AA90C7B5B2
:0C02CE00E4F0A304F07F137E93125EFFA7
:0C02DA0090C79AE07004A3E06401700B70
:0902E60090C7AA74C0F0A374448F
:1002EF00801D90C79EE07004A3E0640190C7AA70C0
:0102FF0008F6
:060300007405F0A3741C5B
:0203060080066F
:1003080074CEF0A37459F07B017AC779AA90C7B567
:0C031800E4F0A304F07F237E93125EFF4C
:1003240090BC02E07002A3E0701990C7A8E07004CA
:10033400A3E06401700D741B12811190BC02E4F0FF
:10034400A304F090C796E07004A3E06401700F90DA
:10035400BF43E0700912814B90BF437401F090BB1E
:100364003AE0B4182990BAD0E07002A3E0701F7B81
:10037400017ABB79E890C7B1F0A304F07F067E81CF
:10038400125846127A4690BAD0E4F0A304F090C70B
:100394008EE07004A3E06401600302044C90BC4648
:1003A400E07004A3E06401600302044C741712813A
:1003B400117B017AC7798C90C7B1E4F0A304F07F74
:1003C400067E8112584690C78CE0FAA3E0FB7C00BD
:1003D4007D3CFFAE021249FE90BDA7EEF0A3EFF004
:1003E4007C007D3CAF03AE021249FE90BA77ECF07C
:1003F400A3EDF07B017ABD79A790C7B5E4F0A3041F
:10040400F07F507E28125EFF7B017ABA797790C71D
:10041400B5E4F0A304F07F607E28125EFFE490BA96
:1004240036F090BA30F0A3F0A3F0A3F090BA37F00E
:10043400A3F090BC46F0A3F090BF43F090BAD0F084
:10044400A3F012850802050990C792E07004A3E0A6
:100454006401602690C79AE07004A3E06401601A06
:1004640090C798E07004A3E064017002800C90C708
:1004740096E07004A3E064017032127B9990BC464C
:10048400E4F0A304F090BB3A7418F0FF128116E470
:1004940090BA36F090BA30F0A3F0A3F0A3F090BA7B
:1004A40037F0A3F090BC02F0A3F0805990C79EE00F
:1004B4007004A3E06401600C90C79CE07004A3E0A6
:1004C40064017041127B9990BB3A7419F0FF128158
:1004D4001612850890BBE8E07004A3E0640170097B
:1004E40090BBE8F0A3F0127A46E490BA36F090BAE2
:1004F40030F0A3F0A3F0A3F090BA37F0A3F090BCCF
:1005040046F0A304F090C788E0FEA3E0FFEE60038A
:10051400023BC7EF24FE70030219CD147003022EB0
:1005240095147003023B9624036003023BC790BA00
:1005340032E07004A3E06401600302191190BB3A35
:10054400E024F3B409004003022E8690055D75F0A3
:1005540003A4C58325F0C583730205780207A002AE
:1005640008EE020B50020D8B020ED902113B02124F
:10057400960212D290BA31E0600302062290BE7F46
:10058400E0FEA3E0FF90C78AEEF0A3EFF04E700AFE
:1005940090BE7FF0A37409F0800E90BE80E024FF2B
:1005A400F090BE7FE034FFF090BAEAE0FEA3E0FFF3
:1005B4007C007D0A1249ECAA06AB0790BCB2E0FEAF
:1005C400A3E0FF7D641249ECEF2BFFEE3AFE90BEF0
:1005D40080E02FFF90BE7FE03E90C78CF0A3EFF049
:1005E40090C78CE0FEA3E0FFD394C8EE9400500AB9
:1005F400EF9400EE94004002800F90C78AE0FFA3BE
:10060400E090BE7FCFF0A3EFF07B017ABE797F90BC
:10061400C7B5E4F0A304F07420FFFE02190B90BAEE
:1006240031E0640160030206E190BAEAE0FEA3E06F
:10063400FF90C78AEEF0A3EFF04E700A90BAEAF08A
:10064400A37409F0800E90BAEBE024FFF090BAEAAC
:10065400E034FFF090BAEAE0FEA3E0FF7C007D0AFC
:100664001249ECAA06AB0790BCB2E0FEA3E0FF7D02
:10067400641249ECEF2BFFEE3AFE90BE80E02FFFB0
:1006840090BE7FE03E90C78CF0A3EFF090C78CE063
:10069400FEA3E0FFD394C8EE9400501DEF9400EE47
:1006A400940040157B017ABA79EA90C7B5E4F0A3C7
:1006B40004F07F107E2002190B90C78AE0FFA3E0AC
:1006C40090BAEACFF0A3EFF07B017ABA79EA90C747
:1006D400B5E4F0A304F07F107E2002190B90BA3128
:1006E400E064026003022E8690BCB2E0FEA3E0FF49
:1006F40090C78AEEF0A3EFF04E700A90BCB2F0A35C
:100704007402F0800E90BCB3E024FFF090BCB2E021
:1007140034FFF090BAEAE0FEA3E0FF7C007D0A1209
:1007240049ECAA06AB0790BCB2E0FEA3E0FF7D64EF
:100734001249ECEF2BFFEE3AFE90BE80E02FFF90C3
:10074400BE7FE03E90C78CF0A3EFF090C78CE0FE34
:10075400A3E0FFD394C8EE9400501DEF9400EE94F0
:100764000040157B017ABC79B290C7B5E4F0A304CC
:10077400F07F007E2002190B90C78AE0FFA3E0906F
:10078400BCB2CFF0A3EFF07B017ABC79B290C7B5CD
:10079400E4F0A304F07F007E2002190B90BA31E04C
:1007A400600302084690BDDDE0FEA3E0FF90C78A27
:1007B400EEF0A3EFF04E700A90BDDDF0A37409F0E3
:1007C400800E90BDDEE024FFF090BDDDE034FFF04C
:1007D40090BF6AE0FEA3E0FF7C007D0A1249EC9022
:1007E400BDDEE02FFF90BDDDE03E90C78CF0A3EFAF
:1007F400F090C78CE0FEA3E0FFD39450EE94005039
:100804001DEF9400EE940040157B017ABD79DD90D4
:10081400C7B5E4F0A304F07F207E2102190B90C732
:100824008AE0FFA3E090BDDDCFF0A3EFF07B017A77
:10083400BD79DD90C7B5E4F0A304F07F207E2102EA
:10084400190B90BA31E064016003022E8690BF6AEE
:10085400E0FEA3E0FF90C78AEEF0A3EFF04E700A2B
:1008640090BF6AF0A37408F0800E90BF6BE024FF81
:10087400F090BF6AE034FFF090BF6AE0FEA3E0FFAF
:100884007C007D0A1249EC90BDDEE02FFF90BDDDB7
:10089400E03E90C78CF0A3EFF090C78CE0FEA3E09D
:1008A400FFD39450EE9400501DEF9400EE9400405A
:1008B400157B017ABF796A90C7B5E4F0A304F07F91
:1008C400107E2102190B90C78AE0FFA3E090BF6A53
:1008D400CFF0A3EFF07B017ABF796A90C7B5E4F05B
:1008E400A304F07F107E2102190B90BA31E060035B
:1008F4000209BA90BA2AE0FEA3E0FF90C78AEEF09C
:10090400A3EFF04E700A90BA2AF0A37402F0800E9E
:1009140090BA2BE024FFF090BA2AE034FFF090BAAA
:100924002CE0FEA3E0FF7C007D0A1249ECAA06AB92
:100934000790BA2AE0FEA3E0FF7D641249ECEF2B96
:10094400FFEE3AFE90BA2FE02FFF90BA2EE03E90D1
:10095400C78CF0A3EFF090C78CE0FEA3E0FFD39424
:1009640032EE9400502CEF9400EE9400402490BAA0
:100974002AE0FFA3E090BEC2CFF0A3EFF07B017AA0
:10098400BA792A90C7B5E4F0A304F07F007E22026E
:10099400190B90C78AE0FFA3E090BA2ACFF0A3EF27
:1009A400F07B017ABA792A90C7B5E4F0A304F07F0A
:1009B400007E2202190B90BA31E064016003020A3E
:1009C4008890BA2CE0FEA3E0FF90C78AEEF0A3EF74
:1009D400F04E700A90BA2CF0A37405F0800E90BA11
:1009E4002DE024FFF090BA2CE034FFF090BA2CE014
:1009F400FEA3E0FF7C007D0A1249ECAA06AB079037
:100A0400BA2AE0FEA3E0FF7D641249ECEF2BFFEE6F
:100A14003AFE90BA2FE02FFF90BA2EE03E90C78C9A
:100A2400F0A3EFF090C78CE0FEA3E0FFD39432EE86
:100A34009400502CEF9400EE9400402490BA2CE0E3
:100A4400FFA3E090BCF2CFF0A3EFF07B017ABA7978
:100A54002C90C7B5E4F0A304F07F107E2202190B9A
:100A640090C78AE0FFA3E090BA2CCFF0A3EFF07B0D
:100A7400017ABA792C90C7B5E4F0A304F07F107E14
:100A84002202190B90BA31E064026003022E8690B0
:100A9400BA2EE0FEA3E0FF90C78AEEF0A3EFF04E7B
:100AA400700A90BA2EF0A37409F0800E90BA2FE069
:100AB40024FFF090BA2EE034FFF090BA2CE0FEA3AD
:100AC400E0FF7C007D0A1249ECAA06AB0790BA2A23
:100AD400E0FEA3E0FF7D641249ECEF2BFFEE3AFE4B
:100AE40090BA2EE0FCA3E0FD2FFFEC3E90C78CF003
:100AF400A3EFF090C78CE0FEA3E0FFD39432EE9412
:100B0400005025EF9400EE9400401D90BC96ECF04C
:100B1400A3EDF07B017ABA792E90C7B5E4F0A30473
:100B2400F07F207E2202190B90C78AE0FFA3E09099
:100B3400BA2ECFF0A3EFF07B017ABA792E90C7B525
:100B4400E4F0A304F07F207E2202190B90BA31E076
:100B54006003020C0D90BDC5E0FEA3E0FF90C78AC0
:100B6400EEF0A3EFF04E700A90BDC5F0A37409F047
:100B7400800E90BDC6E024FFF090BDC5E034FFF0C8
:100B840090BF68E0FEA3E0FF7C007D0A1249ECAA56
:100B940006AB0790BBF8E0FEA3E0FF7D641249ECCE
:100BA400EF2BFFEE3AFE90BDC6E02FFF90BDC5E0EF
:100BB4003E90C78CF0A3EFF090C78CE0FEA3E0FF5B
:100BC400D394C8EE9400501DEF9400EE94004015A9
:100BD4007B017ABD79C590C7B5E4F0A304F07F200A
:100BE4007E2302190B90C78AE0FFA3E090BDC5CF16
:100BF400F0A3EFF07B017ABD79C590C7B5E4F0A30B
:100C040004F07F207E2302190B90BA31E064016066
:100C140003020CCC90BF68E0FEA3E0FF90C78AEE0D
:100C2400F0A3EFF04E700A90BF68F0A37409F0804F
:100C34000E90BF69E024FFF090BF68E034FFF090AD
:100C4400BF68E0FEA3E0FF7C007D0A1249ECAA061F
:100C5400AB0790BBF8E0FEA3E0FF7D641249ECEF24
:100C64002BFFEE3AFE90BDC6E02FFF90BDC5E03EDF
:100C740090C78CF0A3EFF090C78CE0FEA3E0FFD305
:100C840094C8EE9400501DEF9400EE940040157B40
:100C9400017ABF796890C7B5E4F0A304F07F107EB1
:100CA4002302190B90C78AE0FFA3E090BF68CFF03E
:100CB400A3EFF07B017ABF796890C7B5E4F0A30491
:100CC400F07F107E2302190B90BA31E064026003B6
:100CD400022E8690BBF8E0FEA3E0FF90C78AEEF0F8
:100CE400A3EFF04E700A90BBF8F0A37402F0800EEC
:100CF40090BBF9E024FFF090BBF8E034FFF090BF24
:100D040068E0FEA3E0FF7C007D0A1249ECAA06AB72
:100D14000790BBF8E0FEA3E0FF7D641249ECEF2BE3
:100D2400FFEE3AFE90BDC6E02FFF90BDC5E03E90B9
:100D3400C78CF0A3EFF090C78CE0FEA3E0FFD39440
:100D4400C8EE9400501DEF9400EE940040157B0112
:100D54007ABB79F890C7B5E4F0A304F07F007E2352
:100D640002190B90C78AE0FFA3E090BBF8CFF0A371
:100D7400EFF07B017ABB79F890C7B5E4F0A304F0F7
:100D84007F007E2302190B90BA31E06003020E311A
:100D940090BC8CE0FEA3E0FF90C78AEEF0A3EFF0D6
:100DA4004E700A90BC8CF0A37409F0800E90BC8D38
:100DB400E024FFF090BC8CE034FFF090BF14E0FE20
:100DC400A3E0FF7C007D0A1249EC90BC8DE02FFF6C
:100DD40090BC8CE03E90C78CF0A3EFF090C78CE001
:100DE400FEA3E0FFD39450EE9400501DEF9400EE68
:100DF400940040157B017ABC798C90C7B5E4F0A3CC
:100E040004F07F207E2402190B90C78AE0FFA3E040
:100E140090BC8CCFF0A3EFF07B017ABC798C90C7A7
:100E2400B5E4F0A304F07F207E2402190B90BA31BC
:100E3400E064016003022E8690BF14E0FEA3E0FF8D
:100E440090C78AEEF0A3EFF04E700A90BF14F0A39F
:100E54007408F0800E90BF15E024FFF090BF14E0FA
:100E640034FFF090BF14E0FEA3E0FF7C007D0A1283
:100E740049EC90BC8DE02FFF90BC8CE03E90C78C79
:100E8400F0A3EFF090C78CE0FEA3E0FFD39450EE04
:100E94009400501DEF9400EE940040157B017ABF3E
:100EA400791490C7B5E4F0A304F07F107E240219EE
:100EB4000B90C78AE0FFA3E090BF14CFF0A3EFF03C
:100EC4007B017ABF791490C7B5E4F0A304F07F10D6
:100ED4007E2402190B90BA31E06003020FA590BA88
:100EE4002AE0FEA3E0FF90C78AEEF0A3EFF06402CD
:100EF4004E700890BA2AF0A3F0800E90BA2BE0242A
:100F0400FFF090BA2AE034FFF090BA2CE0FEA3E0A0
:100F1400FF7C007D0A1249ECAA06AB0790BA2AE0CE
:100F2400FEA3E0FF7D641249ECEF2BFFEE3AFE9046
:100F3400BA2FE02FFF90BA2EE03E90C78CF0A3EFBB
:100F4400F090C78CE0FEA3E0FFD39432EE940050FF
:100F54002CEF9400EE9400402490BA2AE0FFA3E022
:100F640090BEC8CFF0A3EFF07B017ABA792A90C77C
:100F7400B5E4F0A304F07F007E2502190B90C78A24
:100F8400E0FFA3E090BA2ACFF0A3EFF07B017ABA96
:100F9400792A90C7B5E4F0A304F07F007E250219F6
:100FA4000B90BA31E06401600302107390BA2CE034
:100FB400FEA3E0FF90C78AEEF0A3EFF04E700A9014
:100FC400BA2CF0A37405F0800E90BA2DE024FFF043
:100FD40090BA2CE034FFF090BA2CE0FEA3E0FF7C42
:100FE400007D0A1249ECAA06AB0790BA2AE0FEA3D8
:100FF400E0FF7D641249ECEF2BFFEE3AFE90BA2F2E
:10100400E02FFF90BA2EE03E90C78CF0A3EFF09053
:10101400C78CE0FEA3E0FFD39432EE9400502CEF93
:101024009400EE9400402490BA2CE0FFA3E090BC1E
:10103400F8CFF0A3EFF07B017ABA792C90C7B5E42E
:10104400F0A304F07F107E2502190B90C78AE0FFFD
:10105400A3E090BA2CCFF0A3EFF07B017ABA792CFD
:1010640090C7B5E4F0A304F07F107E2502190B901D
:10107400BA31E064026003022E8690BA2EE0FEA329
:10108400E0FF90C78AEEF0A3EFF04E700A90BA2EFC
:10109400F0A37409F0800E90BA2FE024FFF090BA08
:1010A4002EE034FFF090BA2CE0FEA3E0FF7C007D3C
:1010B4000A1249ECAA06AB0790BA2AE0FEA3E0FFA5
:1010C4007D641249ECEF2BFFEE3AFE90BA2EE0FC61
:1010D400A3E0FD2FFFEC3E90C78CF0A3EFF090C788
:1010E4008CE0FEA3E0FFD39432EE94005025EF94FD
:1010F40000EE9400401D90BC9CECF0A3EDF07B014D
:101104007ABA792E90C7B5E4F0A304F07F207E2547
:1011140002190B90C78AE0FFA3E090BA2ECFF0A388
:10112400EFF07B017ABA792E90C7B5E4F0A304F00E
:101134007F207E2502190B90BA31E060030211F181
:1011440090BDA7E0FEA3E0FF90C78AEEF0A3EFF006
:101154004E701D90BA77E07002A3E090BDA76008BE
:10116400E4F0A3743BF08016E4F0A3743CF0800E2A
:1011740090BDA8E024FFF090BDA7E034FFF090BD3F
:10118400A7E0FEA3E0FF7C007D3C1249EC90BA7816
:10119400E02FFF90BA77E03E90C78CF0A3EFF09079
:1011A400C78CE0FEA3E0D39410EE940E501BC3EE64
:1011B400940040157B017ABD79A790C7B5E4F0A3EC
:1011C40004F07F507E2802190B90C78AE0FFA3E049
:1011D40090BDA7CFF0A3EFF07B017ABD79A790C7AC
:1011E400B5E4F0A304F07F507E2802190B90BA31C5
:1011F400E064016003022E8690BA77E0FEA3E0FF6C
:1012040090C78AEEF0A3EFF04E700A90BA77F0A37D
:10121400743BF0800E90BA78E024FFF090BA77E047
:1012240034FFF090BDA7E0FEA3E0FF7C007D3C12FC
:1012340049EC90BA78E02FFF90BA77E03E90C78CE3
:10124400F0A3EFF090C78CE0FEA3E0D39410EE94EB
:101254000E501BC3EE940040157B017ABA79779047
:10126400C7B5E4F0A304F07F607E2802190B90C791
:101274008AE0FFA3E090BA77CFF0A3EFF07B017A86
:10128400BA797790C7B5E4F0A304F07F607E2802B2
:10129400190B90BA31E06003022E86D390BC71E042
:1012A400940090BC70E094005003022E86A3E024C6
:1012B400FFF090BC70E034FFF07B017ABC79709051
:1012C400C7B5E4F0A304F07F207E2902190B90BA7D
:1012D40037E07004A3E06401600302151C90BA3186
:1012E400E0600302139E90BE7FE0FEA3E0FF90C780
:1012F4008AEEF0A3EFF04E700A90BE7FF0A374095B
:10130400F0800E90BE80E024FFF090BE7FE034FFBA
:10131400F090BAEAE0FEA3E0FF7C007D0A1249ECFB
:10132400AA06AB0790BCB2E0FEA3E0FF7D641249BD
:10133400ECEF2BFFEE3AFE90BE80E02FFF90BE7FD5
:10134400E03E90C78CF0A3EFF090C78CE0FEA3E0E2
:10135400FFD394C8EE9400501DEF9400EE94004027
:10136400157B017ABE797F90C7B5E4F0A304F07FC2
:10137400207E2802190B90C78AE0FFA3E090BE7F6D
:10138400CFF0A3EFF07B017ABE797F90C7B5E4F08C
:10139400A304F07F207E2802190B90BA31E0640187
:1013A400600302145D90BAEAE0FEA3E0FF90C78AEE
:1013B400EEF0A3EFF04E700A90BAEAF0A37409F0CD
:1013C400800E90BAEBE024FFF090BAEAE034FFF02C
:1013D40090BAEAE0FEA3E0FF7C007D0A1249ECAA81
:1013E40006AB0790BCB2E0FEA3E0FF7D641249ECBB
:1013F400EF2BFFEE3AFE90BE80E02FFF90BE7FE021
:101404003E90C78CF0A3EFF090C78CE0FEA3E0FF02
:10141400D394C8EE9400501DEF9400EE9400401550
:101424007B017ABA79EA90C7B5E4F0A304F07F109F
:101434007E2802190B90C78AE0FFA3E090BAEACF96
:10144400F0A3EFF07B017ABA79EA90C7B5E4F0A390
:1014540004F07F107E2802190B90BA31E064026018
:1014640003022E8690BCB2E0FEA3E0FF90C78AEE92
:10147400F0A3EFF04E700A90BCB2F0A37402F080B7
:101484000E90BCB3E024FFF090BCB2E034FFF090C7
:10149400BAEAE0FEA3E0FF7C007D0A1249ECAA064A
:1014A400AB0790BCB2E0FEA3E0FF7D641249ECEF11
:1014B4002BFFEE3AFE90BE80E02FFF90BE7FE03E11
:1014C40090C78CF0A3EFF090C78CE0FEA3E0FFD3AD
:1014D40094C8EE9400501DEF9400EE940040157BE8
:1014E400017ABC79B290C7B5E4F0A304F07F007E22
:1014F4002802190B90C78AE0FFA3E090BCB2CFF09A
:10150400A3EFF07B017ABC79B290C7B5E4F0A304F1
:10151400F07F007E2802190B90BA37E07004A3E034
:1015240064027033D390BC71E0940090BC70E0947A
:10153400005003022E86A3E024FFF090BC70E03438
:10154400FFF07B017ABC797090C7B5E4F0A304F096
:101554007F307E2902190B90BA37E07004A3E0644F
:101564000360030217A590BA31E0600302162790C6
:10157400BDC5E0FEA3E0FF90C78AEEF0A3EFF04EF6
:10158400700A90BDC5F0A37409F0800E90BDC6E04A
:1015940024FFF090BDC5E034FFF090BF68E0FEA3E7
:1015A400E0FF7C007D0A1249ECAA06AB0790BBF869
:1015B400E0FEA3E0FF7D641249ECEF2BFFEE3AFE60
:1015C40090BDC6E02FFF90BDC5E03E90C78CF0A350
:1015D400EFF090C78CE0FEA3E0FFD394C8EE940034
:1015E400501DEF9400EE940040157B017ABD79C53F
:1015F40090C7B5E4F0A304F07F907E2802190B9005
:10160400C78AE0FFA3E090BDC5CFF0A3EFF07B0154
:101614007ABD79C590C7B5E4F0A304F07F907E2825
:1016240002190B90BA31E0640160030216E690BF20
:1016340068E0FEA3E0FF90C78AEEF0A3EFF04E70DF
:101644000A90BF68F0A37409F0800E90BF69E0248B
:10165400FFF090BF68E034FFF090BF68E0FEA3E0C5
:10166400FF7C007D0A1249ECAA06AB0790BBF8E0A8
:10167400FEA3E0FF7D641249ECEF2BFFEE3AFE90EF
:10168400BDC6E02FFF90BDC5E03E90C78CF0A3EF30
:10169400F090C78CE0FEA3E0FFD394C8EE94005012
:1016A4001DEF9400EE940040157B017ABF79689099
:1016B400C7B5E4F0A304F07F807E2802190B90C71D
:1016C4008AE0FFA3E090BF68CFF0A3EFF07B017A3C
:1016D400BF796890C7B5E4F0A304F07F807E280248
:1016E400190B90BA31E064026003022E8690BBF8B5
:1016F400E0FEA3E0FF90C78AEEF0A3EFF04E700A7D
:1017040090BBF8F0A37402F0800E90BBF9E024FFC4
:10171400F090BBF8E034FFF090BF68E0FEA3E0FF78
:101724007C007D0A1249ECAA06AB0790BBF8E0FEE8
:10173400A3E0FF7D641249ECEF2BFFEE3AFE90BD6F
:10174400C6E02FFF90BDC5E03E90C78CF0A3EFF03C
:1017540090C78CE0FEA3E0FFD394C8EE9400501D24
:10176400EF9400EE940040157B017ABB79F890C7A2
:10177400B5E4F0A304F07F707E2802190B90C78AA9
:10178400E0FFA3E090BBF8CFF0A3EFF07B017ABBBE
:1017940079F890C7B5E4F0A304F07F707E280219AD
:1017A4000B90BA37E07004A3E064046003022E8651
:1017B40090BA31E0600302186A90BDA7E0FEA3E08E
:1017C400FF90C78AEEF0A3EFF04E701D90BA77E059
:1017D4007002A3E090BDA76008E4F0A3743BF0801E
:1017E40016E4F0A3743CF0800E90BDA8E024FFF052
:1017F40090BDA7E034FFF090BDA7E0FEA3E0FF7C1E
:10180400007D3C1249EC90BA78E02FFF90BA77E063
:101814003E90C78CF0A3EFF090C78CE0FEA3E0D31A
:101824009410EE940E501BC3EE940040157B017A85
:10183400BD79A790C7B5E4F0A304F07F507E2802D9
:10184400190B90C78AE0FFA3E090BDA7CFF0A3EFE8
:10185400F07B017ABD79A790C7B5E4F0A304F07FCB
:10186400507E2802190B90BA31E064016003022E05
:101874008690BA77E0FEA3E0FF90C78AEEF0A3EF6C
:10188400F04E700A90BA77F0A3743BF0800E90BAD1
:1018940078E024FFF090BA77E034FFF090BDA7E041
:1018A400FEA3E0FF7C007D3C1249EC90BA78E02F67
:1018B400FF90BA77E03E90C78CF0A3EFF090C78C0E
:1018C400E0FEA3E0D39410EE940E501AC3EE9400FD
:1018D40040147B017ABA797790C7B5E4F0A304F099
:1018E4007F607E28802190C78AE0FFA3E090BA77CA
:1018F400CFF0A3EFF07B017ABA797790C7B5E4F023
:10190400A304F07F607E28125EFF022E8690BA3612
:10191400E06401703A90BA32E07002A3E06003021E
:101924002E86127B9990BA37E07004A3E0640170AC
:101934000A90BA37F0A37404F0800E90BA38E02409
:10194400FFF090BA37E034FFF01273F3022E869062
:10195400BB3AE0FFD39400400CEFD394055006E06B
:1019640014F0E0805D90BB3AE070057405F080529D
:1019740090BA34E06401702090BB3AE0B406047479
:1019840009802990BB3AE0B409057407F0800790F8
:10199400BB3AE014F0E0802A90BA35E064016003B9
:1019A400022E8690BB3AE0B40905740BF0801390C4
:1019B400BB3AE0B40A057409F0800790BB3AE0141E
:1019C400F0E0FF128116022E8690BA32E07004A372
:1019D400E064016003022DDB90BB3AE024F3B40918
:1019E400004003022E869019F875F003A4C58325E0
:1019F400F0C58373021A13021C3E021D8D021FEFF1
:101A040002222D02237B0225DD02274E022781902C
:101A1400BA31E06003021ABE90BE7FE0FEA3E0FF8D
:101A240090C78AEEF0A3EFF064094E601090BE8078
:101A3400E004F0700F90BE7FE004F08007E490BEF5
:101A44007FF0A3F090BAEAE0FEA3E0FF7C007D0AF9
:101A54001249ECAA06AB0790BCB2E0FEA3E0FF7DFE
:101A6400641249ECEF2BFFEE3AFE90BE80E02FFFAC
:101A740090BE7FE03E90C78CF0A3EFF090C78CE05F
:101A8400FEA3E0FFD394C8EE9400500AEF9400EE56
:101A940094004002800F90C78AE0FFA3E090BE7FCD
:101AA400CFF0A3EFF07B017ABE797F90C7B5E4F065
:101AB400A304F07420FFFE022DD590BA31E0640136
:101AC4006003021B7E90BAEAE0FEA3E0FF90C78A9F
:101AD400EEF0A3EFF064094E601090BAEBE004F06E
:101AE400700F90BAEAE004F08007E490BAEAF0A339
:101AF400F090BAEAE0FEA3E0FF7C007D0A1249EC14
:101B0400AA06AB0790BCB2E0FEA3E0FF7D641249D5
:101B1400ECEF2BFFEE3AFE90BE80E02FFF90BE7FED
:101B2400E03E90C78CF0A3EFF090C78CE0FEA3E0FA
:101B3400FFD394C8EE9400501DEF9400EE9400403F
:101B4400157B017ABA79EA90C7B5E4F0A304F07F73
:101B5400107E20022DD590C78AE0FFA3E090BAEA58
:101B6400CFF0A3EFF07B017ABA79EA90C7B5E4F03D
:101B7400A304F07F107E20022DD590BA31E06402D8
:101B84006003022E8690BCB2E0FEA3E0FF90C78AF9
:101B9400EEF0A3EFF064024E601090BCB3E004F0EA
:101BA400700F90BCB2E004F08007E490BCB2F0A3E4
:101BB400F090BAEAE0FEA3E0FF7C007D0A1249EC53
:101BC400AA06AB0790BCB2E0FEA3E0FF7D64124915
:101BD400ECEF2BFFEE3AFE90BE80E02FFF90BE7F2D
:101BE400E03E90C78CF0A3EFF090C78CE0FEA3E03A
:101BF400FFD394C8EE9400501DEF9400EE9400407F
:101C0400157B017ABC79B290C7B5E4F0A304F07FE8
:101C1400007E20022DD590C78AE0FFA3E090BCB2DD
:101C2400CFF0A3EFF07B017ABC79B290C7B5E4F0B2
:101C3400A304F07F007E20022DD590BA31E060032A
:101C4400021CE590BDDDE0FEA3E0FF90C78AEEF044
:101C5400A3EFF064094E601090BDDEE004F0700F55
:101C640090BDDDE004F08007E490BDDDF0A3F090CA
:101C7400BF6AE0FEA3E0FF7C007D0A1249EC90BD40
:101C8400DEE02FFF90BDDDE03E90C78CF0A3EFF0C7
:101C940090C78CE0FEA3E0FFD39450EE9400501D57
:101CA400EF9400EE940040157B017ABD79DD90C776
:101CB400B5E4F0A304F07F207E21022DD590C78ADD
:101CC400E0FFA3E090BDDDCFF0A3EFF07B017ABD90
:101CD40079DD90C7B5E4F0A304F07F207E21022DC6
:101CE400D590BA31E064016003022E8690BF6AE0A9
:101CF400FEA3E0FF90C78AEEF0A3EFF064084E70F5
:101D04000890BF6AF0A3F0800E90BF6BE004F070FF
:101D14000690BF6AE004F090BF6AE0FEA3E0FF7C97
:101D2400007D0A1249EC90BDDEE02FFF90BDDDE09E
:101D34003E90C78CF0A3EFF090C78CE0FEA3E0FFC9
:101D4400D39450EE9400501DEF9400EE940040158F
:101D54007B017ABF796A90C7B5E4F0A304F07F10E1
:101D64007E21022DD590C78AE0FFA3E090BF6ACF01
:101D7400F0A3EFF07B017ABF796A90C7B5E4F0A3D2
:101D840004F07F107E21022DD590BA31E060030269
:101D94001E5990BA2AE0FEA3E0FF90C78AEEF0A392
:101DA400EFF064094E700890BA2AF0A3F0800E9008
:101DB400BA2BE004F0700690BA2AE004F090BA2C32
:101DC400E0FEA3E0FF7C007D0A1249ECAA06AB0703
:101DD40090BA2AE0FEA3E0FF7D641249ECEF2BFFEA
:101DE400EE3AFE90BA2FE02FFF90BA2EE03E90C755
:101DF4008CF0A3EFF090C78CE0FEA3E0FFD3943205
:101E0400EE9400502CEF9400EE9400402490BA2AF3
:101E1400E0FFA3E090BEC2CFF0A3EFF07B017ABA5B
:101E2400792A90C7B5E4F0A304F07F007E22022D46
:101E3400D590C78AE0FFA3E090BA2ACFF0A3EFF0D1
:101E44007B017ABA792A90C7B5E4F0A304F07F0045
:101E54007E22022DD590BA31E064016003021F276F
:101E640090BA2CE0FEA3E0FF90C78AEEF0A3EFF057
:101E740064054E700890BA2CF0A3F0800E90BA2D31
:101E8400E004F0700690BA2CE004F090BA2CE0FE66
:101E9400A3E0FF7C007D0A1249ECAA06AB0790BAC6
:101EA4002AE0FEA3E0FF7D641249ECEF2BFFEE3A3B
:101EB400FE90BA2FE02FFF90BA2EE03E90C78CF030
:101EC400A3EFF090C78CE0FEA3E0FFD39432EE942E
:101ED40000502CEF9400EE9400402490BA2CE0FFC4
:101EE400A3E090BCF2CFF0A3EFF07B017ABA792C97
:101EF40090C7B5E4F0A304F07F107E22022DD590A4
:101F0400C78AE0FFA3E090BA2CCFF0A3EFF07B01E7
:101F14007ABA792C90C7B5E4F0A304F07F107E223E
:101F2400022DD590BA31E064026003022E8690BA85
:101F34002EE0FEA3E0FF90C78AEEF0A3EFF0640961
:101F44004E700890BA2EF0A3F0800E90BA2FE004E1
:101F5400F0700690BA2EE004F090BA2CE0FEA3E0F4
:101F6400FF7C007D0A1249ECAA06AB0790BA2AE06E
:101F7400FEA3E0FF7D641249ECEF2BFFEE3AFE90E6
:101F8400BA2EE0FCA3E0FD2FFFEC3E90C78CF0A33B
:101F9400EFF090C78CE0FEA3E0FFD39432EE940000
:101FA4005025EF9400EE9400401D90BC96ECF0A3F5
:101FB400EDF07B017ABA792E90C7B5E4F0A304F072
:101FC4007F207E22022DD590C78AE0FFA3E090BA3D
:101FD4002ECFF0A3EFF07B017ABA792E90C7B5E447
:101FE400F0A304F07F207E22022DD590BA31E06068
:101FF400030220AD90BDC5E0FEA3E0FF90C78AEECA
:10200400F0A3EFF064094E601090BDC6E004F070D8
:102014000F90BDC5E004F08007E490BDC5F0A3F0C7
:1020240090BF68E0FEA3E0FF7C007D0A1249ECAAA1
:1020340006AB0790BBF8E0FEA3E0FF7D641249EC19
:10204400EF2BFFEE3AFE90BDC6E02FFF90BDC5E03A
:102054003E90C78CF0A3EFF090C78CE0FEA3E0FFA6
:10206400D394C8EE9400501DEF9400EE94004015F4
:102074007B017ABD79C590C7B5E4F0A304F07F2055
:102084007E23022DD590C78AE0FFA3E090BDC5CF83
:10209400F0A3EFF07B017ABD79C590C7B5E4F0A356
:1020A40004F07F207E23022DD590BA31E0640160D4
:1020B4000302216D90BF68E0FEA3E0FF90C78AEEA3
:1020C400F0A3EFF064094E601090BF69E004F07073
:1020D4000F90BF68E004F08007E490BF68F0A3F0BD
:1020E40090BF68E0FEA3E0FF7C007D0A1249ECAAE1
:1020F40006AB0790BBF8E0FEA3E0FF7D641249EC59
:10210400EF2BFFEE3AFE90BDC6E02FFF90BDC5E079
:102114003E90C78CF0A3EFF090C78CE0FEA3E0FFE5
:10212400D394C8EE9400501DEF9400EE9400401533
:102134007B017ABF796890C7B5E4F0A304F07F10FF
:102144007E23022DD590C78AE0FFA3E090BF68CF1D
:10215400F0A3EFF07B017ABF796890C7B5E4F0A3F0
:1021640004F07F107E23022DD590BA31E064026022
:1021740003022E8690BBF8E0FEA3E0FF90C78AEE30
:10218400F0A3EFF064024E601090BBF9E004F0702D
:102194000F90BBF8E004F08007E490BBF8F0A3F0E4
:1021A40090BF68E0FEA3E0FF7C007D0A1249ECAA20
:1021B40006AB0790BBF8E0FEA3E0FF7D641249EC98
:1021C400EF2BFFEE3AFE90BDC6E02FFF90BDC5E0B9
:1021D4003E90C78CF0A3EFF090C78CE0FEA3E0FF25
:1021E400D394C8EE9400501DEF9400EE9400401573
:1021F4007B017ABB79F890C7B5E4F0A304F07F00C3
:102204007E23022DD590C78AE0FFA3E090BBF8CFD0
:10221400F0A3EFF07B017ABB79F890C7B5E4F0A3A3
:1022240004F07F007E23022DD590BA31E0600302D2
:1022340022D390BC8CE0FEA3E0FF90C78AEEF0A30B
:10224400EFF064094E700890BC8CF0A3F0800E90FF
:10225400BC8DE004F0700690BC8CE004F090BF14D8
:10226400E0FEA3E0FF7C007D0A1249EC90BC8DE007
:102274002FFF90BC8CE03E90C78CF0A3EFF090C78A
:102284008CE0FEA3E0FFD39450EE9400501DEF9435
:1022940000EE940040157B017ABC798C90C7B5E4BC
:1022A400F0A304F07F207E24022DD590C78AE0FF9E
:1022B400A3E090BC8CCFF0A3EFF07B017ABC798CC7
:1022C40090C7B5E4F0A304F07F207E24022DD590BE
:1022D400BA31E064016003022E8690BF14E0FEA3CD
:1022E400E0FF90C78AEEF0A3EFF064084E70089008
:1022F400BF14F0A3F0800E90BF15E004F0700690B8
:10230400BF14E004F090BF14E0FEA3E0FF7C007D66
:102314000A1249EC90BC8DE02FFF90BC8CE03E90FB
:10232400C78CF0A3EFF090C78CE0FEA3E0FFD3943A
:1023340050EE9400501DEF9400EE940040157B0184
:102344007ABF791490C7B5E4F0A304F07F107E241B
:10235400022DD590C78AE0FFA3E090BF14CFF0A36D
:10236400EFF07B017ABF791490C7B5E4F0A304F0D1
:102374007F107E24022DD590BA31E06003022447F9
:1023840090BA2AE0FEA3E0FF90C78AEEF0A3EFF034
:1023940064094E700890BA2AF0A3F0800E90BA2B0C
:1023A400E004F0700690BA2AE004F090BA2CE0FE43
:1023B400A3E0FF7C007D0A1249ECAA06AB0790BAA1
:1023C4002AE0FEA3E0FF7D641249ECEF2BFFEE3A16
:1023D400FE90BA2FE02FFF90BA2EE03E90C78CF00B
:1023E400A3EFF090C78CE0FEA3E0FFD39432EE9409
:1023F40000502CEF9400EE9400402490BA2AE0FFA1
:10240400A3E090BEC8CFF0A3EFF07B017ABA792A9B
:1024140090C7B5E4F0A304F07F007E25022DD5908B
:10242400C78AE0FFA3E090BA2ACFF0A3EFF07B01C4
:102434007ABA792A90C7B5E4F0A304F07F007E2528
:10244400022DD590BA31E06401600302251590BADB
:102454002CE0FEA3E0FF90C78AEEF0A3EFF0640542
:102464004E700890BA2CF0A3F0800E90BA2DE004C0
:10247400F0700690BA2CE004F090BA2CE0FEA3E0D1
:10248400FF7C007D0A1249ECAA06AB0790BA2AE049
:10249400FEA3E0FF7D641249ECEF2BFFEE3AFE90C1
:1024A400BA2FE02FFF90BA2EE03E90C78CF0A3EF36
:1024B400F090C78CE0FEA3E0FFD39432EE9400507A
:1024C4002CEF9400EE9400402490BA2CE0FFA3E09B
:1024D40090BCF8CFF0A3EFF07B017ABA792C90C7C7
:1024E400B5E4F0A304F07F107E25022DD590C78AB1
:1024F400E0FFA3E090BA2CCFF0A3EFF07B017ABA0F
:10250400792C90C7B5E4F0A304F07F107E25022D4A
:10251400D590BA31E064026003022E8690BA2EE0B0
:10252400FEA3E0FF90C78AEEF0A3EFF064094E70BB
:102534000890BA2EF0A3F0800E90BA2FE004F07049
:102544000690BA2EE004F090BA2CE0FEA3E0FF7CE3
:10255400007D0A1249ECAA06AB0790BA2AE0FEA352
:10256400E0FF7D641249ECEF2BFFEE3AFE90BA2EA9
:10257400E0FCA3E0FD2FFFEC3E90C78CF0A3EFF04E
:1025840090C78CE0FEA3E0FFD39432EE9400502574
:10259400EF9400EE9400401D90BC9CECF0A3EDF091
:1025A4007B017ABA792E90C7B5E4F0A304F07F20BA
:1025B4007E25022DD590C78AE0FFA3E090BA2ECFE6
:1025C400F0A3EFF07B017ABA792E90C7B5E4F0A3BB
:1025D40004F07F207E25022DD590BA31E0600302FD
:1025E40026A990BDA7E0FEA3E0FF90C78AEEF0A362
:1025F400EFF0643B4E701D90BA77E07002A3E06088
:1026040003E4801C90BDA8E004F0702A90BDA7E00C
:1026140004F0802290BDA7E07004A3E0643C70083D
:1026240090BDA7F0A3F0800E90BDA8E004F0700662
:1026340090BDA7E004F090BDA7E0FEA3E0FF7C00FE
:102644007D3C1249EC90BA78E02FFF90BA77E03ED7
:1026540090C78CF0A3EFF090C78CE0FEA3E0D39476
:1026640010EE940E501BC3EE940040157B017ABD0E
:1026740079A790C7B5E4F0A304F07F507E28022D1B
:10268400D590C78AE0FFA3E090BDA7CFF0A3EFF0F9
:102694007B017ABD79A790C7B5E4F0A304F07F501D
:1026A4007E28022DD590BA31E064016003022E86A3
:1026B40090BA77E0FEA3E0FF90C78AEEF0A3EFF0B4
:1026C400643B4E700890BA77F0A3F0800E90BA780D
:1026D400E004F0700690BA77E004F090BDA7E0FE45
:1026E400A3E0FF7C007D3C1249EC90BA78E02FFF18
:1026F40090BA77E03E90C78CF0A3EFF090C78CE0DF
:10270400FEA3E0D39410EE940E501BC3EE9400404D
:10271400157B017ABA797790C7B5E4F0A304F07F0A
:10272400607E28022DD590C78AE0FFA3E090BA7797
:10273400CFF0A3EFF07B017ABA797790C7B5E4F0D4
:10274400A304F07F607E28022DD5C390BC71E09471
:102754001490BC70E094004003022E86A3E004F0C1
:10276400700690BC70E004F07B017ABC797090C76D
:10277400B5E4F0A304F07F207E29022DD590BA376A
:10278400E07004A3E0640160030229CE90BA31E052
:10279400600302284E90BE7FE0FEA3E0FF90C78A4C
:1027A400EEF0A3EFF064094E601090BE80E004F0F8
:1027B400700F90BE7FE004F08007E490BE7FF0A32A
:1027C400F090BAEAE0FEA3E0FF7C007D0A1249EC37
:1027D400AA06AB0790BCB2E0FEA3E0FF7D641249F9
:1027E400ECEF2BFFEE3AFE90BE80E02FFF90BE7F11
:1027F400E03E90C78CF0A3EFF090C78CE0FEA3E01E
:10280400FFD394C8EE9400501DEF9400EE94004062
:10281400157B017ABE797F90C7B5E4F0A304F07FFD
:10282400207E28022DD590C78AE0FFA3E090BE7FCA
:10283400CFF0A3EFF07B017ABE797F90C7B5E4F0C7
:10284400A304F07F207E28022DD590BA31E06401E4
:10285400600302290E90BAEAE0FEA3E0FF90C78A63
:10286400EEF0A3EFF064094E601090BAEBE004F0D0
:10287400700F90BAEAE004F08007E490BAEAF0A39B
:10288400F090BAEAE0FEA3E0FF7C007D0A1249EC76
:10289400AA06AB0790BCB2E0FEA3E0FF7D64124938
:1028A400ECEF2BFFEE3AFE90BE80E02FFF90BE7F50
:1028B400E03E90C78CF0A3EFF090C78CE0FEA3E05D
:1028C400FFD394C8EE9400501DEF9400EE940040A2
:1028D400157B017ABA79EA90C7B5E4F0A304F07FD6
:1028E400107E28022DD590C78AE0FFA3E090BAEAB3
:1028F400CFF0A3EFF07B017ABA79EA90C7B5E4F0A0
:10290400A304F07F107E28022DD590BA31E0640232
:102914006003022E8690BCB2E0FEA3E0FF90C78A5B
:10292400EEF0A3EFF064024E601090BCB3E004F04C
:10293400700F90BCB2E004F08007E490BCB2F0A346
:10294400F090BAEAE0FEA3E0FF7C007D0A1249ECB5
:10295400AA06AB0790BCB2E0FEA3E0FF7D64124977
:10296400ECEF2BFFEE3AFE90BE80E02FFF90BE7F8F
:10297400E03E90C78CF0A3EFF090C78CE0FEA3E09C
:10298400FFD394C8EE9400501DEF9400EE940040E1
:10299400157B017ABC79B290C7B5E4F0A304F07F4B
:1029A400007E28022DD590C78AE0FFA3E090BCB238
:1029B400CFF0A3EFF07B017ABC79B290C7B5E4F015
:1029C400A304F07F007E28022DD590BA37E070046E
:1029D400A3E06402703290BC70E07004A3E064145D
:1029E4007003022E8690BC71E004F0700690BC70F7
:1029F400E004F07B017ABC797090C7B5E4F0A304DD
:102A0400F07F307E29022DD590BA37E07004A3E020
:102A140064036003022C5990BA31E06003022AD99E
:102A240090BDC5E0FEA3E0FF90C78AEEF0A3EFF0EF
:102A340064094E601090BDC6E004F0700F90BDC5EF
:102A4400E004F08007E490BDC5F0A3F090BF68E017
:102A5400FEA3E0FF7C007D0A1249ECAA06AB0790B6
:102A6400BBF8E0FEA3E0FF7D641249ECEF2BFFEE20
:102A74003AFE90BDC6E02FFF90BDC5E03E90C78CE6
:102A8400F0A3EFF090C78CE0FEA3E0FFD394C8EE70
:102A94009400501DEF9400EE940040157B017ABD24
:102AA40079C590C7B5E4F0A304F07F907E28022D89
:102AB400D590C78AE0FFA3E090BDC5CFF0A3EFF0A7
:102AC4007B017ABD79C590C7B5E4F0A304F07F908B
:102AD4007E28022DD590BA31E064016003022B995F
:102AE40090BF68E0FEA3E0FF90C78AEEF0A3EFF08A
:102AF40064094E601090BF69E004F0700F90BF68E5
:102B0400E004F08007E490BF68F0A3F090BF68E0B1
:102B1400FEA3E0FF7C007D0A1249ECAA06AB0790F5
:102B2400BBF8E0FEA3E0FF7D641249ECEF2BFFEE5F
:102B34003AFE90BDC6E02FFF90BDC5E03E90C78C25
:102B4400F0A3EFF090C78CE0FEA3E0FFD394C8EEAF
:102B54009400501DEF9400EE940040157B017ABF61
:102B6400796890C7B5E4F0A304F07F807E28022D35
:102B7400D590C78AE0FFA3E090BF68CFF0A3EFF041
:102B84007B017ABF796890C7B5E4F0A304F07F8035
:102B94007E28022DD590BA31E064026003022E86AD
:102BA40090BBF8E0FEA3E0FF90C78AEEF0A3EFF03D
:102BB40064024E601090BBF9E004F0700F90BBF813
:102BC400E004F08007E490BBF8F0A3F090BF68E065
:102BD400FEA3E0FF7C007D0A1249ECAA06AB079035
:102BE400BBF8E0FEA3E0FF7D641249ECEF2BFFEE9F
:102BF4003AFE90BDC6E02FFF90BDC5E03E90C78C65
:102C0400F0A3EFF090C78CE0FEA3E0FFD394C8EEEE
:102C14009400501DEF9400EE940040157B017ABBA4
:102C240079F890C7B5E4F0A304F07F707E28022DF4
:102C3400D590C78AE0FFA3E090BBF8CFF0A3EFF0F4
:102C44007B017ABB79F890C7B5E4F0A304F07F70F8
:102C54007E28022DD590BA37E07004A3E0640460A6
:102C640003022E8690BA31E06003022D3490BDA792
:102C7400E0FEA3E0FF90C78AEEF0A3EFF0643B4EC2
:102C8400701D90BA77E07002A3E06003E4801C90AA
:102C9400BDA8E004F0702A90BDA7E004F080229063
:102CA400BDA7E07004A3E0643C700890BDA7F0A346
:102CB400F0800E90BDA8E004F0700690BDA7E0047B
:102CC400F090BDA7E0FEA3E0FF7C007D3C1249EC40
:102CD40090BA78E02FFF90BA77E03E90C78CF0A3CB
:102CE400EFF090C78CE0FEA3E0D39410EE940E5066
:102CF4001BC3EE940040157B017ABD79A790C7B53C
:102D0400E4F0A304F07F507E28022DD590C78AE01A
:102D1400FFA3E090BDA7CFF0A3EFF07B017ABD79CC
:102D2400A790C7B5E4F0A304F07F507E28022DD508
:102D340090BA31E064016003022E8690BA77E0FE17
:102D4400A3E0FF90C78AEEF0A3EFF0643B4E700857
:102D540090BA77F0A3F0800E90BA78E004F0700691
:102D640090BA77E004F090BDA7E0FEA3E0FF7C00FA
:102D74007D3C1249EC90BA78E02FFF90BA77E03EA0
:102D840090C78CF0A3EFF090C78CE0FEA3E0D3943F
:102D940010EE940E501AC3EE940040147B017ABADC
:102DA400797790C7B5E4F0A304F07F607E28802192
:102DB40090C78AE0FFA3E090BA77CFF0A3EFF07B4F
:102DC400017ABA797790C7B5E4F0A304F07F607E06
:102DD40028125EFF022E8690BA36E06401703690A7
:102DE400BB3AE064156003022E86127B9990BA37D1
:102DF400E07004A3E06404700990BA37F0A304F00F
:102E0400800E90BA38E004F0700690BA37E004F00F
:102E14001273F3806D90BB3AE0C394055006E0044E
:102E2400F0E0805A90BB3AE0B40504E4F0804F909F
:102E3400BA34E06401702090BB3AE0B4090474062B
:102E4400802690BB3AE0B407057409F0800790BB74
:102E54003AE004F0E0802790BA35E06401702390F2
:102E6400BB3AE0B40905740AF0801390BB3AE0B4AD
:102E74000B057409F0800790BB3AE004F0E0FF1200
:102E8400811690BA297401F07D1E7C00E4FF028251
:102E9400DF90BA32E07004A3E0640160030232C53B
:102EA40090BB3AE0641560030230A590BA37E07035
:102EB40004A3E06401706D90BA31E004F0E06403AF
:102EC4007052A3F0A3F090BA31F090BAEAE0FEA3F6
:102ED400E0FF7C007D0A1249ECAA06AB0790BCB265
:102EE400E0FEA3E0FF7D641249ECEF2BFFEE3AFE17
:102EF40090BE80E02FFF90BE7FE03E90C78CF0A391
:102F0400EFF07F001280D890BA37E0FEA3E0FF7D97
:102F1400640230A090BA37E0FEA3E0FF90BA31E03B
:102F2400FD0230A090BA37E07004A3E06402702080
:102F340090BA32F0A3F090BA31F090BC70E0FCA3E8
:102F4400E0FD7F047E811280E27F537E920283053E
:102F540090BA37E07004A3E06403707690BA31E06D
:102F640004F0E06403705BA3F0A3F090BA31F09036
:102F7400BF68E0FEA3E0FF7C007D0A1249ECAA06CC
:102F8400AB0790BBF8E0FEA3E0FF7D641249ECEFD1
:102F94002BFFEE3AFE90BDC6E02FFF90BDC5E03E8C
:102FA40090C78CF0A3EFF090C78CE0FCA3E0FD7F0A
:102FB400027E811280E290BA37E0FEA3E0FF7D64D6
:102FC400800D90BA37E0FEA3E0FF90BA31E0FD0235
:102FD40030A090BA37E07004A3E064046003023BBD
:102FE400C790BA31E004F0E064026003023093A3B6
:102FF400F0A3F090BA31F07B017ABD79A790C7B104
:10300400F0A304F07F507E281258467B017ABA79E7
:103014007790C7B1E4F0A304F07F607E281258468D
:1030240090BDA7E0FEA3E0FF7C007D3C1249EC903C
:10303400BA78E02FFF90BA77E03E90C78CF0A3EF08
:10304400F07B017ABA797790C7B5E4F0A304F07FF6
:10305400607E28125EFF1280D67B017AC7798C903D
:10306400C7B5E4F0A304F07F007E82125EFF7B010B
:103074007AC7798C90C7B5E4F0A304F07F027E820E
:10308400125EFF90BA37E0FEA3E0FF7D64800D90EE
:10309400BA37E0FEA3E0FF90BA31E0FD7C0002679E
:1030A400F090BA31E004F090BB3AE0FF7E0090BAB1
:1030B40031E0FD7C00124D2E90BB3AE0640D705B54
:1030C40090BA31E064047053A3F0A3F090BA31F0E5
:1030D40090BB3A7406F090BAEAE0FEA3E0FF7C00ED
:1030E4007D0A1249ECAA06AB0790BCB2E0FEA3E04D
:1030F400FF7D641249ECEF2BFFEE3AFE90BE80E0B8
:103104002FFF90BE7FE03E90C78CF0A3EFF090C7F6
:103114008CE0FCA3E0FD7F0002321690BB3AE06431
:103124000E704490BA31E06403703CA3F0A3F090B5
:10313400BA31F090BB3A7407F090BF6AE0FEA3E0A6
:10314400FF7C007D0A1249EC90BDDEE02FFF90BDAC
:10315400DDE03E90C78CF0A3EFF090C78CE0FCA3B9
:10316400E0FD7F0802321690BB3AE06410705A907A
:10317400BA31E064047052A3F0A3F090BA31F09035
:10318400BB3A740AF090BF68E0FEA3E0FF7C007DC8
:103194000A1249ECAA06AB0790BBF8E0FEA3E0FFD5
:1031A4007D641249ECEF2BFFEE3AFE90BDC6E02F92
:1031B400FF90BDC5E03E90C78CF0A3EFF090C78CA4
:1031C400E0FCA3E0FD7F02804990BB3AE06411700B
:1031D4004990BA31E064037041A3F0A3F090BA318E
:1031E400F090BB3A740BF090BF14E0FEA3E0FF7CB8
:1031F400007D0A1249EC90BC8DE02FFF90BC8CE05E
:103204003E90C78CF0A3EFF090C78CE0FCA3E0FDE8
:103214007F0A7E811280E20239F790BB3AE06413A0
:10322400706890BA31E064037060A3F0A3F090BAC0
:1032340031F090BB3A7403F0FF12811690BDA7E001
:10324400FEA3E0FF7C007D3C1249EC90BA78E02FAD
:10325400FF90BA77E03E90C78CF0A3EFF01280D6CF
:103264007B017AC7798C90C7B5E4F0A304F07F00A2
:103274007E82125EFF7B017AC7798C90C7B5E4F039
:10328400A304F07F027E820236B990BB3AE0641454
:103294006003023BC790BA31E064026003023BC79B
:1032A400A3F0A3F090BA31F090BB3A7404F0FF128B
:1032B400811690BC70E0FCA3E0FD7F047E81028057
:1032C400E290BB3AE0124CD7330300350101350FCD
:1032D40002351D0335B50435FF0536BC06377907BD
:1032E400380C0838960938B20A39710B39FE0C3A91
:1032F4008A153B7D163B85173B8D1B00003BC77B26
:10330400017AC7798C90C7B1E4F0A304F07F007E02
:103314008112584690C78CE0FAA3E0FB7C007D64E0
:10332400FFAE021249FE90BCB2EEF0A3EFF07C00B7
:103334007D0AAF03AE021249FE7C007D0A1249FEEB
:1033440090BAEAECF0A3EDF090C78CE0FEA3E0FFA6
:103354007C007D0A1249FE90BE7FECF0A3EDF07B69
:10336400017ABC79B290C7B5E4F0A304F07F007E83
:1033740028125EFF7B017ABA79EA90C7B5E4F0A31C
:1033840004F07F107E28125EFF7B017ABE797F9065
:10339400C7B5E4F0A304F07F207E28125EFF7B0112
:1033A4007AC7798C90C7B1E4F0A304F07F027E81E0
:1033B40012584690C78CE0FAA3E0FB7C007D64FFC2
:1033C400AE021249FE90BBF8EEF0A3EFF07C007D54
:1033D4000AAF03AE021249FE7C007D0A1249FE9038
:1033E400BF68ECF0A3EDF090C78CE0FEA3E0FF7C97
:1033F400007D0A1249FE90BDC5ECF0A3EDF07B01FF
:103404007ABB79F890C7B5E4F0A304F07F707E2806
:10341400125EFF7B017ABF796890C7B5E4F0A3041C
:10342400F07F807E28125EFF7B017ABD79C590C74C
:10343400B5E4F0A304F07F907E28125EFF7B017A4E
:10344400C7798C90C7B1E4F0A37402F07F067E8143
:1034540012584690C78CE0FAA3E0FB7C007D3CFF49
:10346400AE021249FE90BDA7EEF0A3EFF07C007D02
:103474003CAF03AE021249FE90BA77ECF0A3EDF034
:103484007B017ABD79A790C7B5E4F0A37402F07FFD
:10349400507E28125EFF7B017ABA797790C7B5E433
:1034A400F0A37402F07F607E28125EFF7B017ABC79
:1034B400797090C7B1E4F0A37402F07F047E8112A6
:1034C40058467B017ABC797090C7B5E4F0A37402C6
:1034D400F07F307E29125EFFE490C78CF0A3F09059
:1034E400BA37F0A304F0FF7E001273FB90BB3A746A
:1034F40015F0FF12811690BA367401F02290BA3496
:103504007401F090BB3A7406023B8290BA357401A0
:10351400F090BB3A740A023B8290BA32E4F0A304FE
:10352400F090BB3A7413F07B017AC7798C90C7B1E1
:10353400E4F0A304F07F067E8112584690C78CE025
:10354400FAA3E0FB7C007D3CFFAE021249FE90BD75
:10355400A7EEF0A3EFF07C007D3CAF03AE0212496E
:10356400FE90BA77ECF0A3EDF07B017ABD79A790D9
:10357400C7B5E4F0A304F07F507E28125EFF7B0100
:103584007ABA797790C7B5E4F0A304F07F607E2817
:10359400125EFF90BB3AE0FF1281167F937E911278
:1035A40083E97F037E921283CEE4FDFC7F70023AAE
:1035B4008590BA32E4F0A304F0FB7ABC797090C72A
:1035C400B1E4F0A304F07F047E811258467B017AB3
:1035D400BC797090C7B5E4F0A304F07F207E291273
:1035E4005EFF90BB3A7414F0FF1281167F137E9233
:1035F4001283E9E4FDFC7F80023A8590C78EE07077
:1036040004A3E06401700790BB3A7417802490C748
:1036140090E07004A3E06401700790BB3A741880D2
:103624001190C794E07004A3E0640190BB3A700960
:103634007419F0FF128116800A7417F0FF128116B4
:1036440012837A90BF43E06003023BC77B017AC7D1
:10365400798C90C7B1F0A37402F07F067E81125872
:103664004690C78CE0FAA3E0FB7C007D3CFFAE02F1
:103674001249FE90BDA7EEF0A3EFF07C007D3CAFB5
:1036840003AE021249FE90BA77ECF0A3EDF07B0191
:103694007ABD79A790C7B5E4F0A304F07F507E28E3
:1036A400125EFF7B017ABA797790C7B5E4F0A30480
:1036B400F07F607E28025EFF90BB3A740DF090BAF2
:1036C40032E4F0A304F07F0D1281167B017AC779EE
:1036D4008C90C7B1E4F0A304F07F007E81125846B9
:1036E40090C78CE0FAA3E0FB7C007D64FFAE02127D
:1036F40049FE90BCB2EEF0A3EFF07C007D0AAF036C
:10370400AE021249FE7C007D0A1249FE90BAEAEC30
:10371400F0A3EDF090C78CE0FEA3E0FF7C007D0AEF
:103724001249FE90BE7FECF0A3EDF07B017ABC79E8
:10373400B290C7B5E4F0A304F07F007E20125EFFD0
:103744007B017ABA79EA90C7B5E4F0A304F07F105C
:103754007E20125EFF7B017ABE797F90C7B5E4F0CC
:10376400A304F07420FFFE125EFF124D24E4FDFC5E
:103774007F10023A8590BB3A740EF090BA32E4F0AE
:10378400A304F0FB7AC7798C90C7B1E4F0A304F0EA
:103794007F087E8112584690C78CE0FAA3E0FB7C38
:1037A400007D0AFFAE021249FE7C007D0A1249FE2A
:1037B40090BF6AECF0A3EDF07C007D0AAF03AE028B
:1037C4001249FE90BDDDECF0A3EDF07B017ABF79E8
:1037D4006A90C7B5E4F0A304F07F107E21125EFF67
:1037E4007B017ABD79DD90C7B5E4F0A304F07F20B6
:1037F4007E21125EFF124D2490BB3AE0FF12811627
:10380400E4FDFC7F20023A8590BB3A740FF090BA35
:1038140032E4F0A304F07F0F12811690BEC2E0FFE1
:10382400A3E090BA2ACFF0A3EFF090BCF2E0FFA39C
:10383400E090BA2CCFF0A3EFF090BC96E0FFA3E0A9
:1038440090BA2ECFF0A3EFF07B017ABA792A90C711
:10385400B5E4F0A304F07F007E22125EFF7B017AC0
:10386400BA792C90C7B5E4F0A304F07F107E22123D
:103874005EFF7B017ABA792E90C7B5E4F0A304F019
:103884007F207E22125EFF124D24E4FDFC7F300275
