:0300000002951C4A
:0800F800FFFF4457494E543547
:10951C00759401759502758E0075930075C87075FC
:10952C00C96075F80075F90175A80075B800759AD1
:10953C000075A90075B90053D0E7787FE4F6D8FD23
:10954C009080007F007E80E4F0A3DFFCDEFA758162
:04955C001B02959BBE
:107B130090C81DEEF0A3EFF0A3EBF0A3EAF0A3E906
:017B2300F071
:107B2400E490C824F0A3F0A3F0A3F0A3F0A3F0A37F
:107B3400F0A3F090C822E0FAA3E0FB4A7003027CB1
:107B4400D290C81DE0FEA3E0FFC3E49FFFE49EFEC5
:107B5400E4FCFD90C82C126F50AF03AE02E4FCFDB0
:107B640090C82CE0F8A3E0F9A3E0FAA3E0FBC31269
:107B74006F19501190C82CA3A3E0FFA3E090C82272
:107B8400CFF0A3EFF090C81DE0FCA3E0FDECC3131D
:107B9400FFED1390C824CFF0A3EFF0ED5401FFA341
:107BA400E4F0A3EFF0C2AFE4F5F190C824E0FCA345
:107BB400E0FDECF5F28DF375F40175F8AF30FCFDE2
:107BC40090C826E07002A3E0603DD2FE20FEFD9046
:107BD400C81FE0FBA3E475F001126D65A9F0FAE596
:107BE400FC126CB490C81FE0FBA3E475F001126DA5
:107BF40065A9F0FAE5FD126CB490C823E024FFF007
:107C040090C822E034FFF090C822E0FCA3E0FDEC31
:107C1400C313FFED1390C828CFF0A3EFF0ED540188
:107C2400FFA3E4F0A3EFF090C82874FFF5F0126D01
:107C34006545F0605BD2FE20FEFD90C81FE0FBA30B
:107C4400E475F001126D65A9F0FAE5FA126CB490CE
:107C5400C81FE0FBA3E475F001126D65A9F0FAE515
:107C6400FB126CB490C81FE0FBA3E475F001126D25
:107C740065A9F0FAE5FC126CB490C81FE0FBA3E41C
:107C840075F001126D65A9F0FAE5FD126CB48097E8
:107C940090C82AE07002A3E0602FD2FE20FEFD907F
:107CA400C81FE0FBA3E475F001126D65A9F0FAE5C5
:107CB400FA126CB490C81FE0FBA3E475F001126DD6
:0E7CC40065A9F0FAE5FB126CB4E4F5F8D2AF56
:017CD200228F
:10838A0090C821EEF0A3EFF0A3EBF0A3EAF0A3E983
:01839A00F0F2
:10839B00E490C828F0A3F0A3F0A3F0A3F0A3F0900F
:1083AB00C826E07002A3E0700302851C90C821E090
:1083BB00FEA3E0FFC3E49FFFE49EFED390C827E03B
:1083CB009F90C826E09E4005EEF0A3EFF090C821E9
:1083DB00E0FAA3E0FBEAC313FCEB13FDEB5401FF44
:1083EB0090C828E4F0A3EFF0C2AFE4F5F1ECF5F29E
:1083FB00AF058FF375F40175F88330FCFD90C82839
:10840B00E07002A3E0603D90C823E0FBA3E475F0AD
:10841B0001126D65A9F0FA126C6EF5FC90C823E0A1
:10842B00FBA3E475F001126D65A9F0FA126C6EF501
:10843B00FDD2FE20FEFD90C827E024FFF090C82659
:10844B00E034FFF090C826E0FCA3E0FDECC313FF83
:10845B00ED1390C82ACFF0A3EFF0ED5401FFA3E486
:10846B00F0A3EFF075F88F90C82A74FFF5F0126D3A
:10847B006545F0605B90C823E0FBA3E475F0011247
:10848B006D65A9F0FA126C6EF5FA90C823E0FBA3A8
:10849B00E475F001126D65A9F0FA126C6EF5FB90A4
:1084AB00C823E0FBA3E475F001126D65A9F0FA1285
:1084BB006C6EF5FC90C823E0FBA3E475F001126D24
:1084CB0065A9F0FA126C6EF5FDD2FE30FE9980FBB9
:1084DB0090C82CE07002A3E0603275F88C90C82332
:1084EB00E0FBA3E475F001126D65A9F0FA126C6E56
:1084FB00F5FA90C823E0FBA3E475F001126D65A9B2
:10850B00F0FA126C6EF5FBD2FE20FEFDE4F5F8D20C
:01851B00AFB0
:01851C00223C
:1088340090C91DEEF0A3EFF0A3EBF0A3EAF0A3E9D7
:01884400F043
:10884500A3E0FEA3E0FF4E70030289AD90C91DE0D1
:10885500FCA3E0FDC3E49DFDE49CFCD3EF9DEE9CF1
:10886500400AAF0590C922ECF0A3EFF090C91DE0D6
:10887500FCA3E0FDECC313FEED13FBAA06ED5401CA
:10888500FDC2AFE4F5F1EAF5F2AF038FF375F4013C
:1088950075F88330FCFDED604FC390C923E0940269
:1088A50090C922E0940050030289A890C91FE0FBFB
:1088B500A3E475F001126D65A9F0FA126C6EF5FC72
:1088C50090C91FE0FBA3E475F001126D65A9F0FAEC
:1088D500126C6EF5FDD2FE20FEFD90C923E024FE4C
:1088E500F090C922E034FFF090C922E0FEA3E078C1
:1088F50002CEC313CE13D8F9FF75F88FEF1FAC0660
:1089050070011E4C605B90C91FE0FBA3E475F0018C
:10891500126D65A9F0FA126C6EF5FA90C91FE0FBAD
:10892500A3E475F001126D65A9F0FA126C6EF5FB02
:1089350090C91FE0FBA3E475F001126D65A9F0FA7B
:10894500126C6EF5FC90C91FE0FBA3E475F00112F3
:108955006D65A9F0FA126C6EF5FDD2FE30FE9D80B4
:10896500FB90C923E030E1047F0180027F00EF60C6
:108975003275F88C90C91FE0FBA3E475F001126D08
:1089850065A9F0FA126C6EF5FA90C91FE0FBA3E435
:1089950075F001126D65A9F0FA126C6EF5FBD2FE49
:0889A50020FEFDE4F5F8D2AF5D
:0189AD0022A7
:10AEBE00EC90C953F0EDA3F07B017AC9795390C998
:0AAECE0022E4F0A37402F0028834BD
:10AF5800EF4E6010E4FD0DEDC3943240F9EF1F7021
:04AF6800EF1E80EC6C
:01AF6C0022C2
:089DE30090C92BEEF0A3EFF094
:109DEB00A3745AF0A37401F090C92BE0FCA3E0FD1F
:109DFB00EC90C92FF0A3EDF07B017AC9792D90C8B7
:109E0B0026E4F0A37402F07F847E0012838A7FF431
:109E1B007E0112AF587B017AC9792D90C822E4F0EC
:109E2B00A37402F07F147E00127B1390C92BE0FE0B
:109E3B00A3E0FFA3E0B506D6A3E0B507D1E490C934
:109E4B002DF0A3F0A3F0A3F07B017AC9792D90C874
:0D9E5B0026F0A37402F07F167E0002838AB9
:08A7980090C800EEF0A3EFF001
:10A7A000E4A3F0A3F090C800E0FEA3E0FFC390C8CC
:10A7B00003E09F90C802E09E5025E4FBFA7F017EF3
:10A7C0000012AF580BBB00010ABA01F1BB2CEE908E
:0FA7D000C803E004F070CE90C802E004F080C629
:01A7DF002257
:10A7E000EF14601814602314602E24037039740170
:10A7F000A805088002C333D8FC42B7227401A8051B
:10A80000088002C333D8FC42BC227401A80508802A
:10A8100002C333D8FC42BD22AF057401A8070880EB
:08A8200002C333D8FC42BE2242
:10A6B800EF1460191460251460312403703D74018F
:10A6C800A805088002C333D8FCF452B7227401A845
:10A6D80005088002C333D8FCF452BC227401A805D3
:10A6E800088002C333D8FCF452BD22AF057401A818
:0CA6F80007088002C333D8FCF452BE22D5
:109A9100EF14602D14604A14606724036003029B75
:109AA10023EB600E7401A805088002C333D8FC4281
:109AB10080227401A805088002C333D8FCF45280C7
:109AC10022EB600E7401A805088002C333D8FC4262
:109AD10090227401A805088002C333D8FCF4529087
:109AE10022EB600E7401A805088002C333D8FC4242
:109AF100A0227401A805088002C333D8FCF452A047
:109B010022EB600E7401A805088002C333D8FC4221
:109B1100B022AF057401A807088002C333D8FCF452
:039B210052B0221D
:10A47500EF14601A146027146034240370427401C9
:10A48500A805088002C333D8FC5580FE80347401CA
:10A49500A805088002C333D8FC5590FE80247401BA
:10A4A500A805088002C333D8FC55A0FE8014AF056B
:10A4B5007401A807088002C333D8FC55B0FE80029A
:04A4C500E4FEAF06FC
:01A4C9002270
:10AD6B00758911E4F58CF58AC28CF518F51A4389AF
:0EAD7B0001758CBC758ACDD2A9D2AFD28C22C4
:03000B00029F5BF6
:0D9F5B00C0E0C0D075D000C000C006C00737
:109F6800C2AF758CBC758ACD0519751B0074017E4E
:109F780000A81B088005C333CE33CED8F9FFEF55B0
:109F88001A602DE51B25E02408F808E6161870016C
:109F980016E51B25E02408F8E6FE08E64E7011AF2A
:109FA8001B04A807088002C333D8FC4218F4521ACD
:099FB800051BE51BB408B6D2AF8D
:0B9FC100D007D006D000D0D0D0E03296
:10AED800758911E4F58DF58BC28ED2AF4389107553
:0AAEE8008DBC758BCDD2ABD28E224B
:03001B0002AFF43D
:0DAFF400C2AF758DBC758BCDB290D2AF325F
:10AF970075C8F075CD58E4F5CC75CB58F5CA43C8DC
:04AFA70001D2AD2204
:03002B0002B00D13
:09B00D00C2AFC2C6B291D2AF324B
:10AD0900C2AF7401A807088002C333D8FCFE421AF7
:10AD1900EF25E02408F8A60408A605EEF45218D297
:02AD2900AF2257
:10AF6D00C2AF7401A807088002C333D8FCF4521A8B
:05AF7D005218D2AF22C2
:10AFBF00C2AF7401A807088002C333D8FC5518FF2D
:02AFCF00D2AFFF
:01AFD100225D
:10A61C00AB07AA06A905A8047F007E387D317C0013
:10A62C00126E71C3E49F90C7FFF074049E90C7FE36
:10A63C00F043C9407D04E4FF12A7E07D05E4FF125E
:10A64C00A6B843803075D88075985090C7FEE0FC52
:0DA65C00A3E0FDECF5BA8DAA43A810D2AC26
:01A6690022CE
:10A74F00AB07AA06A905A8047F007E707D627C0076
:10A75F00126E71C3E49F90C7FFF074049E90C7FE02
:10A76F00F043C9207D06E4FF12A7E07D07E4FF1246
:10A77F00A6B84380C0759B9090C7FEE0FCA3E0FD98
:08A78F00ECF5BB8D9D439A011E
:01A79700229F
:10AA0C00759680759780AB07AA06A905A8047F00E8
:10AA1C007EC07D897C01126E71AD07AC06ECF5D958
:10AA2C00AF058FE743B80CE4909812F0A3F0A3F0B5
:10AA3C00A3F090981AF0909816F0A3F0A3F0A3F05E
:01AA4C0022E7
:10ACBE0075A78075AB80AB07AA06A905A8047F000F
:10ACCE007EC07D897C01126E71AD07AC06ECF5AECF
:07ACDE00AF058FAF43B83052
:01ACE500224C
:10A5C900EF14601B1460291460372403704490C78A
:10A5D900FAE0FCA3E0FDA3E0FEA3E0FF02A61C90C5
:10A5E900C7FAE0FCA3E0FDA3E0FEA3E0FF02A74F4A
:10A5F90090C7FAE0FCA3E0FDA3E0FEA3E0FF02AAF6
:10A609000C90C7FAE0FCA3E0FDA3E0FEA3E0FF1273
:03A61900ACBE22B2
:107E910090C7F9EFF0A3ECF0A3EDF0A3EBF0A3EAA8
:047EA100F0A3E9F071
:107EA500C2AFE4A3F0A3F090C7FAE0FEA3E0FFC3DE
:107EB50090C800E09F90C7FFE09E4003027F699055
:107EC500C7FCE0FBA3E475F001126D65A9F0FA1299
:107ED5006C6EFF90C7F9E0FE75F009A42400F582E9
:107EE500E5F03488F583EE75F008A42583F583E085
:107EF500FCA3E0FD75F009EEA42400F582E5F0345D
:107F050080F583EE75F008A42583F583E5822DF5CC
:107F150082E5833CF583EFF075F009EEA42400F5C6
:107F250082E5F03488F583EE75F008A42583F583A2
:107F3500E475F001126D4F75F009EEA42400F58289
:107F4500E5F03488F583EE75F008A42583F583E024
:107F55005403F090C800E004F0700690C7FFE004F9
:107F6500F0027EAC90C7F9E01460421460701470A2
:107F75000302801124036003028041908808E060B9
:107F85000302804104F0908802E0FEA3E02400F59E
:107F95008274803EF583E0F599908803E004F070E3
:107FA50006908802E004F090880202803D909011CE
:107FB500E0600302804104F090900BE0FEA3E02412
:107FC50009F58274883EF583E0F59C90900CE004F9
:107FD500F0700690900BE004F090900B805A90980A
:107FE5001AE0705804F0909814E0FEA3E02412F50E
:107FF5008274903EF583E0F59E909815E004F0704C
:1080050006909814E004F0909814802C90A023E03A
:10801500702A04F090A01DE0FEA3E0241BF58274F5
:10802500983EF583E0F5AC90A01EE004F070069054
:0E803500A01DE004F090A01DE05403F0D2AFB7
:01804300221A
:03002300029C45F7
:109C4500C0E0C083C082C0D075D000C006C007C2C6
:109C5500AF30982AC298908804E0FEA3E02400F56E
:109C65008274843EF583E599F0908805E004F070F0
:109C750006908804E004F0908804E05403F03099DD
:109C85003FC299908802E0FEA3E0FF908800E06E55
:109C95007003A3E06F602474002FF58274803EF595
:109CA50083E0F599908803E004F07006908802E05F
:109CB50004F0908802E05403F08005908808E4F0F1
:0F9CC500D2AFD007D006D0D0D082D083D0E0323B
:0300530002A24DB9
:10A24D00C0E0C083C082C0D075D000C006C007C2B8
:10A25D00AF5396FE909814E0FEA3E0FF909812E0A5
:10A26D006E7003A3E06F602474122FF58274903E1C
:10A27D00F583E0F59E909815E004F0700690981423
:10A28D00E004F0909814E05403F0800590981AE4DF
:10A29D00F0D2AFD007D006D0D0D082D083D0E0326C
:03005B0002A828D0
:10A82800C0E0C083C082C0D075D000C006C2AF539C
:10A8380097FE909816E0FEA3E02412F58274943EE9
:10A84800F583E59FF0909817E004F070069098164D
:10A85800E004F0909816E05403F0D2AFD006D0D0C0
:07A86800D082D083D0E03262
:0300630002A2AD49
:10A2AD00C0E0C083C082C0D075D000C006C007C258
:10A2BD00AF53A7FE90A01DE0FEA3E0FF90A01BE012
:10A2CD006E7003A3E06F6024741B2FF58274983EAB
:10A2DD00F583E0F5AC90A01EE004F0700690A01D93
:10A2ED00E004F090A01DE05403F0800590A023E45D
:10A2FD00F0D2AFD007D006D0D0D082D083D0E0320C
:03006B0002A86F79
:10A86F00C0E0C083C082C0D075D000C006C2AF5355
:10A87F00ABFE90A01FE0FEA3E0241BF582749C3E6C
:10A88F00F583E5ADF090A020E004F0700690A01FD6
:10A89F00E004F090A01FE05403F0D2AFD006D0D068
:07A8AF00D082D083D0E0321B
:030083000299F6E9
:1099F600C0E0C083C082C0D075D000C006C007C218
:109A0600AFE59B30E02E759B90539BFE90900DE04A
:109A1600FEA3E02409F582748C3EF583E59CF09064
:109A2600900EE004F0700690900DE004F090900D1A
:109A3600E05403F0E59B30E143759B90539BFD900A
:109A4600900BE0FEA3E0FF909009E06E7003A3E0A8
:109A56006F602474092FF58274883EF583E0F59CC7
:109A660090900CE004F0700690900BE004F090905B
:109A76000BE05403F08005909011E4F0D2AFD007CC
:0B9A8600D006D0D0D082D083D0E032D8
:10AF82007596807597807C00ECF5D975E7E0759E23
:04AF92000D53B8F3B0
:01AF96002298
:0BACE60090C831EBF0A3EAF0A3E9F006
:10ACF10090C85C7401F0A374C8F0A37434F090C8D8
:07AD01005CE4F0A3F0A3F0F5
:01AD08002228
:02B0240080FEAC
:054C720042C9550000DD
:10975900E490C7F4F0A3F0A3740AF0A3740DF0A386
:1097690074EFF012AD6B12AED812794CE4FD7F02A2
:1097790012A6B87D607CEAE4FF12AD097DF47C0194
:109789007F0112AD09129EE5D2AF90BB5CE0FF12DA
:10979900ABEF1281F67D887C137F0712AD097B013F
:1097A9007AC779F590C826E4F0A304F07F007E8299
:1097B90012838A1243B012A98790C955E07002A397
:1097C900E070187F0712AFBFEF601090C955E4F041
:1097D900A304F090BB5CF0FF12ABEF90C955E070A9
:1097E90002A3E060D112A9CA12A11A12851D90C75D
:0B97F900F2EEF0A3EFF012010080BBC5
:104C770041BF960042BB60000041BA930044BE9614
:104C87000000000046BA8A000000000000604EBA2B
:104C97003C000000010002000300040005000600BC
:104CA7000700080009000A000B000C000D000E00A9
:104CB7000F00100011001200130014001500160059
:104CC7001700180019001A001B001C001D001E0009
:104CD7001F00200021002200230024002500264277
:104CE700BC7A000041BFAD0042BAED000042BC31C2
:104CF700000050BF1F00000000000000000000007F
:104D0700000000000050BD2D000000000000000062
:104D1700000000000000000050BCD00000000000B0
:104D2700000000000000000000000042BFDA0000A1
:104D370042BE25000042BC27000042BFD50000420A
:104D4700BE0A000042BF76000042BCCA000042BD56
:104D5700E9000042BA91000042BCA9000041BF1619
:104D67000042BFDC000042BAF0000042BB5E000018
:104D770041BA940041BED60141BED70241BEE0030D
:104D870041BEE90441BEEA0541BEF50641BEF6074C
:104D970041BAEF0841BBA10941BC250A41BDB30B8C
:104DA70041BB5B0C41BBA00D41BCC80E41BD2C0FE4
:104DB70041BF951041BFD91141BB9F1241BEFF139F
:104DC70041BF941441BAF31541BF751641BEB617DA
:104DD70041BB9A1841BB5D1941BAF21A41BC491B44
:104DE70041BB7E1C41BE241D41BECE1E41BD761F68
:104DF70041BFD42041BCC92141BF862241BAB92352
:104E070041BEBE2441BB722541BD752642BEB700D7
:104E17000142BEC800C842BDF3000142BE2200C81D
:104E270042BFCA000042BFD7001442BED4000042AE
:104E3700BEDE0E1042BF84E24042BBB8000042BE55
:104E47003B00004ABB68C720C8000020C138D30513
:104E57004CBC580049004F0020D14CC2A4D2B84CDA
:104E6700BE9AACF5C7A50020CD08AE30D6544EBBD0
:104E7700BBB85CADF8002000260020C5D0B7EC4ACF
:104E8700BC0BC791B3D90020C2DCAC0444BB9BC5A3
:104E9700B8C5B448BF7CD68CC0ACC18CAC1C4EBC6A
:104EA70017C5D4C9C0B2C8C5B40020BAA8B4DC4A73
:104EB700BB51C0C1D3100020C628B3C44ABF97D581
:104EC70058D3100020C628B3C444BFEAC555B82537
:104ED70048BAB1C9C0C5F0C2DCAC044ABEEBC0C118
:104EE700D3100020D788D1304ABD7FD558D31000C2
:104EF70020D788D13048BFCCC0C1D3100020D32CD5
:104F070048BEE1D558D3100020D32C48BEF7CF6454
:104F1700D504B808C0E44ABC70C194B808B178C7D2
:104F270074B4DC4CBDA7B370C774D130C774D1302B
:104F3700B97C52BDD7CD08AE30D654D558C2DCACFB
:104F4700A0C2B5B2C8AE4C44BF78D655C77844BFE7
:104F5700BCCDE8C18C4ABAA7D65CC1310020B85C89
:104F6700ADF84ABEACC5D0B7EC0020B85CADF84888
:104F7700BF0EAC00C5F4C2DCAC0442BC09D32C4460
:104F8700BEDAC601C5B446BEA6C911AD6DC5B446E5
:104F9700BB62D55CAD6DC5B44ABFC0C6A9B9ACCFBD
:104FA70054B9ACC54446BBEBACBDAE30B3C44EBF81
:104FB70000D30CC8FCC2DC0020C870B9ACC74D4E8A
:104FC700BC9BB2F9C7ACBD09B85C00200032003900
:104FD70058BCAE003000330031002D0039003500D9
:104FE70033002D00340030003600334CBF880041B9
:104FF7000044004D0049004E000058BFFA0055001C
:10500700530045005200200053004500540054004F
:1050170049004E00474EBFAE0049004F00200054E4
:105027000045005300545CBD10004600410043009A
:1050370054004F00520059000D000A00520045006D
:10504700530045005456BB25004C004F0047002035
:1050570000260020004500520052004F005250BD6C
:105067008900520055004E002000540049004D00B1
:105077004550BADD004C0041004E00470055004145
:105087000047004558BF2F0043004F004D00500018
:1050970041004E005900200049004E0046004F5A7B
:1050A700BB800045004E00470049004E00450045C3
:1050B70000520020004D004F0044004550BDFA004B
:1050C70054004F0050002000540045004D0050563A
:1050D700BC330042004F00540054004F004D0020E5
:1050E70000540045004D005050BCE00050005200F5
:1050F700450053005300550052004554BD6100441C
:105107000045004C00410059002000540049004D63
:10511700004554BE470054004F005000200048008F
:105127004500410054004500525ABC7E0042004FE2
:1051370000540054004F004D002000480045004136
:105147000054004500524EBF670054004F00500006
:105157002000460041004E54BE270042004F005435
:105167000054004F004D002000460041004E54BE41
:10517700820043004F004D0050005200450053008D
:1051870053004F005250BBA80053004F004C00453E
:10519700004E004F0049004448BEC0004400410093
:1051A70054004156BE6C0049004E00490054004966
:1051B7000041004C0049005A0045003F46BC5200E0
:1051C700590045005344BED0004E004F54BD4D001A
:1051D70041004300540049005600450020004C00A0
:1051E7004F004752BB13004500520052004F005278
:1051F7000020004C004F00474EBE140045004E00F3
:1052070047004C0049005300484EBD3F004300484B
:105217000049004E0045005300454CBFEE004B00CF
:105227004F005200450041004E58BF4F0059004FF4
:10523700004E0047004C00490020004B004F005231
:105247000045004156BB3B004700590045004F0051
:105257004E004700470049002D0044004F6022BA26
:10526700BB00500041004A0055002D005300490083
:105277002C0020004A004F00520049002D00450035
:105287005500506022BBC90032003900200044009D
:1052970061006E0067006A006100650062006F00D0
:1052A7006E0067002D0072006F6022BDB5004400DC
:1052B70041004E0047004A004100450042004F00B0
:1052C7004E0047002D0052004F00200032003948A1
:1052D700BFE2752862378BBE7F6E48BFA5004900C5
:1052E7004F6D4B8BD54ABCF25DE55382521D59CBAE
:1052F70053164EBAFC65E55FD700200026002095BF
:10530700198BEF48BD778FD0884C65F695F444BA72
:10531700A38BED8A0048BF17516C53F87B804ECBA7
:105327004ABB745DE57A0B5E086A215F0F4ABE3D92
:105337009876677F52A070ED56684ABC665E95679F
:105347007F52A070ED566848BF479876677F98CE22
:10535700624748BE0C5E95677F98CE624746BE653A
:10536700538B7F29673A46BBA2753578C1960048AB
:10537700BDEB9876677F6E295EA648BC295E956768
:105387007F6E295EA644BCCC538B529B48BD085EFA
:10539700F68FDF65F695F444BEBA6570636E4ABE54
:1053A7005B521D59CB53165417003F44BC4C786EC3
:1053B7008BA444BECA53D66D8848BD008FD0884C95
:1053C70065E55FD748BAF495198BEF65E55FD74474
:1053D700BDF682F18BED44BCFC4E2D658744BFDEE4
:1053E70097E98BED46BB0D4EAC757F90534EBA9542
:1053F70057615DDE5E020020676191CC90914EBDE2
:10540700995802624D5CF08DEF0020003200395848
:10541700BBF1003000330031002D00390035003377
:10542700002D003400300036003341BDB40041BBCD
:10543700BA0042BD3D000042BCC6000042BFA30007
:105447000042BC15000041BC9A0041BB7F0041BF30
:10545700870041BCAD0041BFA10041BA900041BDEA
:10546700F50041BB0C0041BC260041BEB90041BB61
:10547700730041BE6B0041BABA0041BEBF0042BCD7
:105487004A000042BC50000042BC64000042BC7CA1
:10549700000042BC98000042BCAB000041BFA20024
:1054A70041BA290041BA2A0041BA2B0041BA2C005F
:1054B70041BA2D0041BA2E0041BA2F0042BA30003E
:1054C7000042BA32000042BA34000042BA36000045
:0554D70042BA3800009C
:109E680090BA36F0A3F090BA2BF090BB0AE0FEA3AC
:109E7800E0FF7C007D0A126CE8AA06AB0790BCF0F4
:109E8800E0FEA3E0FF7D64126CE8EF2BFFEE3AFEE4
:109E980090BED9E02FFF90BED8E03E90C7FDF0A35A
:0E9EA800EFF07F0090C7FDE0FCA3E0FD7E819F
:109EB60090BA3AEEF0A3EFF090BFDCECF0A3EDF031
:109EC60090BF167401F0FB7ABF79DC90C826E4F0E7
:0F9ED600A304F012838A7DBC7C027F0602AD09D3
:0CB00100E490BF16F090BB5EF0A3F022BC
:10A11A0090BF16E060637F0612AFBFEF605B90BA34
:10A12A003AE0FEA3E0FF7B017ABA79F090C822E414
:10A13A00F0A304F0127B1390BAF0E0FEA3E0FF90C4
:10A14A00BFDCE0FCA3E0FDB50707ECB5060302B0EF
:10A15A0001C390BB5FE0940290BB5EE0940050198B
:10A16A0090BA3AE0FEA3E0FF129EB690BB5FE0040D
:0AA17A00F0700690BB5EE004F022D6
:10AE1C0090C95774C0F0A37464F07B017AC9795758
:0BAE2C0090C826E4F0A304F002838A23
:10AE370090C81F7418F0A374E3F07B017AC8791FD8
:0BAE470090C826E4F0A304F002838A08
:04AD4C007F037E10F3
:10AD500090C81F74FFF0A37460F07B017AC8791F5C
:0BAD600090C826E4F0A304F002838AF0
:10AE520090C81F7405F0A3741DF07B017AC8791F96
:0BAE620090C826E4F0A304F002838AED
:10AE6D0090C95974CEF0A37459F07B017AC9795900
:0BAE7D0090C826E4F0A304F002838AD2
:04ADE3007F237E50FC
:10ADE70074FF90C81DF0A3F07B017AC8791D90C845
:09ADF70026E4F0A304F002838AB3
:06B01E00E490BA93F02259
:108DC40090C81DECF0A3EDF0EE6003028ED6EF2404
:108DD400FE605E14605F147003028E9B24036003C4
:108DE400028ED690C81DE0FEA3E0FFEE7035EF14AE
:108DF400601514601E2402702A12AD4C7F137E107D
:108E040012AD507F33805412AD4C7F137E1012AEDE
:108E140052801A7F037E1012AE527F137E1012AD61
:108E240050800A12AD4C7F137E1012AD507F3380F8
:108E3400627F53802690C81DE0FEA3E0FFEE7043DE
:108E4400EF14601B14602A240270387F637E1012B2
:108E5400AD507F737E1012AD507F837E1080627F91
:108E6400637E1012AD507F737E1012AE527F8380EA
:108E7400227F637E1012AE527F737E1012AD507F3C
:108E84008380107F637E1012AD507F737E1012AD0D
:108E9400507F837E10803890C81DE0FEA3E0FFEE73
:108EA4007022EF14601004701B7F137E1112AE52F7
:108EB4007F337E1180197F137E1112AD507F337E74
:108EC4001102AE527F137E1112AD507F337E111208
:038ED400AD50227C
:0A70100090BB5CE0FF7E00E4FDFC95
:10701A0090C81DECF0A3EDF0EE600302738AEF2432
:10702A00F0B40800400302738A90704175F003A41B
:10703A00C58325F0C583730270590270D60271396F
:10704A000271B6027233027296027312027364906C
:10705A00C81DE07002A3E070177F537E1112AE378D
:10706A007F637E1112AE377F737E1112AE52804259
:10707A0090C81DE07004A3E0640170107F537E1174
:10708A0012AE377F637E1112AE52801F90C81DE088
:10709A007004A3E064027F537E11700512AE528021
:1070AA000312AE377F637E1112AE377F737E1112E1
:1070BA00AE3790C81DE07004A3E0640370047D013C
:1070CA008002E4FDFC7F807E2102738790C81DE068
:1070DA007002A3E070107F937E1112AE377F037E99
:1070EA001212AE52802F90C81DE07004A3E0640112
:1070FA0070097F937E1112AE52801390C81DE07002
:10710A0004A3E06402700E7F937E1112AE377F03F0
:10711A007E1212AE3790C81DE07004A3E0640270BC
:10712A00047D018002E4FDFC7F107E2202738790B9
:10713A00C81DE07002A3E070177F237E1212AE37DB
:10714A007F837E9012AE377F937E9012AE5280423A
:10715A0090C81DE07004A3E0640170107F237E12C2
:10716A0012AE377F837E9012AE52801F90C81DE008
:10717A007004A3E064027F237E12700512AE52806F
:10718A000312AE377F837E9012AE377F937E9012C2
:10719A00AE3790C81DE07004A3E0640370047D015B
:1071AA008002E4FDFC7F307E3902738790C81DE0BF
:1071BA007002A3E070177F637E1212AE377F337EB0
:1071CA001212AE377F437E1212AE52804290C81D11
:1071DA00E07004A3E0640170107F637E1212AE3780
:1071EA007F337E1212AE52801F90C81DE07004A336
:1071FA00E064027F637E12700512AE52800312AE03
:10720A00377F337E1212AE377F437E1212AE37902B
:10721A00C81DE07004A3E0640370047D018002E4E9
:10722A00FDFC7F507E2202738790C81DE07002A386
:10723A00E070107F037E1312AE377413FFFE12AE96
:10724A0052802F90C81DE07004A3E0640170097F8A
:10725A00037E1312AE52801390C81DE07004A3E09F
:10726A006402700E7F037E1312AE377413FFFE1290
:10727A00AE3790C81DE07004A3E0640270047D017B
:10728A008002E4FDFC7F207E2302738790C81DE004
:10729A007002A3E070177F337E1312AE377F437EEE
:1072AA001312AE377F537E1312AE52804290C81D1E
:1072BA00E07004A3E0640170107F337E1312AE37CE
:1072CA007F437E1312AE52801F90C81DE07004A344
:1072DA00E064027F337E13700512AE52800312AE51
:1072EA00377F437E1312AE377F537E1312AE379029
:1072FA00C81DE07004A3E0640370047D018002E409
:10730A00FDFC7F607E23807590C81DE07002A3E0BB
:10731A0070097F737E1312AE52801F90C81DE070F1
:10732A0004A3E064017F737E13700C12AE377F836F
:10733A007E1312AE52800A12AE377F837E1312AECC
:10734A003790C81DE07004A3E0640270047D0180D8
:10735A0002E4FDFC7F907E23802390C81DE0700428
:10736A00A3E064017F037E14700912AE377D017CAD
:10737A0000800612AE52E4FDFC7F107E2412AD8E10
:01738A0022E0
:05AD8900E4FDFC7F90D9
:10AD8E0090C81FECF0A3EDF07B017AC8791F90C834
:09AD9E0026E4F0A304F002838A0C
:10ABEF0090BE96745AF0A37401F0E4A3F0EF25E041
:10ABFF00243CF582E434BAF583A3E090BE99F07B50
:10AC0F00017ABE799690C826E4F0A37402F07F848F
:05AC1F007E0002838AA3
:08B0160090BB5CEFF002ABEF10
:10A3C9007F037E1012ADE77F137E1012ADE77F3356
:10A3D9007E1012ADE77F437E1012ADE77F537E10EA
:10A3E90012ADE77F637E1012ADE77F737E1012AD69
:10A3F900E77F837E1012ADE77F137E1112ADE77FF1
:10A40900337E1112ADE77F737E9212ADE7E4FDFC56
:06A41900FF7E3002AD8E53
:079CD40090BA2FE0FF7E00B3
:109CDB0090C81DEEF0A3EFF064014E701512AD4C61
:109CEB007F137E1012AD507F337E1012AD507D016D
:109CFB00803C90C81DE07004A3E06402700D7F43AC
:109D0B007E1012AD507F537E10804390C81DE070C3
:109D1B0004A3E0640370207F637E1012AD507F7349
:109D2B007E1012AD507F837E1012AD507D027C00F1
:109D3B007F007E3002AD8E90C81DE07004A3E064FE
:109D4B0004700E7F137E1112AD507F337E1112AD56
:029D5B00502294
:04A66A00AB07AA068A
:10A66E007C007D3C126CFA90C7FBEEF0A3EFF0AECF
:10A67E0002AF037C007D3C126CFAA3ECF0A3EDF06C
:10A68E007B017AC779FB90C826E4F0A304F07F1013
:10A69E007E2112838A7B017AC779FD90C826E4F069
:0AA6AE00A304F07F307E2102838AAE
:08A41F0090BC15E0FEA3E0FF74
:04A42700AB07AA06CF
:10A42B007C007D3C126CFA90C81DEEF0A3EFF0AEF1
:10A43B0002AF037C007D3C126CFAA3ECF0A3EDF0B1
:10A44B007B017AC8791D90C826E4F0A304F07F0045
:10A45B007E3112838A7B017AC8791F90C826E4F07B
:0AA46B00A304F07F007E3202838A12
:10AA4D0090BBBA7401F07F037E1112AD507F137E5F
:10AA5D001112AD507F237E1112AD507F337E111236
:10AA6D00AD507B017ABC791590C822E4F0A304F0B7
:10AA7D007F067E81127B137DE87C037F0502AD0985
:10AD2B00E490BBBAF07F037E1112ADE77F137E1167
:10AD3B0012ADE77F237E1112ADE77F337E1102AD9B
:01AD4B00E720
:10A9CA0090BBBAE070077F037E1102ADE77F0512E4
:10A9DA00AFBFEF602C90BC16E024FFF090BC15E0EE
:10A9EA0034FFF012A422D390BC16E0940090BC1558
:10A9FA00E09400500302AD2B7DE87C037F0512AD85
:02AA0A0009221F
:1081F600E490C7F9F0A3F07B017ABC79A990C82274
:10820600F0A304F07F047E81127B137B017AC77989
:10821600F990C822E4F0A304F07F007E81127B135C
:1082260090C7F9E0FAA3E0FB7C007D64FFAE021282
:108236006CFA90BCF0EEF0A3EFF07C007D0AAF0381
:10824600AE02126CFA7C007D0A126CFA90BB0AEC44
:10825600F0A3EDF090C7F9E0FEA3E0FF7C007D0AF5
:10826600126CFA90BED8ECF0A3EDF07B017AC779D8
:10827600F990C822E4F0A304F07F027E81127B13FA
:1082860090C7F9E0FAA3E0FB7C007D64FFAE021222
:108296006CFA90BC27EEF0A3EFF07C007D0AAF03EA
:1082A600AE02126CFA7C007D0A126CFA90BFD5EC15
:1082B600F0A3EDF090C7F9E0FEA3E0FF7C007D0A95
:1082C600126CFA90BE0AECF0A3EDF07B017ABC7951
:1082D600C690C822E4F0A304F07F067E81127B13C9
:1082E60090BCC6E0FEA3E0FF12A66A7B017AC779BE
:1082F600F990C822E4F0A304F07F087E81127B1374
:1083060090C7F9E0FAA3E0FB7C007D0AFFAE0212FB
:108316006CFA7C007D0A126CFA90BFDAECF0A3EDE1
:10832600F07C007D0AAF03AE02126CFA90BE25EC1B
:10833600F0A3EDF07B017AC779F990C822E4F0A3A7
:1083460004F07F0A7E81127B1390C7F9E0FAA3E05E
:10835600FB7C007D0AFFAE02126CFA7C007D0A12DD
:108366006CFA90BF76ECF0A3EDF07C007D0AAF03CB
:10837600AE02126CFA90BCCAECF0A3EDF07F737EED
:048386009202ADE7CB
:108C7B0090BC9AE0B408004003028DC3908C8EF830
:108C8B00282873028CA6028CB2028CC9028CE302D8
:108C9B008D04028D2C028D5B028D8F7F137E501203
:108CAB00AD5012ADE3800E7F137E5012ADE77F23E4
:108CBB007E5012AD507F337E5012ADE780117F1383
:108CCB007E5012ADE712ADE37F337E5012AD507F75
:108CDB00437E5012ADE780187F137E5012ADE71222
:108CEB00ADE37F337E5012ADE77F437E5012AD5024
:108CFB007F537E5012ADE7801F7F137E5012ADE77E
:108D0B0012ADE37F337E5012ADE77F437E5012AD41
:108D1B00E77F537E5012AD507F637E5012ADE780DC
:108D2B00267F137E5012ADE712ADE37F337E5012D8
:108D3B00ADE77F437E5012ADE77F537E5012ADE718
:108D4B007F637E5012AD507F737E5012ADE7802D46
:108D5B007F137E5012ADE712ADE37F337E5012AD21
:108D6B00E77F437E5012ADE77F537E5012ADE77F16
:108D7B00637E5012ADE77F737E5012AD507F437E02
:108D8B005602ADE77F137E5012ADE712ADE37F3392
:108D9B007E5012ADE77F437E5012ADE77F537E507E
:108DAB0012ADE77F637E5012ADE77F737E5012AD3D
:098DBB00E77F437E5612AD502201
:108FEA0090BF87E014604614607B1470030290A857
:108FFA00240360030290E490BCADE070097F037E15
:10900A005112ADE7800D90BFA1E0700B7F037E5136
:10901A0012AD507F13806E90BFA1E064016003021D
:10902A0090E47F037E5112ADE77F13806D90BCAD53
:10903A00E0700B7F337E5112ADE77F43804790BFCC
:10904A00A1E0700B7F337E5112AD507F4380369082
:10905A00BFA1E0640160030290E47F337E5112AD48
:10906A00E77F43803590BCADE0700B7F637E511281
:10907A00ADE77F73800F90BFA1E0700D7F637E51D3
:10908A0012AD507F737E51803990BFA1E0640170A8
:10909A00497F637E5112ADE77F737E51803990BC60
:1090AA00ADE0700D7F937E5112ADE77F037E528053
:1090BA001190BFA1E0700E7F937E5112AD507F03D5
:1090CA007E5202ADE790BFA1E0B4010E7F937E51BC
:0B90DA0012ADE77F037E5212AD502262
:0898040090C7F9E0FEA3E0FFAC
:10980C00EE702CEF24FE601604702490BF87E0707D
:10981C00057403F0801990BF87E014F0801190BF9D
:10982C0087E0B40304E4F0800690BF87E004F09076
:10983C00BF87E014601A14602E1460472403705F15
:10984C007F937E5012AD507F237E5112ADE7800E78
:10985C007F937E5012ADE77F237E5112AD507F5324
:10986C007E5112ADE780157F937E5012ADE77F23BA
:10987C007E5112ADE77F537E5112AD507F837E51E6
:10988C0002ADE77F937E5012ADE77F237E5112AD80
:10989C00E77F537E5112ADE77F837E5112AD50228C
:088ED70090C7F9E0FEA3E0FFE3
:108EDF00EE702CEF24FE601604702490BA90E070B0
:108EEF00057405F0801990BA90E014F0801190BAD3
:108EFF0090E0B40504E4F0800690BA90E004F0909E
:108F0F00BA90E014602614603A1460551460771418
:108F1F007003028FBF24056003028FE97F137E5217
:108F2F0012AD507F437E5212ADE7800E7F137E52FB
:108F3F0012ADE77F437E5212AD507F737E5212AD5A
:108F4F00E780157F137E5212ADE77F437E5212AD3D
:108F5F00E77F737E5212AD507F037E5312ADE780D1
:108F6F001C7F137E5212ADE77F437E5212ADE77F17
:108F7F00737E5212ADE77F037E5312AD507F437E57
:108F8F005312ADE780237F137E5212ADE77F437EEE
:108F9F005212ADE77F737E5212ADE77F037E5312FD
:108FAF00ADE77F437E5312AD507F737E5302ADE723
:108FBF007F137E5212ADE77F437E5212ADE77F7370
:108FCF007E5212ADE77F037E5312ADE77F437E5390
:0B8FDF0012ADE77F737E5312AD5022ED
:107CD30090BA90E0146061147003027D7D14700308
:107CE300027DBF147003027E01147003027E4624DA
:107CF300056003027E9090BDF5E07F237E52B401C0
:107D03001C12AD507F337E5212ADE790BECF74018B
:107D1300F0FB7ABE79CF90C826E4027E8512ADE7E8
:107D23007F337E5212AD50E490BECFF07B017ABE1A
:107D330079CF90C826027E8590BDF5E07F537E52B1
:107D4300B4011C12AD507F637E5212ADE790BECFDB
:107D53007402F07B017ABE79CF90C826E4801812B2
:107D6300ADE77F637E5212AD50E490BECFF07B014E
:107D73007ABE79CF90C826027E8590BDF5E07F83D9
:107D83007E52B4011C12AD507F937E5212ADE79028
:107D9300BECF7403F07B017ABE79CF90C826E4800E
:107DA3001812ADE77F937E5212AD50E490BECFF030
:107DB3007B017ABE79CF90C826027E8590BDF5E01F
:107DC3007F137E53B4011C12AD507F237E5312AD3B
:107DD300E790BECF7404F07B017ABE79CF90C826BA
:107DE300E4801812ADE77F237E5312AD50E490BEBA
:107DF300CFF07B017ABE79CF90C826027E8590BDF5
:107E0300F5E0B401207453FFFE12AD507F637E533F
:107E130012ADE790BECF7405F07B017ABE79CF90A7
:107E2300C826E4801C7453FFFE12ADE77F637E53C4
:107E330012AD50E490BECFF07B017ABE79CF90C8EB
:107E430026803F90BDF5E07F837E53B4011C12ADC5
:107E5300507F937E5312ADE790BECF7406F07B0143
:107E63007ABE79CF90C826E4801812ADE77F937E5F
:107E73005312AD50E490BECFF07B017ABE79CF9020
:0E7E8300C826F0A304F07F107E8212838A22AC
:08A4CA0090C7F9E0FEA3E0FFDA
:10A4D200EE702BEF24FE601504702390BC26E07012
:10A4E2000404F0801990BC26E014F0801190BC2680
:10A4F200E0B40104E4F0800690BC26E004F090BCD5
:10A5020026E07F937E57700A12AD507F037E580279
:0DA51200ADE712ADE77F037E5812AD502279
:08A51F0090C7F9E0FEA3E0FF84
:10A52700EE702BEF24FE601504702390BEB9E07027
:10A537000404F0801990BEB9E014F0801190BEB900
:10A54700E0B40104E4F0800690BEB9E004F090BEE8
:10A55700B9E07F737E56700A12AD507F837E560234
:0DA56700ADE712ADE77F837E5612AD5022A6
:089D5D0090C7F9E0FEA3E0FF4E
:109D6500EE702CEF24FE601604702490BE6BE0703C
:109D7500057402F0801990BE6BE014F0801190BE5E
:109D85006BE0B40204E4F0800690BE6BE004F09052
:109D9500BE6BE070107F537E5512AD507F637E55CC
:109DA50012ADE7801590BE6BE0B401157F537E556B
:109DB50012ADE77F637E5512AD507F737E5502ADC0
:109DC500E790BE6BE0B402157F537E5512ADE77F79
:0E9DD500637E5512ADE77F737E5512AD5022AE
:1043B000E490C81DF0A3F07B017ABF798890C826ED
:1043C000F0A37406F07F107E4012838A90C81DE42B
:1043D000F0A3740CF07B017AC8791D90C826E4F034
:1043E000A304F07F187E5012838A7B017ABF79FA8A
:1043F00090C826E4F0A3740CF07F207E4012838ADC
:1044000090C81DE4F0A37418F07B017AC8791D9060
:10441000C826E4F0A304F07F287E5012838A7B0133
:104420007ABD791090C826E4F0A3740DF07F307E39
:104430004012838A90C81DE4F0A3741AF07B017ABD
:10444000C8791D90C826E4F0A304F07F387E50128E
:10445000838A7B017ABB792590C826E4F0A3740B8C
:10446000F07440FFFE12838A90C81DE4F0A3741616
:10447000F07B017AC8791D90C826E4F0A304F07F90
:10448000487E5012838A7B017ABD798990C826E4E0
:10449000F0A37408F07F507E4012838A90C81DE418
:1044A000F0A37410F07B017AC8791D90C826E4F05F
:1044B000A304F07F587E5012838A7B017ABA79DD9B
:1044C00090C826E4F0A37408F07F607E4012838ACF
:1044D00090C81DE4F0A37410F07B017AC8791D9098
:1044E000C826E4F0A304F07F687E5012838A7B0123
:1044F0007ABF792F90C826E4F0A3740CF07F707E09
:104500004012838A90C81DE4F0A37418F07B017AEE
:10451000C8791D90C826E4F0A304F07F787E50127D
:10452000838A7B017ABB798090C826E4F0A3740D5E
:10453000F07F307E4312838A90C81DE4F0A3741A82
:10454000F07B017AC8791D90C826E4F0A304F07FBF
:10455000387E5312838A7B017ABF79FA90C826E4A9
:10456000F0A3740CF07F807E4012838A90C81DE413
:10457000F0A37418F07B017AC8791D90C826E4F086
:10458000A304F07F887E5012838A7B017ABD79FA7A
:1045900090C826E4F0A37408F07F907E4012838ACE
:1045A00090C81DE4F0A37410F07B017AC8791D90C7
:1045B000C826E4F0A304F07F987E5012838A7B0122
:1045C0007ABC793390C826E4F0A3740BF07F207E88
:1045D0004112838A90C81DE4F0A37416F07B017A1F
:1045E000C8791D90C826E4F0A304F07F287E5112FC
:1045F000838A7B017ABC79E090C826E4F0A3740832
:10460000F07F507E4112838A90C81DE4F0A374109D
:10461000F07B017AC8791D90C826E4F0A304F07FEE
:10462000587E5112838A7B017ABD796190C826E455
:10463000F0A3740AF07F807E4112838A90C81DE443
:10464000F0A37414F07B017AC8791D90C826E4F0B9
:10465000A304F07F887E5112838A7B017ABF79AEF2
:1046600090C826E4F0A37407F07F007E4412838A8A
:1046700090C81DE4F0A3740EF07B017AC8791D90F8
:10468000C826E4F0A304F07F087E5412838A7B01DD
:104690007ABE794790C826E4F0A3740BF07F107EB1
:1046A0004212838A90C81DE4F0A37416F07B017A4D
:1046B000C8791D90C826E4F0A304F07F187E52123A
:1046C000838A7B017ABC797E90C826E4F0A3740DBE
:1046D000F07F407E4212838A90C81DE4F0A3741AD2
:1046E000F07B017AC8791D90C826E4F0A304F07F1E
:1046F000487E5212838A7B017ABF796790C826E48C
:10470000F0A37407F07F707E4212838A90C81DE484
:10471000F0A3740EF07B017AC8791D90C826E4F0EE
:10472000A304F07F787E5212838A7B017ABE7927B8
:1047300090C826E4F0A3740AF07F007E4312838AB7
:1047400090C81DE4F0A37414F07B017AC8791D9021
:10475000C826E4F0A304F07F087E5312838A7B010D
:104760007ABF792F90C826E4F0A3740CF07F407EC6
:104770004312838A90C81DE4F0A37418F07B017A79
:10478000C8791D90C826E4F0A304F07F487E531238
:10479000838A7B017ABB79A890C826E4F0A37408C9
:1047A000F07F707E4312838A90C81DE4F0A37410DA
:1047B000F07B017AC8791D90C826E4F0A304F07F4D
:1047C000787E5312838A7B017ABD791090C826E4E3
:1047D000F0A3740AF07F607E4712838A90C81DE4BC
:1047E000F0A37414F07B017AC8791D90C826E4F018
:1047F000A304F07F687E5712838A7B017ABE79C05A
:1048000090C826E4F0A37404F07F707E4712838A78
:1048100090C81DE4F0A37408F07B017AC8791D905C
:10482000C826E4F0A304F07F787E5712838A7B01C8
:104830007ABE796C90C826E4F0A3740BF07F807E7A
:104840004712838A90C81DE4F0A37416F07B017AA6
:10485000C8791D90C826E4F0A304F07F887E571223
:10486000838A7B017ABD796190C826E4F0A3740A3B
:10487000F07F907E4712838A90C81DE4F0A37414E1
:10488000F07B017AC8791D90C826E4F0A304F07F7C
:10489000987E5712838A7B017ABD796190C826E49D
:1048A000F0A3740AF07F007E4812838A90C81DE44A
:1048B000F0A37414F07B017AC8791D90C826E4F047
:1048C000A304F07F087E5812838A7B017ABB792586
:1048D00090C826E4F0A3740BF07F507E4612838AC2
:1048E00090C81DE4F0A37416F07B017AC8791D907E
:1048F000C826E4F0A304F07F587E5612838A7B0119
:104900007ABD794D90C826E4F0A3740AF07F707EDA
:104910004612838A90C81DE4F0A37414F07B017AD8
:10492000C8791D90C826E4F0A304F07F787E561263
:10493000838A7B017ABB791390C826E4F0A37409BB
:10494000F07F807E4612838A90C81DE4F0A3741223
:10495000F07B017AC8791D90C826E4F0A304F07FAB
:10496000887E5612838A7B017ABD798990C826E4B5
:10497000F0A37408F07F107E4412838A90C81DE46F
:10498000F0A37410F07B017AC8791D90C826E4F07A
:10499000A304F07F187E5412838A7B017ABB7913BB
:1049A00090C826E4F0A37409F07F207E4412838A25
:1049B00090C81DE4F0A37412F07B017AC8791D90B1
:1049C000C826E4F0A304F07F287E5412838A7B017A
:1049D0007ABB791390C826E4F0A37409F07F607E57
:1049E0004412838A90C81DE4F0A37412F07B017A0C
:1049F000C8791D90C826E4F0A304F07F687E5412A5
:104A0000838A7B017ABB791390C826E4F0A37409EA
:104A1000F07F007E4512838A90C81DE4F0A37412D3
:104A2000F07B017AC8791D90C826E4F0A304F07FDA
:104A3000087E5512838A7B017ABA79DD90C826E414
:104A4000F0A37408F07F407E4512838A90C81DE46D
:104A5000F0A37410F07B017AC8791D90C826E4F0A9
:104A6000A304F07F487E5512838A7B017ABE7914B5
:104A700090C826E4F0A37407F07F507E4512838A25
:104A800090C81DE4F0A3740EF07B017AC8791D90E4
:104A9000C826E4F0A304F07F587E5512838A7B0178
:104AA0007ABD793F90C826E4F0A37407F07F607E5A
:104AB0004512838A90C81DE4F0A3740EF07B017A3E
:104AC000C8791D90C826E4F0A304F07F687E5512D3
:104AD000838A7B017ABF79EE90C826E4F0A374063E
:104AE000F07F707E4512838A90C81DE4F0A3740C99
:104AF000F07B017AC8791D90C826E4F0A304F07F0A
:104B0000787E5512838A7B017ABF792F90C826E47C
:104B1000F0A3740CF07F807E4512838A90C81DE458
:104B2000F0A37418F07B017AC8791D90C826E4F0D0
:104B3000A304F07F887E5512838A7B017ABF794F68
:104B400090C826E4F0A3740CF07F907E4512838A0F
:104B500090C81DE4F0A37418F07B017AC8791D9009
:104B6000C826E4F0A304F07F987E5512838A7B0167
:104B70007ABB793B90C826E4F0A3740BF07F007EEB
:104B80004612838A90C81DE4F0A37416F07B017A64
:104B9000C8791D90C826E4F0A304F07F087E561261
:104BA000838A7B017ABA79BB90C826E4F0A374119A
:104BB000F07F107E4612838A90C81DE4F0A3742211
:104BC000F07B017AC8791D90C826E4F0A304F07F39
:104BD000187E5612838A7B017ABB79C990C826E475
:104BE000F0A37411F07F207E4612838A90C81DE4E2
:104BF000F0A37422F07B017AC8791D90C826E4F0F6
:104C0000A304F07F287E5612838A7B017ABB79F158
:104C100090C826E4F0A3740CF07F307E4612838A9D
:104C200090C81DE4F0A37418F07B017AC8791D9038
:104C3000C826E4F0A304F07F387E5612838A7B01F5
:104C40007ABB797490C826E4F0A37405F07F607E87
:104C50004612838A90C81DE4F0A3740AF07B017A9F
:104C6000C8791D90C826E4F0A304F07F987E560210
:024C7000838A35
:10550D00E490C95BF0A3F07B017ABF79E290C826E5
:10551D00F0A37404F07F107E4012838A90C95BE47F
:10552D00F0A37408F07B017AC9795B90C826E4F08A
:10553D00A304F07F187E5012838A7B017ABF79A570
:10554D0090C826E4F0A37404F07F207E4012838A75
:10555D0090C95BE4F0A37408F07B017AC9795B9084
:10556D00C826E4F0A304F07F287E5012838A7B01C5
:10557D007ABC79F290C826E4F0A37405F07F307EF2
:10558D004012838A90C95BE4F0A3740AF07B017A20
:10559D00C9795B90C826E4F0A304F07F387E5012E1
:1055AD00838A7B017ABA79FC90C826E4F0A374074C
:1055BD00F07440FFFE12838A90C95BE4F0A3740E71
:1055CD00F07B017AC9795B90C826E4F0A304F07FE3
:1055DD00487E5012838A7B017ABD797790C826E484
:1055ED00F0A37404F07F507E4012838A90C95BE46F
:1055FD00F0A37408F07B017AC9795B90C826E4F0BA
:10560D00A304F07F587E5012838A7B017ABA79A366
:10561D0090C826E4F0A37402F07F607E4012838A66
:10562D0090C95BE4F0A37404F07B017AC9795B90B7
:10563D00C826E4F0A304F07F687E5012838A7B01B4
:10564D007ABF791790C826E4F0A37404F07F707EBA
:10565D004012838A90C95BE4F0A37408F07B017A51
:10566D00C9795B90C826E4F0A304F07F787E5012D0
:10567D00838A7B017ABB798090C826E4F0A37405F8
:10568D00F07F307E4312838A90C95BE4F0A3740AE5
:10569D00F07B017AC9795B90C826E4F0A304F07F12
:1056AD00387E5312838A7B017ABF79E290C826E453
:1056BD00F0A37404F07F807E4012838A90C95BE46E
:1056CD00F0A37408F07B017AC9795B90C826E4F0E9
:1056DD00A304F07F887E5012838A7B017ABD79EB1B
:1056ED0090C826E4F0A37404F07F907E4012838A64
:1056FD0090C95BE4F0A37408F07B017AC9795B90E3
:10570D00C826E4F0A304F07F987E5012838A7B01B3
:10571D007ABC792990C826E4F0A37404F07F207E2A
:10572D004112838A90C95BE4F0A37408F07B017A7F
:10573D00C9795B90C826E4F0A304F07F287E51124E
:10574D00838A7B017ABC79CC90C826E4F0A37402DD
:10575D00F07F507E4112838A90C95BE4F0A37404FC
:10576D00F07B017AC9795B90C826E4F0A304F07F41
:10577D00587E5112838A7B017ABD790890C826E440
:10578D00F0A37404F07F807E4112838A90C95BE49C
:10579D00F0A37408F07B017AC9795B90C826E4F018
:1057AD00A304F07F887E5112838A7B017ABF79A58D
:1057BD0090C826E4F0A37407F07F007E4412838A1C
:1057CD0090C95BE4F0A3740EF07B017AC9795B900C
:1057DD00C826E4F0A304F07F087E5412838A7B016F
:1057ED007ABE793D90C826E4F0A37405F07F107E53
:1057FD004212838A90C95BE4F0A3740AF07B017AAC
:10580D00C9795B90C826E4F0A304F07F187E52128C
:10581D00838A7B017ABC796690C826E4F0A374056F
:10582D00F07F407E4212838A90C95BE4F0A3740A34
:10583D00F07B017AC9795B90C826E4F0A304F07F70
:10584D00487E5212838A7B017ABF794790C826E43D
:10585D00F0A37404F07F707E4212838A90C95BE4DA
:10586D00F0A37408F07B017AC9795B90C826E4F047
:10587D00A304F07F787E5212838A7B017ABE790C65
:10588D0090C826E4F0A37404F07F007E4312838A4F
:10589D0090C95BE4F0A37408F07B017AC9795B9041
:1058AD00C826E4F0A304F07F087E5312838A7B019F
:1058BD007ABE796590C826E4F0A37403F07F407E2C
:1058CD004312838A90C95BE4F0A37406F07B017ADE
:1058DD00C9795B90C826E4F0A304F07F487E53128B
:1058ED00838A7B017ABB79A290C826E4F0A3740366
:1058FD00F07F707E4312838A90C95BE4F0A3740637
:10590D00F07B017AC9795B90C826E4F0A304F07F9F
:10591D00787E5312838A7B017ABC79F290C826E493
:10592D00F0A37405F07F607E4712838A90C95BE413
:10593D00F0A3740AF07B017AC9795B90C826E4F074
:10594D00A304F07F687E5712838A7B017ABE79BAF1
:10595D0090C826E4F0A37402F07F707E4712838A0C
:10596D0090C95BE4F0A37404F07B017AC9795B9074
:10597D00C826E4F0A304F07F787E5712838A7B015A
:10598D007ABE795B90C826E4F0A37405F07F807E23
:10599D004712838A90C95BE4F0A3740AF07B017A05
:1059AD00C9795B90C826E4F0A304F07F887E571276
:1059BD00838A7B017ABC794C90C826E4F0A37402EB
:1059CD00F07F907E4712838A90C95BE4F0A3740444
:1059DD00F07B017AC9795B90C826E4F0A304F07FCF
:1059ED00987E5712838A7B017ABE79CA90C826E4C5
:1059FD00F0A37402F07F007E4812838A90C95BE4A5
:105A0D00F0A37404F07B017AC9795B90C826E4F0A9
:105A1D00A304F07F087E5812838A7B017ABA79FC41
:105A2D0090C826E4F0A37407F07F507E4612838A57
:105A3D0090C95BE4F0A3740EF07B017AC9795B9099
:105A4D00C826E4F0A304F07F587E5612838A7B01AA
:105A5D007ABD790090C826E4F0A37404F07F707EBF
:105A6D004612838A90C95BE4F0A37408F07B017A37
:105A7D00C9795B90C826E4F0A304F07F787E5612B6
:105A8D00838A7B017ABA79F490C826E4F0A3740472
:105A9D00F07F807E4612838A90C95BE4F0A3740880
:105AAD00F07B017AC9795B90C826E4F0A304F07FFE
:105ABD00887E5612838A7B017ABD797790C826E459
:105ACD00F0A37404F07F107E4412838A90C95BE4C6
:105ADD00F0A37408F07B017AC9795B90C826E4F0D5
:105AED00A304F07F187E5412838A7B017ABA79F46D
:105AFD0090C826E4F0A37402F07F207E4412838ABE
:105B0D0090C95BE4F0A37404F07B017AC9795B90D2
:105B1D00C826E4F0A304F07F287E5412838A7B010B
:105B2D007ABB791390C826E4F0A37409F07F607EE8
:105B3D004412838A90C95BE4F0A37412F07B017A5E
:105B4D00C9795B90C826E4F0A304F07F687E5412F7
:105B5D00838A7B017ABB791390C826E4F0A374097C
:105B6D00F07F007E4512838A90C95BE4F0A3741226
:105B7D00F07B017AC9795B90C826E4F0A304F07F2D
:105B8D00087E5512838A7B017ABD79F690C826E48A
:105B9D00F0A37402F07F507E4512838A90C95BE4B6
:105BAD00F0A37404F07B017AC9795B90C826E4F008
:105BBD00A304F07F587E5512838A7B017ABC79FC51
:105BCD0090C826E4F0A37402F07F607E4512838AAC
:105BDD0090C95BE4F0A37404F07B017AC9795B9002
:105BED00C826E4F0A304F07F687E5512838A7B01FA
:105BFD007ABF79DE90C826E4F0A37402F07F707E40
:105C0D004512838A90C95BE4F0A37404F07B017A9A
:105C1D00C9795B90C826E4F0A304F07F787E551215
:105C2D00838A7B017ABF791790C826E4F0A37404A8
:105C3D00F07F807E4512838A90C95BE4F0A37408DF
:105C4D00F07B017AC9795B90C826E4F0A304F07F5C
:105C5D00887E5512838A7B017ABF794F90C826E4DE
:105C6D00F0A3740CF07F907E4512838A90C95BE49B
:105C7D00F0A37418F07B017AC9795B90C826E4F023
:105C8D00A304F07F987E5512838A7B017ABB790D30
:105C9D0090C826E4F0A37403F07F007E4612838A39
:105CAD0090C95BE4F0A37406F07B017AC9795B902F
:105CBD00C826E4F0A304F07F087E5612838A7B0188
:105CCD007ABA799590C826E4F0A37407F07F107E18
:105CDD004612838A90C95BE4F0A3740EF07B017ABF
:105CED00C9795B90C826E4F0A304F07F187E5612A4
:105CFD00838A7B017ABD799990C826E4F0A3740755
:105D0D00F07F207E4612838A90C95BE4F0A3740E67
:105D1D00F07B017AC9795B90C826E4F0A304F07F8B
:105D2D00287E5612838A7B017ABB79F190C826E4CE
:105D3D00F0A3740CF07F307E4612838A90C95BE429
:105D4D00F0A37418F07B017AC9795B90C826E4F052
:105D5D00A304F07F387E5612838A7B017ABB79804B
:105D6D0090C826E4F0A3740DF07F607E4612838AFE
:105D7D0090C95BE4F0A3741AF07B017AC9795B904A
:0E5D8D00C826E4F0A304F07F987E5602838AB5
:105D9B00E490C95DF0A3F07B017ABB796890C826CB
:105DAB00F0A37405F07F107E4012838A90C95DE4E6
:105DBB00F0A3740AF07B017AC9795D90C826E4F0F0
:105DCB00A304F07F187E5012838A7B017ABC79582A
:105DDB0090C826E4F0A37406F07F207E4012838ADD
:105DEB0090C95DE4F0A3740CF07B017AC9795D90E6
:105DFB00C826E4F0A304F07F287E5012838A7B012F
:105E0B007ABE799A90C826E4F0A37406F07F307EB0
:105E1B004012838A90C95DE4F0A3740CF07B017A85
:105E2B00C9795D90C826E4F0A304F07F387E501248
:105E3B00838A7B017ABB79BB90C826E4F0A37407F5
:105E4B00F07440FFFE12838A90C95DE4F0A3740ED8
:105E5B00F07B017AC9795D90C826E4F0A304F07F4A
:105E6B00487E5012838A7B017ABC790B90C826E45A
:105E7B00F0A37405F07F507E4012838A90C95DE4D5
:105E8B00F0A3740AF07B017AC9795D90C826E4F01F
:105E9B00A304F07F587E5012838A7B017ABB799BD7
:105EAB0090C826E4F0A37402F07F607E4012838AD0
:105EBB0090C95DE4F0A37404F07B017AC9795D901D
:105ECB00C826E4F0A304F07F687E5012838A7B011E
:105EDB007ABF797C90C826E4F0A37404F07F707EBF
:105EEB004012838A90C95DE4F0A37408F07B017AB9
:105EFB00C9795D90C826E4F0A304F07F787E501238
:105F0B00838A7B017ABC791790C826E4F0A37407C7
:105F1B00F07F307E4312838A90C95DE4F0A3740E48
:105F2B00F07B017AC9795D90C826E4F0A304F07F79
:105F3B00387E5312838A7B017ABB796890C826E43A
:105F4B00F0A37405F07F807E4012838A90C95DE4D4
:105F5B00F0A3740AF07B017AC9795D90C826E4F04E
:105F6B00A304F07F887E5012838A7B017ABB795120
:105F7B0090C826E4F0A37405F07F907E4012838ACC
:105F8B0090C95DE4F0A3740AF07B017AC9795D9046
:105F9B00C826E4F0A304F07F987E5012838A7B011D
:105FAB007ABF799790C826E4F0A37405F07F207E22
:105FBB004112838A90C95DE4F0A3740AF07B017AE5
:105FCB00C9795D90C826E4F0A304F07F287E5112B6
:105FDB00838A7B017ABF79EA90C826E4F0A3740226
:105FEB00F07F507E4112838A90C95DE4F0A3740464
:105FFB00F07B017AC9795D90C826E4F0A304F07FA9
:10600B00587E5112838A7B017ABA79B190C826E403
:10601B00F0A37404F07F807E4112838A90C95DE403
:10602B00F0A37408F07B017AC9795D90C826E4F07F
:10603B00A304F07F887E5112838A7B017ABC795846
:10604B0090C826E4F0A37406F07F007E4412838A86
:10605B0090C95DE4F0A3740EF07B017AC9795D9071
:10606B00C826E4F0A304F07F087E5412838A7B01D8
:10607B007ABE79EB90C826E4F0A37405F07F107E0E
:10608B004212838A90C95DE4F0A3740AF07B017A13
:10609B00C9795D90C826E4F0A304F07F187E5212F4
:1060AB00838A7B017ABD797F90C826E4F0A37405BF
:1060BB00F07F407E4212838A90C95DE4F0A3740A9C
:1060CB00F07B017AC9795D90C826E4F0A304F07FD8
:1060DB00487E5212838A7B017ABF79CC90C826E422
:1060EB00F0A37404F07F707E4212838A90C95DE442
:1060FB00F0A37408F07B017AC9795D90C826E4F0AF
:10610B00A304F07F787E5212838A7B017ABE79E1F9
:10611B0090C826E4F0A37404F07F007E4312838AB8
:10612B0090C95DE4F0A37408F07B017AC9795D90A6
:10613B00C826E4F0A304F07F087E5312838A7B0108
:10614B007ABE79F790C826E4F0A37404F07F407E02
:10615B004312838A90C95DE4F0A37408F07B017A43
:10616B00C9795D90C826E4F0A304F07F487E5312F2
:10617B00838A7B017ABC797090C826E4F0A37405FE
:10618B00F07F707E4312838A90C95DE4F0A3740A9A
:10619B00F07B017AC9795D90C826E4F0A304F07F07
:1061AB00787E5312838A7B017ABE799A90C826E453
:1061BB00F0A37406F07F607E4712838A90C95DE47A
:1061CB00F0A3740CF07B017AC9795D90C826E4F0DA
:1061DB00A304F07F687E5712838A7B017ABD79A76F
:1061EB0090C826E4F0A37406F07F707E4712838A72
:1061FB0090C95DE4F0A3740CF07B017AC9795D90D2
:10620B00C826E4F0A304F07F787E5712838A7B01C3
:10621B007ABD79D790C826E4F0A37409F07F807E0D
:10622B004712838A90C95DE4F0A37412F07B017A64
:10623B00C9795D90C826E4F0A304F07F887E5712DD
:10624B00838A7B017ABF797890C826E4F0A3740225
:10625B00F07F907E4712838A90C95DE4F0A37404AB
:10626B00F07B017AC9795D90C826E4F0A304F07F36
:10627B00987E5712838A7B017ABF79BC90C826E43B
:10628B00F0A37402F07F007E4812838A90C95DE40C
:10629B00F0A37404F07B017AC9795D90C826E4F011
:1062AB00A304F07F087E5812838A7B017ABB79BBEB
:1062BB0090C826E4F0A37407F07F507E4612838AC1
:1062CB0090C95DE4F0A3740EF07B017AC9795D90FF
:1062DB00C826E4F0A304F07F587E5612838A7B0114
:1062EB007ABD790090C826E4F0A37405F07F707E28
:1062FB004612838A90C95DE4F0A3740AF07B017A9D
:10630B00C9795D90C826E4F0A304F07F787E56121D
:10631B00838A7B017ABA79F490C826E4F0A37405DA
:10632B00F07F807E4612838A90C95DE4F0A3740AE5
:10633B00F07B017AC9795D90C826E4F0A304F07F65
:10634B00887E5612838A7B017ABC790B90C826E42F
:10635B00F0A37405F07F107E4412838A90C95DE42C
:10636B00F0A3740AF07B017AC9795D90C826E4F03A
:10637B00A304F07F187E5412838A7B017ABF790EB7
:10638B0090C826E4F0A37404F07F207E4412838A25
:10639B0090C95DE4F0A37408F07B017AC9795D9034
:1063AB00C826E4F0A304F07F287E5412838A7B0175
:1063BB007ABC790990C826E4F0A304F07F607E4490
:1063CB0012838A90C95DE4F0A37402F07B017AC951
:1063DB00795D90C826E4F0A304F07F687E541283A5
:1063EB008A7B017ABE79F790C826E4F0A37409F092
:1063FB007F007E4512838A90C95DE4F0A37412F08E
:10640B007B017AC9795D90C826E4F0A304F07F087C
:10641B007E5512838A7B017ABE79DA90C826E4F026
:10642B00A37402F07F507E4512838A90C95DE4F01D
:10643B00A37404F07B017AC9795D90C826E4F0A3BC
:10644B0004F07F587E5512838A7B017ABE79A69021
:10645B00C826E4F0A37403F07F607E4512838A9014
:10646B00C95DE4F0A37406F07B017AC9795D90C82D
:10647B0026E4F0A304F07F687E5512838A7B017AB1
:10648B00BB796290C826E4F0A37403F07F707E455D
:10649B0012838A7B017AC9795D90C826E4F0A30444
:1064AB00F07F787E5512838A7B017ABF797C90C806
:1064BB0026E4F0A37404F07F807E4512838A90C992
:1064CB005DE4F0A37408F07B017AC9795D90C8266E
:1064DB00E4F0A304F07F887E5512838A7B017ABF98
:1064EB0079C090C826E4F0A37405F07F907E451226
:1064FB00838A90C95DE4F0A37418F07B017AC979A3
:10650B005D90C826E4F0A304F07F987E5512838A31
:10651B007B017ABB79EB90C826E4F0A37403F07F80
:10652B00007E4612838A90C95DE4F0A37406F07B6B
:10653B00017AC9795D90C826E4F0A304F07F087E48
:10654B005612838A7B017ABF790090C826E4F0A3A8
:10655B007407F07F107E4612838A90C95DE4F0A326
:10656B00740EF07B017AC9795D90C826E4F0A30420
:10657B00F07F187E5612838A7B017ABC799B90C878
:10658B0026E4F0A37407F07F207E4612838A90C91D
:10659B005DE4F0A3740EF07B017AC9795D90C82697
:1065AB00E4F0A304F07F287E5612838A7B017ABC29
:1065BB0079AE90C826E4F0A3740CF07F307E4612BF
:1065CB00838A90C95DE4F0A37418F07B017AC979D2
:1065DB005D90C826E4F0A304F07F387E5612838AC0
:1065EB007B017ABC791790C826E4F0A37407F07F7F
:1065FB00607E4612838A90C95DE4F0A3740EF07B33
:10660B00017AC9795D90C826E4F0A304F07F987EE7
:04661B005602838A16
:1091CA0090BEBFE014602614603A146055146077AC
:1091DA0014700302927B240560030292A57F037E2A
:1091EA005712AD507F137E5712ADE7800E7F037E74
:1091FA005712ADE77F137E5712AD507F237E571269
:10920A00ADE780157F037E5712ADE77F137E5712B5
:10921A00ADE77F237E5712AD507F337E5712ADE7FD
:10922A00801C7F037E5712ADE77F137E5712ADE78E
:10923A007F237E5712ADE77F337E5712AD507F43AF
:10924A007E5712ADE780237F037E5712ADE77F1367
:10925A007E5712ADE77F237E5712ADE77F337E57E5
:10926A0012ADE77F437E5712AD507F537E5702AD52
:10927A00E77F037E5712ADE77F137E5712ADE77F74
:10928A00237E5712ADE77F337E5712ADE77F437EC9
:0C929A005712ADE77F537E5712AD5022F3
:1093810090BC9AE0B408004003029454909394F87E
:109391002828730293AC0293CD0293FC02940F022E
:1093A10094220294270294410294497F937E5012A1
:1093B100AD507F237E5112ADE77F537E5112ADE751
:1093C1007F837E5112ADE790BB7E80777F137E5203
:1093D10012AD507F437E5212ADE77F737E5212ADC4
:1093E100E77F037E5312ADE77F437E5312ADE77FE4
:1093F100737E5312ADE790BE2480487F937E57124F
:10940100AD507F037E5812ADE790BECE80357F739D
:109411007E5612AD507F837E5612ADE790BD7680A9
:109421002290BFD4801D7F537E5512AD507F637E45
:109431005512ADE77F737E5512ADE790BCC980032D
:1094410090BF86E0FF02B01690BAB9E0FF12B016E5
:049451001291CA2288
:10AC8C00E490BC9AF090BF87F090BCADF090BFA15F
:10AC9C00F090BA90F090BB0CF090BC26F090BEB93E
:10ACAC00F090BB73F090BE6BF090BABAF090BEBF50
:02ACBC00F02284
:0801000090C7F9EEF0A3EFF047
:10010800E4A3F0A3F0A3F0A3F090BA29E0600DE413
:10011800FF12AFBFEF6005E490BA29F090C7F9E08D
:10012800FEA3E0FF64014E6006EF64024E70099082
:10013800BA29E060030243AF7B017ABA793890C8E4
:1001480022E4F0A304F07F0C7E80127B1390BA386F
:10015800A3E0FF7C0030E0047D0180027D0090C7B1
:10016800FFECF0A3EDF0EF7E0030E1047F018002A8
:100178007F0090C801EEF0A3EFF090BA38A3E0FF3B
:100188007C0030E2047D0180027D0090C811ECF013
:10019800A3EDF0EF7E0030E3047F0180027F009042
:1001A800C813EEF0A3EFF090BA38A3E0FF7C00305C
:1001B800E4047D0180027D0090C815ECF0A3EDF009
:1001C800EF7E0030E7047F0180027F0090C803EED5
:1001D800F0A3EFF090BA38E0FEEE7C0030E4047D46
:1001E8000180027D0090C805ECF0A3EDF0EE7E00E2
:1001F80030E0047F0180027F0090C807EEF0A3EF93
:10020800F090BA38A3E0FF7C0030E5047D0180025D
:100218007D0090C809ECF0A3EDF0EF7E0030E60415
:100228007F0180027F0090C80BEEF0A3EFF090BA38
:1002380038E0FEEE7C0030E1047D0180027D009014
:10024800C80DECF0A3EDF0EE7E0030E2047F0180F3
:10025800027F0090C80FEEF0A3EFF090BA38E0FEEE
:10026800EE7C0030E3047D0180027D0090C817EC2D
:10027800F0A3EDF0EE7E0030E5047F0180027F0000
:1002880090C819EEF0A3EFF090C809E07004A3E05D
:040298006401700B82
:09029C0090C81B74C0F0A3744467
:1002A500801D90C80DE07004A3E0640190C81B7028
:0102B5000840
:0602B6007405F0A3741CA6
:0202BC008006BA
:1002BE0074CEF0A37459F07B017AC8791B90C826CE
:0C02CE00E4F0A304F07F237E1412838A66
:0C02DA0090C80BE07004A3E06401700BFE
:0902E60090C81B74C0F0A374441D
:1002EF00801D90C80FE07004A3E0640190C81B70DC
:0102FF0008F6
:060300007405F0A3741C5B
:0203060080066F
:1003080074CEF0A37459F07B017AC8791B90C82683
:0C031800E4F0A304F07F337E1412838A0B
:1003240090C807E07004A3E06401700F90BFADE0D3
:10033400700912AA4D90BFAD7401F090BB5CE0B49B
:10034400182990BAEDE07002A3E0701F7B017ABC1B
:10035400791590C822F0A304F07F067E81127B13E6
:1003640012A41F90BAEDE4F0A304F090C7FFE0706C
:1003740004A3E06401600302042C90BC7AE07004DE
:10038400A3E06401600302042C90BB9AE0FF12B066
:10039400167B017AC779FD90C822E4F0A304F07FAC
:1003A400067E81127B1390C7FDE0FAA3E0FB7C007C
:1003B4007D3CFFAE02126CFA90BDE9EEF0A3EFF0C3
:1003C4007C007D3CAF03AE02126CFA90BA91ECF063
:1003D400A3EDF07B017ABD79E990C826E4F0A3048B
:1003E400F07F107E2112838A7B017ABA799190C8BA
:1003F40026E4F0A304F07F307E2112838AE490BACD
:100404002EF090BA2AF0A3F090BA36F0A3F090BA86
:100414002FF090BC7AF0A3F090BFADF090BAEDF05D
:10042400A3F012AD2B0204E590C803E07004A3E02E
:100434006401602690C80BE07004A3E06401601AB4
:1004440090C809E07004A3E064017002800C90C8B5
:1004540007E07004A3E06401703012A3C990BC7A71
:10046400E4F0A304F090BB5DE0FF12B016E490BA90
:100474002EF090BA2AF0A3F090BA36F0A3F090BA16
:100484002FF090BC31F0A3F0805790C80FE07004B7
:10049400A3E06401600C90C80DE07004A3E0640163
:1004A400703F12A3C990BAF2E0FF12B01612AD2B3E
:1004B40090BC15E07004A3E06401700990BC15F0D1
:1004C400A3F012A41FE490BA2EF090BA2AF0A3F07D
:1004D40090BA36F0A3F090BA2FF090BC7AF0A3044F
:1004E400F090C7F9E0FEA3E0FFEE60030243AFEF34
:1004F40024FE7003021EE7147003023958147003BB
:1005040002436A240360030243AF90BA36E07004E6
:10051400A3E064016003021C0B90BF95E0FF90BB55
:100524005CE06F600302077190BA2BE06003020580
:10053400E190BED8E0FEA3E0FF90C7FBEEF0A3EF8E
:10054400F04E700A90BED8F0A37409F0800E90BEED
:10055400D9E024FFF090BED8E034FFF090BB0AE06D
:10056400FEA3E0FF7C007D0A126CE8AA06AB0790AC
:10057400BCF0E0FEA3E0FF7D64126CE8EF2BFFEE1D
:100584003AFE90BED9E02FFF90BED8E03E90C7FD62
:10059400F0A3EFF090BEC8E0FEA3E0FF90C7FDE03B
:1005A400FCA3E0FDD39FEC9E501190BEB7E0FEA3E8
:1005B400E0FFC3ED9FEC9E4002800F90C7FBE0FF7D
:1005C400A3E090BED8CFF0A3EFF07B017ABE79D838
:1005D40090C826E4F0A304F07F700218B590BA2BFB
:1005E400E0640160030206A990BB0AE0FEA3E0FFF9
:1005F40090C7FBEEF0A3EFF04E700A90BB0AF0A395
:100604007409F0800E90BB0BE024FFF090BB0AE06D
:1006140034FFF090BB0AE0FEA3E0FF7C007D0A12E9
:100624006CE8AA06AB0790BCF0E0FEA3E0FF7D6493
:10063400126CE8EF2BFFEE3AFE90BED9E02FFF904C
:10064400BED8E03E90C7FDF0A3EFF090BEC8E0FE38
:10065400A3E0FF90C7FDE0FCA3E0FDD39FEC9E5018
:100664002290BEB7E0FEA3E0FFC3ED9FEC9E4013D3
:100674007B017ABB790A90C826E4F0A304F07F607A
:100684000218B590C7FBE0FFA3E090BB0ACFF0A32C
:10069400EFF07B017ABB790A90C826E4F0A304F05A
:1006A4007F600218B590BA2BE064026003023949F6
:1006B40090BCF0E0FEA3E0FF90C7FBEEF0A3EFF0E8
:1006C4004E700A90BCF0F0A37402F0800E90BCF15E
:1006D400E024FFF090BCF0E034FFF090BB0AE0FEB1
:1006E400A3E0FF7C007D0A126CE8AA06AB0790BC6D
:1006F400F0E0FEA3E0FF7D64126CE8EF2BFFEE3A1E
:10070400FE90BED9E02FFF90BED8E03E90C7FDF02A
:10071400A3EFF090BEC8E0FEA3E0FF90C7FDE0FCAD
:10072400A3E0FDD39FEC9E502290BEB7E0FEA3E071
:10073400FFC3ED9FEC9E40137B017ABC79F090C817
:1007440026E4F0A304F07F500218B590C7FBE0FF45
:10075400A3E090BCF0CFF0A3EFF07B017ABC79F07A
:1007640090C826E4F0A304F07F500218B590BFD9D6
:10077400E0FF90BB5CE06F60030208BC90BA2BE022
:10078400600302081890BE25E0FEA3E0FF90C7FBBB
:10079400EEF0A3EFF04E700A90BE25F0A37409F0BA
:1007A400800E90BE26E024FFF090BE25E034FFF0DA
:1007B40090BFDAE0FEA3E0FF7C007D0A126CE890B3
:1007C400BE26E02FFF90BE25E03E90C7FDF0A3EFCC
:1007D400F090C7FDE0FEA3E0FFD39450EE940050E8
:1007E4001BEF9400EE940040137B017ABE792590B0
:1007F400C826E4F0A304F07F000218B590C7FBE01C
:10080400FFA3E090BE25CFF0A3EFF07B017ABE7981
:100814002502097B90BA2BE06401600302394990F8
:10082400BFDAE0FEA3E0FF90C7FBEEF0A3EFF04ECB
:10083400700A90BFDAF0A37408F0800E90BFDBE07A
:1008440024FFF090BFDAE034FFF090BFDAE0FEA3BB
:10085400E0FF7C007D0A126CE890BE26E02FFF903A
:10086400BE25E03E90C7FDF0A3EFF090C7FDE0FE8B
:10087400A3E0FFD39450EE9400501BEF9400EE9449
:100884000040137B017ABF79DA90C826E4F0A30410
:10089400F07F900218B590C7FBE0FFA3E090BFDAA9
:1008A400CFF0A3EFF07B017ABF79DA90C826E4F0A9
:1008B400A304F07F900218B590BB9FE0FF90BB5C4F
:1008C400E06F6003020B1690BA2BE0600302098804
:1008D40090BA30E0FEA3E0FF90C7FBEEF0A3EFF088
:1008E4004E700A90BA30F0A37402F0800E90BA31C0
:1008F400E024FFF090BA30E034FFF090BA32E0FE2A
:10090400A3E0FF7C007D0A126CE8AA06AB0790BA4C
:1009140030E0FEA3E0FF7D64126CE8EF2BFFEE3ABB
:10092400FE90BA35E02FFF90BA34E03E90C7FDF058
:10093400A3EFF090C7FDE0FEA3E0FFD39432EE9462
:1009440000501FEF9400EE9400401790BA30E0FF7F
:10095400A3E090BF23CFF0A3EFF07B017ABA793004
:10096400801590C7FBE0FFA3E090BA30CFF0A3EF6F
:10097400F07B017ABA793090C826E4F0A304F07FC2
:100984000002126E90BA2BE064016003020A5290D6
:10099400BA32E0FEA3E0FF90C7FBEEF0A3EFF04E07
:1009A400700A90BA32F0A37405F0800E90BA33E066
:1009B40024FFF090BA32E034FFF090BA32E0FEA3A4
:1009C400E0FF7C007D0A126CE8AA06AB0790BA30FF
:1009D400E0FEA3E0FF7D64126CE8EF2BFFEE3AFE2D
:1009E40090BA35E02FFF90BA34E03E90C7FDF0A3F3
:1009F400EFF090C7FDE0FEA3E0FFD39432EE940045
:100A0400502AEF9400EE9400402290BA32E0FFA303
:100A1400E090BD31CFF0A3EFF07B017ABA79329048
:100A2400C826E4F0A304F07F1002126E90C7FBE026
:100A3400FFA3E090BA32CFF0A3EFF07B017ABA794A
:100A44003290C826E4F0A304F07F1002126E90BA2C
:100A54002BE06402600302394990BA34E0FEA3E05B
:100A6400FF90C7FBEEF0A3EFF04E700A90BA34F09B
:100A7400A37409F0800E90BA35E024FFF090BA34E4
:100A8400E034FFF090BA32E0FEA3E0FF7C007D0A80
:100A9400126CE8AA06AB0790BA30E0FEA3E0FF7D33
:100AA40064126CE8EF2BFFEE3AFE90BA34E0FCA33C
:100AB400E0FD2FFFEC3E90C7FDF0A3EFF090C7FDE3
:100AC400E0FEA3E0FFD39432EE94005023EF9400B1
:100AD400EE9400401B90BCD4ECF0A3EDF07B017AC3
:100AE400BA793490C826E4F0A304F07F2002126E91
:100AF40090C7FBE0FFA3E090BA34CFF0A3EFF07B04
:100B0400017ABA793490C826E4F0A304F07F200275
:100B1400126E90BEFFE0FF90BB5CE06F6003020DBD
:100B24007B90BA2BE06003020BEB90BE0AE0FEA3BD
:100B3400E0FF90C7FBEEF0A3EFF04E700A90BE0A00
:100B4400F0A37409F0800E90BE0BE024FFF090BE79
:100B54000AE034FFF090BFD5E0FEA3E0FF7C007D07
:100B64000A126CE8AA06AB0790BC27E0FEA3E0FFDC
:100B74007D64126CE8EF2BFFEE3AFE90BE0BE02F83
:100B8400FF90BE0AE03E90C7FDF0A3EFF090BE22B6
:100B9400E0FEA3E0FF90C7FDE0FCA3E0FDD39FECE3
:100BA4009E502290BDF3E0FEA3E0FFC3ED9FEC9EB8
:100BB40040137B017ABE790A90C826E4F0A304F0BE
:100BC4007F8002126E90C7FBE0FFA3E090BE0ACFC5
:100BD400F0A3EFF07B017ABE790A90C826E4F0A373
:100BE40004F07F8002126E90BA2BE064016003026D
:100BF4000CB390BFD5E0FEA3E0FF90C7FBEEF0A3DB
:100C0400EFF04E700A90BFD5F0A37409F0800E90F7
:100C1400BFD6E024FFF090BFD5E034FFF090BFD5FD
:100C2400E0FEA3E0FF7C007D0A126CE8AA06AB0795
:100C340090BC27E0FEA3E0FF7D64126CE8EF2BFF7D
:100C4400EE3AFE90BE0BE02FFF90BE0AE03E90C746
:100C5400FDF0A3EFF090BE22E0FEA3E0FF90C7FDFD
:100C6400E0FCA3E0FDD39FEC9E502290BDF3E0FE98
:100C7400A3E0FFC3ED9FEC9E40137B017ABF79D5BF
:100C840090C826E4F0A304F07F7002126E90C7FBB4
:100C9400E0FFA3E090BFD5CFF0A3EFF07B017ABFD4
:100CA40079D590C826E4F0A304F07F7002126E9008
:100CB400BA2BE06402600302394990BC27E0FEA32A
:100CC400E0FF90C7FBEEF0A3EFF04E700A90BC2754
:100CD400F0A37402F0800E90BC28E024FFF090BCD6
:100CE40027E034FFF090BFD5E0FEA3E0FF7C007D59
:100CF4000A126CE8AA06AB0790BC27E0FEA3E0FF4B
:100D04007D64126CE8EF2BFFEE3AFE90BE0BE02FF1
:100D1400FF90BE0AE03E90C7FDF0A3EFF090BE2224
:100D2400E0FEA3E0FF90C7FDE0FCA3E0FDD39FEC51
:100D34009E502290BDF3E0FEA3E0FFC3ED9FEC9E26
:100D440040137B017ABC792790C826E4F0A304F011
:100D54007F6002126E90C7FBE0FFA3E090BC27CF38
:100D6400F0A3EFF07B017ABC792790C826E4F0A3C6
:100D740004F07F6002126E90BF94E0FF90BB5CE0D1
:100D84006F6003020EBF90BA2BE06003020E1B904B
:100D9400BCCAE0FEA3E0FF90C7FBEEF0A3EFF04E69
:100DA400700A90BCCAF0A37409F0800E90BCCBE02A
:100DB40024FFF090BCCAE034FFF090BF76E0FEA3BD
:100DC400E0FF7C007D0A126CE890BCCBE02FFF9022
:100DD400BCCAE03E90C7FDF0A3EFF090C7FDE0FE73
:100DE400A3E0FFD39450EE9400500AEF9400EE94E5
:100DF400004002800F90C7FBE0FFA3E090BCCACF85
:100E0400F0A3EFF07B017ABC79CA90C826E4F0A382
:100E140004F07F100211BA90BA2BE064016003025F
:100E2400394990BF76E0FEA3E0FF90C7FBEEF0A344
:100E3400EFF04E700A90BF76F0A37408F0800E9025
:100E4400BF77E024FFF090BF76E034FFF090BF76E8
:100E5400E0FEA3E0FF7C007D0A126CE890BCCBE0CE
:100E64002FFF90BCCAE03E90C7FDF0A3EFF090C7FF
:100E7400FDE0FEA3E0FFD39450EE9400501BEF94EA
:100E840000EE940040137B017ABF797690C826E483
:100E9400F0A304F07F000211BA90C7FBE0FFA3E0C7
:100EA40090BF76CFF0A3EFF07B017ABF797690C83C
:100EB40026E4F0A304F07F000211BA90BAF3E0FF35
:100EC40090BB5CE06F600302110F90BA2BE06003EB
:100ED400020F8090BA30E0FEA3E0FF90C7FBEEF073
:100EE400A3EFF064024E700890BA30F0A3F0800EC5
:100EF40090BA31E024FFF090BA30E034FFF090BAB9
:100F040032E0FEA3E0FF7C007D0A126CE8AA06AB87
:100F14000790BA30E0FEA3E0FF7D64126CE8EF2B8B
:100F2400FFEE3AFE90BA35E02FFF90BA34E03E90DF
:100F3400C7FDF0A3EFF090C7FDE0FEA3E0FFD3945C
:100F440032EE94005014EF9400EE9400400C90BAEA
:100F540030E0FFA3E090BF29800A90C7FBE0FFA325
:100F6400E090BA30CFF0A3EFF07B017ABA793090F9
:100F7400C826E4F0A304F07F0002110A90BA2BE023
:100F84006401600302104A90BA32E0FEA3E0FF90CD
:100F9400C7FBEEF0A3EFF04E700A90BA32F0A374E0
:100FA40005F0800E90BA33E024FFF090BA32E034BA
:100FB400FFF090BA32E0FEA3E0FF7C007D0A126CE1
:100FC400E8AA06AB0790BA30E0FEA3E0FF7D641206
:100FD4006CE8EF2BFFEE3AFE90BA35E02FFF90BAA3
:100FE40034E03E90C7FDF0A3EFF090C7FDE0FEA310
:100FF400E0FFD39432EE9400502AEF9400EE940074
:10100400402290BA32E0FFA3E090BD37CFF0A3EFC7
:10101400F07B017ABA793290C826E4F0A304F07F19
:101024001002110A90C7FBE0FFA3E090BA32CFF0A0
:10103400A3EFF07B017ABA793290C826E4F0A304D6
:10104400F07F1002110A90BA2BE0640260030239A7
:101054004990BA34E0FEA3E0FF90C7FBEEF0A3EFA3
:10106400F04E700A90BA34F0A37409F0800E90BA6E
:1010740035E024FFF090BA34E034FFF090BA32E067
:10108400FEA3E0FF7C007D0A126CE8AA06AB079081
:10109400BA30E0FEA3E0FF7D64126CE8EF2BFFEEB4
:1010A4003AFE90BA34E0FCA3E0FD2FFFEC3E90C77B
:1010B400FDF0A3EFF090C7FDE0FEA3E0FFD3943270
:1010C400EE94005022EF9400EE9400401A90BCDAA3
:1010D400ECF0A3EDF07B017ABA793490C826E4F001
:1010E400A304F07F20801F90C7FBE0FFA3E090BA29
:1010F40034CFF0A3EFF07B017ABA793490C826E4B8
:10110400F0A304F07F207E25021EE190BF75E0FF6E
:1011140090BB5CE06F600302129790BA2BE060030F
:101124000211E390BDE9E0FEA3E0FF90C7FBEEF0FF
:10113400A3EFF04E701D90BA91E07002A3E090BD51
:10114400E96008E4F0A3743BF08016E4F0A3743C77
:10115400F0800E90BDEAE024FFF090BDE9E034FF9A
:10116400F090BDE9E0FEA3E0FF7C007D3C126CE85A
:1011740090BA92E02FFF90BA91E03E90C7FDF0A3A1
:10118400EFF090BEDEE0FEA3E0FF90C7FDE0FCA31D
:10119400E0FDD39FEC9E502390BED4E0FEA3E0FF7D
:1011A400ED9FEC9E40157B017ABD79E990C826E459
:1011B400F0A304F07F707E23021EE190C7FBE0FFE2
:1011C400A3E090BDE9CFF0A3EFF07B017ABD79E90C
:1011D40090C826E4F0A304F07F707E23021EE19001
:1011E400BA2BE06401600302394990BA91E0FEA38E
:1011F400E0FF90C7FBEEF0A3EFF04E700A90BA91B7
:10120400F0A3743BF0800E90BA92E024FFF090BA01
:1012140091E034FFF090BDE9E0FEA3E0FF7C007DA7
:101224003C126CE890BA92E02FFF90BA91E03E90A5
:10123400C7FDF0A3EFF090BEDEE0FEA3E0FF90C791
:10124400FDE0FCA3E0FDD39FEC9E502390BED4E0D0
:10125400FEA3E0FFED9FEC9E40157B017ABA7991E5
:1012640090C826E4F0A304F07F807E22021EE19061
:10127400C7FBE0FFA3E090BA91CFF0A3EFF07B01AE
:101284007ABA799190C826E4F0A304F07F807E2294
:10129400021EE190BEB6E0FF90BB5CE06F7042902E
:1012A400BA2BE0600302394990BFCAE0FEA3E0FF15
:1012B400D390BCAAE09F90BCA9E09E500302394998
:1012C400A3E024FFF090BCA9E034FFF07B017ABCDA
:1012D40079A990C826E4F0A304F07F007E24021EBE
:1012E400E190BAEFE0FF90BB5CE06F6003021992FB
:1012F40090BA2FE06401600302156190BA2BE0609C
:10130400030213C990BED8E0FEA3E0FF90C7FBEE32
:10131400F0A3EFF04E700A90BED8F0A37409F080E9
:101324000E90BED9E024FFF090BED8E034FFF090D8
:10133400BB0AE0FEA3E0FF7C007D0A126CE8AA066B
:10134400AB0790BCF0E0FEA3E0FF7D64126CE8EF15
:101354002BFFEE3AFE90BED9E02FFF90BED8E03EC0
:1013640090C7FDF0A3EFF090BEC8E0FEA3E0FF90AD
:10137400C7FDE0FCA3E0FDD39FEC9E502490BEB7D4
:10138400E0FEA3E0FFC3ED9FEC9E40157B017ABE17
:1013940079D890C826E4F0A304F07F307E20021EA2
:1013A400E190C7FBE0FFA3E090BED8CFF0A3EFF03D
:1013B4007B017ABE79D890C826E4F0A304F07F308C
:1013C4007E20021EE190BA2BE064016003021495B2
:1013D40090BB0AE0FEA3E0FF90C7FBEEF0A3EFF0A2
:1013E4004E700A90BB0AF0A37409F0800E90BB0BF8
:1013F400E024FFF090BB0AE034FFF090BB0AE0FE6B
:10140400A3E0FF7C007D0A126CE8AA06AB0790BC3F
:10141400F0E0FEA3E0FF7D64126CE8EF2BFFEE3AF0
:10142400FE90BED9E02FFF90BED8E03E90C7FDF0FD
:10143400A3EFF090BEC8E0FEA3E0FF90C7FDE0FC80
:10144400A3E0FDD39FEC9E502490BEB7E0FEA3E042
:10145400FFC3ED9FEC9E40157B017ABB790A90C8CF
:1014640026E4F0A304F07F107E20021EE190C7FB67
:10147400E0FFA3E090BB0ACFF0A3EFF07B017ABBBF
:10148400790A90C826E4F0A304F07F107E20021E9F
:10149400E190BA2BE06402600302394990BCF0E0A9
:1014A400FEA3E0FF90C7FBEEF0A3EFF04E700A90AE
:1014B400BCF0F0A37402F0800E90BCF1E024FFF0C5
:1014C40090BCF0E034FFF090BB0AE0FEA3E0FF7CA8
:1014D400007D0A126CE8AA06AB0790BCF0E0FEA3FC
:1014E400E0FF7D64126CE8EF2BFFEE3AFE90BED96C
:1014F400E02FFF90BED8E03E90C7FDF0A3EFF09040
:10150400BEC8E0FEA3E0FF90C7FDE0FCA3E0FDD36E
:101514009FEC9E502490BEB7E0FEA3E0FFC3ED9F76
:10152400EC9E40157B017ABC79F090C826E4F0A3C8
:1015340004F07F007E20021EE190C7FBE0FFA3E0E1
:1015440090BCF0CFF0A3EFF07B017ABC79F090C8A7
:1015540026E4F0A304F07F007E20021EE190BA2F5F
:10156400E0B4023990BFCAE0FEA3E0FFD390BCAA66
:10157400E09F90BCA9E09E5003023949A3E024FFF8
:10158400F090BCA9E034FFF07B017ABC79A990C843
:1015940026E4F0A304F07F507E20021EE190BA2FCF
:1015A400E06403600302180E90BA2BE06003021695
:1015B4007690BE0AE0FEA3E0FF90C7FBEEF0A3EF37
:1015C400F04E700A90BE0AF0A37409F0800E90BE2B
:1015D4000BE024FFF090BE0AE034FFF090BFD5E0AA
:1015E400FEA3E0FF7C007D0A126CE8AA06AB07901C
:1015F400BC27E0FEA3E0FF7D64126CE8EF2BFFEE56
:101604003AFE90BE0BE02FFF90BE0AE03E90C7FD6D
