:030000000266A1F4
:0800F800FFFF4457494E543547
:1066A100759401759502758E0075930075C87075A6
:1066B100C96075F80075F90175A80075B800759A7B
:1066C1000075A90075B90053D0E7787FE4F6D8FDCD
:1066D1009080007F007E80E4F0A3DFFCDEFA75810C
:0466E1001B02672011
:1053510090C331EEF0A3EFF0A3EBF0A3EAF0A3E9E1
:01536100F05B
:10536200E490C338F0A3F0A3F0A3F0A3F0A3F0A35A
:10537200F0A3F090C336E0FAA3E0FB4A70030255B3
:105382001090C331E0FEA3E0FFC3E49FFFE49EFE62
:10539200E4FCFD90C340124561AF03AE02E4FCFDA4
:1053A20090C340E0F8A3E0F9A3E0FAA3E0FBC31244
:1053B200452A501190C340A3A3E0FFA3E090C33657
:1053C200CFF0A3EFF090C331E0FCA3E0FDECC313F8
:1053D200FFED1390C338CFF0A3EFF0ED5401FFA31C
:1053E200E4F0A3EFF0C2AFE4F5F190C338E0FCA320
:1053F200E0FDECF5F28DF375F40175F8AF30FCFDCC
:1054020090C33AE07002A3E0603DD2FE20FEFD9020
:10541200C333E0FBA3E475F00112438CA9F0FAE573
:10542200FC1242DB90C333E0FBA3E475F0011243AC
:105432008CA9F0FAE5FD1242DB90C337E024FFF0BD
:1054420090C336E034FFF090C336E0FCA3E0FDECFD
:10545200C313FFED1390C33CCFF0A3EFF0ED540163
:10546200FFA3E4F0A3EFF090C33C74FFF5F0124306
:105472008C45F0605BD2FE20FEFD90C333E0FBA3BF
:10548200E475F00112438CA9F0FAE5FA1242DB90BE
:10549200C333E0FBA3E475F00112438CA9F0FAE5F3
:1054A200FB1242DB90C333E0FBA3E475F00112432D
:1054B2008CA9F0FAE5FC1242DB90C333E0FBA3E4D3
:1054C20075F00112438CA9F0FAE5FD1242DB8097D8
:1054D20090C33EE07002A3E0602FD2FE20FEFD905A
:1054E200C333E0FBA3E475F00112438CA9F0FAE5A3
:1054F200FA1242DB90C333E0FBA3E475F0011243DE
:0E5502008CA9F0FAE5FB1242DBE4F5F8D2AF1B
:015510002278
:105A0A0090C335EEF0A3EFF0A3EBF0A3EAF0A3E91D
:015A1A00F09B
:105A1B00E490C33CF0A3F0A3F0A3F0A3F0A3F090A9
:105A2B00C33AE07002A3E07003025B9C90C335E0C5
:105A3B00FEA3E0FFC3E49FFFE49EFED390C33BE0D5
:105A4B009F90C33AE09E4005EEF0A3EFF090C33574
:105A5B00E0FAA3E0FBEAC313FCEB13FDEB5401FFED
:105A6B0090C33CE4F0A3EFF0C2AFE4F5F1ECF5F238
:105A7B00AF058FF375F40175F88330FCFD90C33CD3
:105A8B00E07002A3E0603D90C337E0FBA3E475F048
:105A9B000112438CA9F0FA124295F5FC90C337E042
:105AAB00FBA3E475F00112438CA9F0FA124295F5B1
:105ABB00FDD2FE20FEFD90C33BE024FFF090C33AE5
:105ACB00E034FFF090C33AE0FCA3E0FDECC313FF1E
:105ADB00ED1390C33ECFF0A3EFF0ED5401FFA3E421
:105AEB00F0A3EFF075F88F90C33E74FFF5F01243FF
:105AFB008C45F0605B90C337E0FBA3E475F00112BB
:105B0B00438CA9F0FA124295F5FA90C337E0FBA348
:105B1B00E475F00112438CA9F0FA124295F5FB9053
:105B2B00C337E0FBA3E475F00112438CA9F0FA1222
:105B3B004295F5FC90C337E0FBA3E475F0011243EB
:105B4B008CA9F0FA124295F5FDD2FE30FE9980FB3E
:105B5B0090C340E07002A3E0603275F88C90C337BD
:105B6B00E0FBA3E475F00112438CA9F0FA12429505
:105B7B00F5FA90C337E0FBA3E475F00112438CA94F
:105B8B00F0FA124295F5FBD2FE20FEFDE4F5F8D2B9
:015B9B00AF5A
:015B9C0022E6
:105EB40090C431EEF0A3EFF0A3EBF0A3EAF0A3E972
:015EC400F0ED
:105EC500A3E0FEA3E0FF4E700302602D90C431E015
:105ED500FCA3E0FDC3E49DFDE49CFCD3EF9DEE9C9B
:105EE500400AAF0590C436ECF0A3EFF090C431E062
:105EF500FCA3E0FDECC313FEED13FBAA06ED540174
:105F0500FDC2AFE4F5F1EAF5F2AF038FF375F401E5
:105F150075F88330FCFDED604FC390C437E0940203
:105F250090C436E09400500302602890C433E0FB2F
:105F3500A3E475F00112438CA9F0FA124295F5FC21
:105F450090C433E0FBA3E475F00112438CA9F0FA89
:105F5500124295F5FDD2FE20FEFD90C437E024FEE9
:105F6500F090C436E034FFF090C436E0FEA3E0784C
:105F750002CEC313CE13D8F9FF75F88FEF1FAC0609
:105F850070011E4C605B90C433E0FBA3E475F00127
:105F950012438CA9F0FA124295F5FA90C433E0FB4E
:105FA500A3E475F00112438CA9F0FA124295F5FBB2
:105FB50090C433E0FBA3E475F00112438CA9F0FA19
:105FC500124295F5FC90C433E0FBA3E475F0011291
:105FD500438CA9F0FA124295F5FDD2FE30FE9D8064
:105FE500FB90C437E030E1047F0180027F00EF6061
:105FF5003275F88C90C433E0FBA3E475F0011243CD
:106005008CA9F0FA124295F5FA90C433E0FBA3E4AB
:1060150075F00112438CA9F0FA124295F5FBD2FEF8
:0860250020FEFDE4F5F8D2AF06
:01602D002250
:107D9B00EC90C467F0EDA3F07B017AC4796790C4D3
:0A7DAB0036E4F0A37402F0025EB4A7
:107E3500EF4E6010E4FD0DEDC3943240F9EF1F7075
:047E4500EF1E80ECC0
:017E49002216
:086E3E0090C43FEEF0A3EFF059
:106E4600A3745AF0A37401F090C43FE0FCA3E0FDE4
:106E5600EC90C443F0A3EDF07B017AC4794190C372
:106E66003AE4F0A37402F07F847E00125A0A7FF49B
:106E76007E01127E357B017AC4794190C336E4F0F7
:106E8600A37402F07F147E0012535190C43FE0FEBB
:106E9600A3E0FFA3E0B506D6A3E0B507D1E490C40E
:106EA60041F0A3F0A3F0A3F07B017AC4794190C32B
:0D6EB6003AF0A37402F07F167E00025A0A23
:0877490090C314EEF0A3EFF071
:10775100E4A3F0A3F090C314E0FEA3E0FFC390C341
:1077610017E09F90C316E09E5025E4FBFA7F017E4F
:1077710000127E350BBB00010ABA01F1BB2CEE9061
:0F778100C317E004F070CE90C316E004F080C68A
:0177900022D6
:10779100EF14601814602314602E240370397401EF
:1077A100A805088002C333D8FC42B7227401A8059A
:1077B100088002C333D8FC42BC227401A8050880AA
:1077C10002C333D8FC42BD22AF057401A80708806B
:0877D10002C333D8FC42BE22C2
:10766900EF1460191460251460312403703D74010E
:10767900A805088002C333D8FCF452B7227401A8C4
:1076890005088002C333D8FCF452BC227401A80552
:10769900088002C333D8FCF452BD22AF057401A897
:0C76A90007088002C333D8FCF452BE2254
:106B6E00EF14602D14604A14606724036003026CF6
:106B7E0000EB600E7401A805088002C333D8FC42F6
:106B8E0080227401A805088002C333D8FCF4528019
:106B9E0022EB600E7401A805088002C333D8FC42B4
:106BAE0090227401A805088002C333D8FCF45290D9
:106BBE0022EB600E7401A805088002C333D8FC4294
:106BCE00A0227401A805088002C333D8FCF452A099
:106BDE0022EB600E7401A805088002C333D8FC4274
:106BEE00B022AF057401A807088002C333D8FCF4A5
:036BFE0052B02270
:1074D000EF14601A1460271460342403704274019E
:1074E000A805088002C333D8FC5580FE803474019F
:1074F000A805088002C333D8FC5590FE802474018F
:10750000A805088002C333D8FC55A0FE8014AF053F
:107510007401A807088002C333D8FC55B0FE80026E
:04752000E4FEAF06D0
:017524002244
:107CD100758911E4F58CF58AC28CF518F51A43897A
:0E7CE10001758CBC758ACDD2A9D2AFD28C228F
:03000B00026FB6CB
:0D6FB600C0E0C0D075D000C000C006C0070C
:106FC300C2AF758CBC758ACD0519751B0074017E23
:106FD30000A81B088005C333CE33CED8F9FFEF5585
:106FE3001A602DE51B25E02408F808E61618700141
:106FF30016E51B25E02408F8E6FE08E64E7011AFFF
:107003001B04A807088002C333D8FC4218F4521AA1
:09701300051BE51BB408B6D2AF61
:0B701C00D007D006D000D0D0D0E0326A
:107DB500758911E4F58DF58BC28ED2AF43891075A7
:0A7DC5008DBC758BCDD2ABD28E229F
:03001B00027ED191
:0D7ED100C2AF758DBC758BCDB290D2AF32B3
:107E740075C8F075CD58E4F5CC75CB58F5CA43C830
:047E840001D2AD2258
:03002B00027EEA68
:097EEA00C2AFC2C6B291D2AF32A0
:107C8E00C2AF7401A807088002C333D8FCFE421AA3
:107C9E00EF25E02408F8A60408A605EEF45218D243
:027CAE00AF2203
:107E4A00C2AF7401A807088002C333D8FCF4521ADF
:057E5A005218D2AF2216
:107E9C00C2AF7401A807088002C333D8FC5518FF81
:027EAC00D2AF53
:017EAE0022B1
:1075CD00AB07AA06A905A8047F007E387D317C0093
:1075DD00124498C3E49F90C313F074049E90C31299
:1075ED00F043C9407D04E4FF1277917D05E4FF125D
:1075FD00766943803075D88075985090C312E0FC41
:0D760D00A3E0FDECF5BA8DAA43A810D2ACA5
:01761A00224D
:10770000AB07AA06A905A8047F007E707D627C00F5
:10771000124498C3E49F90C313F074049E90C31264
:10772000F043C9207D06E4FF1277917D07E4FF1244
:1077300076694380C0759B9090C312E0FCA3E0FD86
:08774000ECF5BB8D9D439A019D
:01774800221E
:1079BD00759680759780AB07AA06A905A8047F0068
:1079CD007EC07D897C01124498AD07AC06ECF5D9DB
:1079DD00AF058FE743B80CE4909812F0A3F0A3F035
:1079ED00A3F090981AF0909816F0A3F0A3F0A3F0DE
:0179FD002267
:107C430075A78075AB80AB07AA06A905A8047F00BA
:107C53007EC07D897C01124498AD07AC06ECF5AE7D
:077C6300AF058FAF43B830FD
:017C6A0022F7
:10757A00EF14601B1460291460372403704490C30D
:10758A000EE0FCA3E0FDA3E0FEA3E0FF0275CD90B0
:10759A00C30EE0FCA3E0FDA3E0FEA3E0FF02770038
:1075AA0090C30EE0FCA3E0FDA3E0FEA3E0FF027996
:1075BA00BD90C30EE0FCA3E0FDA3E0FEA3E0FF1232
:0375CA007C4322DD
:1055110090C30DEFF0A3ECF0A3EDF0A3EBF0A3EA41
:04552100F0A3E9F01A
:10552500C2AFE4A3F0A3F090C30EE0FEA3E0FFC377
:1055350090C314E09F90C313E09E40030255E99089
:10554500C310E0FBA3E475F00112438CA9F0FA1235
:105555004295FF90C30DE0FE75F009A42400F58285
:10556500E5F03488F583EE75F008A42583F583E02E
:10557500FCA3E0FD75F009EEA42400F582E5F03406
:1055850080F583EE75F008A42583F583E5822DF576
:1055950082E5833CF583EFF075F009EEA42400F570
:1055A50082E5F03488F583EE75F008A42583F5834C
:1055B500E475F00112437675F009EEA42400F58236
:1055C500E5F03488F583EE75F008A42583F583E0CE
:1055D5005403F090C314E004F0700690C313E00484
:1055E500F002552C90C30DE01460421460701470E5
:1055F50003025691240360030256C1908808E060B7
:10560500030256C104F0908802E0FEA3E02400F5F1
:105615008274803EF583E0F599908803E004F0708C
:1056250006908802E004F09088020256BD90901121
:10563500E060030256C104F090900BE0FEA3E02465
:1056450009F58274883EF583E0F59C90900CE004A2
:10565500F0700690900BE004F090900B805A9098B3
:105665001AE0705804F0909814E0FEA3E02412F5B7
:105675008274903EF583E0F59E909815E004F070F5
:1056850006909814E004F0909814802C90A023E0E4
:10569500702A04F090A01DE0FEA3E0241BF582749F
:1056A500983EF583E0F5AC90A01EE004F0700690FE
:0E56B500A01DE004F090A01DE05403F0D2AF61
:0156C30022C4
:03002300026D2249
:106D2200C0E0C083C082C0D075D000C006C007C218
:106D3200AF30982AC298908804E0FEA3E02400F5C0
:106D42008274843EF583E599F0908805E004F07042
:106D520006908804E004F0908804E05403F030992F
:106D62003FC299908802E0FEA3E0FF908800E06EA7
:106D72007003A3E06F602474002FF58274803EF5E7
:106D820083E0F599908803E004F07006908802E0B1
:106D920004F0908802E05403F08005908808E4F043
:0F6DA200D2AFD007D006D0D0D082D083D0E0328D
:030053000272A88E
:1072A800C0E0C083C082C0D075D000C006C007C28D
:1072B800AF5396FE909814E0FEA3E0FF909812E07A
:1072C8006E7003A3E06F602474122FF58274903EF1
:1072D800F583E0F59E909815E004F07006909814F8
:1072E800E004F0909814E05403F0800590981AE4B4
:1072F800F0D2AFD007D006D0D0D082D083D0E03241
:03005B000277D950
:1077D900C0E0C083C082C0D075D000C006C2AF531C
:1077E90097FE909816E0FEA3E02412F58274943E69
:1077F900F583E59FF0909817E004F07006909816CD
:10780900E004F0909816E05403F0D2AFD006D0D03F
:07781900D082D083D0E032E1
:030063000273081D
:10730800C0E0C083C082C0D075D000C006C007C22C
:10731800AF53A7FE90A01DE0FEA3E0FF90A01BE0E6
:107328006E7003A3E06F6024741B2FF58274983E7F
:10733800F583E0F5AC90A01EE004F0700690A01D67
:10734800E004F090A01DE05403F0800590A023E431
:10735800F0D2AFD007D006D0D0D082D083D0E032E0
:03006B00027820F8
:10782000C0E0C083C082C0D075D000C006C2AF53D4
:10783000ABFE90A01FE0FEA3E0241BF582749C3EEB
:10784000F583E5ADF090A020E004F0700690A01F55
:10785000E004F090A01FE05403F0D2AFD006D0D0E7
:07786000D082D083D0E0329A
:03008300026AD33B
:106AD300C0E0C083C082C0D075D000C006C007C26A
:106AE300AFE59B30E02E759B90539BFE90900DE09D
:106AF300FEA3E02409F582748C3EF583E59CF090B7
:106B0300900EE004F0700690900DE004F090900D6C
:106B1300E05403F0E59B30E143759B90539BFD905C
:106B2300900BE0FEA3E0FF909009E06E7003A3E0FA
:106B33006F602474092FF58274883EF583E0F59C19
:106B430090900CE004F0700690900BE004F09090AD
:106B53000BE05403F08005909011E4F0D2AFD0071E
:0B6B6300D006D0D0D082D083D0E0322A
:107E5F007596807597807C00ECF5D975E7E0759E77
:047E6F000D53B8F304
:017E730022EC
:0B7C6B0090C345EBF0A3EAF0A3E9F0A2
:107C760090C3707401F0A374C3F0A37448F090C36A
:077C860070E4F0A3F0A3F08D
:017C8D0022D4
:027F010080FE00
:054F5D0042C4690000E0
:1068DE00E490C308F0A3F0A3740AF0A3740DF0A320
:1068EE0074EFF0127CD1127DB512518AE4FD7F0255
:1068FE001276697D607CEAE4FF127C8E7DF47C0169
:10690E007F01127C8E126F40D2AF90C228E0FF1230
:10691E007AFE1258767D887C137F07127C8E7B015F
:10692E007AC3790990C33AE4F0A304F07F007E8223
:10693E00125A0A12000012793890C469E07002A34C
:10694E00E070187F07127E9CEF601090C469E4F02F
:10695E00A304F090C228F0FF127AFE90C469E07092
:10696E0002A3E060D112797B127175125B9D90C308
:0B697E0006EEF0A3EFF012010080BB5A
:104F620041C2A30042C22C000041C21B0044C279CC
:104F72000000000046C213000000000000604EC1A5
:104F8200C500000001000200030004000500060045
:104F92000700080009000A000B000C000D000E00BB
:104FA2000F0010001100120013001400150016006B
:104FB2001700180019001A001B001C001D001E001B
:104FC2001F00200021002200230024002500264289
:104FD200C23F000041C2A60042C21E000042C23CC3
:104FE200000050C28B000000000000000000000022
:104FF200000000000050C25C000000000000000041
:10500200000000000000000050C249000000000043
:10501200000000000000000000000042C2AB0000DF
:1050220042C277000042C23A000042C2A8000042D7
:10503200C274000042C29C000042C247000042C249
:1050420072000042C219000042C241000041C28AFD
:105052000042C2AD000042C221000042C22A00004A
:1050620041C21C0041C2800141C2810241C284038B
:1050720041C2850441C2860541C2870641C28807F2
:1050820041C2200841C2330941C2390A41C2700BF0
:1050920041C2270C41C2320D41C2450E41C25B0FD3
:1050A20041C2A21041C2AA1141C2311241C28913A6
:1050B20041C2A11441C2241541C29B1641C27D17AF
:1050C20041C2301841C2291941C2231A41C23E1BB2
:1050D20041C22F1C41C2761D41C27F1E41C26F1FB9
:1050E20041C22E2041C26E2141C2A72241C24623A3
:1050F20041C2A02441C21D2541C27E2642C29EE277
:105102004042C234000041C2710041C2360042C274
:105112006C000042C243000042C2A4000042C237F7
:10512200000041C1B20041C1B30041C1B40041C15C
:10513200B50041C1B60041C1B70041C1B80042C18A
:10514200B9000042C1BB000042C1BD000042C1BF64
:07515200000042C1C1000092
:106EC30090C1BFF0A3F090C1B4F090C225E0FEA33F
:106ED300E0FF7C007D0A12430FAA06AB0790C2595C
:106EE300E0FEA3E0FF7D6412430FEF2BFFEE3AFEBB
:106EF30090C283E02FFF90C282E03E90C311F0A3C3
:0E6F0300EFF07F0090C311E0FCA3E0FD7E8163
:106F110090C1C3EEF0A3EFF090C2ADECF0A3EDF0A1
:106F210090C28A7401F0FB7AC279AD90C33AE4F061
:0F6F3100A304F0125A0A7DBC7C027F06027C8EFC
:0C7EDE00E490C28AF090C22AF0A3F022C7
:1071750090C28AE060637F06127E9CEF605B90C1DF
:10718500C3E0FEA3E0FF7B017AC2792190C336E418
:10719500F0A304F012535190C221E0FEA3E0FF904A
:1071A500C2ADE0FCA3E0FDB50707ECB50603027E22
:1071B500DEC390C22BE0940290C22AE094005019DD
:1071C50090C1C3E0FEA3E0FF126F1190C22BE00453
:0A71D500F0700690C22AE004F022D8
:067EFB00E490C21BF0221E
:1062FB0090C331ECF0A3EDF0EE6003026419EF24D0
:10630B00FE606A14606B1470030263DE2403600387
:10631B0002641990C331E0FEA3E0FFEE703DEF1471
:10632B006019146026240270327F037E1012000065
:10633B007F137E101200007F33805C7F037E101270
:10634B0000007F137E10120000801E7F037E101250
:10635B0000007F137E10120000800E7F037E101250
:10636B0000007F137E101200007F3380627F53800A
:10637B002690C331E0FEA3E0FFEE7043EF14601BE9
:10638B0014602A240270387F637E101200007F7322
:10639B007E101200007F837E1080627F637E10125E
:1063AB0000007F737E101200007F8380227F637E4C
:1063BB00101200007F737E101200007F8380107F0D
:1063CB00637E101200007F737E101200007F837EAD
:1063DB0010803890C331E0FEA3E0FFEE7022EF1483
:1063EB00601004701B7F137E111200007F337E112F
:1063FB0080197F137E111200007F337E1102000083
:0F640B007F137E111200007F337E1112000022DA
:0A46210090C228E0FF7E00E4FDFCDB
:10462B0090C331ECF0A3EDF0EE600302499BEF2455
:10463B00F0B40800400302499B90465275F003A466
:10464B00C58325F0C5837302466A0246E702474AD3
:10465B000247C70248440248A70249230249759002
:10466B00C331E07002A3E070177F537E111200007C
:10467B007F637E111200007F737E11120000804257
:10468B0090C331E07004A3E0640170107F537E117E
:10469B001200007F637E11120000801F90C331E077
:1046AB007004A3E064027F537E117005120000803A
:1046BB00031200007F637E111200007F737E1112C4
:1046CB00000090C331E07004A3E0640370047D012B
:1046DB008002E4FDFC7F807E2102499890C331E08B
:1046EB007002A3E070107F937E111200007F037E97
:1046FB0012120000802F90C331E07004A3E064011C
:10470B0070097F937E11120000801390C331E0700B
:10471B0004A3E06402700E7F937E111200007F03EE
:10472B007E1212000090C331E07004A3E0640270AB
:10473B00047D018002E4FDFC7F107E2202499890EB
:10474B00C331E07002A3E070177F237E12120000CA
:10475B007F837E901200007F937E90120000804238
:10476B0090C331E07004A3E0640170107F237E12CC
:10477B001200007F837E90120000801F90C331E0F7
:10478B007004A3E064027F237E1270051200008088
:10479B00031200007F837E901200007F937E9012A5
:1047AB00000090C331E07004A3E0640370047D014A
:1047BB008002E4FDFC7F307E3902499890C331E0E2
:1047CB007002A3E070177F637E121200007F337EAE
:1047DB00121200007F437E12120000804290C33100
:1047EB00E07004A3E0640170107F637E121200007E
:1047FB007F337E12120000801F90C331E07004A340
:10480B00E064027F637E12700512000080031200C9
:10481B00007F337E121200007F437E121200009045
:10482B00C331E07004A3E0640370047D018002E4F3
:10483B00FDFC7F507E2202499890C331E07002A3A9
:10484B00E070107F037E131200007413FFFE120042
:10485B0000802F90C331E07004A3E0640170097FE6
:10486B00037E13120000801390C331E07004A3E0A9
:10487B006402700E7F037E131200007413FFFE128E
:10488B00000090C331E07004A3E0640270047D016A
:10489B008002E4FDFC7F207E2302499890C331E027
:1048AB007002A3E070177F337E131200007F437EEC
:1048BB00131200007F537E13120000804290C3310D
:1048CB00E07004A3E0640170107F337E13120000CC
:1048DB007F437E13120000801F90C331E07004A34E
:1048EB00E064027F337E1370051200008003120018
:1048FB00007F437E131200007F537E131200009043
:10490B00C331E07004A3E0640370047D018002E412
:10491B00FDFC7F607E23807590C331E07002A3E0C5
:10492B0070097F737E13120000801F90C331E070FB
:10493B0004A3E064017F737E13700C1200007F836D
:10494B007E13120000800A1200007F837E13120078
:10495B000090C331E07004A3E0640270047D018019
:10496B0002E4FDFC7F907E23802390C331E0700432
:10497B00A3E064017F037E1470091200007D017CAB
:10498B00008006120000E4FDFC7F107E24127CF4F4
:01499B0022F9
:057CEF00E4FDFC7F90A4
:107CF40090C333ECF0A3EDF07B017AC3793390C3E6
:097D04003AE4F0A304F0025A0A6B
:067AF800E0FF90C228F03F
:107AFE0090C279745AF0A37401F0E4A3F0EF25E07C
:107B0E0024C5F582E434C1F583A3E090C27CF07BFA
:107B1E00017AC2797990C33AE4F0A37402F07F84BB
:057B2E007E00025A0A6E
:087EF30090C228EFF0027AFEB4
:107424007F037E101200007F137E101200007F3352
:107434007E101200007F437E101200007F537E10E6
:107444001200007F637E101200007F737E10120012
:10745400007F837E101200007F137E111200007FD4
:10746400337E111200007F737E92120000E4FDFC53
:06747400FF7E30027CF4F3
:076DB10090C1B8E0FF7E0075
:106DB80090C331EEF0A3EFF064014E70197F037EAB
:106DC800101200007F137E101200007F337E101215
:106DD80000007D01803C90C331E07004A3E06402B0
:106DE800700D7F437E101200007F537E1080439009
:106DF800C331E07004A3E0640370207F637E101247
:106E080000007F737E101200007F837E1012000046
:106E18007D027C007F007E30027CF490C331E070FC
:106E280004A3E06404700E7F137E111200007F3308
:066E38007E111200002291
:04761B00AB07AA0609
:10761F007C007D3C12432190C30FEEF0A3EFF0AE40
:10762F0002AF037C007D3C124321A3ECF0A3EDF0ED
:10763F007B017AC3790F90C33AE4F0A304F07F1073
:10764F007E21125A0A7B017AC3791190C33AE4F072
:0A765F00A304F07F307E21025A0AD6
:08747A0090C237E0FEA3E0FF21
:04748200AB07AA06A4
:107486007C007D3C12432190C331EEF0A3EFF0AEB9
:1074960002AF037C007D3C124321A3ECF0A3EDF088
:1074A6007B017AC3793190C33AE4F0A304F07F00FC
:1074B6007E31125A0A7B017AC3793390C33AE4F0DB
:0A74C600A304F07F007E32025A0A90
:1079FE0090C2367401F07F037E111200007F137E59
:107A0E00111200007F237E111200007F337E1112AF
:107A1E0000007B017AC2793790C336E4F0A304F0FC
:107A2E007F067E811253517DE87C037F05027C8E9A
:107CB000E490C236F07F037E111200007F137E1124
:107CC0001200007F237E111200007F337E1102001C
:017CD00000B3
:10797B0090C236E070077F037E110200007F051274
:10798B007E9CEF602C90C238E024FFF090C237E071
:10799B0034FFF012747DD390C238E0940090C2375C
:1079AB00E094005003027CB07DE87C037F05127CE1
:0279BB008E221A
:10587600E490C30DF0A3F07B017AC2794190C33660
:10588600F0A304F07F047E811253517B017AC37921
:105896000D90C336E4F0A304F07F007E81125351CD
:1058A60090C30DE0FAA3E0FB7C007D64FFAE02121C
:1058B600432190C259EEF0A3EFF07C007D0AAF03BE
:1058C600AE021243217C007D0A12432190C225ECD0
:1058D600F0A3EDF090C30DE0FEA3E0FF7C007D0A8F
:1058E60012432190C282ECF0A3EDF07B017AC379DA
:1058F6000D90C336E4F0A304F07F027E811253516B
:1059060090C30DE0FAA3E0FB7C007D64FFAE0212BB
:10591600432190C23AEEF0A3EFF07C007D0AAF037C
:10592600AE021243217C007D0A12432190C2A8ECEC
:10593600F0A3EDF090C30DE0FEA3E0FF7C007D0A2E
:1059460012432190C274ECF0A3EDF07B017AC27988
:105956004390C336E4F0A304F07F067E81125351D0
:1059660090C243E0FEA3E0FF12761B7B017AC37967
:105976000D90C336E4F0A304F07F087E81125351E4
:1059860090C30DE0FAA3E0FB7C007D0AFFAE021295
:1059960043217C007D0A12432190C2ABECF0A3EDBB
:1059A600F07C007D0AAF03AE0212432190C277EC71
:1059B600F0A3EDF07B017AC3790D90C336E4F0A332
:1059C60004F07F0A7E8112535190C30DE0FAA3E0E2
:1059D600FB7C007D0AFFAE021243217C007D0A1289
:1059E600432190C29CECF0A3EDF07C007D0AAF034E
:1059F600AE0212432190C247ECF0A3EDF07F737E16
:045A06009202000008
:0801000090C30DEEF0A3EFF037
:10010800E4A3F0A3F0A3F0A3F090C1B2E0600DE483
:10011800FF127E9CEF6005E490C1B2F090C30DE041
:10012800FEA3E0FF64014E6006EF64024E70099082
:10013800C1B2E06003023C457B017AC179C190C33A
:1001480036E4F0A304F07F0C7E8012535190C1C1B5
:10015800A3E0FF7C0030E0047D0180027D0090C3B5
:1001680013ECF0A3EDF0EF7E0030E1047F01800294
:100178007F0090C315EEF0A3EFF090C1C1A3E0FF9C
:100188007C0030E2047D0180027D0090C325ECF004
:10019800A3EDF0EF7E0030E3047F0180027F009042
:1001A800C327EEF0A3EFF090C1C1A3E0FF7C0030BD
:1001B800E4047D0180027D0090C329ECF0A3EDF0FA
:1001C800EF7E0030E7047F0180027F0090C317EEC6
:1001D800F0A3EFF090C1C1E0FEEE7C0030E4047DB6
:1001E8000180027D0090C319ECF0A3EDF0EE7E00D3
:1001F80030E0047F0180027F0090C31BEEF0A3EF84
:10020800F090C1C1A3E0FF7C0030E5047D018002CD
:100218007D0090C31DECF0A3EDF0EF7E0030E60406
:100228007F0180027F0090C31FEEF0A3EFF090C122
:10023800C1E0FEEE7C0030E1047D0180027D00908B
:10024800C321ECF0A3EDF0EE7E0030E2047F0180E4
:10025800027F0090C323EEF0A3EFF090C1C1E0FE4F
:10026800EE7C0030E3047D0180027D0090C32BEC1E
:10027800F0A3EDF0EE7E0030E5047F0180027F0000
:1002880090C32DEEF0A3EFF090C31DE07004A3E03F
:040298006401700B82
:09029C0090C32F74C0F0A3744458
:1002A500801D90C321E07004A3E0640190C32F700A
:0102B5000840
:0602B6007405F0A3741CA6
:0202BC008006BA
:1002BE0074CEF0A37459F07B017AC3792F90C33AB0
:0C02CE00E4F0A304F07F237E14125A0A0F
:0C02DA0090C31FE07004A3E06401700BEF
:0902E60090C32F74C0F0A374440E
:1002EF00801D90C323E07004A3E0640190C32F70BE
:0102FF0008F6
:060300007405F0A3741C5B
:0203060080066F
:1003080074CEF0A37459F07B017AC3792F90C33A65
:0C031800E4F0A304F07F337E14125A0AB4
:1003240090C31BE07004A3E06401700F90C2A6E0C8
:1003340070091279FE90C2A67401F090C228E0B44C
:10034400182990C21EE07002A3E0701F7B017AC2DC
:10035400793790C336F0A304F07F067E811253519F
:1003640012747A90C21EE4F0A304F090C313E070F8
:1003740004A3E06401600302042C90C23FE0700413
:10038400A3E06401600302042C90C230E0FF127EFB
:10039400F37B017AC3791190C336E4F0A304F07FB0
:1003A400067E8112535190C311E0FAA3E0FB7C0056
:1003B4007D3CFFAE0212432190C272EEF0A3EFF037
:1003C4007C007D3CAF03AE0212432190C219ECF0D5
:1003D400A3EDF07B017AC2797290C33AE4F0A304EE
:1003E400F07F107E21125A0A7B017AC2791990C3D8
:1003F4003AE4F0A304F07F307E21125A0AE490C15B
:10040400B7F090C1B3F0A3F090C1BFF0A3F090C1D6
:10041400B8F090C23FF0A3F090C2A6F090C21EF0D4
:10042400A3F0127CB00204E590C317E07004A3E0CB
:100434006401602690C31FE07004A3E06401601AA5
:1004440090C31DE07004A3E064017002800C90C3AB
:100454001BE07004A3E06401703012742490C23F66
:10046400E4F0A304F090C229E0FF127EF3E490C10B
:10047400B7F090C1B3F0A3F090C1BFF0A3F090C166
:10048400B8F090C23CF0A3F0805790C323E070040E
:10049400A3E06401600C90C321E07004A3E0640154
:1004A400703F12742490C223E0FF127EF3127CB0DA
:1004B40090C237E07004A3E06401700990C237F081
:1004C400A3F012747AE490C1B7F090C1B3F0A3F032
:1004D40090C1BFF0A3F090C1B8F090C23FF0A30464
:1004E400F090C30DE0FEA3E0FFEE6003023C45EF95
:1004F40024FE7003021AE01470030232CA1470035B
:10050400023C1124036003023C4590C1BFE0700427
:10051400A3E06401600302199490C2A2E0FF90C2B8
:1005240028E06F600302077190C1B4E06003020524
:10053400E190C282E0FEA3E0FF90C30FEEF0A3EFD0
:10054400F04E700A90C282F0A37409F0800E90C23B
:1005540083E024FFF090C282E034FFF090C225E0F3
:10056400FEA3E0FF7C007D0A12430FAA06AB0790AE
:10057400C259E0FEA3E0FF7D6412430FEF2BFFEEB0
:100584003AFE90C283E02FFF90C282E03E90C311F6
:10059400F0A3EFF0900000E0FEA3E0FF90C311E0B1
:1005A400FCA3E0FDD39FEC9E5011900000E0FEA35D
:1005B400E0FFC3ED9FEC9E4002800F90C30FE0FF6D
:1005C400A3E090C282CFF0A3EFF07B017AC27982DC
:1005D40090C33AE4F0A304F07F700218B590C1B45C
:1005E400E0640160030206A990C225E0FEA3E0FFD7
:1005F40090C30FEEF0A3EFF04E700A90C225F0A363
:100604007409F0800E90C226E024FFF090C225E029
:1006140034FFF090C225E0FEA3E0FF7C007D0A12C7
:10062400430FAA06AB0790C259E0FEA3E0FF7D6426
:1006340012430FEF2BFFEE3AFE90C283E02FFF90A0
:10064400C282E03E90C311F0A3EFF0900000E0FE00
:10065400A3E0FF90C311E0FCA3E0FDD39FEC9E5008
:1006640022900000E0FEA3E0FFC3ED9FEC9E401348
:100674007B017AC2792590C33AE4F0A304F07F6049
:100684000218B590C30FE0FFA3E090C225CFF0A3FA
:10069400EFF07B017AC2792590C33AE4F0A304F029
:1006A4007F600218B590C1B4E0640260030232BBFB
:1006B40090C259E0FEA3E0FF90C30FEEF0A3EFF069
:1006C4004E700A90C259F0A37402F0800E90C25A80
:1006D400E024FFF090C259E034FFF090C225E0FE20
:1006E400A3E0FF7C007D0A12430FAA06AB0790C269
:1006F40059E0FEA3E0FF7D6412430FEF2BFFEE3AB7
:10070400FE90C283E02FFF90C282E03E90C311F0BE
:10071400A3EFF0900000E0FEA3E0FF90C311E0FC23
:10072400A3E0FDD39FEC9E5022900000E0FEA3E0E6
:10073400FFC3ED9FEC9E40137B017AC2795990C3AD
:100744003AE4F0A304F07F500218B590C30FE0FF21
:10075400A3E090C259CFF0A3EFF07B017AC279599C
:1007640090C33AE4F0A304F07F500218B590C2AAF3
:10077400E0FF90C228E06F60030208BC90C1B4E0BF
:10078400600302081890C277E0FEA3E0FF90C30F55
:10079400EEF0A3EFF04E700A90C277F0A37409F064
:1007A400800E90C278E024FFF090C277E034FFF02E
:1007B40090C2ABE0FEA3E0FF7C007D0A12430F90E1
:1007C400C278E02FFF90C277E03E90C311F0A3EF10
:1007D400F090C311E0FEA3E0FFD39450EE940050D8
:1007E4001BEF9400EE940040137B017AC27977905A
:1007F400C33AE4F0A304F07F000218B590C30FE0FD
:10080400FFA3E090C277CFF0A3EFF07B017AC27927
:100814007702097B90C1B4E0640160030232BB90AB
:10082400C2ABE0FEA3E0FF90C30FEEF0A3EFF04EE7
:10083400700A90C2ABF0A37408F0800E90C2ACE0D2
:1008440024FFF090C2ABE034FFF090C2ABE0FEA313
:10085400E0FF7C007D0A12430F90C278E02FFF90E6
:10086400C277E03E90C311F0A3EFF090C311E0FE15
:10087400A3E0FFD39450EE9400501BEF9400EE9449
:100884000040137B017AC279AB90C33AE4F0A3042D
:10089400F07F900218B590C30FE0FFA3E090C2ABC5
:1008A400CFF0A3EFF07B017AC279AB90C33AE4F0C6
:1008B400A304F07F900218B590C231E0FF90C228E3
:1008C400E06F6003020B1690C1B4E0600302098874
:1008D40090C1B9E0FEA3E0FF90C30FEEF0A3EFF0E8
:1008E4004E700A90C1B9F0A37402F0800E90C1BAA0
:1008F400E024FFF090C1B9E034FFF090C1BBE0FE0A
:10090400A3E0FF7C007D0A12430FAA06AB0790C147
:10091400B9E0FEA3E0FF7D6412430FEF2BFFEE3A34
:10092400FE90C1BEE02FFF90C1BDE03E90C311F028
:10093400A3EFF090C311E0FEA3E0FFD39432EE9452
:1009440000501FEF9400EE9400401790C1B9E0FFEF
:10095400A3E090C28FCFF0A3EFF07B017AC179B905
:10096400801590C30FE0FFA3E090C1B9CFF0A3EFCF
:10097400F07B017AC179B990C33AE4F0A304F07F23
:100984000002126E90C1B4E064016003020A529046
:10099400C1BBE0FEA3E0FF90C30FEEF0A3EFF04E67
:1009A400700A90C1BBF0A37405F0800E90C1BCE046
:1009B40024FFF090C1BBE034FFF090C1BBE0FEA384
:1009C400E0FF7C007D0A12430FAA06AB0790C1B971
:1009D400E0FEA3E0FF7D6412430FEF2BFFEE3AFE2F
:1009E40090C1BEE02FFF90C1BDE03E90C311F0A3C3
:1009F400EFF090C311E0FEA3E0FFD39432EE940035
:100A0400502AEF9400EE9400402290C1BBE0FFA373
:100A1400E090C260CFF0A3EFF07B017AC179BB9084
:100A2400C33AE4F0A304F07F1002126E90C30FE007
:100A3400FFA3E090C1BBCFF0A3EFF07B017AC179B3
:100A4400BB90C33AE4F0A304F07F1002126E90C18D
:100A5400B4E0640260030232BB90C1BDE0FEA3E0D7
:100A6400FF90C30FEEF0A3EFF04E700A90C1BDF0FB
:100A7400A37409F0800E90C1BEE024FFF090C1BDC4
:100A8400E034FFF090C1BBE0FEA3E0FF7C007D0AF0
:100A940012430FAA06AB0790C1B9E0FEA3E0FF7DA5
:100AA4006412430FEF2BFFEE3AFE90C1BDE0FCA3AE
:100AB400E0FD2FFFEC3E90C311F0A3EFF090C311C3
:100AC400E0FEA3E0FFD39432EE94005023EF9400B1
:100AD400EE9400401B90C24DECF0A3EDF07B017A44
:100AE400C179BD90C33AE4F0A304F07F2002126EF2
:100AF40090C30FE0FFA3E090C1BDCFF0A3EFF07B64
:100B0400017AC179BD90C33AE4F0A304F07F2002D6
:100B1400126E90C289E0FF90C228E06F6003020D5C
:100B24007B90C1B4E06003020BEB90C274E0FEA3BF
:100B3400E0FF90C30FEEF0A3EFF04E700A90C27482
:100B4400F0A37409F0800E90C275E024FFF090C207
:100B540074E034FFF090C2A8E0FEA3E0FF7C007DC7
:100B64000A12430FAA06AB0790C23AE0FEA3E0FFC5
:100B74007D6412430FEF2BFFEE3AFE90C275E02F17
:100B8400FF90C274E03E90C311F0A3EFF090000018
:100B9400E0FEA3E0FF90C311E0FCA3E0FDD39FECD3
:100BA4009E5022900000E0FEA3E0FFC3ED9FEC9E68
:100BB40040137B017AC2797490C33AE4F0A304F041
:100BC4007F8002126E90C30FE0FFA3E090C274CF47
:100BD400F0A3EFF07B017AC2797490C33AE4F0A3F6
:100BE40004F07F8002126E90C1B4E06401600302DD
:100BF4000CB390C2A8E0FEA3E0FF90C30FEEF0A3F5
:100C0400EFF04E700A90C2A8F0A37409F0800E9021
:100C1400C2A9E024FFF090C2A8E034FFF090C2A87B
:100C2400E0FEA3E0FF7C007D0A12430FAA06AB0797
:100C340090C23AE0FEA3E0FF7D6412430FEF2BFF66
:100C4400EE3AFE90C275E02FFF90C274E03E90C36E
:100C540011F0A3EFF0900000E0FEA3E0FF90C311B9
:100C6400E0FCA3E0FDD39FEC9E5022900000E0FE48
:100C7400A3E0FFC3ED9FEC9E40137B017AC279A8E9
:100C840090C33AE4F0A304F07F7002126E90C30F95
:100C9400E0FFA3E090C2A8CFF0A3EFF07B017AC2FB
:100CA40079A890C33AE4F0A304F07F7002126E9026
:100CB400C1B4E0640260030232BB90C23AE0FEA316
:100CC400E0FF90C30FEEF0A3EFF04E700A90C23A2B
:100CD400F0A37402F0800E90C23BE024FFF090C2B7
:100CE4003AE034FFF090C2A8E0FEA3E0FF7C007D70
:100CF4000A12430FAA06AB0790C23AE0FEA3E0FF34
:100D04007D6412430FEF2BFFEE3AFE90C275E02F85
:100D1400FF90C274E03E90C311F0A3EFF090000086
:100D2400E0FEA3E0FF90C311E0FCA3E0FDD39FEC41
:100D34009E5022900000E0FEA3E0FFC3ED9FEC9ED6
:100D440040137B017AC2793A90C33AE4F0A304F0E9
:100D54007F6002126E90C30FE0FFA3E090C23ACF0F
:100D6400F0A3EFF07B017AC2793A90C33AE4F0A39E
:100D740004F07F6002126E90C2A1E0FF90C228E0EE
:100D84006F6003020EBF90C1B4E06003020E1B90BB
:100D9400C247E0FEA3E0FF90C30FEEF0A3EFF04ED6
:100DA400700A90C247F0A37409F0800E90C248E024
:100DB40024FFF090C247E034FFF090C29CE0FEA311
:100DC400E0FF7C007D0A12430F90C248E02FFF90A1
:100DD400C247E03E90C311F0A3EFF090C311E0FED0
:100DE400A3E0FFD39450EE9400500AEF9400EE94E5
:100DF400004002800F90C30FE0FFA3E090C247CFF2
:100E0400F0A3EFF07B017AC2794790C33AE4F0A3F0
:100E140004F07F100211BA90C1B4E06401600302CF
:100E240032BB90C29CE0FEA3E0FF90C30FEEF0A3A0
:100E3400EFF04E700A90C29CF0A37408F0800E90FC
:100E4400C29DE024FFF090C29CE034FFF090C29C6D
:100E5400E0FEA3E0FF7C007D0A12430F90C248E04D
:100E64002FFF90C247E03E90C311F0A3EFF090C370
:100E740011E0FEA3E0FFD39450EE9400501BEF94D6
:100E840000EE940040137B017AC2799C90C33AE44B
:100E9400F0A304F07F000211BA90C30FE0FFA3E0B7
:100EA40090C29CCFF0A3EFF07B017AC2799C90C3EF
:100EB4003AE4F0A304F07F000211BA90C224E0FFE8
:100EC40090C228E06F600302110F90C1B4E0600388
:100ED400020F8090C1B9E0FEA3E0FF90C30FEEF0D3
:100EE400A3EFF064024E700890C1B9F0A3F0800E35
:100EF40090C1BAE024FFF090C1B9E034FFF090C192
:100F0400BBE0FEA3E0FF7C007D0A12430FAA06AB00
:100F14000790C1B9E0FEA3E0FF7D6412430FEF2BFD
:100F2400FFEE3AFE90C1BEE02FFF90C1BDE03E90BF
:100F3400C311F0A3EFF090C311E0FEA3E0FFD3943C
:100F440032EE94005014EF9400EE9400400C90C1E3
:100F5400B9E0FFA3E090C295800A90C30FE0FFA31D
:100F6400E090C1B9CFF0A3EFF07B017AC179B990D9
:100F7400C33AE4F0A304F07F0002110A90C1B4E084
:100F84006401600302104A90C1BBE0FEA3E0FF903D
:100F9400C30FEEF0A3EFF04E700A90C1BBF0A37440
:100FA40005F0800E90C1BCE024FFF090C1BBE0349A
:100FB400FFF090C1BBE0FEA3E0FF7C007D0A12437A
:100FC4000FAA06AB0790C1B9E0FEA3E0FF7D64124F
:100FD400430FEF2BFFEE3AFE90C1BEE02FFF90C10E
:100FE400BDE03E90C311F0A3EFF090C311E0FEA367
:100FF400E0FFD39432EE9400502AEF9400EE940074
:10100400402290C1BBE0FFA3E090C266CFF0A3EF03
:10101400F07B017AC179BB90C33AE4F0A304F07F7A
:101024001002110A90C30FE0FFA3E090C1BBCFF000
:10103400A3EFF07B017AC179BB90C33AE4F0A30437
:10104400F07F1002110A90C1B4E06402600302321E
:10105400BB90C1BDE0FEA3E0FF90C30FEEF0A3EF91
:10106400F04E700A90C1BDF0A37409F0800E90C1D7
:10107400BEE024FFF090C1BDE034FFF090C1BBE0BE
:10108400FEA3E0FF7C007D0A12430FAA06AB079083
:10109400C1B9E0FEA3E0FF7D6412430FEF2BFFEE26
:1010A4003AFE90C1BDE0FCA3E0FD2FFFEC3E90C3EF
:1010B40011F0A3EFF090C311E0FEA3E0FFD394324C
:1010C400EE94005022EF9400EE9400401A90C25324
:1010D400ECF0A3EDF07B017AC179BD90C33AE4F062
:1010E400A304F07F20801F90C30FE0FFA3E090C112
:1010F400BDCFF0A3EFF07B017AC179BD90C33AE490
:10110400F0A304F07F207E2502198E90C29BE0FF9D
:1011140090C228E06F600302129790C1B4E06003AC
:101124000211E390C272E0FEA3E0FF90C30FEEF061
:10113400A3EFF04E701D90C219E07002A3E090C2BC
:10114400726008E4F0A3743BF08016E4F0A3743CEE
:10115400F0800E90C273E024FFF090C272E034FF7E
:10116400F090C272E0FEA3E0FF7C007D3C12430FCE
:1011740090C21AE02FFF90C219E03E90C311F0A371
:10118400EFF0900000E0FEA3E0FF90C311E0FCA3A9
:10119400E0FDD39FEC9E5023900000E0FEA3E0FF0F
:1011A400ED9FEC9E40157B017AC2797290C33AE4BC
:1011B400F0A304F07F707E2302198E90C30FE0FF2A
:1011C400A3E090C272CFF0A3EFF07B017AC27972F0
:1011D40090C33AE4F0A304F07F707E2302198E904A
:1011E400C1B4E0640160030232BB90C219E0FEA303
:1011F400E0FF90C30FEEF0A3EFF04E700A90C21917
:10120400F0A3743BF0800E90C21AE024FFF090C269
:1012140019E034FFF090C272E0FEA3E0FF7C007D91
:101224003C12430F90C21AE02FFF90C219E03E9087
:10123400C311F0A3EFF0900000E0FEA3E0FF90C321
:1012440011E0FCA3E0FDD39FEC9E5023900000E04E
:10125400FEA3E0FFED9FEC9E40157B017AC2791955
:1012640090C33AE4F0A304F07F807E2202198E90AA
:10127400C30FE0FFA3E090C219CFF0A3EFF07B010E
:101284007AC2791990C33AE4F0A304F07F807E22F5
:1012940002198E90C27DE0FF90C228E06F704290E8
:1012A400C1B4E060030232BB900000E0FEA3E0FFA3
:1012B400D390C242E09F90C241E09E50030232BBF1
:1012C400A3E024FFF090C241E034FFF07B017AC236
:1012D400794190C33AE4F0A304F07F007E2402191C
:1012E4008E90C220E0FF90C228E06F60030232BB00
:1012F40090C1B8E06401600302156190C1B4E0607C
:10130400030213C990C282E0FEA3E0FF90C30FEE74
:10131400F0A3EFF04E700A90C282F0A37409F0803B
:101324000E90C283E024FFF090C282E034FFF0907C
:10133400C225E0FEA3E0FF7C007D0A12430FAA064B
:10134400AB0790C259E0FEA3E0FF7D6412430FEFA8
:101354002BFFEE3AFE90C283E02FFF90C282E03E64
:1013640090C311F0A3EFF0900000E0FEA3E0FF9023
:10137400C311E0FCA3E0FDD39FEC9E502490000039
:10138400E0FEA3E0FFC3ED9FEC9E40157B017AC213
:10139400798290C33AE4F0A304F07F307E200219EE
:1013A4008E90C30FE0FFA3E090C282CFF0A3EFF0D2
:1013B4007B017AC2798290C33AE4F0A304F07F30CF
:1013C4007E2002198E90C1B4E0640160030214957A
:1013D40090C225E0FEA3E0FF90C30FEEF0A3EFF070
:1013E4004E700A90C225F0A37409F0800E90C226B4
:1013F400E024FFF090C225E034FFF090C225E0FE27
:10140400A3E0FF7C007D0A12430FAA06AB0790C23B
:1014140059E0FEA3E0FF7D6412430FEF2BFFEE3A89
:10142400FE90C283E02FFF90C282E03E90C311F091
:10143400A3EFF0900000E0FEA3E0FF90C311E0FCF6
:10144400A3E0FDD39FEC9E5024900000E0FEA3E0B7
:10145400FFC3ED9FEC9E40157B017AC2792590C3B2
:101464003AE4F0A304F07F107E2002198E90C30F9B
:10147400E0FFA3E090C225CFF0A3EFF07B017AC296
:10148400792590C33AE4F0A304F07F107E2002197A
:101494008E90C1B4E0640260030232BB90C259E092
:1014A400FEA3E0FF90C30FEEF0A3EFF04E700A909E
:1014B400C259F0A37402F0800E90C25AE024FFF0E7
:1014C40090C259E034FFF090C225E0FEA3E0FF7C17
:1014D400007D0A12430FAA06AB0790C259E0FEA38F
:1014E400E0FF7D6412430FEF2BFFEE3AFE90C283C0
:1014F400E02FFF90C282E03E90C311F0A3EFF09082
:101504000000E0FEA3E0FF90C311E0FCA3E0FDD3E4
:101514009FEC9E5024900000E0FEA3E0FFC3ED9FEB
:10152400EC9E40157B017AC2795990C33AE4F0A34A
:1015340004F07F007E2002198E90C30FE0FFA3E029
:1015440090C259CFF0A3EFF07B017AC2795990C3CE
:101554003AE4F0A304F07F007E2002198E90C1B813
:10156400E0B40239900000E0FEA3E0FFD390C24251
:10157400E09F90C241E09E50030232BBA3E024FFEF
:10158400F090C241E034FFF07B017AC2794190C30C
:101594003AE4F0A304F07F507E2002198E90C1B883
:1015A400E06403600302180E90C1B4E06003021605
:1015B4007690C274E0FEA3E0FF90C30FEEF0A3EFB9
:1015C400F04E700A90C274F0A37409F0800E90C2B9
:1015D40075E024FFF090C274E034FFF090C2A8E0FC
:1015E400FEA3E0FF7C007D0A12430FAA06AB07901E
:1015F400C23AE0FEA3E0FF7D6412430FEF2BFFEE3F
:101604003AFE90C275E02FFF90C274E03E90C31181
:10161400F0A3EFF0900000E0FEA3E0FF90C311E020
:10162400FCA3E0FDD39FEC9E5024900000E0FEA3B9
:10163400E0FFC3ED9FEC9E40157B017AC279749064
:10164400C33AE4F0A304F07F807E2002198E90C395
:101654000FE0FFA3E090C274CFF0A3EFF07B017A18
:10166400C2797490C33AE4F0A304F07F807E200230
:10167400198E90C1B4E06401600302174290C2A8BD
:10168400E0FEA3E0FF90C30FEEF0A3EFF04E700A6C
:1016940090C2A8F0A37409F0800E90C2A9E024FFC0
:1016A400F090C2A8E034FFF090C2A8E0FEA3E0FFEF
:1016B4007C007D0A12430FAA06AB0790C23AE0FEF3
:1016C400A3E0FF7D6412430FEF2BFFEE3AFE90C2BE
:1016D40075E02FFF90C274E03E90C311F0A3EFF0C9
:1016E400900000E0FEA3E0FF90C311E0FCA3E0FD46
:1016F400D39FEC9E5024900000E0FEA3E0FFC3EDD6
:101704009FEC9E40157B017AC279A890C33AE4F01D
:10171400A304F07F707E2002198E90C30FE0FFA314
:10172400E090C2A8CFF0A3EFF07B017AC279A89031
:10173400C33AE4F0A304F07F707E2002198E90C1B6
:10174400B4E0640260030232BB90C23AE0FEA3E05C
:10175400FF90C30FEEF0A3EFF04E700A90C23AF080
:10176400A37402F0800E90C23BE024FFF090C23AD2
:10177400E034FFF090C2A8E0FEA3E0FF7C007D0A05
:1017840012430FAA06AB0790C23AE0FEA3E0FF7D26
:101794006412430FEF2BFFEE3AFE90C275E02FFF69
:1017A40090C274E03E90C311F0A3EFF0900000E00B
:1017B400FEA3E0FF90C311E0FCA3E0FDD39FEC9EE9
:1017C4005024900000E0FEA3E0FFC3ED9FEC9E4098
:1017D400157B017AC2793A90C33AE4F0A304F07F0E
:1017E400607E2002198E90C30FE0FFA3E090C23AFE
:1017F400CFF0A3EFF07B017AC2793A90C33AE4F0D8
:10180400A304F07F607E2002198E90C1B8E06404C6
:1018140060030232BB90C1B4E060030218DE90C2E0
:1018240072E0FEA3E0FF90C30FEEF0A3EFF04E7062
:101834001D90C219E07002A3E090C2726008E4F047
:10184400A3743BF08016E4F0A3743CF0800E90C2C5
:1018540073E024FFF090C272E034FFF090C272E0B3
:10186400FEA3E0FF7C007D3C12430F90C21AE02FE0
:10187400FF90C219E03E90C311F0A3EFF090000076
:10188400E0FEA3E0FF90C311E0FCA3E0FDD39FECD6
:101894009E5023900000E0FEA3E0FFED9FEC9E40ED
:1018A400157B017AC2797290C33AE4F0A304F07F05
:1018B400107E2102198E90C30FE0FFA3E090C27244
:1018C400CFF0A3EFF07B017AC2797290C33AE4F0CF
:1018D400A304F07F107E2102198E90C1B4E064014C
:1018E40060030232BB90C219E0FEA3E0FF90C30F75
:1018F400EEF0A3EFF04E700A90C219F0A3743BF01F
:10190400800E90C21AE024FFF090C219E034FFF078
:1019140090C272E0FEA3E0FF7C007D3C12430F9076
:10192400C21AE02FFF90C219E03E90C311F0A3EF5A
:10193400F0900000E0FEA3E0FF90C311E0FCA3E000
:10194400FDD39FEC9E5022900000E0FEA3E0FFED4B
:101954009FEC9E40147B017AC2791990C33AE4F05B
:10196400A304F07F307E21802190C30FE0FFA3E029
:1019740090C219CFF0A3EFF07B017AC2791990C31A
:101984003AE4F0A304F07F307E21125A0A0232BBFB
:1019940090C1B7E06401702890C1BFE07002A3E079
:1019A40060030232BB12742490C1B8E0B401057420
:1019B40004F0800690C1B8E014F0126DB10232BB9D
:1019C40090C228E0FFD394014008EFD3940750025B
:1019D400804490C280E0FF90C228E0B5070B90C21B
:1019E40088E0FF90C228F0803290C1B5E0640170B5
:1019F4002F90C25BE0FF90C228E0B5070590C2704B
:101A0400803A90C233E0FF90C228E0B5070590C247
:101A14005B802990C228E014F0E0FF127AFE803A3D
:101A240090C1B6E0B4011C90C227E0FFA3E0B50763
:101A34000590C25B800690C228E014F0E0FF127E9D
:101A4400F3801790C23EE0FF90C228E0B5070B90E8
:101A5400C30DE0FEA3E0FF12000090C22FE0FF9050
:101A6400C228E0B5070E90C30DE0FEA3E0FF12000C
:101A7400000232BB90C276E0FF90C228E0B5070EA8
:101A840090C30DE0FEA3E0FF1200000232BB90C23F
:101A94007FE0FF90C228E0B5070E90C30DE0FEA3DF
:101AA400E0FF1200000232BB90C26FE0FF90C22838
:101AB400E0B5070E90C30DE0FEA3E0FF12000002A4
:101AC40032BB90C246E0FF90C228E0B5070B90C33A
:101AD4000DE0FEA3E0FF1200000232BB90C1BFE0A4
:101AE4007004A3E064016003022FC190C2A2E0FF6E
:101AF40090C228E06F6003021D4690C1B4E0600309
:101B0400021BB490C282E0FEA3E0FF90C30FEEF08C
:101B1400A3EFF064094E601090C283E004F0700FEC
:101B240090C282E004F08007E490C282F0A3F090B7
:101B3400C225E0FEA3E0FF7C007D0A12430FAA0643
:101B4400AB0790C259E0FEA3E0FF7D6412430FEFA0
:101B54002BFFEE3AFE90C283E02FFF90C282E03E5C
:101B640090C311F0A3EFF0900000E0FEA3E0FF901B
:101B7400C311E0FCA3E0FDD39FEC9E501190000044
:101B8400E0FEA3E0FFC3ED9FEC9E4002800F90C3F4
:101B94000FE0FFA3E090C282CFF0A3EFF07B017AC5
:101BA400C2798290C33AE4F0A304F07F70022EE37A
:101BB40090C1B4E064016003021C7D90C225E0FE84
:101BC400A3E0FF90C30FEEF0A3EFF064094E6010A2
:101BD40090C226E004F0700F90C225E004F0800764
:101BE400E490C225F0A3F090C225E0FEA3E0FF7CC0
:101BF400007D0A12430FAA06AB0790C259E0FEA368
:101C0400E0FF7D6412430FEF2BFFEE3AFE90C28398
:101C1400E02FFF90C282E03E90C311F0A3EFF0905A
:101C24000000E0FEA3E0FF90C311E0FCA3E0FDD3BD
:101C34009FEC9E5022900000E0FEA3E0FFC3ED9FC6
:101C4400EC9E40137B017AC2792590C33AE4F0A359
:101C540004F07F60022EE390C30FE0FFA3E090C284
:101C640025CFF0A3EFF07B017AC2792590C33AE443
:101C7400F0A304F07F60022EE390C1B4E06402603C
:101C8400030232BB90C259E0FEA3E0FF90C30FEE03
:101C9400F0A3EFF064024E601090C25AE004F070BA
:101CA4000F90C259E004F08007E490C259F0A3F009
:101CB40090C225E0FEA3E0FF7C007D0A12430FAA38
:101CC40006AB0790C259E0FEA3E0FF7D6412430F08
:101CD400EF2BFFEE3AFE90C283E02FFF90C282E02A
:101CE4003E90C311F0A3EFF0900000E0FEA3E0FFEC
:101CF40090C311E0FCA3E0FDD39FEC9E5022900022
:101D040000E0FEA3E0FFC3ED9FEC9E40137B017A4D
:101D1400C2795990C33AE4F0A304F07F50022EE351
:101D240090C30FE0FFA3E090C259CFF0A3EFF07B84
:101D3400017AC2795990C33AE4F0A304F07F5002C7
:101D44002EE390C2AAE0FF90C228E06F6003021E57
:101D54008190C1B4E06003021DDD90C277E0FEA370
:101D6400E0FF90C30FEEF0A3EFF064094E60109013
:101D7400C278E004F0700F90C277E004F08007E4CA
:101D840090C277F0A3F090C2ABE0FEA3E0FF7C002A
:101D94007D0A12430F90C278E02FFF90C277E03E95
:101DA40090C311F0A3EFF090C311E0FEA3E0FFD3C2
:101DB4009450EE9400500AEF9400EE940040028098
:101DC4000F90C30FE0FFA3E090C277CFF0A3EFF032
:101DD4007B017AC27977021F4090C1B4E06401604C
:101DE400030232BB90C2ABE0FEA3E0FF90C30FEE50
:101DF400F0A3EFF064084E700890C2ABF0A3F0803B
:101E04000E90C2ACE004F0700690C2ABE004F09017
:101E1400C2ABE0FEA3E0FF7C007D0A12430F90C238
:101E240078E02FFF90C277E03E90C311F0A3EFF06B
:101E340090C311E0FEA3E0FFD39450EE9400501B36
:101E4400EF9400EE940040137B017AC279AB90C307
:101E54003AE4F0A304F07F90022EE390C30FE0FF76
:101E6400A3E090C2ABCFF0A3EFF07B017AC279ABD1
:101E740090C33AE4F0A304F07F90022EE390C231C1
:101E8400E0FF90C228E06F60030220DB90C1B4E061
:101E94006003021F4D90C1B9E0FEA3E0FF90C30FA1
:101EA400EEF0A3EFF064094E700890C1B9F0A3F00E
:101EB400800E90C1BAE004F0700690C1B9E004F05D
:101EC40090C1BBE0FEA3E0FF7C007D0A12430FAA91
:101ED40006AB0790C1B9E0FEA3E0FF7D6412430F97
:101EE400EF2BFFEE3AFE90C1BEE02FFF90C1BDE0A4
:101EF4003E90C311F0A3EFF090C311E0FEA3E0FF06
:101F0400D39432EE9400501FEF9400EE94004017E7
:101F140090C1B9E0FFA3E090C28FCFF0A3EFF07BB4
:101F2400017AC179B9801590C30FE0FFA3E090C195
:101F3400B9CFF0A3EFF07B017AC179B990C33AE449
:101F4400F0A304F07F0002233F90C1B4E064016079
:101F54000302201790C1BBE0FEA3E0FF90C30FEE85
:101F6400F0A3EFF064054E700890C1BBF0A3F080BD
:101F74000E90C1BCE004F0700690C1BBE004F09088
:101F8400C1BBE0FEA3E0FF7C007D0A12430FAA065A
:101F9400AB0790C1B9E0FEA3E0FF7D6412430FEFED
:101FA4002BFFEE3AFE90C1BEE02FFF90C1BDE03E94
:101FB40090C311F0A3EFF090C311E0FEA3E0FFD3B0
:101FC4009432EE9400502AEF9400EE940040229054
:101FD400C1BBE0FFA3E090C260CFF0A3EFF07B01B0
:101FE4007AC179BB90C33AE4F0A304F07F100223D2
:101FF4003F90C30FE0FFA3E090C1BBCFF0A3EFF08D
:102004007B017AC179BB90C33AE4F0A304F07F105A
:1020140002233F90C1B4E0640260030232BB90C16A
:10202400BDE0FEA3E0FF90C30FEEF0A3EFF0640960
:102034004E700890C1BDF0A3F0800E90C1BEE004C4
:10204400F0700690C1BDE004F090C1BBE0FEA3E0D7
:10205400FF7C007D0A12430FAA06AB0790C1B9E0CA
:10206400FEA3E0FF7D6412430FEF2BFFEE3AFE90D8
:10207400C1BDE0FCA3E0FD2FFFEC3E90C311F0A333
:10208400EFF090C311E0FEA3E0FFD39432EE94008E
:102094005023EF9400EE9400401B90C24DECF0A34B
:1020A400EDF07B017AC179BD90C33AE4F0A304F06A
:1020B4007F2002233F90C30FE0FFA3E090C1BDCF78
:1020C400F0A3EFF07B017AC179BD90C33AE4F0A3A9
:1020D40004F07F2002233F90C289E0FF90C228E0F1
:1020E4006F600302234490C1B4E060030221B19005
:1020F400C274E0FEA3E0FF90C30FEEF0A3EFF06420
:10210400094E601090C275E004F0700F90C274E044
:1021140004F08007E490C274F0A3F090C2A8E0FE3B
:10212400A3E0FF7C007D0A12430FAA06AB0790C20E
:102134003AE0FEA3E0FF7D6412430FEF2BFFEE3A7B
:10214400FE90C275E02FFF90C274E03E90C311F080
:10215400A3EFF0900000E0FEA3E0FF90C311E0FCC9
:10216400A3E0FDD39FEC9E5022900000E0FEA3E08C
:10217400FFC3ED9FEC9E40137B017AC2797490C338
:102184003AE4F0A304F07F8002233F90C30FE0FF02
:10219400A3E090C274CFF0A3EFF07B017AC279740C
:1021A40090C33AE4F0A304F07F8002233F90C1B4CB
:1021B400E06401600302227A90C2A8E0FEA3E0FF7B
:1021C40090C30FEEF0A3EFF064094E601090C2A923
:1021D400E004F0700F90C2A8E004F08007E490C21D
:1021E400A8F0A3F090C2A8E0FEA3E0FF7C007D0A63
:1021F40012430FAA06AB0790C23AE0FEA3E0FF7DAC
:102204006412430FEF2BFFEE3AFE90C275E02FFFEE
:1022140090C274E03E90C311F0A3EFF0900000E090
:10222400FEA3E0FF90C311E0FCA3E0FDD39FEC9E6E
:102234005022900000E0FEA3E0FFC3ED9FEC9E401F
:10224400137B017AC279A890C33AE4F0A304F07F27
:102254007002233F90C30FE0FFA3E090C2A8CFF029
:10226400A3EFF07B017AC279A890C33AE4F0A30407
:10227400F07F7002233F90C1B4E064026003023235
:10228400BB90C23AE0FEA3E0FF90C30FEEF0A3EFD1
:10229400F064024E601090C23BE004F0700F90C2F4
:1022A4003AE004F08007E490C23AF0A3F090C2A8A8
:1022B400E0FEA3E0FF7C007D0A12430FAA06AB07F1
:1022C40090C23AE0FEA3E0FF7D6412430FEF2BFFC0
:1022D400EE3AFE90C275E02FFF90C274E03E90C3C8
:1022E40011F0A3EFF0900000E0FEA3E0FF90C31113
:1022F400E0FCA3E0FDD39FEC9E5021900000E0FEA3
:10230400A3E0FFC3ED9FEC9E40127B017AC2793AB1
:1023140090C33AE4F0A304F07F60801F90C30FE001
:10232400FFA3E090C23ACFF0A3EFF07B017AC27929
:102334003A90C33AE4F0A304F07F607E220232B8FC
:1023440090C2A1E0FF90C228E06F60030224A19034
:10235400C1B4E060030223F990C247E0FEA3E0FFAA
:1023640090C30FEEF0A3EFF064094E700890C247DB
:10237400F0A3F0800E90C248E004F0700690C247CB
:10238400E004F090C29CE0FEA3E0FF7C007D0A1212
:10239400430F90C248E02FFF90C247E03E90C31124
:1023A400F0A3EFF090C311E0FEA3E0FFD39450EE4E
:1023B4009400501DEF9400EE940040157B017AC206
:1023C400794790C33AE4F0A304F07F107E230232ED
:1023D400B890C30FE0FFA3E090C247CFF0A3EFF0A3
:1023E4007B017AC2794790C33AE4F0A304F07F10EA
:1023F4007E230232B890C1B4E0640160030232BBB0
:1024040090C29CE0FEA3E0FF90C30FEEF0A3EFF0B8
:1024140064084E700890C29CF0A3F0800E90C29D98
:10242400E004F0700690C29CE004F090C29CE0FED0
:10243400A3E0FF7C007D0A12430F90C248E02FFF07
:1024440090C247E03E90C311F0A3EFF090C311E0B7
:10245400FEA3E0FFD39450EE9400501DEF9400EEE1
:10246400940040157B017AC2799C90C33AE4F0A3AE
:1024740004F07F007E230232B890C30FE0FFA3E094
:1024840090C29CCFF0A3EFF07B017AC2799C90C3F9
:102494003AE4F0A304F07F007E230232B890C22411
:1024A400E0FF90C228E06F600302271290C1B4E0FD
:1024B400600302257C90C1B9E0FEA3E0FF90C30F46
:1024C400EEF0A3EFF064094E700890C1B9F0A3F0E8
:1024D400800E90C1BAE004F0700690C1B9E004F037
:1024E40090C1BBE0FEA3E0FF7C007D0A12430FAA6B
:1024F40006AB0790C1B9E0FEA3E0FF7D6412430F71
:10250400EF2BFFEE3AFE90C1BEE02FFF90C1BDE07D
:102514003E90C311F0A3EFF090C311E0FEA3E0FFDF
:10252400D39432EE9400502CEF9400EE94004024A7
:1025340090C1B9E0FFA3E090C295CFF0A3EFF07B88
:10254400017AC179B990C33AE4F0A304F07F007E24
:10255400250232B890C30FE0FFA3E090C1B9CFF0D9
:10256400A3EFF07B017AC179B990C33AE4F0A304F4
:10257400F07F007E250232B890C1B4E064016003AC
:1025840002264A90C1BBE0FEA3E0FF90C30FEEF029
:10259400A3EFF064054E700890C1BBF0A3F0800E69
:1025A40090C1BCE004F0700690C1BBE004F090C19F
:1025B400BBE0FEA3E0FF7C007D0A12430FAA06AB3A
:1025C4000790C1B9E0FEA3E0FF7D6412430FEF2B37
:1025D400FFEE3AFE90C1BEE02FFF90C1BDE03E90F9
:1025E400C311F0A3EFF090C311E0FEA3E0FFD39476
:1025F40032EE9400502CEF9400EE9400402490C1ED
:10260400BBE0FFA3E090C266CFF0A3EFF07B017ABA
:10261400C179BB90C33AE4F0A304F07F107E250295
:1026240032B890C30FE0FFA3E090C1BBCFF0A3EF9B
:10263400F07B017AC179BB90C33AE4F0A304F07F44
:10264400107E250232B890C1B4E064026003023205
:10265400BB90C1BDE0FEA3E0FF90C30FEEF0A3EF7B
:10266400F064094E700890C1BDF0A3F0800E90C1D3
:10267400BEE004F0700690C1BDE004F090C1BBE080
:10268400FEA3E0FF7C007D0A12430FAA06AB07906D
:10269400C1B9E0FEA3E0FF7D6412430FEF2BFFEE10
:1026A4003AFE90C1BDE0FCA3E0FD2FFFEC3E90C3D9
:1026B40011F0A3EFF090C311E0FEA3E0FFD3943236
:1026C400EE94005025EF9400EE9400401D90C25308
:1026D400ECF0A3EDF07B017AC179BD90C33AE4F04C
:1026E400A304F07F207E250232B890C30FE0FFA33D
:1026F400E090C1BDCFF0A3EFF07B017AC179BD902A
:10270400C33AE4F0A304F07F207E250232B890C2DD
:102714009BE0FF90C228E06F60030228B090C1B430
:10272400E060030227FC90C272E0FEA3E0FF90C3C6
:102734000FEEF0A3EFF0643B4E701D90C219E070F1
:1027440002A3E06003E4801C90C273E004F0702AEA
:1027540090C272E004F0802290C272E07004A3E0A0
:10276400643C700890C272F0A3F0800E90C273E0D3
:1027740004F0700690C272E004F090C272E0FEA30E
:10278400E0FF7C007D3C12430F90C21AE02FFF90C3
:10279400C219E03E90C311F0A3EFF0900000E0FEF8
:1027A400A3E0FF90C311E0FCA3E0FDD39FEC9E5097
:1027B40023900000E0FEA3E0FFED9FEC9E40157B1C
:1027C400017AC2797290C33AE4F0A304F07F707E78
:1027D400230232B890C30FE0FFA3E090C272CFF09F
:1027E400A3EFF07B017AC2797290C33AE4F0A304B8
:1027F400F07F707E230232B890C1B4E064016003BC
:102804000232BB90C219E0FEA3E0FF90C30FEEF0CA
:10281400A3EFF0643B4E700890C219F0A3F0800E51
:1028240090C21AE004F0700690C219E004F090C25D
:1028340072E0FEA3E0FF7C007D3C12430F90C21ABD
:10284400E02FFF90C219E03E90C311F0A3EFF09087
:102854000000E0FEA3E0FF90C311E0FCA3E0FDD381
:102864009FEC9E5023900000E0FEA3E0FFED9FEC60
:102874009E40157B017AC2791990C33AE4F0A3040F
:10288400F07F807E230232B890C30FE0FFA3E09074
:10289400C219CFF0A3EFF07B017AC2791990C33A41
:1028A400E4F0A304F07F807E230232B890C27DE07E
:1028B400FF90C228E0B50739900000E0FEA3E0FFD6
:1028C400C390C242E09F90C241E09E40030232BBEB
:1028D400A3E004F0700690C241E004F07B017AC2E8
:1028E400794190C33AE4F0A304F07F007E240232DD
:1028F400B890C220E0FF90C228E06F60030232BBB0
:1029040090C1B8E064016003022B7490C1B4E0602C
:10291400030229DA90C282E0FEA3E0FF90C30FEE27
:10292400F0A3EFF064094E601090C283E004F070ED
:102934000F90C282E004F08007E490C282F0A3F01A
:1029440090C225E0FEA3E0FF7C007D0A12430FAA9B
:1029540006AB0790C259E0FEA3E0FF7D6412430F6B
:10296400EF2BFFEE3AFE90C283E02FFF90C282E08D
:102974003E90C311F0A3EFF0900000E0FEA3E0FF4F
:1029840090C311E0FCA3E0FDD39FEC9E5024900083
:1029940000E0FEA3E0FFC3ED9FEC9E40157B017AAF
:1029A400C2798290C33AE4F0A304F07F307E20021F
:1029B40032B890C30FE0FFA3E090C282CFF0A3EF40
:1029C400F07B017AC2798290C33AE4F0A304F07FE9
:1029D400307E200232B890C1B4E064016003022A60
:1029E400A790C225E0FEA3E0FF90C30FEEF0A3EF93
:1029F400F064094E601090C226E004F0700F90C29B
:102A040025E004F08007E490C225F0A3F090C225ED
:102A1400E0FEA3E0FF7C007D0A12430FAA06AB0789
:102A240090C259E0FEA3E0FF7D6412430FEF2BFF39
:102A3400EE3AFE90C283E02FFF90C282E03E90C344
:102A440011F0A3EFF0900000E0FEA3E0FF90C311AB
:102A5400E0FCA3E0FDD39FEC9E5024900000E0FE38
:102A6400A3E0FFC3ED9FEC9E40157B017AC279255C
:102A740090C33AE4F0A304F07F107E200232B890B1
:102A8400C30FE0FFA3E090C225CFF0A3EFF07B01DA
:102A94007AC2792590C33AE4F0A304F07F107E2033
:102AA4000232B890C1B4E0640260030232BB90C247
:102AB40059E0FEA3E0FF90C30FEEF0A3EFF0640231
:102AC4004E601090C25AE004F0700F90C259E004B6
:102AD400F08007E490C259F0A3F090C225E0FEA371
:102AE400E0FF7C007D0A12430FAA06AB0790C2598F
:102AF400E0FEA3E0FF7D6412430FEF2BFFEE3AFEEE
:102B040090C283E02FFF90C282E03E90C311F0A3F5
:102B1400EFF0900000E0FEA3E0FF90C311E0FCA3FF
:102B2400E0FDD39FEC9E5024900000E0FEA3E0FF64
:102B3400C3ED9FEC9E40157B017AC2795990C33A4C
:102B4400E4F0A304F07F007E200232B890C30FE0CB
:102B5400FFA3E090C259CFF0A3EFF07B017AC279D2
:102B64005990C33AE4F0A304F07F007E200232B807
:102B740090C1B8E0B4023A900000E0FEA3E0FF90F8
:102B8400C241E06E7003A3E06F70030232BB90C2D7
:102B940042E004F0700690C241E004F07B017AC286
:102BA400794190C33AE4F0A304F07F507E200232CE
:102BB400B890C1B8E064036003022E2590C1B4E06C
:102BC4006003022C8B90C274E0FEA3E0FF90C30F5D
:102BD400EEF0A3EFF064094E601090C275E004F0CB
:102BE400700F90C274E004F08007E490C274F0A304
:102BF400F090C2A8E0FEA3E0FF7C007D0A12430F20
:102C0400AA06AB0790C23AE0FEA3E0FF7D6412433C
:102C14000FEF2BFFEE3AFE90C275E02FFF90C274C7
:102C2400E03E90C311F0A3EFF0900000E0FEA3E0BB
:102C3400FF90C311E0FCA3E0FDD39FEC9E502490D1
:102C44000000E0FEA3E0FFC3ED9FEC9E40157B0176
:102C54007AC2797490C33AE4F0A304F07F807E20B2
:102C64000232B890C30FE0FFA3E090C274CFF0A388
:102C7400EFF07B017AC2797490C33AE4F0A304F0D4
:102C84007F807E200232B890C1B4E0640160030208
:102C94002D5890C2A8E0FEA3E0FF90C30FEEF0A36E
:102CA400EFF064094E601090C2A9E004F0700F9038
:102CB400C2A8E004F08007E490C2A8F0A3F090C298
:102CC400A8E0FEA3E0FF7C007D0A12430FAA06AB36
:102CD4000790C23AE0FEA3E0FF7D6412430FEF2B9E
:102CE400FFEE3AFE90C275E02FFF90C274E03E9072
:102CF400C311F0A3EFF0900000E0FEA3E0FF90C347
:102D040011E0FCA3E0FDD39FEC9E5024900000E072
:102D1400FEA3E0FFC3ED9FEC9E40157B017AC279D0
:102D2400A890C33AE4F0A304F07F707E200232B886
:102D340090C30FE0FFA3E090C2A8CFF0A3EFF07B15
:102D4400017AC279A890C33AE4F0A304F07F707EBC
:102D5400200232B890C1B4E0640260030232BB9036
:102D6400C23AE0FEA3E0FF90C30FEEF0A3EFF064DD
:102D7400024E601090C23BE004F0700F90C23AE043
:102D840004F08007E490C23AF0A3F090C2A8E0FEF9
:102D9400A3E0FF7C007D0A12430FAA06AB0790C292
:102DA4003AE0FEA3E0FF7D6412430FEF2BFFEE3AFF
:102DB400FE90C275E02FFF90C274E03E90C311F004
:102DC400A3EFF0900000E0FEA3E0FF90C311E0FC4D
:102DD400A3E0FDD39FEC9E5024900000E0FEA3E00E
:102DE400FFC3ED9FEC9E40157B017AC2793A90C3F4
:102DF4003AE4F0A304F07F607E200232B890C30F5F
:102E0400E0FFA3E090C23ACFF0A3EFF07B017AC2D7
:102E1400793A90C33AE4F0A304F07F607E20023252
:102E2400B890C1B8E0640460030232BB90C1B4E05E
:102E34006003022F0C90C272E0FEA3E0FF90C30F68
:102E4400EEF0A3EFF0643B4E701D90C219E07002E7
:102E5400A3E06003E4801C90C273E004F0702A9045
:102E6400C272E004F0802290C272E07004A3E064B5
:102E74003C700890C272F0A3F0800E90C273E0041C
:102E8400F0700690C272E004F090C272E0FEA3E01B
:102E9400FF7C007D3C12430F90C21AE02FFF90C2CA
:102EA40019E03E90C311F0A3EFF0900000E0FEA300
:102EB400E0FF90C311E0FCA3E0FDD39FEC9E5024FF
:102EC400900000E0FEA3E0FFC3ED9FEC9E40157B65
:102ED400017AC2797290C33AE4F0A304F07F107EC1
:102EE400210232B890C30FE0FFA3E090C272CFF08A
:102EF400A3EFF07B017AC2797290C33AE4F0A304A1
:102F0400F07F107E210232B890C1B4E06401600306
:102F14000232BB90C219E0FEA3E0FF90C30FEEF0B3
:102F2400A3EFF0643B4E700890C219F0A3F0800E3A
:102F340090C21AE004F0700690C219E004F090C246
:102F440072E0FEA3E0FF7C007D3C12430F90C21AA6
:102F5400E02FFF90C219E03E90C311F0A3EFF09070
:102F64000000E0FEA3E0FF90C311E0FCA3E0FDD36A
:102F74009FEC9E5024900000E0FEA3E0FFC3ED9F71
:102F8400EC9E40157B017AC2791990C33AE4F0A310
:102F940004F07F307E210232B890C30FE0FFA3E03B
:102FA40090C219CFF0A3EFF07B017AC2791990C3D4
:102FB4003AE4F0A304F07F307E210232B890C1B726
:102FC400E06401702A90C220E0FF90C228E06F60A4
:102FD400030232BB12742490C1B8E0B40405740136
:102FE400F0800690C1B8E004F0126DB10232BB90DB
:102FF400C288E0FF90C228E0FEC39F501490C280B4
:10300400E0FFEEC39F400A90C228E004F0E0FF8096
:103014001590C288E0FF90C228E0B5070F90C280E7
:10302400E0FF90C228F0127AFE0232BB90C1B5E0F4
:103034006401702790C270E0FF90C228E0B50702D7
:10304400802D90C25BE0FF90C228E0B5070590C2D6
:1030540033803890C228E004F0803090C1B6E06438
:1030640001703090C245E0FF90C228E0B50705909A
:10307400C25B801790C25BE0FF90C228E0B50705F1
:1030840090C227800690C228E004F0E0FF127EF38D
:103094000232BB90C23EE0FF90C228E0B5070E901A
:1030A400C30DE0FEA3E0FF1200000232BB90C22F6A
:1030B400E0FF90C228E0B5070E90C30DE0FEA3E048
:1030C400FF1200000232BB90C276E0FF90C228E0FB
:1030D400B5070E90C30DE0FEA3E0FF12000002321C
:1030E400BB90C27FE0FF90C228E0B5070E90C30DED
:1030F400E0FEA3E0FF1200000232BB90C26FE0FFCB
:1031040090C228E0B5070E90C30DE0FEA3E0FF12C5
:1031140000000232BB90C2A7E0FF90C228E0FE6F1D
:1031240070030232BB90C246E0B5060E90C30DE0B8
:10313400FEA3E0FF1200000232BB90C21DE0FF902C
:10314400C228E06F60030232BB900000E0146056B6
:103154001470030231E11470030232181470030274
:10316400324E147003023284240560030232BB9091
:103174000000E07004A3E064097008900000F0A36C
:10318400F0800E900000E004F07006900000E0046F
:10319400F07B017A00790090C33AE4F0A304F07F55
:1031A400007E470232B8900000E07004A3E0640996
:1031B4007008900000F0A3F0800E900000E004F08E
:1031C4007006900000E004F07B017A00790090C35F
:1031D4003AE4F0A304F07F107E470232B890000076
:1031E400E07004A3E064097008900000F0A3F0808C
:1031F4000E900000E004F07006900000E004F07B04
:10320400017A00790090C33AE4F0A304F07F207EB1
:10321400470232B8900000E07004A3E0640970082B
:10322400900000F0A3F0800E900000E004F070061F
:10323400900000E004F07B017A00790090C33AE446
:10324400F0A304F07F307E47806A900000E07004B1
:10325400A3E064097008900000F0A3F0800E9000D1
:1032640000E004F07006900000E004F07B017A00B6
:10327400790090C33AE4F0A304F07F407E478034A1
:10328400900000E07004A3E064097008900000F06E
:10329400A3F0800E900000E004F07006900000E0BF
:1032A40004F07B017A00790090C33AE4F0A304F0BF
:1032B4007F507E47125A0A90C1B27401F07D1E7C81
:1032C40000E4FF027C8E90C1BFE07004A3E06401BF
:1032D400600302363690C220E0FF90C228E06F609F
:1032E4000302346290C1B8E06401702990C1B4E073
:1032F40004F0E06403700F126EC390C1B8E0FF7E67
:10330400007D6402345D90C1B8E0FF7E0090C1B4DA
:10331400E0FD02345D90C1B8E0B40221E490C1BF85
:10332400F0A3F090C1B4F090C241E0FCA3E0FD7FB3
:10333400047E81126F117F537E1002000090C1B889
:10334400E06403706C90C1B4E004F0E06403705274
:1033540090C1BFF0A3F090C1B4F090C2A8E0FEA366
:10336400E0FF7C007D0A12430FAA06AB0790C23A25
:10337400E0FEA3E0FF7D6412430FEF2BFFEE3AFE65
:1033840090C275E02FFF90C274E03E90C311F0A389
:10339400EFF07F02126F0790C1B8E0FF7E007D64FA
:1033A400800C90C1B8E0FF7E0090C1B4E0FD02340F
:1033B4005D90C1B8E064046003023C4590C1B4E090
:1033C40004F0E06402600302345190C1BFF0A3F042
:1033D40090C1B4F07B017AC2797290C336F0A30431
:1033E400F07F107E211253517B017AC2791990C368
:1033F40036E4F0A304F07F307E2112535190C27260
:10340400E0FEA3E0FF7C007D3C12430F90C21AE073
:103414002FFF90C219E03E90C311F0A3EFF07B019F
:103424007AC2791990C33AE4F0A304F07F307E2184
:10343400125A0A90C311E0FCA3E0FD7F067E8112BC
:103444006F1190C1B8E0FF7E007D64800C90C1B81C
:10345400E0FF7E0090C1B4E0FD7C00023C0E90C110
:10346400B4E004F090C228E0FF7E0090C1B4E0FD17
:103474007C0012462B90C2A2E0FF90C228E06F703D
:103484001190C1B4E064047009126EC390C2330297
:103494003BDB90C2AAE0FF90C228E06F704890C165
:1034A400B4E06403704090C1BFF0A3F090C1B4F0E5
:1034B40090C2ABE0FEA3E0FF7C007D0A12430F90B4
:1034C400C278E02FFF90C277E03E90C311F0A3EFE3
:1034D400F090C311E0FCA3E0FD7F087E81126F1120
:1034E40090C239023BDB90C231E0FF90C228E06F0A
:1034F400705F90C1B4E06404705790C1BFF0A3F052
:1035040090C1B4F090C2A8E0FEA3E0FF7C007D0A65
:1035140012430FAA06AB0790C23AE0FEA3E0FF7D78
:103524006412430FEF2BFFEE3AFE90C275E02FFFBB
:1035340090C274E03E90C311F0A3EFF090C311E089
:10354400FCA3E0FD7F027E81126F1190C270023BEA
:10355400DB90C289E0FF90C228E06F704890C1B44C
:10356400E06403704090C1BFF0A3F090C1B4F09048
:10357400C29CE0FEA3E0FF7C007D0A12430F90C2D0
:1035840048E02FFF90C247E03E90C311F0A3EFF054
:1035940090C311E0FCA3E0FD7F0A7E81126F1190BD
:1035A400C227023BDB90C2A1E0FF90C228E06F700B
:1035B4004890C1B4E06403704090C1BFF0A3F090A0
:1035C400C1B4F090C272E0FEA3E0FF7C007D3C1227
:1035D400430F90C21AE02FFF90C219E03E90C3112E
:1035E400F0A3EFF090C311E0FCA3E0FD7F067E8121
:1035F400126F1190C232023BDB90C224E0FF90C2F2
:1036040028E06F6003023C4590C1B4E064026003AB
:10361400023C4590C1BFF0A3F090C1B4F090C24108
:10362400E0FCA3E0FD7F047E81126F1190C245028D
:103634003BDB90C280E0FF90C228E06F6003023859
:10364400397B017AC3791190C336F0A304F07F006B
:103654007E8112535190C311E0FAA3E0FB7C007DFC
:1036640064FFAE0212432190C259EEF0A3EFF07C46
:10367400007D0AAF03AE021243217C007D0A12438F
:103684002190C225ECF0A3EDF090C311E0FEA3E07D
:10369400FF7C007D0A12432190C282ECF0A3EDF07E
:1036A4007B017AC2795990C33AE4F0A304F07F0015
:1036B4007E20125A0A7B017AC2792590C33AE4F03B
:1036C400A304F07F107E20125A0A7B017AC2798209
:1036D40090C33AE4F0A304F07F307E20125A0A7BB0
:1036E400017AC3791190C336E4F0A304F07F027E1B
:1036F4008112535190C311E0FAA3E0FB7C007D6476
:10370400FFAE0212432190C23AEEF0A3EFF07C0028
:103714007D0AAF03AE021243217C007D0A124321CD
:1037240090C2A8ECF0A3EDF090C311E0FEA3E0FF7B
:103734007C007D0A12432190C274ECF0A3EDF07B6F
:10374400017AC2793A90C33AE4F0A304F07F607E30
:1037540020125A0A7B017AC279A890C33AE4F0A3F2
:1037640004F07F707E20125A0A7B017AC279749029
:10377400C33AE4F0A304F07F807E20125A0A7B014E
:103784007AC3791190C336E4F0A37402F07F067E05
:103794008112535190C311E0FAA3E0FB7C007D3CFD
:1037A400FFAE0212432190C272EEF0A3EFF07C0050
:1037B4007D3CAF03AE0212432190C219ECF0A3ED9D
:1037C400F07B017AC2797290C33AE4F0A37402F0F8
:1037D4007F107E21125A0A7B017AC2791990C33A6A
:1037E400E4F0A37402F07F207E21125A0A7B017A4E
:1037F400C2794190C336E4F0A37402F07F047E8161
:103804001253517B017AC2794190C33AE4F0A37414
:1038140002F07F507E20125A0AE490C311F0A3F004
:1038240090C1B804F0126DB490C220127AF890C11D
:10383400B77401F02290C281E0FF90C228E0B5077E
:103844001290C1B57401F090C233E0FF90C228F029
:10385400027AFE90C284E0FF90C228E0B5070C9083
:10386400C1B67401F090C227023BDB90C285E0FF31
:1038740090C228E06F600302391190C1BFF0A30425
:10388400F0FB7AC3791190C336E4F0A304F07F0609
:103894007E8112535190C311E0FAA3E0FB7C007DBA
:1038A4003CFFAE0212432190C272EEF0A3EFF07C13
:1038B400007D3CAF03AE0212432190C219ECF0A389
:1038C400EDF07B017AC2797290C33AE4F0A304F07C
:1038D4007F107E21125A0A7B017AC2791990C33A69
:1038E400E4F0A304F07F307E21125A0A90C228E04B
:1038F400FF127AFE7F737E131200007F837E131201
:1039040000007E23127CEF90C29B023BDB90C286B8
:10391400E0FF90C228E06F704790C1BFF0A304F0AD
:10392400FB7AC2794190C336E4F0A304F07F047EAD
:10393400811253517B017AC2794190C33AE4F0A3D6
:1039440004F07F207E29125A0A7F037E141200009D
:10395400E4FDFC7F107E24127CF490C27D023BDBEC
:1039640090C287E0FF90C228E06F6003023A239080
:10397400C313E07004A3E06401700590C230802595
:1039840090C315E07004A3E06401700590C229801F
:103994001490C319E07004A3E06401700590C2237D
:1039A400800390C230E0FF127EF390C2A6E0600371
:1039B400023C457B017AC3791190C336F0A37402AB
:1039C400F07F067E8112535190C311E0FAA3E0FB0D
:1039D4007C007D3CFFAE0212432190C272EEF0A344
:1039E400EFF07C007D3CAF03AE0212432190C2197C
:1039F400ECF0A3EDF07B017AC2797290C33AE4F063
:103A0400A304F07F107E21125A0A7B017AC279192D
:103A140090C33AE4F0A304F07F307E21025A0A9066
:103A2400C288E0FF90C228E0B5070990C23E127A2E
:103A3400F802000090C233E0FF90C228E06F705893
:103A440090C1BFF0A304F0FB7AC2795990C33AE461
:103A5400F0A304F07F507E21125A0A7B017AC279C6
:103A64002590C33AE4F0A304F07F607E21125A0A41
:103A74007B017AC2798290C33AE4F0A304F07F70A8
:103A84007E21125A0A124621E4FDFC7F807E211217
:103A94007CF490C2A2023BDB90C239E0FF90C228C2
:103AA400E06F704390C1BFF0A304F0FB7AC279AB1E
:103AB40090C33AE4F0A304F07F907E21125A0A7B6B
:103AC400017AC2797790C33AE4F0A304F07F007ED0
:103AD40022125A0A124621E4FDFC7F107E22127C37
:103AE400F490C2AA023BDB90C270E0FF90C228E0CF
:103AF400B5070690C231023BDB90C227E0FFA3E08A
:103B04006F705390C1BFF0A304F0FB7AC2793A906E
:103B1400C33AE4F0A304F07F607E22125A0A7B01C8
:103B24007AC279A890C33AE4F0A304F07F707E22AD
:103B3400125A0A7B017AC2797490C33AE4F0A3045E
:103B4400F07F807E22125A0A1246217E22127CEFD6
:103B540090C289023BDB90C232E0FF90C228E06F42
:103B6400704290C1BFF0A304F0FB7AC2799C90C369
:103B74003AE4F0A304F07F007E23125A0A7B017A10
:103B8400C2794790C33AE4F0A304F07F107E231275
:103B94005A0A124621E4FDFC7F207E23127CF49015
:103BA400C2A1803390C245E0FF90C228E0B507056A
:103BB40090C224803390C25BE0FF90C228E0B50736
:103BC4001890C1B5E0B40107E4F090C2818008E424
:103BD40090C1B6F090C284800F90C230E0FF90C2D2
:103BE40028E0B5070890C287E0FF027EF390C22068
:103BF400E0FF90C228E06F704890C1BFF0A304F0CA
:103C040090C1B8E0FF7E00E4FDFC0262FB90C2209C
:103C1400E0FF90C228E0B5072390C1BFE07002A383
:103C2400E0701990C1B7F090C1BFF0A3F090C1B893
:103C3400F090C280E0FF127EF3127424E490C2710B
:013C4400F08F
:013C4500225C
:1051590041C0460041C0490042C047000047C03F26
:0751690018091203091E00E2
:107ABB007B017AC0793F90C33AE4F0A37404F07F62
:107ACB00107E00125A0A90C3B77410F0A3E4F0A30F
:107ADB00F0A3F0FFFEFDFC126A2E7B017AC0794AFF
:0D7AEB00E490C336F0A3F0FF7E100253516B
:105D30007F007E2012000090C046EFF090C049E046
:105D40006F7003025EB390C046E090C049F07003EC
:105D5000025EB390C048E004F0700690C047E004D3
:105D6000F090C047E07004A3E0641E700690C04746
:105D7000F0A3F07B017AC379DB90C336E4F0A3741F
:105D800004F07F107E0012535190C047E0FEA3E064
:105D9000FF90C04A75F00C12459EEE75F00CA425DC
:105DA00083F583E4F0A3745AF090C047E0FCA3E0CD
:105DB000FD90C047E0FAA3E0FB90C04C75F00CEFFB
:105DC00012459EEE75F00CA42583F583ECF0A3ED4F
:105DD000F090C3DBE0FF90C04E75F00CEB12459ED7
:105DE000EA75F00CA42583F583EFF090C3DCE0FFA7
:105DF00090C04F75F00CEB12459EEA75F00CA4258F
:105E000083F583EFF090C3DDE0FF90C05075F00C98
:105E1000EB12459EEA75F00CA42583F583EFF09014
:105E2000C3DFE0FF90C05175F00CEB12459EEA75A0
:105E3000F00CA42583F583EFF090C3E0E0FF90C061
:105E40005275F00CEB12459EEA75F00CA42583F513
:105E500083EFF090C3E1E0FF90C05375F00CEB12BC
:105E6000459EEA75F00CA42583F583EFF090C046BB
:105E7000E0FF90C05475F00CEB12459EEA75F00CF3
:105E8000A42583F583E4F0A3EFF07B017AC0794A7F
:105E900090C3EC7408F0A3E4F0FFFEFDFC1278AEB2
:105EA0007B017AC0794AE490C33AF0A3F0FF7E10F8
:035EB000125A0A79
:015EB30022CC
:106F400090C30E12456D0001C200E4FF12757A90E5
:106F5000C30E12456D0001C2007F0212757A90BE09
:106F6000297401F0A37484F0A37400F0A37401F0F9
:106F7000A37488F0A37404F0A37401F0A37488F0E0
:106F8000A37406F0A37404F0A3E4F07B01A304F05F
:106F9000A37494F0A37412F0A3EBF0A37498F0A37D
:106FA0007416F0A3EBF0A37498F0A37418F0A37414
:066FB00004F0A3E4F0224E
:0B3C460090C30DEBF0A3EAF0A3E9F03F
:103C5100C2AF9000031245CA1243A2FFAEF090C357
:103C610018EEF0A3EFF0D2AF90C30DE0FBA3E0FAA2
:103C7100A3E0F99000061245CA1243A2FDACF06F11
:103C81007002EC6E700302419CC390C319E09D90D9
:103C9100C318E09C90C30DE0FBA3E0FAA3E0F95048
:103CA100219000091243CDFF90C319E02FFF90C36B
:103CB10018E035F0CFC39DCF9C90C310F0A3EFF077
:103CC100801E9000061245CA1243A2FFC390C31979
:103CD100E09FFE90C318E095F090C310F0A3CEF0E2
:103CE100C390C311E0940690C310E0940050037F89
:103CF100002290C30DE0FBA3E0FAA3E0F9900006D7
:103D01001245CA1243A2FDACF090C30DE0FBA3E043
:103D1100FAA3E0F91245AA8D828C831242AEFF907C
:103D2100C316E4F0A3EFF0E0F8E4F0E890C316F076
:103D3100ED2401FFE43CFE90C31AF0A3EFF090C321
:103D41000DE0FBA3E0FAA3E0F99000091243CDFDD9
:103D5100C3EF9DEE95F04007E490C31AF0A3F01273
:103D610045AA90C31AE0FEA3E0F5828E831242AE0B
:103D7100FF90C316E0FEA3E04FFF90C316EEF0FEE6
