:0300000002D91E04
:0800F800FFFF4457494E543547
:10D91E00759401759502758E0075930075C87075B6
:10D92E00C96075F80075F90175A80075B800759A8B
:10D93E000075A90075B90053D0E7787FE4F6D8FDDD
:10D94E009080007F007E80E4F0A3DFFCDEFA75811C
:04D95E001B02D99D32
:10BDBF0090C9C8EEF0A3EFF0A3EBF0A3EAF0A3E96C
:01BDCF00F083
:10BDD000E490C9CFF0A3F0A3F0A3F0A3F0A3F0A3E5
:10BDE000F0A3F090C9CDE0FAA3E0FB4A700302BFD4
:10BDF0007E90C9C8E0FEA3E0FFC3E49FFFE49EFE7F
:10BE0000E4FCFD90C9D712AE48AF03AE02E4FCFDDE
:10BE100090C9D7E0F8A3E0F9A3E0FAA3E0FBC312CE
:10BE2000AE11501190C9D7A3A3E0FFA3E090C9CDF4
:10BE3000CFF0A3EFF090C9C8E0FCA3E0FDECC31382
:10BE4000FFED1390C9CFCFF0A3EFF0ED5401FFA3A6
:10BE5000E4F0A3EFF0C2AFE4F5F190C9CFE0FCA3AA
:10BE6000E0FDECF5F28DF375F40175F8AF30FCFDF3
:10BE700090C9D1E07002A3E0603DD2FE20FEFD90AB
:10BE8000C9CAE0FBA3E475F00112AC24A9F0FAE5FD
:10BE9000FC12AB7390C9CAE0FBA3E475F00112ACCD
:10BEA00024A9F0FAE5FD12AB7390C9CEE024FFF0AF
:10BEB00090C9CDE034FFF090C9CDE0FCA3E0FDECEB
:10BEC000C313FFED1390C9D3CFF0A3EFF0ED5401EE
:10BED000FFA3E4F0A3EFF090C9D374FFF5F012AC28
:10BEE0002445F0605BD2FE20FEFD90C9CAE0FBA3B2
:10BEF000E475F00112AC24A9F0FAE5FA12AB7390E4
:10BF0000C9CAE0FBA3E475F00112AC24A9F0FAE57C
:10BF1000FB12AB7390C9CAE0FBA3E475F00112AC4D
:10BF200024A9F0FAE5FC12AB7390C9CAE0FBA3E4C4
:10BF300075F00112AC24A9F0FAE5FD12AB738097FD
:10BF400090C9D5E07002A3E0602FD2FE20FEFD90E4
:10BF5000C9CAE0FBA3E475F00112AC24A9F0FAE52C
:10BF6000FA12AB7390C9CAE0FBA3E475F00112ACFE
:0EBF700024A9F0FAE5FB12AB73E4F5F8D2AFAA
:01BF7E0022A0
:10C2E40090C9DBEEF0A3EFF0A3EBF0A3EAF0A3E92F
:01C2F400F059
:10C2F500E490C9E2F0A3F0A3F0A3F0A3F0A3F090BB
:10C30500C9E0E07002A3E0700302C47690C9DBE0E7
:10C31500FEA3E0FFC3E49FFFE49EFED390C9E1E0E6
:10C325009F90C9E0E09E4005EEF0A3EFF090C9DBD9
:10C33500E0FAA3E0FBEAC313FCEB13FDEB5401FFAA
:10C3450090C9E2E4F0A3EFF0C2AFE4F5F1ECF5F249
:10C35500AF058FF375F40175F88330FCFD90C9E2E4
:10C36500E07002A3E0603D90C9DDE0FBA3E475F059
:10C375000112AC24A9F0FA12AB2DF5FC90C9DDE051
:10C38500FBA3E475F00112AC24A9F0FA12AB2DF56C
:10C39500FDD2FE20FEFD90C9E1E024FFF090C9E04A
:10C3A500E034FFF090C9E0E0FCA3E0FDECC313FF2F
:10C3B500ED1390C9E4CFF0A3EFF0ED5401FFA3E432
:10C3C500F0A3EFF075F88F90C9E474FFF5F012ACA7
:10C3D5002445F0605B90C9DDE0FBA3E475F0011234
:10C3E500AC24A9F0FA12AB2DF5FA90C9DDE0FBA358
:10C3F500E475F00112AC24A9F0FA12AB2DF5FB900F
:10C40500C9DDE0FBA3E475F00112AC24A9F0FA1232
:10C41500AB2DF5FC90C9DDE0FBA3E475F00112AC92
:10C4250024A9F0FA12AB2DF5FDD2FE30FE9980FB62
:10C4350090C9E6E07002A3E0603275F88C90C9DD22
:10C44500E0FBA3E475F00112AC24A9F0FA12AB2DC0
:10C45500F5FA90C9DDE0FBA3E475F00112AC24A95F
:10C46500F0FA12AB2DF5FBD2FE20FEFDE4F5F8D275
:01C47500AF17
:01C4760022A3
:10C91A0090CAD5EEF0A3EFF0A3EBF0A3EAF0A3E9F7
:01C92A00F01C
:10C92B00A3E0FEA3E0FF4E700302CA9390CAD5E0CA
:10C93B00FCA3E0FDC3E49DFDE49CFCD3EF9DEE9CCA
:10C94B00400AAF0590CADAECF0A3EFF090CAD5E03D
:10C95B00FCA3E0FDECC313FEED13FBAA06ED5401A3
:10C96B00FDC2AFE4F5F1EAF5F2AF038FF375F40115
:10C97B0075F88330FCFDED604FC390CADBE0940289
:10C98B0090CADAE09400500302CA8E90CAD7E0FB3B
:10C99B00A3E475F00112AC24A9F0FA12AB2DF5FC4F
:10C9AB0090CAD7E0FBA3E475F00112AC24A9F0FA0E
:10C9BB0012AB2DF5FDD2FE20FEFD90CADBE024FE6E
:10C9CB00F090CADAE034FFF090CADAE0FEA3E07828
:10C9DB0002CEC313CE13D8F9FF75F88FEF1FAC0639
:10C9EB0070011E4C605B90CAD7E0FBA3E475F001AD
:10C9FB0012AC24A9F0FA12AB2DF5FA90CAD7E0FBD2
:10CA0B00A3E475F00112AC24A9F0FA12AB2DF5FBDF
:10CA1B0090CAD7E0FBA3E475F00112AC24A9F0FA9D
:10CA2B0012AB2DF5FC90CAD7E0FBA3E475F0011215
:10CA3B00AC24A9F0FA12AB2DF5FDD2FE30FE9D8091
:10CA4B00FB90CADBE030E1047F0180027F00EF60E6
:10CA5B003275F88C90CAD7E0FBA3E475F00112ACE9
:10CA6B0024A9F0FA12AB2DF5FA90CAD7E0FBA3E498
:10CA7B0075F00112AC24A9F0FA12AB2DF5FBD2FE26
:08CA8B0020FEFDE4F5F8D2AF36
:01CA93002280
:10F22A00EC90CB0BF0EDA3F07B017ACB790B90CA73
:0AF23A00DAE4F0A37402F002C91A2E
:10F2DD00EF4E6010E4FD0DEDC3943240F9EF1F7059
:04F2ED00EF1E80ECA4
:01F2F10022FA
:08E1420090CAE3EEF0A3EFF038
:10E14A00A3745AF0A37401F090CAE3E0FCA3E0FDC3
:10E15A00EC90CAE7F0A3EDF07B017ACA79E590C9A1
:10E16A00E0E4F0A37402F07F847E0012C2E47FF43C
:10E17A007E0112F2DD7B017ACA79E590C9CDE4F01D
:10E18A00A37402F07F147E0012BDBF90CAE3E0FEC2
:10E19A00A3E0FFA3E0B506D6A3E0B507D1E490CA91
:10E1AA00E5F0A3F0A3F0A3F07B017ACA79E590C960
:0DE1BA00E0F0A37402F07F167E0002C2E4C4
:08EAC20090C9A7EEF0A3EFF0EC
:10EACA00E4A3F0A3F090C9A7E0FEA3E0FFC390C9B6
:10EADA00AAE09F90C9A9E09E5025E4FBFA7F017E37
:10EAEA000012F2DD0BBB00010ABA01F1BB2CEE9059
:0FEAFA00C9AAE004F070CE90C9A9E004F080C66C
:01EB090022E9
:10EB0A00EF14601814602314602E24037039740102
:10EB1A00A805088002C333D8FC42B7227401A805AD
:10EB2A00088002C333D8FC42BC227401A8050880BD
:10EB3A0002C333D8FC42BD22AF057401A80708807E
:08EB4A0002C333D8FC42BE22D5
:10E9E200EF1460191460251460312403703D740122
:10E9F200A805088002C333D8FCF452B7227401A8D8
:10EA020005088002C333D8FCF452BC227401A80565
:10EA1200088002C333D8FCF452BD22AF057401A8AA
:0CEA220007088002C333D8FCF452BE2267
:10DDE000EF14602D14604A1460672403600302DEA0
:10DDF00072EB600E7401A805088002C333D8FC42A0
:10DE000080227401A805088002C333D8FCF4528034
:10DE100022EB600E7401A805088002C333D8FC42CF
:10DE200090227401A805088002C333D8FCF45290F4
:10DE300022EB600E7401A805088002C333D8FC42AF
:10DE4000A0227401A805088002C333D8FCF452A0B4
:10DE500022EB600E7401A805088002C333D8FC428F
:10DE6000B022AF057401A807088002C333D8FCF4C0
:03DE700052B0228B
:10E84900EF14601A146027146034240370427401B1
:10E85900A805088002C333D8FC5580FE80347401B2
:10E86900A805088002C333D8FC5590FE80247401A2
:10E87900A805088002C333D8FC55A0FE8014AF0553
:10E889007401A807088002C333D8FC55B0FE800282
:04E89900E4FEAF06E4
:01E89D002258
:10F0D900758911E4F58CF58AC28CF518F51A4389FE
:0EF0E90001758CBC758ACDD2A9D2AFD28C2213
:03000B0002E32FDE
:0DE32F00C0E0C0D075D000C000C006C0071F
:10E33C00C2AF758CBC758ACD0519751B0074017E36
:10E34C0000A81B088005C333CE33CED8F9FFEF5598
:10E35C001A602DE51B25E02408F808E61618700154
:10E36C0016E51B25E02408F8E6FE08E64E7011AF12
:10E37C001B04A807088002C333D8FC4218F4521AB5
:09E38C00051BE51BB408B6D2AF75
:0BE39500D007D006D000D0D0D0E0327E
:10F24400758911E4F58DF58BC28ED2AF43891075A3
:0AF254008DBC758BCDD2ABD28E229B
:03001B0002F37974
:0DF37900C2AF758DBC758BCDB290D2AF3296
:10F31C0075C8F075CD58E4F5CC75CB58F5CA43C813
:04F32C0001D2AD223B
:03002B0002F39F3E
:09F39F00C2AFC2C6B291D2AF3276
:10F09600C2AF7401A807088002C333D8FCFE421A27
:10F0A600EF25E02408F8A60408A605EEF45218D2C7
:02F0B600AF2287
:10F2F200C2AF7401A807088002C333D8FCF4521AC3
:05F302005218D2AF22F9
:10F34400C2AF7401A807088002C333D8FC5518FF64
:02F35400D2AF36
:01F356002294
:10E94600AB07AA06A905A8047F007E387D317C00A6
:10E9560012AD7FC3E49F90C9A6F074049E90C9A52A
:10E96600F043C9407D04E4FF12EB0A7D05E4FF1283
:10E97600E9E243803075D88075985090C9A5E0FCCF
:0DE98600A3E0FDECF5BA8DAA43A810D2ACB9
:01E993002261
:10EA7900AB07AA06A905A8047F007E707D627C0009
:10EA890012AD7FC3E49F90C9A6F074049E90C9A5F6
:10EA9900F043C9207D06E4FF12EB0A7D07E4FF126B
:10EAA900E9E24380C0759B9090C9A5E0FCA3E0FD15
:08EAB900ECF5BB8D9D439A01B1
:01EAC1002232
:10ED3600759680759780AB07AA06A905A8047F007B
:10ED46007EC07D897C0112AD7FAD07AC06ECF5D99E
:10ED5600AF058FE743B80CE4909812F0A3F0A3F048
:10ED6600A3F090981AF0909816F0A3F0A3F0A3F0F1
:01ED7600227A
:10F04B0075A78075AB80AB07AA06A905A8047F003E
:10F05B007EC07D897C0112AD7FAD07AC06ECF5AEB1
:07F06B00AF058FAF43B83081
:01F07200227B
:10E8F300EF14601B1460291460372403704490C91B
:10E90300A1E0FCA3E0FDA3E0FEA3E0FF02E9469043
:10E91300C9A1E0FCA3E0FDA3E0FEA3E0FF02EA79C6
:10E9230090C9A1E0FCA3E0FDA3E0FEA3E0FF02ED9C
:10E933003690C9A1E0FCA3E0FDA3E0FEA3E0FF1233
:03E94300F04B2274
:10BF7F0090C9A0EFF0A3ECF0A3EDF0A3EBF0A3EAD0
:04BF8F00F0A3E9F042
:10BF9300C2AFE4A3F0A3F090C9A1E0FEA3E0FFC306
:10BFA30090C9A7E09F90C9A6E09E400302C05790A6
:10BFB300C9A3E0FBA3E475F00112AC24A9F0FA12C3
:10BFC300AB2DFF90C9A0E0FE75F009A42400F58213
:10BFD300E5F03488F583EE75F008A42583F583E056
:10BFE300FCA3E0FD75F009EEA42400F582E5F0342E
:10BFF30080F583EE75F008A42583F583E5822DF59E
:10C0030082E5833CF583EFF075F009EEA42400F597
:10C0130082E5F03488F583EE75F008A42583F58373
:10C02300E475F00112AC0E75F009EEA42400F5825C
:10C03300E5F03488F583EE75F008A42583F583E0F5
:10C043005403F090C9A7E004F0700690C9A6E00479
:10C05300F002BF9A90C9A0E014604214607014709B
:10C063000302C0FF2403600302C12F908808E0602D
:10C073000302C12F04F0908802E0FEA3E02400F540
:10C083008274803EF583E0F599908803E004F070B4
:10C0930006908802E004F090880202C12B90901170
:10C0A300E0600302C12F04F090900BE0FEA3E024B4
:10C0B30009F58274883EF583E0F59C90900CE004CA
:10C0C300F0700690900BE004F090900B805A9098DB
:10C0D3001AE0705804F0909814E0FEA3E02412F5DF
:10C0E3008274903EF583E0F59E909815E004F0701D
:10C0F30006909814E004F0909814802C90A023E00C
:10C10300702A04F090A01DE0FEA3E0241BF58274C6
:10C11300983EF583E0F5AC90A01EE004F070069025
:0EC12300A01DE004F090A01DE05403F0D2AF88
:01C1310022EB
:0300230002E026D2
:10E02600C0E0C083C082C0D075D000C006C007C2A1
:10E03600AF30982AC298908804E0FEA3E02400F549
:10E046008274843EF583E599F0908805E004F070CB
:10E0560006908804E004F0908804E05403F03099B8
:10E066003FC299908802E0FEA3E0FF908800E06E30
:10E076007003A3E06F602474002FF58274803EF570
:10E0860083E0F599908803E004F07006908802E03A
:10E0960004F0908802E05403F08005908808E4F0CC
:0FE0A600D2AFD007D006D0D0D082D083D0E03216
:0300530002E621A1
:10E62100C0E0C083C082C0D075D000C006C007C2A0
:10E63100AF5396FE909814E0FEA3E0FF909812E08D
:10E641006E7003A3E06F602474122FF58274903E04
:10E65100F583E0F59E909815E004F070069098140B
:10E66100E004F0909814E05403F0800590981AE4C7
:10E67100F0D2AFD007D006D0D0D082D083D0E03254
:03005B0002EB5263
:10EB5200C0E0C083C082C0D075D000C006C2AF532F
:10EB620097FE909816E0FEA3E02412F58274943E7C
:10EB7200F583E59FF0909817E004F07006909816E0
:10EB8200E004F0909816E05403F0D2AFD006D0D053
:07EB9200D082D083D0E032F5
:0300630002E68131
:10E68100C0E0C083C082C0D075D000C006C007C240
:10E69100AF53A7FE90A01DE0FEA3E0FF90A01BE0FA
:10E6A1006E7003A3E06F6024741B2FF58274983E93
:10E6B100F583E0F5AC90A01EE004F0700690A01D7B
:10E6C100E004F090A01DE05403F0800590A023E445
:10E6D100F0D2AFD007D006D0D0D082D083D0E032F4
:03006B0002EB990C
:10EB9900C0E0C083C082C0D075D000C006C2AF53E8
:10EBA900ABFE90A01FE0FEA3E0241BF582749C3EFF
:10EBB900F583E5ADF090A020E004F0700690A01F69
:10EBC900E004F090A01FE05403F0D2AFD006D0D0FB
:07EBD900D082D083D0E032AE
:0300830002DD4556
:10DD4500C0E0C083C082C0D075D000C006C007C285
:10DD5500AFE59B30E02E759B90539BFE90900DE0B8
:10DD6500FEA3E02409F582748C3EF583E59CF090D2
:10DD7500900EE004F0700690900DE004F090900D88
:10DD8500E05403F0E59B30E143759B90539BFD9078
:10DD9500900BE0FEA3E0FF909009E06E7003A3E016
:10DDA5006F602474092FF58274883EF583E0F59C35
:10DDB50090900CE004F0700690900BE004F09090C9
:10DDC5000BE05403F08005909011E4F0D2AFD0073A
:0BDDD500D006D0D0D082D083D0E03246
:10F307007596807597807C00ECF5D975E7E0759E5A
:04F317000D53B8F3E7
:01F31B0022CF
:0BF0730090C9E9EBF0A3EAF0A3E9F07C
:10F07E0090CA147401F0A374C9F0A374ECF090CA92
:07F08E0014E4F0A3F0A3F06D
:01F095002258
:02F3AE0080FEDF
:057D180042CB0D00004C
:10D6BD00E490C99BF0A3F0A3740AF0A3740DF0A33A
:10D6CD0074EFF012F0D912F24412BBF8E4FD7F02B0
:10D6DD0012E9E27D607CEAE4FF12F0967DF47C01B4
:10D6ED007F0112F09612E2B9D2AF90C812E0FF128C
:10D6FD00EE7712B2CA7D887C137F0712F0967B01FC
:10D70D007AC9799C90C9E0E4F0A304F07F007E8291
:10D71D0012C2E47B017AC879F890C9CDE4F0A30474
:10D72D00F07F467E8112BDBF90C8F8E07002A3E085
:10D73D0070051254B5800312709312ECB190CB0D9D
:10D74D00E07002A3E070187F0712F344EF601090B1
:10D75D00CB0DE4F0A304F090C812F0FF12EE779019
:10D76D00CB0DE07002A3E060D112ECF412E4EE12E6
:0FD77D00C47790C999EEF0A3EFF012010080BBC2
:107D1D0041C8BD0042C816000041C8030044C885D3
:107D2D000000000046C7FB000000000000608AC78D
:107D3D0071000000010002000300040005000600B0
:107D4D000700080009000A000B000C000D000E00D2
:107D5D000F00100011001200130014001500160082
:107D6D001700180019001A001B001C001D001E0032
:107D7D001F002000210022002300240025002600E2
:107D8D002700280029002A002B002C002D002E0092
:107D9D002F00300031003200330034003500360042
:107DAD003700380039003A003B003C003D003E00F2
:107DBD003F0040004100420043004442C82F0000F4
:107DCD0041C8C00042C807000042C82B000050C87F
:107DDD00A3000000000000000000000000000000F3
:107DED000050C85900000000000000000000000015
:107DFD000000000050C84600000000000000000018
:107E0D00000000000000004CC873000000000000DE
:107E1D0000000000000042C8C7000042C8830000F7
:107E2D0042C829000042C8C3000042C87F0000427A
:107E3D00C8B5000042C838000042C871000042C8F1
:107E4D0001000042C831000041C8A20042C8C9006B
:107E5D000042C80A000042C814000041C804004294
:107E6D00C890012842C892022942C896032A42C8E6
:107E7D0098042B42C89A052C42C89C062D42C89ED8
:107E8D00072E41C8090842C820092F42C8270A30C9
:107E9D0041C86F0B42C8100C3142C81E0D3241C88B
:107EAD00350E41C8580F42C8BB103342C8C51134F6
:107EBD0041C81D1242C8A0133542C8B9143641C875
:107ECD000D1542C8B3163742C88A173841C81C1859
:107EDD0041C8131941C80C1A42C82D1B3942C81A82
:107EED001C3A42C8811D3B42C88E1E3C42C86D1FC4
:107EFD003D42C818203E42C86B213F42C8C12240B6
:107F0D0042C836234142C8B7244242C805254342E0
:107F1D00C88C264442C822000041C8890041C8705F
:107F2D000041C8240042C869000042C83300004225
:107F3D00C8BE000042C825000041C75E0041C75FB2
:107F4D000041C7600041C7610041C7620041C7637E
:107F5D000041C7640042C765000042C76700004288
:0E7F6D00C769000042C76B000042C76D0000EC
:10631100E490C9CEF0A3F090C9D4F090C9D4E0FACA
:08632100C394034003027092D3
:10632900E0FB75F004A4FDACF02400FEEC3485A379
:10633900F0A3CEF0ED2402FEEC3485A3F0A3CEF059
:1063490090C889E0FFEBC39F4003027050EA75F0E3
:1063590004A4243AF974C835F0FA7B0190C9D5E050
:10636900FEA3E0FF90C9E0E4F0A304F012C2E490B8
:10637900C9D4E075F004A4243CF974C835F0FA7B5B
:106389000190C9D7E0FEA3E0FF90C9E0E4F0A304BF
:10639900F012C2E490C8F8E07002A3E0600302665C
:1063A9007A90C9D4E0FF25E025E0243AF582E43467
:1063B900C8F583E0FCA3E0FDEC6003027089ED24DD
:1063C900FE605014700302644F1470030264821457
:1063D90070030264CD14700302651624056003027C
:1063E9007089EF70097B017ABB79C702648E90C905
:1063F900D4E0640170097B017ABB79C702657B909F
:10640900C9D4E0640260030270897B017ABB79C751
:1064190002660290C9D4E070087B017ABB79638077
:106429006490C9D4E0640170097B017ABB79630285
:10643900657B90C9D4E0640260030270897B017AAC
:10644900BB796302660290C9D4E070087B017ABB0C
:106459007919803190C9D4E0640170097B017ABB54
:10646900791902657B90C9D4E064026003027089DE
:106479007B017ABB791902660290C9D4E070207B4E
:10648900017ABA79BB90C9E0F0A3740AF07F407E23
:106499004712C2E490C9CEE4F0A37414026539909E
:1064A900C9D4E0640170097B017ABA79BB02657BC2
:1064B90090C9D4E0640260030270897B017ABA79D9
:1064C900BB02660290C9D4E0701F7B017ABB79E3F5
:1064D90090C9E0F0A37409F07F407E4712C2E490AE
:1064E900C9CEE4F0A37412804790C9D4E064017066
:1064F900087B017ABB79E3807990C9D4E0640260B2
:10650900030270897B017ABB79E302660290C9D4E0
:10651900E070517B017ABD79A990C9E0F0A37409B3
:10652900F07F407E4712C2E490C9CEE4F0A3741212
:10653900F07B017AC979CE90C9E0E4F0A304F07F39
:10654900487E5712C2E47B017AC879CC90C9E0E44D
:10655900F0A304F07F497E5712C2E47B017AC8791F
:10656900F402671290C9D4E06401707C7B017ABDA2
:1065790079A990C9E0F0A3740AF07F707E4712C22E
:10658900E490C9CEE4F0A37414F07B017AC979CE02
:1065990090C9E0E4F0A304F07F787E5712C2E47B4F
:1065A900017AC879CC90C9E0E4F0A304F07F797E40
:1065B9005712C2E47B017AC879F490C9E0E4F0A3E8
:1065C90004F07F7A7E5712C2E490C9D4E075F004D2
:1065D900A4243CF974C835F0FA7B0190C9E0E4F0D1
:1065E900A304F07F8002673D90C9D4E06402600390
:1065F9000270897B017ABD79A990C9E0F0A3740A78
:10660900F07F007E4812C2E490C9CEE4F0A374146E
:10661900F07B017AC979CE90C9E0E4F0A304F07F58
:10662900087E5812C2E47B017AC879CC90C9E0E4AB
:10663900F0A304F07F097E5812C2E47B017AC8797D
:10664900F490C9E0E4F0A304F07F0A7E5812C2E492
:1066590090C9D4E075F004A4243CF974C835F0FA63
:106669007B0190C9E0E4F0A304F07F107E4802703A
:106679008690C9D4E0FF25E025E0243AF582E43488
:10668900C8F583E0FCA3E0FDEC6003027089ED240A
:10669900FE70030268541470030269ED147003025A
:1066A9006B86147003026D1F147003026EB8240503
:1066B9006003027089EF60030267427B017ABC794B
:1066C9005190C9E0F0A37407F07F407E4712C2E4FD
:1066D90090C9CEE4F0A3740EF07B017AC979CE900B
:1066E900C9E0E4F0A304F07F487E5712C2E47B01BD
:1066F9007AC879D190C9E0E4F0A304F07F497E57C4
:1067090012C2E47B017AC9790090C9E0E4F0A304DC
:10671900F07F4A7E5712C2E490C9D4E075F004A410
:10672900243CF974C835F0FA7B0190C9E0E4F0A380
:1067390004F07F507E4702708690C9D4E0640160FE
:10674900030267CB7B017ABC795190C9E0F0A3744D
:1067590007F07F407E4712C2E490C9CEE4F0A374EB
:106769000EF07B017AC979CE90C9E0E4F0A304F078
:106779007F487E5712C2E47B017AC879D190C9E07B
:10678900E4F0A304F07F497E5712C2E47B017AC981
:10679900790090C9E0E4F0A304F07F4A7E5712C261
:1067A900E490C9D4E075F004A4243CF974C835F028
:1067B900FA7B0190C9E0E4F0A304F07F507E470220
:1067C900708690C9D4E0640260030270897B017A03
:1067D900BC795190C9E0F0A37407F07F407E47125D
:1067E900C2E490C9CEE4F0A3740EF07B017AC979B2
:1067F900CE90C9E0E4F0A304F07F487E5712C2E4CA
:106809007B017AC879D190C9E0E4F0A304F07F490B
:106819007E5712C2E47B017AC9790090C9E0E4F09D
:10682900A304F07F4A7E5712C2E490C9D4E075F000
:1068390004A4243CF974C835F0FA7B0190C9E0E45A
:10684900F0A304F07F507E4702708690C9D4E060BF
:10685900030268DB7B017ABC791990C9E0F0A37463
:1068690007F07F407E4712C2E490C9CEE4F0A374DA
:106879000EF07B017AC979CE90C9E0E4F0A304F067
:106889007F487E5712C2E47B017AC879D190C9E06A
:10689900E4F0A304F07F497E5712C2E47B017AC970
:1068A900790090C9E0E4F0A304F07F4A7E5712C250
:1068B900E490C9D4E075F004A4243CF974C835F017
:1068C900FA7B0190C9E0E4F0A304F07F507E47020F
:1068D900708690C9D4E0640160030269647B017A1F
:1068E900BC791990C9E0F0A37407F07F407E471284
:1068F900C2E490C9CEE4F0A3740EF07B017AC979A1
:10690900CE90C9E0E4F0A304F07F487E5712C2E4B8
:106919007B017AC879D190C9E0E4F0A304F07F49FA
:106929007E5712C2E47B017AC9790090C9E0E4F08C
:10693900A304F07F4A7E5712C2E490C9D4E075F0EF
:1069490004A4243CF974C835F0FA7B0190C9E0E449
:10695900F0A304F07F507E4702708690C9D4E064AA
:106969000260030270897B017ABC791990C9E0F051
:10697900A37407F07F407E4712C2E490C9CEE4F0C9
:10698900A3740EF07B017AC979CE90C9E0E4F0A333
:1069990004F07F487E5712C2E47B017AC879D1900E
:1069A900C9E0E4F0A304F07F497E5712C2E47B01F9
:1069B9007AC9790090C9E0E4F0A304F07F4A7E57D0
:1069C90012C2E490C9D4E075F004A4243CF974C857
:1069D90035F0FA7B0190C9E0E4F0A304F07F507E22
:1069E9004702708690C9D4E06003026A747B017A19
:1069F900BB79B990C9E0F0A37408F07F407E4712D3
:106A0900C2E490C9CEE4F0A37410F07B017AC9798D
:106A1900CE90C9E0E4F0A304F07F487E5712C2E4A7
:106A29007B017AC879D190C9E0E4F0A304F07F49E9
:106A39007E5712C2E47B017AC9790090C9E0E4F07B
:106A4900A304F07F4A7E5712C2E490C9D4E075F0DE
:106A590004A4243CF974C835F0FA7B0190C9E0E438
:106A6900F0A304F07F507E4702708690C9D4E06499
:106A7900016003026AFD7B017ABB79B990C9E0F034
:106A8900A37408F07F407E4712C2E490C9CEE4F0B7
:106A9900A37410F07B017AC979CE90C9E0E4F0A320
:106AA90004F07F487E5712C2E47B017AC879D190FD
:106AB900C9E0E4F0A304F07F497E5712C2E47B01E8
:106AC9007AC9790090C9E0E4F0A304F07F4A7E57BF
:106AD90012C2E490C9D4E075F004A4243CF974C846
:106AE90035F0FA7B0190C9E0E4F0A304F07F507E11
:106AF9004702708690C9D4E0640260030270897B02
:106B0900017ABB79B990C9E0F0A37408F07F407E9F
:106B19004712C2E490C9CEE4F0A37410F07B017A65
:106B2900C979CE90C9E0E4F0A304F07F487E5712FA
:106B3900C2E47B017AC879D190C9E0E4F0A304F0FA
:106B49007F497E5712C2E47B017AC9790090C9E076
:106B5900E4F0A304F07F4A7E5712C2E490C9D4E05E
:106B690075F004A4243CF974C835F0FA7B0190C986
:106B7900E0E4F0A304F07F507E4702708690C9D408
:106B8900E06003026C0D7B017ABB795590C9E0F096
:106B9900A37407F07F407E4712C2E490C9CEE4F0A7
:106BA900A3740EF07B017AC979CE90C9E0E4F0A311
:106BB90004F07F487E5712C2E47B017AC879D190EC
:106BC900C9E0E4F0A304F07F497E5712C2E47B01D7
:106BD9007AC9790090C9E0E4F0A304F07F4A7E57AE
:106BE90012C2E490C9D4E075F004A4243CF974C835
:106BF90035F0FA7B0190C9E0E4F0A304F07F507E00
:106C09004702708690C9D4E064016003026C967BE8
:106C1900017ABB795590C9E0F0A37407F07F407EF3
:106C29004712C2E490C9CEE4F0A3740EF07B017A56
:106C3900C979CE90C9E0E4F0A304F07F487E5712E9
:106C4900C2E47B017AC879D190C9E0E4F0A304F0E9
:106C59007F497E5712C2E47B017AC9790090C9E065
:106C6900E4F0A304F07F4A7E5712C2E490C9D4E04D
:106C790075F004A4243CF974C835F0FA7B0190C975
:106C8900E0E4F0A304F07F507E4702708690C9D4F7
:106C9900E0640260030270897B017ABB795590C96F
:106CA900E0F0A37407F07F407E4712C2E490C9CE9A
:106CB900E4F0A3740EF07B017AC979CE90C9E0E4BF
:106CC900F0A304F07F487E5712C2E47B017AC879A9
:106CD900D190C9E0E4F0A304F07F497E5712C2E4E1
:106CE9007B017AC9790090C9E0E4F0A304F07F4AF6
:106CF9007E5712C2E490C9D4E075F004A4243CF98B
:106D090074C835F0FA7B0190C9E0E4F0A304F07F80
:106D1900507E4702708690C9D4E06003026DA67B5D
:106D2900017ABC79C590C9E0F0A37405F07F407E73
:106D39004712C2E490C9CEE4F0A3740AF07B017A49
:106D4900C979CE90C9E0E4F0A304F07F487E5712D8
:106D5900C2E47B017AC879D190C9E0E4F0A304F0D8
:106D69007F497E5712C2E47B017AC9790090C9E054
:106D7900E4F0A304F07F4A7E5712C2E490C9D4E03C
:106D890075F004A4243CF974C835F0FA7B0190C964
:106D9900E0E4F0A304F07F507E4702708690C9D4E6
:106DA900E064016003026E2F7B017ABC79C590C94A
:106DB900E0F0A37405F07F407E4712C2E490C9CE8B
:106DC900E4F0A3740AF07B017AC979CE90C9E0E4B2
:106DD900F0A304F07F487E5712C2E47B017AC87998
:106DE900D190C9E0E4F0A304F07F497E5712C2E4D0
:106DF9007B017AC9790090C9E0E4F0A304F07F4AE5
:106E09007E5712C2E490C9D4E075F004A4243CF979
:106E190074C835F0FA7B0190C9E0E4F0A304F07F6F
:106E2900507E4702708690C9D4E064026003027004
:106E3900897B017ABC79C590C9E0F0A37405F07F1C
:106E4900407E4712C2E490C9CEE4F0A3740AF07BF5
:106E5900017AC979CE90C9E0E4F0A304F07F487EB5
:106E69005712C2E47B017AC879D190C9E0E4F0A352
:106E790004F07F497E5712C2E47B017AC9790090F8
:106E8900C9E0E4F0A304F07F4A7E5712C2E490C936
:106E9900D4E075F004A4243CF974C835F0FA7B01F8
:106EA90090C9E0E4F0A304F07F507E470270869019
:106EB900C9D4E06003026F3F7B017ABE799190C922
:106EC900E0F0A37405F07F407E4712C2E490C9CE7A
:106ED900E4F0A3740AF07B017AC979CE90C9E0E4A1
:106EE900F0A304F07F487E5712C2E47B017AC87987
:106EF900D190C9E0E4F0A304F07F497E5712C2E4BF
:106F09007B017AC9790090C9E0E4F0A304F07F4AD3
:106F19007E5712C2E490C9D4E075F004A4243CF968
:106F290074C835F0FA7B0190C9E0E4F0A304F07F5E
:106F3900507E4702708690C9D4E064016003026FF5
:106F4900C87B017ABE799190C9E0F0A37405F07FFE
:106F5900407E4712C2E490C9CEE4F0A3740AF07BE4
:106F6900017AC979CE90C9E0E4F0A304F07F487EA4
:106F79005712C2E47B017AC879D190C9E0E4F0A341
:106F890004F07F497E5712C2E47B017AC9790090E7
:106F9900C9E0E4F0A304F07F4A7E5712C2E490C925
:106FA900D4E075F004A4243CF974C835F0FA7B01E7
:106FB90090C9E0E4F0A304F07F507E470270869008
:106FC900C9D4E0640260030270897B017ABE7991B9
:106FD90090C9E0F0A37405F07F407E4712C2E490A7
:106FE900C9CEE4F0A3740AF07B017AC979CE90C9BD
:106FF900E0E4F0A304F07F487E5712C2E47B017AF3
:10700900C879D190C9E0E4F0A304F07F497E571212
:10701900C2E47B017AC9790090C9E0E4F0A304F0E5
:107029007F4A7E5712C2E490C9D4E075F004A424C3
:107039003CF974C835F0FA7B0190C9E0E4F0A30487
:07704900F07F507E47803606
:10705000E490C9D9F0A3F090C9D5E0FEA3E0FF7B8E
:10706000017AC979D990C9E0E4F0A304F012C2E42E
:1070700090C9D7E0FEA3E0FF7B017AC979D990C916
:09708000E0E4F0A304F012C2E404
:0970890090C9D4E004F002631C7C
:0170920022DB
:0ED78C0090C9C8EEF0A3EFF0A3ECF0A3EDF00F
:10D79A0090C889E0FFC39403503E90C9C8E0FCA337
:10D7AA00E0FDEF25E025E0243AF582E434C8F5836C
:10D7BA00ECF0A3EDF090C9CAE0FCA3E0FDEF25E090
:10D7CA0025E0243CF582E434C8F583ECF0A3EDF0BF
:10D7DA0090C889E004F08072E490C9CCF0A3F0907C
:10D7EA00C9CCE0FEA3E0FFC39402EE6480948050AB
:10D7FA003BEF7802C333CE33CED8F9FF243EF97417
:10D80A00C83EFA7B01C001743A2FF974C83EA801D8
:10D81A00FC7D01D0017E007F0412AB0790C9CDE0E8
:10D82A0004F070BB90C9CCE004F080B390C9C8E0A2
:10D83A00FFA3E090C842CFF0A3EFF090C9CAE0FF7F
:0DD84A00A3E090C844CFF0A3EFF0026311FB
:10EFEF00E490C889F0FFEF25E025E0243AF582E4AC
:10EFFF0034C8F583E4F0A3F0EF25E025E0243CF5D9
:10F00F0082E434C8F583E4F0A3F00FEFB403D70222
:02F01F0063117B
:10D21B0090C76BF0A3F090C760F090C80EE0FEA330
:10D22B00E0FF7C007D0A12ABA7AA06AB0790C8569D
:10D23B00E0FEA3E0FF7D6412ABA7EF2BFFEE3AFEFF
:10D24B0090C895E02FFF90C894E03E90C9A4F0A33E
:0ED25B00EFF07F0090C9A4E0FCA3E0FD7E810F
:10D2690090C9C4EEF0A3EFF0A3ECF0A3EDF090C7E2
:10D279006FEEF0A3EFF090C8C9ECF0A3EDF090C801
:10D28900A27401F0FB7AC879C990C9E0E4F0A3045B
:10D29900F012C2E47DBC7C027F0612F09690C9C4EC
:10D2A900E0FEA3E08EF012AF07D2CE8100D2E68174
:10D2B90002D30A8104D2FE8106D2DA8108D2F28130
:10D2C9000A0000D31990C9C6E0FCA3E0FD7F0180E4
:10D2D9003A90C9C6E0FCA3E0FD7F02802E90C9C642
:10D2E900E0FCA3E0FD7F03802290C9C6E0FCA3E037
:10D2F900FD7F04801690C9C6E0FCA3E0FD7F058090
:10D309000A90C9C6E0FCA3E0FD7F067E0012D78C17
:01D3190022F1
:0CF39300E490C8A2F090C814F0A3F0228F
:10E4EE0090C8A2E060637F0612F344EF605B90C7B2
:10E4FE006FE0FEA3E0FF7B017AC8790A90C9CDE4F4
:10E50E00F0A304F012BDBF90C80AE0FEA3E0FF9096
:10E51E00C8C9E0FCA3E0FDB50707ECB5060302F39E
:10E52E0093C390C815E0940290C814E0940050195B
:10E53E0090C76FE0FEA3E0FF12D26990C815E00409
:0AE54E00F0700690C814E004F022FB
:06F3A800E490C803F0220E
:10CECE0090C9C4ECF0A3EDF0EE600302CFECEF24BA
:10CEDE00FE606A14606B14700302CFB1240360030A
:10CEEE0002CFEC90C9C4E0FEA3E0FFEE703DEF145C
:10CEFE006019146026240270327F037E1012F1A393
:10CF0E007F137E1012F1A37F33805C7F037E10129D
:10CF1E00F1A37F137E1012F1BE801E7F037E1012CE
:10CF2E00F1BE7F137E1012F1A3800E7F037E1012CE
:10CF3E00F1A37F137E1012F1A37F3380627F5380A3
:10CF4E002690C9C4E0FEA3E0FFEE7043EF14601B11
:10CF5E0014602A240270387F637E1012F1A37F734F
:10CF6E007E1012F1A37F837E1080627F637E10128B
:10CF7E00F1A37F737E1012F1BE7F8380227F637ECA
:10CF8E001012F1BE7F737E1012F1A37F8380107F8B
:10CF9E00637E1012F1A37F737E1012F1A37F837E46
:10CFAE0010803890C9C4E0FEA3E0FFEE7022EF14AB
:10CFBE00601004701B7F137E1112F1BE7F337E1141
:10CFCE0080197F137E1112F1A37F337E1102F1BE01
:0FCFDE007F137E1112F1A37F337E1112F1A32274
:109F390090C9C4ECF0A3EDF0EE600302A4DDEF12CA
:109F4900AEE19F7910A06D11A13312A1B013A2AA9D
:109F590014A37015A3ED16A492179FF033A0D03463
:109F6900A22D35A30D36A44037A4B7380000A4DDCF
:109F790090C9C4E07002A3E070177F537E1112F1FB
:109F8900887F637E1112F1887F737E1112F1BE8082
:109F99004290C9C4E07004A3E0640170107F537E4D
:109FA9001112F1887F637E1112F1BE801F90C9C41E
:109FB900E07004A3E064027F537E11700512F1BEC4
:109FC900800312F1887F637E1112F1887F737E11FD
:109FD90012F18890C9C4E07004A3E0640370047DA1
:109FE900018079E4FD807590C9C4E07002A3E07036
:109FF900177F537E1112F1887F637E1112F1887FDA
:10A00900737E1112F1BE804290C9C4E07004A3E0CE
:10A01900640170107F537E1112F1887F637E1112E3
:10A02900F1BE801F90C9C4E07004A3E064027F53AD
:10A039007E11700512F1BE800312F1887F637E11D3
:10A0490012F1887F737E1112F18890C9C4E07004FF
:10A05900A3E0640370047D018002E4FDFC7F807E3F
:10A069002102A4DA90C9C4E07002A3E070107F93C2
:10A079007E1112F1887F037E1212F1BE802F90C9E2
:10A08900C4E07004A3E0640170097F937E1112F1AA
:10A09900BE801390C9C4E07004A3E06402700E7F0F
:10A0A900937E1112F1887F037E1212F18890C9C440
:10A0B900E07004A3E0640270047D018002E4FDFC09
:10A0C9007F107E2202A4DA90C9C4E07002A3E07076
:10A0D900107F937E1112F1887F037E1212F1BE80E8
:10A0E9002F90C9C4E07004A3E0640170097F937ED6
:10A0F9001112F1BE801390C9C4E07004A3E0640298
:10A10900700E7F937E1112F1887F037E1212F188FF
:10A1190090C9C4E07004A3E0640270047D01800268
:10A12900E4FDFC7F107E2202A4DA90C9C4E070022B
:10A13900A3E070177F237E1212F1887F837E90122D
:10A14900F1887F937E9012F1BE804290C9C4E0707D
:10A1590004A3E0640170107F237E1212F1887F83CB
:10A169007E9012F1BE801F90C9C4E07004A3E06420
:10A17900027F237E12700512F1BE800312F1887FDF
:10A18900837E9012F1887F937E9012F18890C9C4E2
:10A19900E07004A3E0640370047D018002E4FDFC27
:10A1A9007F307E3902A4DA90C9C4E07002A3E0705E
:10A1B900177F637E1212F1887F737E1212F1887FF6
:10A1C900837E1212F1BE804290C9C4E07004A3E0FC
:10A1D900640170107F637E1212F1887F737E121200
:10A1E900F1BE801F90C9C4E07004A3E064027F63DC
:10A1F9007E12700512F1BE800312F1887F737E1200
:10A2090012F1887F837E1212F18890C9C4E070042C
:10A21900A3E0640370047D018002E4FDFC7F907E6D
:10A229002202A4DA90C9C4E07002A3E070177F6328
:10A239007E1212F1887F737E1212F1887F837E125B
:10A2490012F1BE804290C9C4E07004A3E0640170B9
:10A25900107F637E1212F1887F737E1212F1BE8025
:10A269001F90C9C4E07004A3E064027F637E12708A
:10A279000512F1BE800312F1887F737E1212F188F4
:10A289007F837E1212F18890C9C4E07004A3E06450
:10A299000370047D018002E4FDFC7F907E2202A40C
:10A2A900DA90C9C4E07002A3E070107F037E131234
:10A2B900F1887413FFFE12F1BE802F90C9C4E070BB
:10A2C90004A3E0640170097F037E1312F1BE8013B9
:10A2D90090C9C4E07004A3E06402700E7F037E138A
:10A2E90012F1887413FFFE12F18890C9C4E070045A
:10A2F900A3E0640270047D018002E4FDFC7F207EFE
:10A309002302A4DA90C9C4E07002A3E070107F03AD
:10A319007E1312F1887413FFFE12F1BE802F90C9CB
:10A32900C4E07004A3E0640170097F037E1312F195
:10A33900BE801390C9C4E07004A3E06402700E7F6C
:10A34900037E1312F1887413FFFE12F18890C9C4B9
:10A35900E07004A3E0640270047D018002E4FDFC66
:10A369007F207E2302A4DA90C9C4E07002A3E070C2
:10A37900177F337E1312F1887F437E1312F1887F92
:10A38900537E1312F1BE804290C9C4E07004A3E069
:10A39900640170107F337E1312F1887F437E13129C
:10A3A900F1BE801F90C9C4E07004A3E064027F334A
:10A3B9007E13700512F1BE800312F1887F437E136C
:10A3C90012F1887F537E1312F18890C9C4E070049A
:10A3D900A3E0640370047D018002E4FDFC7F607EDC
:10A3E9002302A4DA90C9C4E07002A3E070097F7364
:10A3F9007E1312F1BE801F90C9C4E07004A3E0640B
:10A40900017F737E13700C12F1887F837E1312F122
:10A41900BE800A12F1887F837E1312F18890C9C425
:10A42900E07004A3E0640270047D018002E4FDFC95
:10A439007F907E2302A4DA90C9C4E07002A3E07081
:10A44900097F737E1312F1BE801F90C9C4E07004A6
:10A45900A3E064017F737E13700C12F1887F837E01
:10A469001312F1BE800A12F1887F837E1312F188DC
:10A4790090C9C4E07004A3E0640270047D01800205
:10A48900E4FDFC7F907E23804890C9C4E07004A35A
:10A49900E064017F037E14700912F1887D017C005C
:10A4A900800612F1BEE4FDFC7F107E24802390C952
:10A4B900C4E07004A3E064017F037E14700912F103
:10A4C900887D017C00800612F1BEE4FDFC7F107ED0
:05A4D9002412F0FC223A
:05F0F700E4FDFC7F9028
:10F0FC0090C9C6ECF0A3EDF07B017AC979C690C932
:09F10C00E0E4F0A304F002C2E407
:06EE7100E0FF90C812F062
:10EE770090C885745AF0A37401F0E4A3F0EF25E07D
:10EE87002471F582E434C7F583A3E090C888F07B4A
:10EE9700017AC8798590C9E0E4F0A37402F07F8411
:05EEA7007E0002C2E440
:05F386003EF583E0FFED
:08F38B0090C812EFF002EE77CA
:10AF5B0090C8EEE0B40900400302B2C990AF6EF89E
:10AF6B0028287302AF8902B08702B0C102B0DF029A
:10AF7B00B0FD02B1CA02B1EF02B1FF02B2B67F63FC
:10AF8B007E5012F1A37F737E5012F2927F837E501C
:10AF9B0012F2927F937E5012F2927F037E5112F245
:10AFAB00927F137E5112F2927F237E5112F2927F87
:10AFBB00337E5112F2927F437E5112F2927F537E77
:10AFCB005112F29290C8F8E0FEA3E0241AF58274B5
:10AFDB00C812F3867B017AC9790690C9E0E4F0A325
:10AFEB0004F07F707E4012C2E47B017AC97909902C
:10AFFB00C9E0E4F0A304F07F807E4012C2E47B0141
:10B00B007AC879FE90C9E0E4F0A304F07F007E419A
:10B01B0012C2E47B017AC9790390C9E0E4F0A3047E
:10B02B00F07F107E4112C2E47B017AC9793C90C952
:10B03B00E0E4F0A304F07F307E4112C2E47B017A9E
:10B04B00C9794090C9E0E4F0A304F07F407E41123F
:10B05B00C2E47B017AC9790C90C9E0E4F0A304F057
:10B06B007F607E4112C2E47B017AC9790E90C9E000
:10B07B00E4F0A304F07F707E4102C2E47F937E5123
:10B08B0012F1A37F137E5212F2927F337E5212F291
:10B09B00927F537E5212F2927F737E5212F2927F04
:10B0AB00937E5212F29290C8F8E0FEA3E02481F551
:10B0BB008274C802B2C67F437E5312F1A37453FF4E
:10B0CB00FE12F29290C8F8E0FEA3E0248EF5827493
:10B0DB00C802B2C67F737E5312F1A37F837E5312D5
:10B0EB00F29290C8F8E0FEA3E0246DF58274C802DA
:10B0FB00B2C67B017AC9791490C9E0E4F0A304F0DD
:10B10B007F307E4412C2E47B017AC9791A90C9E080
:10B11B00E4F0A304F07F407E4412C2E47B017AC9C1
:10B12B00792190C9E0E4F0A304F07F507E4412C271
:10B13B00E47B017AC9792390C9E0E4F0A304F07FA2
:10B14B00707E4412C2E47B017AC9793990C9E0E47C
:10B15B00F0A304F07F807E4412C2E47B017AC979AC
:10B16B003E90C9E0E4F0A304F07F907E4412C2E469
:10B17B007B017AC9791290C9E0E4F0A304F07F1047
:10B18B007E4512C2E47B017AC9791890C9E0E4F0DC
:10B19B00A304F07F207E4512C2E47B017AC9791F9C
:10B1AB0090C9E0E4F0A304F07F307E4512C2E49036
:10B1BB00C8F8E0FEA3E024C1F58274C802B2C67FD2
:10B1CB00537E5512F1A37F637E5512F2927F737EED
:10B1DB005512F29290C8F8E0FEA3E02436F5827483
:10B1EB00C802B2C690C8F8E0FEA3E024B7F582749B
:10B1FB00C802B2C67F937E5512F1A37F037E56120F
:10B20B00F2927F137E5612F2927F237E5612F292A7
:10B21B007F337E5612F2927F437E5612F2927B015F
:10B22B007AC879E490C9E0E4F0A304F07F907E45FE
:10B23B0012C2E47B017AC879E690C9E0E4F0A3047A
:10B24B00F07F007E4612C2E47B017AC879E890C990
:10B25B00E0E4F0A304F07F107E4612C2E47B017A97
:10B26B00C879EA90C9E0E4F0A304F07F207E46128F
:10B27B00C2E47B017AC879EC90C9E0E4F0A304F056
:10B28B007F307E4612C2E47B017AC879F090C9E028
:10B29B00E4F0A304F07F407E4612C2E490C8F8E0CD
:10B2AB00FEA3E02405F58274C8801012F02190C82B
:0FB2BB00F8E0FEA3E0249EF58274C812F3862209
:10E79D007F037E1012F2927F137E1012F2927F335E
:10E7AD007E1012F2927F437E1012F2927F537E10F2
:10E7BD0012F2927F637E1012F2927F737E1012F22C
:10E7CD00927F837E1012F2927F137E1112F2927F4E
:10E7DD00337E1112F2927F737E9212F292E4FDFC5F
:06E7ED00FF7E3002F0FC8B
:07E0B50090C764E0FF7E004C
:10E0BC0090C9C4EEF0A3EFF064014E70197F037E9B
:10E0CC001012F1A37F137E1012F1A37F337E101276
:10E0DC00F1A37D01803C90C9C4E07004A3E064020C
:10E0EC00700D7F437E1012F1A37F537E10804390FE
:10E0FC00C9C4E07004A3E0640370207F637E101237
:10E10C00F1A37F737E1012F1A37F837E1012F1A313
:10E11C007D027C007F007E3002F0FC90C9C4E07070
:10E12C0004A3E06404700E7F137E1112F1A37F33FD
:06E13C007E1112F1A32286
:04E99400AB07AA061D
:10E998007C007D3C12ABB990C9C8EEF0A3EFF0AE95
:10E9A80002AF037C007D3C12ABB9A3ECF0A3EDF001
:10E9B8007B017AC979C890C9E0E4F0A304F07F101C
:10E9C8007E2112C2E47B017AC979CA90C9E0E4F0D9
:0AE9D800A304F07F307E2102C2E4A8
:08E7F30090C825E0FEA3E0FF41
:04E7FB00AB07AA06B8
:10E7FF007C007D3C12ABB990C9C4EEF0A3EFF0AE34
:10E80F0002AF037C007D3C12ABB9A3ECF0A3EDF09B
:10E81F007B017AC979C490C9E0E4F0A304F07F00CA
:10E82F007E3112C2E47B017AC979C690C9E0E4F067
:0AE83F00A304F07F007E3202C2E461
:10ED770090C8247401F07F037E1112F1A37F137EE4
:10ED87001112F1A37F237E1112F1A37F337E11129B
:10ED9700F1A37B017AC8792590C9CDE4F0A304F0EB
:10EDA7007F067E8112BDBF7DE87C037F0502F0965A
:10F0B800E490C824F07F037E1112F2927F137E1130
:10F0C80012F2927F237E1112F2927F337E1102F2A6
:01F0D80092A5
:10ECF40090C824E070077F037E1102F2927F051210
:10ED0400F344EF602C90C826E024FFF090C825E07F
:10ED140034FFF012E7F6D390C826E0940090C8259B
:10ED2400E09400500302F0B87DE87C037F0512F004
:02ED3400962225
:10B2CA00E490C9C6F0A3F07B017AC8793190C9CD60
:10B2DA00F0A304F07F047E8112BDBF7B017AC97995
:10B2EA00C690C9CDE4F0A304F07F007E8112BDBFF1
:10B2FA0090C9C6E0FAA3E0FB7C007D64FFAE0212AF
:10B30A00ABB990C856EEF0A3EFF07C007D0AAF030C
:10B31A00AE0212ABB97C007D0A12ABB990C80EEC32
:10B32A00F0A3EDF090C9C6E0FEA3E0FF7C007D0A21
:10B33A0012ABB990C894ECF0A3EDF07B017AC8790E
:10B34A005690C9E0E4F0A304F07F007E2012C2E424
:10B35A007B017AC8790E90C9E0E4F0A304F07F106B
:10B36A007E2012C2E47B017AC8799490C9E0E4F0A5
:10B37A00A304F07F307E2012C2E47B017AC879569A
:10B38A0090C9E0E4F0A304F07F507E2112C2E47B6E
:10B39A00017AC8790E90C9E0E4F0A304F07F607ED8
:10B3AA002112C2E47B017AC8799490C9E0E4F0A33F
:10B3BA0004F07F707E2112C2E47B017AC979C690BB
:10B3CA00C9CDE4F0A304F07F027E8112BDBF90C90B
:10B3DA00C6E0FAA3E0FB7C007D64FFAE0212ABB9C3
:10B3EA0090C829EEF0A3EFF07C007D0AAF03AE020D
:10B3FA0012ABB97C007D0A12ABB990C8C3ECF0A3BA
:10B40A00EDF090C9C6E0FEA3E0FF7C007D0A12AB16
:10B41A00B990C87FECF0A3EDF07B017AC879299046
:10B42A00C9E0E4F0A304F07F607E2012C2E47B014D
:10B43A007AC879C390C9E0E4F0A304F07F707E2053
:10B44A0012C2E47B017AC8797F90C9E0E4F0A304D0
:10B45A00F07F807E2012C2E47B017AC8792990C9E4
:10B46A00E0E4F0A304F07F607E2212C2E47B017A5A
:10B47A00C879C390C9E0E4F0A304F07F707E221279
:10B48A00C2E47B017AC8797F90C9E0E4F0A304F0B2
:10B49A007F807E2212C2E47B017AC8793390C9CDBB
:10B4AA00E4F0A304F07F067E8112BDBF90C833E0AA
:10B4BA00FEA3E0FF12E99490C9C6E0FAA3E0FB7C80
:10B4CA00007D3CFFAE0212ABB990C871EEF0A3EF5B
:10B4DA00F07C007D3CAF03AE0212ABB990C801EC20
:10B4EA00F0A3EDF07B017AC8797190C9E0E4F0A38A
:10B4FA007402F07F107E2112C2E47B017AC87901BE
:10B50A0090C9E0E4F0A37402F07F207E2112C2E425
:10B51A007B017AC8797190C9E0E4F0A37402F07FE4
:10B52A00707E2312C2E47B017AC8790190C9E0E4F3
:10B53A00F0A37402F07F807E2312C2E47B017AC9F1
:10B54A0079C690C9CDE4F0A304F07F087E8112BDCC
:10B55A00BF90C9C6E0FAA3E0FB7C007D0AFFAE02F9
:10B56A0012ABB97C007D0A12ABB990C8C7ECF0A344
:10B57A00EDF07C007D0AAF03AE0212ABB990C8832E
:10B58A00ECF0A3EDF07B017AC879C790C9E0E4F04A
:10B59A00A37402F07F907E2112C2E47B017AC879FB
:10B5AA008390C9E0E4F0A37402F07F007E2212C205
:10B5BA00E47B017AC979C690C9CDE4F0A304F07F8F
:10B5CA000A7E8112BDBF90C9C6E0FAA3E0FB7C00E7
:10B5DA007D0AFFAE0212ABB97C007D0A12ABB990AC
:10B5EA00C8B5ECF0A3EDF07C007D0AAF03AE021201
:10B5FA00ABB990C838ECF0A3EDF07B017AC879C7F3
:10B60A0090C9E0E4F0A37402F07F007E2312C2E442
:10B61A007B017AC8798390C9E0E4F0A37402F07FD1
:0DB62A00107E2312C2E47F737E9202F29222
:0801000090C9A0EEF0A3EFF09E
:10010800E4A3F0A3F0A3F0A3F090C75EE0600DE4D1
:10011800FF12F344EF6005E490C75EF090C9A0E0D9
:10012800FEA3E0FF64014E6006EF64024E70099082
:10013800C75EE060030243B47B017AC7796D90C95A
:10014800CDE4F0A304F07F0C7E8012BDBF90C76D94
:10015800A3E0FF7C0030E0047D0180027D0090C9AF
:10016800A6ECF0A3EDF0EF7E0030E1047F01800201
:100178007F0090C9A8EEF0A3EFF090C76DA3E0FF51
:100188007C0030E2047D0180027D0090C9B8ECF06B
:10019800A3EDF0EF7E0030E3047F0180027F009042
:1001A800C9BAEEF0A3EFF090C76DA3E0FF7C003072
:1001B800E4047D0180027D0090C9BCECF0A3EDF061
:1001C800EF7E0030E7047F0180027F0090C9AAEE2D
:1001D800F0A3EFF090C76DE0FEEE7C0030E4047D04
:1001E8000180027D0090C9ACECF0A3EDF0EE7E003A
:1001F80030E0047F0180027F0090C9AEEEF0A3EFEB
:10020800F090C76DA3E0FF7C0030E5047D0180021B
:100218007D0090C9B0ECF0A3EDF0EF7E0030E6046D
:100228007F0180027F0090C9B2EEF0A3EFF090C783
:100238006DE0FEEE7C0030E1047D0180027D0090DF
:10024800C9B4ECF0A3EDF0EE7E0030E2047F01804B
:10025800027F0090C9B6EEF0A3EFF090C76DE0FE04
:10026800EE7C0030E3047D0180027D0090C9BEEC85
:10027800F0A3EDF0EE7E0030E5047F0180027F0000
:1002880090C9C0EEF0A3EFF090C9B0E07004A3E00D
:040298006401700B82
:09029C0090C9C274C0F0A37444BF
:1002A500801D90C9B4E07004A3E0640190C9C270D8
:0102B5000840
:0602B6007405F0A3741CA6
:0202BC008006BA
:1002BE0074CEF0A37459F07B017AC979C290C9E06B
:0C02CE00E4F0A304F07F237E1412C2E4CD
:0C02DA0090C9B2E07004A3E06401700B56
:0902E60090C9C274C0F0A3744475
:1002EF00801D90C9B6E07004A3E0640190C9C2708C
:0102FF0008F6
:060300007405F0A3741C5B
:0203060080066F
:1003080074CEF0A37459F07B017AC979C290C9E020
:0C031800E4F0A304F07F337E1412C2E472
:1003240090C9AEE07004A3E06401700F90C8C0E00F
:10033400700912ED7790C8C07401F090C812E0B44F
:10034400182990C807E07002A3E0701F7B017AC8E7
:10035400792590C9CDF0A304F07F067E8112BDBF3C
:1003640012E7F390C807E4F0A304F090C9A6E07084
:1003740004A3E06401600302042C90C82FE070041D
:10038400A3E06401600302042C90C81CE0FF12F394
:100394008B7B017AC979A490C9CDE4F0A304F07FE2
:1003A400067E8112BDBF90C9A4E0FAA3E0FB7C00E5
:1003B4007D3CFFAE0212ABB990C871EEF0A3EFF032
:1003C4007C007D3CAF03AE0212ABB990C801ECF0E7
:1003D400A3EDF07B017AC8797190C9E0E4F0A3043D
:1003E400F07F107E2112C2E47B017AC8790190C9A2
:1003F400E0E4F0A304F07F307E2112C2E4E490C76D
:1004040063F090C75FF0A3F090C76BF0A3F090C7C0
:1004140064F090C82FF0A3F090C8C0F090C807F023
:10042400A3F012F0B80204E590C9AAE07004A3E0B6
:100434006401602690C9B2E07004A3E06401601A0C
:1004440090C9B0E07004A3E064017002800C90C90C
:10045400AEE07004A3E06401703012E79D90C82FF1
:10046400E4F0A304F090C813E0FF12F38BE490C708
:1004740063F090C75FF0A3F090C76BF0A3F090C750
:1004840064F090C82BF0A3F0805790C9B6E07004D4
:10049400A3E06401600C90C9B4E07004A3E06401BB
:1004A400703F12E79D90C80CE0FF12F38B12F0B876
:1004B40090C825E07004A3E06401700990C825F099
:1004C400A3F012E7F3E490C763F090C75FF0A3F0E2
:1004D40090C76BF0A3F090C764F090C82FF0A3040A
:1004E400F090C9A0E0FEA3E0FFEE60030243B4EF86
:1004F40024FE7003021C7B1470030234371470034F
:10050400024261240360030243B490C76BE07004A9
:10051400A3E064016003021A1D90C8F8E0FEA3E0A2
:1005240024BBF58274C83EF583E0FF90C812E06FE7
:10053400600302077E90C760E060030205EE90C886
:1005440094E0FEA3E0FF90C9A2EEF0A3EFF04E709A
:100554000A90C894F0A37409F0800E90C895E02422
:10056400FFF090C894E034FFF090C80EE0FEA3E0E2
:10057400FF7C007D0A12ABA7AA06AB0790C856E021
:10058400FEA3E0FF7D6412ABA7EF2BFFEE3AFE90D3
:10059400C895E02FFF90C894E03E90C9A4F0A3EF63
:1005A400F090C909E0FEA3E0FF90C9A4E0FCA3E039
:1005B400FDD39FEC9E501190C906E0FEA3E0FFC35B
:1005C400ED9FEC9E4002800F90C9A2E0FFA3E09053
:1005D400C894CFF0A3EFF07B017AC8799490C9E076
:1005E400E4F0A304F07F7002193E90C760E0640158
:1005F40060030206B690C80EE0FEA3E0FF90C9A215
:10060400EEF0A3EFF04E700A90C80EF0A37409F058
:10061400800E90C80FE024FFF090C80EE034FFF085
:1006240090C80EE0FEA3E0FF7C007D0A12ABA7AAEF
:1006340006AB0790C856E0FEA3E0FF7D6412ABA7AB
:10064400EF2BFFEE3AFE90C895E02FFF90C894E0A0
:100654003E90C9A4F0A3EFF090C909E0FEA3E0FF27
:1006640090C9A4E0FCA3E0FDD39FEC9E502290C966
:1006740006E0FEA3E0FFC3ED9FEC9E40137B017AEE
:10068400C8790E90C9E0E4F0A304F07F6002193E3B
:1006940090C9A2E0FFA3E090C80ECFF0A3EFF07BD7
:1006A400017AC8790E90C9E0E4F0A304F07F6002F7
:1006B400193E90C760E06402600302342890C85673
:1006C400E0FEA3E0FF90C9A2EEF0A3EFF04E700AA3
:1006D40090C856F0A37402F0800E90C857E024FF2F
:1006E400F090C856E034FFF090C80EE0FEA3E0FF9F
:1006F4007C007D0A12ABA7AA06AB0790C856E0FEA1
:10070400A3E0FF7D6412ABA7EF2BFFEE3AFE90C887
:1007140095E02FFF90C894E03E90C9A4F0A3EFF0B9
:1007240090C909E0FEA3E0FF90C9A4E0FCA3E0FDAA
:10073400D39FEC9E502290C906E0FEA3E0FFC3EDD8
:100744009FEC9E40137B017AC8795690C9E0E4F08F
:10075400A304F07F5002193E90C9A2E0FFA3E090E9
:10076400C856CFF0A3EFF07B017AC8795690C9E060
:10077400E4F0A304F07F5002193E90C8F8E0FEA311
:10078400E024C5F58274C83EF583E0FF90C812E00A
:100794006F60030208D690C760E0600302083290DD
:1007A400C883E0FEA3E0FF90C9A2EEF0A3EFF04EF1
:1007B400700A90C883F0A37409F0800E90C884E096
:1007C40024FFF090C883E034FFF090C8C7E0FEA394
:1007D400E0FF7C007D0A12ABA790C884E02FFF9055
:1007E400C883E03E90C9A4F0A3EFF090C9A4E0FE52
:1007F400A3E0FFD39450EE9400501BEF9400EE94CA
:100804000040137B017AC8798390C9E0E4F0A30423
:10081400F07F0002193E90C9A2E0FFA3E090C883D4
:10082400CFF0A3EFF07B017AC8798302099590C7D2
:1008340060E06401600302342890C8C7E0FEA3E0CE
:10084400FF90C9A2EEF0A3EFF04E700A90C8C7F073
:10085400A37408F0800E90C8C8E024FFF090C8C7C5
:10086400E034FFF090C8C7E0FEA3E0FF7C007D0AFF
:1008740012ABA790C884E02FFF90C883E03E90C9D4
:10088400A4F0A3EFF090C9A4E0FEA3E0FFD394503A
:10089400EE9400501BEF9400EE940040137B017A19
:1008A400C879C790C9E0E4F0A304F07F9002193E30
:1008B40090C9A2E0FFA3E090C8C7CFF0A3EFF07BFC
:1008C400017AC879C790C9E0E4F0A304F07F9002EC
:1008D400193E90C81DE0FF90C812E06F6003020B40
:1008E4003090C760E060030209A290C765E0FEA3F0
:1008F400E0FF90C9A2EEF0A3EFF04E700A90C76536
:10090400F0A37402F0800E90C766E024FFF090C755
:1009140065E034FFF090C767E0FEA3E0FF7C007D54
:100924000A12ABA7AA06AB0790C765E0FEA3E0FFD7
:100934007D6412ABA7EF2BFFEE3AFE90C76AE02F5F
:10094400FF90C769E03E90C9A4F0A3EFF090C9A45A
:10095400E0FEA3E0FFD39432EE9400501FEF940026
:10096400EE9400401790C765E0FFA3E090C8A7CFBE
:10097400F0A3EFF07B017AC77965801590C9A2E0F6
:10098400FFA3E090C765CFF0A3EFF07B017AC779AE
:100994006590C9E0E4F0A304F07F00020D9E90C7C7
:1009A40060E064016003020A6C90C767E0FEA3E0A4
:1009B400FF90C9A2EEF0A3EFF04E700A90C767F063
:1009C400A37405F0800E90C768E024FFF090C76719
:1009D400E034FFF090C767E0FEA3E0FF7C007D0AEF
:1009E40012ABA7AA06AB0790C765E0FEA3E0FF7DA4
:1009F4006412ABA7EF2BFFEE3AFE90C76AE02FFF1D
:100A040090C769E03E90C9A4F0A3EFF090C9A4E0B8
:100A1400FEA3E0FFD39432EE9400502AEF9400EE4C
:100A24009400402290C767E0FFA3E090C85DCFF038
:100A3400A3EFF07B017AC7796790C9E0E4F0A304DF
:100A4400F07F10020D9E90C9A2E0FFA3E090C7675B
:100A5400CFF0A3EFF07B017AC7796790C9E0E4F0A7
:100A6400A304F07F10020D9E90C760E0640260034F
:100A740002342890C769E0FEA3E0FF90C9A2EEF01B
:100A8400A3EFF04E700A90C769F0A37409F0800ECA
:100A940090C76AE024FFF090C769E034FFF090C784
:100AA40067E0FEA3E0FF7C007D0A12ABA7AA06ABB9
:100AB4000790C765E0FEA3E0FF7D6412ABA7EF2BB0
:100AC400FFEE3AFE90C769E0FCA3E0FD2FFFEC3E89
:100AD40090C9A4F0A3EFF090C9A4E0FEA3E0FFD373
:100AE4009432EE94005023EF9400EE9400401B9057
:100AF400C84AECF0A3EDF07B017AC7796990C9E0AC
:100B0400E4F0A304F07F20020D9E90C9A2E0FFA3AD
:100B1400E090C769CFF0A3EFF07B017AC7796990C1
:100B2400C9E0E4F0A304F07F20020D9E90C8F8E031
:100B3400FEA3E024A0F58274C83EF583E0FF90C8CC
:100B440012E06F6003020DA390C760E06003020C23
:100B54001290C87FE0FEA3E0FF90C9A2EEF0A3EFDD
:100B6400F04E700A90C87FF0A37409F0800E90C80C
:100B740080E024FFF090C87FE034FFF090C8C3E029
:100B8400FEA3E0FF7C007D0A12ABA7AA06AB079088
:100B9400C829E0FEA3E0FF7D6412ABA7EF2BFFEEB4
:100BA4003AFE90C880E02FFF90C87FE03E90C9A431
:100BB400F0A3EFF090C903E0FEA3E0FF90C9A4E026
:100BC400FCA3E0FDD39FEC9E502290C8FEE0FEA360
:100BD400E0FFC3ED9FEC9E40137B017AC8797F90C0
:100BE400C9E0E4F0A304F07F80020D9E90C9A2E066
:100BF400FFA3E090C87FCFF0A3EFF07B017AC87920
:100C04007F90C9E0E4F0A304F07F80020D9E90C7BA
:100C140060E064016003020CDA90C8C3E0FEA3E064
:100C2400FF90C9A2EEF0A3EFF04E700A90C8C3F093
:100C3400A37409F0800E90C8C4E024FFF090C8C3E8
:100C4400E034FFF090C8C3E0FEA3E0FF7C007D0A1F
:100C540012ABA7AA06AB0790C829E0FEA3E0FF7D6C
:100C64006412ABA7EF2BFFEE3AFE90C880E02FFF93
:100C740090C87FE03E90C9A4F0A3EFF090C903E0D0
:100C8400FEA3E0FF90C9A4E0FCA3E0FDD39FEC9E8B
:100C9400502290C8FEE0FEA3E0FFC3ED9FEC9E400F
:100CA400137B017AC879C390C9E0E4F0A304F07F10
:100CB40070020D9E90C9A2E0FFA3E090C8C3CFF0DC
:100CC400A3EFF07B017AC879C390C9E0E4F0A304F0
:100CD400F07F70020D9E90C760E0640260030234EE
:100CE4002890C829E0FEA3E0FF90C9A2EEF0A3EF8C
:100CF400F04E700A90C829F0A37402F0800E90C8D8
:100D04002AE024FFF090C829E034FFF090C8C3E043
:100D1400FEA3E0FF7C007D0A12ABA7AA06AB0790F6
:100D2400C829E0FEA3E0FF7D6412ABA7EF2BFFEE22
:100D34003AFE90C880E02FFF90C87FE03E90C9A49F
:100D4400F0A3EFF090C903E0FEA3E0FF90C9A4E094
:100D5400FCA3E0FDD39FEC9E502190C8FEE0FEA3CF
:100D6400E0FFC3ED9FEC9E40127B017AC879299085
:100D7400C9E0E4F0A304F07F60801F90C9A2E0FF03
:100D8400A3E090C829CFF0A3EFF07B017AC87929BA
:100D940090C9E0E4F0A304F07F607E22021A179069
:100DA400C8F8E0FEA3E024B9F58274C83EF583E0F8
:100DB400FF90C812E06F6003020F0D90C760E060FF
:100DC40003020E6590C838E0FEA3E0FF90C9A2EECE
:100DD400F0A3EFF04E700A90C838F0A37409F080C5
:100DE4000E90C839E024FFF090C838E034FFF0904A
:100DF400C8B5E0FEA3E0FF7C007D0A12ABA790C853
:100E040039E02FFF90C838E03E90C9A4F0A3EFF07A
:100E140090C9A4E0FEA3E0FFD39450EE9400501DCB
:100E2400EF9400EE940040157B017AC8793890C99C
:100E3400E0E4F0A304F07F107E23021A1790C9A205
:100E4400E0FFA3E090C838CFF0A3EFF07B017AC8AD
:100E5400793890C9E0E4F0A304F07F107E23021AED
:100E64001790C760E06401600302342890C8B5E0BD
:100E7400FEA3E0FF90C9A2EEF0A3EFF04E700A903B
:100E8400C8B5F0A37408F0800E90C8B6E024FFF053
:100E940090C8B5E034FFF090C8B5E0FEA3E0FF7C55
:100EA400007D0A12ABA790C839E02FFF90C838E044
:100EB4003E90C9A4F0A3EFF090C9A4E0FEA3E0FF24
:100EC400D39450EE9400501DEF9400EE940040151E
:100ED4007B017AC879B590C9E0E4F0A304F07F00FF
:100EE4007E23021A1790C9A2E0FFA3E090C8B5CFF1
:100EF400F0A3EFF07B017AC879B590C9E0E4F0A3E0
:100F040004F07F007E23021A1790C80DE0FF90C8FA
:100F140012E06F600302117E90C760E06003020F6D
:100F2400E890C765E0FEA3E0FF90C9A2EEF0A3EF4E
:100F3400F064024E700890C765F0A3F0800E90C76D
:100F440066E024FFF090C765E034FFF090C767E0E7
:100F5400FEA3E0FF7C007D0A12ABA7AA06AB0790B4
:100F6400C765E0FEA3E0FF7D6412ABA7EF2BFFEEA5
:100F74003AFE90C76AE02FFF90C769E03E90C9A48B
:100F8400F0A3EFF090C9A4E0FEA3E0FFD39432EE07
:100F94009400502CEF9400EE9400402490C765E038
:100FA400FFA3E090C8ADCFF0A3EFF07B017AC7793F
:100FB4006590C9E0E4F0A304F07F007E25021A17CF
:100FC40090C9A2E0FFA3E090C765CFF0A3EFF07B48
:100FD400017AC7796590C9E0E4F0A304F07F007E4C
:100FE40025021A1790C760E0640160030210B690EE
:100FF400C767E0FEA3E0FF90C9A2EEF0A3EFF04EB6
:10100400700A90C767F0A37405F0800E90C768E07B
:1010140024FFF090C767E034FFF090C767E0FEA3B9
:10102400E0FF7C007D0A12ABA7AA06AB0790C76558
:10103400E0FEA3E0FF7D6412ABA7EF2BFFEE3AFEC8
:1010440090C76AE02FFF90C769E03E90C9A4F0A35F
:10105400EFF090C9A4E0FEA3E0FFD39432EE940035
:10106400502CEF9400EE9400402490C767E0FFA357
:10107400E090C863CFF0A3EFF07B017AC779679063
:10108400C9E0E4F0A304F07F107E25021A1790C98A
:10109400A2E0FFA3E090C767CFF0A3EFF07B017A53
:1010A400C7796790C9E0E4F0A304F07F107E2502BD
:1010B4001A1790C760E06402600302342890C7697D
:1010C400E0FEA3E0FF90C9A2EEF0A3EFF04E700A99
:1010D40090C769F0A37409F0800E90C76AE024FFFA
:1010E400F090C769E034FFF090C767E0FEA3E0FF2B
:1010F4007C007D0A12ABA7AA06AB0790C765E0FE89
:10110400A3E0FF7D6412ABA7EF2BFFEE3AFE90C77E
:1011140069E0FCA3E0FD2FFFEC3E90C9A4F0A3EF2F
:10112400F090C9A4E0FEA3E0FFD39432EE94005003
:1011340025EF9400EE9400401D90C850ECF0A3ED10
:10114400F07B017AC7796990C9E0E4F0A304F07FE9
:10115400207E25021A1790C9A2E0FFA3E090C76978
:10116400CFF0A3EFF07B017AC7796990C9E0E4F08E
:10117400A304F07F207E25021A1790C8F8E0FEA38E
:10118400E024B3F58274C83EF583E0FF90C812E012
:101194006F600302131390C760E0600302125F9054
:1011A400C871E0FEA3E0FF90C9A2EEF0A3EFF04EF9
:1011B400701D90C801E07002A3E090C8716008E45B
:1011C400F0A3743BF08016E4F0A3743CF0800E901E
:1011D400C872E024FFF090C871E034FFF090C87149
:1011E400E0FEA3E0FF7C007D3C12ABA790C802E0C8
:1011F4002FFF90C801E03E90C9A4F0A3EFF090C97E
:101204000EE0FEA3E0FF90C9A4E0FCA3E0FDD39FA1
:10121400EC9E502390C90CE0FEA3E0FFED9FEC9EF2
:1012240040157B017AC8797190C9E0E4F0A304F019
:101234007F707E23021A1790C9A2E0FFA3E090C832
:1012440071CFF0A3EFF07B017AC8797190C9E0E423
:10125400F0A304F07F707E23021A1790C760E06445
:1012640001600302342890C801E0FEA3E0FF90C9A6
:10127400A2EEF0A3EFF04E700A90C801F0A3743B05
:10128400F0800E90C802E024FFF090C801E034FF23
:10129400F090C871E0FEA3E0FF7C007D3C12ABA798
:1012A40090C802E02FFF90C801E03E90C9A4F0A3CB
:1012B400EFF090C90EE0FEA3E0FF90C9A4E0FCA308
:1012C400E0FDD39FEC9E502390C90CE0FEA3E0FF09
:1012D400ED9FEC9E40157B017AC8790190C9E0E44A
:1012E400F0A304F07F807E23021A1790C9A2E0FFC6
:1012F400A3E090C801CFF0A3EFF07B017AC8790195
:1013040090C9E0E4F0A304F07F807E23021A1790D2
:10131400C8F8E0FEA3E0248AF58274C83EF583E0B1
:10132400FF90C812E06F704290C760E0600302341F
:101334002890C93CE0FEA3E0FFD390C832E09F9020
:10134400C831E09E5003023428A3E024FFF090C883
:1013540031E034FFF07B017AC8793190C9E0E4F0E0
:10136400A304F07F007E24021A1790C809E0FF90BE
:10137400C812E06F600302342890C764E06401601F
:10138400030215EA90C760E0600302145290C89407
:10139400E0FEA3E0FF90C9A2EEF0A3EFF04E700AC6
:1013A40090C894F0A37409F0800E90C895E024FFCF
:1013B400F090C894E034FFF090C80EE0FEA3E0FF84
:1013C4007C007D0A12ABA7AA06AB0790C856E0FEC4
:1013D400A3E0FF7D6412ABA7EF2BFFEE3AFE90C8AB
:1013E40095E02FFF90C894E03E90C9A4F0A3EFF0DD
:1013F40090C909E0FEA3E0FF90C9A4E0FCA3E0FDCE
:10140400D39FEC9E502490C906E0FEA3E0FFC3EDF9
:101414009FEC9E40157B017AC8799490C9E0E4F072
:10142400A304F07F307E20021A1790C9A2E0FFA324
:10143400E090C894CFF0A3EFF07B017AC879949040
:10144400C9E0E4F0A304F07F307E20021A1790C7AD
:1014540060E06401600302151E90C80EE0FEA3E084
:10146400FF90C9A2EEF0A3EFF04E700A90C80EF000
:10147400A37409F0800E90C80FE024FFF090C80E0A
:10148400E034FFF090C80EE0FEA3E0FF7C007D0A8C
:1014940012ABA7AA06AB0790C856E0FEA3E0FF7DF7
:1014A4006412ABA7EF2BFFEE3AFE90C895E02FFF36
:1014B40090C894E03E90C9A4F0A3EFF090C909E06D
:1014C400FEA3E0FF90C9A4E0FCA3E0FDD39FEC9E43
:1014D400502490C906E0FEA3E0FFC3ED9FEC9E40BC
:1014E400157B017AC8790E90C9E0E4F0A304F07F7B
:1014F400107E20021A1790C9A2E0FFA3E090C80E44
:10150400CFF0A3EFF07B017AC8790E90C9E0E4F044
:10151400A304F07F107E20021A1790C760E06402D3
:10152400600302342890C856E0FEA3E0FF90C9A2ED
:10153400EEF0A3EFF04E700A90C856F0A37402F0D8
:10154400800E90C857E024FFF090C856E034FFF0B6
:1015540090C80EE0FEA3E0FF7C007D0A12ABA7AAB0
:1015640006AB0790C856E0FEA3E0FF7D6412ABA76C
:10157400EF2BFFEE3AFE90C895E02FFF90C894E061
:101584003E90C9A4F0A3EFF090C909E0FEA3E0FFE8
:1015940090C9A4E0FCA3E0FDD39FEC9E502490C925
:1015A40006E0FEA3E0FFC3ED9FEC9E40157B017AAD
:1015B400C8795690C9E0E4F0A304F07F007E2002CD
:1015C4001A1790C9A2E0FFA3E090C856CFF0A3EF8A
:1015D400F07B017AC8795690C9E0E4F0A304F07F67
:1015E400007E20021A1790C764E0B4023990C93C07
:1015F400E0FEA3E0FFD390C832E09F90C831E09EA4
:101604005003023428A3E024FFF090C831E034FFF3
:10161400F07B017AC8793190C9E0E4F0A304F07F4B
:10162400507E20021A1790C764E064036003021816
:101634009790C760E060030216FF90C87FE0FEA3A6
:10164400E0FF90C9A2EEF0A3EFF04E700A90C87FBD
:10165400F0A37409F0800E90C880E024FFF090C8D5
:101664007FE034FFF090C8C3E0FEA3E0FF7C007D80
:101674000A12ABA7AA06AB0790C829E0FEA3E0FFB5
:101684007D6412ABA7EF2BFFEE3AFE90C880E02FEB
:10169400FF90C87FE03E90C9A4F0A3EFF090C90387
:1016A400E0FEA3E0FF90C9A4E0FCA3E0FDD39FEC1F
:1016B4009E502490C8FEE0FEA3E0FFC3ED9FEC9E85
:1016C40040157B017AC8797F90C9E0E4F0A304F067
:1016D4007F807E20021A1790C9A2E0FFA3E090C881
:1016E4007FCFF0A3EFF07B017AC8797F90C9E0E463
:1016F400F0A304F07F807E20021A1790C760E06494
:101704000160030217CB90C8C3E0FEA3E0FF90C9B9
:10171400A2EEF0A3EFF04E700A90C8C3F0A37409D0
:10172400F0800E90C8C4E024FFF090C8C3E034FFFA
:10173400F090C8C3E0FEA3E0FF7C007D0A12ABA7D3
:10174400AA06AB0790C829E0FEA3E0FF7D6412ABB4
:10175400A7EF2BFFEE3AFE90C880E02FFF90C87FE2
:10176400E03E90C9A4F0A3EFF090C903E0FEA3E02B
:10177400FF90C9A4E0FCA3E0FDD39FEC9E5024900D
:10178400C8FEE0FEA3E0FFC3ED9FEC9E40157B0185
:101794007AC879C390C9E0E4F0A304F07F707E2096
:1017A400021A1790C9A2E0FFA3E090C8C3CFF0A328
:1017B400EFF07B017AC879C390C9E0E4F0A304F0A8
:1017C4007F707E20021A1790C760E06402600302F3
:1017D400342890C829E0FEA3E0FF90C9A2EEF0A34C
:1017E400EFF04E700A90C829F0A37402F0800E90B6
:1017F400C82AE024FFF090C829E034FFF090C8C361
:10180400E0FEA3E0FF7C007D0A12ABA7AA06AB07AB
:1018140090C829E0FEA3E0FF7D6412ABA7EF2BFF85
:10182400EE3AFE90C880E02FFF90C87FE03E90C95A
:10183400A4F0A3EFF090C903E0FEA3E0FF90C9A4D5
:10184400E0FCA3E0FDD39FEC9E502490C8FEE0FE94
:10185400A3E0FFC3ED9FEC9E40157B017AC8792974
:1018640090C9E0E4F0A304F07F607E20021A179090
:10187400C9A2E0FFA3E090C829CFF0A3EFF07B0159
:101884007AC8792990C9E0E4F0A304F07F607E204F
:10189400021A1790C764E06404600302342890C7F6
:1018A40060E0600302196790C871E0FEA3E0FF9056
:1018B400C9A2EEF0A3EFF04E701D90C801E07002D3
:1018C400A3E090C8716008E4F0A3743BF08016E4D0
:1018D400F0A3743CF0800E90C872E024FFF090C82E
:1018E40071E034FFF090C871E0FEA3E0FF7C007D5E
:1018F4003C12ABA790C802E02FFF90C801E03E90D5
:10190400C9A4F0A3EFF090C90EE0FEA3E0FF90C9D4
:10191400A4E0FCA3E0FDD39FEC9E502390C90CE00F
:10192400FEA3E0FFED9FEC9E40157B017AC8797120
:1019340090C9E0E4F0A304F07F107E21021A17900E
:10194400C9A2E0FFA3E090C871CFF0A3EFF07B0140
:101954007AC8797190C9E0E4F0A304F07F107E2185
:10196400021A1790C760E06401600302342890C82B
:1019740001E0FEA3E0FF90C9A2EEF0A3EFF04E70E9
:101984000A90C801F0A3743BF0800E90C802E024D2
:10199400FFF090C801E034FFF090C871E0FEA3E0CE
:1019A400FF7C007D3C12ABA790C802E02FFF90C8DB
:1019B40001E03E90C9A4F0A3EFF090C90EE0FEA3AD
:1019C400E0FF90C9A4E0FCA3E0FDD39FEC9E50226D
:1019D40090C90CE0FEA3E0FFED9FEC9E40147B0158
:1019E4007AC8790190C9E0E4F0A304F07F307E2145
:1019F400802190C9A2E0FFA3E090C801CFF0A3EF3B
:101A0400F07B017AC8790190C9E0E4F0A304F07F87
:101A1400307E2112C2E402342890C763E06401706E
:101A24002890C76BE07002A3E0600302342812E739
:101A34009D90C764E0B401057404F0800690C76407
:101A4400E014F012E0B502342890C8F8E0FEA3E0F8
:101A5400FF2490F58274C83EF583E0FD90C812E03F
:101A6400FCD39D4013749E2FF58274C83EF583E029
:101A7400FFECD39F5002807090C8F8E0FEA3E0FF13
:101A84002490F58274C83EF583E0FD90C812E0B559
:101A94000512749E2FF58274C83EF583E0FF90C84A
:101AA40012F0804C90C761E06401704990C858E01E
:101AB400FF90C812E0B5071290C8F8E0FEA3E02436
:101AC40027F58274C83EF583807590C8F8E0FEA3BC
:101AD400E02420F58274C83EF583E0FF90C812E04C
:101AE400B5070590C858805790C812E014F0E0FF7D
:101AF40012EE77807190C762E06401704990C8F873
:101B0400E0FEA3E02410F58274C83EF583E0FF9064
:101B1400C812E0B5070590C858802490C858E0FF63
:101B240090C812E0B5071290C8F8E0FEA3E0241EA6
:101B3400F58274C83EF583800690C812E014F0E084
:101B4400FF12F38B802090C8F8E0FEA3E0242DF56B
:101B54008274C83EF583E0FF90C812E0B507077FA2
:101B6400017E0012EFBC90C8F8E0FEA3E0241AF551
:101B74008274C83EF583E0FF90C812E0B5070E906A
:101B8400C9A0E0FEA3E0FF12928702342890C8F8AF
:101B9400E0FEA3E02481F58274C83EF583E0FF9063
:101BA400C812E0B5070E90C9A0E0FEA3E0FF12D171
:101BB4000A02342890C8F8E0FEA3E0248EF582746B
:101BC400C83EF583E0FF90C812E0B5070E90C9A0A7
:101BD400E0FEA3E0FF12CFED02342890C8F8E0FE47
:101BE400A3E0246DF58274C83EF583E0FF90C8122B
:101BF400E0B5070E90C9A0E0FEA3E0FF12DE730279
:101C0400342890C8F8E0FEA3E02436F58274C83E78
:101C1400F583E0FF90C812E0B5070E90C9A0E0FE7E
:101C2400A3E0FF12E1C702342890C8F8E0FEA3E065
:101C34002405F58274C83EF583E0FF90C812E0B530
:101C4400070E90C9A0E0FEA3E0FF12998102342898
:101C540090C8F8E0FEA3E0248CF58274C83EF583B6
:101C6400E0FF90C812E0B5070B90C9A0E0FEA3E026
:101C7400FF12CA9402342890C76BE07004A3E06496
:101C84000160030231B590C8F8E0FEA3E024BBF57F
:101C94008274C83EF583E0FF90C812E06F600302CF
:101CA4001EEE90C760E06003021D5C90C894E0FEE5
:101CB400A3E0FF90C9A2EEF0A3EFF064094E601018
:101CC40090C895E004F0700F90C894E004F0800789
:101CD400E490C894F0A3F090C80EE0FEA3E0FF7C6B
:101CE400007D0A12ABA7AA06AB0790C856E0FEA374
:101CF400E0FF7D6412ABA7EF2BFFEE3AFE90C89590
:101D0400E02FFF90C894E03E90C9A4F0A3EFF090B8
:101D1400C909E0FEA3E0FF90C9A4E0FCA3E0FDD361
:101D24009FEC9E501190C906E0FEA3E0FFC3ED9F17
:101D3400EC9E4002800F90C9A2E0FFA3E090C894FB
:101D4400CFF0A3EFF07B017AC8799490C9E0E4F076
:101D5400A304F07F700230D590C760E06401600393
:101D6400021E2590C80EE0FEA3E0FF90C9A2EEF08B
:101D7400A3EFF064094E601090C80FE004F0700FF8
:101D840090C80EE004F08007E490C80EF0A3F09031
:101D9400C80EE0FEA3E0FF7C007D0A12ABA7AA06F2
:101DA400AB0790C856E0FEA3E0FF7D6412ABA7EF3B
:101DB4002BFFEE3AFE90C895E02FFF90C894E03ECA
:101DC40090C9A4F0A3EFF090C909E0FEA3E0FF904E
:101DD400C9A4E0FCA3E0FDD39FEC9E502290C90669
:101DE400E0FEA3E0FFC3ED9FEC9E40137B017AC8A5
:101DF400790E90C9E0E4F0A304F07F600230D5903E
:101E0400C9A2E0FFA3E090C80ECFF0A3EFF07B01DE
:101E14007AC8790E90C9E0E4F0A304F07F60023040
:101E2400D590C760E06402600302342890C856E08D
:101E3400FEA3E0FF90C9A2EEF0A3EFF064024E60AF
:101E44001090C857E004F0700F90C856E004F0807A
:101E540007E490C856F0A3F090C80EE0FEA3E0FF9C
:101E64007C007D0A12ABA7AA06AB0790C856E0FE19
:101E7400A3E0FF7D6412ABA7EF2BFFEE3AFE90C800
:101E840095E02FFF90C894E03E90C9A4F0A3EFF032
:101E940090C909E0FEA3E0FF90C9A4E0FCA3E0FD23
:101EA400D39FEC9E502290C906E0FEA3E0FFC3ED51
:101EB4009FEC9E40137B017AC8795690C9E0E4F008
:101EC400A304F07F500230D590C9A2E0FFA3E090B4
:101ED400C856CFF0A3EFF07B017AC8795690C9E0D9
:101EE400E4F0A304F07F500230D590C8F8E0FEA3DC
:101EF400E024C5F58274C83EF583E0FF90C812E083
:101F04006F600302203690C760E06003021F929066
:101F1400C883E0FEA3E0FF90C9A2EEF0A3EFF06453
:101F2400094E601090C884E004F0700F90C883E0FC
:101F340004F08007E490C883F0A3F090C8C7E0FEE3
:101F4400A3E0FF7C007D0A12ABA790C884E02FFFBA
:101F540090C883E03E90C9A4F0A3EFF090C9A4E038
:101F6400FEA3E0FFD39450EE9400500AEF9400EEE9
:101F740094004002800F90C9A2E0FFA3E090C883C0
:101F8400CFF0A3EFF07B017AC879830220F590C7E4
:101F940060E06401600302342890C8C7E0FEA3E057
:101FA400FF90C9A2EEF0A3EFF064084E700890C849
:101FB400C7F0A3F0800E90C8C8E004F0700690C883
:101FC400C7E004F090C8C7E0FEA3E0FF7C007D0AF0
:101FD40012ABA790C884E02FFF90C883E03E90C95D
:101FE400A4F0A3EFF090C9A4E0FEA3E0FFD39450C3
:101FF400EE9400501BEF9400EE940040137B017AA2
:10200400C879C790C9E0E4F0A304F07F900230D50A
:1020140090C9A2E0FFA3E090C8C7CFF0A3EFF07B84
:10202400017AC879C790C9E0E4F0A304F07F900274
:1020340030D590C81DE0FF90C812E06F6003022203
:102044009090C760E0600302210290C765E0FEA3A0
:10205400E0FF90C9A2EEF0A3EFF064094E7008907F
:10206400C765F0A3F0800E90C766E004F070069098
:10207400C765E004F090C767E0FEA3E0FF7C007D45
:102084000A12ABA7AA06AB0790C765E0FEA3E0FF60
:102094007D6412ABA7EF2BFFEE3AFE90C76AE02FE8
:1020A400FF90C769E03E90C9A4F0A3EFF090C9A4E3
:1020B400E0FEA3E0FFD39432EE9400501FEF9400AF
:1020C400EE9400401790C765E0FFA3E090C8A7CF47
:1020D400F0A3EFF07B017AC77965801590C9A2E07F
:1020E400FFA3E090C765CFF0A3EFF07B017AC77937
:1020F4006590C9E0E4F0A304F07F0002250190C7D5
:1021040060E0640160030221CC90C767E0FEA3E0B5
:10211400FF90C9A2EEF0A3EFF064054E700890C7DB
:1021240067F0A3F0800E90C768E004F0700690C7D3
:1021340067E004F090C767E0FEA3E0FF7C007D0A3F
:1021440012ABA7AA06AB0790C765E0FEA3E0FF7D2C
:102154006412ABA7EF2BFFEE3AFE90C76AE02FFFA5
:1021640090C769E03E90C9A4F0A3EFF090C9A4E041
:10217400FEA3E0FFD39432EE9400502AEF9400EED5
:102184009400402290C767E0FFA3E090C85DCFF0C1
:10219400A3EFF07B017AC7796790C9E0E4F0A30468
:1021A400F07F1002250190C9A2E0FFA3E090C76769
:1021B400CFF0A3EFF07B017AC7796790C9E0E4F030
:1021C400A304F07F1002250190C760E0640260035D
:1021D40002342890C769E0FEA3E0FF90C9A2EEF0A4
:1021E400A3EFF064094E700890C769F0A3F0800E65
:1021F40090C76AE004F0700690C769E004F090C7E5
:1022040067E0FEA3E0FF7C007D0A12ABA7AA06AB41
:102214000790C765E0FEA3E0FF7D6412ABA7EF2B38
:10222400FFEE3AFE90C769E0FCA3E0FD2FFFEC3E11
:1022340090C9A4F0A3EFF090C9A4E0FEA3E0FFD3FB
:102244009432EE94005023EF9400EE9400401B90DF
:10225400C84AECF0A3EDF07B017AC7796990C9E034
:10226400E4F0A304F07F2002250190C9A2E0FFA3BB
:10227400E090C769CFF0A3EFF07B017AC77969904A
:10228400C9E0E4F0A304F07F2002250190C8F8E03F
:10229400FEA3E024A0F58274C83EF583E0FF90C855
:1022A40012E06F600302250690C760E0600302231A
:1022B4007390C87FE0FEA3E0FF90C9A2EEF0A3EF05
:1022C400F064094E601090C880E004F0700F90C86C
:1022D4007FE004F08007E490C87FF0A3F090C8C3C7
:1022E400E0FEA3E0FF7C007D0A12ABA7AA06AB07C1
:1022F40090C829E0FEA3E0FF7D6412ABA7EF2BFF9B
:10230400EE3AFE90C880E02FFF90C87FE03E90C96F
:10231400A4F0A3EFF090C903E0FEA3E0FF90C9A4EA
:10232400E0FCA3E0FDD39FEC9E502290C8FEE0FEAB
:10233400A3E0FFC3ED9FEC9E40137B017AC8797F35
:1023440090C9E0E4F0A304F07F8002250190C9A2C3
:10235400E0FFA3E090C87FCFF0A3EFF07B017AC841
:10236400797F90C9E0E4F0A304F07F800225019016
:10237400C760E06401600302243C90C8C3E0FEA38C
:10238400E0FF90C9A2EEF0A3EFF064094E60109054
:10239400C8C4E004F0700F90C8C3E004F08007E400
:1023A40090C8C3F0A3F090C8C3E0FEA3E0FF7C0094
:1023B4007D0A12ABA7AA06AB0790C829E0FEA3E0EA
:1023C400FF7D6412ABA7EF2BFFEE3AFE90C880E0CE
:1023D4002FFF90C87FE03E90C9A4F0A3EFF090C90E
:1023E40003E0FEA3E0FF90C9A4E0FCA3E0FDD39FBB
:1023F400EC9E502290C8FEE0FEA3E0FFC3ED9FECEC
:102404009E40137B017AC879C390C9E0E4F0A30429
:10241400F07F7002250190C9A2E0FFA3E090C8C339
:10242400CFF0A3EFF07B017AC879C390C9E0E4F060
:10243400A304F07F7002250190C760E0640260038A
:1024440002342890C829E0FEA3E0FF90C9A2EEF070
:10245400A3EFF064024E601090C82AE004F0700FFD
:1024640090C829E004F08007E490C829F0A3F09014
:10247400C8C3E0FEA3E0FF7C007D0A12ABA7AA0656
:10248400AB0790C829E0FEA3E0FF7D6412ABA7EF81
:102494002BFFEE3AFE90C880E02FFF90C87FE03E0D
:1024A40090C9A4F0A3EFF090C903E0FEA3E0FF906D
:1024B400C9A4E0FCA3E0FDD39FEC9E502190C8FE8C
:1024C400E0FEA3E0FFC3ED9FEC9E40127B017AC8BF
:1024D400792990C9E0E4F0A304F07F60801F90C9DB
:1024E400A2E0FFA3E090C829CFF0A3EFF07B017A2C
:1024F400C8792990C9E0E4F0A304F07F607E220249
:1025040031AF90C8F8E0FEA3E024B9F58274C83E68
:10251400F583E0FF90C812E06F600302267090C755
:1025240060E060030225C890C838E0FEA3E0FF9095
:10253400C9A2EEF0A3EFF064094E700890C838F019
:10254400A3F0800E90C839E004F0700690C838E01B
:1025540004F090C8B5E0FEA3E0FF7C007D0A12AB56
:10256400A790C839E02FFF90C838E03E90C9A4F086
:10257400A3EFF090C9A4E0FEA3E0FFD39450EE943F
:1025840000501DEF9400EE940040157B017AC87949
:102594003890C9E0E4F0A304F07F107E230231AF49
:1025A40090C9A2E0FFA3E090C838CFF0A3EFF07B7E
:1025B400017AC8793890C9E0E4F0A304F07F107E72
:1025C400230231AF90C760E06401600302342890B5
:1025D400C8B5E0FEA3E0FF90C9A2EEF0A3EFF0645B
:1025E400084E700890C8B5F0A3F0800E90C8B6E00D
:1025F40004F0700690C8B5E004F090C8B5E0FEA3FE
:10260400E0FF7C007D0A12ABA790C839E02FFF9051
:10261400C838E03E90C9A4F0A3EFF090C9A4E0FE4E
:10262400A3E0FFD39450EE9400501DEF9400EE9479
:102634000040157B017AC879B590C9E0E4F0A304A1
:10264400F07F007E230231AF90C9A2E0FFA3E090A7
:10265400C8B5CFF0A3EFF07B017AC879B590C9E093
:10266400E4F0A304F07F007E230231AF90C80DE0B4
:10267400FF90C812E06F60030228E190C760E06039
:102684000302274B90C765E0FEA3E0FF90C9A2EECA
:10269400F0A3EFF064094E700890C765F0A3F080D2
:1026A4000E90C766E004F0700690C765E004F090F1
:1026B400C767E0FEA3E0FF7C007D0A12ABA7AA0671
:1026C400AB0790C765E0FEA3E0FF7D6412ABA7EF04
:1026D4002BFFEE3AFE90C76AE02FFF90C769E03EF9
:1026E40090C9A4F0A3EFF090C9A4E0FEA3E0FFD347
:1026F4009432EE9400502CEF9400EE940040249019
:10270400C765E0FFA3E090C8ADCFF0A3EFF07B0175
:102714007AC7796590C9E0E4F0A304F07F007E25D0
:102724000231AF90C9A2E0FFA3E090C765CFF0A348
:10273400EFF07B017AC7796590C9E0E4F0A304F077
:102744007F007E250231AF90C760E0640160030220
:10275400281990C767E0FEA3E0FF90C9A2EEF0A39A
:10276400EFF064054E700890C767F0A3F0800E90F8
:10277400C768E004F0700690C767E004F090C7678C
:10278400E0FEA3E0FF7C007D0A12ABA7AA06AB071C
:1027940090C765E0FEA3E0FF7D6412ABA7EF2BFFBB
:1027A400EE3AFE90C76AE02FFF90C769E03E90C9F9
:1027B400A4F0A3EFF090C9A4E0FEA3E0FFD3943209
:1027C400EE9400502CEF9400EE9400402490C767E0
:1027D400E0FFA3E090C863CFF0A3EFF07B017AC7DA
:1027E400796790C9E0E4F0A304F07F107E250231FC
:1027F400AF90C9A2E0FFA3E090C767CFF0A3EFF0CA
:102804007B017AC7796790C9E0E4F0A304F07F10F4
:102814007E250231AF90C760E06402600302342871
:1028240090C769E0FEA3E0FF90C9A2EEF0A3EFF029
:1028340064094E700890C769F0A3F0800E90C76ACF
:10284400E004F0700690C769E004F090C767E0FE0A
:10285400A3E0FF7C007D0A12ABA7AA06AB0790C7D2
:1028640065E0FEA3E0FF7D6412ABA7EF2BFFEE3A19
:10287400FE90C769E0FCA3E0FD2FFFEC3E90C9A4E5
:10288400F0A3EFF090C9A4E0FEA3E0FFD39432EEEE
:1028940094005025EF9400EE9400401D90C850EC35
:1028A400F0A3EDF07B017AC7796990C9E0E4F0A365
:1028B40004F07F207E250231AF90C9A2E0FFA3E09F
:1028C40090C769CFF0A3EFF07B017AC7796990C90B
