:03000000029D80DE
:0800F800FFFF4457494E543547
:109D8000759401759502758E0075930075C8707590
:109D9000C96075F80075F90175A80075B800759A65
:109DA0000075A90075B90053D0E7787FE4F6D8FDB7
:109DB0009080007F007E80E4F0A3DFFCDEFA7581F6
:049DC0001B029DFFE6
:1085CA0090C7E9EEF0A3EFF0A3EBF0A3EAF0A3E97A
:0185DA00F0B0
:1085DB00E490C7F0F0A3F0A3F0A3F0A3F0A3F0A3F3
:1085EB00F0A3F090C7EEE0FAA3E0FB4A700302871A
:1085FB008990C7E9E0FEA3E0FFC3E49FFFE49EFE82
:10860B00E4FCFD90C7F8127A07AF03AE02E4FCFD61
:10861B0090C7F8E0F8A3E0F9A3E0FAA3E0FBC312DC
:10862B0079D0501190C7F8A3A3E0FFA3E090C7EE59
:10863B00CFF0A3EFF090C7E9E0FCA3E0FDECC31390
:10864B00FFED1390C7F0CFF0A3EFF0ED5401FFA3B4
:10865B00E4F0A3EFF0C2AFE4F5F190C7F0E0FCA3B8
:10866B00E0FDECF5F28DF375F40175F8AF30FCFD20
:10867B0090C7F2E07002A3E0603DD2FE20FEFD90B9
:10868B00C7EBE0FBA3E475F001127832A9F0FAE531
:10869B00FC12778190C7EBE0FBA3E475F001127835
:1086AB0032A9F0FAE5FD12778190C7EFE024FFF0D5
:1086BB0090C7EEE034FFF090C7EEE0FCA3E0FDECDA
:1086CB00C313FFED1390C7F4CFF0A3EFF0ED5401FC
:1086DB00FFA3E4F0A3EFF090C7F474FFF5F012786A
:1086EB003245F0605BD2FE20FEFD90C7EBE0FBA3B2
:1086FB00E475F001127832A9F0FAE5FA127781905D
:10870B00C7EBE0FBA3E475F001127832A9F0FAE5B0
:10871B00FB12778190C7EBE0FBA3E475F0011278B5
:10872B0032A9F0FAE5FC12778190C7EBE0FBA3E4EA
:10873B0075F001127832A9F0FAE5FD127781809776
:10874B0090C7F6E07002A3E0602FD2FE20FEFD90F2
:10875B00C7EBE0FBA3E475F001127832A9F0FAE560
:10876B00FA12778190C7EBE0FBA3E475F001127866
:0E877B0032A9F0FAE5FB127781E4F5F8D2AFEF
:0187890022CD
:108C830090C7EDEEF0A3EFF0A3EBF0A3EAF0A3E9B6
:018C9300F0F0
:108C9400E490C7F4F0A3F0A3F0A3F0A3F0A3F09042
:108CA400C7F2E07002A3E07003028E1590C7EDE0F6
:108CB400FEA3E0FFC3E49FFFE49EFED390C7F3E06E
:108CC4009F90C7F2E09E4005EEF0A3EFF090C7ED51
:108CD400E0FAA3E0FBEAC313FCEB13FDEB5401FF42
:108CE40090C7F4E4F0A3EFF0C2AFE4F5F1ECF5F2D1
:108CF400AF058FF375F40175F88330FCFD90C7F46C
:108D0400E07002A3E0603D90C7EFE0FBA3E475F0E0
:108D140001127832A9F0FA12773BF5FC90C7EFE024
:108D2400FBA3E475F001127832A9F0FA12773BF54F
:108D3400FDD2FE20FEFD90C7F3E024FFF090C7F2C1
:108D4400E034FFF090C7F2E0FCA3E0FDECC313FFB6
:108D5400ED1390C7F6CFF0A3EFF0ED5401FFA3E4B9
:108D6400F0A3EFF075F88F90C7F674FFF5F0127862
:108D74003245F0605B90C7EFE0FBA3E475F00112AD
:108D84007832A9F0FA12773BF5FA90C7EFE0FBA32B
:108D9400E475F001127832A9F0FA12773BF5FB90F2
:108DA400C7EFE0FBA3E475F001127832A9F0FA12E0
:108DB400773BF5FC90C7EFE0FBA3E475F001127874
:108DC40032A9F0FA12773BF5FDD2FE30FE9980FB12
:108DD40090C7F8E07002A3E0603275F88C90C7EF9A
:108DE400E0FBA3E475F001127832A9F0FA12773BA4
:108DF400F5FA90C7EFE0FBA3E475F001127832A90D
:108E0400F0FA12773BF5FBD2FE20FEFDE4F5F8D232
:018E1400AFAE
:018E1500223A
:1092B90090C916EEF0A3EFF0A3EBF0A3EAF0A3E94F
:0192C900F0B4
:1092CA00A3E0FEA3E0FF4E700302943290C916E0B9
:1092DA00FCA3E0FDC3E49DFDE49CFCD3EF9DEE9C62
:1092EA00400AAF0590C91BECF0A3EFF090C916E055
:1092FA00FCA3E0FDECC313FEED13FBAA06ED54013B
:10930A00FDC2AFE4F5F1EAF5F2AF038FF375F401AC
:10931A0075F88330FCFDED604FC390C91CE09402E0
:10932A0090C91BE09400500302942D90C918E0FBE9
:10933A00A3E475F001127832A9F0FA12773BF5FC32
:10934A0090C918E0FBA3E475F001127832A9F0FA8B
:10935A0012773BF5FDD2FE20FEFD90C91CE024FEEB
:10936A00F090C91BE034FFF090C91BE0FEA3E0783F
:10937A0002CEC313CE13D8F9FF75F88FEF1FAC06D0
:10938A0070011E4C605B90C918E0FBA3E475F00104
:10939A00127832A9F0FA12773BF5FA90C918E0FB75
:1093AA00A3E475F001127832A9F0FA12773BF5FBC3
:1093BA0090C918E0FBA3E475F001127832A9F0FA1B
:1093CA0012773BF5FC90C918E0FBA3E475F0011293
:1093DA007832A9F0FA12773BF5FDD2FE30FE9D8075
:1093EA00FB90C91CE030E1047F0180027F00EF603E
:1093FA003275F88C90C918E0FBA3E475F001127875
:10940A0032A9F0FA12773BF5FA90C918E0FBA3E407
:10941A0075F001127832A9F0FA12773BF5FBD2FE09
:08942A0020FEFDE4F5F8D2AFCD
:019432002217
:10B75C00EC90C94CF0EDA3F07B017AC9794C90C9FF
:0AB76C001BE4F0A37402F00292B98E
:10B80F00EF4E6010E4FD0DEDC3943240F9EF1F7061
:04B81F00EF1E80ECAC
:01B823002202
:08A6790090C924EEF0A3EFF0FC
:10A68100A3745AF0A37401F090C924E0FCA3E0FD87
:10A69100EC90C928F0A3EDF07B017AC9792690C727
:10A6A100F2E4F0A37402F07F847E00128C837FF4C5
:10A6B1007E0112B80F7B017AC9792690C7EEE4F0CA
:10A6C100A37402F07F147E001285CA90C924E0FEB3
:10A6D100A3E0FFA3E0B506D6A3E0B507D1E490C996
:10A6E10026F0A3F0A3F0A3F07B017AC9792690C7E5
:0DA6F100F2F0A37402F07F167E00028C834D
:08B01E0090C7CCEEF0A3EFF0A7
:10B02600E4A3F0A3F090C7CCE0FEA3E0FFC390C773
:10B03600CFE09F90C7CEE09E5025E4FBFA7F017ECD
:10B046000012B80F0BBB00010ABA01F1BB2CEE903F
:0FB05600C7CFE004F070CE90C7CEE004F080C604
:01B0650022C8
:10B06600EF14601814602314602E240370397401E1
:10B07600A805088002C333D8FC42B7227401A8058C
:10B08600088002C333D8FC42BC227401A80508809C
:10B0960002C333D8FC42BD22AF057401A80708805D
:08B0A60002C333D8FC42BE22B4
:10AF3E00EF1460191460251460312403703D740100
:10AF4E00A805088002C333D8FCF452B7227401A8B6
:10AF5E0005088002C333D8FCF452BC227401A80544
:10AF6E00088002C333D8FCF452BD22AF057401A889
:0CAF7E0007088002C333D8FCF452BE2246
:10A3A900EF14602D14604A1460672403600302A44B
:10A3B9003BEB600E7401A805088002C333D8FC4248
:10A3C90080227401A805088002C333D8FCF45280A6
:10A3D90022EB600E7401A805088002C333D8FC4241
:10A3E90090227401A805088002C333D8FCF4529066
:10A3F90022EB600E7401A805088002C333D8FC4221
:10A40900A0227401A805088002C333D8FCF452A025
:10A4190022EB600E7401A805088002C333D8FC4200
:10A42900B022AF057401A807088002C333D8FCF431
:03A4390052B022FC
:10AD0B00EF14601A1460271460342403704274012A
:10AD1B00A805088002C333D8FC5580FE803474012B
:10AD2B00A805088002C333D8FC5590FE802474011B
:10AD3B00A805088002C333D8FC55A0FE8014AF05CC
:10AD4B007401A807088002C333D8FC55B0FE8002FB
:04AD5B00E4FEAF065D
:01AD5F0022D1
:10B60B00758911E4F58CF58AC28CF518F51A438906
:0EB61B0001758CBC758ACDD2A9D2AFD28C221B
:03000B0002A7F158
:0DA7F100C0E0C0D075D000C000C006C00799
:10A7FE00C2AF758CBC758ACD0519751B0074017EB0
:10A80E0000A81B088005C333CE33CED8F9FFEF5511
:10A81E001A602DE51B25E02408F808E616187001CD
:10A82E0016E51B25E02408F8E6FE08E64E7011AF8B
:10A83E001B04A807088002C333D8FC4218F4521A2E
:09A84E00051BE51BB408B6D2AFEE
:0BA85700D007D006D000D0D0D0E032F7
:10B77600758911E4F58DF58BC28ED2AF43891075AC
:0AB786008DBC758BCDD2ABD28E22A4
:03001B0002B8AB7D
:0DB8AB00C2AF758DBC758BCDB290D2AF329F
:10B84E0075C8F075CD58E4F5CC75CB58F5CA43C81C
:04B85E0001D2AD2244
:03002B0002B8C454
:09B8C400C2AFC2C6B291D2AF328C
:10B5C800C2AF7401A807088002C333D8FCFE421A30
:10B5D800EF25E02408F8A60408A605EEF45218D2D0
:02B5E800AF2290
:10B82400C2AF7401A807088002C333D8FCF4521ACB
:05B834005218D2AF2202
:10B87600C2AF7401A807088002C333D8FC5518FF6D
:02B88600D2AF3F
:01B88800229D
:10AE0800AB07AA06A905A8047F007E387D317C001F
:10AE180012793EC3E49F90C7CBF074049E90C7CAD2
:10AE2800F043C9407D04E4FF12B0667D05E4FF12DB
:10AE3800AF3E43803075D88075985090C7CAE0FC03
:0DAE4800A3E0FDECF5BA8DAA43A810D2AC32
:01AE550022DA
:10AFD500AB07AA06A905A8047F007E707D627C00E8
:10AFE50012793EC3E49F90C7CBF074049E90C7CA04
:10AFF500F043C9207D06E4FF12B0667D07E4FF1229
:10B00500AF3E4380C0759B9090C7CAE0FCA3E0FDAE
:08B01500ECF5BB8D9D439A018F
:01B01D002210
:10B29200759680759780AB07AA06A905A8047F005A
:10B2A2007EC07D897C0112793EAD07AC06ECF5D9F2
:10B2B200AF058FE743B80CE4909812F0A3F0A3F027
:10B2C200A3F090981AF0909816F0A3F0A3F0A3F0D0
:01B2D2002259
:10B57D0075A78075AB80AB07AA06A905A8047F0047
:10B58D007EC07D897C0112793EAD07AC06ECF5AE2F
:07B59D00AF058FAF43B8308A
:01B5A4002284
:10ADB500EF14601B1460291460372403704490C796
:10ADC500C6E0FCA3E0FDA3E0FEA3E0FF02AE089011
:10ADD500C7C6E0FCA3E0FDA3E0FEA3E0FF02AFD5FC
:10ADE50090C7C6E0FCA3E0FDA3E0FEA3E0FF02B22E
:10ADF5009290C7C6E0FCA3E0FDA3E0FEA3E0FF122E
:03AE0500B57D22F6
:10878A0090C7C5EFF0A3ECF0A3EDF0A3EBF0A3EADA
:04879A00F0A3E9F06F
:10879E00C2AFE4A3F0A3F090C7C6E0FEA3E0FFC310
:1087AE0090C7CCE09F90C7CBE09E400302886290BA
:1087BE00C7C8E0FBA3E475F001127832A9F0FA12F3
:1087CE00773BFF90C7C5E0FE75F009A42400F58243
:1087DE00E5F03488F583EE75F008A42583F583E083
:1087EE00FCA3E0FD75F009EEA42400F582E5F0345B
:1087FE0080F583EE75F008A42583F583E5822DF5CB
:10880E0082E5833CF583EFF075F009EEA42400F5C4
:10881E0082E5F03488F583EE75F008A42583F583A0
:10882E00E475F00112781C75F009EEA42400F582AF
:10883E00E5F03488F583EE75F008A42583F583E022
:10884E005403F090C7CCE004F0700690C7CBE00460
:10885E00F00287A590C7C5E01460421460701470D2
:10886E000302890A2403600302893A908808E060B3
:10887E000302893A04F0908802E0FEA3E02400F59A
:10888E008274803EF583E0F599908803E004F070E1
:10889E0006908802E004F0908802028936909011CA
:1088AE00E0600302893A04F090900BE0FEA3E0240E
:1088BE0009F58274883EF583E0F59C90900CE004F7
:1088CE00F0700690900BE004F090900B805A909808
:1088DE001AE0705804F0909814E0FEA3E02412F50C
:1088EE008274903EF583E0F59E909815E004F0704A
:1088FE0006909814E004F0909814802C90A023E039
:10890E00702A04F090A01DE0FEA3E0241BF58274F3
:10891E00983EF583E0F5AC90A01EE004F070069052
:0E892E00A01DE004F090A01DE05403F0D2AFB5
:01893C002218
:0300230002A55DD6
:10A55D00C0E0C083C082C0D075D000C006C007C2A5
:10A56D00AF30982AC298908804E0FEA3E02400F54D
:10A57D008274843EF583E599F0908805E004F070CF
:10A58D0006908804E004F0908804E05403F03099BC
:10A59D003FC299908802E0FEA3E0FF908800E06E34
:10A5AD007003A3E06F602474002FF58274803EF574
:10A5BD0083E0F599908803E004F07006908802E03E
:10A5CD0004F0908802E05403F08005908808E4F0D0
:0FA5DD00D2AFD007D006D0D0D082D083D0E0321A
:0300530002AAE31B
:10AAE300C0E0C083C082C0D075D000C006C007C21A
:10AAF300AF5396FE909814E0FEA3E0FF909812E007
:10AB03006E7003A3E06F602474122FF58274903E7D
:10AB1300F583E0F59E909815E004F0700690981484
:10AB2300E004F0909814E05403F0800590981AE440
:10AB3300F0D2AFD007D006D0D0D082D083D0E032CD
:03005B0002B0AE42
:10B0AE00C0E0C083C082C0D075D000C006C2AF530E
:10B0BE0097FE909816E0FEA3E02412F58274943E5B
:10B0CE00F583E59FF0909817E004F07006909816BF
:10B0DE00E004F0909816E05403F0D2AFD006D0D032
:07B0EE00D082D083D0E032D4
:0300630002AB43AA
:10AB4300C0E0C083C082C0D075D000C006C007C2B9
:10AB5300AF53A7FE90A01DE0FEA3E0FF90A01BE073
:10AB63006E7003A3E06F6024741B2FF58274983E0C
:10AB7300F583E0F5AC90A01EE004F0700690A01DF4
:10AB8300E004F090A01DE05403F0800590A023E4BE
:10AB9300F0D2AFD007D006D0D0D082D083D0E0326D
:03006B0002B0F5EB
:10B0F500C0E0C083C082C0D075D000C006C2AF53C7
:10B10500ABFE90A01FE0FEA3E0241BF582749C3EDD
:10B11500F583E5ADF090A020E004F0700690A01F47
:10B12500E004F090A01FE05403F0D2AFD006D0D0D9
:07B13500D082D083D0E0328C
:0300830002A30EC7
:10A30E00C0E0C083C082C0D075D000C006C007C2F6
:10A31E00AFE59B30E02E759B90539BFE90900DE029
:10A32E00FEA3E02409F582748C3EF583E59CF09043
:10A33E00900EE004F0700690900DE004F090900DF9
:10A34E00E05403F0E59B30E143759B90539BFD90E9
:10A35E00900BE0FEA3E0FF909009E06E7003A3E087
:10A36E006F602474092FF58274883EF583E0F59CA6
:10A37E0090900CE004F0700690900BE004F090903A
:10A38E000BE05403F08005909011E4F0D2AFD007AB
:0BA39E00D006D0D0D082D083D0E032B7
:10B839007596807597807C00ECF5D975E7E0759E63
:04B849000D53B8F3F0
:01B84D0022D8
:0BB5A50090C7FDEBF0A3EAF0A3E9F073
:10B5B00090C8287401F0A374C8F0A37400F090C878
:07B5C00028E4F0A3F0A3F062
:01B5C7002261
:02B8DB0080FEED
:054F490042C94E00000A
:10A07900E490C7C0F0A3F0A3740AF0A3740DF0A391
:10A0890074EFF012B60B12B776128403E4FD7F0267
:10A0990012AF3E7D607CEAE4FF12B5C87DF47C0115
:10A0A9007F0112B5C812A77BD2AF90C6DEE0FF12BE
:10A0B900B3D3128AEF7D887C137F0712B5C87B0161
:10A0C9007AC779C190C7F2E4F0A304F07F007E82D9
:10A0D900128C831257E312B20D90C94EE07002A39D
:10A0E900E070187F0712B876EF601090C94EE4F05F
:10A0F900A304F090C6DEF0FF12B3D390C94EE0700E
:10A1090002A3E060D112B25012A9B0128E1690C704
:0BA11900BEEEF0A3EFF012010080BBCF
:104F4E0041C75B0042C6E2000041C6D10044C731F2
:104F5E000000000046C6C9000000000000604EC6FA
:104F6E007B000000010002000300040005000600A3
:104F7E000700080009000A000B000C000D000E00CF
:104F8E000F0010001100120013001400150016007F
:104F9E001700180019001A001B001C001D001E002F
:104FAE001F0020002100220023002400250026429D
:104FBE00C6F5000041C75E0042C6D4000042C6F2EC
:104FCE00000050C743000000000000000000000079
:104FDE00000000000050C71200000000000000009A
:104FEE00000000000000000050C6FF00000000009E
:104FFE00000000000000000000000042C763000037
:10500E0042C72D000042C6F0000042C760000042B9
:10501E00C72A000042C754000042C6FD000042C726
:10502E0028000042C6CF000042C6F7000041C7422A
:10503E000042C765000042C6D7000042C6E000002D
:10504E0041C6D20041C7380141C7390241C73C03AE
:10505E0041C73D0441C73E0541C73F0641C7400712
:10506E0041C6D60841C6E90941C6EF0A41C7260B1B
:10507E0041C6DD0C41C6E80D41C6FB0E41C7110FFE
:10508E0041C75A1041C7621141C6E71241C74113C9
:10509E0041C7591441C6DA1541C7531641C73517D2
:1050AE0041C6E61841C6DF1941C6D91A41C6F41BDE
:1050BE0041C6E51C41C72C1D41C7371E41C7251FE0
:1050CE0041C6E42041C7242141C75F2241C6FC23CB
:1050DE0041C7582441C6D32541C7362642C72F00A3
:1050EE000042C756E24042C6EA000041C7270041CF
:1050FE00C6EC0042C722000042C6F9000042C75C5F
:10510E00000042C6ED000041C6680041C66900417C
:10511E00C66A0041C66B0041C66C0041C66D0041B7
:10512E00C66E0042C66F000042C671000042C673D2
:0C513E00000042C675000042C677000069
:10A6FE0090C675F0A3F090C66AF090C6DBE0FEA39C
:10A70E00E0FF7C007D0A1277B5AA06AB0790C70F53
:10A71E00E0FEA3E0FF7D641277B5EF2BFFEE3AFE6D
:10A72E0090C73BE02FFF90C73AE03E90C7C9F0A319
:0EA73E00EFF07F0090C7C9E0FCA3E0FD7E8134
:10A74C0090C679EEF0A3EFF090C765ECF0A3EDF0B6
:10A75C0090C7427401F0FB7AC7796590C7F2E4F0B8
:0FA76C00A304F0128C837DBC7C027F0602B5C86B
:0CB8B800E490C742F090C6E0F0A3F0223C
:10A9B00090C742E060637F0612B876EF605B90C696
:10A9C00079E0FEA3E0FF7B017AC679D790C7EEE479
:10A9D000F0A304F01285CA90C6D7E0FEA3E0FF9072
:10A9E000C765E0FCA3E0FDB50707ECB5060302B8B8
:10A9F000B8C390C6E1E0940290C6E0E0940050191C
:10AA000090C679E0FEA3E0FF12A74C90C6E1E004F7
:0AAA1000F0700690C6E0E004F022AA
:06B8D500E490C6D1F02250
:1097000090C7E9ECF0A3EDF0EE600302981EEF24A1
:10971000FE606A14606B1470030297E32403600315
:1097200002981E90C7E9E0FEA3E0FFEE703DEF1443
:109730006019146026240270327F037E1012B6D5A1
:109740007F137E1012B6D57F33805C7F037E1012AC
:10975000B6D57F137E1012B6F0801E7F037E1012E6
:10976000B6F07F137E1012B6D5800E7F037E1012E6
:10977000B6D57F137E1012B6D57F3380627F5380BB
:109780002690C7E9E0FEA3E0FFEE7043EF14601BF4
:1097900014602A240270387F637E1012B6D57F735E
:1097A0007E1012B6D57F837E1080627F637E10129A
:1097B000B6D57F737E1012B6F07F8380227F637EE2
:1097C0001012B6F07F737E1012B6D57F8380107FA3
:1097D000637E1012B6D57F737E1012B6D57F837E5E
:1097E00010803890C7E9E0FEA3E0FFEE7022EF148E
:1097F000601004701B7F137E1112B6F07F337E1150
:1098000080197F137E1112B6D57F337E1102B6F018
:0F9810007F137E1112B6D57F337E1112B6D5228B
:0A7AC70090C6DEE0FF7E00E4FDFC47
:107AD10090C7E9ECF0A3EDF0EE6003027E41EF24E4
:107AE100F0B408004003027E41907AF875F003A4D7
:107AF100C58325F0C58373027B10027B8D027BF069
:107B0100027C6D027CEA027D4D027DC9027E1B90E2
:107B1100C7E9E07002A3E070177F537E1112B6BA75
:107B21007F637E1112B6BA7F737E1112B6F0804266
:107B310090C7E9E07004A3E0640170107F537E11E7
:107B410012B6BA7F637E1112B6F0801F90C7E9E0CA
:107B51007004A3E064027F537E11700512B6F080B9
:107B61000312B6BA7F637E1112B6BA7F737E111209
:107B7100B6BA90C7E9E07004A3E0640370047D0124
:107B81008002E4FDFC7F807E21027E3E90C7E9E019
:107B91007002A3E070107F937E1112B6BA7F037E4C
:107BA1001212B6F0802F90C7E9E07004A3E06401DF
:107BB10070097F937E1112B6F0801390C7E9E070CF
:107BC10004A3E06402700E7F937E1112B6BA7F03A4
:107BD1007E1212B6BA90C7E9E07004A3E0640270A5
:107BE100047D018002E4FDFC7F107E22027E3E9036
:107BF100C7E9E07002A3E070177F237E1212B6BAC4
:107C01007F837E9012B6BA7F937E9012B6F0804247
:107C110090C7E9E07004A3E0640170107F237E1235
:107C210012B6BA7F837E9012B6F0801F90C7E9E04A
:107C31007004A3E064027F237E12700512B6F08007
:107C41000312B6BA7F837E9012B6BA7F937E9012EA
:107C5100B6BA90C7E9E07004A3E0640370047D0143
:107C61008002E4FDFC7F307E39027E3E90C7E9E070
:107C71007002A3E070177F637E1212B6BA7F337E63
:107C81001212B6BA7F437E1212B6F0804290C7E953
:107C9100E07004A3E0640170107F637E1212B6BA33
:107CA1007F337E1212B6F0801F90C7E9E07004A303
:107CB100E064027F637E12700512B6F0800312B693
:107CC100BA7F337E1212B6BA7F437E1212B6BA90D1
:107CD100C7E9E07004A3E0640370047D018002E45D
:107CE100FDFC7F507E22027E3E90C7E9E07002A338
:107CF100E070107F037E1312B6BA7413FFFE12B642
:107D0100F0802F90C7E9E07004A3E0640170097F5F
:107D1100037E1312B6F0801390C7E9E07004A3E06C
:107D21006402700E7F037E1312B6BA7413FFFE1243
:107D3100B6BA90C7E9E07004A3E0640270047D0163
:107D41008002E4FDFC7F207E23027E3E90C7E9E0B5
:107D51007002A3E070177F337E1312B6BA7F437EA1
:107D61001312B6BA7F537E1312B6F0804290C7E960
:107D7100E07004A3E0640170107F337E1312B6BA81
:107D81007F437E1312B6F0801F90C7E9E07004A311
:107D9100E064027F337E13700512B6F0800312B6E1
:107DA100BA7F437E1312B6BA7F537E1312B6BA90CE
:107DB100C7E9E07004A3E0640370047D018002E47C
:107DC100FDFC7F607E23807590C7E9E07002A3E02F
:107DD10070097F737E1312B6F0801F90C7E9E070BF
:107DE10004A3E064017F737E13700C12B6BA7F8323
:107DF1007E1312B6F0800A12B6BA7F837E1312B6D2
:107E0100BA90C7E9E07004A3E0640270047D0180C8
:107E110002E4FDFC7F907E23802390C7E9E070049B
:107E2100A3E064017F037E14700912B6BA7D017C60
:107E310000800612B6F0E4FDFC7F107E2412B62EFF
:017E4100221E
:05B62900E4FDFC7F9030
:10B62E0090C7EBECF0A3EDF07B017AC779EB90C7F6
:09B63E00F2E4F0A304F0028C8395
:06B3CD00E0FF90C6DEF077
:10B3D30090C731745AF0A37401F0E4A3F0EF25E0B1
:10B3E300247BF582E434C6F583A3E090C734F07B75
:10B3F300017AC7793190C7F2E4F0A37402F07F8435
:05B403007E00028C83B5
:08B8CD0090C6DEEFF002B3D3D8
:109BE50090C83BE0B408004003029CB8909BF8F88D
:109BF500282873029C10029C31029C60029C73020F
:109C05009C86029C8B029CA5029CAD7F637E5012B4
:109C1500B6D57F937E5012B7C47F237E5112B7C449
:109C25007F537E5112B7C490C6E580777F937E51EE
:109C350012B6D57F137E5212B7C47F337E5212B748
:109C4500C47F537E5212B7C47F737E5212B7C47F4E
:109C5500937E5212B7C490C72C80487F437E53121F
:109C6500B6D57F837E5312B7C490C73780357F73CF
:109C75007E5312B6D57F837E5612B7C490C7258012
:109C85002290C75F801D7F537E5512B6D57F637EB8
:109C95005512B7C47F737E5512B7C490C6FC8003B6
:109CA50090C758E0FF02B8CD90C6D3E0FF12B8CDFB
:049CB5001200002277
:10AC5F007F037E1012B7C47F137E1012B7C47F33E9
:10AC6F007E1012B7C47F437E1012B7C47F537E107D
:10AC7F0012B7C47F637E1012B7C47F737E1012B7F2
:10AC8F00C47F837E1012B7C47F137E1112B7C47FA7
:10AC9F00337E1112B7C47F737E9212B7C4E4FDFCEA
:06ACAF00FF7E3002B62E0C
:07A5EC0090C66EE0FF7E0047
:10A5F30090C7E9EEF0A3EFF064014E70197F037E7C
:10A603001012B6D57F137E1012B6D57F337E10128B
:10A61300B6D57D01803C90C7E9E07004A3E06402F5
:10A62300700D7F437E1012B6D57F537E108043900A
:10A63300C7E9E07004A3E0640370207F637E101217
:10A64300B6D57F737E1012B6D57F837E1012B6D532
:10A653007D027C007F007E3002B62E90C7E9E07059
:10A6630004A3E06404700E7F137E1112B6D57F330A
:06A673007E1112B6D52293
:04AE5600AB07AA0696
:10AE5A007C007D3C1277C790C7C7EEF0A3EFF0AE37
:10AE6A0002AF037C007D3C1277C7A3ECF0A3EDF0A0
:10AE7A007B017AC779C790C7F2E4F0A304F07F1088
:10AE8A007E21128C837B017AC779C990C7F2E4F0DC
:0AAE9A00A304F07F307E21028C83B8
:08ACB50090C6EDE0FEA3E0FFF4
:04ACBD00AB07AA0631
:10ACC1007C007D3C1277C790C7E9EEF0A3EFF0AEB0
:10ACD10002AF037C007D3C1277C7A3ECF0A3EDF03B
:10ACE1007B017AC779E990C7F2E4F0A304F07F0011
:10ACF1007E31128C837B017AC779EB90C7F2E4F045
:0AAD0100A304F07F007E32028C8371
:10B2D30090C6EC7401F07F037E1112B6D57F137E06
:10B2E3001112B6D57F237E1112B6D57F337E11128C
:10B2F300B6D57B017AC679ED90C7EEE4F0A304F0EE
:10B303007F067E811285CA7DE87C037F0502B5C86E
:10B5EA00E490C6ECF07F037E1112B7C47F137E117C
:10B5FA0012B7C47F237E1112B7C47F337E1102B7FC
:01B60A00C47B
:10B2500090C6ECE070077F037E1102B7C47F051231
:10B26000B876EF602C90C6EEE024FFF090C6EDE0DB
:10B2700034FFF012ACB8D390C6EEE0940090C6ED67
:10B28000E09400500302B5EA7DE87C037F0512B527
:02B29000C822D2
:108AEF00E490C7C5F0A3F07B017AC679F790C7EE83
:108AFF00F0A304F07F047E811285CA7B017AC779C7
:108B0F00C590C7EEE4F0A304F07F007E811285CA02
:108B1F0090C7C5E0FAA3E0FB7C007D64FFAE0212B4
:108B2F0077C790C70FEEF0A3EFF07C007D0AAF037D
:108B3F00AE021277C77C007D0A1277C790C6DBECB6
:108B4F00F0A3EDF090C7C5E0FEA3E0FF7C007D0A27
:108B5F001277C790C73AECF0A3EDF07B017AC77993
:108B6F00C590C7EEE4F0A304F07F027E811285CAA0
:108B7F0090C7C5E0FAA3E0FB7C007D64FFAE021254
:108B8F0077C790C6F0EEF0A3EFF07C007D0AAF033D
:108B9F00AE021277C77C007D0A1277C790C760ECD0
:108BAF00F0A3EDF090C7C5E0FEA3E0FF7C007D0AC7
:108BBF001277C790C72AECF0A3EDF07B017AC67944
:108BCF00F990C7EEE4F0A304F07F067E811285CA08
:108BDF0090C6F9E0FEA3E0FF12AE567B017AC7798B
:108BEF00C590C7EEE4F0A304F07F087E811285CA1A
:108BFF0090C7C5E0FAA3E0FB7C007D0AFFAE02122E
:108C0F0077C77C007D0A1277C790C763ECF0A3ED9E
:108C1F00F07C007D0AAF03AE021277C790C72DEC30
:108C2F00F0A3EDF07B017AC779C590C7EEE4F0A30E
:108C3F0004F07F0A7E811285CA90C7C5E0FAA3E0CF
:108C4F00FB7C007D0AFFAE021277C77C007D0A1203
:108C5F0077C790C754ECF0A3EDF07C007D0AAF030B
:108C6F00AE021277C790C6FDECF0A3EDF07F737ED6
:048C7F009202B7C4E2
:0801000090C7C5EEF0A3EFF07B
:10010800E4A3F0A3F0A3F0A3F090C668E0600DE4C8
:10011800FF12B876EF6005E490C668F090C7C5E0B6
:10012800FEA3E0FF64014E6006EF64024E70099082
:10013800C668E06003023D1C7B017AC6797790C7E8
:10014800EEE4F0A304F07F0C7E801285CA90C67797
:10015800A3E0FF7C0030E0047D0180027D0090C7B1
:10016800CBECF0A3EDF0EF7E0030E1047F018002DC
:100178007F0090C7CDEEF0A3EFF090C677A3E0FF25
:100188007C0030E2047D0180027D0090C7DDECF048
:10019800A3EDF0EF7E0030E3047F0180027F009042
:1001A800C7DFEEF0A3EFF090C677A3E0FF7C003046
:1001B800E4047D0180027D0090C7E1ECF0A3EDF03E
:1001C800EF7E0030E7047F0180027F0090C7CFEE0A
:1001D800F0A3EFF090C677E0FEEE7C0030E4047DFB
:1001E8000180027D0090C7D1ECF0A3EDF0EE7E0017
:1001F80030E0047F0180027F0090C7D3EEF0A3EFC8
:10020800F090C677A3E0FF7C0030E5047D01800212
:100218007D0090C7D5ECF0A3EDF0EF7E0030E6044A
:100228007F0180027F0090C7D7EEF0A3EFF090C661
:1002380077E0FEEE7C0030E1047D0180027D0090D5
:10024800C7D9ECF0A3EDF0EE7E0030E2047F018028
:10025800027F0090C7DBEEF0A3EFF090C677E0FED8
:10026800EE7C0030E3047D0180027D0090C7E3EC62
:10027800F0A3EDF0EE7E0030E5047F0180027F0000
:1002880090C7E5EEF0A3EFF090C7D5E07004A3E0C7
:040298006401700B82
:09029C0090C7E774C0F0A374449C
:1002A500801D90C7D9E07004A3E0640190C7E77092
:0102B5000840
:0602B6007405F0A3741CA6
:0202BC008006BA
:1002BE0074CEF0A37459F07B017AC779E790C7F238
:0C02CE00E4F0A304F07F237E14128C8364
:0C02DA0090C7D7E07004A3E06401700B33
:0902E60090C7E774C0F0A3744452
:1002EF00801D90C7DBE07004A3E0640190C7E77046
:0102FF0008F6
:060300007405F0A3741C5B
:0203060080066F
:1003080074CEF0A37459F07B017AC779E790C7F2ED
:0C031800E4F0A304F07F337E14128C8309
:1003240090C7D3E07004A3E06401700F90C75EE04F
:10033400700912B2D390C75E7401F090C6DEE0B4C7
:10034400182990C6D4E07002A3E0701F7B017AC61E
:1003540079ED90C7EEF0A304F07F067E811285CA82
:1003640012ACB590C6D4E4F0A304F090C7CBE0700F
:1003740004A3E06401600302042C90C6F5E0700459
:10038400A3E06401600302042C90C6E6E0FF12B807
:10039400CD7B017AC779C990C7EEE4F0A304F07F5E
:1003A400067E811285CA90C7C9E0FAA3E0FB7C00EF
:1003B4007D3CFFAE021277C790C728EEF0A3EFF0A2
:1003C4007C007D3CAF03AE021277C790C6CFECF041
:1003D400A3EDF07B017AC7792890C7F2E4F0A30477
:1003E400F07F107E21128C837B017AC679CF90C76F
:1003F400F2E4F0A304F07F307E21128C83E490C6F3
:100404006DF090C669F0A3F090C675F0A3F090C6A5
:100414006EF090C6F5F0A3F090C75EF090C6D4F0ED
:10042400A3F012B5EA0204E590C7CFE07004A3E09C
:100434006401602690C7D7E07004A3E06401601AE9
:1004440090C7D5E07004A3E064017002800C90C7EB
:10045400D3E07004A3E06401703012AC5F90C6F581
:10046400E4F0A304F090C6DFE0FF12B8CDE490C638
:100474006DF090C669F0A3F090C675F0A3F090C635
:100484006EF090C6F2F0A3F0805790C7DBE07004E2
:10049400A3E06401600C90C7D9E07004A3E0640198
:1004A400703F12AC5F90C6D9E0FF12B8CD12B5EA26
:1004B40090C6EDE07004A3E06401700990C6EDF00D
:1004C400A3F012ACB5E490C66DF090C669F0A3F049
:1004D40090C675F0A3F090C66EF090C6F5F0A30434
:1004E400F090C7C5E0FEA3E0FFEE6003023D1CEF01
:1004F40024FE7003021ADC1470030232C214700367
:10050400023C9224036003023D1C90C675E0700413
:10051400A3E06401600302199490C75AE0FF90C6F7
:10052400DEE06F600302077190C66AE060030205B3
:10053400E190C73AE0FEA3E0FF90C7C7EEF0A3EF57
:10054400F04E700A90C73AF0A37409F0800E90C779
:100554003BE024FFF090C73AE034FFF090C6DBE0C4
:10056400FEA3E0FF7C007D0A1277B5AA06AB0790D4
:10057400C70FE0FEA3E0FF7D641277B5EF2BFFEE1B
:100584003AFE90C73BE02FFF90C73AE03E90C7C9C0
:10059400F0A3EFF090C84AE0FEA3E0FF90C7C9E0E3
:1005A400FCA3E0FDD39FEC9E501190C847E0FEA34E
:1005B400E0FFC3ED9FEC9E4002800F90C7C7E0FFB1
:1005C400A3E090C73ACFF0A3EFF07B017AC7793A62
:1005D40090C7F2E4F0A304F07F700218B590C66AE5
:1005E400E0640160030206A990C6DBE0FEA3E0FF1D
:1005F40090C7C7EEF0A3EFF04E700A90C6DBF0A3ED
:100604007409F0800E90C6DCE024FFF090C6DBE0B5
:1006140034FFF090C6DBE0FEA3E0FF7C007D0A120D
:1006240077B5AA06AB0790C70FE0FEA3E0FF7D6491
:100634001277B5EF2BFFEE3AFE90C73BE02FFF9009
:10064400C73AE03E90C7C9F0A3EFF090C84AE0FE75
:10065400A3E0FF90C7C9E0FCA3E0FDD39FEC9E504C
:100664002290C847E0FEA3E0FFC3ED9FEC9E401339
:100674007B017AC679DB90C7F2E4F0A304F07F60D3
:100684000218B590C7C7E0FFA3E090C6DBCFF0A384
:10069400EFF07B017AC679DB90C7F2E4F0A304F0B3
:1006A4007F600218B590C66AE0640260030232B348
:1006B40090C70FE0FEA3E0FF90C7C7EEF0A3EFF0F2
:1006C4004E700A90C70FF0A37402F0800E90C7100A
:1006D400E024FFF090C70FE034FFF090C6DBE0FEAB
:1006E400A3E0FF7C007D0A1277B5AA06AB0790C78A
:1006F4000FE0FEA3E0FF7D641277B5EF2BFFEE3A27
:10070400FE90C73BE02FFF90C73AE03E90C7C9F088
:10071400A3EFF090C84AE0FEA3E0FF90C7C9E0FC55
:10072400A3E0FDD39FEC9E502290C847E0FEA3E0D7
:10073400FFC3ED9FEC9E40137B017AC7790F90C7EE
:10074400F2E4F0A304F07F500218B590C7C7E0FFAD
:10075400A3E090C70FCFF0A3EFF07B017AC7790F26
:1007640090C7F2E4F0A304F07F500218B590C7627A
:10077400E0FF90C6DEE06F60030208BC90C66AE04A
:10078400600302081890C72DE0FEA3E0FF90C7C7DE
:10079400EEF0A3EFF04E700A90C72DF0A37409F0A9
:1007A400800E90C72EE024FFF090C72DE034FFF0B8
:1007B40090C763E0FEA3E0FF7C007D0A1277B5904A
:1007C400C72EE02FFF90C72DE03E90C7C9F0A3EFDE
:1007D400F090C7C9E0FEA3E0FFD39450EE9400501C
:1007E4001BEF9400EE940040137B017AC7792D909F
:1007F400C7F2E4F0A304F07F000218B590C7C7E085
:10080400FFA3E090C72DCFF0A3EFF07B017AC77967
:100814002D02097B90C66AE0640160030232B39042
:10082400C763E0FEA3E0FF90C7C7EEF0A3EFF04E6E
:10083400700A90C763F0A37408F0800E90C764E058
:1008440024FFF090C763E034FFF090C763E0FEA399
:10085400E0FF7C007D0A1277B590C72EE02FFF9051
:10086400C72DE03E90C7C9F0A3EFF090C7C9E0FEE2
:10087400A3E0FFD39450EE9400501BEF9400EE9449
:100884000040137B017AC7796390C7F2E4F0A304B4
:10089400F07F900218B590C7C7E0FFA3E090C7634C
:1008A400CFF0A3EFF07B017AC7796390C7F2E4F04D
:1008B400A304F07F900218B590C6E7E0FF90C6DE6F
:1008C400E06F6003020B1690C66AE06003020988B9
:1008D40090C66FE0FEA3E0FF90C7C7EEF0A3EFF071
:1008E4004E700A90C66FF0A37402F0800E90C6702A
:1008F400E024FFF090C66FE034FFF090C671E0FE94
:10090400A3E0FF7C007D0A1277B5AA06AB0790C668
:100914006FE0FEA3E0FF7D641277B5EF2BFFEE3AA4
:10092400FE90C674E02FFF90C673E03E90C7C9F0F6
:10093400A3EFF090C7C9E0FEA3E0FFD39432EE9496
:1009440000501FEF9400EE9400401790C66FE0FF34
:10095400A3E090C747CFF0A3EFF07B017AC6796F8D
:10096400801590C7C7E0FFA3E090C66FCFF0A3EF58
:10097400F07B017AC6796F90C7F2E4F0A304F07FAC
:100984000002126E90C66AE064016003020A52908B
:10099400C671E0FEA3E0FF90C7C7EEF0A3EFF04EF0
:1009A400700A90C671F0A37405F0800E90C672E0D0
:1009B40024FFF090C671E034FFF090C671E0FEA30E
:1009C400E0FF7C007D0A1277B5AA06AB0790C66FDC
:1009D400E0FEA3E0FF7D641277B5EF2BFFEE3AFE55
:1009E40090C674E02FFF90C673E03E90C7C9F0A391
:1009F400EFF090C7C9E0FEA3E0FFD39432EE940079
:100A0400502AEF9400EE9400402290C671E0FFA3B8
:100A1400E090C716CFF0A3EFF07B017AC67971900E
:100A2400C7F2E4F0A304F07F1002126E90C7C7E08F
:100A3400FFA3E090C671CFF0A3EFF07B017AC679F3
:100A44007190C7F2E4F0A304F07F1002126E90C616
:100A54006AE0640260030232B390C673E0FEA3E06E
:100A6400FF90C7C7EEF0A3EFF04E700A90C673F084
:100A7400A37409F0800E90C674E024FFF090C6734E
:100A8400E034FFF090C671E0FEA3E0FF7C007D0A35
:100A94001277B5AA06AB0790C66FE0FEA3E0FF7D10
:100AA400641277B5EF2BFFEE3AFE90C673E0FCA319
:100AB400E0FD2FFFEC3E90C7C9F0A3EFF090C7C94B
:100AC400E0FEA3E0FFD39432EE94005023EF9400B1
:100AD400EE9400401B90C703ECF0A3EDF07B017A89
:100AE400C6797390C7F2E4F0A304F07F2002126E7B
:100AF40090C7C7E0FFA3E090C673CFF0A3EFF07BED
:100B0400017AC6797390C7F2E4F0A304F07F20025F
:100B1400126E90C741E0FF90C6DEE06F6003020DE5
:100B24007B90C66AE06003020BEB90C72AE0FEA349
:100B3400E0FF90C7C7EEF0A3EFF04E700A90C72A0B
:100B4400F0A37409F0800E90C72BE024FFF090C747
:100B54002AE034FFF090C760E0FEA3E0FF7C007D54
:100B64000A1277B5AA06AB0790C6F0E0FEA3E0FF31
:100B74007D641277B5EF2BFFEE3AFE90C72BE02F82
:100B8400FF90C72AE03E90C7C9F0A3EFF090C84297
:100B9400E0FEA3E0FF90C7C9E0FCA3E0FDD39FEC17
:100BA4009E502290C83FE0FEA3E0FFC3ED9FEC9E61
:100BB40040137B017AC7792A90C7F2E4F0A304F0CA
:100BC4007F8002126E90C7C7E0FFA3E090C72ACFD0
:100BD400F0A3EFF07B017AC7792A90C7F2E4F0A37F
:100BE40004F07F8002126E90C66AE0640160030222
:100BF4000CB390C760E0FEA3E0FF90C7C7EEF0A37C
:100C0400EFF04E700A90C760F0A37409F0800E9064
:100C1400C761E024FFF090C760E034FFF090C76044
:100C2400E0FEA3E0FF7C007D0A1277B5AA06AB07BD
:100C340090C6F0E0FEA3E0FF7D641277B5EF2BFFD2
:100C4400EE3AFE90C72BE02FFF90C72AE03E90C7F4
:100C5400C9F0A3EFF090C842E0FEA3E0FF90C7C93B
:100C6400E0FCA3E0FDD39FEC9E502290C83FE0FE41
:100C7400A3E0FFC3ED9FEC9E40137B017AC779602C
:100C840090C7F2E4F0A304F07F7002126E90C7C71D
:100C9400E0FFA3E090C760CFF0A3EFF07B017AC739
:100CA400796090C7F2E4F0A304F07F7002126E90B2
:100CB400C66AE0640260030232B390C6F0E0FEA3A9
:100CC400E0FF90C7C7EEF0A3EFF04E700A90C6F0B5
:100CD400F0A37402F0800E90C6F1E024FFF090C6F9
:100CE400F0E034FFF090C760E0FEA3E0FF7C007DFD
:100CF4000A1277B5AA06AB0790C6F0E0FEA3E0FFA0
:100D04007D641277B5EF2BFFEE3AFE90C72BE02FF0
:100D1400FF90C72AE03E90C7C9F0A3EFF090C84205
:100D2400E0FEA3E0FF90C7C9E0FCA3E0FDD39FEC85
:100D34009E502290C83FE0FEA3E0FFC3ED9FEC9ECF
:100D440040137B017AC679F090C7F2E4F0A304F073
:100D54007F6002126E90C7C7E0FFA3E090C6F0CF99
:100D6400F0A3EFF07B017AC679F090C7F2E4F0A328
:100D740004F07F6002126E90C759E0FF90C6DEE077
:100D84006F6003020EBF90C66AE06003020E1B9000
:100D9400C6FDE0FEA3E0FF90C7C7EEF0A3EFF04E60
:100DA400700A90C6FDF0A37409F0800E90C6FEE0B0
:100DB40024FFF090C6FDE034FFF090C754E0FEA39A
:100DC400E0FF7C007D0A1277B590C6FEE02FFF900D
:100DD400C6FDE03E90C7C9F0A3EFF090C7C9E0FE9E
:100DE400A3E0FFD39450EE9400500AEF9400EE94E5
:100DF400004002800F90C7C7E0FFA3E090C6FDCF7C
:100E0400F0A3EFF07B017AC679FD90C7F2E4F0A37A
:100E140004F07F100211BA90C66AE0640160030214
:100E240032B390C754E0FEA3E0FF90C7C7EEF0A32F
:100E3400EFF04E700A90C754F0A37408F0800E903F
:100E4400C755E024FFF090C754E034FFF090C75436
:100E5400E0FEA3E0FF7C007D0A1277B590C6FEE0B9
:100E64002FFF90C6FDE03E90C7C9F0A3EFF090C7F6
:100E7400C9E0FEA3E0FFD39450EE9400501BEF941E
:100E840000EE940040137B017AC7795490C7F2E4D2
:100E9400F0A304F07F000211BA90C7C7E0FFA3E0FB
:100EA40090C754CFF0A3EFF07B017AC7795490C771
:100EB400F2E4F0A304F07F000211BA90C6DAE0FF76
:100EC40090C6DEE06F600302110F90C66AE0600313
:100ED400020F8090C66FE0FEA3E0FF90C7C7EEF05C
:100EE400A3EFF064024E700890C66FF0A3F0800E7A
:100EF40090C670E024FFF090C66FE034FFF090C617
:100F040071E0FEA3E0FF7C007D0A1277B5AA06AB70
:100F14000790C66FE0FEA3E0FF7D641277B5EF2B68
:100F2400FFEE3AFE90C674E02FFF90C673E03E9049
:100F3400C7C9F0A3EFF090C7C9E0FEA3E0FFD394C4
:100F440032EE94005014EF9400EE9400400C90C6DE
:100F54006FE0FFA3E090C74D800A90C7C7E0FFA3EE
:100F6400E090C66FCFF0A3EFF07B017AC6796F9063
:100F7400C7F2E4F0A304F07F0002110A90C66AE00D
:100F84006401600302104A90C671E0FEA3E0FF9082
:100F9400C7C7EEF0A3EFF04E700A90C671F0A374C9
:100FA40005F0800E90C672E024FFF090C671E03424
:100FB400FFF090C671E0FEA3E0FF7C007D0A12778B
:100FC400B5AA06AB0790C66FE0FEA3E0FF7D6412EE
:100FD40077B5EF2BFFEE3AFE90C674E02FFF90C674
:100FE40073E03E90C7C9F0A3EFF090C7C9E0FEA339
:100FF400E0FFD39432EE9400502AEF9400EE940074
:10100400402290C671E0FFA3E090C71CCFF0A3EF8D
:10101400F07B017AC6797190C7F2E4F0A304F07F03
:101024001002110A90C7C7E0FFA3E090C671CFF089
:10103400A3EFF07B017AC6797190C7F2E4F0A304C0
:10104400F07F1002110A90C66AE064026003023263
:10105400B390C673E0FEA3E0FF90C7C7EEF0A3EF22
:10106400F04E700A90C673F0A37409F0800E90C617
:1010740074E024FFF090C673E034FFF090C671E092
:10108400FEA3E0FF7C007D0A1277B5AA06AB0790A9
:10109400C66FE0FEA3E0FF7D641277B5EF2BFFEE91
:1010A4003AFE90C673E0FCA3E0FD2FFFEC3E90C730
:1010B400C9F0A3EFF090C7C9E0FEA3E0FFD39432D8
:1010C400EE94005022EF9400EE9400401A90C70969
:1010D400ECF0A3EDF07B017AC6797390C7F2E4F0EB
:1010E400A304F07F20801F90C7C7E0FFA3E090C651
:1010F40073CFF0A3EFF07B017AC6797390C7F2E463
:10110400F0A304F07F207E2502198E90C753E0FFE0
:1011140090C6DEE06F600302129790C66AE0600337
:101124000211E390C728E0FEA3E0FF90C7C7EEF0EA
:10113400A3EFF04E701D90C6CFE07002A3E090C7FD
:10114400286008E4F0A3743BF08016E4F0A3743C38
:10115400F0800E90C729E024FFF090C728E034FF08
:10116400F090C728E0FEA3E0FF7C007D3C1277B539
:1011740090C6D0E02FFF90C6CFE03E90C7C9F0A341
:10118400EFF090C850E0FEA3E0FF90C7C9E0FCA3D5
:10119400E0FDD39FEC9E502390C84EE0FEA3E0FFF9
:1011A400ED9FEC9E40157B017AC7792890C7F2E445
:1011B400F0A304F07F707E2302198E90C7C7E0FF6E
:1011C400A3E090C728CFF0A3EFF07B017AC779287A
:1011D40090C7F2E4F0A304F07F707E2302198E908E
:1011E400C66AE0640160030232B390C6CFE0FEA396
:1011F400E0FF90C7C7EEF0A3EFF04E700A90C6CFA1
:10120400F0A3743BF0800E90C6D0E024FFF090C6AB
:10121400CFE034FFF090C728E0FEA3E0FF7C007D20
:101224003C1277B590C6D0E02FFF90C6CFE03E9039
:10123400C7C9F0A3EFF090C850E0FEA3E0FF90C749
:10124400C9E0FCA3E0FDD39FEC9E502390C84EE080
:10125400FEA3E0FFED9FEC9E40157B017AC679CF9B
:1012640090C7F2E4F0A304F07F807E2202198E90EE
:10127400C7C7E0FFA3E090C6CFCFF0A3EFF07B0198
:101284007AC679CF90C7F2E4F0A304F07F807E227F
:1012940002198E90C735E0FF90C6DEE06F70429071
:1012A400C66AE060030232B390C854E0FEA3E0FFD4
:1012B400D390C6F8E09F90C6F7E09E50030232B385
:1012C400A3E024FFF090C6F7E034FFF07B017AC678
:1012D40079F790C7F2E4F0A304F07F007E240219AA
:1012E4008E90C6D6E0FF90C6DEE06F60030232B394
:1012F40090C66EE06401600302156190C66AE06006
:10130400030213C990C73AE0FEA3E0FF90C7C7EEFB
:10131400F0A3EFF04E700A90C73AF0A37409F0807E
:101324000E90C73BE024FFF090C73AE034FFF09002
:10133400C6DBE0FEA3E0FF7C007D0A1277B5AA06B7
:10134400AB0790C70FE0FEA3E0FF7D641277B5EF13
:101354002BFFEE3AFE90C73BE02FFF90C73AE03EEA
:1013640090C7C9F0A3EFF090C84AE0FEA3E0FF9055
:10137400C7C9E0FCA3E0FDD39FEC9E502490C8476E
:10138400E0FEA3E0FFC3ED9FEC9E40157B017AC70E
:10139400793A90C7F2E4F0A304F07F307E2002197A
:1013A4008E90C7C7E0FFA3E090C73ACFF0A3EFF059
:1013B4007B017AC7793A90C7F2E4F0A304F07F3056
:1013C4007E2002198E90C66AE064016003021495BF
:1013D40090C6DBE0FEA3E0FF90C7C7EEF0A3EFF0FA
:1013E4004E700A90C6DBF0A37409F0800E90C6DC40
:1013F400E024FFF090C6DBE034FFF090C6DBE0FEB3
:10140400A3E0FF7C007D0A1277B5AA06AB0790C75C
:101414000FE0FEA3E0FF7D641277B5EF2BFFEE3AF9
:10142400FE90C73BE02FFF90C73AE03E90C7C9F05B
:10143400A3EFF090C84AE0FEA3E0FF90C7C9E0FC28
:10144400A3E0FDD39FEC9E502490C847E0FEA3E0A8
:10145400FFC3ED9FEC9E40157B017AC679DB90C7F4
:10146400F2E4F0A304F07F107E2002198E90C7C727
:10147400E0FFA3E090C6DBCFF0A3EFF07B017AC6D8
:1014840079DB90C7F2E4F0A304F07F107E20021908
:101494008E90C66AE0640260030232B390C70FE024
:1014A400FEA3E0FF90C7C7EEF0A3EFF04E700A90E2
:1014B400C70FF0A37402F0800E90C710E024FFF071
:1014C40090C70FE034FFF090C6DBE0FEA3E0FF7CA2
:1014D400007D0A1277B5AA06AB0790C70FE0FEA3FA
:1014E400E0FF7D641277B5EF2BFFEE3AFE90C73B29
:1014F400E02FFF90C73AE03E90C7C9F0A3EFF09009
:10150400C84AE0FEA3E0FF90C7C9E0FCA3E0FDD316
:101514009FEC9E502490C847E0FEA3E0FFC3ED9FDC
:10152400EC9E40157B017AC7790F90C7F2E4F0A3D3
:1015340004F07F007E2002198E90C7C7E0FFA3E06D
:1015440090C70FCFF0A3EFF07B017AC7790F90C754
:10155400F2E4F0A304F07F007E2002198E90C66EA0
:10156400E0B4023990C854E0FEA3E0FFD390C6F87B
:10157400E09F90C6F7E09E50030232B3A3E024FF3D
:10158400F090C6F7E034FFF07B017AC679F790C794
:10159400F2E4F0A304F07F507E2002198E90C66E10
:1015A400E06403600302180E90C66AE0600302164A
:1015B4007690C72AE0FEA3E0FF90C7C7EEF0A3EF42
:1015C400F04E700A90C72AF0A37409F0800E90C7F9
:1015D4002BE024FFF090C72AE034FFF090C760E0CE
:1015E400FEA3E0FF7C007D0A1277B5AA06AB079044
:1015F400C6F0E0FEA3E0FF7D641277B5EF2BFFEEAB
:101604003AFE90C72BE02FFF90C72AE03E90C7C94F
:10161400F0A3EFF090C842E0FEA3E0FF90C7C9E05A
:10162400FCA3E0FDD39FEC9E502490C83FE0FEA3B2
:10163400E0FFC3ED9FEC9E40157B017AC7792A90A9
:10164400C7F2E4F0A304F07F807E2002198E90C7D5
:10165400C7E0FFA3E090C72ACFF0A3EFF07B017AA5
:10166400C7792A90C7F2E4F0A304F07F807E2002B9
:10167400198E90C66AE06401600302174290C76045
:10168400E0FEA3E0FF90C7C7EEF0A3EFF04E700AB0
:1016940090C760F0A37409F0800E90C761E024FF46
:1016A400F090C760E034FFF090C760E0FEA3E0FF75
:1016B4007C007D0A1277B5AA06AB0790C6F0E0FE5F
:1016C400A3E0FF7D641277B5EF2BFFEE3AFE90C7DF
:1016D4002BE02FFF90C72AE03E90C7C9F0A3EFF09C
:1016E40090C842E0FEA3E0FF90C7C9E0FCA3E0FD80
:1016F400D39FEC9E502490C83FE0FEA3E0FFC3EDCF
:101704009FEC9E40157B017AC7796090C7F2E4F0A4
:10171400A304F07F707E2002198E90C7C7E0FFA358
:10172400E090C760CFF0A3EFF07B017AC7796090B7
:10173400C7F2E4F0A304F07F707E2002198E90C6F5
:101744006AE0640260030232B390C6F0E0FEA3E0F4
:10175400FF90C7C7EEF0A3EFF04E700A90C6F0F00A
:10176400A37402F0800E90C6F1E024FFF090C6F05E
:10177400E034FFF090C760E0FEA3E0FF7C007D0A48
:101784001277B5AA06AB0790C6F0E0FEA3E0FF7D92
:10179400641277B5EF2BFFEE3AFE90C72BE02FFFD4
:1017A40090C72AE03E90C7C9F0A3EFF090C842E08A
:1017B400FEA3E0FF90C7C9E0FCA3E0FDD39FEC9E2D
:1017C400502490C83FE0FEA3E0FFC3ED9FEC9E4091
:1017D400157B017AC679F090C7F2E4F0A304F07F98
:1017E400607E2002198E90C7C7E0FFA3E090C6F088
:1017F400CFF0A3EFF07B017AC679F090C7F2E4F062
:10180400A304F07F607E2002198E90C66EE064040B
:1018140060030232B390C66AE060030218DE90C728
:1018240028E0FEA3E0FF90C7C7EEF0A3EFF04E70F0
:101834001D90C6CFE07002A3E090C7286008E4F0D2
:10184400A3743BF08016E4F0A3743CF0800E90C7C0
:1018540029E024FFF090C728E034FFF090C728E087
:10186400FEA3E0FF7C007D3C1277B590C6D0E02F4C
:10187400FF90C6CFE03E90C7C9F0A3EFF090C850E8
:10188400E0FEA3E0FF90C7C9E0FCA3E0FDD39FEC1A
:101894009E502390C84EE0FEA3E0FFED9FEC9E40D7
:1018A400157B017AC7792890C7F2E4F0A304F07F8E
:1018B400107E2102198E90C7C7E0FFA3E090C728CD
:1018C400CFF0A3EFF07B017AC7792890C7F2E4F058
:1018D400A304F07F107E2102198E90C66AE0640191
:1018E40060030232B390C6CFE0FEA3E0FF90C7C707
:1018F400EEF0A3EFF04E700A90C6CFF0A3743BF065
:10190400800E90C6D0E024FFF090C6CFE034FFF004
:1019140090C728E0FEA3E0FF7C007D3C1277B590E1
:10192400C6D0E02FFF90C6CFE03E90C7C9F0A3EF2A
:10193400F090C850E0FEA3E0FF90C7C9E0FCA3E02C
:10194400FDD39FEC9E502290C84EE0FEA3E0FFED35
:101954009FEC9E40147B017AC679CF90C7F2E4F0E5
:10196400A304F07F307E21802190C7C7E0FFA3E06D
:1019740090C6CFCFF0A3EFF07B017AC679CF90C7A2
:10198400F2E4F0A304F07F307E21128C830232B3A0
:1019940090C66DE06401702890C675E07002A3E003
:1019A40060030232B312AC5F90C66EE0B4010574FA
:1019B40004F0800690C66EE014F012A5EC0232B377
:1019C40090C6DEE0FFD394014008EFD394075002A1
:1019D400804490C738E0FF90C6DEE0B5070B90C79F
:1019E40040E0FF90C6DEF0803290C66BE064017088
:1019F4002F90C711E0FF90C6DEE0B5070590C7261B
:101A0400803A90C6E9E0FF90C6DEE0B5070590C7CE
:101A140011802990C6DEE014F0E0FF12B3D38036C3
:101A240090C66CE0B4011C90C6DDE0FFA3E0B507EE
:101A34000590C711800690C6DEE014F0E0FF12B8EE
:101A4400CD801390C6F4E0FF90C6DEE0B507077FB3
:101A5400017E0012B51890C6E5E0FF90C6DEE0B541
:101A6400070E90C7C5E0FEA3E0FF1271640232B313
:101A740090C72CE0FF90C6DEE0B5070E90C7C5E026
:101A8400FEA3E0FF12981F0232B390C737E0FF9025
:101A9400C6DEE0B5070E90C7C5E0FEA3E0FF12AEB8
:101AA400A40232B390C725E0FF90C6DEE0B5070E6E
:101AB40090C7C5E0FEA3E0FF12AEF10232B390C6B8
:101AC400FCE0FF90C6DEE0B5070B90C7C5E0FEA3BF
:101AD400E0FF129F010232B390C675E07004A3E0E8
:101AE40064016003022FBD90C75AE0FF90C6DEE098
:101AF4006F6003021D4290C66AE06003021BB0904F
:101B0400C73AE0FEA3E0FF90C7C7EEF0A3EFF0648E
:101B1400094E601090C73BE004F0700F90C73AE0A4
:101B240004F08007E490C73AF0A3F090C6DBE0FE2F
:101B3400A3E0FF7C007D0A1277B5AA06AB0790C725
:101B44000FE0FEA3E0FF7D641277B5EF2BFFEE3AC2
:101B5400FE90C73BE02FFF90C73AE03E90C7C9F024
:101B6400A3EFF090C84AE0FEA3E0FF90C7C9E0FCF1
:101B7400A3E0FDD39FEC9E501190C847E0FEA3E084
:101B8400FFC3ED9FEC9E4002800F90C7C7E0FFA308
:101B9400E090C73ACFF0A3EFF07B017AC7793A908F
:101BA400C7F2E4F0A304F07F70022EDF90C66AE06F
:101BB40064016003021C7990C6DBE0FEA3E0FF90A1
:101BC400C7C7EEF0A3EFF064094E601090C6DCE0E6
:101BD40004F0700F90C6DBE004F08007E490C6DBED
:101BE400F0A3F090C6DBE0FEA3E0FF7C007D0A12C8
:101BF40077B5AA06AB0790C70FE0FEA3E0FF7D64AC
:101C04001277B5EF2BFFEE3AFE90C73BE02FFF9023
:101C1400C73AE03E90C7C9F0A3EFF090C84AE0FE8F
:101C2400A3E0FF90C7C9E0FCA3E0FDD39FEC9E5066
:101C34002290C847E0FEA3E0FFC3ED9FEC9E401353
:101C44007B017AC679DB90C7F2E4F0A304F07F60ED
:101C5400022EDF90C7C7E0FFA3E090C6DBCFF0A35E
:101C6400EFF07B017AC679DB90C7F2E4F0A304F0CD
:101C74007F60022EDF90C66AE0640260030232B322
:101C840090C70FE0FEA3E0FF90C7C7EEF0A3EFF00C
:101C940064024E601090C710E004F0700F90C70FFC
:101CA400E004F08007E490C70FF0A3F090C6DBE0F7
:101CB400FEA3E0FF7C007D0A1277B5AA06AB07906D
:101CC400C70FE0FEA3E0FF7D641277B5EF2BFFEEB4
:101CD4003AFE90C73BE02FFF90C73AE03E90C7C959
:101CE400F0A3EFF090C84AE0FEA3E0FF90C7C9E07C
:101CF400FCA3E0FDD39FEC9E502290C847E0FEA3D6
:101D0400E0FFC3ED9FEC9E40137B017AC7790F90EF
:101D1400C7F2E4F0A304F07F50022EDF90C7C7E0BF
:101D2400FFA3E090C70FCFF0A3EFF07B017AC77950
:101D34000F90C7F2E4F0A304F07F50022EDF90C7A7
:101D440062E0FF90C6DEE06F6003021E7D90C66A0B
:101D5400E06003021DD990C72DE0FEA3E0FF90C709
:101D6400C7EEF0A3EFF064094E601090C72EE004B4
:101D7400F0700F90C72DE004F08007E490C72DF0B9
:101D8400A3F090C763E0FEA3E0FF7C007D0A127716
:101D9400B590C72EE02FFF90C72DE03E90C7C9F045
:101DA400A3EFF090C7C9E0FEA3E0FFD39450EE94F4
:101DB40000500AEF9400EE94004002800F90C7C7D1
:101DC400E0FFA3E090C72DCFF0A3EFF07B017AC72B
:101DD400792D021F3C90C66AE0640160030232B3AD
:101DE40090C763E0FEA3E0FF90C7C7EEF0A3EFF057
:101DF40064084E700890C763F0A3F0800E90C76427
:101E0400E004F0700690C763E004F090C763E0FE5E
:101E1400A3E0FF7C007D0A1277B590C72EE02FFF68
:101E240090C72DE03E90C7C9F0A3EFF090C7C9E07A
:101E3400FEA3E0FFD39450EE9400501BEF9400EE09
:101E4400940040137B017AC7796390C7F2E4F0A34E
:101E540004F07F90022EDF90C7C7E0FFA3E090C795
:101E640063CFF0A3EFF07B017AC7796390C7F2E404
:101E7400F0A304F07F90022EDF90C6E7E0FF90C647
:101E8400DEE06F60030220D790C66AE06003021FA1
:101E94004990C66FE0FEA3E0FF90C7C7EEF0A3EF42
:101EA400F064094E700890C66FF0A3F0800E90C6DF
:101EB40070E004F0700690C66FE004F090C671E024
:101EC400FEA3E0FF7C007D0A1277B5AA06AB07905B
:101ED400C66FE0FEA3E0FF7D641277B5EF2BFFEE43
:101EE4003AFE90C674E02FFF90C673E03E90C7C9D7
:101EF400F0A3EFF090C7C9E0FEA3E0FFD39432EE65
:101F04009400501FEF9400EE9400401790C66FE0C9
:101F1400FFA3E090C747CFF0A3EFF07B017AC67927
:101F24006F801590C7C7E0FFA3E090C66FCFF0A302
:101F3400EFF07B017AC6796F90C7F2E4F0A304F066
:101F44007F0002233B90C66AE06401600302201311
:101F540090C671E0FEA3E0FF90C7C7EEF0A3EFF0D8
:101F640064054E700890C671F0A3F0800E90C6729E
:101F7400E004F0700690C671E004F090C671E0FED3
:101F8400A3E0FF7C007D0A1277B5AA06AB0790C6D2
:101F94006FE0FEA3E0FF7D641277B5EF2BFFEE3A0E
:101FA400FE90C674E02FFF90C673E03E90C7C9F060
:101FB400A3EFF090C7C9E0FEA3E0FFD39432EE9400
:101FC40000502AEF9400EE9400402290C671E0FF86
:101FD400A3E090C716CFF0A3EFF07B017AC6797126
:101FE40090C7F2E4F0A304F07F1002233B90C7C72C
:101FF400E0FFA3E090C671CFF0A3EFF07B017AC6B7
:10200400797190C7F2E4F0A304F07F1002233B90AF
:10201400C66AE0640260030232B390C673E0FEA3B2
:10202400E0FF90C7C7EEF0A3EFF064094E7008908C
:10203400C673F0A3F0800E90C674E004F0700690AE
:10204400C673E004F090C671E0FEA3E0FF7C007D5F
:102054000A1277B5AA06AB0790C66FE0FEA3E0FFAD
:102064007D641277B5EF2BFFEE3AFE90C673E0FC69
:10207400A3E0FD2FFFEC3E90C7C9F0A3EFF090C79B
:10208400C9E0FEA3E0FFD39432EE94005023EF9412
:1020940000EE9400401B90C703ECF0A3EDF07B012D
:1020A4007AC6797390C7F2E4F0A304F07F20022388
:1020B4003B90C7C7E0FFA3E090C673CFF0A3EFF057
:1020C4007B017AC6797390C7F2E4F0A304F07F2011
:1020D40002233B90C741E0FF90C6DEE06F6003023D
:1020E400234090C66AE060030221AD90C72AE0FE57
:1020F400A3E0FF90C7C7EEF0A3EFF064094E6010B1
:1021040090C72BE004F0700F90C72AE004F080071A
:10211400E490C72AF0A3F090C760E0FEA3E0FF7C40
:10212400007D0A1277B5AA06AB0790C6F0E0FEA3BD
:10213400E0FF7D641277B5EF2BFFEE3AFE90C72BDC
:10214400E02FFF90C72AE03E90C7C9F0A3EFF090BC
:10215400C842E0FEA3E0FF90C7C9E0FCA3E0FDD3C2
:102164009FEC9E502290C83FE0FEA3E0FFC3ED9F8A
:10217400EC9E40137B017AC7792A90C7F2E4F0A35E
:1021840004F07F8002233B90C7C7E0FFA3E090C721
:102194002ACFF0A3EFF07B017AC7792A90C7F2E443
:1021A400F0A304F07F8002233B90C66AE0640160E0
:1021B4000302227690C760E0FEA3E0FF90C7C7EE5B
:1021C400F0A3EFF064094E601090C761E004F07072
:1021D4000F90C760E004F08007E490C760F0A3F0BC
:1021E40090C760E0FEA3E0FF7C007D0A1277B5AAE9
:1021F40006AB0790C6F0E0FEA3E0FF7D641277B55E
:10220400EF2BFFEE3AFE90C72BE02FFF90C72AE09A
:102214003E90C7C9F0A3EFF090C842E0FEA3E0FFF0
:1022240090C7C9E0FCA3E0FDD39FEC9E502290C868
:102234003FE0FEA3E0FFC3ED9FEC9E40137B017AD9
:10224400C7796090C7F2E4F0A304F07F7002233BE7
:1022540090C7C7E0FFA3E090C760CFF0A3EFF07B87
:10226400017AC7796090C7F2E4F0A304F07F7002AA
:10227400233B90C66AE0640260030232B390C6F066
:10228400E0FEA3E0FF90C7C7EEF0A3EFF064024EB8
:10229400601090C6F1E004F0700F90C6F0E004F016
:1022A4008007E490C6F0F0A3F090C760E0FEA3E0DE
:1022B400FF7C007D0A1277B5AA06AB0790C6F0E052
:1022C400FEA3E0FF7D641277B5EF2BFFEE3AFE909C
:1022D400C72BE02FFF90C72AE03E90C7C9F0A3EFB9
:1022E400F090C842E0FEA3E0FF90C7C9E0FCA3E081
:1022F400FDD39FEC9E502190C83FE0FEA3E0FFC3B6
:10230400ED9FEC9E40127B017AC679F090C7F2E40F
:10231400F0A304F07F60801F90C7C7E0FFA3E090A4
:10232400C6F0CFF0A3EFF07B017AC679F090C7F244
:10233400E4F0A304F07F607E220232B090C759E03B
:10234400FF90C6DEE06F600302249D90C66AE060E1
:10235400030223F590C6FDE0FEA3E0FF90C7C7EE9D
:10236400F0A3EFF064094E700890C6FDF0A3F0806E
:102374000E90C6FEE004F0700690C6FDE004F090F6
:10238400C754E0FEA3E0FF7C007D0A1277B590C637
:10239400FEE02FFF90C6FDE03E90C7C9F0A3EFF02A
:1023A40090C7C9E0FEA3E0FFD39450EE9400501D03
:1023B400EF9400EE940040157B017AC679FD90C736
:1023C400F2E4F0A304F07F107E230232B090C7C77A
:1023D400E0FFA3E090C6FDCFF0A3EFF07B017AC647
:1023E40079FD90C7F2E4F0A304F07F107E2302325B
:1023F400B090C66AE0640160030232B390C754E04F
:10240400FEA3E0FF90C7C7EEF0A3EFF064084E70A0
:102414000890C754F0A3F0800E90C755E004F07004
:102424000690C754E004F090C754E0FEA3E0FF7C9C
:10243400007D0A1277B590C6FEE02FFF90C6FDE03E
:102444003E90C7C9F0A3EFF090C7C9E0FEA3E0FF38
:10245400D39450EE9400501DEF9400EE9400401578
:102464007B017AC7795490C7F2E4F0A304F07F00AB
:102474007E230232B090C7C7E0FFA3E090C754CFD9
:10248400F0A3EFF07B017AC7795490C7F2E4F0A38C
:1024940004F07F007E230232B090C6DAE0FF90C6DB
:1024A400DEE06F600302270E90C66AE06003022537
:1024B4007890C66FE0FEA3E0FF90C7C7EEF0A3EFED
:1024C400F064094E700890C66FF0A3F0800E90C6B9
:1024D40070E004F0700690C66FE004F090C671E0FE
:1024E400FEA3E0FF7C007D0A1277B5AA06AB079035
:1024F400C66FE0FEA3E0FF7D641277B5EF2BFFEE1D
:102504003AFE90C674E02FFF90C673E03E90C7C9B0
:10251400F0A3EFF090C7C9E0FEA3E0FFD39432EE3E
:102524009400502CEF9400EE9400402490C66FE089
:10253400FFA3E090C74DCFF0A3EFF07B017AC679FB
:102544006F90C7F2E4F0A304F07F007E250232B05E
:1025540090C7C7E0FFA3E090C66FCFF0A3EFF07B76
:10256400017AC6796F90C7F2E4F0A304F07F007E8D
:10257400250232B090C66AE06401600302264690E8
:10258400C671E0FEA3E0FF90C7C7EEF0A3EFF064CE
:10259400054E700890C671F0A3F0800E90C672E0EC
:1025A40004F0700690C671E004F090C671E0FEA3DA
:1025B400E0FF7C007D0A1277B5AA06AB0790C66FD0
:1025C400E0FEA3E0FF7D641277B5EF2BFFEE3AFE49
:1025D40090C674E02FFF90C673E03E90C7C9F0A385
:1025E400EFF090C7C9E0FEA3E0FFD39432EE94006D
:1025F400502CEF9400EE9400402490C671E0FFA3A9
:10260400E090C71CCFF0A3EFF07B017AC6797190FC
:10261400C7F2E4F0A304F07F107E250232B090C725
:10262400C7E0FFA3E090C671CFF0A3EFF07B017A7F
:10263400C6797190C7F2E4F0A304F07F107E2502FE
:1026440032B090C66AE0640260030232B390C6738B
:10265400E0FEA3E0FF90C7C7EEF0A3EFF064094EDD
:10266400700890C673F0A3F0800E90C674E004F076
:10267400700690C673E004F090C671E0FEA3E0FF1C
:102684007C007D0A1277B5AA06AB0790C66FE0FE00
:10269400A3E0FF7D641277B5EF2BFFEE3AFE90C600
:1026A40073E0FCA3E0FD2FFFEC3E90C7C9F0A3EF5D
:1026B400F090C7C9E0FEA3E0FFD39432EE9400503B
:1026C40025EF9400EE9400401D90C709ECF0A3EDB3
:1026D400F07B017AC6797390C7F2E4F0A304F07F2B
:1026E400207E250232B090C7C7E0FFA3E090C673F6
:1026F400CFF0A3EFF07B017AC6797390C7F2E4F0D0
:10270400A304F07F207E250232B090C753E0FF90EF
:10271400C6DEE06F60030228AC90C66AE060030284
:1027240027F890C728E0FEA3E0FF90C7C7EEF0A308
:10273400EFF0643B4E701D90C6CFE07002A3E060E2
:1027440003E4801C90C729E004F0702A90C728E0B5
:1027540004F0802290C728E07004A3E0643C700871
:1027640090C728F0A3F0800E90C729E004F070060B
:1027740090C728E004F090C728E0FEA3E0FF7C00A7
:102784007D3C1277B590C6D0E02FFF90C6CFE03ED7
:1027940090C7C9F0A3EFF090C850E0FEA3E0FF900B
:1027A400C7C9E0FCA3E0FDD39FEC9E502390C84E24
:1027B400E0FEA3E0FFED9FEC9E40157B017AC77914
:1027C4002890C7F2E4F0A304F07F707E230232B0B5
:1027D40090C7C7E0FFA3E090C728CFF0A3EFF07B3A
:1027E400017AC7792890C7F2E4F0A304F07F707EE1
:1027F400230232B090C66AE0640160030232B390EF
:10280400C6CFE0FEA3E0FF90C7C7EEF0A3EFF064ED
:102814003B4E700890C6CFF0A3F0800E90C6D0E077
:1028240004F0700690C6CFE004F090C728E0FEA341
:10283400E0FF7C007D3C1277B590C6D0E02FFF907E
:10284400C6CFE03E90C7C9F0A3EFF090C850E0FEB9
:10285400A3E0FF90C7C9E0FCA3E0FDD39FEC9E502A
:102864002390C84EE0FEA3E0FFED9FEC9E40157B55
:10287400017AC679CF90C7F2E4F0A304F07F807E9A
:10288400230232B090C7C7E0FFA3E090C6CFCFF0D9
:10289400A3EFF07B017AC679CF90C7F2E4F0A304EA
:1028A400F07F807E230232B090C735E0FF90C6DE11
:1028B400E0B5073990C856E0FEA3E0FFC390C6F820
:1028C400E09F90C6F7E09E40030232B3A3E004F019
:1028D400700690C6F7E004F07B017AC679F790C7DA
:1028E400F2E4F0A304F07F007E240232B090C6D656
:1028F400E0FF90C6DEE06F60030232B390C66EE084
:1029040064016003022B7090C66AE060030229D65A
:1029140090C73AE0FEA3E0FF90C7C7EEF0A3EFF044
:1029240064094E601090C73BE004F0700F90C73A02
:10293400E004F08007E490C73AF0A3F090C6DBE02F
:10294400FEA3E0FF7C007D0A1277B5AA06AB0790D0
:10295400C70FE0FEA3E0FF7D641277B5EF2BFFEE17
:102964003AFE90C73BE02FFF90C73AE03E90C7C9BC
:10297400F0A3EFF090C84AE0FEA3E0FF90C7C9E0DF
:10298400FCA3E0FDD39FEC9E502490C847E0FEA337
:10299400E0FFC3ED9FEC9E40157B017AC7793A9026
:1029A400C7F2E4F0A304F07F307E200232B090C777
:1029B400C7E0FFA3E090C73ACFF0A3EFF07B017A22
:1029C400C7793A90C7F2E4F0A304F07F307E200286
:1029D40032B090C66AE064016003022AA390C6DBA9
:1029E400E0FEA3E0FF90C7C7EEF0A3EFF064094E4A
:1029F400601090C6DCE004F0700F90C6DBE004F0D9
:102A04008007E490C6DBF0A3F090C6DBE0FEA3E011
:102A1400FF7C007D0A1277B5AA06AB0790C70FE0CA
:102A2400FEA3E0FF7D641277B5EF2BFFEE3AFE9034
:102A3400C73BE02FFF90C73AE03E90C7C9F0A3EF31
:102A4400F090C84AE0FEA3E0FF90C7C9E0FCA3E011
:102A5400FDD39FEC9E502490C847E0FEA3E0FFC343
:102A6400ED9FEC9E40157B017AC679DB90C7F2E4BA
:102A7400F0A304F07F107E200232B090C7C7E0FFBD
:102A8400A3E090C6DBCFF0A3EFF07B017AC679DB3D
:102A940090C7F2E4F0A304F07F107E200232B090DD
:102AA400C66AE0640260030232B390C70FE0FEA37B
:102AB400E0FF90C7C7EEF0A3EFF064024E60109001
:102AC400C710E004F0700F90C70FE004F08007E433
:102AD40090C70FF0A3F090C6DBE0FEA3E0FF7C00FC
:102AE4007D0A1277B5AA06AB0790C70FE0FEA3E0F4
:102AF400FF7D641277B5EF2BFFEE3AFE90C73BE003
:102B04002FFF90C73AE03E90C7C9F0A3EFF090C8FA
:102B14004AE0FEA3E0FF90C7C9E0FCA3E0FDD39F19
:102B2400EC9E502490C847E0FEA3E0FFC3ED9FEC69
:102B34009E40157B017AC7790F90C7F2E4F0A30495
:102B4400F07F007E200232B090C7C7E0FFA3E09080
:102B5400C70FCFF0A3EFF07B017AC7790F90C7F2CC
:102B6400E4F0A304F07F007E200232B090C66EE051
:102B7400B4023A90C856E0FEA3E0FF90C6F7E06EB8
:102B84007003A3E06F70030232B390C6F8E004F060
:102B9400700690C6F7E004F07B017AC679F790C717
:102BA400F2E4F0A304F07F507E200232B090C66EAF
:102BB400E064036003022E2190C66AE06003022CE5
:102BC4008790C72AE0FEA3E0FF90C7C7EEF0A3EF0B
:102BD400F064094E601090C72BE004F0700F90C7AA
:102BE4002AE004F08007E490C72AF0A3F090C760BD
:102BF400E0FEA3E0FF7C007D0A1277B5AA06AB07CE
:102C040090C6F0E0FEA3E0FF7D641277B5EF2BFFE2
:102C1400EE3AFE90C72BE02FFF90C72AE03E90C704
:102C2400C9F0A3EFF090C842E0FEA3E0FF90C7C94B
:102C3400E0FCA3E0FDD39FEC9E502490C83FE0FE4F
:102C4400A3E0FFC3ED9FEC9E40157B017AC7792A70
:102C540090C7F2E4F0A304F07F807E200232B090AB
:102C6400C7C7E0FFA3E090C72ACFF0A3EFF07B0132
:102C74007AC7792A90C7F2E4F0A304F07F807E201B
:102C84000232B090C66AE064016003022D5490C71A
:102C940060E0FEA3E0FF90C7C7EEF0A3EFF0640985
:102CA4004E601090C761E004F0700F90C760E004BC
:102CB400F08007E490C760F0A3F090C760E0FEA343
:102CC400E0FF7C007D0A1277B5AA06AB0790C6F038
:102CD400E0FEA3E0FF7D641277B5EF2BFFEE3AFE32
:102CE40090C72BE02FFF90C72AE03E90C7C9F0A3FE
:102CF400EFF090C842E0FEA3E0FF90C7C9E0FCA358
:102D0400E0FDD39FEC9E502490C83FE0FEA3E0FF7B
:102D1400C3ED9FEC9E40157B017AC7796090C7F2A2
:102D2400E4F0A304F07F707E200232B090C7C7E0C5
:102D3400FFA3E090C760CFF0A3EFF07B017AC779DF
:102D44006090C7F2E4F0A304F07F707E200232B0FA
:102D540090C66AE0640260030232B390C6F0E0FEFB
:102D6400A3E0FF90C7C7EEF0A3EFF064024E60103B
:102D740090C6F1E004F0700F90C6F0E004F0800714
:102D8400E490C6F0F0A3F090C760E0FEA3E0FF7CFF
:102D9400007D0A1277B5AA06AB0790C6F0E0FEA341
:102DA400E0FF7D641277B5EF2BFFEE3AFE90C72B60
:102DB400E02FFF90C72AE03E90C7C9F0A3EFF09040
:102DC400C842E0FEA3E0FF90C7C9E0FCA3E0FDD346
:102DD4009FEC9E502490C83FE0FEA3E0FFC3ED9F0C
:102DE400EC9E40157B017AC679F090C7F2E4F0A31B
:102DF40004F07F607E200232B090C7C7E0FFA3E0FA
:102E040090C6F0CFF0A3EFF07B017AC679F090C7BB
:102E1400F2E4F0A304F07F607E200232B090C66E2C
:102E2400E0640460030232B390C66AE06003022FD8
:102E34000890C728E0FEA3E0FF90C7C7EEF0A3EF19
:102E4400F0643B4E701D90C6CFE07002A3E06003B7
:102E5400E4801C90C729E004F0702A90C728E0049D
:102E6400F0802290C728E07004A3E0643C700890CE
:102E7400C728F0A3F0800E90C729E004F0700690F4
:102E8400C728E004F090C728E0FEA3E0FF7C007DA3
:102E94003C1277B590C6D0E02FFF90C6CFE03E90AD
:102EA400C7C9F0A3EFF090C850E0FEA3E0FF90C7BD
:102EB400C9E0FCA3E0FDD39FEC9E502490C84EE0F3
:102EC400FEA3E0FFC3ED9FEC9E40157B017AC7791A
:102ED4002890C7F2E4F0A304F07F107E210232B000
:102EE40090C7C7E0FFA3E090C728CFF0A3EFF07B23
:102EF400017AC7792890C7F2E4F0A304F07F107E2A
:102F0400210232B090C66AE0640160030232B390D9
:102F1400C6CFE0FEA3E0FF90C7C7EEF0A3EFF064D6
:102F24003B4E700890C6CFF0A3F0800E90C6D0E060
:102F340004F0700690C6CFE004F090C728E0FEA32A
:102F4400E0FF7C007D3C1277B590C6D0E02FFF9067
:102F5400C6CFE03E90C7C9F0A3EFF090C850E0FEA2
:102F6400A3E0FF90C7C9E0FCA3E0FDD39FEC9E5013
:102F74002490C84EE0FEA3E0FFC3ED9FEC9E4015F5
:102F84007B017AC679CF90C7F2E4F0A304F07F30D6
:102F94007E210232B090C7C7E0FFA3E090C6CFCF36
:102FA400F0A3EFF07B017AC679CF90C7F2E4F0A3E7
:102FB40004F07F307E210232B090C66DE06401706F
:102FC4002A90C6D6E0FF90C6DEE06F60030232B3FB
:102FD40012AC5F90C66EE0B404057401F0800690F4
:102FE400C66EE004F012A5EC0232B390C740E0FFD5
:102FF40090C6DEE0FEC39F501490C738E0FFEEC3D6
:103004009F400A90C6DEE004F0E0FF801590C740C0
:10301400E0FF90C6DEE0B5070F90C738E0FF90C62A
:10302400DEF012B3D30232B390C66BE064017027B2
:1030340090C726E0FF90C6DEE0B50702802D90C75A
:1030440011E0FF90C6DEE0B5070590C6E980389030
:10305400C6DEE004F0803090C66CE064017030900D
:10306400C6FBE0FF90C6DEE0B5070590C7118017E8
:1030740090C711E0FF90C6DEE0B5070590C6DD807D
:103084000690C6DEE004F0E0FF12B8CD0232B39041
:10309400C6F4E0FF90C6DEE0B5070A7F027E0012A8
:1030A400B5180232B390C6E5E0FF90C6DEE0B5077E
:1030B4000E90C7C5E0FEA3E0FF1271640232B39024
:1030C400C72CE0FF90C6DEE0B5070E90C7C5E0FE52
:1030D400A3E0FF12981F0232B390C737E0FF90C6F7
:1030E400DEE0B5070E90C7C5E0FEA3E0FF12AEA474
:1030F4000232B390C725E0FF90C6DEE0B5070E901C
:10310400C7C5E0FEA3E0FF12AEF10232B390C75F81
:10311400E0FF90C6DEE0FE6F70030232B390C6FC9F
:10312400E0B5060E90C7C5E0FEA3E0FF129F0102C2
:1031340032B390C6D3E0FF90C6DEE06F6003023284
:10314400B390C84CE01460561470030231D9147063
:103154000302321014700302324614700302327CEC
:10316400240560030232B390C831E07004A3E06424
:1031740009700890C831F0A3F0800E90C832E004C2
:10318400F0700690C831E004F07B017AC879319080
:10319400C7F2E4F0A304F07F007E470232B090C887
:1031A40033E07004A3E06409700890C833F0A3F01E
:1031B400800E90C834E004F0700690C833E004F048
:1031C4007B017AC8793390C7F2E4F0A304F07F104E
:1031D4007E470232B090C835E07004A3E064097001
:1031E4000890C835F0A3F0800E90C836E004F07063
:1031F4000690C835E004F07B017AC8793590C7F2AF
:10320400E4F0A304F07F207E470232B090C837E098
:103214007004A3E06409700890C837F0A3F0800E2E
:1032240090C838E004F0700690C837E004F07B01E1
:103234007AC8793790C7F2E4F0A304F07F307E4770
:10324400806A90C839E07004A3E06409700890C8EB
:1032540039F0A3F0800E90C83AE004F0700690C8EC
:1032640039E004F07B017AC8793990C7F2E4F0A31D
:1032740004F07F407E47803490C83DE07004A3E0B2
:103284006409700890C83DF0A3F0800E90C83EE039
:1032940004F0700690C83DE004F07B017AC8793DE3
:1032A40090C7F2E4F0A304F07F507E47128C839021
:1032B400C6687401F07D1E7C00E4FF02B5C890C6A8
:1032C40075E07004A3E06401600302362E90C6D654
:1032D400E0FF90C6DEE06F600302345A90C66EE0F1
:1032E4006401702990C66AE004F0E06403700F1270
:1032F400A6FE90C66EE0FF7E007D6402345590C643
:103304006EE0FF7E0090C66AE0FD02345590C66E02
:10331400E0B40221E490C675F0A3F090C66AF09080
:10332400C6F7E0FCA3E0FD7F047E8112A74C7F5327
:103334007E1002B6D590C66EE06403706C90C66AC7
:10334400E004F0E06403705290C675F0A3F090C6F8
:103354006AF090C760E0FEA3E0FF7C007D0A12776C
:10336400B5AA06AB0790C6F0E0FEA3E0FF7D6412A9
:1033740077B5EF2BFFEE3AFE90C72BE02FFF90C7F7
:103384002AE03E90C7C9F0A3EFF07F0212A7429053
:10339400C66EE0FF7E007D64800C90C66EE0FF7E0A
:1033A4000090C66AE0FD02345590C66EE064046085
:1033B40003023D1C90C66AE004F0E064026003026C
:1033C400344990C675F0A3F090C66AF07B017AC7C1
:1033D400792890C7EEF0A304F07F107E211285CAED
:1033E4007B017AC679CF90C7EEE4F0A304F07F3076
:1033F4007E211285CA90C728E0FEA3E0FF7C007DF1
:103404003C1277B590C6D0E02FFF90C6CFE03E9037
:10341400C7C9F0A3EFF07B017AC679CF90C7F2E475
:10342400F0A304F07F307E21128C8390C7C9E0FCA6
:10343400A3E0FD7F067E8112A74C90C66EE0FF7E5E
:10344400007D64800C90C66EE0FF7E0090C66AE04A
:10345400FD7C00023C0790C66AE004F090C6DEE002
:10346400FF7E0090C66AE0FD7C00127AD190C75AB4
:10347400E0FF90C6DEE06F701190C66AE0640470ED
:103484000912A6FE90C6E9023BD490C762E0FF9001
:10349400C6DEE06F704890C66AE06403704090C670
:1034A40075F0A3F090C66AF090C763E0FEA3E0FF56
:1034B4007C007D0A1277B590C72EE02FFF90C72DB0
:1034C400E03E90C7C9F0A3EFF090C7C9E0FCA3E0C9
:1034D400FD7F087E8112A74C90C6EF023BD490C6B4
:1034E400E7E0FF90C6DEE06F705F90C66AE06404B8
:1034F400705790C675F0A3F090C66AF090C760E06C
:10350400FEA3E0FF7C007D0A1277B5AA06AB079004
:10351400C6F0E0FEA3E0FF7D641277B5EF2BFFEE6B
:103524003AFE90C72BE02FFF90C72AE03E90C7C910
:10353400F0A3EFF090C7C9E0FCA3E0FD7F027E8119
:1035440012A74C90C726023BD490C741E0FF90C617
:10355400DEE06F704890C66AE06403704090C67500
:10356400F0A3F090C66AF090C754E0FEA3E0FF7C9D
:10357400007D0A1277B590C6FEE02FFF90C6FDE0ED
:103584003E90C7C9F0A3EFF090C7C9E0FCA3E0FDEB
:103594007F0A7E8112A74C90C6DD023BD490C759A6
:1035A400E0FF90C6DEE06F704890C66AE064037086
:1035B4004090C675F0A3F090C66AF090C728E0FE6C
:1035C400A3E0FF7C007D3C1277B590C6D0E02FFFCE
:1035D40090C6CFE03E90C7C9F0A3EFF090C7C9E012
:1035E400FCA3E0FD7F067E8112A74C90C6E8023B57
:1035F400D490C6DAE0FF90C6DEE06F6003023D1CA3
:1036040090C66AE064026003023D1C90C675F0A394
:10361400F090C66AF090C6F7E0FCA3E0FD7F047E5C
:103624008112A74C90C6FB023BD490C738E0FF90B0
:10363400C6DEE06F60030238317B017AC779C99036
:10364400C7EEF0A304F07F007E811285CA90C7C93B
:10365400E0FAA3E0FB7C007D64FFAE021277C79022
:10366400C70FEEF0A3EFF07C007D0AAF03AE0212A9
:1036740077C77C007D0A1277C790C6DBECF0A3ED18
:10368400F090C7C9E0FEA3E0FF7C007D0A1277C773
:1036940090C73AECF0A3EDF07B017AC7790F90C79D
:1036A400F2E4F0A304F07F007E20128C837B017A85
:1036B400C679DB90C7F2E4F0A304F07F107E2012F9
:1036C4008C837B017AC7793A90C7F2E4F0A304F0C3
:1036D4007F307E20128C837B017AC779C990C7EE34
:1036E400E4F0A304F07F027E811285CA90C7C9E08A
:1036F400FAA3E0FB7C007D64FFAE021277C790C69C
:10370400F0EEF0A3EFF07C007D0AAF03AE02127777
:10371400C77C007D0A1277C790C760ECF0A3EDF078
:1037240090C7C9E0FEA3E0FF7C007D0A1277C79032
:10373400C72AECF0A3EDF07B017AC679F090C7F2CA
:10374400E4F0A304F07F607E20128C837B017AC7AF
:10375400796090C7F2E4F0A304F07F707E20128CAD
:10376400837B017AC7792A90C7F2E4F0A304F07F3F
:10377400807E20128C837B017AC779C990C7EEE4DE
:10378400F0A37402F07F067E811285CA90C7C9E057
:10379400FAA3E0FB7C007D3CFFAE021277C790C722
:1037A40028EEF0A3EFF07C007D3CAF03AE0212776D
:1037B400C790C6CFECF0A3EDF07B017AC7792890CF
:1037C400C7F2E4F0A37402F07F107E21128C837B95
:1037D400017AC679CF90C7F2E4F0A37402F07F2097
:1037E4007E21128C837B017AC679F790C7EEE4F0D0
:1037F400A37402F07F047E811285CA7B017AC679A4
:10380400F790C7F2E4F0A37402F07F507E20128C8C
:1038140083E490C7C9F0A3F090C66E04F012A5EF3C
:1038240090C6D612B3CD90C66D7401F02290C739FC
:10383400E0FF90C6DEE0B5071290C66B7401F0900D
:10384400C6E9E0FF90C6DEF002B3D390C73CE0FFC8
:1038540090C6DEE0B5070C90C66C7401F090C6DD2E
:10386400023BD490C73DE0FF90C6DEE06F600302E8
:10387400390990C675F0A304F0FB7AC779C990C7DB
:10388400EEE4F0A304F07F067E811285CA90C7C9D6
:10389400E0FAA3E0FB7C007D3CFFAE021277C79008
:1038A400C728EEF0A3EFF07C007D3CAF03AE02121C
:1038B40077C790C6CFECF0A3EDF07B017AC77928E7
:1038C40090C7F2E4F0A304F07F107E21128C837B76
:1038D400017AC679CF90C7F2E4F0A304F07F307E7A
:1038E40021128C8390C6DEE0FF12B3D37F737E1364
:1038F40012B6F07F837E1312B6BA7E2312B62990D5
:10390400C753023BD490C73EE0FF90C6DEE06F7021
:103914004790C675F0A304F0FB7AC679F790C7EE1A
:10392400E4F0A304F07F047E811285CA7B017AC689
:1039340079F790C7F2E4F0A304F07F207E29128C7B
:10394400837F037E1412B6F0E4FDFC7F107E241204
:10395400B62E90C735023BD490C73FE0FF90C6DE39
:10396400E06F6003023A1B90C7CBE07004A3E064ED
:1039740001700590C6E6802590C7CDE07004A3E0F1
:103984006401700590C6DF801490C7D1E07004A371
:10399400E06401700590C6D9800390C6E6E0FF128A
:1039A400B8CD90C75EE06003023D1C7B017AC77905
:1039B400C990C7EEF0A37402F07F067E811285CA17
:1039C40090C7C9E0FAA3E0FB7C007D3CFFAE021285
:1039D40077C790C728EEF0A3EFF07C007D3CAF03DF
:1039E400AE021277C790C6CFECF0A3EDF07B017A5C
:1039F400C7792890C7F2E4F0A304F07F107E211267
:103A04008C837B017AC679CF90C7F2E4F0A304F0EB
:103A14007F307E21028C8390C740E0FF90C6DEE0B9
:103A2400B5070990C6F412B3CD023D2190C6E9E072
:103A3400FF90C6DEE06F705890C675F0A304F0FBEB
:103A44007AC7790F90C7F2E4F0A304F07F507E2187
:103A5400128C837B017AC679DB90C7F2E4F0A3046D
:103A6400F07F607E21128C837B017AC7793A90C7FC
:103A7400F2E4F0A304F07F707E21128C83127AC7E3
:103A8400E4FDFC7F807E2112B62E90C75A023BD4FF
:103A940090C6EFE0FF90C6DEE06F704390C675F00D
:103AA400A304F0FB7AC7796390C7F2E4F0A304F0AF
:103AB4007F907E21128C837B017AC7792D90C7F287
:103AC400E4F0A304F07F007E22128C83127AC7E410
:103AD400FDFC7F107E2212B62E90C762023BD4906A
:103AE400C726E0FF90C6DEE0B5070690C6E7023BB6
:103AF400D490C6DDE0FFA3E06F705390C675F0A3C9
:103B040004F0FB7AC679F090C7F2E4F0A304F07FE6
:103B1400607E22128C837B017AC7796090C7F2E4BD
:103B2400F0A304F07F707E22128C837B017AC77924
:103B34002A90C7F2E4F0A304F07F807E22128C83E3
:103B4400127AC77E2212B62990C741023BD490C68E
:103B5400E8E0FF90C6DEE06F704290C675F0A30403
:103B6400F0FB7AC7795490C7F2E4F0A304F07F0025
:103B74007E23128C837B017AC679FD90C7F2E4F030
:103B8400A304F07F107E23128C83127AC7E4FDFC19
:103B94007F207E2312B62E90C759803490C6FBE056
:103BA400FF90C6DEE0B5070690C6DA023C7690C701
:103BB40011E0FF90C6DEE0B5071990C66BE0B401D2
:103BC40007E4F090C7398008E490C66CF090C73CD5
:103BD400023C7690C6E6E0FF90C6DEE0B5070690AC
:103BE400C73F023C7690C6D6E0FF90C6DEE0B5073C
:103BF4001590C675E4F0A304F090C66EE0FF7E0055
:103C0400E4FDFC02970090C6F4E0FF90C6DEE0B548
:103C14000703029BE590C6E5E0FF90C6DEE0B5072A
:103C24000302992A90C737E0FF90C6DEE0B5070B80
:103C340090C7C5E0FEA3E0FF02AEA490C75FE0FF1B
:103C440090C6DEE0B5070590C740802690C6FCE02C
:103C5400FF90C6DEE0B5070B90C7C5E0FEA3E0FF0A
:103C6400029F0190C758E0FF90C6DEE0B5070890B8
:103C7400C740E0FF02B8CD90C6D3E0FF90C6DEE0B7
:103C84006F6003023D1C90C675F0A304F02290C639
:103C9400E5E0FF90C6DEE0FE6F603F90C72CE0FFDA
:103CA400EE6F603690C737E0FFEE6F602D90C7254A
:103CB400E0FFEE6F602490C75FE0FFEE6F601B9043
:103CC400C6FCE0FFEE6F601290C758E0FFEE6F6035
:103CD4000990C6D3E0FFEEB5070A90C6F4E0FF12E0
:103CE400B8CD802F90C6D6E0FF90C6DEE0B507239E
:103CF40090C675E07002A3E0701990C66DF090C68E
:103D040075F0A3F090C66EF090C738E0FF12B8CDFE
:083D140012AC5FE490C727F038
:013D1C002284
:10514A0041C4FC0041C4FF0042C4FD000047C4F54D
:07515A0018091203091E00F1
:10B390007B017AC479F590C7F2E4F0A37404F07FDE
:10B3A000107E00128C8390C89C7410F0A3E4F0A36C
:10B3B000F0A3F0FFFEFDFC12A1C97B017AC5790064
:0DB3C000E490C7EEF0A3F0FF7E100285CAF6
:109135007F007E2012000090C4FCEFF090C4FFE099
:109145006F70030292B890C4FCE090C4FFF0700306
:109155000292B890C4FEE004F0700690C4FDE004ED
:10916500F090C4FDE07004A3E0641E700690C4FD99
:10917500F0A3F07B017AC879C090C7EEE4F0A37440
:1091850004F07F107E001285CA90C4FDE0FEA3E0C6
:10919500FF90C50075F00C127A44EE75F00CA4250D
:1091A50083F583E4F0A3745AF090C4FDE0FCA3E0DA
:1091B500FD90C4FDE0FAA3E0FB90C50275F00CEF4D
:1091C500127A44EE75F00CA42583F583ECF0A3ED3B
:1091D500F090C8C0E0FF90C50475F00CEB127A441E
:1091E500EA75F00CA42583F583EFF090C8C1E0FF84
:1091F50090C50575F00CEB127A44EA75F00CA425C0
:1092050083F583EFF090C8C2E0FF90C50675F00CBA
:10921500EB127A44EA75F00CA42583F583EFF09000
:10922500C8C4E0FF90C50775F00CEB127A44EA75E7
:10923500F00CA42583F583EFF090C8C5E0FF90C539
:109245000875F00CEB127A44EA75F00CA42583F549
:1092550083EFF090C8C6E0FF90C50975F00CEB12DE
:109265007A44EA75F00CA42583F583EFF090C4FCED
:10927500E0FF90C50A75F00CEB127A44EA75F00C24
:10928500A42583F583E4F0A3EFF07B017AC579008B
:1092950090C8D17408F0A3E4F0FFFEFDFC12B18381
:1092A5007B017AC57900E490C7F2F0A3F0FF7E1048
:0392B500128C8395
:0192B8002293
