:0300000002C6C96C
:0800F800FFFF4457494E543547
:10C6C900759401759502758E0075930075C870751E
:10C6D900C96075F80075F90175A80075B800759AF3
:10C6E9000075A90075B90053D0E7787FE4F6D8FD45
:10C6F9009080007F007E80E4F0A3DFFCDEFA758184
:04C709001B02C74800
:10AE030090C8C3EEF0A3EFF0A3EBF0A3EAF0A3E93D
:01AE1300F04E
:10AE1400E490C8CAF0A3F0A3F0A3F0A3F0A3F0A3B6
:10AE2400F0A3F090C8C8E0FAA3E0FB4A700302AFB5
:10AE3400C290C8C3E0FEA3E0FFC3E49FFFE49EFE0C
:10AE4400E4FCFD90C8D2129EB9AF03AE02E4FCFD4F
:10AE540090C8D2E0F8A3E0F9A3E0FAA3E0FBC312A0
:10AE64009E82501190C8D2A3A3E0FFA3E090C8C86B
:10AE7400CFF0A3EFF090C8C3E0FCA3E0FDECC31354
:10AE8400FFED1390C8CACFF0A3EFF0ED5401FFA378
:10AE9400E4F0A3EFF0C2AFE4F5F190C8CAE0FCA37C
:10AEA400E0FDECF5F28DF375F40175F8AF30FCFDBF
:10AEB40090C8CCE07002A3E0603DD2FE20FEFD907D
:10AEC400C8C5E0FBA3E475F001129C95A9F0FAE56E
:10AED400FC129BE490C8C5E0FBA3E475F001129C4E
:10AEE40095A9F0FAE5FD129BE490C8C9E024FFF0AF
:10AEF40090C8C8E034FFF090C8C8E0FCA3E0FDECC3
:10AF0400C313FFED1390C8CECFF0A3EFF0ED5401BF
:10AF1400FFA3E4F0A3EFF090C8CE74FFF5F0129C09
:10AF24009545F0605BD2FE20FEFD90C8C5E0FBA312
:10AF3400E475F001129C95A9F0FAE5FA129BE490ED
:10AF4400C8C5E0FBA3E475F001129C95A9F0FAE5ED
:10AF5400FB129BE490C8C5E0FBA3E475F001129CCE
:10AF640095A9F0FAE5FC129BE490C8C5E0FBA3E4C4
:10AF740075F001129C95A9F0FAE5FD129BE4809707
:10AF840090C8D0E07002A3E0602FD2FE20FEFD90B6
:10AF9400C8C5E0FBA3E475F001129C95A9F0FAE59D
:10AFA400FA129BE490C8C5E0FBA3E475F001129C7F
:0EAFB40095A9F0FAE5FB129BE4E4F5F8D2AFA4
:01AFC200226C
:10B3280090C8C7EEF0A3EFF0A3EBF0A3EAF0A3E90F
:01B33800F024
:10B33900E490C8CEF0A3F0A3F0A3F0A3F0A3F0909B
:10B34900C8CCE07002A3E0700302B4BA90C8C7E0A9
:10B35900FEA3E0FFC3E49FFFE49EFED390C8CDE0C7
:10B369009F90C8CCE09E4005EEF0A3EFF090C8C7CF
:10B37900E0FAA3E0FBEAC313FCEB13FDEB5401FF76
:10B3890090C8CEE4F0A3EFF0C2AFE4F5F1ECF5F22A
:10B39900AF058FF375F40175F88330FCFD90C8CEC5
:10B3A900E07002A3E0603D90C8C9E0FBA3E475F03A
:10B3B90001129C95A9F0FA129B9EF5FC90C8C9E070
:10B3C900FBA3E475F001129C95A9F0FA129B9EF576
:10B3D900FDD2FE20FEFD90C8CDE024FFF090C8CC40
:10B3E900E034FFF090C8CCE0FCA3E0FDECC313FF10
:10B3F900ED1390C8D0CFF0A3EFF0ED5401FFA3E413
:10B40900F0A3EFF075F88F90C8D074FFF5F0129C97
:10B419009545F0605B90C8C9E0FBA3E475F00112A3
:10B429009C95A9F0FA129B9EF5FA90C8C9E0FBA376
:10B43900E475F001129C95A9F0FA129B9EF5FB9018
:10B44900C8C9E0FBA3E475F001129C95A9F0FA12B2
:10B459009B9EF5FC90C8C9E0FBA3E475F001129C22
:10B4690095A9F0FA129B9EF5FDD2FE30FE9980FB5C
:10B4790090C8D2E07002A3E0603275F88C90C8C918
:10B48900E0FBA3E475F001129C95A9F0FA129B9ECA
:10B49900F5FA90C8C9E0FBA3E475F001129C95A9DF
:10B4A900F0FA129B9EF5FBD2FE20FEFDE4F5F8D2E0
:01B4B900AFE3
:01B4BA00226F
:10B95E0090C9C3EEF0A3EFF0A3EBF0A3EAF0A3E9D6
:01B96E00F0E8
:10B96F00A3E0FEA3E0FF4E700302BAD790C9C3E075
:10B97F00FCA3E0FDC3E49DFDE49CFCD3EF9DEE9C96
:10B98F00400AAF0590C9C8ECF0A3EFF090C9C3E02F
:10B99F00FCA3E0FDECC313FEED13FBAA06ED54016F
:10B9AF00FDC2AFE4F5F1EAF5F2AF038FF375F401E1
:10B9BF0075F88330FCFDED604FC390C9C9E0940268
:10B9CF0090C9C8E09400500302BAD290C9C5E0FBF9
:10B9DF00A3E475F001129C95A9F0FA129B9EF5FC59
:10B9EF0090C9C5E0FBA3E475F001129C95A9F0FA8C
:10B9FF00129B9EF5FDD2FE20FEFD90C9C9E024FEEC
:10BA0F00F090C9C8E034FFF090C9C8E0FEA3E07819
:10BA1F0002CEC313CE13D8F9FF75F88FEF1FAC0604
:10BA2F0070011E4C605B90C9C5E0FBA3E475F0018B
:10BA3F00129C95A9F0FA129B9EF5FA90C9C5E0FBEE
:10BA4F00A3E475F001129C95A9F0FA129B9EF5FBE9
:10BA5F0090C9C5E0FBA3E475F001129C95A9F0FA1B
:10BA6F00129B9EF5FC90C9C5E0FBA3E475F0011293
:10BA7F009C95A9F0FA129B9EF5FDD2FE30FE9D809B
:10BA8F00FB90C9C9E030E1047F0180027F00EF60C5
:10BA9F003275F88C90C9C5E0FBA3E475F001129CD8
:10BAAF0095A9F0FA129B9EF5FA90C9C5E0FBA3E4A5
:10BABF0075F001129C95A9F0FA129B9EF5FBD2FE30
:08BACF0020FEFDE4F5F8D2AF02
:01BAD700224C
:10E0CB00EC90C9F9F0EDA3F07B017AC979F990C90D
:0AE0DB00C8E4F0A37402F002B95E7D
:10E17E00EF4E6010E4FD0DEDC3943240F9EF1F70C9
:04E18E00EF1E80EC14
:01E19200226A
:08CF980090C9D1EEF0A3EFF007
:10CFA000A3745AF0A37401F090C9D1E0FCA3E0FD92
:10CFB000EC90C9D5F0A3EDF07B017AC979D390C884
:10CFC000CCE4F0A37402F07F847E0012B3287FF4D7
:10CFD0007E0112E17E7B017AC979D390C8C8E4F062
:10CFE000A37402F07F147E0012AE0390C9D1E0FE5C
:10CFF000A3E0FFA3E0B506D6A3E0B507D1E490C94E
:10D00000D3F0A3F0A3F0A3F07B017AC979D390C841
:0DD01000CCF0A37402F07F167E0002B3285E
:08D9950090C8A2EEF0A3EFF030
:10D99D00E4A3F0A3F090C8A2E0FEA3E0FFC390C8FB
:10D9AD00A5E09F90C8A4E09E5025E4FBFA7F017E80
:10D9BD000012E17E0BBB00010ABA01F1BB2CEE9007
:0FD9CD00C8A5E004F070CE90C8A4E004F080C6B6
:01D9DC002228
:10D9DD00EF14601814602314602E24037039740141
:10D9ED00A805088002C333D8FC42B7227401A805EC
:10D9FD00088002C333D8FC42BC227401A8050880FC
:10DA0D0002C333D8FC42BD22AF057401A8070880BC
:08DA1D0002C333D8FC42BE2213
:10D8B500EF1460191460251460312403703D740160
:10D8C500A805088002C333D8FCF452B7227401A816
:10D8D50005088002C333D8FCF452BC227401A805A4
:10D8E500088002C333D8FCF452BD22AF057401A8E9
:0CD8F50007088002C333D8FCF452BE22A6
:10CC3600EF14602D14604A1460672403600302CC6D
:10CC4600C8EB600E7401A805088002C333D8FC4205
:10CC560080227401A805088002C333D8FCF45280F0
:10CC660022EB600E7401A805088002C333D8FC428B
:10CC760090227401A805088002C333D8FCF45290B0
:10CC860022EB600E7401A805088002C333D8FC426B
:10CC9600A0227401A805088002C333D8FCF452A070
:10CCA60022EB600E7401A805088002C333D8FC424B
:10CCB600B022AF057401A807088002C333D8FCF47C
:03CCC60052B02247
:10D71C00EF14601A146027146034240370427401EF
:10D72C00A805088002C333D8FC5580FE80347401F0
:10D73C00A805088002C333D8FC5590FE80247401E0
:10D74C00A805088002C333D8FC55A0FE8014AF0591
:10D75C007401A807088002C333D8FC55B0FE8002C0
:04D76C00E4FEAF0622
:01D770002296
:10DF7A00758911E4F58CF58AC28CF518F51A43896E
:0EDF8A0001758CBC758ACDD2A9D2AFD28C2283
:03000B0002D2021C
:0DD20200C0E0C0D075D000C000C006C0075D
:10D20F00C2AF758CBC758ACD0519751B0074017E74
:10D21F0000A81B088005C333CE33CED8F9FFEF55D6
:10D22F001A602DE51B25E02408F808E61618700192
:10D23F0016E51B25E02408F8E6FE08E64E7011AF50
:10D24F001B04A807088002C333D8FC4218F4521AF3
:09D25F00051BE51BB408B6D2AFB3
:0BD26800D007D006D000D0D0D0E032BC
:10E0E500758911E4F58DF58BC28ED2AF4389107514
:0AE0F5008DBC758BCDD2ABD28E220C
:03001B0002E21AE4
:0DE21A00C2AF758DBC758BCDB290D2AF3206
:10E1BD0075C8F075CD58E4F5CC75CB58F5CA43C884
:04E1CD0001D2AD22AC
:03002B0002E240AE
:09E24000C2AFC2C6B291D2AF32E6
:10DF3700C2AF7401A807088002C333D8FCFE421A97
:10DF4700EF25E02408F8A60408A605EEF45218D237
:02DF5700AF22F7
:10E19300C2AF7401A807088002C333D8FCF4521A33
:05E1A3005218D2AF226A
:10E1E500C2AF7401A807088002C333D8FC5518FFD5
:02E1F500D2AFA7
:01E1F7002205
:10D81900AB07AA06A905A8047F007E387D317C00E4
:10D82900129DF0C3E49F90C8A1F074049E90C8A013
:10D83900F043C9407D04E4FF12D9DD7D05E4FF1200
:10D84900D8B543803075D88075985090C8A0E0FC51
:0DD85900A3E0FDECF5BA8DAA43A810D2ACF7
:01D86600229F
:10D94C00AB07AA06A905A8047F007E707D627C0047
:10D95C00129DF0C3E49F90C8A1F074049E90C8A0DF
:10D96C00F043C9207D06E4FF12D9DD7D07E4FF12E8
:10D97C00D8B54380C0759B9090C8A0E0FCA3E0FD97
:08D98C00ECF5BB8D9D439A01EF
:01D994002270
:10DC0900759680759780AB07AA06A905A8047F00B9
:10DC19007EC07D897C01129DF0AD07AC06ECF5D97B
:10DC2900AF058FE743B80CE4909812F0A3F0A3F086
:10DC3900A3F090981AF0909816F0A3F0A3F0A3F02F
:01DC490022B8
:10DEEC0075A78075AB80AB07AA06A905A8047F00AF
:10DEFC007EC07D897C01129DF0AD07AC06ECF5AEC1
:07DF0C00AF058FAF43B830F1
:01DF130022EB
:10D7C600EF14601B1460291460372403704490C85A
:10D7D6009CE0FCA3E0FDA3E0FEA3E0FF02D81990C5
:10D7E600C89CE0FCA3E0FDA3E0FEA3E0FF02D94C49
:10D7F60090C89CE0FCA3E0FDA3E0FEA3E0FF02DCF2
:10D806000990C89CE0FCA3E0FDA3E0FEA3E0FF12A4
:03D81600DEEC2223
:10AFC30090C89BEFF0A3ECF0A3EDF0A3EBF0A3EAA2
:04AFD300F0A3E9F00E
:10AFD700C2AFE4A3F0A3F090C89CE0FEA3E0FFC3D8
:10AFE70090C8A2E09F90C8A1E09E400302B09B904A
:10AFF700C89EE0FBA3E475F001129C95A9F0FA1234
:10B007009B9EFF90C89BE0FE75F009A42400F58283
:10B01700E5F03488F583EE75F008A42583F583E021
:10B02700FCA3E0FD75F009EEA42400F582E5F034F9
:10B0370080F583EE75F008A42583F583E5822DF569
:10B0470082E5833CF583EFF075F009EEA42400F563
:10B0570082E5F03488F583EE75F008A42583F5833F
:10B06700E475F001129C7F75F009EEA42400F582C7
:10B07700E5F03488F583EE75F008A42583F583E0C1
:10B087005403F090C8A2E004F0700690C8A1E00451
:10B09700F002AFDE90C89BE0146042146070147039
:10B0A7000302B1432403600302B173908808E06090
:10B0B7000302B17304F0908802E0FEA3E02400F5D8
:10B0C7008274803EF583E0F599908803E004F07080
:10B0D70006908802E004F090880202B16F90901108
:10B0E700E0600302B17304F090900BE0FEA3E0244C
:10B0F70009F58274883EF583E0F59C90900CE00496
:10B10700F0700690900BE004F090900B805A9098A6
:10B117001AE0705804F0909814E0FEA3E02412F5AA
:10B127008274903EF583E0F59E909815E004F070E8
:10B1370006909814E004F0909814802C90A023E0D7
:10B14700702A04F090A01DE0FEA3E0241BF5827492
:10B15700983EF583E0F5AC90A01EE004F0700690F1
:0EB16700A01DE004F090A01DE05403F0D2AF54
:01B1750022B7
:0300230002CE7C8E
:10CE7C00C0E0C083C082C0D075D000C006C007C25D
:10CE8C00AF30982AC298908804E0FEA3E02400F505
:10CE9C008274843EF583E599F0908805E004F07087
:10CEAC0006908804E004F0908804E05403F0309974
:10CEBC003FC299908802E0FEA3E0FF908800E06EEC
:10CECC007003A3E06F602474002FF58274803EF52C
:10CEDC0083E0F599908803E004F07006908802E0F6
:10CEEC0004F0908802E05403F08005908808E4F088
:0FCEFC00D2AFD007D006D0D0D082D083D0E032D2
:0300530002D4F4E0
:10D4F400C0E0C083C082C0D075D000C006C007C2DF
:10D50400AF5396FE909814E0FEA3E0FF909812E0CB
:10D514006E7003A3E06F602474122FF58274903E42
:10D52400F583E0F59E909815E004F0700690981449
:10D53400E004F0909814E05403F0800590981AE405
:10D54400F0D2AFD007D006D0D0D082D083D0E03292
:03005B0002DA25A1
:10DA2500C0E0C083C082C0D075D000C006C2AF536D
:10DA350097FE909816E0FEA3E02412F58274943EBA
:10DA4500F583E59FF0909817E004F070069098161E
:10DA5500E004F0909816E05403F0D2AFD006D0D091
:07DA6500D082D083D0E03233
:0300630002D5546F
:10D55400C0E0C083C082C0D075D000C006C007C27E
:10D56400AF53A7FE90A01DE0FEA3E0FF90A01BE038
:10D574006E7003A3E06F6024741B2FF58274983ED1
:10D58400F583E0F5AC90A01EE004F0700690A01DB9
:10D59400E004F090A01DE05403F0800590A023E483
:10D5A400F0D2AFD007D006D0D0D082D083D0E03232
:03006B0002DA6C4A
:10DA6C00C0E0C083C082C0D075D000C006C2AF5326
:10DA7C00ABFE90A01FE0FEA3E0241BF582749C3E3D
:10DA8C00F583E5ADF090A020E004F0700690A01FA7
:10DA9C00E004F090A01FE05403F0D2AFD006D0D039
:07DAAC00D082D083D0E032EC
:0300830002CB9B12
:10CB9B00C0E0C083C082C0D075D000C006C007C241
:10CBAB00AFE59B30E02E759B90539BFE90900DE074
:10CBBB00FEA3E02409F582748C3EF583E59CF0908E
:10CBCB00900EE004F0700690900DE004F090900D44
:10CBDB00E05403F0E59B30E143759B90539BFD9034
:10CBEB00900BE0FEA3E0FF909009E06E7003A3E0D2
:10CBFB006F602474092FF58274883EF583E0F59CF1
:10CC0B0090900CE004F0700690900BE004F0909084
:10CC1B000BE05403F08005909011E4F0D2AFD007F5
:0BCC2B00D006D0D0D082D083D0E03201
:10E1A8007596807597807C00ECF5D975E7E0759ECB
:04E1B8000D53B8F358
:01E1BC002240
:0BDF140090C8D7EBF0A3EAF0A3E9F0FF
:10DF1F0090C9027401F0A374C8F0A374DAF090C929
:07DF2F0002E4F0A3F0A3F0EF
:01DF360022C8
:02E24F0080FE4F
:0579400042C9FB00003C
:10C90600E490C896F0A3F0A3740AF0A3740DF0A304
:10C9160074EFF012DF7A12E0E512AC3CE4FD7F0220
:10C9260012D8B57D607CEAE4FF12DF377DF47C0126
:10C936007F0112DF3712D18CD2AF90C71CE0FF12F5
:10C94600DD4A12A30E7D887C137F0712DF377B0139
:10C956007AC8799790C8CCE4F0A304F07F007E8271
:10C9660012B32812536D12DB8490C9FBE07002A348
:10C97600E070187F0712E1E5EF601090C9FBE4F064
:10C98600A304F090C71CF0FF12DD4A90C9FBE070CB
:10C9960002A3E060D112DBC712D3C112B4BB90C8A8
:0BC9A60094EEF0A3EFF012010080BB44
:1079450041C7BA0042C720000041C70D0044C783A4
:107955000000000046C705000000000000608AC660
:107965007B00000001000200030004000500060082
:107975000700080009000A000B000C000D000E00AE
:107985000F0010001100120013001400150016005E
:107995001700180019001A001B001C001D001E000E
:1079A5001F002000210022002300240025002600BE
:1079B5002700280029002A002B002C002D002E006E
:1079C5002F0030003100320033003400350036001E
:1079D5003700380039003A003B003C003D003E00CE
:1079E5003F0040004100420043004442C7390000C7
:1079F50041C7BD0042C711000042C735000050C74E
:107A0500A0000000000000000000000000000000D1
:107A15000050C757000000000000000000000000F3
:107A25000000000050C744000000000000000000F6
:107A3500000000000000004CC771000000000000BD
:107A450000000000000042C7C4000042C7810000DA
:107A550042C733000042C7C0000042C77D00004254
:107A6500C7B2000042C742000042C76F000042C7CC
:107A75000B000042C73B000041C79F0042C7C6003C
:107A85000042C714000042C71E000041C70E004255
:107A9500C78D012842C78F022942C793032A42C7CF
:107AA50095042B42C797052C42C799062D42C79BC3
:107AB500072E41C7130842C72A092F42C7310A308A
:107AC50041C76D0B42C71A0C3142C7280D3241C759
:107AD5003F0E41C7560F42C7B8103342C7C21134D3
:107AE50041C7271242C79D133542C7B6143641C751
:107AF500171542C7B0163742C787173841C726182A
:107B050041C71D1941C7161A42C7371B3942C72439
:107B15001C3A42C77F1D3B42C78B1E3C42C76B1FA9
:107B25003D42C722203E42C769213F42C7BE22408F
:107B350042C740234142C7B4244242C70F254342AE
:107B4500C789264442C72C000041C76E0041C72E95
:107B55000042C767000042C73D000042C7BB0000A6
:107B650042C72F000041C6680041C6690041C66A88
:107B75000041C66B0041C66C0041C66D0041C66E32
:107B85000042C66F000042C671000042C673000085
:0A7B950042C675000042C6770000EA
:10D01D0090C675F0A3F090C66AF090C718E0FEA315
:10D02D00E0FF7C007D0A129C18AA06AB0790C7543E
:10D03D00E0FEA3E0FF7D64129C18EF2BFFEE3AFE9D
:10D04D0090C792E02FFF90C791E03E90C89FF0A34C
:0ED05D00EFF07F0090C89FE0FCA3E0FD7E8115
:10D06B0090C679EEF0A3EFF090C7C6ECF0A3EDF00D
:10D07B0090C79F7401F0FB7AC779C690C8CCE4F0D7
:0FD08B00A304F012B3287DBC7C027F0602DF37BE
:0CE23400E490C79FF090C71EF0A3F022FA
:10D3C10090C79FE060637F0612E1E5EF605B90C666
:10D3D10079E0FEA3E0FF7B017AC7791490C8C8E425
:10D3E100F0A304F012AE0390C714E0FEA3E0FF9097
:10D3F100C7C6E0FCA3E0FDB50707ECB5060302E2F2
:10D4010034C390C71FE0940290C71EE094005019E6
:10D4110090C679E0FEA3E0FF12D06B90C71FE00435
:0AD42100F0700690C71EE004F02230
:06E24900E490C70DF02275
:10BF120090C8BFECF0A3EDF0EE600302C030EF2456
:10BF2200FE606A14606B14700302BFF524036003A1
:10BF320002C03090C8BFE0FEA3E0FFEE703DEF14F8
:10BF42006019146026240270327F037E1012E044CE
:10BF52007F137E1012E0447F33805C7F037E1012D9
:10BF6200E0447F137E1012E05F801E7F037E10127A
:10BF7200E05F7F137E1012E044800E7F037E10127A
:10BF8200E0447F137E1012E0447F3380627F53804F
:10BF92002690C8BFE0FEA3E0FFEE7043EF14601BE3
:10BFA20014602A240270387F637E1012E0447F738B
:10BFB2007E1012E0447F837E1080627F637E1012C7
:10BFC200E0447F737E1012E05F7F8380227F637E76
:10BFD2001012E05F7F737E1012E0447F8380107F37
:10BFE200637E1012E0447F737E1012E0447F837EF2
:10BFF20010803890C8BFE0FEA3E0FFEE7022EF147D
:10C00200601004701B7F137E1112E05F7F337E117C
:10C0120080197F137E1112E0447F337E1102E05FAC
:0FC022007F137E1112E0447F337E1112E044221F
:108FAA0090C8BFECF0A3EDF0EE600302954EEF120D
:108FBA009F528FEA1090DE1191A412922113931BF3
:108FCA001493E115945E1695031790613391413419
:108FDA00929E35937E3694B1379528380000954E87
:108FEA0090C8BFE07002A3E070177F537E1112E0B1
:108FFA00297F637E1112E0297F737E1112E05F8060
:10900A004290C8BFE07004A3E0640170107F537EF1
:10901A001112E0297F637E1112E05F801F90C8BFA2
:10902A00E07004A3E064027F537E11700512E05FD2
:10903A00800312E0297F637E1112E0297F737E117B
:10904A0012E02990C8BFE07004A3E0640370047DB5
:10905A00018079E4FD807590C8BFE07002A3E070DA
:10906A00177F537E1112E0297F637E1112E0297F58
:10907A00737E1112E05F804290C8BFE07004A3E0E3
:10908A00640170107F537E1112E0297F637E1112F2
:10909A00E05F801F90C8BFE07004A3E064027F53C2
:1090AA007E11700512E05F800312E0297F637E1152
:1090BA0012E0297F737E1112E02990C8BFE0700484
:1090CA00A3E0640370047D018002E4FDFC7F807EDE
:1090DA002102954B90C8BFE07002A3E070107F9305
:1090EA007E1112E0297F037E1212E05F802F90C862
:1090FA00BFE07004A3E0640170097F937E1112E05F
:10910A005F801390C8BFE07004A3E06402700E7F12
:10911A00937E1112E0297F037E1212E02990C8BFC4
:10912A00E07004A3E0640270047D018002E4FDFCA7
:10913A007F107E2202954B90C8BFE07002A3E070B8
:10914A00107F937E1112E0297F037E1212E05F8066
:10915A002F90C8BFE07004A3E0640170097F937E7A
:10916A001112E05F801390C8BFE07004A3E06402AC
:10917A00700E7F937E1112E0297F037E1212E0297E
:10918A0090C8BFE07004A3E0640270047D0180020D
:10919A00E4FDFC7F107E2202954B90C8BFE070026E
:1091AA00A3E070177F237E1212E0297F837E90123C
:1091BA00E0297F937E9012E05F804290C8BFE07002
:1091CA0004A3E0640170107F237E1212E0297F83DA
:1091DA007E9012E05F801F90C8BFE07004A3E06435
:1091EA00027F237E12700512E05F800312E0297F5E
:1091FA00837E9012E0297F937E9012E02990C8BF67
:10920A00E07004A3E0640370047D018002E4FDFCC5
:10921A007F307E3902954B90C8BFE07002A3E070A0
:10922A00177F637E1212E0297F737E1212E0297F74
:10923A00837E1212E05F804290C8BFE07004A3E010
:10924A00640170107F637E1212E0297F737E12120E
:10925A00E05F801F90C8BFE07004A3E064027F63F0
:10926A007E12700512E05F800312E0297F737E127E
:10927A0012E0297F837E1212E02990C8BFE07004B1
:10928A00A3E0640370047D018002E4FDFC7F907E0C
:10929A002202954B90C8BFE07002A3E070177F636B
:1092AA007E1212E0297F737E1212E0297F837E12DA
:1092BA0012E05F804290C8BFE07004A3E0640170CE
:1092CA00107F637E1212E0297F737E1212E05F80A4
:1092DA001F90C8BFE07004A3E064027F637E12702F
:1092EA000512E05F800312E0297F737E1212E029E3
:1092FA007F837E1212E02990C8BFE07004A3E06465
:10930A000370047D018002E4FDFC7F907E220295B9
:10931A004B90C8BFE07002A3E070107F037E131267
:10932A00E0297413FFFE12E05F802F90C8BFE0703F
:10933A0004A3E0640170097F037E1312E05F8013C7
:10934A0090C8BFE07004A3E06402700E7F037E132E
:10935A0012E0297413FFFE12E02990C8BFE07004DE
:10936A00A3E0640270047D018002E4FDFC7F207E9C
:10937A002302954B90C8BFE07002A3E070107F03F0
:10938A007E1312E0297413FFFE12E05F802F90C84B
:10939A00BFE07004A3E0640170097F037E1312E04A
:1093AA005F801390C8BFE07004A3E06402700E7F70
:1093BA00037E1312E0297413FFFE12E02990C8BF3E
:1093CA00E07004A3E0640270047D018002E4FDFC05
:1093DA007F207E2302954B90C8BFE07002A3E07005
:1093EA00177F337E1312E0297F437E1312E0297F11
:1093FA00537E1312E05F804290C8BFE07004A3E07E
:10940A00640170107F337E1312E0297F437E1312AA
:10941A00E05F801F90C8BFE07004A3E064027F335E
:10942A007E13700512E05F800312E0297F437E13EA
:10943A0012E0297F537E1312E02990C8BFE070041E
:10944A00A3E0640370047D018002E4FDFC7F607E7A
:10945A002302954B90C8BFE07002A3E070097F73A6
:10946A007E1312E05F801F90C8BFE07004A3E0641F
:10947A00017F737E13700C12E0297F837E1312E042
:10948A005F800A12E0297F837E1312E02990C8BF09
:10949A00E07004A3E0640270047D018002E4FDFC34
:1094AA007F907E2302954B90C8BFE07002A3E070C4
:1094BA00097F737E1312E05F801F90C8BFE07004BB
:1094CA00A3E064017F737E13700C12E0297F837E10
:1094DA001312E05F800A12E0297F837E1312E029CB
:1094EA0090C8BFE07004A3E0640270047D018002AA
:1094FA00E4FDFC7F907E23804890C8BFE07004A3FF
:10950A00E064017F037E14700912E0297D017C006A
:10951A00800612E05FE4FDFC7F107E24802390C861
:10952A00BFE07004A3E064017F037E14700912E0B7
:10953A00297D017C00800612E05FE4FDFC7F107E3D
:05954A002412DF9D2248
:05DF9800E4FDFC7F9098
:10DF9D0090C8C1ECF0A3EDF07B017AC879C190C8AF
:09DFAD00CCE4F0A304F002B32857
:06DD4400E0FF90C71CF097
:10DD4A0090C783745AF0A37401F0E4A3F0EF25E0BE
:10DD5A00247BF582E434C6F583A3E090C786F07B82
:10DD6A00017AC7798390C8CCE4F0A37402F07F8467
:05DD7A007E0002B32849
:05E227003EF583E0FF5D
:08E22C0090C71CEFF002DD4A6F
:109F9F0090C7EBE0B40900400302A30D909FB2F805
:109FAF00282873029FCD02A0CB02A10502A1230294
:109FBF00A14102A20E02A23302A24302A2FA7F63C0
:109FCF007E5012E0447F737E5012E1337F837E50C8
:109FDF0012E1337F937E5012E1337F037E5112E102
:109FEF00337F137E5112E1337F237E5112E1337F92
:109FFF00337E5112E1337F437E5112E1337F537E23
:10A00F005112E13390C7FEE0FEA3E02424F58274E1
:10A01F00C712E2277B017AC8790190C8CCE4F0A37C
:10A02F0004F07F707E4012B3287B017AC8790490C8
:10A03F00C8CCE4F0A304F07F807E4012B3287B01EC
:10A04F007AC779F790C8CCE4F0A304F07F007E4183
:10A05F0012B3287B017AC779FC90C8CCE4F0A30433
:10A06F00F07F107E4112B3287B017AC8793790C8F0
:10A07F00CCE4F0A304F07F307E4112B3287B017A49
:10A08F00C8793B90C8CCE4F0A304F07F407E411226
:10A09F00B3287B017AC8790790C8CCE4F0A304F009
:10A0AF007F607E4112B3287B017AC8790990C8CCB2
:10A0BF00E4F0A304F07F707E4102B3287F937E51BA
:10A0CF0012E0447F137E5212E1337F337E5212E14E
:10A0DF00337F537E5212E1337F737E5212E1337F0F
:10A0EF00937E5212E13390C7FEE0FEA3E0247FF58A
:10A0FF008274C702A30A7F437E5312E0447453FF56
:10A10F00FE12E13390C7FEE0FEA3E0248BF58274CC
:10A11F00C702A30A7F737E5312E0447F837E5312DC
:10A12F00E13390C7FEE0FEA3E0246BF58274C70213
:10A13F00A30A7B017AC8790F90C8CCE4F0A304F08E
:10A14F007F307E4412B3287B017AC8791590C8CC32
:10A15F00E4F0A304F07F407E4412B3287B017AC859
:10A16F00791C90C8CCE4F0A304F07F507E4412B366
:10A17F00287B017AC8791E90C8CCE4F0A304F07F45
:10A18F00707E4412B3287B017AC8793490C8CCE42E
:10A19F00F0A304F07F807E4412B3287B017AC87944
:10A1AF003990C8CCE4F0A304F07F907E4412B3281A
:10A1BF007B017AC8790D90C8CCE4F0A304F07F102E
:10A1CF007E4512B3287B017AC8791390C8CCE4F08E
:10A1DF00A304F07F207E4512B3287B017AC8791A39
:10A1EF0090C8CCE4F0A304F07F307E4512B32890E2
:10A1FF00C7FEE0FEA3E024BEF58274C702A30A7F68
:10A20F00537E5512E0447F637E5512E1337F737E98
:10A21F005512E13390C7FEE0FEA3E02440F58274AF
:10A22F00C702A30A90C7FEE0FEA3E024B4F5827430
:10A23F00C702A30A7F937E5512E0447F037E561216
:10A24F00E1337F137E5612E1337F237E5612E133C3
:10A25F007F337E5612E1337F437E5612E1337B010B
:10A26F007AC779E190C8CCE4F0A304F07F907E45E3
:10A27F0012B3287B017AC779E390C8CCE4F0A3042A
:10A28F00F07F007E4612B3287B017AC779E590C82C
:10A29F00CCE4F0A304F07F107E4612B3287B017A42
:10A2AF00C779E790C8CCE4F0A304F07F207E461274
:10A2BF00B3287B017AC779E990C8CCE4F0A304F006
:10A2CF007F307E4612B3287B017AC779ED90C8CCD8
:10A2DF00E4F0A304F07F407E4612B32890C7FEE05F
:10A2EF00FEA3E0240FF58274C7801012DEC290C760
:0FA2FF00FEE0FEA3E0249BF58274C712E2272243
:10D670007F037E1012E1337F137E1012E1337F337C
:10D680007E1012E1337F437E1012E1337F537E1010
:10D6900012E1337F637E1012E1337F737E1012E15B
:10D6A000337F837E1012E1337F137E1112E1337FCB
:10D6B000337E1112E1337F737E9212E133E4FDFC7D
:06D6C000FF7E3002DF9D39
:07CF0B0090C66EE0FF7E00FE
:10CF120090C8BFEEF0A3EFF064014E70197F037E5C
:10CF22001012E0447F137E1012E0447F337E101211
:10CF3200E0447D01803C90C8BFE07004A3E064023D
:10CF4200700D7F437E1012E0447F537E1080439029
:10CF5200C8BFE07004A3E0640370207F637E1012F8
:10CF6200E0447F737E1012E0447F837E1012E0441F
:10CF72007D027C007F007E3002DF9D90C8BFE070A2
:10CF820004A3E06404700E7F137E1112E0447F3329
:06CF92007E1112E04422B2
:04D86700AB07AA065B
:10D86B007C007D3C129C2A90C8C3EEF0A3EFF0AE77
:10D87B0002AF037C007D3C129C2AA3ECF0A3EDF0DD
:10D88B007B017AC879C390C8CCE4F0A304F07F1075
:10D89B007E2112B3287B017AC879C590C8CCE4F0FD
:0AD8AB00A304F07F307E2102B328B1
:08D6C60090C72FE0FEA3E0FF76
:04D6CE00AB07AA06F6
:10D6D2007C007D3C129C2A90C8BFEEF0A3EFF0AE16
:10D6E20002AF037C007D3C129C2AA3ECF0A3EDF078
:10D6F2007B017AC879BF90C8CCE4F0A304F07F0024
:10D702007E3112B3287B017AC879C190C8CCE4F08B
:0AD71200A304F07F007E3202B3286A
:10DC4A0090C72E7401F07F037E1112E0447F137E89
:10DC5A001112E0447F237E1112E0447F337E1112B9
:10DC6A00E0447B017AC7792F90C8C8E4F0A304F096
:10DC7A007F067E8112AE037DE87C037F0502DF37D3
:10DF5900E490C72EF07F037E1112E1337F137E1107
:10DF690012E1337F237E1112E1337F337E1102E107
:01DF79003374
:10DBC70090C72EE070077F037E1102E1337F0512B5
:10DBD700E1E5EF602C90C730E024FFF090C72FE01D
:10DBE70034FFF012D6C9D390C730E0940090C72F06
:10DBF700E09400500302DF597DE87C037F0512DFC4
:02DC07003722C2
:10A30E00E490C8C1F0A3F07B017AC7793B90C8C82E
:10A31E00F0A304F07F047E8112AE037B017AC8792C
:10A32E00C190C8C8E4F0A304F07F007E8112AE0392
:10A33E0090C8C1E0FAA3E0FB7C007D64FFAE021280
:10A34E009C2A90C754EEF0A3EFF07C007D0AAF0379
:10A35E00AE02129C2A7C007D0A129C2A90C718EC31
:10A36E00F0A3EDF090C8C1E0FEA3E0FF7C007D0AF3
:10A37E00129C2A90C791ECF0A3EDF07B017AC7797D
:10A38E005490C8CCE4F0A304F07F007E2012B328D2
:10A39E007B017AC7791890C8CCE4F0A304F07F1043
:10A3AE007E2012B3287B017AC7799190C8CCE4F055
:10A3BE00A304F07F307E2012B3287B017AC7795434
:10A3CE0090C8CCE4F0A304F07F507E2112B3287B1A
:10A3DE00017AC7791890C8CCE4F0A304F07F607EB0
:10A3EE002112B3287B017AC7799190C8CCE4F0A3EF
:10A3FE0004F07F707E2112B3287B017AC879C19058
:10A40E00C8C8E4F0A304F07F027E8112AE0390C8A8
:10A41E00C1E0FAA3E0FB7C007D64FFAE02129C2A31
:10A42E0090C733EEF0A3EFF07C007D0AAF03AE02CF
:10A43E00129C2A7C007D0A129C2A90C7C0ECF0A3C5
:10A44E00EDF090C8C1E0FEA3E0FF7C007D0A129CF7
:10A45E002A90C77DECF0A3EDF07B017AC77933909B
:10A46E00C8CCE4F0A304F07F607E2012B3287B01F9
:10A47E007AC779C090C8CCE4F0A304F07F707E2038
:10A48E0012B3287B017AC7797D90C8CCE4F0A3047F
:10A49E00F07F807E2012B3287B017AC7793390C873
:10A4AE00CCE4F0A304F07F607E2212B3287B017A05
:10A4BE00C779C090C8CCE4F0A304F07F707E22125E
:10A4CE00B3287B017AC7797D90C8CCE4F0A304F061
:10A4DE007F807E2212B3287B017AC7793D90C8C84F
:10A4EE00E4F0A304F07F067E8112AE0390C73DE038
:10A4FE00FEA3E0FF12D86790C8C1E0FAA3E0FB7C90
:10A50E00007D3CFFAE02129C2A90C76FEEF0A3EFC7
:10A51E00F07C007D3CAF03AE02129C2A90C70BEC80
:10A52E00F0A3EDF07B017AC7796F90C8CCE4F0A36D
:10A53E007402F07F107E2112B3287B017AC7790B4B
:10A54E0090C8CCE4F0A37402F07F207E2112B328D1
:10A55E007B017AC7796F90C8CCE4F0A37402F07FC8
:10A56E00707E2312B3287B017AC7790B90C8CCE496
:10A57E00F0A37402F07F807E2312B3287B017AC889
:10A58E0079C190C8C8E4F0A304F07F087E8112AEB2
:10A59E000390C8C1E0FAA3E0FB7C007D0AFFAE0287
:10A5AE00129C2A7C007D0A129C2A90C7C4ECF0A350
:10A5BE00EDF07C007D0AAF03AE02129C2A90C7819B
:10A5CE00ECF0A3EDF07B017AC779C490C8CCE4F02F
:10A5DE00A37402F07F907E2112B3287B017AC77993
:10A5EE008190C8CCE4F0A37402F07F007E2212B3F7
:10A5FE00287B017AC879C190C8C8E4F0A304F07F23
:10A60E000A7E8112AE0390C8C1E0FAA3E0FB7C0083
:10A61E007D0AFFAE02129C2A7C007D0A129C2A90B3
:10A62E00C7B2ECF0A3EDF07C007D0AAF03AE0212D0
:10A63E009C2A90C742ECF0A3EDF07B017AC779C457
:10A64E0090C8CCE4F0A37402F07F007E2312B328EE
:10A65E007B017AC7798190C8CCE4F0A37402F07FB5
:0DA66E00107E2312B3287F737E9202E13329
:0801000090C89BEEF0A3EFF0A4
:10010800E4A3F0A3F0A3F0A3F090C668E0600DE4C8
:10011800FF12E1E5EF6005E490C668F090C89BE047
:10012800FEA3E0FF64014E6006EF64024E70099082
:10013800C668E0600302426C7B017AC6797790C892
:10014800C8E4F0A304F07F0C7E8012AE0390C6775B
:10015800A3E0FF7C0030E0047D0180027D0090C8B0
:10016800A1ECF0A3EDF0EF7E0030E1047F01800206
:100178007F0090C8A3EEF0A3EFF090C677A3E0FF4E
:100188007C0030E2047D0180027D0090C8B3ECF071
:10019800A3EDF0EF7E0030E3047F0180027F009042
:1001A800C8B5EEF0A3EFF090C677A3E0FF7C00306F
:1001B800E4047D0180027D0090C8B7ECF0A3EDF067
:1001C800EF7E0030E7047F0180027F0090C8A5EE33
:1001D800F0A3EFF090C677E0FEEE7C0030E4047DFB
:1001E8000180027D0090C8A7ECF0A3EDF0EE7E0040
:1001F80030E0047F0180027F0090C8A9EEF0A3EFF1
:10020800F090C677A3E0FF7C0030E5047D01800212
:100218007D0090C8ABECF0A3EDF0EF7E0030E60473
:100228007F0180027F0090C8ADEEF0A3EFF090C68A
:1002380077E0FEEE7C0030E1047D0180027D0090D5
:10024800C8AFECF0A3EDF0EE7E0030E2047F018051
:10025800027F0090C8B1EEF0A3EFF090C677E0FE01
:10026800EE7C0030E3047D0180027D0090C8B9EC8B
:10027800F0A3EDF0EE7E0030E5047F0180027F0000
:1002880090C8BBEEF0A3EFF090C8ABE07004A3E019
:040298006401700B82
:09029C0090C8BD74C0F0A37444C5
:1002A500801D90C8AFE07004A3E0640190C8BD70E4
:0102B5000840
:0602B6007405F0A3741CA6
:0202BC008006BA
:1002BE0074CEF0A37459F07B017AC879BD90C8CC86
:0C02CE00E4F0A304F07F237E1412B32898
:0C02DA0090C8ADE07004A3E06401700B5C
:0902E60090C8BD74C0F0A374447B
:1002EF00801D90C8B1E07004A3E0640190C8BD7098
:0102FF0008F6
:060300007405F0A3741C5B
:0203060080066F
:1003080074CEF0A37459F07B017AC879BD90C8CC3B
:0C031800E4F0A304F07F337E1412B3283D
:1003240090C8A9E07004A3E06401700F90C7BDE019
:10033400700912DC4A90C7BD7401F090C71CE0B488
:10034400182990C711E07002A3E0701F7B017AC7DF
:10035400792F90C8C8F0A304F07F067E8112AE0303
:1003640012D6C690C711E4F0A304F090C8A1E070BF
:1003740004A3E06401600302042C90C739E0700414
:10038400A3E06401600302042C90C726E0FF12E29C
:100394002C7B017AC8799F90C8C8E4F0A304F07F4D
:1003A400067E8112AE0390C89FE0FAA3E0FB7C00B6
:1003B4007D3CFFAE02129C2A90C76FEEF0A3EFF0D3
:1003C4007C007D3CAF03AE02129C2A90C70BECF07C
:1003D400A3EDF07B017AC7796F90C8CCE4F0A30455
:1003E400F07F107E2112B3287B017AC7790B90C865
:1003F400CCE4F0A304F07F307E2112B328E490C64D
:100404006DF090C669F0A3F090C675F0A3F090C6A5
:100414006EF090C739F0A3F090C7BDF090C711F00B
:10042400A3F012DF590204E590C8A5E07004A3E02C
:100434006401602690C8ADE07004A3E06401601A12
:1004440090C8ABE07004A3E064017002800C90C813
:10045400A9E07004A3E06401703012D67090C7392B
:10046400E4F0A304F090C71DE0FF12E22CE490C670
:100474006DF090C669F0A3F090C675F0A3F090C635
:100484006EF090C735F0A3F0805790C8B1E07004C7
:10049400A3E06401600C90C8AFE07004A3E06401C1
:1004A400703F12D67090C716E0FF12E22C12DF598B
:1004B40090C72FE07004A3E06401700990C72FF087
:1004C400A3F012D6C6E490C66DF090C669F0A3F00E
:1004D40090C675F0A3F090C66EF090C739F0A304EF
:1004E400F090C89BE0FEA3E0FFEE600302426CEFD5
:1004F40024FE7003021C7B1470030234371470034F
:100504000241192403600302426C90C675E0700432
:10051400A3E064016003021A1D90C7FEE0FEA3E09D
:1005240024B8F58274C73EF583E0FF90C71CE06FE2
:10053400600302077E90C66AE060030205EE90C77E
:1005440091E0FEA3E0FF90C89DEEF0A3EFF04E70A3
:100554000A90C791F0A37409F0800E90C792E0242A
:10056400FFF090C791E034FFF090C718E0FEA3E0DD
:10057400FF7C007D0A129C18AA06AB0790C754E0C2
:10058400FEA3E0FF7D64129C18EF2BFFEE3AFE9071
:10059400C792E02FFF90C791E03E90C89FF0A3EF71
:1005A400F090C804E0FEA3E0FF90C89FE0FCA3E045
:1005B400FDD39FEC9E501190C801E0FEA3E0FFC361
:1005C400ED9FEC9E4002800F90C89DE0FFA3E09059
:1005D400C791CFF0A3EFF07B017AC7799190C8CC93
:1005E400E4F0A304F07F7002193E90C66AE064014F
:1005F40060030206B690C718E0FEA3E0FF90C89D12
:10060400EEF0A3EFF04E700A90C718F0A37409F04F
:10061400800E90C719E024FFF090C718E034FFF073
:1006240090C718E0FEA3E0FF7C007D0A129C18AA84
:1006340006AB0790C754E0FEA3E0FF7D64129C184C
:10064400EF2BFFEE3AFE90C792E02FFF90C791E0A8
:100654003E90C89FF0A3EFF090C804E0FEA3E0FF33
:1006640090C89FE0FCA3E0FDD39FEC9E502290C86D
:1006740001E0FEA3E0FFC3ED9FEC9E40137B017AF3
:10068400C7791890C8CCE4F0A304F07F6002193E47
:1006940090C89DE0FFA3E090C718CFF0A3EFF07BD4
:1006A400017AC7791890C8CCE4F0A304F07F600203
:1006B400193E90C66AE06402600302342890C7546D
:1006C400E0FEA3E0FF90C89DEEF0A3EFF04E700AA9
:1006D40090C754F0A37402F0800E90C755E024FF35
:1006E400F090C754E034FFF090C718E0FEA3E0FF99
:1006F4007C007D0A129C18AA06AB0790C754E0FE42
:10070400A3E0FF7D64129C18EF2BFFEE3AFE90C726
:1007140092E02FFF90C791E03E90C89FF0A3EFF0C6
:1007240090C804E0FEA3E0FF90C89FE0FCA3E0FDB6
:10073400D39FEC9E502290C801E0FEA3E0FFC3EDDE
:100744009FEC9E40137B017AC7795490C8CCE4F0A7
:10075400A304F07F5002193E90C89DE0FFA3E090EF
:10076400C754CFF0A3EFF07B017AC7795490C8CC7B
:10077400E4F0A304F07F5002193E90C7FEE0FEA30C
:10078400E024C2F58274C73EF583E0FF90C71CE005
:100794006F60030208D690C66AE0600302083290D4
:1007A400C781E0FEA3E0FF90C89DEEF0A3EFF04EFA
:1007B400700A90C781F0A37409F0800E90C782E09C
:1007C40024FFF090C781E034FFF090C7C4E0FEA39B
:1007D400E0FF7C007D0A129C1890C782E02FFF90F6
:1007E400C781E03E90C89FF0A3EFF090C89FE0FE61
:1007F400A3E0FFD39450EE9400501BEF9400EE94CA
:100804000040137B017AC7798190C8CCE4F0A3043B
:10081400F07F0002193E90C89DE0FFA3E090C781DD
:10082400CFF0A3EFF07B017AC7798102099590C6D6
:100834006AE06401600302342890C7C4E0FEA3E0C8
:10084400FF90C89DEEF0A3EFF04E700A90C7C4F07D
:10085400A37408F0800E90C7C5E024FFF090C7C4CD
:10086400E034FFF090C7C4E0FEA3E0FF7C007D0A03
:10087400129C1890C782E02FFF90C781E03E90C879
:100884009FF0A3EFF090C89FE0FEA3E0FFD3945045
:10089400EE9400501BEF9400EE940040137B017A19
:1008A400C779C490C8CCE4F0A304F07F9002193E49
:1008B40090C89DE0FFA3E090C7C4CFF0A3EFF07B06
:1008C400017AC779C490C8CCE4F0A304F07F900205
:1008D400193E90C727E0FF90C71CE06F6003020B2E
:1008E4003090C66AE060030209A290C66FE0FEA3DE
:1008F400E0FF90C89DEEF0A3EFF04E700A90C66F33
:10090400F0A37402F0800E90C670E024FFF090C64D
:100914006FE034FFF090C671E0FEA3E0FF7C007D41
:100924000A129C18AA06AB0790C66FE0FEA3E0FF6C
:100934007D64129C18EF2BFFEE3AFE90C674E02FF4
:10094400FF90C673E03E90C89FF0A3EFF090C89F5D
:10095400E0FEA3E0FFD39432EE9400501FEF940026
:10096400EE9400401790C66FE0FFA3E090C7A4CFB9
:10097400F0A3EFF07B017AC6796F801590C89DE0F3
:10098400FFA3E090C66FCFF0A3EFF07B017AC679A6
:100994006F90C8CCE4F0A304F07F00020D9E90C6D3
:1009A4006AE064016003020A6C90C671E0FEA3E091
:1009B400FF90C89DEEF0A3EFF04E700A90C671F060
:1009C400A37405F0800E90C672E024FFF090C67107
:1009D400E034FFF090C671E0FEA3E0FF7C007D0AE6
:1009E400129C18AA06AB0790C66FE0FEA3E0FF7D39
:1009F40064129C18EF2BFFEE3AFE90C674E02FFFB2
:100A040090C673E03E90C89FF0A3EFF090C89FE0BB
:100A1400FEA3E0FFD39432EE9400502AEF9400EE4C
:100A24009400402290C671E0FFA3E090C75BCFF032
:100A3400A3EFF07B017AC6797190C8CCE4F0A304EB
:100A4400F07F10020D9E90C89DE0FFA3E090C67158
:100A5400CFF0A3EFF07B017AC6797190C8CCE4F0B3
:100A6400A304F07F10020D9E90C66AE06402600346
:100A740002342890C673E0FEA3E0FF90C89DEEF018
:100A8400A3EFF04E700A90C673F0A37409F0800EC1
:100A940090C674E024FFF090C673E034FFF090C673
:100AA40071E0FEA3E0FF7C007D0A129C18AA06AB4D
:100AB4000790C66FE0FEA3E0FF7D64129C18EF2B45
:100AC400FFEE3AFE90C673E0FCA3E0FD2FFFEC3E80
:100AD40090C89FF0A3EFF090C89FE0FEA3E0FFD37F
:100AE4009432EE94005023EF9400EE9400401B9057
:100AF400C748ECF0A3EDF07B017AC6797390C8CCBB
:100B0400E4F0A304F07F20020D9E90C89DE0FFA3B3
:100B1400E090C673CFF0A3EFF07B017AC6797390AF
:100B2400C8CCE4F0A304F07F20020D9E90C7FEE041
:100B3400FEA3E0249DF58274C73EF583E0FF90C7D1
:100B44001CE06F6003020DA390C66AE06003020C10
:100B54001290C77DE0FEA3E0FF90C89DEEF0A3EFE6
:100B6400F04E700A90C77DF0A37409F0800E90C710
:100B74007EE024FFF090C77DE034FFF090C7C0E032
:100B8400FEA3E0FF7C007D0A129C18AA06AB079026
:100B9400C733E0FEA3E0FF7D64129C18EF2BFFEE49
:100BA4003AFE90C77EE02FFF90C77DE03E90C89F3D
:100BB400F0A3EFF090C7FCE0FEA3E0FF90C89FE035
:100BC400FCA3E0FDD39FEC9E502290C7F7E0FEA368
:100BD400E0FFC3ED9FEC9E40137B017AC7797D90C3
:100BE400C8CCE4F0A304F07F80020D9E90C89DE081
:100BF400FFA3E090C77DCFF0A3EFF07B017AC77924
:100C04007D90C8CCE4F0A304F07F80020D9E90C6D2
:100C14006AE064016003020CDA90C7C0E0FEA3E05E
:100C2400FF90C89DEEF0A3EFF04E700A90C7C0F09D
:100C3400A37409F0800E90C7C1E024FFF090C7C0F0
:100C4400E034FFF090C7C0E0FEA3E0FF7C007D0A23
:100C5400129C18AA06AB0790C733E0FEA3E0FF7D01
:100C640064129C18EF2BFFEE3AFE90C77EE02FFF34
:100C740090C77DE03E90C89FF0A3EFF090C7FCE0E2
:100C8400FEA3E0FF90C89FE0FCA3E0FDD39FEC9E91
:100C9400502290C7F7E0FEA3E0FFC3ED9FEC9E4017
:100CA400137B017AC779C090C8CCE4F0A304F07F29
:100CB40070020D9E90C89DE0FFA3E090C7C0CFF0E6
:100CC400A3EFF07B017AC779C090C8CCE4F0A30409
:100CD400F07F70020D9E90C66AE0640260030234E5
:100CE4002890C733E0FEA3E0FF90C89DEEF0A3EF89
:100CF400F04E700A90C733F0A37402F0800E90C7D0
:100D040034E024FFF090C733E034FFF090C7C0E034
:100D1400FEA3E0FF7C007D0A129C18AA06AB079094
:100D2400C733E0FEA3E0FF7D64129C18EF2BFFEEB7
:100D34003AFE90C77EE02FFF90C77DE03E90C89FAB
:100D4400F0A3EFF090C7FCE0FEA3E0FF90C89FE0A3
:100D5400FCA3E0FDD39FEC9E502190C7F7E0FEA3D7
:100D6400E0FFC3ED9FEC9E40127B017AC77933907C
:100D7400C8CCE4F0A304F07F60801F90C89DE0FF1E
:100D8400A3E090C733CFF0A3EFF07B017AC77933A8
:100D940090C8CCE4F0A304F07F607E22021A17907E
:100DA400C7FEE0FEA3E024B6F58274C73EF583E0F7
:100DB400FF90C71CE06F6003020F0D90C66AE060ED
:100DC40003020E6590C742E0FEA3E0FF90C89DEECB
:100DD400F0A3EFF04E700A90C742F0A37409F080BC
:100DE4000E90C743E024FFF090C742E034FFF09038
:100DF400C7B2E0FEA3E0FF7C007D0A129C1890C7F6
:100E040043E02FFF90C742E03E90C89FF0A3EFF06D
:100E140090C89FE0FEA3E0FFD39450EE9400501DD1
:100E2400EF9400EE940040157B017AC7794290C894
:100E3400CCE4F0A304F07F107E23021A1790C89D1F
:100E4400E0FFA3E090C742CFF0A3EFF07B017AC7A5
:100E5400794290C8CCE4F0A304F07F107E23021AF8
:100E64001790C66AE06401600302342890C7B2E0B8
:100E7400FEA3E0FF90C89DEEF0A3EFF04E700A9041
:100E8400C7B2F0A37408F0800E90C7B3E024FFF05B
:100E940090C7B2E034FFF090C7B2E0FEA3E0FF7C5D
:100EA400007D0A129C1890C743E02FFF90C742E0D0
:100EB4003E90C89FF0A3EFF090C89FE0FEA3E0FF30
:100EC400D39450EE9400501DEF9400EE940040151E
:100ED4007B017AC779B290C8CCE4F0A304F07F0018
:100EE4007E23021A1790C89DE0FFA3E090C7B2CFFB
:100EF400F0A3EFF07B017AC779B290C8CCE4F0A3F9
:100F040004F07F007E23021A1790C717E0FF90C7F2
:100F14001CE06F600302117E90C66AE06003020F5A
:100F2400E890C66FE0FEA3E0FF90C89DEEF0A3EF4B
:100F3400F064024E700890C66FF0A3F0800E90C665
:100F440070E024FFF090C66FE034FFF090C671E0CB
:100F5400FEA3E0FF7C007D0A129C18AA06AB079052
:100F6400C66FE0FEA3E0FF7D64129C18EF2BFFEE3A
:100F74003AFE90C674E02FFF90C673E03E90C89F7F
:100F8400F0A3EFF090C89FE0FEA3E0FFD39432EE0D
:100F94009400502CEF9400EE9400402490C66FE02F
:100FA400FFA3E090C7AACFF0A3EFF07B017AC67944
:100FB4006F90C8CCE4F0A304F07F007E25021A17DA
:100FC40090C89DE0FFA3E090C66FCFF0A3EFF07B45
:100FD400017AC6796F90C8CCE4F0A304F07F007E58
:100FE40025021A1790C66AE0640160030210B690E5
:100FF400C671E0FEA3E0FF90C89DEEF0A3EFF04EB3
:10100400700A90C671F0A37405F0800E90C672E069
:1010140024FFF090C671E034FFF090C671E0FEA3A7
:10102400E0FF7C007D0A129C18AA06AB0790C66FED
:10103400E0FEA3E0FF7D64129C18EF2BFFEE3AFE66
:1010440090C674E02FFF90C673E03E90C89FF0A353
:10105400EFF090C89FE0FEA3E0FFD39432EE94003B
:10106400502CEF9400EE9400402490C671E0FFA34E
:10107400E090C761CFF0A3EFF07B017AC67971905D
:10108400C8CCE4F0A304F07F107E25021A1790C8A0
:101094009DE0FFA3E090C671CFF0A3EFF07B017A4F
:1010A400C6797190C8CCE4F0A304F07F107E2502C9
:1010B4001A1790C66AE06402600302342890C6736B
:1010C400E0FEA3E0FF90C89DEEF0A3EFF04E700A9F
:1010D40090C673F0A37409F0800E90C674E024FFE8
:1010E400F090C673E034FFF090C671E0FEA3E0FF19
:1010F4007C007D0A129C18AA06AB0790C66FE0FE1E
:10110400A3E0FF7D64129C18EF2BFFEE3AFE90C61D
:1011140073E0FCA3E0FD2FFFEC3E90C89FF0A3EF2B
:10112400F090C89FE0FEA3E0FFD39432EE94005009
:1011340025EF9400EE9400401D90C74EECF0A3ED13
:10114400F07B017AC6797390C8CCE4F0A304F07FF5
:10115400207E25021A1790C89DE0FFA3E090C67375
:10116400CFF0A3EFF07B017AC6797390C8CCE4F09A
:10117400A304F07F207E25021A1790C7FEE0FEA389
:10118400E024B0F58274C73EF583E0FF90C71CE00D
:101194006F600302131390C66AE0600302125F904B
:1011A400C76FE0FEA3E0FF90C89DEEF0A3EFF04E02
:1011B400701D90C70BE07002A3E090C76F6008E455
:1011C400F0A3743BF08016E4F0A3743CF0800E901E
:1011D400C770E024FFF090C76FE034FFF090C76F52
:1011E400E0FEA3E0FF7C007D3C129C1890C70CE05D
:1011F4002FFF90C70BE03E90C89FF0A3EFF090C87C
:1012040009E0FEA3E0FF90C89FE0FCA3E0FDD39FAC
:10121400EC9E502390C807E0FEA3E0FFED9FEC9EF8
:1012240040157B017AC7796F90C8CCE4F0A304F031
:101234007F707E23021A1790C89DE0FFA3E090C739
:101244006FCFF0A3EFF07B017AC7796F90C8CCE43D
:10125400F0A304F07F707E23021A1790C66AE0643C
:1012640001600302342890C70BE0FEA3E0FF90C89E
:101274009DEEF0A3EFF04E700A90C70BF0A3743B01
:10128400F0800E90C70CE024FFF090C70BE034FF11
:10129400F090C76FE0FEA3E0FF7C007D3C129C1839
:1012A40090C70CE02FFF90C70BE03E90C89FF0A3BF
:1012B400EFF090C809E0FEA3E0FF90C89FE0FCA314
:1012C400E0FDD39FEC9E502390C807E0FEA3E0FF0F
:1012D400ED9FEC9E40157B017AC7790B90C8CCE456
:1012E400F0A304F07F807E23021A1790C89DE0FFCC
:1012F400A3E090C70BCFF0A3EFF07B017AC7790B83
:1013040090C8CCE4F0A304F07F807E23021A1790E7
:10131400C7FEE0FEA3E02487F58274C73EF583E0B0
:10132400FF90C71CE06F704290C66AE0600302340D
:101334002890C837E0FEA3E0FFD390C73CE09F901D
:10134400C73BE09E5003023428A3E024FFF090C77B
:101354003BE034FFF07B017AC7793B90C8CCE4F0E2
:10136400A304F07F007E24021A1790C713E0FF90B5
:10137400C71CE06F600302342890C66EE06401600D
:10138400030215EA90C66AE0600302145290C79102
:10139400E0FEA3E0FF90C89DEEF0A3EFF04E700ACC
:1013A40090C791F0A37409F0800E90C792E024FFD7
:1013B400F090C791E034FFF090C718E0FEA3E0FF7F
:1013C4007C007D0A129C18AA06AB0790C754E0FE65
:1013D400A3E0FF7D64129C18EF2BFFEE3AFE90C74A
:1013E40092E02FFF90C791E03E90C89FF0A3EFF0EA
:1013F40090C804E0FEA3E0FF90C89FE0FCA3E0FDDA
:10140400D39FEC9E502490C801E0FEA3E0FFC3EDFF
:101414009FEC9E40157B017AC7799190C8CCE4F08B
:10142400A304F07F307E20021A1790C89DE0FFA32A
:10143400E090C791CFF0A3EFF07B017AC779919048
:10144400C8CCE4F0A304F07F307E20021A1790C6C3
:101454006AE06401600302151E90C718E0FEA3E071
:10146400FF90C89DEEF0A3EFF04E700A90C718F0FD
:10147400A37409F0800E90C719E024FFF090C718F8
:10148400E034FFF090C718E0FEA3E0FF7C007D0A83
:10149400129C18AA06AB0790C754E0FEA3E0FF7D98
:1014A40064129C18EF2BFFEE3AFE90C792E02FFFD8
:1014B40090C791E03E90C89FF0A3EFF090C804E07D
:1014C400FEA3E0FF90C89FE0FCA3E0FDD39FEC9E49
:1014D400502490C801E0FEA3E0FFC3ED9FEC9E40C2
:1014E400157B017AC7791890C8CCE4F0A304F07F87
:1014F400107E20021A1790C89DE0FFA3E090C71841
:10150400CFF0A3EFF07B017AC7791890C8CCE4F050
:10151400A304F07F107E20021A1790C66AE06402CA
:10152400600302342890C754E0FEA3E0FF90C89DF6
:10153400EEF0A3EFF04E700A90C754F0A37402F0DB
:10154400800E90C755E024FFF090C754E034FFF0BC
:1015540090C718E0FEA3E0FF7C007D0A129C18AA45
:1015640006AB0790C754E0FEA3E0FF7D64129C180D
:10157400EF2BFFEE3AFE90C792E02FFF90C791E069
:101584003E90C89FF0A3EFF090C804E0FEA3E0FFF4
:1015940090C89FE0FCA3E0FDD39FEC9E502490C82C
:1015A40001E0FEA3E0FFC3ED9FEC9E40157B017AB2
:1015B400C7795490C8CCE4F0A304F07F007E2002E5
:1015C4001A1790C89DE0FFA3E090C754CFF0A3EF93
:1015D400F07B017AC7795490C8CCE4F0A304F07F7F
:1015E400007E20021A1790C66EE0B4023990C83704
:1015F400E0FEA3E0FFD390C73CE09F90C73BE09E92
:101604005003023428A3E024FFF090C73BE034FFEA
:10161400F07B017AC7793B90C8CCE4F0A304F07F57
:10162400507E20021A1790C66EE06403600302180D
:101634009790C66AE060030216FF90C77DE0FEA3A0
:10164400E0FF90C89DEEF0A3EFF04E700A90C77DC6
:10165400F0A37409F0800E90C77EE024FFF090C7D9
:101664007DE034FFF090C7C0E0FEA3E0FF7C007D86
:101674000A129C18AA06AB0790C733E0FEA3E0FF4A
:101684007D64129C18EF2BFFEE3AFE90C77EE02F8C
:10169400FF90C77DE03E90C89FF0A3EFF090C7FC99
:1016A400E0FEA3E0FF90C89FE0FCA3E0FDD39FEC25
:1016B4009E502490C7F7E0FEA3E0FFC3ED9FEC9E8D
:1016C40040157B017AC7797D90C8CCE4F0A304F07F
:1016D4007F807E20021A1790C89DE0FFA3E090C788
:1016E4007DCFF0A3EFF07B017AC7797D90C8CCE47D
:1016F400F0A304F07F807E20021A1790C66AE0648B
:101704000160030217CB90C7C0E0FEA3E0FF90C8BE
:101714009DEEF0A3EFF04E700A90C7C0F0A37409D9
:10172400F0800E90C7C1E024FFF090C7C0E034FF02
:10173400F090C7C0E0FEA3E0FF7C007D0A129C1875
:10174400AA06AB0790C733E0FEA3E0FF7D64129CBA
:1017540018EF2BFFEE3AFE90C77EE02FFF90C77D77
:10176400E03E90C89FF0A3EFF090C7FCE0FEA3E03A
:10177400FF90C89FE0FCA3E0FDD39FEC9E50249013
:10178400C7F7E0FEA3E0FFC3ED9FEC9E40157B018D
:101794007AC779C090C8CCE4F0A304F07F707E20AF
:1017A400021A1790C89DE0FFA3E090C7C0CFF0A332
:1017B400EFF07B017AC779C090C8CCE4F0A304F0C1
:1017C4007F707E20021A1790C66AE06402600302EA
:1017D400342890C733E0FEA3E0FF90C89DEEF0A349
:1017E400EFF04E700A90C733F0A37402F0800E90AD
:1017F400C734E024FFF090C733E034FFF090C7C053
:10180400E0FEA3E0FF7C007D0A129C18AA06AB0749
:1018140090C733E0FEA3E0FF7D64129C18EF2BFF1A
:10182400EE3AFE90C77EE02FFF90C77DE03E90C861
:101834009FF0A3EFF090C7FCE0FEA3E0FF90C89FE9
:10184400E0FCA3E0FDD39FEC9E502490C7F7E0FE9C
:10185400A3E0FFC3ED9FEC9E40157B017AC779336B
:1018640090C8CCE4F0A304F07F607E20021A1790A5
:10187400C89DE0FFA3E090C733CFF0A3EFF07B0156
:101884007AC7793390C8CCE4F0A304F07F607E205B
:10189400021A1790C66EE06404600302342890C6EE
:1018A4006AE0600302196790C76FE0FEA3E0FF904F
:1018B400C89DEEF0A3EFF04E701D90C70BE07002D0
:1018C400A3E090C76F6008E4F0A3743BF08016E4D3
:1018D400F0A3743CF0800E90C770E024FFF090C732
:1018E4006FE034FFF090C76FE0FEA3E0FF7C007D63
:1018F4003C129C1890C70CE02FFF90C70BE03E9061
:10190400C89FF0A3EFF090C809E0FEA3E0FF90C8E1
:101914009FE0FCA3E0FDD39FEC9E502390C807E01A
:10192400FEA3E0FFED9FEC9E40157B017AC7796F23
:1019340090C8CCE4F0A304F07F107E21021A179023
:10194400C89DE0FFA3E090C76FCFF0A3EFF07B0149
:101954007AC7796F90C8CCE4F0A304F07F107E219D
:10196400021A1790C66AE06401600302342890C723
:101974000BE0FEA3E0FF90C89DEEF0A3EFF04E70E5
:101984000A90C70BF0A3743BF0800E90C70CE024C0
:10199400FFF090C70BE034FFF090C76FE0FEA3E0C8
:1019A400FF7C007D3C129C1890C70CE02FFF90C771
:1019B4000BE03E90C89FF0A3EFF090C809E0FEA3AF
:1019C400E0FF90C89FE0FCA3E0FDD39FEC9E502273
:1019D40090C807E0FEA3E0FFED9FEC9E40147B015E
:1019E4007AC7790B90C8CCE4F0A304F07F307E2151
:1019F400802190C89DE0FFA3E090C70BCFF0A3EF38
:101A0400F07B017AC7790B90C8CCE4F0A304F07F93
:101A1400307E2112B32802342890C66DE064017030
:101A24002890C675E07002A3E0600302342812D641
:101A34007090C66EE0B401057404F0800690C66E22
:101A4400E014F012CF0B02342890C7FEE0FEA3E0AE
:101A5400FF248DF58274C73EF583E0FD90C71CE03A
:101A6400FCD39D4013749B2FF58274C73EF583E02D
:101A7400FFECD39F5002807090C7FEE0FEA3E0FF0E
:101A8400248DF58274C73EF583E0FD90C71CE0B554
:101A94000512749B2FF58274C73EF583E0FF90C74F
:101AA4001CF0804C90C66BE06401704990C756E00E
:101AB400FF90C71CE0B5071290C7FEE0FEA3E02428
:101AC40031F58274C73EF583807590C7FEE0FEA3AE
:101AD400E0242AF58274C73EF583E0FF90C71CE03A
:101AE400B5070590C756805790C71CE014F0E0FF77
:101AF40012DD4A807190C66CE06401704990C7FEA3
:101B0400E0FEA3E0241AF58274C73EF583E0FF905B
:101B1400C71CE0B5070590C756802490C756E0FF60
:101B240090C71CE0B5071290C7FEE0FEA3E024288E
:101B3400F58274C73EF583800690C71CE014F0E07C
:101B4400FF12E22C802090C7FEE0FEA3E02437F5CC
:101B54008274C73EF583E0FF90C71CE0B507077F9A
:101B6400017E0012DE8F90C7FEE0FEA3E02424F580
:101B74008274C73EF583E0FF90C71CE0B5070E9062
:101B8400C89BE0FEA3E0FF1282F802342890C7FE4F
:101B9400E0FEA3E0247FF58274C73EF583E0FF9066
:101BA400C71CE0B5070E90C89BE0FEA3E0FF12C17E
:101BB4004E02342890C7FEE0FEA3E0248BF5827425
:101BC400C73EF583E0FF90C71CE0B5070E90C89BA5
:101BD400E0FEA3E0FF12C03102342890C7FEE0FE0D
:101BE400A3E0246BF58274C73EF583E0FF90C71C25
:101BF400E0B5070E90C89BE0FEA3E0FF12CCC9023B
:101C0400342890C7FEE0FEA3E02440F58274C73E6A
:101C1400F583E0FF90C71CE0B5070E90C89BE0FE7B
:101C2400A3E0FF12D09A02342890C7FEE0FEA3E09E
:101C3400240FF58274C73EF583E0FF90C71CE0B51E
:101C4400070E90C89BE0FEA3E0FF1289F20234283D
:101C540090C7FEE0FEA3E02489F58274C73EF583B5
:101C6400E0FF90C71CE0B5070B90C89BE0FEA3E023
:101C7400FF12BAD802342890C675E07004A3E06459
:101C84000160030231B590C7FEE0FEA3E024B8F57D
:101C94008274C73EF583E0FF90C71CE06F600302C7
:101CA4001EEE90C66AE06003021D5C90C791E0FEE0
:101CB400A3E0FF90C89DEEF0A3EFF064094E60101E
:101CC40090C792E004F0700F90C791E004F0800791
:101CD400E490C791F0A3F090C718E0FEA3E0FF7C66
:101CE400007D0A129C18AA06AB0790C754E0FEA315
:101CF400E0FF7D64129C18EF2BFFEE3AFE90C79232
:101D0400E02FFF90C791E03E90C89FF0A3EFF090C2
:101D1400C804E0FEA3E0FF90C89FE0FCA3E0FDD36D
:101D24009FEC9E501190C801E0FEA3E0FFC3ED9F1D
:101D3400EC9E4002800F90C89DE0FFA3E090C79105
:101D4400CFF0A3EFF07B017AC7799190C8CCE4F08F
:101D5400A304F07F700230D590C66AE0640160038A
:101D6400021E2590C718E0FEA3E0FF90C89DEEF088
:101D7400A3EFF064094E601090C719E004F0700FEF
:101D840090C718E004F08007E490C718F0A3F0901F
:101D9400C718E0FEA3E0FF7C007D0A129C18AA0687
:101DA400AB0790C754E0FEA3E0FF7D64129C18EFDC
:101DB4002BFFEE3AFE90C792E02FFF90C791E03ED2
:101DC40090C89FF0A3EFF090C804E0FEA3E0FF905A
:101DD400C89FE0FCA3E0FDD39FEC9E502290C80175
:101DE400E0FEA3E0FFC3ED9FEC9E40137B017AC7A6
:101DF400791890C8CCE4F0A304F07F600230D59049
:101E0400C89DE0FFA3E090C718CFF0A3EFF07B01DB
:101E14007AC7791890C8CCE4F0A304F07F6002304C
:101E2400D590C66AE06402600302342890C754E087
:101E3400FEA3E0FF90C89DEEF0A3EFF064024E60B5
:101E44001090C755E004F0700F90C754E004F08080
:101E540007E490C754F0A3F090C718E0FEA3E0FF96
:101E64007C007D0A129C18AA06AB0790C754E0FEBA
:101E7400A3E0FF7D64129C18EF2BFFEE3AFE90C79F
:101E840092E02FFF90C791E03E90C89FF0A3EFF03F
:101E940090C804E0FEA3E0FF90C89FE0FCA3E0FD2F
:101EA400D39FEC9E502290C801E0FEA3E0FFC3ED57
:101EB4009FEC9E40137B017AC7795490C8CCE4F020
:101EC400A304F07F500230D590C89DE0FFA3E090BA
:101ED400C754CFF0A3EFF07B017AC7795490C8CCF4
:101EE400E4F0A304F07F500230D590C7FEE0FEA3D7
:101EF400E024C2F58274C73EF583E0FF90C71CE07E
:101F04006F600302203690C66AE06003021F92905D
:101F1400C781E0FEA3E0FF90C89DEEF0A3EFF0645C
:101F2400094E601090C782E004F0700F90C781E002
:101F340004F08007E490C781F0A3F090C7C4E0FEEA
:101F4400A3E0FF7C007D0A129C1890C782E02FFF5B
:101F540090C781E03E90C89FF0A3EFF090C89FE047
:101F6400FEA3E0FFD39450EE9400500AEF9400EEE9
:101F740094004002800F90C89DE0FFA3E090C781C9
:101F8400CFF0A3EFF07B017AC779810220F590C6E8
:101F94006AE06401600302342890C7C4E0FEA3E051
:101FA400FF90C89DEEF0A3EFF064084E700890C750
:101FB400C4F0A3F0800E90C7C5E004F0700690C78B
:101FC400C4E004F090C7C4E0FEA3E0FF7C007D0AF7
:101FD400129C1890C782E02FFF90C781E03E90C802
:101FE4009FF0A3EFF090C89FE0FEA3E0FFD39450CE
:101FF400EE9400501BEF9400EE940040137B017AA2
:10200400C779C490C8CCE4F0A304F07F900230D523
:1020140090C89DE0FFA3E090C7C4CFF0A3EFF07B8E
:10202400017AC779C490C8CCE4F0A304F07F90028D
:1020340030D590C727E0FF90C71CE06F60030222F1
:102044009090C66AE0600302210290C66FE0FEA38E
:10205400E0FF90C89DEEF0A3EFF064094E70089085
:10206400C66FF0A3F0800E90C670E004F070069086
:10207400C66FE004F090C671E0FEA3E0FF7C007D33
:102084000A129C18AA06AB0790C66FE0FEA3E0FFF5
:102094007D64129C18EF2BFFEE3AFE90C674E02F7D
:1020A400FF90C673E03E90C89FF0A3EFF090C89FE6
:1020B400E0FEA3E0FFD39432EE9400501FEF9400AF
:1020C400EE9400401790C66FE0FFA3E090C7A4CF42
:1020D400F0A3EFF07B017AC6796F801590C89DE07C
:1020E400FFA3E090C66FCFF0A3EFF07B017AC6792F
:1020F4006F90C8CCE4F0A304F07F0002250190C6E1
:102104006AE0640160030221CC90C671E0FEA3E0A2
:10211400FF90C89DEEF0A3EFF064054E700890C6E2
:1021240071F0A3F0800E90C672E004F0700690C6C1
:1021340071E004F090C671E0FEA3E0FF7C007D0A2C
:10214400129C18AA06AB0790C66FE0FEA3E0FF7DC1
:1021540064129C18EF2BFFEE3AFE90C674E02FFF3A
:1021640090C673E03E90C89FF0A3EFF090C89FE044
:10217400FEA3E0FFD39432EE9400502AEF9400EED5
:102184009400402290C671E0FFA3E090C75BCFF0BB
:10219400A3EFF07B017AC6797190C8CCE4F0A30474
:1021A400F07F1002250190C89DE0FFA3E090C67166
:1021B400CFF0A3EFF07B017AC6797190C8CCE4F03C
:1021C400A304F07F1002250190C66AE06402600354
:1021D40002342890C673E0FEA3E0FF90C89DEEF0A1
:1021E400A3EFF064094E700890C673F0A3F0800E5C
:1021F40090C674E004F0700690C673E004F090C6D4
:1022040071E0FEA3E0FF7C007D0A129C18AA06ABD5
:102214000790C66FE0FEA3E0FF7D64129C18EF2BCD
:10222400FFEE3AFE90C673E0FCA3E0FD2FFFEC3E08
:1022340090C89FF0A3EFF090C89FE0FEA3E0FFD307
:102244009432EE94005023EF9400EE9400401B90DF
:10225400C748ECF0A3EDF07B017AC6797390C8CC43
:10226400E4F0A304F07F2002250190C89DE0FFA3C1
:10227400E090C673CFF0A3EFF07B017AC679739038
:10228400C8CCE4F0A304F07F2002250190C7FEE04F
:10229400FEA3E0249DF58274C73EF583E0FF90C75A
:1022A4001CE06F600302250690C66AE06003022307
:1022B4007390C77DE0FEA3E0FF90C89DEEF0A3EF0E
:1022C400F064094E601090C77EE004F0700F90C770
:1022D4007DE004F08007E490C77DF0A3F090C7C0D0
:1022E400E0FEA3E0FF7C007D0A129C18AA06AB075F
:1022F40090C733E0FEA3E0FF7D64129C18EF2BFF30
:10230400EE3AFE90C77EE02FFF90C77DE03E90C876
:102314009FF0A3EFF090C7FCE0FEA3E0FF90C89FFE
:10232400E0FCA3E0FDD39FEC9E502290C7F7E0FEB3
:10233400A3E0FFC3ED9FEC9E40137B017AC7797D38
:1023440090C8CCE4F0A304F07F8002250190C89DDE
:10235400E0FFA3E090C77DCFF0A3EFF07B017AC745
:10236400797D90C8CCE4F0A304F07F80022501902D
:10237400C66AE06401600302243C90C7C0E0FEA387
:10238400E0FF90C89DEEF0A3EFF064094E6010905A
:10239400C7C1E004F0700F90C7C0E004F08007E408
:1023A40090C7C0F0A3F090C7C0E0FEA3E0FF7C009C
:1023B4007D0A129C18AA06AB0790C733E0FEA3E07F
:1023C400FF7D64129C18EF2BFFEE3AFE90C77EE06F
:1023D4002FFF90C77DE03E90C89FF0A3EFF090C719
:1023E400FCE0FEA3E0FF90C89FE0FCA3E0FDD39FC8
:1023F400EC9E502290C7F7E0FEA3E0FFC3ED9FECF4
:102404009E40137B017AC779C090C8CCE4F0A30442
:10241400F07F7002250190C89DE0FFA3E090C7C043
:10242400CFF0A3EFF07B017AC779C090C8CCE4F079
:10243400A304F07F7002250190C66AE06402600381
:1024440002342890C733E0FEA3E0FF90C89DEEF06D
:10245400A3EFF064024E601090C734E004F0700FF4
:1024640090C733E004F08007E490C733F0A3F09002
:10247400C7C0E0FEA3E0FF7C007D0A129C18AA06F8
:10248400AB0790C733E0FEA3E0FF7D64129C18EF16
:102494002BFFEE3AFE90C77EE02FFF90C77DE03E13
:1024A40090C89FF0A3EFF090C7FCE0FEA3E0FF907C
:1024B400C89FE0FCA3E0FDD39FEC9E502190C7F79A
:1024C400E0FEA3E0FFC3ED9FEC9E40127B017AC7C0
:1024D400793390C8CCE4F0A304F07F60801F90C8E7
:1024E4009DE0FFA3E090C733CFF0A3EFF07B017A28
:1024F400C7793390C8CCE4F0A304F07F607E220255
:1025040031AF90C7FEE0FEA3E024B6F58274C73E67
:10251400F583E0FF90C71CE06F600302267090C64D
:102524006AE060030225C890C742E0FEA3E0FF9082
:10253400C89DEEF0A3EFF064094E700890C742F016
:10254400A3F0800E90C743E004F0700690C742E009
:1025540004F090C7B2E0FEA3E0FF7C007D0A129C69
:102564001890C743E02FFF90C742E03E90C89FF009
:10257400A3EFF090C89FE0FEA3E0FFD39450EE9445
:1025840000501DEF9400EE940040157B017AC7794A
:102594004290C8CCE4F0A304F07F107E230231AF54
:1025A40090C89DE0FFA3E090C742CFF0A3EFF07B7B
:1025B400017AC7794290C8CCE4F0A304F07F107E7E
:1025C400230231AF90C66AE06401600302342890AC
:1025D400C7B2E0FEA3E0FF90C89DEEF0A3EFF06465
:1025E400084E700890C7B2F0A3F0800E90C7B3E015
:1025F40004F0700690C7B2E004F090C7B2E0FEA306
:10260400E0FF7C007D0A129C1890C743E02FFF90E6
:10261400C742E03E90C89FF0A3EFF090C89FE0FE51
:10262400A3E0FFD39450EE9400501DEF9400EE9479
:102634000040157B017AC779B290C8CCE4F0A304BA
:10264400F07F007E230231AF90C89DE0FFA3E090AD
:10265400C7B2CFF0A3EFF07B017AC779B290C8CCB0
:10266400E4F0A304F07F007E230231AF90C717E0AB
:10267400FF90C71CE06F60030228E190C66AE06027
:102684000302274B90C66FE0FEA3E0FF90C89DEEC7
:10269400F0A3EFF064094E700890C66FF0A3F080C9
:1026A4000E90C670E004F0700690C66FE004F090DF
:1026B400C671E0FEA3E0FF7C007D0A129C18AA0606
:1026C400AB0790C66FE0FEA3E0FF7D64129C18EF99
:1026D4002BFFEE3AFE90C674E02FFF90C673E03EE7
:1026E40090C89FF0A3EFF090C89FE0FEA3E0FFD353
:1026F4009432EE9400502CEF9400EE940040249019
:10270400C66FE0FFA3E090C7AACFF0A3EFF07B0170
:102714007AC6796F90C8CCE4F0A304F07F007E25DC
:102724000231AF90C89DE0FFA3E090C66FCFF0A345
:10273400EFF07B017AC6796F90C8CCE4F0A304F083
:102744007F007E250231AF90C66AE0640160030217
:10275400281990C671E0FEA3E0FF90C89DEEF0A397
:10276400EFF064054E700890C671F0A3F0800E90EF
:10277400C672E004F0700690C671E004F090C67171
:10278400E0FEA3E0FF7C007D0A129C18AA06AB07BA
:1027940090C66FE0FEA3E0FF7D64129C18EF2BFF50
:1027A400EE3AFE90C674E02FFF90C673E03E90C8E8
:1027B4009FF0A3EFF090C89FE0FEA3E0FFD3943214
:1027C400EE9400502CEF9400EE9400402490C671D7
:1027D400E0FFA3E090C761CFF0A3EFF07B017AC6DE
:1027E400797190C8CCE4F0A304F07F107E25023107
:1027F400AF90C89DE0FFA3E090C671CFF0A3EFF0C7
:102804007B017AC6797190C8CCE4F0A304F07F1000
:102814007E250231AF90C66AE06402600302342868
:1028240090C673E0FEA3E0FF90C89DEEF0A3EFF026
:1028340064094E700890C673F0A3F0800E90C674BD
:10284400E004F0700690C673E004F090C671E0FEF8
:10285400A3E0FF7C007D0A129C18AA06AB0790C671
:102864006FE0FEA3E0FF7D64129C18EF2BFFEE3AAD
:10287400FE90C673E0FCA3E0FD2FFFEC3E90C89FE2
:10288400F0A3EFF090C89FE0FEA3E0FFD39432EEF4
:1028940094005025EF9400EE9400401D90C74EEC38
:1028A400F0A3EDF07B017AC6797390C8CCE4F0A371
:1028B40004F07F207E250231AF90C89DE0FFA3E0A5
:1028C40090C673CFF0A3EFF07B017AC6797390C8FA
:1028D400CCE4F0A304F07F207E250231AF90C7FE44
:1028E400E0FEA3E024B0F58274C73EF583E0FF90D8
:1028F400C71CE06F6003022A8C90C66AE060030282
:1029040029D890C76FE0FEA3E0FF90C89DEEF0A326
:10291400EFF0643B4E701D90C70BE07002A3E060C3
:1029240003E4801C90C770E004F0702A90C76FE045
:1029340004F0802290C76FE07004A3E0643C700848
:1029440090C76FF0A3F0800E90C770E004F070069B
:1029540090C76FE004F090C76FE0FEA3E0FF7C0037
:102964007D3C129C1890C70CE02FFF90C70BE03EF3
:1029740090C89FF0A3EFF090C809E0FEA3E0FF9099
:10298400C89FE0FCA3E0FDD39FEC9E502390C807B2
:10299400E0FEA3E0FFED9FEC9E40157B017AC77932
:1029A4006F90C8CCE4F0A304F07F707E230231AFB3
:1029B40090C89DE0FFA3E090C76FCFF0A3EFF07B3A
:1029C400017AC7796F90C8CCE4F0A304F07F707EDD
:1029D400230231AF90C66AE0640160030234289098
:1029E400C70BE0FEA3E0FF90C89DEEF0A3EFF064F8
:1029F4003B4E700890C70BF0A3F0800E90C70CE01C
:102A040004F0700690C70BE004F090C76FE0FEA3DB
:102A1400E0FF7C007D3C129C1890C70CE02FFF90D7
:102A2400C70BE03E90C89FF0A3EFF090C809E0FE0A
:102A3400A3E0FF90C89FE0FCA3E0FDD39FEC9E5071
:102A44002390C807E0FEA3E0FFED9FEC9E40157BBA
:102A5400017AC7790B90C8CCE4F0A304F07F807EA0
:102A6400230231AF90C89DE0FFA3E090C70BCFF0E5
:102A7400A3EFF07B017AC7790B90C8CCE4F0A304F0
:102A8400F07F807E230231AF90C7FEE0FEA3E024F6
:102A940087F58274C73EF583E0FF90C71CE06F7032
:102AA4004290C66AE0600302342890C83BE0FEA36B
:102AB400E0FFC390C73CE09F90C73BE09E40030209
:102AC4003428A3E004F0700690C73BE004F07B01D7
:102AD4007AC7793B90C8CCE4F0A304F07F007E244D
:102AE4000231AF90C713E0FF90C71CE06F60030290
:102AF400342890C66EE064016003022D6690C66AB5
:102B0400E06003022BCC90C791E0FEA3E0FF90C8E5
:102B14009DEEF0A3EFF064094E601090C792E004BC
:102B2400F0700F90C791E004F08007E490C791F033
:102B3400A3F090C718E0FEA3E0FF7C007D0A129C7E
:102B440018AA06AB0790C754E0FEA3E0FF7D641209
:102B54009C18EF2BFFEE3AFE90C792E02FFF90C730
:102B640091E03E90C89FF0A3EFF090C804E0FEA36C
:102B7400E0FF90C89FE0FCA3E0FDD39FEC9E5024AF
:102B840090C801E0FEA3E0FFC3ED9FEC9E40157BDF
:102B9400017AC7799190C8CCE4F0A304F07F307E29
:102BA400200231AF90C89DE0FFA3E090C791CFF021
:102BB400A3EFF07B017AC7799190C8CCE4F0A30429
:102BC400F07F307E200231AF90C66AE0640160037A
:102BD400022C9990C718E0FEA3E0FF90C89DEEF088
:102BE400A3EFF064094E601090C719E004F0700F71
:102BF40090C718E004F08007E490C718F0A3F090A1
:102C0400C718E0FEA3E0FF7C007D0A129C18AA0608
:102C1400AB0790C754E0FEA3E0FF7D64129C18EF5D
:102C24002BFFEE3AFE90C792E02FFF90C791E03E53
:102C340090C89FF0A3EFF090C804E0FEA3E0FF90DB
:102C4400C89FE0FCA3E0FDD39FEC9E502490C801F4
:102C5400E0FEA3E0FFC3ED9FEC9E40157B017AC725
:102C6400791890C8CCE4F0A304F07F107E200231E0
:102C7400AF90C89DE0FFA3E090C718CFF0A3EFF09A
:102C84007B017AC7791890C8CCE4F0A304F07F10D4
:102C94007E200231AF90C66AE064026003023428E9
:102CA40090C754E0FEA3E0FF90C89DEEF0A3EFF0C0
:102CB40064024E601090C755E004F0700F90C75442
:102CC400E004F08007E490C754F0A3F090C718E044
:102CD400FEA3E0FF7C007D0A129C18AA06AB0790B5
:102CE400C754E0FEA3E0FF7D64129C18EF2BFFEEB7
:102CF4003AFE90C792E02FFF90C791E03E90C89FA4
:102D0400F0A3EFF090C804E0FEA3E0FF90C89FE0BA
:102D1400FCA3E0FDD39FEC9E502490C801E0FEA3E9
:102D2400E0FFC3ED9FEC9E40157B017AC779549078
:102D3400C8CCE4F0A304F07F007E200231AF90C839
:102D44009DE0FFA3E090C754CFF0A3EFF07B017A9E
:102D5400C7795490C8CCE4F0A304F07F007E20022D
:102D640031AF90C66EE0B4023A90C83BE0FEA3E0F7
:102D7400FF90C73BE06E7003A3E06F70030234283A
:102D840090C73CE004F0700690C73BE004F07B0180
:102D94007AC7793B90C8CCE4F0A304F07F507E203E
:102DA4000231AF90C66EE06403600302301790C630
:102DB4006AE06003022E7D90C77DE0FEA3E0FF90F1
:102DC400C89DEEF0A3EFF064094E601090C77EE05A
:102DD40004F0700F90C77DE004F08007E490C77D95
:102DE400F0A3F090C7C0E0FEA3E0FF7C007D0A12D0
:102DF4009C18AA06AB0790C733E0FEA3E0FF7D64EE
:102E0400129C18EF2BFFEE3AFE90C77EE02FFF9046
:102E1400C77DE03E90C89FF0A3EFF090C7FCE0FEB2
:102E2400A3E0FF90C89FE0FCA3E0FDD39FEC9E507D
:102E34002490C7F7E0FEA3E0FFC3ED9FEC9E40158E
:102E44007B017AC7797D90C8CCE4F0A304F07F803D
:102E54007E200231AF90C89DE0FFA3E090C77DCFF4
:102E6400F0A3EFF07B017AC7797D90C8CCE4F0A39E
:102E740004F07F807E200231AF90C66AE064016076
:102E840003022F4A90C7C0E0FEA3E0FF90C89DEE66
:102E9400F0A3EFF064094E601090C7C1E004F07035
:102EA4000F90C7C0E004F08007E490C7C0F0A3F01F
:102EB40090C7C0E0FEA3E0FF7C007D0A129C18AA24
:102EC40006AB0790C733E0FEA3E0FF7D64129C18B5
:102ED400EF2BFFEE3AFE90C77EE02FFF90C77DE018
:102EE4003E90C89FF0A3EFF090C7FCE0FEA3E0FF84
:102EF40090C89FE0FCA3E0FDD39FEC9E502490C7B4
:102F0400F7E0FEA3E0FFC3ED9FEC9E40157B017A42
:102F1400C779C090C8CCE4F0A304F07F707E20028F
:102F240031AF90C89DE0FFA3E090C7C0CFF0A3EFFE
:102F3400F07B017AC779C090C8CCE4F0A304F07F99
:102F4400707E200231AF90C66AE0640260030234EE
:102F54002890C733E0FEA3E0FF90C89DEEF0A3EFF6
:102F6400F064024E601090C734E004F0700F90C714
:102F740033E004F08007E490C733F0A3F090C7C0B7
:102F8400E0FEA3E0FF7C007D0A129C18AA06AB07B2
:102F940090C733E0FEA3E0FF7D64129C18EF2BFF83
:102FA400EE3AFE90C77EE02FFF90C77DE03E90C8CA
:102FB4009FF0A3EFF090C7FCE0FEA3E0FF90C89F52
:102FC400E0FCA3E0FDD39FEC9E502490C7F7E0FE05
:102FD400A3E0FFC3ED9FEC9E40157B017AC77933D4
:102FE40090C8CCE4F0A304F07F607E200231AF905F
:102FF400C89DE0FFA3E090C733CFF0A3EFF07B01BF
:103004007AC7793390C8CCE4F0A304F07F607E20C3
:103014000231AF90C66EE06404600302342890C6A7
:103024006AE060030230FE90C76FE0FEA3E0FF9009
:10303400C89DEEF0A3EFF0643B4E701D90C70BE00B
:103044007002A3E06003E4801C90C770E004F07099
:103054002A90C76FE004F0802290C76FE07004A349
:10306400E0643C700890C76FF0A3F0800E90C770C6
:10307400E004F0700690C76FE004F090C76FE0FEC4
:10308400A3E0FF7C007D3C129C1890C70CE02FFF4E
:1030940090C70BE03E90C89FF0A3EFF090C809E002
:1030A400FEA3E0FF90C89FE0FCA3E0FDD39FEC9E4D
:1030B400502490C807E0FEA3E0FFC3ED9FEC9E40C0
:1030C400157B017AC7796F90C8CCE4F0A304F07F34
:1030D400107E210231AF90C89DE0FFA3E090C76F3E
:1030E400CFF0A3EFF07B017AC7796F90C8CCE4F0FE
:1030F400A304F07F107E210231AF90C66AE0640120
:10310400600302342890C70BE0FEA3E0FF90C89D43
:10311400EEF0A3EFF0643B4E700890C70BF0A3F001
:10312400800E90C70CE004F0700690C70BE004F02A
:1031340090C76FE0FEA3E0FF7C007D3C129C1890DA
:10314400C70CE02FFF90C70BE03E90C89FF0A3EFA1
:10315400F090C809E0FEA3E0FF90C89FE0FCA3E064
:10316400FDD39FEC9E502390C807E0FEA3E0FFC36D
:10317400ED9FEC9E40147B017AC7790B90C8CCE498
:10318400F0A304F07F307E21802190C89DE0FFA34E
:10319400E090C70BCFF0A3EFF07B017AC7790B90D7
:1031A400C8CCE4F0A304F07F307E2112B3280234AB
:1031B4002890C66DE06401702A90C713E0FF90C7A1
:1031C4001CE06F600302342812D67090C66EE0B41F
:1031D40004057401F0800690C66EE004F012CF0B73
:1031E40002342890C7FEE0FEA3E0FF249BF582741E
:1031F400C73EF583E0FD90C71CE0FCC39D501B74E3
:103204008D2FF58274C73EF583E0FFECC39F400A1F
:1032140090C71CE004F0E0FF802A90C7FEE0FEA304
:10322400E0FF249BF58274C73EF583E0FD90C71C44
:10323400E0B50516748D2FF58274C73EF583E0FF63
:1032440090C71CF012DD4A02342890C66BE064017A
:10325400704190C7FEE0FEA3E02431F58274C73EBE
:10326400F583E0FF90C71CE0B50702804790C7567E
:10327400E0FF90C71CE0B5071290C7FEE0FEA3E094
:10328400242AF58274C73EF583805290C71CE0045B
:10329400F0804A90C66CE06401704A90C7FEE0FE7C
:1032A400A3E02428F58274C73EF583E0FF90C71C91
:1032B400E0B5070590C756802490C756E0FF90C735
:1032C4001CE0B5071290C7FEE0FEA3E0241AF582C5
:1032D40074C73EF583800690C71CE004F0E0FF123B
:1032E400E22C02342890C7FEE0FEA3E02437F582E6
:1032F40074C73EF583E0FF90C71CE0B5070A7F0260
:103304007E0012DE8F02342890C7FEE0FEA3E02484
:1033140024F58274C73EF583E0FF90C71CE0B5072F
:103324000E90C89BE0FEA3E0FF1282F802342890BE
:10333400C7FEE0FEA3E0247FF58274C73EF583E078
:10334400FF90C71CE0B5070E90C89BE0FEA3E0FF0A
:1033540012C14E02342890C7FEE0FEA3E0248BF590
:103364008274C73EF583E0FF90C71CE0B5070E905A
:10337400C89BE0FEA3E0FF12C03102342890C7FED0
:10338400E0FEA3E0246BF58274C73EF583E0FF9072
:10339400C71CE0B5070E90C89BE0FEA3E0FF12CC6B
:1033A400C902342890C7FEE0FEA3E0FF24BEF582E4
:1033B40074C73EF583E0FD90C71CE0FC6D60657446
:1033C400402FF58274C73EF583E0B5040D90C89B89
:1033D400E0FEA3E0FF12D09A804A90C7FEE0FEA36D
:1033E400E0240FF58274C73EF583E0FF90C71CE02C
:1033F400B5070D90C89BE0FEA3E0FF1289F280247C
:1034040090C7FEE0FEA3E02489F58274C73EF583ED
:10341400E0FF90C71CE0B5070B90C89BE0FEA3E05B
:10342400FF12BAD890C6687401F07D1E7C00E4FFD8
:1034340002DF3790C675E07004A3E0640160030204
:10344400388190C713E0FF90C71CE06F600302351A
:10345400CF90C66EE06401702990C66AE004F0E083
:103464006403700F12D01D90C66EE0FF7E007D6471
:103474000235CA90C66EE0FF7E0090C66AE0FD0287
:1034840035CA90C66EE0B40221E490C675F0A3F08C
:1034940090C66AF090C73BE0FCA3E0FD7F047E8108
:1034A40012D06B7F537E1002E04490C66EE064033A
:1034B400706C90C66AE004F0E06403705290C675C4
:1034C400F0A3F090C66AF090C7C0E0FEA3E0FF7CD2
:1034D400007D0A129C18AA06AB0790C733E0FEA32E
:1034E400E0FF7D64129C18EF2BFFEE3AFE90C77E3E
:1034F400E02FFF90C77DE03E90C89FF0A3EFF07FE0
:103504000212D06190C66EE0FF7E007D64800C9054
:10351400C66EE0FF7E0090C66AE0FD0235CA90C622
:103524006EE06404600302426C90C66AE004F0E05A
:10353400640260030235BE90C675F0A3F090C66ABB
:10354400F07B017AC7796F90C8C8F0A304F07F10AC
:103554007E2112AE037B017AC7790B90C8C8E4F0D0
:10356400A304F07F307E2112AE0390C76FE0FEA368
:10357400E0FF7C007D3C129C1890C70CE02FFF906C
:10358400C70BE03E90C89FF0A3EFF07B017AC779A8
:103594000B90C8CCE4F0A304F07F307E2112B32852
:1035A40090C89FE0FCA3E0FD7F067E8112D06B9063
:1035B400C66EE0FF7E007D64800C90C66EE0FF7EE8
:1035C4000090C66AE0FD7C00023F6690C66AE00493
:1035D400F090C71CE0FF7E0090C66AE0FD7C0012FC
:1035E4008FAA90C7FEE0FEA3E024B8F58274C73E1C
:1035F400F583E0FF90C71CE06F701B90C66AE0641F
:1036040004701312D01D90C7FEE0FEA3E0242AF537
:103614008274C7023F2390C7FEE0FEA3E024C2F5F4
:103624008274C73EF583E0FF90C71CE06F70529030
:10363400C66AE06403704A90C675F0A3F090C66A47
:10364400F090C7C4E0FEA3E0FF7C007D0A129C1842
:1036540090C782E02FFF90C781E03E90C89FF0A3FF
:10366400EFF090C89FE0FCA3E0FD7F087E8112D0BC
:103674006B90C7FEE0FEA3E02431F58274C7023FDD
:103684002390C727E0FF90C71CE0B5071890C66ACF
:10369400E0B40411E490C675F0A3F090C66AF0900B
:1036A400C76D02411490C7FEE0FEA3E0249DF5829D
:1036B40074C73EF583E0FF90C71CE06F706C90C642
:1036C4006AE06404706490C675F0A3F090C66AF072
:1036D40090C7C0E0FEA3E0FF7C007D0A129C18AAFC
:1036E40006AB0790C733E0FEA3E0FF7D64129C188D
:1036F400EF2BFFEE3AFE90C77EE02FFF90C77DE0F0
:103704003E90C89FF0A3EFF090C89FE0FCA3E0FDBB
:103714007F027E8112D06B90C7FEE0FEA3E0241AE4
:10372400F58274C73EF58302411490C7FEE0FEA300
:10373400E024B6F58274C73EF583E0FF90C71CE031
:103744006F705590C66AE06403704D90C675F0A31F
:10375400F090C66AF090C7B2E0FEA3E0FF7C007D63
:103764000A129C1890C743E02FFF90C742E03E9096
:10377400C89FF0A3EFF090C89FE0FCA3E0FD7F0A90
:103784007E8112D06B90C7FEE0FEA3E02428F58270
:1037940074C73EF58302411490C717E0FF90C71C1D
:1037A400E0B5071890C66AE0B40211E490C675F05B
:1037B400A3F090C66AF090C73F02411490C7FEE0A0
:1037C400FEA3E024B0F58274C73EF583E0FF90C702
:1037D4001CE06F705590C66AE06403704D90C67526
:1037E400F0A3F090C66AF090C76FE0FEA3E0FF7C00
:1037F400007D3C129C1890C70CE02FFF90C70BE093
:103804003E90C89FF0A3EFF090C89FE0FCA3E0FDBA
