:030000000266F3A2
:0800F800FFFF4457494E543547
:1066F300759401759502758E0075930075C8707554
:10670300C96075F80075F90175A80075B800759A28
:106713000075A90075B90053D0E7787FE4F6D8FD7A
:106723009080007F007E80E4F0A3DFFCDEFA7581B9
:046733001B0267726C
:1052650090C328EEF0A3EFF0A3EBF0A3EAF0A3E9D7
:01527500F048
:10527600E490C32FF0A3F0A3F0A3F0A3F0A3F0A350
:10528600F0A3F090C32DE0FAA3E0FB4A70030254AA
:105296002490C328E0FEA3E0FFC3E49FFFE49EFE44
:1052A600E4FCFD90C337124462AF03AE02E4FCFD9A
:1052B60090C337E0F8A3E0F9A3E0FAA3E0FBC3123A
:1052C600442B501190C337A3A3E0FFA3E090C32D56
:1052D600CFF0A3EFF090C328E0FCA3E0FDECC313EE
:1052E600FFED1390C32FCFF0A3EFF0ED5401FFA312
:1052F600E4F0A3EFF0C2AFE4F5F190C32FE0FCA316
:10530600E0FDECF5F28DF375F40175F8AF30FCFDB8
:1053160090C331E07002A3E0603DD2FE20FEFD9016
:10532600C32AE0FBA3E475F00112428DA9F0FAE569
:10533600FC1241DC90C32AE0FBA3E475F0011242A3
:105346008DA9F0FAE5FD1241DC90C32EE024FFF0B2
:1053560090C32DE034FFF090C32DE0FCA3E0FDECFC
:10536600C313FFED1390C333CFF0A3EFF0ED540159
:10537600FFA3E4F0A3EFF090C33374FFF5F01242FD
:105386008D45F0605BD2FE20FEFD90C32AE0FBA3B4
:10539600E475F00112428DA9F0FAE5FA1241DC90AB
:1053A600C32AE0FBA3E475F00112428DA9F0FAE5E9
:1053B600FB1241DC90C32AE0FBA3E475F001124224
:1053C6008DA9F0FAE5FC1241DC90C32AE0FBA3E4C8
:1053D60075F00112428DA9F0FAE5FD1241DC8097C5
:1053E60090C335E07002A3E0602FD2FE20FEFD9050
:1053F600C32AE0FBA3E475F00112428DA9F0FAE599
:10540600FA1241DC90C32AE0FBA3E475F0011242D4
:0E5416008DA9F0FAE5FB1241DCE4F5F8D2AF07
:015424002265
:10591E0090C32CEEF0A3EFF0A3EBF0A3EAF0A3E913
:01592E00F088
:10592F00E490C333F0A3F0A3F0A3F0A3F0A3F0909F
:10593F00C331E07002A3E07003025AB090C32CE0B1
:10594F00FEA3E0FFC3E49FFFE49EFED390C332E0CB
:10595F009F90C331E09E4005EEF0A3EFF090C32C73
:10596F00E0FAA3E0FBEAC313FCEB13FDEB5401FFDA
:10597F0090C333E4F0A3EFF0C2AFE4F5F1ECF5F22E
:10598F00AF058FF375F40175F88330FCFD90C333C9
:10599F00E07002A3E0603D90C32EE0FBA3E475F03E
:1059AF000112428DA9F0FA124196F5FC90C32EE038
:1059BF00FBA3E475F00112428DA9F0FA124196F59E
:1059CF00FDD2FE20FEFD90C332E024FFF090C331E4
:1059DF00E034FFF090C331E0FCA3E0FDECC313FF14
:1059EF00ED1390C335CFF0A3EFF0ED5401FFA3E417
:1059FF00F0A3EFF075F88F90C33574FFF5F01242F6
:105A0F008D45F0605B90C32EE0FBA3E475F00112AF
:105A1F00428DA9F0FA124196F5FA90C32EE0FBA33E
:105A2F00E475F00112428DA9F0FA124196F5FB9040
:105A3F00C32EE0FBA3E475F00112428DA9F0FA1218
:105A4F004196F5FC90C32EE0FBA3E475F0011242E2
:105A5F008DA9F0FA124196F5FDD2FE30FE9980FB2A
:105A6F0090C337E07002A3E0603275F88C90C32EBC
:105A7F00E0FBA3E475F00112428DA9F0FA124196F2
:105A8F00F5FA90C32EE0FBA3E475F00112428DA945
:105A9F00F0FA124196F5FBD2FE20FEFDE4F5F8D2A6
:015AAF00AF47
:015AB00022D3
:105DC80090C428EEF0A3EFF0A3EBF0A3EAF0A3E968
:015DD800F0DA
:105DD900A3E0FEA3E0FF4E7003025F4190C428E0F8
:105DE900FCA3E0FDC3E49DFDE49CFCD3EF9DEE9C88
:105DF900400AAF0590C42DECF0A3EFF090C428E061
:105E0900FCA3E0FDECC313FEED13FBAA06ED540160
:105E1900FDC2AFE4F5F1EAF5F2AF038FF375F401D2
:105E290075F88330FCFDED604FC390C42EE09402F9
:105E390090C42DE094005003025F3C90C42AE0FB1B
:105E4900A3E475F00112428DA9F0FA124196F5FC0E
:105E590090C42AE0FBA3E475F00112428DA9F0FA7F
:105E6900124196F5FDD2FE20FEFD90C42EE024FEDF
:105E7900F090C42DE034FFF090C42DE0FEA3E0784B
:105E890002CEC313CE13D8F9FF75F88FEF1FAC06F6
:105E990070011E4C605B90C42AE0FBA3E475F0011D
:105EA90012428DA9F0FA124196F5FA90C42AE0FB44
:105EB900A3E475F00112428DA9F0FA124196F5FB9F
:105EC90090C42AE0FBA3E475F00112428DA9F0FA0F
:105ED900124196F5FC90C42AE0FBA3E475F0011287
:105EE900428DA9F0FA124196F5FDD2FE30FE9D8051
:105EF900FB90C42EE030E1047F0180027F00EF6057
:105F09003275F88C90C42AE0FBA3E475F0011242C3
:105F19008DA9F0FA124196F5FA90C42AE0FBA3E4A0
:105F290075F00112428DA9F0FA124196F5FBD2FEE5
:085F390020FEFDE4F5F8D2AFF3
:015F4100223D
:107ED100EC90C45EF0EDA3F07B017AC4795E90C4AE
:0A7EE1002DE4F0A37402F0025DC866
:107F8500EF4E6010E4FD0DEDC3943240F9EF1F7024
:047F9500EF1E80EC6F
:017F990022C5
:086E8F0090C436EEF0A3EFF011
:106E9700A3745AF0A37401F090C436E0FCA3E0FD9C
:106EA700EC90C43AF0A3EDF07B017AC4793890C333
:106EB70031E4F0A37402F07F847E0012591E7FF440
:106EC7007E01127F857B017AC4793890C32DE4F067
:106ED700A37402F07F147E0012526590C436E0FE60
:106EE700A3E0FFA3E0B506D6A3E0B507D1E490C4BD
:106EF70038F0A3F0A3F0A3F07B017AC4793890C3EC
:0D6F070031F0A37402F07F167E0002591EC7
:0877FE0090C30BEEF0A3EFF0C5
:10780600E4A3F0A3F090C30BE0FEA3E0FFC390C394
:107816000EE09F90C30DE09E5025E4FBFA7F017EAB
:1078260000127F850BBB00010ABA01F1BB2CEE905A
:0F783600C30EE004F070CE90C30DE004F080C6E6
:017845002220
:10784600EF14601814602314602E24037039740139
:10785600A805088002C333D8FC42B7227401A805E4
:10786600088002C333D8FC42BC227401A8050880F4
:1078760002C333D8FC42BD22AF057401A8070880B5
:0878860002C333D8FC42BE220C
:10771E00EF1460191460251460312403703D740158
:10772E00A805088002C333D8FCF452B7227401A80E
:10773E0005088002C333D8FCF452BC227401A8059C
:10774E00088002C333D8FCF452BD22AF057401A8E1
:0C775E0007088002C333D8FCF452BE229E
:106BC500EF14602D14604A14606724036003026C9F
:106BD50057EB600E7401A805088002C333D8FC4248
:106BE50080227401A805088002C333D8FCF45280C2
:106BF50022EB600E7401A805088002C333D8FC425D
:106C050090227401A805088002C333D8FCF4529081
:106C150022EB600E7401A805088002C333D8FC423C
:106C2500A0227401A805088002C333D8FCF452A041
:106C350022EB600E7401A805088002C333D8FC421C
:106C4500B022AF057401A807088002C333D8FCF44D
:036C550052B02218
:10758500EF14601A146027146034240370427401E8
:10759500A805088002C333D8FC5580FE80347401E9
:1075A500A805088002C333D8FC5590FE80247401D9
:1075B500A805088002C333D8FC55A0FE8014AF058A
:1075C5007401A807088002C333D8FC55B0FE8002B9
:0475D500E4FEAF061B
:0175D900228F
:107D9C00758911E4F58CF58AC28CF518F51A4389AE
:0E7DAC0001758CBC758ACDD2A9D2AFD28C22C3
:03000B0002700779
:0D700700C0E0C0D075D000C000C006C007BA
:10701400C2AF758CBC758ACD0519751B0074017ED1
:1070240000A81B088005C333CE33CED8F9FFEF5533
:107034001A602DE51B25E02408F808E616187001EF
:1070440016E51B25E02408F8E6FE08E64E7011AFAD
:107054001B04A807088002C333D8FC4218F4521A50
:09706400051BE51BB408B6D2AF10
:0B706D00D007D006D000D0D0D0E03219
:107EEB00758911E4F58DF58BC28ED2AF4389107570
:0A7EFB008DBC758BCDD2ABD28E2268
:03001B000280213F
:0D802100C2AF758DBC758BCDB290D2AF3261
:107FC40075C8F075CD58E4F5CC75CB58F5CA43C8DF
:047FD40001D2AD2207
:03002B0002803A16
:09803A00C2AFC2C6B291D2AF324E
:107D3B00C2AF7401A807088002C333D8FCFE421AF5
:107D4B00EF25E02408F8A60408A605EEF45218D295
:027D5B00AF2255
:107F9A00C2AF7401A807088002C333D8FCF4521A8E
:057FAA005218D2AF22C5
:107FEC00C2AF7401A807088002C333D8FC5518FF30
:027FFC00D2AF02
:017FFE002260
:10768200AB07AA06A905A8047F007E387D317C00DD
:10769200124399C3E49F90C30AF074049E90C309F5
:1076A200F043C9407D04E4FF1278467D05E4FF12F1
:1076B200771E43803075D88075985090C309E0FCDE
:0D76C200A3E0FDECF5BA8DAA43A810D2ACF0
:0176CF002298
:1077B500AB07AA06A905A8047F007E707D627C0040
:1077C500124399C3E49F90C30AF074049E90C309C1
:1077D500F043C9207D06E4FF1278467D07E4FF12D9
:1077E500771E4380C0759B9090C309E0FCA3E0FD24
:0877F500ECF5BB8D9D439A01E8
:0177FD002269
:107A7200759680759780AB07AA06A905A8047F00B2
:107A82007EC07D897C01124399AD07AC06ECF5D925
:107A9200AF058FE743B80CE4909812F0A3F0A3F07F
:107AA200A3F090981AF0909816F0A3F0A3F0A3F028
:017AB20022B1
:107CF00075A78075AB80AB07AA06A905A8047F000D
:107D00007EC07D897C01124399AD07AC06ECF5AECF
:077D1000AF058FAF43B8304F
:017D17002249
:10762F00EF14601B1460291460372403704490C357
:10763F0005E0FCA3E0FDA3E0FEA3E0FF027682904D
:10764F00C305E0FCA3E0FDA3E0FEA3E0FF0277B5D6
:10765F0090C305E0FCA3E0FDA3E0FEA3E0FF027AE8
:10766F007290C305E0FCA3E0FDA3E0FEA3E0FF12D0
:03767F007CF0227A
:1054250090C304EFF0A3ECF0A3EDF0A3EBF0A3EA37
:04543500F0A3E9F007
:10543900C2AFE4A3F0A3F090C305E0FEA3E0FFC36D
:1054490090C30BE09F90C30AE09E40030254FD9075
:10545900C307E0FBA3E475F00112428DA9F0FA122B
:105469004196FF90C304E0FE75F009A42400F5827B
:10547900E5F03488F583EE75F008A42583F583E01B
:10548900FCA3E0FD75F009EEA42400F582E5F034F3
:1054990080F583EE75F008A42583F583E5822DF563
:1054A90082E5833CF583EFF075F009EEA42400F55D
:1054B90082E5F03488F583EE75F008A42583F58339
:1054C900E475F00112427775F009EEA42400F58223
:1054D900E5F03488F583EE75F008A42583F583E0BB
:1054E9005403F090C30BE004F0700690C30AE00483
:1054F900F002544090C304E01460421460701470C8
:10550900030255A5240360030255D5908808E0607D
:10551900030255D504F0908802E0FEA3E02400F5CB
:105529008274803EF583E0F599908803E004F07079
:1055390006908802E004F09088020255D1909011FB
:10554900E060030255D504F090900BE0FEA3E0243F
:1055590009F58274883EF583E0F59C90900CE0048F
:10556900F0700690900BE004F090900B805A9098A0
:105579001AE0705804F0909814E0FEA3E02412F5A4
:105589008274903EF583E0F59E909815E004F070E2
:1055990006909814E004F0909814802C90A023E0D1
:1055A900702A04F090A01DE0FEA3E0241BF582748C
:1055B900983EF583E0F5AC90A01EE004F0700690EB
:0E55C900A01DE004F090A01DE05403F0D2AF4E
:0155D70022B1
:03002300026D79F2
:106D7900C0E0C083C082C0D075D000C006C007C2C1
:106D8900AF30982AC298908804E0FEA3E02400F569
:106D99008274843EF583E599F0908805E004F070EB
:106DA90006908804E004F0908804E05403F03099D8
:106DB9003FC299908802E0FEA3E0FF908800E06E50
:106DC9007003A3E06F602474002FF58274803EF590
:106DD90083E0F599908803E004F07006908802E05A
:106DE90004F0908802E05403F08005908808E4F0EC
:0F6DF900D2AFD007D006D0D0D082D083D0E03236
:0300530002735DD8
:10735D00C0E0C083C082C0D075D000C006C007C2D7
:10736D00AF5396FE909814E0FEA3E0FF909812E0C4
:10737D006E7003A3E06F602474122FF58274903E3B
:10738D00F583E0F59E909815E004F0700690981442
:10739D00E004F0909814E05403F0800590981AE4FE
:1073AD00F0D2AFD007D006D0D0D082D083D0E0328B
:03005B0002788E9A
:10788E00C0E0C083C082C0D075D000C006C2AF5366
:10789E0097FE909816E0FEA3E02412F58274943EB3
:1078AE00F583E59FF0909817E004F0700690981617
:1078BE00E004F0909816E05403F0D2AFD006D0D08A
:0778CE00D082D083D0E0322C
:030063000273BD68
:1073BD00C0E0C083C082C0D075D000C006C007C277
:1073CD00AF53A7FE90A01DE0FEA3E0FF90A01BE031
:1073DD006E7003A3E06F6024741B2FF58274983ECA
:1073ED00F583E0F5AC90A01EE004F0700690A01DB2
:1073FD00E004F090A01DE05403F0800590A023E47C
:10740D00F0D2AFD007D006D0D0D082D083D0E0322A
:03006B000278D543
:1078D500C0E0C083C082C0D075D000C006C2AF531F
:1078E500ABFE90A01FE0FEA3E0241BF582749C3E36
:1078F500F583E5ADF090A020E004F0700690A01FA0
:10790500E004F090A01FE05403F0D2AFD006D0D031
:07791500D082D083D0E032E4
:03008300026B2AE3
:106B2A00C0E0C083C082C0D075D000C006C007C212
:106B3A00AFE59B30E02E759B90539BFE90900DE045
:106B4A00FEA3E02409F582748C3EF583E59CF0905F
:106B5A00900EE004F0700690900DE004F090900D15
:106B6A00E05403F0E59B30E143759B90539BFD9005
:106B7A00900BE0FEA3E0FF909009E06E7003A3E0A3
:106B8A006F602474092FF58274883EF583E0F59CC2
:106B9A0090900CE004F0700690900BE004F0909056
:106BAA000BE05403F08005909011E4F0D2AFD007C7
:0B6BBA00D006D0D0D082D083D0E032D3
:107FAF007596807597807C00ECF5D975E7E0759E26
:047FBF000D53B8F3B3
:017FC300229B
:0B7D180090C33CEBF0A3EAF0A3E9F0FD
:107D230090C3677401F0A374C3F0A3743FF090C3CE
:077D330067E4F0A3F0A3F0E8
:017D3A002226
:0280510080FEAF
:054E7D0042C4600000CA
:10693000E490C2FFF0A3F0A3740AF0A3740DF0A3D7
:1069400074EFF0127D9C127EEB12509EE4FD7F02EC
:1069500012771E7D607CEAE4FF127D3B7DF47C01B2
:106960007F01127D3B126F91D2AF90C222E0FF12E5
:106970007B7212578A7D887C137F07127D3B7B01D7
:106980007AC3790090C331E4F0A304F07F007E82E3
:1069900012591E1279ED90C460E07002A3E07018E5
:1069A0007F07127FECEF601090C460E4F0A304F066
:1069B00090C222F0FF127B7290C460E07002A3E0EC
:1069C00060D1127A301271C6125AB190C2FDEEF047
:1069D000A3EFF0120100900000E060B7E4F080B394
:104E820041C29B0042C226000041C2160044C272C7
:104E92000000000046C20D0000000000006048C192
:104EA200C500000001000200030004000500060026
:104EB2000700080009000A000B000C000D000E009C
:104EC2000F0010001100120013001400150016004C
:104ED2001700180019001A001B001C001D001E00FC
:104EE2001F002000210022002342C236000041C2DE
:104EF2009E0042C218000042C233000050C2850028
:104F0200000000000000000000000000000000504F
:104F1200C256000000000000000000000000000077
:104F2200000050C24100000000000000000000002C
:104F3200000000000042C2A2000042C26E00004215
:104F4200C231000042C29F000042C26C000042C255
:104F520096000042C23F000042C26A000042C214F0
:104F6200000042C23A000041C2830042C2A40000D3
:104F720042C21B000042C224000041C2170041C2CB
:104F8200790141C27A0241C27D0341C27E0441C21B
:104F92007F0541C2800641C2810741C21A0841C24F
:104FA2002C0941C2300A41C2680B41C2210C41C2E4
:104FB2002B0D41C23E0E41C2550F41C29A1041C251
:104FC200A11141C22A1241C2821341C2991441C2A3
:104FD2001E1541C2951641C2761741C2291841C217
:104FE200231941C21D1A41C2351C41C2690041C286
:104FF2002D0042C266000042C23C000042C29C0038
:105002000042C22E000041C2390041C2280041C202
:10501200700041C2980041C2840041C2130041C2E3
:10502200510041C2770041C2380041C2710041C201
:10503200520041C2780041C1B20041C1B30041C136
:10504200B40041C1B50041C1B60041C1B70041C180
:10505200B80042C1B9000042C1BB000042C1BD005C
:0B5062000042C1BF000042C1C10000BD
:106F140090C1BFF0A3F090C1B4F090C21FE0FEA3F3
:106F2400E0FF7C007D0A124210AA06AB0790C25310
:106F3400E0FEA3E0FF7D64124210EF2BFFEE3AFE69
:106F440090C27CE02FFF90C27BE03E90C308F0A388
:0E6F5400EFF07F0090C308E0FCA3E0FD7E811B
:106F620090C1C3EEF0A3EFF090C2A4ECF0A3EDF059
:106F720090C2837401F0FB7AC279A490C331E4F029
:0F6F8200A304F012591E7DBC7C027F06027D3BEA
:0C802E00E490C283F090C224F0A3F02282
:1071C60090C283E060637F06127FECEF605B90C144
:1071D600C3E0FEA3E0FF7B017AC2791B90C32DE4D6
:1071E600F0A304F012526590C21BE0FEA3E0FF90EC
:1071F600C2A4E0FCA3E0FDB50707ECB506030280D8
:107206002EC390C225E0940290C224E09400501947
:1072160090C1C3E0FEA3E0FF126F6290C225E004B6
:0A722600F0700690C224E004F0228C
:107E2F0090C46274C0F0A37464F07B017AC4796269
:0B7E3F0090C331E4F0A304F002591ED0
:107E4A0090C32A7418F0A374E3F07B017AC3792AE9
:0B7E5A0090C331E4F0A304F002591EB5
:047D7D007F037E946E
:107D810090C32A74FFF0A37460F07B017AC3792A4F
:0B7D910090C331E4F0A304F002591E7F
:107E650090C32A7405F0A3741DF07B017AC3792AA7
:0B7E750090C331E4F0A304F002591E9A
:107E800090C46474CEF0A37459F07B017AC4796411
:0B7E900090C331E4F0A304F002591E7F
:047DF6007F237E5019
:107DFA0074FF90C32AF0A3F07B017AC3792A90C357
:097E0A0031E4F0A304F002591E5A
:06804B00E490C216F022D1
:1063580090C328ECF0A3EDF0EE600302646BEF2429
:10636800FE605E14606014700302643024036003EE
:1063780002646B90C328E0FEA3E0FFEE7035EF14D3
:10638800601514601E2402702A127D7D7F137E948E
:10639800127D817F238055127D7D7F137E94127E2E
:1063A80065801A7F037E94127E657F137E94127D2A
:1063B80081800A127D7D7F137E94127D817F2380E8
:1063C800637F5302645890C328E0FEA3E0FFEE7099
:1063D80043EF14601B14602A240270387F537E94A4
:1063E800127D817F637E94127D817F737E948062AB
:1063F8007F537E94127D817F637E94127E657F73C6
:1064080080227F537E94127E657F637E94127D8105
:106418007F7380107F537E94127D817F637E9412F8
:106428007D817F737E94803890C328E0FEA3E0FFCF
:10643800EE7022EF14601004701B7F837E92127E30
:10644800657F937E9280197F837E92127D817F93F0
:106458007E92027E657F837E92127D817F937E92FB
:04646800127D8122FE
:0A45220090C222E0FF7E00E4FDFCE1
:10452C0090C328ECF0A3EDF0EE60030248BBEF243F
:10453C00F3B40B0040030248BB90455375F003A441
:10454C00C58325F0C583730245740245EF024650BE
:10455C000246CB0247460247A70248210248710295
:10456C0048BB0248BB02489790C328E07002A3E006
:10457C0070177F037E90127E4A7F137E90127E4AC4
:10458C007F237E90127E65804290C328E07004A346
:10459C00E0640170107F037E90127E4A7F137E9040
:1045AC00127E65801F90C328E07004A3E064027F34
:1045BC00037E907005127E658003127E4A7F137E07
:1045CC0090127E4A7F237E90127E4A90C328E07020
:1045DC0004A3E0640370047D018002E4FDFC7F1001
:1045EC0002489290C328E07002A3E070107F537EC3
:1045FC0090127E4A7F637E90127E65802F90C32836
:10460C00E07004A3E0640170097F537E90127E6514
:10461C00801390C328E07004A3E06402700E7F53F3
:10462C007E90127E4A7F637E90127E4A90C328E071
:10463C007004A3E0640270047D018002E4FDFC7F41
:10464C002002489290C328E07002A3E070177F7399
:10465C007E90127E4A7F837E90127E4A7F937E905C
:10466C00127E65804290C328E07004A3E064017060
:10467C00107F737E90127E4A7F837E90127E6580BF
:10468C001F90C328E07004A3E064027F737E9070D7
:10469C0005127E658003127E4A7F837E90127E4ACD
:1046AC007F937E90127E4A90C328E07004A3E0644E
:1046BC000370047D018002E4FDFC7F30024892907F
:1046CC00C328E07002A3E070177F037E91127E4A2C
:1046DC007F137E91127E4A7F237E91127E658042EB
:1046EC0090C328E07004A3E0640170107F037E91F6
:1046FC00127E4A7F137E91127E65801F90C328E044
:10470C007004A3E064027F037E917005127E6580C5
:10471C0003127E4A7F137E91127E4A7F237E911272
:10472C007E4A90C328E07004A3E0640370047D010A
:10473C008002E4FDFC7F4002489290C328E07002A6
:10474C00A3E070107F437E91127E4A7F537E9112BC
:10475C007E65802F90C328E07004A3E0640170098B
:10476C007F437E91127E65801390C328E07004A372
:10477C00E06402700E7F437E91127E4A7F537E91DD
:10478C00127E4A90C328E07004A3E0640270047D9A
:10479C00018002E4FDFC7F5002489290C328E07037
:1047AC0002A3E070177F637E91127E4A7F737E9125
:1047BC00127E4A7F837E91127E65804290C328E0F0
:1047CC007004A3E0640170107F637E91127E4A7FB7
:1047DC00737E91127E65801F90C328E07004A3E065
:1047EC0064027F637E917005127E658003127E4A9F
:1047FC007F737E91127E4A7F837E91127E4A90C394
:10480C0028E07004A3E0640370047D018002E4FDE1
:10481C00FC7F60807190C328E07002A3E070097F78
:10482C00937E91127E65801F90C328E07004A3E0F4
:10483C0064017F937E91700C127E4A7F037E9212EC
:10484C007E65800A127E4A7F037E92127E4A90C356
:10485C0028E07004A3E0640270047D018002E4FD92
:10486C00FC7F70802190C328E07004A3E064017F7A
:10487C00137E927009127E4A7D017C008006127EA6
:10488C0065E4FDFC7F807E39027D6490C328E07076
:10489C0002A3E070077F337E94027E6590C328E00C
:1048AC007004A3E0640170077F337E94127DFA22BA
:077D5D007F30E4FDFC7E39DC
:107D640090C32AECF0A3EDF07B017AC3792A90C387
:097D740031E4F0A304F002591EF1
:057B6D0090C222F0FFB0
:107B720090C272745AF0A37401F0E4A3F0EF25E00E
:107B820024C5F582E434C1F583A3E090C275F07B8D
:107B9200017AC2797290C331E4F0A37402F07F8457
:057BA2007E0002591EE7
:0880430090C222EFF0027B72F3
:1074D9007F037E94127DFA7F137E94127DFA7F23B7
:1074E9007E94127DFA7F237E92127DFA7F537E92DB
:1074F900127DFA7F537E94127DFA7F637E94127D0A
:10750900FA7F737E94127DFA7F837E92127DFA7FD1
:10751900937E92127DFA7F737E92127DFAE4FDFCCE
:06752900FF7E30027D64CC
:076E080090C1B8E0FF7E001D
:106E0F0090C328EEF0A3EFF064014E7015127D7D54
:106E1F007F137E94127D817F237E94127D817D016D
:106E2F00803A90C328E07004A3E06402700B7F23C4
:106E3F007E92127D817F53804190C328E07004A31E
:106E4F00E0640370207F537E94127D817F637E9474
:106E5F00127D817F737E94127D817D027C007F0085
:106E6F007E30027D6490C328E07004A3E064047058
:106E7F000E7F837E92127D817F937E92127D81227F
:0476D000AB07AA0654
:1076D4007C007D3C12422290C306EEF0A3EFF0AE94
:1076E40002AF037C007D3C124222A3ECF0A3EDF038
:1076F4007B017AC3790690C331E4F0A304F07F5090
:107704007E2812591E7B017AC3790890C331E4F0B4
:0A771400A304F07F607E2802591ED6
:08752F0090C22EE0FEA3E0FF74
:04753700AB07AA06EE
:10753B007C007D3C12422290C328EEF0A3EFF0AE0C
:10754B0002AF037C007D3C124222A3ECF0A3EDF0D2
:10755B007B017AC3792890C331E4F0A304F07F0058
:10756B007E3112591E7B017AC3792A90C331E4F024
:0A757B00A304F07F007E3202591EC7
:107BA70090C22D7401F07F737E92127D817F337EA8
:107BB70093127D817F437E93127D817B017AC27907
:107BC7002E90C32DE4F0A304F07F067E8112526548
:097BD7007DE87C037F05027D3B83
:107F0500E490C22DF07F737E92127DFA7F337E93CB
:0A7F1500127DFA7F437E93027DFA8D
:107A300090C22DE070077F737E92027DFA7F05125F
:107A40007FECEF602C90C22FE024FFF090C22EE07C
:107A500034FFF0127532D390C22FE0940090C22E02
:107A6000E094005003027F057DE87C037F05127DD2
:027A70003B22B7
:10578A00E490C304F0A3F07B017AC2793A90C32D66
:10579A00F0A304F07F047E811252657B017AC379FB
:1057AA000490C32DE4F0A304F07F007E81125265B9
:1057BA0090C304E0FAA3E0FB7C007D64FFAE021212
:1057CA00422290C253EEF0A3EFF07C007D0AAF03B1
:1057DA00AE021242227C007D0A12422290C21FECC3
:1057EA00F0A3EDF090C304E0FEA3E0FF7C007D0A85
:1057FA0012422290C27BECF0A3EDF07B017AC379CE
:10580A000490C32DE4F0A304F07F027E8112526556
:10581A0090C304E0FAA3E0FB7C007D64FFAE0212B1
:10582A00422290C231EEF0A3EFF07C007D0AAF0372
:10583A00AE021242227C007D0A12422290C29FECE2
:10584A00F0A3EDF090C304E0FEA3E0FF7C007D0A24
:10585A0012422290C26CECF0A3EDF07B017AC2797D
:10586A003C90C32DE4F0A304F07F067E81125265BA
:10587A0090C23CE0FEA3E0FF1276D07B017AC379A6
:10588A000490C32DE4F0A304F07F087E81125265D0
:10589A0090C304E0FAA3E0FB7C007D0AFFAE02128B
:1058AA0042227C007D0A12422290C2A2ECF0A3EDB1
:1058BA00F07C007D0AAF03AE0212422290C26EEC67
:1058CA00F0A3EDF07B017AC3790490C32DE4F0A331
:1058DA0004F07F0A7E8112526590C304E0FAA3E0C5
:1058EA00FB7C007D0AFFAE021242227C007D0A1276
:1058FA00422290C296ECF0A3EDF07C007D0AAF0341
:10590A00AE0212422290C23FECF0A3EDF07F737E0A
:04591A0092027DFA7E
:10620F0090C239E0B408004003026357906222F84D
:10621F0028287302623A02624602625D02627702C6
:10622F0062980262C00262EF0263237F137E5012F4
:10623F007D81127DF6800E7F137E50127DFA7F23B3
:10624F007E50127D817F337E50127DFA80117F1335
:10625F007E50127DFA127DF67F337E50127D817F44
:10626F00437E50127DFA80187F137E50127DFA12F2
:10627F007DF67F337E50127DFA7F437E50127D81F3
:10628F007F537E50127DFA801F7F137E50127DFA4E
:10629F00127DF67F337E50127DFA7F437E50127D42
:1062AF00FA7F537E50127D817F637E50127DFA807C
:1062BF00267F137E50127DFA127DF67F337E5012A9
:1062CF007DFA7F437E50127DFA7F537E50127DFA06
:1062DF007F637E50127D817F737E50127DFA802DF9
:1062EF007F137E50127DFA127DF67F337E50127D22
:1062FF00FA7F437E50127DFA7F537E50127DFA7FD4
:10630F00637E50127DFA7F737E50127D817F437EB4
:10631F0056027DFA7F137E50127DFA127DF67F337F
:10632F007E50127DFA7F437E50127DFA7F537E504E
:10633F00127DFA7F637E50127DFA7F737E50127D3D
:09634F00FA7F437E56127D812283
:1072960090C239E0B40800505A9072A6F8282873B4
:1072A6000272BE0272C80272F90272D20272DC0265
:1072B60072E00272EA0272EE90C2707401F07F1DF3
:1072C600802E90C2847401F07F1E802490C2517477
:1072D60001F07F22801A7F1F801690C2387401F059
:1072E6007F20800C7F21800890C2527401F07F239A
:0472F600128043229D
:0801000090C304EEF0A3EFF040
:10010800E4A3F0A3F0A3F0A3F090C1B2E0600DE483
:10011800FF127FECEF6005E490C1B2F090C304E0F9
:10012800FEA3E0FF64014E6006EF64024E70099082
:10013800C1B2E06003023B467B017AC179C190C33A
:100148002DE4F0A304F07F0C7E8012526590C1C1AB
:10015800A3E0FF7C0030E0047D0180027D0090C3B5
:100168000AECF0A3EDF0EF7E0030E1047F0180029D
:100178007F0090C30CEEF0A3EFF090C1C1A3E0FFA5
:100188007C0030E2047D0180027D0090C31CECF00D
:10019800A3EDF0EF7E0030E3047F0180027F009042
:1001A800C31EEEF0A3EFF090C1C1A3E0FF7C0030C6
:1001B800E4047D0180027D0090C320ECF0A3EDF003
:1001C800EF7E0030E7047F0180027F0090C30EEECF
:1001D800F0A3EFF090C1C1E0FEEE7C0030E4047DB6
:1001E8000180027D0090C310ECF0A3EDF0EE7E00DC
:1001F80030E0047F0180027F0090C312EEF0A3EF8D
:10020800F090C1C1A3E0FF7C0030E5047D018002CD
:100218007D0090C314ECF0A3EDF0EF7E0030E6040F
:100228007F0180027F0090C316EEF0A3EFF090C12B
:10023800C1E0FEEE7C0030E1047D0180027D00908B
:10024800C318ECF0A3EDF0EE7E0030E2047F0180ED
:10025800027F0090C31AEEF0A3EFF090C1C1E0FE58
:10026800EE7C0030E3047D0180027D0090C322EC27
:10027800F0A3EDF0EE7E0030E5047F0180027F0000
:1002880090C324EEF0A3EFF090C314E07004A3E051
:040298006401700B82
:09029C0090C32674C0F0A3744461
:1002A500801D90C318E07004A3E0640190C326701C
:0102B5000840
:0602B6007405F0A3741CA6
:0202BC008006BA
:1002BE0074CEF0A37459F07B017AC3792690C331C2
:0C02CE00E4F0A304F07F137E9312591E8D
:0C02DA0090C316E07004A3E06401700BF8
:0902E60090C32674C0F0A3744417
:1002EF00801D90C31AE07004A3E0640190C32670D0
:0102FF0008F6
:060300007405F0A3741C5B
:0203060080066F
:1003080074CEF0A37459F07B017AC3792690C33177
:0C031800E4F0A304F07F237E9312591E32
:1003240090C233E07002A3E0701990C324E070041B
:10033400A3E06401700D741B127B6D90C233E4F072
:10034400A304F090C312E07004A3E06401700F9062
:10035400C29EE07009127BA790C29E7401F090C205
:1003640022E0B4182990C218E07002A3E0701F7B49
:10037400017AC2792E90C32DF0A304F07F067E810A
:1003840012526512752F90C218E4F0A304F090C3C2
:100394000AE07004A3E06401600302044C90C236D6
:1003A400E07004A3E06401600302044C7417127B40
:1003B4006D7B017AC3790890C32DE4F0A304F07F28
:1003C400067E8112526590C308E0FAA3E0FB7C002C
:1003D4007D3CFFAE0212422290C26AEEF0A3EFF01F
:1003E4007C007D3CAF03AE0212422290C214ECF0BA
:1003F400A3EDF07B017AC2796A90C331E4F0A304DF
:10040400F07F507E2812591E7B017AC2791490C362
:1004140031E4F0A304F07F607E2812591EE490C1F9
:10042400B7F090C1B3F0A3F090C1BFF0A3F090C1B6
:10043400B8F090C236F0A3F090C29EF090C218F0CB
:10044400A3F0127F0502050990C30EE07004A3E037
:100454006401602690C316E07004A3E06401601A8E
:1004640090C314E07004A3E064017002800C90C394
:1004740012E07004A3E0640170321274D990C236A1
:10048400E4F0A304F090C2227418F0FF127B72E42B
:1004940090C1B7F090C1B3F0A3F090C1BFF0A3F046
:1004A40090C1B8F090C233F0A3F0805990C31AE021
:1004B4007004A3E06401600C90C318E07004A3E02E
:1004C400640170411274D990C2227419F0FF127B36
:1004D40072127F0590C22EE07004A3E064017009DB
:1004E40090C22EF0A3F012752FE490C1B7F090C122
:1004F400B3F0A3F090C1BFF0A3F090C1B8F090C2E4
:1005040036F0A304F090C304E0FEA3E0FFEE600322
:10051400023B46EF24FE7003021A31147003022FCB
:100524008B147003023AD424036003023B4690C147
:10053400BFE07004A3E06401600302195990C29AF9
:10054400E0FF90C222E06F600302077890C1B4E03C
:1005540060030205FA90C27BE0FEA3E0FF90C306AD
:10056400EEF0A3EFF04E700A90C27BF0A37409F092
:10057400800E90C27CE024FFF090C27BE034FFF058
:1005840090C21FE0FEA3E0FF7C007D0A124210AA85
:1005940006AB0790C253E0FEA3E0FF7D6412421055
:1005A400EF2BFFEE3AFE90C27CE02FFF90C27BE07F
:1005B4003E90C308F0A3EFF090C308E0FEA3E0FF71
:1005C400D394C8EE9400500AEF9400EE94004002D5
:1005D400800F90C306E0FFA3E090C27BCFF0A3EFAF
:1005E400F07B017AC2797B90C331E4F0A304F07408
:1005F40020FFFE02195390C1B4E0640160030206B7
:10060400B990C21FE0FEA3E0FF90C306EEF0A3EF93
:10061400F04E700A90C21FF0A37409F0800E90C2CD
:1006240020E024FFF090C21FE034FFF090C21FE0EE
:10063400FEA3E0FF7C007D0A124210AA06AB0790DD
:10064400C253E0FEA3E0FF7D64124210EF2BFFEEE5
:100654003AFE90C27CE02FFF90C27BE03E90C3083C
:10066400F0A3EFF090C308E0FEA3E0FFD394C8EE3C
:100674009400501DEF9400EE940040157B017AC263
:10068400791F90C331E4F0A304F07F107E20021997
:100694005390C306E0FFA3E090C21FCFF0A3EFF096
:1006A4007B017AC2791F90C331E4F0A304F07F1078
:1006B4007E2002195390C1B4E064026003022F7CCF
:1006C40090C253E0FEA3E0FF90C306EEF0A3EFF068
:1006D4004E700A90C253F0A37402F0800E90C2547C
:1006E400E024FFF090C253E034FFF090C21FE0FE1C
:1006F400A3E0FF7C007D0A124210AA06AB0790C259
:1007040053E0FEA3E0FF7D64124210EF2BFFEE3AAC
:10071400FE90C27CE02FFF90C27BE03E90C308F0C5
:10072400A3EFF090C308E0FEA3E0FFD394C8EE94D7
:1007340000501DEF9400EE940040157B017AC279BD
:100744005390C331E4F0A304F07F007E20021953D8
:1007540090C306E0FFA3E090C253CFF0A3EFF07B79
:10076400017AC2795390C331E4F0A304F07F007E90
:100774002002195390C2A1E0FF90C222E06F6003EF
:100784000208D590C1B4E0600302082D90C26EE067
:10079400FEA3E0FF90C306EEF0A3EFF04E700A90C4
:1007A400C26EF0A37409F0800E90C26FE024FFF0D3
:1007B40090C26EE034FFF090C2A2E0FEA3E0FF7CA2
:1007C400007D0A12421090C26FE02FFF90C26EE0CB
:1007D4003E90C308F0A3EFF090C308E0FEA3E0FF4F
:1007E400D39450EE9400501DEF9400EE9400401505
:1007F4007B017AC2796E90C331E4F0A304F07F20C8
:100804007E2102195390C306E0FFA3E090C26ECF8D
:10081400F0A3EFF07B017AC2796E90C331E4F0A3C8
:1008240004F07F207E2102195390C1B4E06401607A
:1008340003022F7C90C2A2E0FEA3E0FF90C306EE69
:10084400F0A3EFF04E700A90C2A2F0A37408F080F7
:100854000E90C2A3E024FFF090C2A2E034FFF09017
:10086400C2A2E0FEA3E0FF7C007D0A12421090C207
:100874006FE02FFF90C26EE03E90C308F0A3EFF04C
:1008840090C308E0FEA3E0FFD39450EE9400501D03
:10089400EF9400EE940040157B017AC279A290C3D4
:1008A40031E4F0A304F07F107E2102195390C306B3
:1008B400E0FFA3E090C2A2CFF0A3EFF07B017AC2E5
:1008C40079A290C331E4F0A304F07F107E210219D1
:1008D4005390C22AE0FF90C222E06F6003020B46ED
:1008E40090C1B4E060030209B090C1B9E0FEA3E096
:1008F400FF90C306EEF0A3EFF04E700A90C1B9F07A
:10090400A37402F0800E90C1BAE024FFF090C1B944
:10091400E034FFF090C1BBE0FEA3E0FF7C007D0A61
:10092400124210AA06AB0790C1B9E0FEA3E0FF7D16
:1009340064124210EF2BFFEE3AFE90C1BEE02FFF8F
:1009440090C1BDE03E90C308F0A3EFF090C308E06F
:10095400FEA3E0FFD39432EE9400502CEF9400EE0B
:100964009400402490C1B9E0FFA3E090C289CFF085
:10097400A3EFF07B017AC179B990C331E4F0A30409
:10098400F07F007E2202195390C306E0FFA3E0909B
:10099400C1B9CFF0A3EFF07B017AC179B990C3312B
:1009A400E4F0A304F07F007E2202195390C1B4E066
:1009B40064016003020A7E90C1BBE0FEA3E0FF90E5
:1009C400C306EEF0A3EFF04E700A90C1BBF0A3741F
:1009D40005F0800E90C1BCE024FFF090C1BBE03470
:1009E400FFF090C1BBE0FEA3E0FF7C007D0A124251
:1009F40010AA06AB0790C1B9E0FEA3E0FF7D641224
:100A04004210EF2BFFEE3AFE90C1BEE02FFF90C1E3
:100A1400BDE03E90C308F0A3EFF090C308E0FEA34E
:100A2400E0FFD39432EE9400502CEF9400EE940047
:100A3400402490C1BBE0FFA3E090C25ACFF0A3EFE3
:100A4400F07B017AC179BB90C331E4F0A304F07F59
:100A5400107E2202195390C306E0FFA3E090C1BBAD
:100A6400CFF0A3EFF07B017AC179BB90C331E4F0FE
:100A7400A304F07F107E2202195390C1B4E06402F3
:100A84006003022F7C90C1BDE0FEA3E0FF90C3068B
:100A9400EEF0A3EFF04E700A90C1BDF0A37409F01C
:100AA400800E90C1BEE024FFF090C1BDE034FFF0A1
:100AB40090C1BBE0FEA3E0FF7C007D0A124210AAB5
:100AC40006AB0790C1B9E0FEA3E0FF7D64124210BB
:100AD400EF2BFFEE3AFE90C1BDE0FCA3E0FD2FFF3B
:100AE400EC3E90C308F0A3EFF090C308E0FEA3E04F
:100AF400FFD39432EE94005025EF9400EE9400401E
:100B04001D90C245ECF0A3EDF07B017AC179BD9054
:100B1400C331E4F0A304F07F207E2202195390C372
:100B240006E0FFA3E090C1BDCFF0A3EFF07B017A14
:100B3400C179BD90C331E4F0A304F07F207E22028A
:100B4400195390C282E0FF90C222E06F6003020D4D
:100B54009090C1B4E06003020C1290C26CE0FEA35A
:100B6400E0FF90C306EEF0A3EFF04E700A90C26C63
:100B7400F0A37409F0800E90C26DE024FFF090C2DF
:100B84006CE034FFF090C29FE0FEA3E0FF7C007DA8
:100B94000A124210AA06AB0790C231E0FEA3E0FF9E
:100BA4007D64124210EF2BFFEE3AFE90C26DE02FEF
:100BB400FF90C26CE03E90C308F0A3EFF090C3082E
:100BC400E0FEA3E0FFD394C8EE9400501DEF940020
:100BD400EE940040157B017AC2796C90C331E4F045
:100BE400A304F07F207E2302195390C306E0FFA3E1
:100BF400E090C26CCFF0A3EFF07B017AC2796C90E5
:100C0400C331E4F0A304F07F207E2302195390C182
:100C1400B4E064016003020CD190C29FE0FEA3E043
:100C2400FF90C306EEF0A3EFF04E700A90C29FF05F
:100C3400A37409F0800E90C2A0E024FFF090C29F3C
:100C4400E034FFF090C29FE0FEA3E0FF7C007D0A49
:100C5400124210AA06AB0790C231E0FEA3E0FF7D6A
:100C640064124210EF2BFFEE3AFE90C26DE02FFFAC
:100C740090C26CE03E90C308F0A3EFF090C308E08C
:100C8400FEA3E0FFD394C8EE9400501DEF9400EE51
:100C9400940040157B017AC2799F90C331E4F0A39C
:100CA40004F07F107E2302195390C306E0FFA3E0F3
:100CB40090C29FCFF0A3EFF07B017AC2799F90C3DB
:100CC40031E4F0A304F07F107E2302195390C1B4E1
:100CD400E064026003022F7C90C231E0FEA3E0FFD7
:100CE40090C306EEF0A3EFF04E700A90C231F0A369
:100CF4007402F0800E90C232E024FFF090C231E022
:100D040034FFF090C29FE0FEA3E0FF7C007D0A1256
:100D14004210AA06AB0790C231E0FEA3E0FF7D6457
:100D2400124210EF2BFFEE3AFE90C26DE02FFF90BF
:100D3400C26CE03E90C308F0A3EFF090C308E0FE5D
:100D4400A3E0FFD394C8EE9400501DEF9400EE94FA
:100D54000040157B017AC2793190C331E4F0A304D9
:100D6400F07F007E2302195390C306E0FFA3E090B6
:100D7400C231CFF0A3EFF07B017AC2793190C33155
:100D8400E4F0A304F07F007E2302195390C299E09B
:100D9400FF90C222E06F6003020EED90C1B4E060E8
:100DA40003020E4590C23FE0FEA3E0FF90C306EEAF
:100DB400F0A3EFF04E700A90C23FF0A37409F080E4
:100DC4000E90C240E024FFF090C23FE034FFF09068
:100DD400C296E0FEA3E0FF7C007D0A12421090C29E
:100DE40040E02FFF90C23FE03E90C308F0A3EFF035
:100DF40090C308E0FEA3E0FFD39450EE9400501D8E
:100E0400EF9400EE940040157B017AC2793F90C3C1
:100E140031E4F0A304F07F207E2402195390C3062A
:100E2400E0FFA3E090C23FCFF0A3EFF07B017AC2D2
:100E3400793F90C331E4F0A304F07F207E240219AB
:100E44005390C1B4E064016003022F7C90C296E029
:100E5400FEA3E0FF90C306EEF0A3EFF04E700A90FD
:100E6400C296F0A37408F0800E90C297E024FFF0BD
:100E740090C296E034FFF090C296E0FEA3E0FF7CBF
:100E8400007D0A12421090C240E02FFF90C23FE062
:100E94003E90C308F0A3EFF090C308E0FEA3E0FF88
:100EA400D39450EE9400501DEF9400EE940040153E
:100EB4007B017AC2799690C331E4F0A304F07F10E9
:100EC4007E2402195390C306E0FFA3E090C296CF9C
:100ED400F0A3EFF07B017AC2799690C331E4F0A3DA
:100EE40004F07F107E2402195390C21EE0FF90C2CA
:100EF40022E06F600302115E90C1B4E06003020F50
:100F0400C890C1B9E0FEA3E0FF90C306EEF0A3EFE2
:100F1400F064024E700890C1B9F0A3F0800E90C145
:100F2400BAE024FFF090C1B9E034FFF090C1BBE017
:100F3400FEA3E0FF7C007D0A124210AA06AB0790D4
:100F4400C1B9E0FEA3E0FF7D64124210EF2BFFEE77
:100F54003AFE90C1BEE02FFF90C1BDE03E90C308B1
:100F6400F0A3EFF090C308E0FEA3E0FFD39432EEC9
:100F74009400502CEF9400EE9400402490C1B9E00A
:100F8400FFA3E090C28FCFF0A3EFF07B017AC17989
:100F9400B990C331E4F0A304F07F007E2502195315
:100FA40090C306E0FFA3E090C1B9CFF0A3EFF07BBC
:100FB400017AC179B990C331E4F0A304F07F007ED3
:100FC4002502195390C1B4E06401600302109690A5
:100FD400C1BBE0FEA3E0FF90C306EEF0A3EFF04E2A
:100FE400700A90C1BBF0A37405F0800E90C1BCE000
:100FF40024FFF090C1BBE034FFF090C1BBE0FEA33E
:10100400E0FF7C007D0A124210AA06AB0790C1B92A
:10101400E0FEA3E0FF7D64124210EF2BFFEE3AFEE8
:1010240090C1BEE02FFF90C1BDE03E90C308F0A385
:10103400EFF090C308E0FEA3E0FFD39432EE9400F7
:10104400502CEF9400EE9400402490C1BBE0FFA329
:10105400E090C260CFF0A3EFF07B017AC179BB903E
:10106400C331E4F0A304F07F107E2502195390C32A
:1010740006E0FFA3E090C1BBCFF0A3EFF07B017AC1
:10108400C179BB90C331E4F0A304F07F107E250244
:10109400195390C1B4E064026003022F7C90C1BD77
:1010A400E0FEA3E0FF90C306EEF0A3EFF04E700A5B
:1010B40090C1BDF0A37409F0800E90C1BEE024FF7E
:1010C400F090C1BDE034FFF090C1BBE0FEA3E0FFAF
:1010D4007C007D0A124210AA06AB0790C1B9E0FE5B
:1010E400A3E0FF7D64124210EF2BFFEE3AFE90C1A5
:1010F400BDE0FCA3E0FD2FFFEC3E90C308F0A3EF9E
:10110400F090C308E0FEA3E0FFD39432EE940050C5
:1011140025EF9400EE9400401D90C24BECF0A3ED3B
:10112400F07B017AC179BD90C331E4F0A304F07F70
:10113400207E2502195390C306E0FFA3E090C1BDB1
:10114400CFF0A3EFF07B017AC179BD90C331E4F015
:10115400A304F07F207E2502195390C295E0FF90EE
:10116400C222E06F60030212CE90C1B4E0600302B9
:10117400122690C26AE0FEA3E0FF90C306EEF0A33D
:10118400EFF04E701D90C214E07002A3E090C26AAA
:101194006008E4F0A3743BF08016E4F0A3743CF020
:1011A400800E90C26BE024FFF090C26AE034FFF03E
:1011B40090C26AE0FEA3E0FF7C007D3C12421090E6
:1011C400C215E02FFF90C214E03E90C308F0A3EFD5
:1011D400F090C308E0FEA3E0FFD39410EE940E5009
:1011E4001DEF9400EE940040157B017AC2796A9059
:1011F400C331E4F0A304F07F507E2802195390C356
:1012040006E0FFA3E090C26ACFF0A3EFF07B017A7F
:10121400C2796A90C331E4F0A304F07F507E2802BF
:10122400195390C1B4E064016003022F7C90C2148E
:10123400E0FEA3E0FF90C306EEF0A3EFF04E700AC9
:1012440090C214F0A3743BF0800E90C215E024FF0A
:10125400F090C214E034FFF090C26AE0FEA3E0FF15
:101264007C007D3C12421090C215E02FFF90C21406
:10127400E03E90C308F0A3EFF090C308E0FEA3E0C3
:10128400FFD39410EE940E501DEF9400EE940040A2
:10129400157B017AC2791490C331E4F0A304F07F82
:1012A400607E2802195390C306E0FFA3E090C214A5
:1012B400CFF0A3EFF07B017AC2791490C331E4F04C
:1012C400A304F07F607E2802195390C276E0FF9059
:1012D400C222E0B5073C90C1B4E06003022F7CD386
:1012E40090C23BE0940190C23AE094005003022F74
:1012F4007CA3E024FFF090C23AE034FFF07B017A53
:10130400C2793A90C331E4F0A304F07F207E29022D
:10131400195390C21AE0FF90C222E06F6003022FBB
:101324007C90C1B8E06401600302156B90C1B4E025
:1013340060030213ED90C27BE0FEA3E0FF90C306BE
:10134400EEF0A3EFF04E700A90C27BF0A37409F0A4
:10135400800E90C27CE024FFF090C27BE034FFF06A
:1013640090C21FE0FEA3E0FF7C007D0A124210AA97
:1013740006AB0790C253E0FEA3E0FF7D6412421067
:10138400EF2BFFEE3AFE90C27CE02FFF90C27BE091
:101394003E90C308F0A3EFF090C308E0FEA3E0FF83
:1013A400D394C8EE9400501DEF9400EE94004015C1
:1013B4007B017AC2797B90C331E4F0A304F07F20EF
:1013C4007E2802195390C306E0FFA3E090C27BCFAE
:1013D400F0A3EFF07B017AC2797B90C331E4F0A3F0
:1013E40004F07F207E2802195390C1B4E0640160A8
:1013F400030214AC90C21FE0FEA3E0FF90C306EE0C
:10140400F0A3EFF04E700A90C21FF0A37409F080AD
:101414000E90C220E024FFF090C21FE034FFF09051
:10142400C21FE0FEA3E0FF7C007D0A124210AA0660
:10143400AB0790C253E0FEA3E0FF7D64124210EFBD
:101444002BFFEE3AFE90C27CE02FFF90C27BE03E81
:1014540090C308F0A3EFF090C308E0FEA3E0FFD32D
:1014640094C8EE9400501DEF9400EE940040157B58
:10147400017AC2791F90C331E4F0A304F07F107E97
:101484002802195390C306E0FFA3E090C21FCFF0D7
:10149400A3EFF07B017AC2791F90C331E4F0A30477
:1014A400F07F107E2802195390C1B4E064026003F7
:1014B400022F7C90C253E0FEA3E0FF90C306EEF03F
:1014C400A3EFF04E700A90C253F0A37402F0800EA2
:1014D40090C254E024FFF090C253E034FFF090C275
:1014E4001FE0FEA3E0FF7C007D0A124210AA06ABB7
:1014F4000790C253E0FEA3E0FF7D64124210EF2B7D
:10150400FFEE3AFE90C27CE02FFF90C27BE03E905B
:10151400C308F0A3EFF090C308E0FEA3E0FFD39468
:10152400C8EE9400501DEF9400EE940040157B012A
:101534007AC2795390C331E4F0A304F07F007E288B
:1015440002195390C306E0FFA3E090C253CFF0A367
:10155400EFF07B017AC2795390C331E4F0A304F035
:101564007F007E2802195390C1B8E0B40233D390AF
:10157400C23BE0940190C23AE094005003022F7CF5
:10158400A3E024FFF090C23AE034FFF07B017AC27A
:10159400793A90C331E4F0A304F07F307E29021934
:1015A4005390C1B8E0640360030217EB90C1B4E048
:1015B400600302166D90C26CE0FEA3E0FF90C306C8
:1015C400EEF0A3EFF04E700A90C26CF0A37409F031
:1015D400800E90C26DE024FFF090C26CE034FFF006
:1015E40090C29FE0FEA3E0FF7C007D0A124210AA95
:1015F40006AB0790C231E0FEA3E0FF7D6412421007
:10160400EF2BFFEE3AFE90C26DE02FFF90C26CE02C
:101614003E90C308F0A3EFF090C308E0FEA3E0FF00
:10162400D394C8EE9400501DEF9400EE940040153E
:101634007B017AC2796C90C331E4F0A304F07F900B
:101644007E2802195390C306E0FFA3E090C26CCF3A
:10165400F0A3EFF07B017AC2796C90C331E4F0A37C
:1016640004F07F907E2802195390C1B4E0640160B5
:101674000302172C90C29FE0FEA3E0FF90C306EE86
:10168400F0A3EFF04E700A90C29FF0A37409F080AB
:101694000E90C2A0E024FFF090C29FE034FFF090CF
:1016A400C29FE0FEA3E0FF7C007D0A124210AA065E
:1016B400AB0790C231E0FEA3E0FF7D64124210EF5D
:1016C4002BFFEE3AFE90C26DE02FFF90C26CE03E1D
:1016D40090C308F0A3EFF090C308E0FEA3E0FFD3AB
:1016E40094C8EE9400501DEF9400EE940040157BD6
:1016F400017AC2799F90C331E4F0A304F07F807E25
:101704002802195390C306E0FFA3E090C29FCFF0D4
:10171400A3EFF07B017AC2799F90C331E4F0A30474
:10172400F07F807E2802195390C1B4E06402600304
:10173400022F7C90C231E0FEA3E0FF90C306EEF0DE
:10174400A3EFF04E700A90C231F0A37402F0800E41
:1017540090C232E024FFF090C231E034FFF090C236
:101764009FE0FEA3E0FF7C007D0A124210AA06ABB4
:101774000790C231E0FEA3E0FF7D64124210EF2B1C
:10178400FFEE3AFE90C26DE02FFF90C26CE03E90F7
:10179400C308F0A3EFF090C308E0FEA3E0FFD394E6
:1017A400C8EE9400501DEF9400EE940040157B01A8
:1017B4007AC2793190C331E4F0A304F07F707E28BB
:1017C40002195390C306E0FFA3E090C231CFF0A307
:1017D400EFF07B017AC2793190C331E4F0A304F0D5
:1017E4007F707E2802195390C1B8E064046003023C
:1017F4002F7C90C1B4E060030218AF90C26AE0FE8F
:10180400A3E0FF90C306EEF0A3EFF04E701D90C26C
:1018140014E07002A3E090C26A6008E4F0A3743B91
:10182400F08016E4F0A3743CF0800E90C26BE024C8
:10183400FFF090C26AE034FFF090C26AE0FEA3E0D9
:10184400FF7C007D3C12421090C215E02FFF90C235
:1018540014E03E90C308F0A3EFF090C308E0FEA3A9
:10186400E0FFD39410EE940E501DEF9400EE94001C
:1018740040157B017AC2796A90C331E4F0A304F085
:101884007F507E2802195390C306E0FFA3E090C264
:101894006ACFF0A3EFF07B017AC2796A90C331E496
:1018A400F0A304F07F507E2802195390C1B4E06481
:1018B400016003022F7C90C214E0FEA3E0FF90C3FA
:1018C40006EEF0A3EFF04E700A90C214F0A3743B3E
:1018D400F0800E90C215E024FFF090C214E034FFB3
:1018E400F090C26AE0FEA3E0FF7C007D3C1242104F
:1018F40090C215E02FFF90C214E03E90C308F0A3FD
:10190400EFF090C308E0FEA3E0FFD39410EE940E32
:10191400501CEF9400EE940040147B017AC27914B9
:1019240090C331E4F0A304F07F607E28802190C34B
:1019340006E0FFA3E090C214CFF0A3EFF07B017A9E
:10194400C2791490C331E4F0A304F07F607E2812BE
:10195400591E022F7C90C1B7E06401702890C1BF6A
:10196400E07002A3E06003022F7C1274D990C1B826
:10197400E0B401057404F0800690C1B8E014F012DC
:101984006E08022F7C90C222E0FFD394014008EF3E
:10199400D394075002804490C279E0FF90C222E0C1
:1019A400B5070B90C281E0FF90C222F0803290C153
:1019B400B5E06401703090C255E0FF90C222E0B5FA
:1019C400070590C268803B90C22CE0FF90C222E0E1
:1019D400B5070590C255802A90C222E014F0E0FFBA
:1019E400127B72022F7C90C1B6E0B4011D90C2211B
:1019F400E0FFA3E0B5070590C255800690C222E03F
:101A040014F0E0FF128043022F7C90C235E0FF9077
:101A1400C222E0B5071490C239E070057407F08063
:101A24000690C239E014F012620F022F7C90C1BFFD
:101A3400E07004A3E064016003022E8790C29AE080
:101A4400FF90C222E06F6003021C7A90C1B4E06090
:101A540003021AFA90C27BE0FEA3E0FF90C306EEF5
:101A6400F0A3EFF064094E601090C27CE004F070C3
:101A74000F90C27BE004F08007E490C27BF0A3F0F7
:101A840090C21FE0FEA3E0FF7C007D0A124210AA70
:101A940006AB0790C253E0FEA3E0FF7D6412421040
:101AA400EF2BFFEE3AFE90C27CE02FFF90C27BE06A
:101AB4003E90C308F0A3EFF090C308E0FEA3E0FF5C
:101AC400D394C8EE9400500AEF9400EE94004002C0
:101AD400800F90C306E0FFA3E090C27BCFF0A3EF9A
:101AE400F07B017AC2797B90C331E4F0A304F074F3
:101AF40020FFFE022E8190C1B4E064016003021B4A
:101B0400BA90C21FE0FEA3E0FF90C306EEF0A3EF7D
:101B1400F064094E601090C220E004F0700F90C28F
:101B24001FE004F08007E490C21FF0A3F090C21FEE
:101B3400E0FEA3E0FF7C007D0A124210AA06AB0778
:101B440090C253E0FEA3E0FF7D64124210EF2BFF2E
:101B5400EE3AFE90C27CE02FFF90C27BE03E90C341
:101B640008F0A3EFF090C308E0FEA3E0FFD394C80D
:101B7400EE9400501DEF9400EE940040157B017A22
:101B8400C2791F90C331E4F0A304F07F107E2002D9
:101B94002E8190C306E0FFA3E090C21FCFF0A3EF15
:101BA400F07B017AC2791F90C331E4F0A304F07F83
:101BB400107E20022E8190C1B4E064026003022FE3
:101BC4007C90C253E0FEA3E0FF90C306EEF0A3EFC7
:101BD400F064024E601090C254E004F0700F90C2A2
:101BE40053E004F08007E490C253F0A3F090C21FC6
:101BF400E0FEA3E0FF7C007D0A124210AA06AB07B8
:101C040090C253E0FEA3E0FF7D64124210EF2BFF6D
:101C1400EE3AFE90C27CE02FFF90C27BE03E90C380
:101C240008F0A3EFF090C308E0FEA3E0FFD394C84C
:101C3400EE9400501DEF9400EE940040157B017A61
:101C4400C2795390C331E4F0A304F07F007E2002F4
:101C54002E8190C306E0FFA3E090C253CFF0A3EF20
:101C6400F07B017AC2795390C331E4F0A304F07F8E
:101C7400007E20022E8190C2A1E0FF90C222E06F7C
:101C84006003021DD890C1B4E06003021D3090C20D
:101C94006EE0FEA3E0FF90C306EEF0A3EFF064094C
:101CA4004E601090C26FE004F0700F90C26EE004BA
:101CB400F08007E490C26EF0A3F090C2A2E0FEA30D
:101CC400E0FF7C007D0A12421090C26FE02FFF906B
:101CD400C26EE03E90C308F0A3EFF090C308E0FEAC
:101CE400A3E0FFD39450EE9400501DEF9400EE94C3
:101CF4000040157B017AC2796E90C331E4F0A304ED
:101D0400F07F207E21022E8190C306E0FFA3E090A5
:101D1400C26ECFF0A3EFF07B017AC2796E90C3312B
:101D2400E4F0A304F07F207E21022E8190C1B4E070
:101D340064016003022F7C90C2A2E0FEA3E0FF9046
:101D4400C306EEF0A3EFF064084E700890C2A2F050
:101D5400A3F0800E90C2A3E004F0700690C2A2E04B
:101D640004F090C2A2E0FEA3E0FF7C007D0A1242D0
:101D74001090C26FE02FFF90C26EE03E90C308F057
:101D8400A3EFF090C308E0FEA3E0FFD39450EE94D9
:101D940000501DEF9400EE940040157B017AC27947
:101DA400A290C331E4F0A304F07F107E21022E81BF
:101DB40090C306E0FFA3E090C2A2CFF0A3EFF07BB4
:101DC400017AC279A290C331E4F0A304F07F107EBB
:101DD40021022E8190C22AE0FF90C222E06F6003AC
:101DE40002204990C1B4E06003021EB390C1B9E07F
:101DF400FEA3E0FF90C306EEF0A3EFF064094E707B
:101E04000890C1B9F0A3F0800E90C1BAE004F0705C
:101E14000690C1B9E004F090C1BBE0FEA3E0FF7CF2
:101E2400007D0A124210AA06AB0790C1B9E0FEA3D6
:101E3400E0FF7D64124210EF2BFFEE3AFE90C1BE2C
:101E4400E02FFF90C1BDE03E90C308F0A3EFF090F7
:101E5400C308E0FEA3E0FFD39432EE9400502CEFCD
:101E64009400EE9400402490C1B9E0FFA3E090C236
:101E740089CFF0A3EFF07B017AC179B990C331E443
:101E8400F0A304F07F007E22022E8190C306E0FFBF
:101E9400A3E090C1B9CFF0A3EFF07B017AC179B987
:101EA40090C331E4F0A304F07F007E22022E8190DF
:101EB400C1B4E064016003021F8190C1BBE0FEA3D2
:101EC400E0FF90C306EEF0A3EFF064054E700890B7
:101ED400C1BBF0A3F0800E90C1BCE004F07006908A
:101EE400C1BBE004F090C1BBE0FEA3E0FF7C007D39
:101EF4000A124210AA06AB0790C1B9E0FEA3E0FFA4
:101F04007D64124210EF2BFFEE3AFE90C1BEE02F2B
:101F1400FF90C1BDE03E90C308F0A3EFF090C3086A
:101F2400E0FEA3E0FFD39432EE9400502CEF940033
:101F3400EE9400402490C1BBE0FFA3E090C25ACFCE
:101F4400F0A3EFF07B017AC179BB90C331E4F0A335
:101F540004F07F107E22022E8190C306E0FFA3E0EE
:101F640090C1BBCFF0A3EFF07B017AC179BB90C3E2
:101F740031E4F0A304F07F107E22022E8190C1B4DC
:101F8400E064026003022F7C90C1BDE0FEA3E0FF89
:101F940090C306EEF0A3EFF064094E700890C1BD43
:101FA400F0A3F0800E90C1BEE004F0700690C1BDB5
:101FB400E004F090C1BBE0FEA3E0FF7C007D0A12C8
:101FC4004210AA06AB0790C1B9E0FEA3E0FF7D640E
:101FD400124210EF2BFFEE3AFE90C1BDE0FCA3E0ED
:101FE400FD2FFFEC3E90C308F0A3EFF090C308E090
:101FF400FEA3E0FFD39432EE94005025EF9400EE5C
:102004009400401D90C245ECF0A3EDF07B017AC131
:1020140079BD90C331E4F0A304F07F207E22022E28
:102024008190C306E0FFA3E090C1BDCFF0A3EFF021
:102034007B017AC179BD90C331E4F0A304F07F2021
:102044007E22022E8190C282E0FF90C222E06F6065
:102054000302229690C1B4E0600302211690C26C80
:10206400E0FEA3E0FF90C306EEF0A3EFF064094E98
:10207400601090C26DE004F0700F90C26CE004F048
:102084008007E490C26CF0A3F090C29FE0FEA3E04E
:10209400FF7C007D0A124210AA06AB0790C231E011
:1020A400FEA3E0FF7D64124210EF2BFFEE3AFE9098
:1020B400C26DE02FFF90C26CE03E90C308F0A3EF26
:1020C400F090C308E0FEA3E0FFD394C8EE94005060
:1020D4001DEF9400EE940040157B017AC2796C9058
:1020E400C331E4F0A304F07F207E23022E8190C349
:1020F40006E0FFA3E090C26CCFF0A3EFF07B017A7F
:10210400C2796C90C331E4F0A304F07F207E2302F3
:102114002E8190C1B4E0640160030221D690C29F75
:10212400E0FEA3E0FF90C306EEF0A3EFF064094ED7
:10213400601090C2A0E004F0700F90C29FE004F021
:102144008007E490C29FF0A3F090C29FE0FEA3E05A
:10215400FF7C007D0A124210AA06AB0790C231E050
:10216400FEA3E0FF7D64124210EF2BFFEE3AFE90D7
:10217400C26DE02FFF90C26CE03E90C308F0A3EF65
:10218400F090C308E0FEA3E0FFD394C8EE9400509F
:102194001DEF9400EE940040157B017AC2799F9064
:1021A400C331E4F0A304F07F107E23022E8190C398
:1021B40006E0FFA3E090C29FCFF0A3EFF07B017A8B
:1021C400C2799F90C331E4F0A304F07F107E230210
:1021D4002E8190C1B4E064026003022F7C90C2316E
:1021E400E0FEA3E0FF90C306EEF0A3EFF064024E1E
:1021F400601090C232E004F0700F90C231E004F03D
:102204008007E490C231F0A3F090C29FE0FEA3E007
:10221400FF7C007D0A124210AA06AB0790C231E08F
:10222400FEA3E0FF7D64124210EF2BFFEE3AFE9016
:10223400C26DE02FFF90C26CE03E90C308F0A3EFA4
:10224400F090C308E0FEA3E0FFD394C8EE940050DE
:102254001DEF9400EE940040157B017AC279319011
:10226400C331E4F0A304F07F007E23022E8190C3E7
:1022740006E0FFA3E090C231CFF0A3EFF07B017A38
:10228400C2793190C331E4F0A304F07F007E2302CD
:102294002E8190C299E0FF90C222E06F6003022376
:1022A400F390C1B4E0600302234B90C23FE0FEA36D
:1022B400E0FF90C306EEF0A3EFF064094E700890BF
:1022C400C23FF0A3F0800E90C240E004F07006908C
:1022D400C23FE004F090C296E0FEA3E0FF7C007DE4
:1022E4000A12421090C240E02FFF90C23FE03E909D
:1022F400C308F0A3EFF090C308E0FEA3E0FFD3947B
:1023040050EE9400501DEF9400EE940040157B01B4
:102314007AC2793F90C331E4F0A304F07F207E2495
:10232400022E8190C306E0FFA3E090C23FCFF0A34A
:10233400EFF07B017AC2793F90C331E4F0A304F05B
:102344007F207E24022E8190C1B4E06401600302E8
:102354002F7C90C296E0FEA3E0FF90C306EEF0A3AC
:10236400EFF064084E700890C296F0A3F0800E90CF
:10237400C297E004F0700690C296E004F090C29612
:10238400E0FEA3E0FF7C007D0A12421090C240E010
:102394002FFF90C23FE03E90C308F0A3EFF090C33C
:1023A40008E0FEA3E0FFD39450EE9400501DEF9498
:1023B40000EE940040157B017AC2799690C331E413
:1023C400F0A304F07F107E24022E8190C306E0FF68
:1023D400A3E090C296CFF0A3EFF07B017AC2799686
:1023E40090C331E4F0A304F07F107E24022E819088
:1023F400C21EE0FF90C222E06F600302266490C117
:10240400B4E060030224CE90C1B9E0FEA3E0FF90E3
:10241400C306EEF0A3EFF064094E700890C1B9F062
:10242400A3F0800E90C1BAE004F0700690C1B9E048
:1024340004F090C1BBE0FEA3E0FF7C007D0A1242E1
:1024440010AA06AB0790C1B9E0FEA3E0FF7D6412B9
:102454004210EF2BFFEE3AFE90C1BEE02FFF90C179
:10246400BDE03E90C308F0A3EFF090C308E0FEA3E4
:10247400E0FFD39432EE9400502CEF9400EE9400DD
:10248400402490C1B9E0FFA3E090C28FCFF0A3EF46
:10249400F07B017AC179B990C331E4F0A304F07FF1
:1024A400007E25022E8190C306E0FFA3E090C1B90F
:1024B400CFF0A3EFF07B017AC179B990C331E4F096
:1024C400A304F07F007E25022E8190C1B4E0640154
:1024D400600302259C90C1BBE0FEA3E0FF90C3060D
:1024E400EEF0A3EFF064054E700890C1BBF0A3F0CA
:1024F400800E90C1BCE004F0700690C1BBE004F013
:1025040090C1BBE0FEA3E0FF7C007D0A124210AA4A
:1025140006AB0790C1B9E0FEA3E0FF7D6412421050
:10252400EF2BFFEE3AFE90C1BEE02FFF90C1BDE05D
:102534003E90C308F0A3EFF090C308E0FEA3E0FFD1
:10254400D39432EE9400502CEF9400EE9400402487
:1025540090C1BBE0FFA3E090C260CFF0A3EFF07B9B
:10256400017AC179BB90C331E4F0A304F07F107EFB
:1025740025022E8190C306E0FFA3E090C1BBCFF0FB
:10258400A3EFF07B017AC179BB90C331E4F0A304DB
:10259400F07F107E25022E8190C1B4E064026003B6
:1025A400022F7C90C1BDE0FEA3E0FF90C306EEF0D5
:1025B400A3EFF064094E700890C1BDF0A3F0800E43
:1025C40090C1BEE004F0700690C1BDE004F090C17B
:1025D400BBE0FEA3E0FF7C007D0A124210AA06AB1A
:1025E4000790C1B9E0FEA3E0FF7D64124210EF2B17
:1025F400FFEE3AFE90C1BDE0FCA3E0FD2FFFEC3EF0
:1026040090C308F0A3EFF090C308E0FEA3E0FFD36B
:102614009432EE94005025EF9400EE9400401D9007
:10262400C24BECF0A3EDF07B017AC179BD90C331CC
:10263400E4F0A304F07F207E25022E8190C306E0FF
:10264400FFA3E090C1BDCFF0A3EFF07B017AC17985
:10265400BD90C331E4F0A304F07F207E25022E81D7
:1026640090C295E0FF90C222E06F60030227EA90D7
:10267400C1B4E0600302274290C26AE0FEA3E0FF17
:1026840090C306EEF0A3EFF0643B4E701D90C214AD
:10269400E07002A3E06003E4801C90C26BE004F0ED
:1026A400702A90C26AE004F0802290C26AE070044A
:1026B400A3E0643C700890C26AF0A3F0800E90C25C
:1026C4006BE004F0700690C26AE004F090C26AE025
:1026D400FEA3E0FF7C007D3C12421090C215E02F67
:1026E400FF90C214E03E90C308F0A3EFF090C3083B
:1026F400E0FEA3E0FFD39410EE940E501DEF94007F
:10270400EE940040157B017AC2796A90C331E4F0FB
:10271400A304F07F507E28022E8190C306E0FFA31D
:10272400E090C26ACFF0A3EFF07B017AC2796A909D
:10273400C331E4F0A304F07F507E28022E8190C1BF
:10274400B4E064016003022F7C90C214E0FEA3E0B5
:10275400FF90C306EEF0A3EFF0643B4E700890C206
:1027640014F0A3F0800E90C215E004F0700690C23D
:1027740014E004F090C26AE0FEA3E0FF7C007D3C1C
:1027840012421090C215E02FFF90C214E03E90C395
:1027940008F0A3EFF090C308E0FEA3E0FFD3941089
:1027A400EE940E501DEF9400EE940040157B017AD8
:1027B400C2791490C331E4F0A304F07F607E280250
:1027C4002E8190C306E0FFA3E090C214CFF0A3EFE4
:1027D400F07B017AC2791490C331E4F0A304F07F52
:1027E400607E28022E8190C276E0FF90C222E0B57E
:1027F4000733C390C23BE0941490C23AE094004083
:1028040003022F7CA3E004F0700690C23AE004F0C7
:102814007B017AC2793A90C331E4F0A304F07F20BB
:102824007E29022E8190C21AE0FF90C222E06F60DE
:1028340003022F7C90C1B8E064016003022A8190F6
:10284400C1B4E0600302290190C27BE0FEA3E0FF73
:1028540090C306EEF0A3EFF064094E601090C27CC2
:10286400E004F0700F90C27BE004F08007E490C2B3
:102874007BF0A3F090C21FE0FEA3E0FF7C007D0A82
:10288400124210AA06AB0790C253E0FEA3E0FF7DFC
:1028940064124210EF2BFFEE3AFE90C27CE02FFF51
:1028A40090C27BE03E90C308F0A3EFF090C308E031
:1028B400FEA3E0FFD394C8EE9400501DEF9400EE05
:1028C400940040157B017AC2797B90C331E4F0A374
:1028D40004F07F207E28022E8190C306E0FFA3E04F
:1028E40090C27BCFF0A3EFF07B017AC2797B90C3D7
:1028F40031E4F0A304F07F207E28022E8190C1B43D
:10290400E0640160030229C190C21FE0FEA3E0FF5E
:1029140090C306EEF0A3EFF064094E601090C2205D
:10292400E004F0700F90C21FE004F08007E490C24E
:102934001FF0A3F090C21FE0FEA3E0FF7C007D0A1D
:10294400124210AA06AB0790C253E0FEA3E0FF7D3B
:1029540064124210EF2BFFEE3AFE90C27CE02FFF90
:1029640090C27BE03E90C308F0A3EFF090C308E070
:10297400FEA3E0FFD394C8EE9400501DEF9400EE44
:10298400940040157B017AC2791F90C331E4F0A30F
:1029940004F07F107E28022E8190C306E0FFA3E09E
:1029A40090C21FCFF0A3EFF07B017AC2791F90C3CE
:1029B40031E4F0A304F07F107E28022E8190C1B48C
:1029C400E064026003022F7C90C253E0FEA3E0FFA8
:1029D40090C306EEF0A3EFF064024E601090C25470
:1029E400E004F0700F90C253E004F08007E490C25A
:1029F40053F0A3F090C21FE0FEA3E0FF7C007D0A29
:102A0400124210AA06AB0790C253E0FEA3E0FF7D7A
:102A140064124210EF2BFFEE3AFE90C27CE02FFFCF
:102A240090C27BE03E90C308F0A3EFF090C308E0AF
:102A3400FEA3E0FFD394C8EE9400501DEF9400EE83
:102A4400940040157B017AC2795390C331E4F0A31A
:102A540004F07F007E28022E8190C306E0FFA3E0ED
:102A640090C253CFF0A3EFF07B017AC2795390C3A5
:102A740031E4F0A304F07F007E28022E8190C1B8D7
:102A8400E0B4023290C23AE07004A3E0641470032C
:102A9400022F7C90C23BE004F0700690C23AE0043E
:102AA400F07B017AC2793A90C331E4F0A304F07F59
:102AB400307E29022E8190C1B8E064036003022DA8
:102AC4000390C1B4E06003022B8390C26CE0FEA3C8
:102AD400E0FF90C306EEF0A3EFF064094E6010909F
:102AE400C26DE004F0700F90C26CE004F08007E463
:102AF40090C26CF0A3F090C29FE0FEA3E0FF7C00C4
:102B04007D0A124210AA06AB0790C231E0FEA3E090
:102B1400FF7D64124210EF2BFFEE3AFE90C26DE08F
:102B24002FFF90C26CE03E90C308F0A3EFF090C377
:102B340008E0FEA3E0FFD394C8EE9400501DEF9488
:102B440000EE940040157B017AC2796C90C331E4A5
:102B5400F0A304F07F907E28022E8190C306E0FF4C
:102B6400A3E090C26CCFF0A3EFF07B017AC2796C42
:102B740090C331E4F0A304F07F907E28022E81906C
:102B8400C1B4E064016003022C4390C29FE0FEA341
:102B9400E0FF90C306EEF0A3EFF064094E601090DE
:102BA400C2A0E004F0700F90C29FE004F08007E43C
:102BB40090C29FF0A3F090C29FE0FEA3E0FF7C00D0
:102BC4007D0A124210AA06AB0790C231E0FEA3E0D0
:102BD400FF7D64124210EF2BFFEE3AFE90C26DE0CF
:102BE4002FFF90C26CE03E90C308F0A3EFF090C3B7
:102BF40008E0FEA3E0FFD394C8EE9400501DEF94C8
:102C040000EE940040157B017AC2799F90C331E4B1
:102C1400F0A304F07F807E28022E8190C306E0FF9B
:102C2400A3E090C29FCFF0A3EFF07B017AC2799F1B
:102C340090C331E4F0A304F07F807E28022E8190BB
:102C4400C1B4E064026003022F7C90C231E0FEA3B1
:102C5400E0FF90C306EEF0A3EFF064024E60109024
:102C6400C232E004F0700F90C231E004F08007E457
:102C740090C231F0A3F090C29FE0FEA3E0FF7C007D
:102C84007D0A124210AA06AB0790C231E0FEA3E00F
:102C9400FF7D64124210EF2BFFEE3AFE90C26DE00E
:102CA4002FFF90C26CE03E90C308F0A3EFF090C3F6
:102CB40008E0FEA3E0FFD394C8EE9400501DEF9407
:102CC40000EE940040157B017AC2793190C331E45F
:102CD400F0A304F07F707E28022E8190C306E0FFEB
:102CE400A3E090C231CFF0A3EFF07B017AC2793137
:102CF40090C331E4F0A304F07F707E28022E81900B
:102D0400C1B8E064046003022F7C90C1B4E06003A6
:102D1400022DDD90C26AE0FEA3E0FF90C306EEF050
:102D2400A3EFF0643B4E701D90C214E07002A3E068
:102D34006003E4801C90C26BE004F0702A90C26AC5
:102D4400E004F0802290C26AE07004A3E0643C7066
:102D54000890C26AF0A3F0800E90C26BE004F07099
:102D64000690C26AE004F090C26AE0FEA3E0FF7C31
:102D7400007D3C12421090C215E02FFF90C214E077
:102D84003E90C308F0A3EFF090C308E0FEA3E0FF79
:102D9400D39410EE940E501DEF9400EE9400401561
:102DA4007B017AC2796A90C331E4F0A304F07F50C6
:102DB4007E28022E8190C306E0FFA3E090C26ACF72
:102DC400F0A3EFF07B017AC2796A90C331E4F0A3F7
:102DD40004F07F507E28022E8190C1B4E06401602B
:102DE40003022F7C90C214E0FEA3E0FF90C306EE22
:102DF400F0A3EFF0643B4E700890C214F0A3F0808F
:102E04000E90C215E004F0700690C214E004F09035
:102E1400C26AE0FEA3E0FF7C007D3C12421090C237
:102E240015E02FFF90C214E03E90C308F0A3EFF02A
:102E340090C308E0FEA3E0FFD39410EE940E501C60
:102E4400EF9400EE940040147B017AC2791490C38D
:102E540031E4F0A304F07F607E28802190C306E073
:102E6400FFA3E090C214CFF0A3EFF07B017AC27904
:102E74001490C331E4F0A304F07F607E2812591E3D
:102E8400022F7C90C1B7E06401702A90C21AE0FF5F
:102E940090C222E06F6003022F7C1274D990C1B8F3
:102EA400E0B404057401F0800690C1B8E004F012A7
:102EB4006E08022F7C90C281E0FF90C222E0FEC324
:102EC4009F501490C279E0FFEEC39F400A90C22243
:102ED400E004F0E0FF801590C281E0FF90C222E0A0
:102EE400B5070F90C279E0FF90C222F0127B720204
:102EF4002F7C90C1B5E06401702790C268E0FF9018
:102F0400C222E0B50702802D90C255E0FF90C22294
:102F1400E0B5070590C22C803890C222E004F0800E
:102F24003090C1B6E06401702F90C23EE0FF90C2C1
:102F340022E0B5070590C255801790C255E0FF9076
:102F4400C222E0B5070590C221800690C222E004A7
:102F5400F0E0FF128043802090C235E0FF90C2224F
:102F6400E0B5071490C239E0B40704E4F080069099
:102F7400C239E004F012620F90C1B27401F07D1EF8
:102F84007C00E4FF027D3B90C1BFE07004A3E064D9
:102F940001600302332190C21AE0FF90C222E06F65
:102FA400600302314D90C1B8E06401702990C1B44E
:102FB400E004F0E06403700F126F1490C1B8E0FFF6
:102FC4007E007D6402314890C1B8E0FF7E0090C16C
:102FD400B4E0FD02314890C1B8E0B40221E490C1EC
:102FE400BFF0A3F090C1B4F090C23AE0FCA3E0FDBE
:102FF4007F047E81126F627F537E92027D8190C135
:10300400B8E06403706C90C1B4E004F0E064037051
:103014005290C1BFF0A3F090C1B4F090C29FE0FE03
:10302400A3E0FF7C007D0A124210AA06AB0790C2FF
:1030340031E0FEA3E0FF7D64124210EF2BFFEE3A75
:10304400FE90C26DE02FFF90C26CE03E90C308F08A
:10305400A3EFF07F02126F5890C1B8E0FF7E007DAD
:1030640064800C90C1B8E0FF7E0090C1B4E0FD0222
:10307400314890C1B8E064046003023B4690C1B497
:10308400E004F0E06402600302313C90C1BFF0A3AD
:10309400F090C1B4F07B017AC2796A90C32DF0A399
:1030A40004F07F507E281252657B017AC279149015
:1030B400C32DE4F0A304F07F607E2812526590C211
:1030C4006AE0FEA3E0FF7C007D3C12421090C21532
:1030D400E02FFF90C214E03E90C308F0A3EFF07B12
:1030E400017AC2791490C331E4F0A304F07F607EC6
:1030F4002812591E90C308E0FCA3E0FD7F067E81E0
:10310400126F627B017AC3790890C331E4F0A3049F
:10311400F07F007E8212591E7B017AC3790890C326
:1031240031E4F0A304F07F027E8212591E90C1B8EC
:10313400E0FF7E007D64800C90C1B8E0FF7E0090CB
:10314400C1B4E0FD7C0002635890C1B4E004F09087
:10315400C222E0FF7E0090C1B4E0FD7C0012452C49
:1031640090C29AE0FF90C222E06F701190C1B4E067
:1031740064047009126F1490C22C023ABE90C2A16A
:10318400E0FF90C222E06F704890C1B4E064037025
:103194004090C1BFF0A3F090C1B4F090C2A2E0FE91
:1031A400A3E0FF7C007D0A12421090C26FE02FFF63
:1031B40090C26EE03E90C308F0A3EFF090C308E025
:1031C400FCA3E0FD7F087E81126F6290C230023A58
:1031D400BE90C22AE0FF90C222E06F705F90C1B43B
:1031E400E06404705790C1BFF0A3F090C1B4F090B4
:1031F400C29FE0FEA3E0FF7C007D0A124210AA06F3
:10320400AB0790C231E0FEA3E0FF7D64124210EFF1
:103214002BFFEE3AFE90C26DE02FFF90C26CE03EB1
:1032240090C308F0A3EFF090C308E0FCA3E0FD7F97
:10323400027E81126F6290C268023ABE90C282E03E
:10324400FF90C222E06F704890C1B4E06403704004
:1032540090C1BFF0A3F090C1B4F090C296E0FEA379
:10326400E0FF7C007D0A12421090C240E02FFF90E4
:10327400C23FE03E90C308F0A3EFF090C308E0FC27
:10328400A3E0FD7F0A7E81126F6290C221023ABEE2
:1032940090C299E0FF90C222E06F704890C1B4E000
:1032A4006403704090C1BFF0A3F090C1B4F090C229
:1032B4006AE0FEA3E0FF7C007D3C12421090C21540
:1032C400E02FFF90C214E03E90C308F0A3EFF0900B
:1032D400C308E0FCA3E0FD7F067E81126F6290C20A
:1032E4002B023ABE90C21EE0FF90C222E06F600340
:1032F400023B4690C1B4E064026003023B4690C1C5
:10330400BFF0A3F090C1B4F090C23AE0FCA3E0FD9A
:103314007F047E81126F6290C23E023ABE90C22840
:10332400E0B4010302729690C279E0FF90C222E0F9
:103334006F60030235347B017AC3790890C32DF0A2
:10334400A304F07F007E8112526590C308E0FAA3C3
:10335400E0FB7C007D64FFAE0212422290C253EE79
:10336400F0A3EFF07C007D0AAF03AE021242227C90
:10337400007D0A12422290C21FECF0A3EDF090C32C
:1033840008E0FEA3E0FF7C007D0A12422290C27B8B
:10339400ECF0A3EDF07B017AC2795390C331E4F0F1
:1033A400A304F07F007E2012591E7B017AC2791F8C
:1033B40090C331E4F0A304F07F107E2012591E7BE9
:1033C400017AC2797B90C331E4F0A304F07420FF46
:1033D400FE12591E7B017AC3790890C32DE4F0A331
:1033E40004F07F027E8112526590C308E0FAA3E0E4
:1033F400FB7C007D64FFAE0212422290C231EEF0EB
:10340400A3EFF07C007D0AAF03AE021242227C00DF
:103414007D0A12422290C29FECF0A3EDF090C30803
:10342400E0FEA3E0FF7C007D0A12422290C26CEC15
:10343400F0A3EDF07B017AC2793190C331E4F0A3BB
:1034440004F07F607E2012591E7B017AC2799F901E
:10345400C331E4F0A304F07F707E2012591E7B0177
:103464007AC2796C90C331E4F0A304F07F807E20AB
:1034740012591E7B017AC3790890C32DE4F0A3741A
:1034840002F07F067E8112526590C308E0FAA3E041
:10349400FB7C007D3CFFAE0212422290C26AEEF039
:1034A400A3EFF07C007D3CAF03AE0212422290C237
:1034B40014ECF0A3EDF07B017AC2796A90C331E495
:1034C400F0A37402F07F107E2112591E7B017AC290
:1034D400791490C331E4F0A37402F07F207E2112AA
:1034E400591E7B017AC2793A90C32DE4F0A3740289
:1034F400F07F047E811252657B017AC2793A90C3CF
:1035040031E4F0A37402F07F507E2012591EE4903F
:10351400C308F0A3F090C1B804F0126E0B90C21A65
:10352400E0FF90C222F0127B7290C1B77401F022C6
:1035340090C27AE0FF90C222E0B5071290C1B57440
:1035440001F090C22CE0FF90C222F0027B7290C284
:103554007DE0FF90C222E0B5070C90C1B67401F083
:1035640090C221023ABE90C27EE0FF90C222E06F78
:10357400600302360C90C1BFF0A304F0FB7AC37958
:103584000890C32DE4F0A304F07F067E81125265F7
:1035940090C308E0FAA3E0FB7C007D3CFFAE02127E
:1035A400422290C26AEEF0A3EFF07C007D3CAF03B0
:1035B400AE0212422290C214ECF0A3EDF07B017A29
:1035C400C2796A90C331E4F0A304F07F507E2812DC
:1035D400591E7B017AC2791490C331E4F0A304F03C
:1035E4007F607E2812591E90C222E0FF127B727FF8
:1035F400937E91127E657F037E92127E4A7F7012C3
:103604007D5F90C295023ABE90C27FE0FF90C222D5
:10361400E06F704790C1BFF0A304F0FB7AC2793A1F
:1036240090C32DE4F0A304F07F047E811252657BE5
:10363400017AC2793A90C331E4F0A304F07F207E8A
:103644002912591E7F137E92127E65E4FDFC7F8051
:103654007E39127D6490C276023ABE90C280E0FF49
:1036640090C222E06F600302372390C1B704F09048
:10367400C30AE07004A3E06401700590C2298025A8
:1036840090C30CE07004A3E06401700590C2238031
:103694001490C310E07004A3E06401700590C21D8F
:1036A400800390C229E0FF12804390C29EE0600331
:1036B400023B467B017AC3790890C32DF0A37402C0
:1036C400F07F067E8112526590C308E0FAA3E0FB06
:1036D4007C007D3CFFAE0212422290C26AEEF0A34F
:1036E400EFF07C007D3CAF03AE0212422290C21484
:1036F400ECF0A3EDF07B017AC2796A90C331E4F077
:10370400A304F07F507E2812591E7B017AC27914DB
:1037140090C331E4F0A304F07F607E2802591E9028
:10372400C281E0FF90C222E0B5071590C235E0FFE8
:1037340090C222F090C2287401F0127B7202620FD0
:1037440090C22CE0FF90C222E06F60030237D99050
:10375400C1BFF0A304F090C289E0FFA3E090C1B917
:10376400CFF0A3EFF090C25AE0FFA3E090C1BBCF2B
:10377400F0A3EFF090C245E0FFA3E090C1BDCFF00D
:10378400A3EFF07B017AC179B990C331E4F0A304CB
:10379400F07F507E2112591E7B017AC179BB90C300
:1037A40031E4F0A304F07F607E2112591E7B017A7C
:1037B400C179BD90C331E4F0A304F07F707E21127F
:1037C400591E124522E4FDFC7F807E21127D649007
:1037D400C29A023ABE90C230E0FF90C222E06F600B
:1037E4000302386790C1BFF0A304F090C289E0FFE0
:1037F400A3E090C1B9CFF0A3EFF090C25AE0FFA3C9
:10380400E090C1BBCFF0A3EFF090C245E0FFA3E08E
:1038140090C1BDCFF0A3EFF07B017AC179B990C319
:1038240031E4F0A304F07F007E2212591E7B017A5A
:10383400C179BB90C331E4F0A304F07F107E22125F
:10384400591E7B017AC179BD90C331E4F0A304F021
:103854007F207E2212591E124522127D5D90C2A144
:10386400023ABE90C268E0FF90C222E06F60030299
:1038740038F590C1BFF0A304F090C289E0FFA3E043
:1038840090C1B9CFF0A3EFF090C25AE0FFA3E0904B
:10389400C1BBCFF0A3EFF090C245E0FFA3E090C11D
:1038A400BDCFF0A3EFF07B017AC179B990C331E4C5
:1038B400F0A304F07F007E2212591E7B017AC179A5
:1038C400BB90C331E4F0A304F07F107E2212591E92
:1038D4007B017AC179BD90C331E4F0A304F07F2069
:1038E4007E2212591E124522127D5D90C22A023A8E
:1038F400BE90C221E0FFA3E06F600302398190C152
:10390400BFF0A304F090C289E0FFA3E090C1B9CF57
:10391400F0A3EFF090C25AE0FFA3E090C1BBCFF058
:10392400A3EFF090C245E0FFA3E090C1BDCFF0A3A8
:10393400EFF07B017AC179B990C331E4F0A304F0CC
:103944007F007E2212591E7B017AC179BB90C3315C
:10395400E4F0A304F07F107E2212591E7B017AC189
:1039640079BD90C331E4F0A304F07F207E22125984
:103974001E124522127D5D90C282023ABE90C22B75
:10398400E0FF90C222E06F6003023A0F90C1BFF0E3
:10399400A304F090C289E0FFA3E090C1B9CFF0A3E3
:1039A400EFF090C25AE0FFA3E090C1BBCFF0A3EFC9
:1039B400F090C245E0FFA3E090C1BDCFF0A3EFF0CB
:1039C4007B017AC179B990C331E4F0A304F07F009C
:1039D4007E2212591E7B017AC179BB90C331E4F077
:1039E400A304F07F107E2212591E7B017AC179BD97
:1039F40090C331E4F0A304F07F207E2212591E12FA
:103A04004522127D5D90C299023ABE90C23EE0FF0B
:103A140090C222E06F6003023A9C90C1BFF0A304FD
:103A2400F090C289E0FFA3E090C1B9CFF0A3EFF01A
:103A340090C25AE0FFA3E090C1BBCFF0A3EFF09097
:103A4400C245E0FFA3E090C1BDCFF0A3EFF07B013E
:103A54007AC179B990C331E4F0A304F07F007E22E7
:103A640012591E7B017AC179BB90C331E4F0A304DF
:103A7400F07F107E2212591E7B017AC179BD90C35A
:103A840031E4F0A304F07F207E2212591E12452255
:103A9400127D5D90C21E803390C255E0FF90C22219
:103AA400E0B5071890C1B5E0B40107E4F090C27A1C
:103AB4008008E490C1B6F090C27D800F90C229E0E6
:103AC400FF90C222E06F707A90C280E0FF028043D0
:103AD40090C228E06401703690C270F090C298F0F1
:103AE40090C284F090C213F090C238F090C271F08A
:103AF40090C251F090C277F090C252F090C278F028
:103B040090C228F090C281E0FF128043802F90C2BF
:103B14001AE0FF90C222E0B5072390C1BFE0700213
:103B2400A3E0701990C1B7F090C1BFF0A3F090C1A9
:103B3400B8F090C279E0FF1280431274D9E490C2C5
:023B440069F026
:013B4600225C
:10506D0041C0460041C0490042C047000047C03F13
:07507D0018091203091E00CF
:107B30007B017AC0793F90C331E4F0A37404F07FF5
:107B4000107E0012591E90C3AE7410F0A3E4F0A38F
:107B5000F0A3F0FFFEFDFC126A857B017AC0794A32
:0D7B6000E490C32DF0A3F0FF7E10025265EB
:105C44007F007E2012000090C046EFF090C049E033
:105C54006F7003025DC790C046E090C049F07003C6
:105C6400025DC790C048E004F0700690C047E004AD
:105C7400F090C047E07004A3E0641E700690C04733
:105C8400F0A3F07B017AC379D290C32DE4F0A3741E
:105C940004F07F107E0012526590C047E0FEA3E03E
:105CA400FF90C04A75F00C12449FEE75F00CA425C9
:105CB40083F583E4F0A3745AF090C047E0FCA3E0BA
:105CC400FD90C047E0FAA3E0FB90C04C75F00CEFE8
:105CD40012449FEE75F00CA42583F583ECF0A3ED3C
:105CE400F090C3D2E0FF90C04E75F00CEB12449FCD
:105CF400EA75F00CA42583F583EFF090C3D3E0FF9D
:105D040090C04F75F00CEB12449FEA75F00CA4257B
:105D140083F583EFF090C3D4E0FF90C05075F00C8E
:105D2400EB12449FEA75F00CA42583F583EFF09001
:105D3400C3D6E0FF90C05175F00CEB12449FEA7596
:105D4400F00CA42583F583EFF090C3D7E0FF90C057
:105D54005275F00CEB12449FEA75F00CA42583F500
:105D640083EFF090C3D8E0FF90C05375F00CEB12B2
:105D7400449FEA75F00CA42583F583EFF090C046A8
:105D8400E0FF90C05475F00CEB12449FEA75F00CE0
:105D9400A42583F583E4F0A3EFF07B017AC0794A6C
:105DA40090C3E37408F0A3E4F0FFFEFDFC127963F2
:105DB4007B017AC0794AE490C331F0A3F0FF7E10EE
:035DC40012591E53
:015DC70022B9
:106F910090C30512446E00009600E4FF12762F9014
:106FA100C30512446E000096007F0212762F90BE38
:106FB100297401F0A37484F0A37400F0A37401F0A8
:106FC100A37488F0A37404F0A37401F0A37488F08F
:106FD100A37406F0A37404F0A3E4F07B01A304F00E
