:030000000266464F
:0800F800FFFF4457494E543547
:10664600759401759502758E0075930075C8707501
:10665600C96075F80075F90175A80075B800759AD6
:106666000075A90075B90053D0E7787FE4F6D8FD28
:106676009080007F007E80E4F0A3DFFCDEFA758167
:046686001B0266C5C8
:1051B80090C332EEF0A3EFF0A3EBF0A3EAF0A3E97B
:0151C800F0F6
:1051C900E490C339F0A3F0A3F0A3F0A3F0A3F0A3F4
:1051D900F0A3F090C337E0FAA3E0FB4A700302534F
:1051E9007790C332E0FEA3E0FFC3E49FFFE49EFE95
:1051F900E4FCFD90C341124390AF03AE02E4FCFD11
:1052090090C341E0F8A3E0F9A3E0FAA3E0FBC312DD
:105219004359501190C341A3A3E0FFA3E090C337C2
:10522900CFF0A3EFF090C332E0FCA3E0FDECC31391
:10523900FFED1390C339CFF0A3EFF0ED5401FFA3B5
:10524900E4F0A3EFF0C2AFE4F5F190C339E0FCA3B9
:10525900E0FDECF5F28DF375F40175F8AF30FCFD66
:1052690090C33BE07002A3E0603DD2FE20FEFD90BA
:10527900C334E0FBA3E475F0011241BBA9F0FAE5E0
:10528900FC12410A90C334E0FBA3E475F00112411A
:10529900BBA9F0FAE5FD12410A90C338E024FFF0FA
:1052A90090C337E034FFF090C337E0FCA3E0FDEC96
:1052B900C313FFED1390C33DCFF0A3EFF0ED5401FD
:1052C900FFA3E4F0A3EFF090C33D74FFF5F01241A2
:1052D900BB45F0605BD2FE20FEFD90C334E0FBA32A
:1052E900E475F0011241BBA9F0FAE5FA12410A90FE
:1052F900C334E0FBA3E475F0011241BBA9F0FAE560
:10530900FB12410A90C334E0FBA3E475F00112419A
:10531900BBA9F0FAE5FC12410A90C334E0FBA3E40F
:1053290075F0011241BBA9F0FAE5FD12410A809717
:1053390090C33FE07002A3E0602FD2FE20FEFD90F3
:10534900C334E0FBA3E475F0011241BBA9F0FAE50F
:10535900FA12410A90C334E0FBA3E475F00112414B
:0E536900BBA9F0FAE5FB12410AE4F5F8D2AF59
:015377002213
:1058710090C336EEF0A3EFF0A3EBF0A3EAF0A3E9B7
:01588100F036
:10588200E490C33DF0A3F0A3F0A3F0A3F0A3F09043
:10589200C33BE07002A3E07003025A0390C336E0F8
:1058A200FEA3E0FFC3E49FFFE49EFED390C33CE06F
:1058B2009F90C33BE09E4005EEF0A3EFF090C3360D
:1058C200E0FAA3E0FBEAC313FCEB13FDEB5401FF88
:1058D20090C33DE4F0A3EFF0C2AFE4F5F1ECF5F2D2
:1058E200AF058FF375F40175F88330FCFD90C33D6D
:1058F200E07002A3E0603D90C338E0FBA3E475F0E2
:10590200011241BBA9F0FA1240C4F5FC90C338E081
:10591200FBA3E475F0011241BBA9F0FA1240C4F5F1
:10592200FDD2FE20FEFD90C33CE024FFF090C33B7D
:10593200E034FFF090C33BE0FCA3E0FDECC313FFB7
:10594200ED1390C33FCFF0A3EFF0ED5401FFA3E4BA
:10595200F0A3EFF075F88F90C33F74FFF5F012419A
:10596200BB45F0605B90C338E0FBA3E475F0011225
:1059720041BBA9F0FA1240C4F5FA90C338E0FBA388
:10598200E475F0011241BBA9F0FA1240C4F5FB9094
:10599200C338E0FBA3E475F0011241BBA9F0FA128F
:1059A20040C4F5FC90C338E0FBA3E475F00112415A
:1059B200BBA9F0FA1240C4F5FDD2FE30FE9980FB7D
:1059C20090C341E07002A3E0603275F88C90C33856
:1059D200E0FBA3E475F0011241BBA9F0FA1240C446
:1059E200F5FA90C338E0FBA3E475F0011241BBA9BC
:1059F200F0FA1240C4F5FBD2FE20FEFDE4F5F8D227
:015A0200AFF4
:015A03002280
:105D1B0090C448EEF0A3EFF0A3EBF0A3EAF0A3E9F5
:015D2B00F087
:105D2C00A3E0FEA3E0FF4E7003025E9490C448E033
:105D3C00FCA3E0FDC3E49DFDE49CFCD3EF9DEE9C35
:105D4C00400AAF0590C44DECF0A3EFF090C448E0CE
:105D5C00FCA3E0FDECC313FEED13FBAA06ED54010E
:105D6C00FDC2AFE4F5F1EAF5F2AF038FF375F40180
:105D7C0075F88330FCFDED604FC390C44EE0940287
:105D8C0090C44DE094005003025E8F90C44AE0FB37
:105D9C00A3E475F0011241BBA9F0FA1240C4F5FC62
:105DAC0090C44AE0FBA3E475F0011241BBA9F0FAE0
:105DBC001240C4F5FDD2FE20FEFD90C44EE024FE40
:105DCC00F090C44DE034FFF090C44DE0FEA3E078B9
:105DDC0002CEC313CE13D8F9FF75F88FEF1FAC06A4
:105DEC0070011E4C605B90C44AE0FBA3E475F001AB
:105DFC001241BBA9F0FA1240C4F5FA90C44AE0FB78
:105E0C00A3E475F0011241BBA9F0FA1240C4F5FBF2
:105E1C0090C44AE0FBA3E475F0011241BBA9F0FA6F
:105E2C001240C4F5FC90C44AE0FBA3E475F00112E7
:105E3C0041BBA9F0FA1240C4F5FDD2FE30FE9D80A4
:105E4C00FB90C44EE030E1047F0180027F00EF60E4
:105E5C003275F88C90C44AE0FBA3E475F001124152
:105E6C00BBA9F0FA1240C4F5FA90C44AE0FBA3E4D3
:105E7C0075F0011241BBA9F0FA1240C4F5FBD2FE39
:085E8C0020FEFDE4F5F8D2AFA1
:015E940022EB
:107FC700EC90C484F0EDA3F07B017AC4798490C46B
:0A7FD7004DE4F0A37402F0025D1BFC
:10807B00EF4E6010E4FD0DEDC3943240F9EF1F702D
:04808B00EF1E80EC78
:01808F0022CE
:086F230090C456EEF0A3EFF05C
:106F2B00A3745AF0A37401F090C456E0FCA3E0FDE7
:106F3B00EC90C45AF0A3EDF07B017AC4795890C35E
:106F4B003BE4F0A37402F07F847E001258717FF44F
:106F5B007E0112807B7B017AC4795890C337E4F0B1
:106F6B00A37402F07F147E001251B890C456E0FE59
:106F7B00A3E0FFA3E0B506D6A3E0B507D1E490C428
:106F8B0058F0A3F0A3F0A3F07B017AC4795890C317
:0D6F9B003BF0A37402F07F167E00025871D7
:0878F40090C315EEF0A3EFF0C4
:1078FC00E4A3F0A3F090C315E0FEA3E0FFC390C394
:10790C0018E09F90C317E09E5025E4FBFA7F017EA0
:10791C000012807B0BBB00010ABA01F1BB2CEE906C
:0F792C00C318E004F070CE90C317E004F080C6DB
:01793B002229
:10793C00EF14601814602314602E24037039740142
:10794C00A805088002C333D8FC42B7227401A805ED
:10795C00088002C333D8FC42BC227401A8050880FD
:10796C0002C333D8FC42BD22AF057401A8070880BE
:08797C0002C333D8FC42BE2215
:10781400EF1460191460251460312403703D740161
:10782400A805088002C333D8FCF452B7227401A817
:1078340005088002C333D8FCF452BC227401A805A5
:10784400088002C333D8FCF452BD22AF057401A8EA
:0C78540007088002C333D8FCF452BE22A7
:106C5900EF14602D14604A14606724036003026C0A
:106C6900EBEB600E7401A805088002C333D8FC421F
:106C790080227401A805088002C333D8FCF452802D
:106C890022EB600E7401A805088002C333D8FC42C8
:106C990090227401A805088002C333D8FCF45290ED
:106CA90022EB600E7401A805088002C333D8FC42A8
:106CB900A0227401A805088002C333D8FCF452A0AD
:106CC90022EB600E7401A805088002C333D8FC4288
:106CD900B022AF057401A807088002C333D8FCF4B9
:036CE90052B02284
:10767B00EF14601A146027146034240370427401F1
:10768B00A805088002C333D8FC5580FE80347401F2
:10769B00A805088002C333D8FC5590FE80247401E2
:1076AB00A805088002C333D8FC55A0FE8014AF0593
:1076BB007401A807088002C333D8FC55B0FE8002C2
:0476CB00E4FEAF0624
:0176CF002298
:107E9200758911E4F58CF58AC28CF518F51A4389B7
:0E7EA20001758CBC758ACDD2A9D2AFD28C22CC
:03000B0002709BE5
:0D709B00C0E0C0D075D000C000C006C00726
:1070A800C2AF758CBC758ACD0519751B0074017E3D
:1070B80000A81B088005C333CE33CED8F9FFEF559F
:1070C8001A602DE51B25E02408F808E6161870015B
:1070D80016E51B25E02408F8E6FE08E64E7011AF19
:1070E8001B04A807088002C333D8FC4218F4521ABC
:0970F800051BE51BB408B6D2AF7C
:0B710100D007D006D000D0D0D0E03284
:107FE100758911E4F58DF58BC28ED2AF4389107579
:0A7FF1008DBC758BCDD2ABD28E2271
:03001B0002811748
:0D811700C2AF758DBC758BCDB290D2AF326A
:1080BA0075C8F075CD58E4F5CC75CB58F5CA43C8E8
:0480CA0001D2AD2210
:03002B000281301F
:09813000C2AFC2C6B291D2AF3257
:107E3100C2AF7401A807088002C333D8FCFE421AFE
:107E4100EF25E02408F8A60408A605EEF45218D29E
:027E5100AF225E
:10809000C2AF7401A807088002C333D8FCF4521A97
:0580A0005218D2AF22CE
:1080E200C2AF7401A807088002C333D8FC5518FF39
:0280F200D2AF0B
:0180F4002269
:10777800AB07AA06A905A8047F007E387D317C00E6
:107788001242C7C3E49F90C314F074049E90C313BD
:10779800F043C9407D04E4FF12793C7D05E4FF1203
:1077A800781443803075D88075985090C313E0FCE6
:0D77B800A3E0FDECF5BA8DAA43A810D2ACF9
:0177C50022A1
:1078AB00AB07AA06A905A8047F007E707D627C0049
:1078BB001242C7C3E49F90C314F074049E90C31389
:1078CB00F043C9207D06E4FF12793C7D07E4FF12EB
:1078DB0078144380C0759B9090C313E0FCA3E0FD2C
:0878EB00ECF5BB8D9D439A01F1
:0178F3002272
:107B6800759680759780AB07AA06A905A8047F00BB
:107B78007EC07D897C011242C7AD07AC06ECF5D901
:107B8800AF058FE743B80CE4909812F0A3F0A3F088
:107B9800A3F090981AF0909816F0A3F0A3F0A3F031
:017BA80022BA
:107DE60075A78075AB80AB07AA06A905A8047F0016
:107DF6007EC07D897C011242C7AD07AC06ECF5AEAC
:077E0600AF058FAF43B83058
:017E0D002252
:10772500EF14601B1460291460372403704490C360
:107735000FE0FCA3E0FDA3E0FEA3E0FF0277789055
:10774500C30FE0FCA3E0FDA3E0FEA3E0FF0278ABDE
:1077550090C30FE0FCA3E0FDA3E0FEA3E0FF027BE6
:107765006890C30FE0FCA3E0FDA3E0FEA3E0FF12D9
:037775007DE6228C
:1053780090C30EEFF0A3ECF0A3EDF0A3EBF0A3EADB
:04538800F0A3E9F0B5
:10538C00C2AFE4A3F0A3F090C30FE0FEA3E0FFC311
:10539C0090C315E09F90C314E09E400302545090BC
:1053AC00C311E0FBA3E475F0011241BBA9F0FA12A2
:1053BC0040C4FF90C30EE0FE75F009A42400F582F2
:1053CC00E5F03488F583EE75F008A42583F583E0C9
:1053DC00FCA3E0FD75F009EEA42400F582E5F034A1
:1053EC0080F583EE75F008A42583F583E5822DF511
:1053FC0082E5833CF583EFF075F009EEA42400F50B
:10540C0082E5F03488F583EE75F008A42583F583E6
:10541C00E475F0011241A575F009EEA42400F582A3
:10542C00E5F03488F583EE75F008A42583F583E068
:10543C005403F090C315E004F0700690C314E0041C
:10544C00F002539390C30EE0146042146070147019
:10545C00030254F824036003025528908808E06086
:10546C000302552804F0908802E0FEA3E02400F526
:10547C008274803EF583E0F599908803E004F07027
:10548C0006908802E004F090880202552490901156
:10549C00E0600302552804F090900BE0FEA3E0249A
:1054AC0009F58274883EF583E0F59C90900CE0043D
:1054BC00F0700690900BE004F090900B805A90984E
:1054CC001AE0705804F0909814E0FEA3E02412F552
:1054DC008274903EF583E0F59E909815E004F07090
:1054EC0006909814E004F0909814802C90A023E07F
:1054FC00702A04F090A01DE0FEA3E0241BF582743A
:10550C00983EF583E0F5AC90A01EE004F070069098
:0E551C00A01DE004F090A01DE05403F0D2AFFB
:01552A00225E
:03002300026E0D5D
:106E0D00C0E0C083C082C0D075D000C006C007C22C
:106E1D00AF30982AC298908804E0FEA3E02400F5D4
:106E2D008274843EF583E599F0908805E004F07056
:106E3D0006908804E004F0908804E05403F0309943
:106E4D003FC299908802E0FEA3E0FF908800E06EBB
:106E5D007003A3E06F602474002FF58274803EF5FB
:106E6D0083E0F599908803E004F07006908802E0C5
:106E7D0004F0908802E05403F08005908808E4F057
:0F6E8D00D2AFD007D006D0D0D082D083D0E032A1
:03005300027453E1
:10745300C0E0C083C082C0D075D000C006C007C2E0
:10746300AF5396FE909814E0FEA3E0FF909812E0CD
:107473006E7003A3E06F602474122FF58274903E44
:10748300F583E0F59E909815E004F070069098144B
:10749300E004F0909814E05403F0800590981AE407
:1074A300F0D2AFD007D006D0D0D082D083D0E03294
:03005B00027984A3
:10798400C0E0C083C082C0D075D000C006C2AF536F
:1079940097FE909816E0FEA3E02412F58274943EBC
:1079A400F583E59FF0909817E004F0700690981620
:1079B400E004F0909816E05403F0D2AFD006D0D093
:0779C400D082D083D0E03235
:030063000274B371
:1074B300C0E0C083C082C0D075D000C006C007C280
:1074C300AF53A7FE90A01DE0FEA3E0FF90A01BE03A
:1074D3006E7003A3E06F6024741B2FF58274983ED3
:1074E300F583E0F5AC90A01EE004F0700690A01DBB
:1074F300E004F090A01DE05403F0800590A023E485
:10750300F0D2AFD007D006D0D0D082D083D0E03233
:03006B000279CB4C
:1079CB00C0E0C083C082C0D075D000C006C2AF5328
:1079DB00ABFE90A01FE0FEA3E0241BF582749C3E3F
:1079EB00F583E5ADF090A020E004F0700690A01FA9
:1079FB00E004F090A01FE05403F0D2AFD006D0D03B
:077A0B00D082D083D0E032ED
:03008300026BBE4F
:106BBE00C0E0C083C082C0D075D000C006C007C27E
:106BCE00AFE59B30E02E759B90539BFE90900DE0B1
:106BDE00FEA3E02409F582748C3EF583E59CF090CB
:106BEE00900EE004F0700690900DE004F090900D81
:106BFE00E05403F0E59B30E143759B90539BFD9071
:106C0E00900BE0FEA3E0FF909009E06E7003A3E00E
:106C1E006F602474092FF58274883EF583E0F59C2D
:106C2E0090900CE004F0700690900BE004F09090C1
:106C3E000BE05403F08005909011E4F0D2AFD00732
:0B6C4E00D006D0D0D082D083D0E0323E
:1080A5007596807597807C00ECF5D975E7E0759E2F
:0480B5000D53B8F3BC
:0180B90022A4
:0B7E0E0090C346EBF0A3EAF0A3E9F0FC
:107E190090C3717401F0A374C3F0A37449F090C3C3
:077E290071E4F0A3F0A3F0E7
:017E3000222F
:0281470080FEB8
:054DAB0042C486000077
:10688300E490C309F0A3F0A3740AF0A3740DF0A37A
:1068930074EFF0127E92127FE1124FF1E4FD7F025A
:1068A3001278147D607CEAE4FF127E317DF47C0172
:1068B3007F01127E31127025D2AF90C223E0FF1206
:1068C3007C681256DD7D887C137F07127E317B0145
:1068D3007AC3790A90C33BE4F0A304F07F007E827D
:1068E300125871127AE390C486E07002A3E0701824
:1068F3007F071280E2EF601090C486E4F0A304F0F7
:1069030090C223F0FF127C6890C486E07002A3E07B
:1069130060D1127B2612725A125A0490C307EEF00A
:10692300A3EFF0120100900000E060B7E4F080B341
:104DB00041C2A40042C227000041C2160044C27989
:104DC0000000000046C20D0000000000006048C165
:104DD000C5000000010002000300040005000600F9
:104DE0000700080009000A000B000C000D000E006F
:104DF0000F0010001100120013001400150016001F
:104E00001700180019001A001B001C001D001E00CE
:104E10001F002000210022002342C23A000041C2AC
:104E2000A70042C219000042C235000050C28D00E6
:104E30000000000000000000000000000000005022
:104E4000C25B000000000000000000000000000045
:104E5000000050C2460000000000000000000000FA
:104E6000000000000042C2AC000042C275000042D7
:104E7000C233000042C2A9000042C272000042C216
:104E80009E000042C244000042C270000042C214B0
:104E9000000042C23E000041C28B0042C2AE000090
:104EA00042C21C000042C225000041C2170041C29C
:104EB000810141C2820241C2850341C2860441C2CE
:104EC000870541C2880641C2890741C21B0841C209
:104ED0002E0941C2320A41C26E0B41C2220C41C2AC
:104EE0002D0D41C2420E41C25A0F41C2A31041C210
:104EF000AB1141C22C1241C28A1341C2A21441C259
:104F00001F1541C29D1641C27D1741C22B1841C2D7
:104F1000241941C21E1A41C2371B41C2291C41C279
:104F2000741D41C2801E41C26D1F41C2A82041C2F2
:104F3000432141C2A02241C2182341C26F0042C294
:104F400038000041C22F0042C26B000042C2400044
:104F50000042C2A5000042C230000041C23D0041F3
:104F6000C22A0041C2770041C2A10041C28C004167
:104F7000C2130041C2560041C27E0041C23C004102
:104F8000C2780041C2570041C27F0041C1B2004116
:104F9000C1B30041C1B40041C1B50041C1B6004137
:104FA000C1B70041C1B80042C1B9000042C1BB0055
:104FB0000042C1BD000042C1BF000042C1C10000AB
:106FA80090C1BFF0A3F090C1B4F090C220E0FEA35E
:106FB800E0FF7C007D0A12413EAA06AB0790C2584A
:106FC800E0FEA3E0FF7D6412413EEF2BFFEE3AFEA8
:106FD80090C284E02FFF90C283E03E90C312F0A3DA
:0E6FE800EFF07F0090C312E0FCA3E0FD7E817D
:106FF60090C1C3EEF0A3EFF090C2AEECF0A3EDF0BB
:1070060090C28B7401F0FB7AC279AE90C33BE4F078
:0F701600A304F01258717DBC7C027F06027E310C
:0C812400E490C28BF090C225F0A3F02282
:10725A0090C28BE060637F061280E2EF605B90C1B0
:10726A00C3E0FEA3E0FF7B017AC2791C90C337E436
:10727A00F0A304F01251B890C21CE0FEA3E0FF9004
:10728A00C2AEE0FCA3E0FDB50707ECB50603028138
:10729A0024C390C226E0940290C225E094005019BB
:1072AA0090C1C3E0FEA3E0FF126FF690C226E0048D
:0A72BA00F0700690C225E004F022F7
:107F250090C48874C0F0A37464F07B017AC4798826
:0B7F350090C33BE4F0A304F00258717D
:107F400090C3347418F0A374E3F07B017AC37934DE
:0B7F500090C33BE4F0A304F002587162
:047E73007F037E9477
:107E770090C33474FFF0A37460F07B017AC3793444
:0B7E870090C33BE4F0A304F00258712C
:107F5B0090C3347405F0A3741DF07B017AC379349C
:0B7F6B0090C33BE4F0A304F002587147
:107F760090C48A74CEF0A37459F07B017AC4798ACE
:0B7F860090C33BE4F0A304F00258712C
:047EEC007F237E5022
:107EF00074FF90C334F0A3F07B017AC3793490C34C
:097F00003BE4F0A304F002587107
:06814100E490C216F022DA
:106A7D0090C3C4EEF0A3EFF0A3ECF0A3EDF0A3EA06
:046A8D00F0A3EBF097
:106A9100A3E0FAA3E0FB7C007D64FFAE021241504B
:106AA100A3EEF0A3EFF07C007D0AAF03AE0212412A
:106AB100507C007D0A124150A3ECF0A3EDF090C38D
:106AC100CAE0FEA3E0FF7C007D0A12415090C3D0D2
:106AD100ECF0A3EDF090C3C4E0FEA3E0FF7B017AEC
:106AE100C379CC90C33BE4F0A304F012587190C376
:106AF100C6E0FEA3E0FF7B017AC379CE90C33BE4FD
:106B0100F0A304F012587190C3C8E0FEA3E0FF7B2C
:106B1100017AC379D090C33BE4F0A304F002587129
:0E73F10090C418EEF0A3EFF0A3ECF0A3EDF0C3
:1073FF007C007D3CAF03AE02124150A3EEF0A3EF31
:10740F00F0AE02AF037C007D3C124150A3ECF0A321
:10741F00EDF090C418E0FEA3E0FF7B017AC4791C65
:10742F0090C33BE4F0A304F012587190C41AE0FE2D
:10743F00A3E0FF7B017AC4791E90C33BE4F0A30461
:04744F00F00258717E
:086B210090C45CEEF0A3EFF05C
:106B2900E4A3F0A3F0A3F0A304F0FB7AC4795E9088
:106B3900C33BE4F0A304F07F007E291258717B0166
:106B49007AC4796090C33BE4F0A304F07F007E39F6
:106B590012587190C45CE0FEA3E0FFEE7056EF148A
:106B6900602A04704F7B017AC4795E90C33BE4F0DC
:106B7900A304F07F007E291258717B017AC47960E1
:106B890090C33BE4F0A304F07F0080237B017AC427
:106B9900795E90C33BE4F0A304F0FF7E291258719B
:106BA9007B017AC4796090C33BE4F0A304F0FF7ED3
:046BB90039125871C4
:016BBD0022B5
:1062AB0090C332ECF0A3EDF0EE60030263BEEF247B
:1062BB00FE605E146060147003026383240360034A
:1062CB000263BE90C332E0FEA3E0FFEE7035EF1425
:1062DB00601514601E2402702A127E737F137E9445
:1062EB00127E777F238055127E737F137E94127FED
:1062FB005B801A7F037E94127F5B7F137E94127EEA
:10630B0077800A127E737F137E94127E777F2380B1
:10631B00637F530263AB90C332E0FEA3E0FFEE70EA
:10632B0043EF14601B14602A240270387F537E9451
:10633B00127E777F637E94127E777F737E9480626A
:10634B007F537E94127E777F637E94127F5B7F7385
:10635B0080227F537E94127F5B7F637E94127E77C5
:10636B007F7380107F537E94127E777F637E9412AF
:10637B007E777F737E94803890C332E0FEA3E0FF7C
:10638B00EE7022EF14601004701B7F837E92127FDD
:10639B005B7F937E9280197F837E92127E777F93B1
:1063AB007E92027F5B7F837E92127E777F937E92BB
:0463BB00127E7722B5
:0A44500090C223E0FF7E00E4FDFCB3
:10445A0090C332ECF0A3EDF0EE60030247E9EF24DB
:10446A00F3B40B0040030247E990448175F003A4BA
:10447A00C58325F0C583730244A202451D02457E09
:10448A000245F90246740246D502474F02479F0287
:10449A0047E90247E90247C590C332E07002A3E048
:1044AA0070177F037E90127F407F137E90127F40A9
:1044BA007F237E90127F5B804290C332E07004A318
:1044CA00E0640170107F037E90127F407F137E901C
:1044DA00127F5B801F90C332E07004A3E064027F06
:1044EA00037E907005127F5B8003127F407F137EEC
:1044FA0090127F407F237E90127F4090C332E070FB
:10450A0004A3E0640370047D018002E4FDFC7F10D3
:10451A000247C090C332E07002A3E070107F537E5E
:10452A0090127F407F637E90127F5B802F90C33210
:10453A00E07004A3E0640170097F537E90127F5BF0
:10454A00801390C332E07004A3E06402700E7F53BC
:10455A007E90127F407F637E90127F4090C332E04C
:10456A007004A3E0640270047D018002E4FDFC7F14
:10457A00200247C090C332E07002A3E070177F7335
:10458A007E90127F407F837E90127F407F937E9041
:10459A00127F5B804290C332E07004A3E064017032
:1045AA00107F737E90127F407F837E90127F5B80A4
:1045BA001F90C332E07004A3E064027F737E9070A0
:1045CA0005127F5B8003127F407F837E90127F40BB
:1045DA007F937E90127F4090C332E07004A3E06420
:1045EA000370047D018002E4FDFC7F300247C09025
:1045FA00C332E07002A3E070177F037E91127F40FE
:10460A007F137E91127F407F237E91127F5B8042CF
:10461A0090C332E07004A3E0640170107F037E91BE
:10462A00127F407F137E91127F5B801F90C332E01E
:10463A007004A3E064027F037E917005127F5B80A1
:10464A0003127F407F137E91127F407F237E911257
:10465A007F4090C332E07004A3E0640370047D01DC
:10466A008002E4FDFC7F400247C090C332E0700242
:10467A00A3E070107F437E91127F407F537E911298
:10468A007F5B802F90C332E07004A3E0640170095D
:10469A007F437E91127F5B801390C332E07004A344
:1046AA00E06402700E7F437E91127F407F537E91B9
:1046BA00127F4090C332E07004A3E0640270047D6C
:1046CA00018002E4FDFC7F500247C090C332E070D3
:1046DA0002A3E070177F637E91127F407F737E9101
:1046EA00127F407F837E91127F5B804290C332E0CB
:1046FA007004A3E0640170107F637E91127F407F93
:10470A00737E91127F5B801F90C332E07004A3E036
:10471A0064027F637E917005127F5B8003127F4083
:10472A007F737E91127F407F837E91127F4090C378
:10473A0032E07004A3E0640370047D018002E4FDAA
:10474A00FC7F60807190C332E07002A3E070097F41
:10475A00937E91127F5B801F90C332E07004A3E0C6
:10476A0064017F937E91700C127F407F037E9212C8
:10477A007F5B800A127F407F037E92127F4090C344
:10478A0032E07004A3E0640270047D018002E4FD5B
:10479A00FC7F70802190C332E07004A3E064017F43
:1047AA00137E927009127F407D017C008006127F81
:1047BA005BE4FDFC7F807E39027E5A90C332E07052
:1047CA0002A3E070077F337E94027F5B90C332E0DE
:1047DA007004A3E0640170077F337E94127EF02296
:077E53007F30E4FDFC7E39E5
:107E5A0090C334ECF0A3EDF07B017AC3793490C37C
:097E6A003BE4F0A304F00258719E
:057C630090C223F0FFB8
:107C680090C279745AF0A37401F0E4A3F0EF25E010
:107C780024C5F582E434C1F583A3E090C27CF07B8F
:107C8800017AC2797990C33BE4F0A37402F07F844F
:057C98007E000258719E
:0881390090C223EFF0027C6804
:1075CF007F037E94127EF07F137E94127EF07F23D2
:1075DF007E94127EF07F237E92127EF07F537E92F6
:1075EF00127EF07F537E94127EF07F637E94127E24
:1075FF00F07F737E94127EF07F837E92127EF07FF7
:10760F00937E92127EF07F737E92127EF0E4FDFCE9
:06761F00FF7E30027E5ADE
:076E9C0090C1B8E0FF7E0089
:106EA30090C332EEF0A3EFF064014E7015127E73BF
:106EB3007F137E94127E777F237E94127E777D01EB
:106EC300803A90C332E07004A3E06402700B7F2326
:106ED3007E92127E777F53804190C332E07004A389
:106EE300E0640370207F537E94127E777F637E94E9
:106EF300127E777F737E94127E777D027C007F0003
:106F03007E30027E5A90C332E07004A3E0640470C2
:106F13000E7F837E92127E777F937E92127E7722FC
:0477C600AB07AA065D
:1077CA007C007D3C12415090C310EEF0A3EFF0AE66
:1077DA0002AF037C007D3C124150A3ECF0A3EDF014
:1077EA007B017AC3791090C33BE4F0A304F07F5085
:1077FA007E281258717B017AC3791290C33BE4F058
:0A780A00A304F07F607E280258718D
:0876250090C230E0FEA3E0FF7B
:04762D00AB07AA06F7
:107631007C007D3C12415090C332EEF0A3EFF0AEDE
:1076410002AF037C007D3C124150A3ECF0A3EDF0AE
:107651007B017AC3793290C33BE4F0A304F07F004D
:107661007E311258717B017AC3793490C33BE4F0C7
:0A767100A304F07F007E320258717E
:107C9D0090C22F7401F07F737E92127E777F337EB8
:107CAD0093127E777F437E93127E777B017AC27922
:107CBD003090C337E4F0A304F07F067E811251B8F3
:097CCD007DE87C037F05027E3195
:107FFB00E490C22FF07F737E92127EF07F337E93DC
:0A800B00127EF07F437E93027EF0A8
:107B260090C22FE070077F737E92027EF07F05126F
:107B360080E2EF602C90C231E024FFF090C230E08A
:107B460034FFF0127628D390C231E0940090C23010
:107B5600E094005003027FFB7DE87C037F05127EE4
:027B66003122CA
:1056DD00E490C30EF0A3F07B017AC2793E90C337FC
:1056ED00F0A304F07F047E811251B87B017AC37957
:1056FD000E90C337E4F0A304F07F007E811251B801
:10570D0090C30EE0FAA3E0FB7C007D64FFAE0212B5
:10571D00415090C258EEF0A3EFF07C007D0AAF032C
:10572D00AE021241507C007D0A12415090C220EC15
:10573D00F0A3EDF090C30EE0FEA3E0FF7C007D0A28
:10574D0012415090C283ECF0A3EDF07B017AC37946
:10575D000E90C337E4F0A304F07F027E811251B89E
:10576D0090C30EE0FAA3E0FB7C007D64FFAE021255
:10577D00415090C233EEF0A3EFF07C007D0AAF03F1
:10578D00AE021241507C007D0A12415090C2A9EC2C
:10579D00F0A3EDF090C30EE0FEA3E0FF7C007D0AC8
:1057AD0012415090C272ECF0A3EDF07B017AC279F8
:1057BD004090C337E4F0A304F07F067E811251B808
:1057CD0090C240E0FEA3E0FF1277C67B017AC37959
:1057DD000E90C337E4F0A304F07F087E811251B818
:1057ED0090C30EE0FAA3E0FB7C007D0AFFAE02122F
:1057FD0041507C007D0A12415090C2ACECF0A3EDFB
:10580D00F07C007D0AAF03AE0212415090C275ECE0
:10581D00F0A3EDF07B017AC3790E90C337E4F0A3CA
:10582D0004F07F0A7E811251B890C30EE0FAA3E016
:10583D00FB7C007D0AFFAE021241507C007D0A12F6
:10584D00415090C29EECF0A3EDF07C007D0AAF03B9
:10585D00AE0212415090C244ECF0A3EDF07F737E86
:04586D0092027EF035
:1061620090C23DE0B4080040030262AA906175F853
:1061720028287302618D0261990261B00261CA022C
:1061820061EB0262130262420262767F137E501258
:106192007E77127EEC800E7F137E50127EF07F237C
:1061A2007E50127E777F337E50127EF080117F13F5
:1061B2007E50127EF0127EEC7F337E50127E777F0D
:1061C200437E50127EF080187F137E50127EF012B2
:1061D2007EEC7F337E50127EF07F437E50127E77BC
:1061E2007F537E50127EF0801F7F137E50127EF00E
:1061F200127EEC7F337E50127EF07F437E50127E01
:10620200F07F537E50127E777F637E50127EF08045
:10621200267F137E50127EF0127EEC7F337E501268
:106222007EF07F437E50127EF07F537E50127EF0CE
:106232007F637E50127E777F737E50127EF0802DB8
:106242007F137E50127EF0127EEC7F337E50127EE0
:10625200F07F437E50127EF07F537E50127EF07F9D
:10626200637E50127EF07F737E50127E777F437E74
:1062720056027EF07F137E50127EF0127EEC7F3348
:106282007E50127EF07F437E50127EF07F537E500E
:10629200127EF07F637E50127EF07F737E50127EFC
:0962A200F07F437E56127E772244
:10732A0090C23DE0B40800505A90733AF828287386
:10733A0002735202735C02738D02736602737002E7
:10734A00737402737E02738290C2777401F07F1D98
:10735A00802E90C28C7401F07F1E802490C25674D5
:10736A0001F07F22801A7F1F801690C23C7401F0C0
:10737A007F20800C7F21800890C2577401F07F2300
:04738A001281392211
:0801000090C30EEEF0A3EFF036
:10010800E4A3F0A3F0A3F0A3F090C1B2E0600DE483
:10011800FF1280E2EF6005E490C1B2F090C30EE0F8
:10012800FEA3E0FF64014E6006EF64024E70099082
:10013800C1B2E06003023A747B017AC179C190C30D
:1001480037E4F0A304F07F0C7E801251B890C1C14F
:10015800A3E0FF7C0030E0047D0180027D0090C3B5
:1001680014ECF0A3EDF0EF7E0030E1047F01800293
:100178007F0090C316EEF0A3EFF090C1C1A3E0FF9B
:100188007C0030E2047D0180027D0090C326ECF003
:10019800A3EDF0EF7E0030E3047F0180027F009042
:1001A800C328EEF0A3EFF090C1C1A3E0FF7C0030BC
:1001B800E4047D0180027D0090C32AECF0A3EDF0F9
:1001C800EF7E0030E7047F0180027F0090C318EEC5
:1001D800F0A3EFF090C1C1E0FEEE7C0030E4047DB6
:1001E8000180027D0090C31AECF0A3EDF0EE7E00D2
:1001F80030E0047F0180027F0090C31CEEF0A3EF83
:10020800F090C1C1A3E0FF7C0030E5047D018002CD
:100218007D0090C31EECF0A3EDF0EF7E0030E60405
:100228007F0180027F0090C320EEF0A3EFF090C121
:10023800C1E0FEEE7C0030E1047D0180027D00908B
:10024800C322ECF0A3EDF0EE7E0030E2047F0180E3
:10025800027F0090C324EEF0A3EFF090C1C1E0FE4E
:10026800EE7C0030E3047D0180027D0090C32CEC1D
:10027800F0A3EDF0EE7E0030E5047F0180027F0000
:1002880090C32EEEF0A3EFF090C31EE07004A3E03D
:040298006401700B82
:09029C0090C33074C0F0A3744457
:1002A500801D90C322E07004A3E0640190C3307008
:0102B5000840
:0602B6007405F0A3741CA6
:0202BC008006BA
:1002BE0074CEF0A37459F07B017AC3793090C33BAE
:0C02CE00E4F0A304F07F137E931258713B
:0C02DA0090C320E07004A3E06401700BEE
:0902E60090C33074C0F0A374440D
:1002EF00801D90C324E07004A3E0640190C33070BC
:0102FF0008F6
:060300007405F0A3741C5B
:0203060080066F
:1003080074CEF0A37459F07B017AC3793090C33B63
:0C031800E4F0A304F07F237E93125871E0
:1003240090C235E07002A3E0701990C32EE070040F
:10033400A3E06401700D741B127C6390C235E4F079
:10034400A304F090C31CE07004A3E06401700F9058
:10035400C2A7E07009127C9D90C2A77401F090C2FC
:1003640023E0B4182990C219E07002A3E0701F7B47
:10037400017AC2793090C337F0A304F07F067E81FE
:100384001251B812762590C219E4F0A304F090C378
:1003940014E07004A3E06401600302044C90C23AC8
:1003A400E07004A3E06401600302044C7417127C3F
:1003B400637B017AC3791290C337E4F0A304F07F1E
:1003C400067E811251B890C312E0FAA3E0FB7C00D0
:1003D4007D3CFFAE0212415090C270EEF0A3EFF0EC
:1003E4007C007D3CAF03AE0212415090C214ECF08D
:1003F400A3EDF07B017AC2797090C33BE4F0A304CF
:10040400F07F507E281258717B017AC2791490C310
:100414003BE4F0A304F07F607E28125871E490C19D
:10042400B7F090C1B3F0A3F090C1BFF0A3F090C1B6
:10043400B8F090C23AF0A3F090C2A7F090C219F0BD
:10044400A3F0127FFB02050990C318E07004A3E037
:100454006401602690C320E07004A3E06401601A84
:1004640090C31EE07004A3E064017002800C90C38A
:100474001CE07004A3E0640170321275CF90C23A9C
:10048400E4F0A304F090C2237418F0FF127C68E433
:1004940090C1B7F090C1B3F0A3F090C1BFF0A3F046
:1004A40090C1B8F090C235F0A3F0805990C324E015
:1004B4007004A3E06401600C90C322E07004A3E024
:1004C400640170411275CF90C2237419F0FF127C3D
:1004D40068127FFB90C230E07004A3E064017009ED
:1004E40090C230F0A3F0127625E490C1B7F090C129
:1004F400B3F0A3F090C1BFF0A3F090C1B8F090C2E4
:100504003AF0A304F090C30EE0FEA3E0FFEE600314
:10051400023A74EF24FE7003021A29147003022FA6
:1005240064147003023A0624036003023A7490C10F
:10053400BFE07004A3E06401600302195990C2A3F0
:10054400E0FF90C223E06F600302077890C1B4E03B
:1005540060030205FA90C283E0FEA3E0FF90C3109B
:10056400EEF0A3EFF04E700A90C283F0A37409F08A
:10057400800E90C284E024FFF090C283E034FFF048
:1005840090C220E0FEA3E0FF7C007D0A12413EAA57
:1005940006AB0790C258E0FEA3E0FF7D6412413E23
:1005A400EF2BFFEE3AFE90C284E02FFF90C283E06F
:1005B4003E90C312F0A3EFF090C312E0FEA3E0FF5D
:1005C400D394C8EE9400500AEF9400EE94004002D5
:1005D400800F90C310E0FFA3E090C283CFF0A3EF9D
:1005E400F07B017AC2798390C33BE4F0A304F074F6
:1005F40020FFFE02195390C1B4E0640160030206B7
:10060400B990C220E0FEA3E0FF90C310EEF0A3EF88
:10061400F04E700A90C220F0A37409F0800E90C2CC
:1006240021E024FFF090C220E034FFF090C220E0EB
:10063400FEA3E0FF7C007D0A12413EAA06AB0790B0
:10064400C258E0FEA3E0FF7D6412413EEF2BFFEEB3
:100654003AFE90C284E02FFF90C283E03E90C31222
:10066400F0A3EFF090C312E0FEA3E0FFD394C8EE32
:100674009400501DEF9400EE940040157B017AC263
:10068400792090C33BE4F0A304F07F107E2002198C
:100694005390C310E0FFA3E090C220CFF0A3EFF08B
:1006A4007B017AC2792090C33BE4F0A304F07F106D
:1006B4007E2002195390C1B4E064026003022F55F6
:1006C40090C258E0FEA3E0FF90C310EEF0A3EFF059
:1006D4004E700A90C258F0A37402F0800E90C25972
:1006E400E024FFF090C258E034FFF090C220E0FE16
:1006F400A3E0FF7C007D0A12413EAA06AB0790C22C
:1007040058E0FEA3E0FF7D6412413EEF2BFFEE3A7A
:10071400FE90C284E02FFF90C283E03E90C312F0AB
:10072400A3EFF090C312E0FEA3E0FFD394C8EE94CD
:1007340000501DEF9400EE940040157B017AC279BD
:100744005890C33BE4F0A304F07F007E20021953C9
:1007540090C310E0FFA3E090C258CFF0A3EFF07B6A
:10076400017AC2795890C33BE4F0A304F07F007E81
:100774002002195390C2ABE0FF90C223E06F6003E4
:100784000208D590C1B4E0600302082D90C275E060
:10079400FEA3E0FF90C310EEF0A3EFF04E700A90BA
:1007A400C275F0A37409F0800E90C276E024FFF0C5
:1007B40090C275E034FFF090C2ACE0FEA3E0FF7C91
:1007C400007D0A12413E90C276E02FFF90C275E090
:1007D4003E90C312F0A3EFF090C312E0FEA3E0FF3B
:1007E400D39450EE9400501DEF9400EE9400401505
:1007F4007B017AC2797590C33BE4F0A304F07F20B7
:100804007E2102195390C310E0FFA3E090C275CF7C
:10081400F0A3EFF07B017AC2797590C33BE4F0A3B7
:1008240004F07F207E2102195390C1B4E06401607A
:1008340003022F5590C2ACE0FEA3E0FF90C310EE7C
:10084400F0A3EFF04E700A90C2ACF0A37408F080ED
:100854000E90C2ADE024FFF090C2ACE034FFF09003
:10086400C2ACE0FEA3E0FF7C007D0A12413E90C2D0
:1008740076E02FFF90C275E03E90C312F0A3EFF034
:1008840090C312E0FEA3E0FFD39450EE9400501DF9
:10089400EF9400EE940040157B017AC279AC90C3CA
:1008A4003BE4F0A304F07F107E2102195390C3109F
:1008B400E0FFA3E090C2ACCFF0A3EFF07B017AC2DB
:1008C40079AC90C33BE4F0A304F07F107E210219BD
:1008D4005390C22CE0FF90C223E06F6003020B46EA
:1008E40090C1B4E060030209B090C1B9E0FEA3E096
:1008F400FF90C310EEF0A3EFF04E700A90C1B9F070
:10090400A37402F0800E90C1BAE024FFF090C1B944
:10091400E034FFF090C1BBE0FEA3E0FF7C007D0A61
:1009240012413EAA06AB0790C1B9E0FEA3E0FF7DE9
:100934006412413EEF2BFFEE3AFE90C1BEE02FFF62
:1009440090C1BDE03E90C312F0A3EFF090C312E05B
:10095400FEA3E0FFD39432EE9400502CEF9400EE0B
:100964009400402490C1B9E0FFA3E090C291CFF07D
:10097400A3EFF07B017AC179B990C33BE4F0A304FF
:10098400F07F007E2202195390C310E0FFA3E09091
:10099400C1B9CFF0A3EFF07B017AC179B990C33B21
:1009A400E4F0A304F07F007E2202195390C1B4E066
:1009B40064016003020A7E90C1BBE0FEA3E0FF90E5
:1009C400C310EEF0A3EFF04E700A90C1BBF0A37415
:1009D40005F0800E90C1BCE024FFF090C1BBE03470
:1009E400FFF090C1BBE0FEA3E0FF7C007D0A124152
:1009F4003EAA06AB0790C1B9E0FEA3E0FF7D6412F6
:100A0400413EEF2BFFEE3AFE90C1BEE02FFF90C1B6
:100A1400BDE03E90C312F0A3EFF090C312E0FEA33A
:100A2400E0FFD39432EE9400502CEF9400EE940047
:100A3400402490C1BBE0FFA3E090C25FCFF0A3EFDE
:100A4400F07B017AC179BB90C33BE4F0A304F07F4F
:100A5400107E2202195390C310E0FFA3E090C1BBA3
:100A6400CFF0A3EFF07B017AC179BB90C33BE4F0F4
:100A7400A304F07F107E2202195390C1B4E06402F3
:100A84006003022F5590C1BDE0FEA3E0FF90C310A8
:100A9400EEF0A3EFF04E700A90C1BDF0A37409F01C
:100AA400800E90C1BEE024FFF090C1BDE034FFF0A1
:100AB40090C1BBE0FEA3E0FF7C007D0A12413EAA88
:100AC40006AB0790C1B9E0FEA3E0FF7D6412413E8E
:100AD400EF2BFFEE3AFE90C1BDE0FCA3E0FD2FFF3B
:100AE400EC3E90C312F0A3EFF090C312E0FEA3E03B
:100AF400FFD39432EE94005025EF9400EE9400401E
:100B04001D90C24AECF0A3EDF07B017AC179BD904F
:100B1400C33BE4F0A304F07F207E2202195390C368
:100B240010E0FFA3E090C1BDCFF0A3EFF07B017A0A
:100B3400C179BD90C33BE4F0A304F07F207E220280
:100B4400195390C28AE0FF90C223E06F6003020D44
:100B54009090C1B4E06003020C1290C272E0FEA354
:100B6400E0FF90C310EEF0A3EFF04E700A90C27253
:100B7400F0A37409F0800E90C273E024FFF090C2D9
:100B840072E034FFF090C2A9E0FEA3E0FF7C007D98
:100B94000A12413EAA06AB0790C233E0FEA3E0FF6F
:100BA4007D6412413EEF2BFFEE3AFE90C273E02FBC
:100BB400FF90C272E03E90C312F0A3EFF090C31214
:100BC400E0FEA3E0FFD394C8EE9400501DEF940020
:100BD400EE940040157B017AC2797290C33BE4F035
:100BE400A304F07F207E2302195390C310E0FFA3D7
:100BF400E090C272CFF0A3EFF07B017AC2797290D9
:100C0400C33BE4F0A304F07F207E2302195390C178
:100C1400B4E064016003020CD190C2A9E0FEA3E039
:100C2400FF90C310EEF0A3EFF04E700A90C2A9F04B
:100C3400A37409F0800E90C2AAE024FFF090C2A928
:100C4400E034FFF090C2A9E0FEA3E0FF7C007D0A3F
:100C540012413EAA06AB0790C233E0FEA3E0FF7D3B
:100C64006412413EEF2BFFEE3AFE90C273E02FFF79
:100C740090C272E03E90C312F0A3EFF090C312E072
:100C8400FEA3E0FFD394C8EE9400501DEF9400EE51
:100C9400940040157B017AC279A990C33BE4F0A388
:100CA40004F07F107E2302195390C310E0FFA3E0E9
:100CB40090C2A9CFF0A3EFF07B017AC279A990C3C7
:100CC4003BE4F0A304F07F107E2302195390C1B4D7
:100CD400E064026003022F5590C233E0FEA3E0FFFC
:100CE40090C310EEF0A3EFF04E700A90C233F0A35D
:100CF4007402F0800E90C234E024FFF090C233E01E
:100D040034FFF090C2A9E0FEA3E0FF7C007D0A124C
:100D1400413EAA06AB0790C233E0FEA3E0FF7D6428
:100D240012413EEF2BFFEE3AFE90C273E02FFF908C
:100D3400C272E03E90C312F0A3EFF090C312E0FE43
:100D4400A3E0FFD394C8EE9400501DEF9400EE94FA
:100D54000040157B017AC2793390C33BE4F0A304CD
:100D6400F07F007E2302195390C310E0FFA3E090AC
:100D7400C233CFF0A3EFF07B017AC2793390C33B47
:100D8400E4F0A304F07F007E2302195390C2A2E092
:100D9400FF90C223E06F6003020EED90C1B4E060E7
:100DA40003020E4590C244E0FEA3E0FF90C310EEA0
:100DB400F0A3EFF04E700A90C244F0A37409F080DF
:100DC4000E90C245E024FFF090C244E034FFF0905E
:100DD400C29EE0FEA3E0FF7C007D0A12413E90C269
:100DE40045E02FFF90C244E03E90C312F0A3EFF021
:100DF40090C312E0FEA3E0FFD39450EE9400501D84
:100E0400EF9400EE940040157B017AC2794490C3BC
:100E14003BE4F0A304F07F207E2402195390C31016
:100E2400E0FFA3E090C244CFF0A3EFF07B017AC2CD
:100E3400794490C33BE4F0A304F07F207E2402199C
:100E44005390C1B4E064016003022F5590C29EE048
:100E5400FEA3E0FF90C310EEF0A3EFF04E700A90F3
:100E6400C29EF0A37408F0800E90C29FE024FFF0AD
:100E740090C29EE034FFF090C29EE0FEA3E0FF7CAF
:100E8400007D0A12413E90C245E02FFF90C244E02B
:100E94003E90C312F0A3EFF090C312E0FEA3E0FF74
:100EA400D39450EE9400501DEF9400EE940040153E
:100EB4007B017AC2799E90C33BE4F0A304F07F10D7
:100EC4007E2402195390C310E0FFA3E090C29ECF8A
:100ED400F0A3EFF07B017AC2799E90C33BE4F0A3C8
:100EE40004F07F107E2402195390C21FE0FF90C2C9
:100EF40023E06F600302115E90C1B4E06003020F4F
:100F0400C890C1B9E0FEA3E0FF90C310EEF0A3EFD8
:100F1400F064024E700890C1B9F0A3F0800E90C145
:100F2400BAE024FFF090C1B9E034FFF090C1BBE017
:100F3400FEA3E0FF7C007D0A12413EAA06AB0790A7
:100F4400C1B9E0FEA3E0FF7D6412413EEF2BFFEE4A
:100F54003AFE90C1BEE02FFF90C1BDE03E90C312A7
:100F6400F0A3EFF090C312E0FEA3E0FFD39432EEBF
:100F74009400502CEF9400EE9400402490C1B9E00A
:100F8400FFA3E090C297CFF0A3EFF07B017AC17981
:100F9400B990C33BE4F0A304F07F007E250219530B
:100FA40090C310E0FFA3E090C1B9CFF0A3EFF07BB2
:100FB400017AC179B990C33BE4F0A304F07F007EC9
:100FC4002502195390C1B4E06401600302109690A5
:100FD400C1BBE0FEA3E0FF90C310EEF0A3EFF04E20
:100FE400700A90C1BBF0A37405F0800E90C1BCE000
:100FF40024FFF090C1BBE034FFF090C1BBE0FEA33E
:10100400E0FF7C007D0A12413EAA06AB0790C1B9FD
:10101400E0FEA3E0FF7D6412413EEF2BFFEE3AFEBB
:1010240090C1BEE02FFF90C1BDE03E90C312F0A37B
:10103400EFF090C312E0FEA3E0FFD39432EE9400ED
:10104400502CEF9400EE9400402490C1BBE0FFA329
:10105400E090C265CFF0A3EFF07B017AC179BB9039
:10106400C33BE4F0A304F07F107E2502195390C320
:1010740010E0FFA3E090C1BBCFF0A3EFF07B017AB7
:10108400C179BB90C33BE4F0A304F07F107E25023A
:10109400195390C1B4E064026003022F5590C1BD9E
:1010A400E0FEA3E0FF90C310EEF0A3EFF04E700A51
:1010B40090C1BDF0A37409F0800E90C1BEE024FF7E
:1010C400F090C1BDE034FFF090C1BBE0FEA3E0FFAF
:1010D4007C007D0A12413EAA06AB0790C1B9E0FE2E
:1010E400A3E0FF7D6412413EEF2BFFEE3AFE90C178
:1010F400BDE0FCA3E0FD2FFFEC3E90C312F0A3EF94
:10110400F090C312E0FEA3E0FFD39432EE940050BB
:1011140025EF9400EE9400401D90C250ECF0A3ED36
:10112400F07B017AC179BD90C33BE4F0A304F07F66
:10113400207E2502195390C310E0FFA3E090C1BDA7
:10114400CFF0A3EFF07B017AC179BD90C33BE4F00B
:10115400A304F07F207E2502195390C29DE0FF90E6
:10116400C223E06F60030212CE90C1B4E0600302B8
:10117400122690C270E0FEA3E0FF90C310EEF0A32D
:10118400EFF04E701D90C214E07002A3E090C270A4
:101194006008E4F0A3743BF08016E4F0A3743CF020
:1011A400800E90C271E024FFF090C270E034FFF032
:1011B40090C270E0FEA3E0FF7C007D3C12413E90B3
:1011C400C215E02FFF90C214E03E90C312F0A3EFCB
:1011D400F090C312E0FEA3E0FFD39410EE940E50FF
:1011E4001DEF9400EE940040157B017AC279709053
:1011F400C33BE4F0A304F07F507E2802195390C34C
:1012040010E0FFA3E090C270CFF0A3EFF07B017A6F
:10121400C2797090C33BE4F0A304F07F507E2802AF
:10122400195390C1B4E064016003022F5590C214B5
:10123400E0FEA3E0FF90C310EEF0A3EFF04E700ABF
:1012440090C214F0A3743BF0800E90C215E024FF0A
:10125400F090C214E034FFF090C270E0FEA3E0FF0F
:101264007C007D3C12413E90C215E02FFF90C214D9
:10127400E03E90C312F0A3EFF090C312E0FEA3E0AF
:10128400FFD39410EE940E501DEF9400EE940040A2
:10129400157B017AC2791490C33BE4F0A304F07F78
:1012A400607E2802195390C310E0FFA3E090C2149B
:1012B400CFF0A3EFF07B017AC2791490C33BE4F042
:1012C400A304F07F607E2802195390C27DE0FF9052
:1012D400C223E0B5073C90C1B4E06003022F55D3AC
:1012E40090C23FE0940190C23EE094005003022F6C
:1012F40055A3E024FFF090C23EE034FFF07B017A76
:10130400C2793E90C33BE4F0A304F07F207E29021F
:10131400195390C21BE0FF90C223E06F6003022FB9
:101324005590C1B8E06401600302156B90C1B4E04C
:1013340060030213ED90C283E0FEA3E0FF90C310AC
:10134400EEF0A3EFF04E700A90C283F0A37409F09C
:10135400800E90C284E024FFF090C283E034FFF05A
:1013640090C220E0FEA3E0FF7C007D0A12413EAA69
:1013740006AB0790C258E0FEA3E0FF7D6412413E35
:10138400EF2BFFEE3AFE90C284E02FFF90C283E081
:101394003E90C312F0A3EFF090C312E0FEA3E0FF6F
:1013A400D394C8EE9400501DEF9400EE94004015C1
:1013B4007B017AC2798390C33BE4F0A304F07F20DD
:1013C4007E2802195390C310E0FFA3E090C283CF9C
:1013D400F0A3EFF07B017AC2798390C33BE4F0A3DE
:1013E40004F07F207E2802195390C1B4E0640160A8
:1013F400030214AC90C220E0FEA3E0FF90C310EE01
:10140400F0A3EFF04E700A90C220F0A37409F080AC
:101414000E90C221E024FFF090C220E034FFF0904F
:10142400C220E0FEA3E0FF7C007D0A12413EAA0632
:10143400AB0790C258E0FEA3E0FF7D6412413EEF8B
:101444002BFFEE3AFE90C284E02FFF90C283E03E71
:1014540090C312F0A3EFF090C312E0FEA3E0FFD319
:1014640094C8EE9400501DEF9400EE940040157B58
:10147400017AC2792090C33BE4F0A304F07F107E8C
:101484002802195390C310E0FFA3E090C220CFF0CC
:10149400A3EFF07B017AC2792090C33BE4F0A3046C
:1014A400F07F107E2802195390C1B4E064026003F7
:1014B400022F5590C258E0FEA3E0FF90C310EEF057
:1014C400A3EFF04E700A90C258F0A37402F0800E9D
:1014D40090C259E024FFF090C258E034FFF090C26B
:1014E40020E0FEA3E0FF7C007D0A12413EAA06AB89
:1014F4000790C258E0FEA3E0FF7D6412413EEF2B4B
:10150400FFEE3AFE90C284E02FFF90C283E03E904B
:10151400C312F0A3EFF090C312E0FEA3E0FFD39454
:10152400C8EE9400501DEF9400EE940040157B012A
:101534007AC2795890C33BE4F0A304F07F007E287C
:1015440002195390C310E0FFA3E090C258CFF0A358
:10155400EFF07B017AC2795890C33BE4F0A304F026
:101564007F007E2802195390C1B8E0B40233D390AF
:10157400C23FE0940190C23EE094005003022F5514
:10158400A3E024FFF090C23EE034FFF07B017AC276
:10159400793E90C33BE4F0A304F07F307E29021926
:1015A4005390C1B8E0640360030217EB90C1B4E048
:1015B400600302166D90C272E0FEA3E0FF90C310B8
:1015C400EEF0A3EFF04E700A90C272F0A37409F02B
:1015D400800E90C273E024FFF090C272E034FFF0FA
:1015E40090C2A9E0FEA3E0FF7C007D0A12413EAA5E
:1015F40006AB0790C233E0FEA3E0FF7D6412413ED8
:10160400EF2BFFEE3AFE90C273E02FFF90C272E020
:101614003E90C312F0A3EFF090C312E0FEA3E0FFEC
:10162400D394C8EE9400501DEF9400EE940040153E
:101634007B017AC2797290C33BE4F0A304F07F90FB
:101644007E2802195390C310E0FFA3E090C272CF2A
:10165400F0A3EFF07B017AC2797290C33BE4F0A36C
:1016640004F07F907E2802195390C1B4E0640160B5
:101674000302172C90C2A9E0FEA3E0FF90C310EE72
:10168400F0A3EFF04E700A90C2A9F0A37409F080A1
:101694000E90C2AAE024FFF090C2A9E034FFF090BB
:1016A400C2A9E0FEA3E0FF7C007D0A12413EAA0627
:1016B400AB0790C233E0FEA3E0FF7D6412413EEF2E
:1016C4002BFFEE3AFE90C273E02FFF90C272E03E11
:1016D40090C312F0A3EFF090C312E0FEA3E0FFD397
:1016E40094C8EE9400501DEF9400EE940040157BD6
:1016F400017AC279A990C33BE4F0A304F07F807E11
:101704002802195390C310E0FFA3E090C2A9CFF0C0
:10171400A3EFF07B017AC279A990C33BE4F0A30460
:10172400F07F807E2802195390C1B4E06402600304
:10173400022F5590C233E0FEA3E0FF90C310EEF0F9
:10174400A3EFF04E700A90C233F0A37402F0800E3F
:1017540090C234E024FFF090C233E034FFF090C232
:10176400A9E0FEA3E0FF7C007D0A12413EAA06AB7D
:101774000790C233E0FEA3E0FF7D6412413EEF2BED
:10178400FFEE3AFE90C273E02FFF90C272E03E90EB
:10179400C312F0A3EFF090C312E0FEA3E0FFD394D2
:1017A400C8EE9400501DEF9400EE940040157B01A8
:1017B4007AC2793390C33BE4F0A304F07F707E28AF
:1017C40002195390C310E0FFA3E090C233CFF0A3FB
:1017D400EFF07B017AC2793390C33BE4F0A304F0C9
:1017E4007F707E2802195390C1B8E064046003023C
:1017F4002F5590C1B4E060030218AF90C270E0FEB0
:10180400A3E0FF90C310EEF0A3EFF04E701D90C262
:1018140014E07002A3E090C2706008E4F0A3743B8B
:10182400F08016E4F0A3743CF0800E90C271E024C2
:10183400FFF090C270E034FFF090C270E0FEA3E0CD
:10184400FF7C007D3C12413E90C215E02FFF90C208
:1018540014E03E90C312F0A3EFF090C312E0FEA395
:10186400E0FFD39410EE940E501DEF9400EE94001C
:1018740040157B017AC2797090C33BE4F0A304F075
:101884007F507E2802195390C310E0FFA3E090C25A
:1018940070CFF0A3EFF07B017AC2797090C33BE480
:1018A400F0A304F07F507E2802195390C1B4E06481
:1018B400016003022F5590C214E0FEA3E0FF90C321
:1018C40010EEF0A3EFF04E700A90C214F0A3743B34
:1018D400F0800E90C215E024FFF090C214E034FFB3
:1018E400F090C270E0FEA3E0FF7C007D3C12413E1C
:1018F40090C215E02FFF90C214E03E90C312F0A3F3
:10190400EFF090C312E0FEA3E0FFD39410EE940E28
:10191400501CEF9400EE940040147B017AC27914B9
:1019240090C33BE4F0A304F07F607E28802190C341
:1019340010E0FFA3E090C214CFF0A3EFF07B017A94
:10194400C2791490C33BE4F0A304F07F607E2812B4
:101954005871022F5590C1B7E06401702890C1BF3F
:10196400E07002A3E06003022F551275CF90C1B856
:10197400E0B401057404F0800690C1B8E014F012DC
:101984006E9C022F5590C281E0FF90C223E0B50700
:101994000B90C289E090C223F0021A1F90C1B5E0F7
:1019A4006401702C90C25AE0FF90C223E0B5070591
:1019B40090C26E802F90C22EE0FF90C223E0B50744
:1019C4000590C25A801E90C223E014F0E0FF804FBD
:1019D40090C1B6E0B4011E90C222E0FFA3E0B507B7
:1019E4000790C25AE0FF800790C223E0FF14F01270
:1019F4008139022F5590C237E0FF90C223E0B5072A
:101A04001790C23DE070057407F0800690C23DE077
:101A140014F0126162022F5590C223E0FF14F012F9
:101A24007C68022F5590C1BFE07004A3E06401609C
:101A340003022E7F90C2A3E0FF90C223E06F6003F5
:101A4400021C7290C1B4E06003021AF290C283E0F7
:101A5400FEA3E0FF90C310EEF0A3EFF064094E6024
:101A64001090C284E004F0700F90C283E004F08010
:101A740007E490C283F0A3F090C220E0FEA3E0FF4D
:101A84007C007D0A12413EAA06AB0790C258E0FED4
:101A9400A3E0FF7D6412413EEF2BFFEE3AFE90C2BD
:101AA40084E02FFF90C283E03E90C312F0A3EFF0D6
:101AB40090C312E0FEA3E0FFD394C8EE9400500A52
:101AC400EF9400EE94004002800F90C310E0FFA357
:101AD400E090C283CFF0A3EFF07B017AC2798390C8
:101AE400C33BE4F0A304F07420FFFE022E7990C1FE
:101AF400B4E064016003021BB290C220E0FEA3E0E4
:101B0400FF90C310EEF0A3EFF064094E601090C292
:101B140021E004F0700F90C220E004F08007E4900C
:101B2400C220F0A3F090C220E0FEA3E0FF7C007D81
:101B34000A12413EAA06AB0790C258E0FEA3E0FF9A
:101B44007D6412413EEF2BFFEE3AFE90C284E02FFB
:101B5400FF90C283E03E90C312F0A3EFF090C31253
:101B6400E0FEA3E0FFD394C8EE9400501DEF940070
:101B7400EE940040157B017AC2792090C33BE4F0D7
:101B8400A304F07F107E20022E7990C310E0FFA3FF
:101B9400E090C220CFF0A3EFF07B017AC2792090CD
:101BA400C33BE4F0A304F07F107E20022E7990C1A1
:101BB400B4E064026003022F5590C258E0FEA3E033
:101BC400FF90C310EEF0A3EFF064024E601090C2D9
:101BD40059E004F0700F90C258E004F08007E490DC
:101BE400C258F0A3F090C220E0FEA3E0FF7C007D89
:101BF4000A12413EAA06AB0790C258E0FEA3E0FFDA
:101C04007D6412413EEF2BFFEE3AFE90C284E02F3A
:101C1400FF90C283E03E90C312F0A3EFF090C31292
:101C2400E0FEA3E0FFD394C8EE9400501DEF9400AF
:101C3400EE940040157B017AC2795890C33BE4F0DE
:101C4400A304F07F007E20022E7990C310E0FFA34E
:101C5400E090C258CFF0A3EFF07B017AC27958909C
:101C6400C33BE4F0A304F07F007E20022E7990C2EF
:101C7400ABE0FF90C223E06F6003021DD090C1B4BB
:101C8400E06003021D2890C275E0FEA3E0FF90C34C
:101C940010EEF0A3EFF064094E601090C276E004F9
:101CA400F0700F90C275E004F08007E490C275F004
:101CB400A3F090C2ACE0FEA3E0FF7C007D0A1241D9
:101CC4003E90C276E02FFF90C275E03E90C312F0C2
:101CD400A3EFF090C312E0FEA3E0FFD39450EE9480
:101CE40000501DEF9400EE940040157B017AC279F8
:101CF4007590C33BE4F0A304F07F207E21022E798B
:101D040090C310E0FFA3E090C275CFF0A3EFF07B87
:101D1400017AC2797590C33BE4F0A304F07F207E7E
:101D240021022E7990C1B4E064016003022F559022
:101D3400C2ACE0FEA3E0FF90C310EEF0A3EFF064AA
:101D4400084E700890C2ACF0A3F0800E90C2ADE0D3
:101D540004F0700690C2ACE004F090C2ACE0FEA3C4
:101D6400E0FF7C007D0A12413E90C276E02FFF9096
:101D7400C275E03E90C312F0A3EFF090C312E0FEF0
:101D8400A3E0FFD39450EE9400501DEF9400EE9422
:101D94000040157B017AC279AC90C33BE4F0A30404
:101DA400F07F107E21022E7990C310E0FFA3E09013
:101DB400C2ACCFF0A3EFF07B017AC279AC90C33B05
:101DC400E4F0A304F07F107E21022E7990C22CE06F
:101DD400FF90C223E06F600302204190C1B4E06031
:101DE40003021EAB90C1B9E0FEA3E0FF90C310EE66
:101DF400F0A3EFF064094E700890C1B9F0A3F0802D
:101E04000E90C1BAE004F0700690C1B9E004F090FD
:101E1400C1BBE0FEA3E0FF7C007D0A12413EAA069E
:101E2400AB0790C1B9E0FEA3E0FF7D6412413EEF31
:101E34002BFFEE3AFE90C1BEE02FFF90C1BDE03E05
:101E440090C312F0A3EFF090C312E0FEA3E0FFD31F
:101E54009432EE9400502CEF9400EE9400402490C1
:101E6400C1B9E0FFA3E090C291CFF0A3EFF07B01F2
:101E74007AC179B990C33BE4F0A304F07F007E22D9
:101E8400022E7990C310E0FFA3E090C1B9CFF0A374
:101E9400EFF07B017AC179B990C33BE4F0A304F07D
:101EA4007F007E22022E7990C1B4E06401600302B7
:101EB4001F7990C1BBE0FEA3E0FF90C310EEF0A336
:101EC400EFF064054E700890C1BBF0A3F0800E9053
:101ED400C1BCE004F0700690C1BBE004F090C1BB4B
:101EE400E0FEA3E0FF7C007D0A12413EAA06AB0798
:101EF40090C1B9E0FEA3E0FF7D6412413EEF2BFFE9
:101F0400EE3AFE90C1BEE02FFF90C1BDE03E90C30B
:101F140012F0A3EFF090C312E0FEA3E0FFD39432DB
:101F2400EE9400502CEF9400EE9400402490C1BB3A
:101F3400E0FFA3E090C25FCFF0A3EFF07B017AC192
:101F440079BB90C33BE4F0A304F07F107E22022E01
:101F54007990C310E0FFA3E090C1BBCFF0A3EFF0F2
:101F64007B017AC179BB90C33BE4F0A304F07F10FA
:101F74007E22022E7990C1B4E064026003022F55E0
:101F840090C1BDE0FEA3E0FF90C310EEF0A3EFF01C
:101F940064094E700890C1BDF0A3F0800E90C1BEDC
:101FA400E004F0700690C1BDE004F090C1BBE0FE17
:101FB400A3E0FF7C007D0A12413EAA06AB0790C154
:101FC400B9E0FEA3E0FF7D6412413EEF2BFFEE3A41
:101FD400FE90C1BDE0FCA3E0FD2FFFEC3E90C312D8
:101FE400F0A3EFF090C312E0FEA3E0FFD39432EE2F
:101FF40094005025EF9400EE9400401D90C24AECEA
:10200400F0A3EDF07B017AC179BD90C33BE4F0A36A
:1020140004F07F207E22022E7990C310E0FFA3E01B
:1020240090C1BDCFF0A3EFF07B017AC179BD90C31D
:102034003BE4F0A304F07F207E22022E7990C28A32
:10204400E0FF90C223E06F600302228E90C1B4E0EF
:10205400600302210E90C272E0FEA3E0FF90C31061
:10206400EEF0A3EFF064094E601090C273E004F048
:10207400700F90C272E004F08007E490C272F0A383
:10208400F090C2A9E0FEA3E0FF7C007D0A12413E6D
:10209400AA06AB0790C233E0FEA3E0FF7D641241C1
:1020A4003EEF2BFFEE3AFE90C273E02FFF90C27218
:1020B400E03E90C312F0A3EFF090C312E0FEA3E061
:1020C400FFD394C8EE9400501DEF9400EE940040AA
:1020D400157B017AC2797290C33BE4F0A304F07FCC
:1020E400207E23022E7990C310E0FFA3E090C272F9
:1020F400CFF0A3EFF07B017AC2797290C33BE4F096
:10210400A304F07F207E23022E7990C1B4E0640101
:1021140060030221CE90C2A9E0FEA3E0FF90C310A9
:10212400EEF0A3EFF064094E601090C2AAE004F050
:10213400700F90C2A9E004F08007E490C2A9F0A354
:10214400F090C2A9E0FEA3E0FF7C007D0A12413EAC
:10215400AA06AB0790C233E0FEA3E0FF7D64124100
:102164003EEF2BFFEE3AFE90C273E02FFF90C27257
:10217400E03E90C312F0A3EFF090C312E0FEA3E0A0
:10218400FFD394C8EE9400501DEF9400EE940040E9
:10219400157B017AC279A990C33BE4F0A304F07FD4
:1021A400107E23022E7990C310E0FFA3E090C2A911
:1021B400CFF0A3EFF07B017AC279A990C33BE4F09E
:1021C400A304F07F107E23022E7990C1B4E0640250
:1021D4006003022F5590C233E0FEA3E0FF90C310CA
:1021E400EEF0A3EFF064024E601090C234E004F00D
:1021F400700F90C233E004F08007E490C233F0A380
:10220400F090C2A9E0FEA3E0FF7C007D0A12413EEB
:10221400AA06AB0790C233E0FEA3E0FF7D6412413F
:102224003EEF2BFFEE3AFE90C273E02FFF90C27296
:10223400E03E90C312F0A3EFF090C312E0FEA3E0DF
:10224400FFD394C8EE9400501DEF9400EE94004028
:10225400157B017AC2793390C33BE4F0A304F07F89
:10226400007E23022E7990C310E0FFA3E090C233D6
:10227400CFF0A3EFF07B017AC2793390C33BE4F053
:10228400A304F07F007E23022E7990C2A2E0FF9087
:10229400C223E06F60030223EB90C1B4E060030249
:1022A400234390C244E0FEA3E0FF90C310EEF0A3EA
:1022B400EFF064094E700890C244F0A3F0800E90D1
:1022C400C245E004F0700690C244E004F090C29E5F
:1022D400E0FEA3E0FF7C007D0A12413E90C245E08F
:1022E4002FFF90C244E03E90C312F0A3EFF090C3DE
:1022F40012E0FEA3E0FFD39450EE9400501DEF943F
:1023040000EE940040157B017AC2794490C33BE40B
:10231400F0A304F07F207E24022E7990C310E0FF06
:10232400A3E090C244CFF0A3EFF07B017AC27944DA
:1023340090C33BE4F0A304F07F207E24022E799026
:10234400C1B4E064016003022F5590C29EE0FEA375
:10235400E0FF90C310EEF0A3EFF064084E70089015
:10236400C29EF0A3F0800E90C29FE004F07006902D
:10237400C29EE004F090C29EE0FEA3E0FF7C007DDC
:102384000A12413E90C245E02FFF90C244E03E90C5
:10239400C312F0A3EFF090C312E0FEA3E0FFD394C6
:1023A40050EE9400501DEF9400EE940040157B0114
:1023B4007AC2799E90C33BE4F0A304F07F107E249C
:1023C400022E7990C310E0FFA3E090C29ECFF0A349
:1023D400EFF07B017AC2799E90C33BE4F0A304F052
:1023E4007F107E24022E7990C21FE0FF90C223E06A
:1023F4006F600302265C90C1B4E060030224C690BF
:10240400C1B9E0FEA3E0FF90C310EEF0A3EFF064C7
:10241400094E700890C1B9F0A3F0800E90C1BAE0E3
:1024240004F0700690C1B9E004F090C1BBE0FEA3D3
:10243400E0FF7C007D0A12413EAA06AB0790C1B9B9
:10244400E0FEA3E0FF7D6412413EEF2BFFEE3AFE77
:1024540090C1BEE02FFF90C1BDE03E90C312F0A337
:10246400EFF090C312E0FEA3E0FFD39432EE9400A9
:10247400502CEF9400EE9400402490C1B9E0FFA3E7
:10248400E090C297CFF0A3EFF07B017AC179B990C5
:10249400C33BE4F0A304F07F007E25022E7990C3B1
:1024A40010E0FFA3E090C1B9CFF0A3EFF07B017A75
:1024B400C179B990C33BE4F0A304F07F007E250208
:1024C4002E7990C1B4E06401600302259490C1BBED
:1024D400E0FEA3E0FF90C310EEF0A3EFF064054E1E
:1024E400700890C1BBF0A3F0800E90C1BCE004F072
:1024F400700690C1BBE004F090C1BBE0FEA3E0FF16
:102504007C007D0A12413EAA06AB0790C1B9E0FEE9
:10251400A3E0FF7D6412413EEF2BFFEE3AFE90C133
:10252400BEE02FFF90C1BDE03E90C312F0A3EFF0D8
:1025340090C312E0FEA3E0FFD39432EE9400502C3B
:10254400EF9400EE9400402490C1BBE0FFA3E09020
:10255400C265CFF0A3EFF07B017AC179BB90C33B96
:10256400E4F0A304F07F107E25022E7990C310E0DE
:10257400FFA3E090C1BBCFF0A3EFF07B017AC17958
:10258400BB90C33BE4F0A304F07F107E25022E79B8
:1025940090C1B4E064026003022F5590C1BDE0FE17
:1025A400A3E0FF90C310EEF0A3EFF064094E7008AF
:1025B40090C1BDF0A3F0800E90C1BEE004F070069F
:1025C40090C1BDE004F090C1BBE0FEA3E0FF7C003D
:1025D4007D0A12413EAA06AB0790C1B9E0FEA3E012
:1025E400FF7D6412413EEF2BFFEE3AFE90C1BDE049
:1025F400FCA3E0FD2FFFEC3E90C312F0A3EFF0909C
:10260400C312E0FEA3E0FFD39432EE94005025EF12
:102614009400EE9400401D90C250ECF0A3EDF07BCA
:10262400017AC179BD90C33BE4F0A304F07F207E1E
:1026340025022E7990C310E0FFA3E090C1BDCFF036
:10264400A3EFF07B017AC179BD90C33BE4F0A3040E
:10265400F07F207E25022E7990C29DE0FF90C22358
:10266400E06F60030227E290C1B4E0600302273AFE
:1026740090C270E0FEA3E0FF90C310EEF0A3EFF071
:10268400643B4E701D90C214E07002A3E06003E44A
:10269400801C90C271E004F0702A90C270E004F0D3
:1026A400802290C270E07004A3E0643C700890C281
:1026B40070F0A3F0800E90C271E004F0700690C236
:1026C40070E004F090C270E0FEA3E0FF7C007D3C6B
:1026D40012413E90C215E02FFF90C214E03E90C319
:1026E40012F0A3EFF090C312E0FEA3E0FFD3941026
:1026F400EE940E501DEF9400EE940040157B017A89
:10270400C2797090C33BE4F0A304F07F507E2802AA
:102714002E7990C310E0FFA3E090C270CFF0A3EF36
:10272400F07B017AC2797090C33BE4F0A304F07F9C
:10273400507E28022E7990C1B4E064016003022F18
:102744005590C214E0FEA3E0FF90C310EEF0A3EF97
:10275400F0643B4E700890C214F0A3F0800E90C257
:1027640015E004F0700690C214E004F090C270E02A
:10277400FEA3E0FF7C007D3C12413E90C215E02F99
:10278400FF90C214E03E90C312F0A3EFF090C31286
:10279400E0FEA3E0FFD39410EE940E501DEF9400DE
:1027A400EE940040157B017AC2791490C33BE4F0A7
:1027B400A304F07F607E28022E7990C310E0FFA36B
:1027C400E090C214CFF0A3EFF07B017AC2791490A9
:1027D400C33BE4F0A304F07F607E28022E7990C20C
:1027E4007DE0FF90C223E0B50733C390C23FE0947D
:1027F4001490C23EE094004003022F55A3E004F07D
:10280400700690C23EE004F07B017AC2793E90C328
:102814003BE4F0A304F07F207E29022E7990C21BB2
:10282400E0FF90C223E06F6003022F5590C1B8E02F
:1028340064016003022A7990C1B4E060030228F9BC
:1028440090C283E0FEA3E0FF90C310EEF0A3EFF08C
:1028540064094E601090C284E004F0700F90C2834B
:10286400E004F08007E490C283F0A3F090C220E07B
:10287400FEA3E0FF7C007D0A12413EAA06AB07904E
:10288400C258E0FEA3E0FF7D6412413EEF2BFFEE51
:102894003AFE90C284E02FFF90C283E03E90C312C0
:1028A400F0A3EFF090C312E0FEA3E0FFD394C8EED0
:1028B4009400501DEF9400EE940040157B017AC201
:1028C400798390C33BE4F0A304F07F207E28022E9A
:1028D4007990C310E0FFA3E090C283CFF0A3EFF0A0
:1028E4007B017AC2798390C33BE4F0A304F07F2098
:1028F4007E28022E7990C1B4E0640160030229B9F4
:1029040090C220E0FEA3E0FF90C310EEF0A3EFF02E
:1029140064094E601090C221E004F0700F90C22050
:10292400E004F08007E490C220F0A3F090C220E01D
:10293400FEA3E0FF7C007D0A12413EAA06AB07908D
:10294400C258E0FEA3E0FF7D6412413EEF2BFFEE90
:102954003AFE90C284E02FFF90C283E03E90C312FF
:10296400F0A3EFF090C312E0FEA3E0FFD394C8EE0F
:102974009400501DEF9400EE940040157B017AC240
:10298400792090C33BE4F0A304F07F107E28022E4C
:102994007990C310E0FFA3E090C220CFF0A3EFF042
:1029A4007B017AC2792090C33BE4F0A304F07F104A
:1029B4007E28022E7990C1B4E064026003022F5590
:1029C40090C258E0FEA3E0FF90C310EEF0A3EFF036
:1029D40064024E601090C259E004F0700F90C25827
:1029E400E004F08007E490C258F0A3F090C220E025
:1029F400FEA3E0FF7C007D0A12413EAA06AB0790CD
:102A0400C258E0FEA3E0FF7D6412413EEF2BFFEECF
:102A14003AFE90C284E02FFF90C283E03E90C3123E
:102A2400F0A3EFF090C312E0FEA3E0FFD394C8EE4E
:102A34009400501DEF9400EE940040157B017AC27F
:102A4400795890C33BE4F0A304F07F007E28022E63
:102A54007990C310E0FFA3E090C258CFF0A3EFF049
:102A64007B017AC2795890C33BE4F0A304F07F0061
:102A74007E28022E7990C1B8E0B4023290C23EE0C2
:102A84007004A3E064147003022F5590C23FE00465
:102A9400F0700690C23EE004F07B017AC2793E9069
:102AA400C33BE4F0A304F07F307E29022E7990C169
:102AB400B8E064036003022CFB90C1B4E06003023D
:102AC4002B7B90C272E0FEA3E0FF90C310EEF0A354
:102AD400EFF064094E601090C273E004F0700F9040
:102AE400C272E004F08007E490C272F0A3F090C2D6
:102AF400A9E0FEA3E0FF7C007D0A12413EAA06ABDA
:102B04000790C233E0FEA3E0FF7D6412413EEF2B49
:102B1400FFEE3AFE90C273E02FFF90C272E03E9047
:102B2400C312F0A3EFF090C312E0FEA3E0FFD3942E
:102B3400C8EE9400501DEF9400EE940040157B0104
:102B44007AC2797290C33BE4F0A304F07F907E28AC
:102B5400022E7990C310E0FFA3E090C272CFF0A3DD
:102B6400EFF07B017AC2797290C33BE4F0A304F0E6
:102B74007F907E28022E7990C1B4E0640160030244
:102B84002C3B90C2A9E0FEA3E0FF90C310EEF0A39B
:102B9400EFF064094E601090C2AAE004F0700F9048
:102BA400C2A9E004F08007E490C2A9F0A3F090C2A7
:102BB400A9E0FEA3E0FF7C007D0A12413EAA06AB19
:102BC4000790C233E0FEA3E0FF7D6412413EEF2B89
:102BD400FFEE3AFE90C273E02FFF90C272E03E9087
:102BE400C312F0A3EFF090C312E0FEA3E0FFD3946E
:102BF400C8EE9400501DEF9400EE940040157B0144
:102C04007AC279A990C33BE4F0A304F07F807E28C4
:102C1400022E7990C310E0FFA3E090C2A9CFF0A3E5
:102C2400EFF07B017AC279A990C33BE4F0A304F0EE
:102C34007F807E28022E7990C1B4E0640260030292
:102C44002F5590C233E0FEA3E0FF90C310EEF0A333
:102C5400EFF064024E601090C234E004F0700F9004
:102C6400C233E004F08007E490C233F0A3F090C2D2
:102C7400A9E0FEA3E0FF7C007D0A12413EAA06AB58
:102C84000790C233E0FEA3E0FF7D6412413EEF2BC8
:102C9400FFEE3AFE90C273E02FFF90C272E03E90C6
:102CA400C312F0A3EFF090C312E0FEA3E0FFD394AD
:102CB400C8EE9400501DEF9400EE940040157B0183
:102CC4007AC2793390C33BE4F0A304F07F707E288A
:102CD400022E7990C310E0FFA3E090C233CFF0A39B
:102CE400EFF07B017AC2793390C33BE4F0A304F0A4
:102CF4007F707E28022E7990C1B8E06404600302DC
:102D04002F5590C1B4E06003022DD590C270E0FE4F
:102D1400A3E0FF90C310EEF0A3EFF0643B4E701DF0
:102D240090C214E07002A3E06003E4801C90C271BE
:102D3400E004F0702A90C270E004F0802290C27027
:102D4400E07004A3E0643C700890C270F0A3F080CB
:102D54000E90C271E004F0700690C270E004F0902E
:102D6400C270E0FEA3E0FF7C007D3C12413E90C2B5
:102D740015E02FFF90C214E03E90C312F0A3EFF0D1
:102D840090C312E0FEA3E0FFD39410EE940E501D06
:102D9400EF9400EE940040157B017AC2797090C3E1
:102DA4003BE4F0A304F07F507E28022E7990C310F8
:102DB400E0FFA3E090C270CFF0A3EFF07B017AC2F2
:102DC400797090C33BE4F0A304F07F507E28022E78
:102DD4007990C1B4E064016003022F5590C214E0FD
:102DE400FEA3E0FF90C310EEF0A3EFF0643B4E703F
:102DF4000890C214F0A3F0800E90C215E004F070A5
:102E04000690C214E004F090C270E0FEA3E0FF7CE0
:102E1400007D3C12413E90C215E02FFF90C214E0A9
:102E24003E90C312F0A3EFF090C312E0FEA3E0FFC4
:102E3400D39410EE940E501CEF9400EE94004014C2
:102E44007B017AC2791490C33BE4F0A304F07F6061
:102E54007E28802190C310E0FFA3E090C214CFF03D
:102E6400A3EFF07B017AC2791490C33BE4F0A3048E
:102E7400F07F607E28125871022F5590C1B7E0642C
:102E840001702A90C21BE0FF90C223E06F6003022E
:102E94002F551275CF90C1B8E0B404057401F080C9
:102EA4000690C1B8E004F0126E9C022F5590C289BE
:102EB400E0FF90C223E0B5070B90C281E090C223EB
:102EC400F0022F4E90C1B5E06401702190C26EE013
:102ED400FF90C223E0B50702802790C25AE0FF901A
:102EE400C223E0B5070590C22E802A802C90C1B67B
:102EF400E06401703090C242E0FF90C223E0B50765
:102F04000590C25A800F90C25AE0FF90C223E0B5E8
:102F1400070790C222E0FF800790C223E0FF04F07D
:102F2400128139802C90C237E0FF90C223E0B507AC
:102F34001690C23DE0B40704E4F0800690C23DE080
:102F440004F0126162800A90C223E0FF04F0127C54
:102F54006890C1B27401F07D1E7C00E4FF027E31F2
:102F640090C22AE0B4010302732A90C1BFE0700446
:102F7400A3E0640160030232FE90C21BE0FF90C232
:102F840023E06F600302313090C1B8E0640170291E
:102F940090C1B4E004F0E06403700F126FA890C114
:102FA400B8E0FF7E007D6402312B90C1B8E0FF7E63
:102FB4000090C1B4E0FD02312B90C1B8E0B402210D
:102FC400E490C1BFF0A3F090C1B4F090C23EE0FC25
:102FD400A3E0FD7F047E81126FF67F537E92027E12
:102FE4007790C1B8E06403706C90C1B4E004F0E081
:102FF4006403705290C1BFF0A3F090C1B4F090C2CA
:10300400A9E0FEA3E0FF7C007D0A12413EAA06ABC4
:103014000790C233E0FEA3E0FF7D6412413EEF2B34
:10302400FFEE3AFE90C273E02FFF90C272E03E9032
:10303400C312F0A3EFF07F02126FEC90C1B8E0FF6F
:103044007E007D64800C90C1B8E0FF7E0090C1B426
:10305400E0FD02312B90C1B8E064046003023A74CD
:1030640090C1B4E004F0E06402600302311F90C137
:10307400BFF0A3F090C1B4F07B017AC2797090C321
:1030840037F0A304F07F507E281251B87B017AC236
:10309400791490C337E4F0A304F07F607E281251C2
:1030A400B890C270E0FEA3E0FF7C007D3C12413E7C
:1030B40090C215E02FFF90C214E03E90C312F0A31B
:1030C400EFF07B017AC2791490C33BE4F0A304F0DF
:1030D4007F607E2812587190C312E0FCA3E0FD7F4C
:1030E400067E81126FF67B017AC3791290C33BE4AA
:1030F400F0A304F07F007E821258717B017AC379B9
:103104001290C33BE4F0A304F07F027E8212587154
:1031140090C1B8E0FF7E007D64800C90C1B8E0FFF0
:103124007E0090C1B4E0FD7C000262AB90C1B4E0CB
:1031340004F090C223E0FF7E0090C1B4E0FD7C0067
:1031440012445A90C2A3E0FF90C223E06F700E9025
:10315400C1B4E064047006126FA802351790C2ABC4
:10316400E0FF90C223E06F704890C1B4E064037044
:103174004090C1BFF0A3F090C1B4F090C2ACE0FEA7
:10318400A3E0FF7C007D0A12413E90C276E02FFF4F
:1031940090C275E03E90C312F0A3EFF090C312E02A
:1031A400FCA3E0FD7F087E81126FF690C2320239E3
:1031B400F090C22CE0FF90C223E06F705F90C1B426
:1031C400E06404705790C1BFF0A3F090C1B4F090D4
:1031D400C2A9E0FEA3E0FF7C007D0A12413EAA06DC
:1031E400AB0790C233E0FEA3E0FF7D6412413EEFE3
:1031F4002BFFEE3AFE90C273E02FFF90C272E03EC6
:1032040090C312F0A3EFF090C312E0FCA3E0FD7FA3
:10321400027E81126FF690C26E0239F090C28AE08B
:10322400FF90C223E06F704590C1B4E06403703D29
:1032340090C1BFF0A3F090C1B4F090C29EE0FEA391
:10324400E0FF7C007D0A12413E90C245E02FFF90D2
:10325400C244E03E90C312F0A3EFF090C312E0FC2E
:10326400A3E0FD7F0A7E81126FF602352F90C2A281
:10327400E0FF90C223E06F704890C1B4E064037033
:103284004090C1BFF0A3F090C1B4F090C270E0FED2
:10329400A3E0FF7C007D3C12413E90C215E02FFF6D
:1032A40090C214E03E90C312F0A3EFF090C312E07A
:1032B400FCA3E0FD7F067E81126FF690C22D0239D9
:1032C400F090C21FE0FF90C223E06F6003023A74E3
:1032D40090C1B4E064026003023A7490C1BFF0A3E9
:1032E400F090C1B4F090C23EE0FCA3E0FD7F047E08
:1032F40081126FF690C2420239F090C281E0FF90D1
:10330400C223E06F60030235057B017AC379129012
:10331400C337F0A304F07F007E811251B890C3122A
:10332400E0FAA3E0FB7C007D64FFAE021241509002
:10333400C258EEF0A3EFF07C007D0AAF03AE021298
:1033440041507C007D0A12415090C220ECF0A3ED64
:10335400F090C312E0FEA3E0FF7C007D0A1241500E
:1033640090C283ECF0A3EDF07B017AC2795890C34C
:103374003BE4F0A304F07F007E281258717B017AAD
:10338400C2792090C33BE4F0A304F07F107E28129E
:1033940058717B017AC2798390C33BE4F0A304F0B3
:1033A4007F207E281258717B017AC3791290C3372B
:1033B400E4F0A304F07F027E811251B890C312E0BE
:1033C400FAA3E0FB7C007D64FFAE0212415090C280
:1033D40033EEF0A3EFF07C007D0AAF03AE0212419E
:1033E400507C007D0A12415090C2A9ECF0A3EDF08C
:1033F40090C312E0FEA3E0FF7C007D0A12415090CE
:10340400C272ECF0A3EDF07B017AC2793390C33B36
:10341400E4F0A304F07F707E281258717B017AC215
:1034240079A990C33BE4F0A304F07F807E2812586E
:10343400717B017AC2797290C33BE4F0A304F07FFC
:10344400907E281258717B017AC3791290C337E4B5
:10345400F0A37402F07F067E811251B890C312E08B
:10346400FAA3E0FB7C007D3CFFAE0212415090C207
:1034740070EEF0A3EFF07C007D3CAF03AE0212418E
:103484005090C214ECF0A3EDF07B017AC2797090F5
:10349400C33BE4F0A37402F07F507E281258717B82
:1034A400017AC2791490C33BE4F0A37402F07F6004
:1034B4007E281258717B017AC2793E90C337E4F0BA
:1034C400A37402F07F047E811251B87B017AC27921
:1034D4003E90C33BE4F0A37402F07F307E2912587F
:1034E40071E490C312F0A3F090C1B804F0126E9F7F
:1034F40090C2237415F0FF127C6890C1B77401F078
:103504002290C282E0FF90C223E0B5070C90C1B5BF
:103514007401F090C22E0239F090C285E0FF90C28F
:1035240023E0B5070C90C1B67401F090C2220239B1
:10353400F090C286E0FF90C223E06F60030235D7AB
:1035440090C1BFF0A304F0FB7AC3791290C337E4AF
:10355400F0A304F07F067E811251B890C312E0FA02
:10356400A3E0FB7C007D3CFFAE0212415090C27090
:10357400EEF0A3EFF07C007D3CAF03AE02124150AD
:1035840090C214ECF0A3EDF07B017AC2797090C381
:103594003BE4F0A304F07F507E281258717B017A3B
:1035A400C2791490C33BE4F0A304F07F607E281238
:1035B400587190C223E0FF127C687F937E91127F42
:1035C4005B7F037E92127F407F70127E5590C29D76
:1035D4000239F090C287E0FF90C223E06F704790F9
:1035E400C1BFF0A304F0FB7AC2793E90C337E4F084
:1035F400A304F07F047E811251B87B017AC2793E24
:1036040090C33BE4F0A304F07F207E291258717F1D
:10361400137E92127F5BE4FDFC7F807E39127E5A1A
:1036240090C27D0239F090C288E0FF90C223E06F1F
:1036340060030236EE90C1B704F090C314E0700446
:10364400A3E06401700590C22B802590C316E0703E
:1036540004A3E06401700590C224801490C31AE0AE
:103664007004A3E06401700590C21E800390C22B15
:10367400E0FF12813990C2A7E06003023A747B0133
:103684007AC3791290C337F0A37402F07F067E8167
:103694001251B890C312E0FAA3E0FB7C007D3CFF1A
:1036A400AE0212415090C270EEF0A3EFF07C007DA8
:1036B4003CAF03AE0212415090C214ECF0A3EDF003
:1036C4007B017AC2797090C33BE4F0A304F07F508D
:1036D4007E281258717B017AC2791490C33BE4F0BE
:1036E400A304F07F607E2802587190C289E0FF90A5
:1036F400C223E0B5071190C237E0FF12813990C2AE
:103704002A7401F002616290C22EE0FF90C223E0AD
:103714006F600302379990C1BFF0A304F090C29187
:10372400E0FFA3E090C1B9CFF0A3EFF090C25FE057
:10373400FFA3E090C1BBCFF0A3EFF090C24AE0FF3B
:10374400A3E090C1BDCFF0A3EFF07B017AC179B9BA
:1037540090C33BE4F0A304F07F007E221258717BF7
:10376400017AC179BB90C33BE4F0A304F07F107EDF
:10377400221258717B017AC179BD90C33BE4F0A356
:1037840004F07F207E22125871124450127E53900E
:10379400C2A30239F090C232E0FF90C223E06F600E
:1037A4000302382790C1BFF0A304F090C291E0FF58
:1037B400A3E090C1B9CFF0A3EFF090C25FE0FFA304
:1037C400E090C1BBCFF0A3EFF090C24AE0FFA3E0CA
:1037D40090C1BDCFF0A3EFF07B017AC179B990C35A
:1037E4003BE4F0A304F07F007E221258717B017A3F
:1037F400C179BB90C33BE4F0A304F07F107E221296
:1038040058717B017AC179BD90C33BE4F0A304F005
:103814007F207E22125871124450127E5390C22C83
:103824000239F090C222E0FFA3E06F60030238B3D4
:1038340090C1BFF0A304F090C291E0FFA3E090C157
:10384400B9CFF0A3EFF090C25FE0FFA3E090C1BB5B
:10385400CFF0A3EFF090C24AE0FFA3E090C1BDCF48
:10386400F0A3EFF07B017AC179B990C33BE4F0A3F4
:1038740004F07F007E221258717B017AC179BB90DB
:10388400C33BE4F0A304F07F107E221258717B0145
:103894007AC179BD90C33BE4F0A304F07F207E227B
:1038A400125871124450127E5390C28A0239F09019
:1038B400C22DE0FF90C223E06F600302394190C142
:1038C400BFF0A304F090C291E0FFA3E090C1B9CF90
:1038D400F0A3EFF090C25FE0FFA3E090C1BBCFF094
:1038E400A3EFF090C24AE0FFA3E090C1BDCFF0A3E4
:1038F400EFF07B017AC179B990C33BE4F0A304F003
:103904007F007E221258717B017AC179BB90C33B40
:10391400E4F0A304F07F107E221258717B017AC177
:1039240079BD90C33BE4F0A304F07F207E221258BB
:1039340071124450127E5390C2A20239F090C242D6
:10394400E0FF90C223E06F60030239CE90C1BFF064
:10395400A304F090C291E0FFA3E090C1B9CFF0A31B
:10396400EFF090C25FE0FFA3E090C1BBCFF0A3EF04
:10397400F090C24AE0FFA3E090C1BDCFF0A3EFF006
:103984007B017AC179B990C33BE4F0A304F07F00D2
:103994007E221258717B017AC179BB90C33BE4F05B
:1039A400A304F07F107E221258717B017AC179BD85
:1039B40090C33BE4F0A304F07F207E2212587112DE
:1039C4004450127E5390C21F803390C25AE0FF903D
:1039D400C223E0B5071890C1B5E0B40107E4F09044
:1039E400C2828008E490C1B6F090C285800F90C274
:1039F4001BE0FF90C223E06F707690C288E0FF0264
:103A0400813990C223E0B41C057F0512813990C22C
:103A14002AE0B40130E490C277F090C2A1F090C2E1
:103A24008CF090C213F090C23CF090C278F090C237
:103A340056F090C27EF090C257F090C27FF07F1C87
:103A4400128139802690C223E0B4151F90C1BFE0D3
:103A54007002A3E0701590C1B7F090C1BFF0A3F05D
:103A640090C1B8F0FF1281391275CFE490C26FF0A3
:013A7400222F
:104FC00041C0460041C0490042C047000047C03FC1
:074FD00018091203091E007D
:107C26007B017AC0793F90C33BE4F0A37404F07FF4
:107C3600107E0012587190C3B87410F0A3E4F0A33C
:107C4600F0A3F0FFFEFDFC1269D87B017AC0794AE9
:0D7C5600E490C337F0A3F0FF7E100251B898
:105B97007F007E2012000090C046EFF090C049E0E1
:105BA7006F7003025D1A90C046E090C049F0700321
:105BB700025D1A90C048E004F0700690C047E00408
:105BC700F090C047E07004A3E0641E700690C047E1
:105BD700F0A3F07B017AC379EA90C337E4F0A374AA
:105BE70004F07F107E001251B890C047E0FEA3E09A
:105BF700FF90C04A75F00C1243CDEE75F00CA4254A
:105C070083F583E4F0A3745AF090C047E0FCA3E067
:105C1700FD90C047E0FAA3E0FB90C04C75F00CEF95
:105C27001243CDEE75F00CA42583F583ECF0A3EDBC
:105C3700F090C3EAE0FF90C04E75F00CEB1243CD35
:105C4700EA75F00CA42583F583EFF090C3EBE0FF32
:105C570090C04F75F00CEB1243CDEA75F00CA425FC
:105C670083F583EFF090C3ECE0FF90C05075F00C24
