:0300000002665F36
:0800F800FFFF4457494E543547
:10665F00759401759502758E0075930075C87075E8
:10666F00C96075F80075F90175A80075B800759ABD
:10667F000075A90075B90053D0E7787FE4F6D8FD0F
:10668F009080007F007E80E4F0A3DFFCDEFA75814E
:04669F001B0266DE96
:1051D10090C32AEEF0A3EFF0A3EBF0A3EAF0A3E96A
:0151E100F0DD
:1051E200E490C331F0A3F0A3F0A3F0A3F0A3F0A3E3
:1051F200F0A3F090C32FE0FAA3E0FB4A700302533E
:105202009090C32AE0FEA3E0FFC3E49FFFE49EFE6A
:10521200E4FCFD90C3391243C9AF03AE02E4FCFDC6
:1052220090C339E0F8A3E0F9A3E0FAA3E0FBC312CC
:105232004392501190C339A3A3E0FFA3E090C32F80
:10524200CFF0A3EFF090C32AE0FCA3E0FDECC31380
:10525200FFED1390C331CFF0A3EFF0ED5401FFA3A4
:10526200E4F0A3EFF0C2AFE4F5F190C331E0FCA3A8
:10527200E0FDECF5F28DF375F40175F8AF30FCFD4D
:1052820090C333E07002A3E0603DD2FE20FEFD90A9
:10529200C32CE0FBA3E475F0011241F4A9F0FAE596
:1052A200FC12414390C32CE0FBA3E475F0011241D0
:1052B200F4A9F0FAE5FD12414390C330E024FFF077
:1052C20090C32FE034FFF090C32FE0FCA3E0FDEC8D
:1052D200C313FFED1390C335CFF0A3EFF0ED5401EC
:1052E200FFA3E4F0A3EFF090C33574FFF5F0124191
:1052F200F445F0605BD2FE20FEFD90C32CE0FBA3E0
:10530200E475F0011241F4A9F0FAE5FA1241439072
:10531200C32CE0FBA3E475F0011241F4A9F0FAE515
:10532200FB12414390C32CE0FBA3E475F001124150
:10533200F4A9F0FAE5FC12414390C32CE0FBA3E48C
:1053420075F0011241F4A9F0FAE5FD12414380978C
:1053520090C337E07002A3E0602FD2FE20FEFD90E2
:10536200C32CE0FBA3E475F0011241F4A9F0FAE5C5
:10537200FA12414390C32CE0FBA3E475F001124101
:0E538200F4A9F0FAE5FB124143E4F5F8D2AFCE
:0153900022FA
:10588A0090C32EEEF0A3EFF0A3EBF0A3EAF0A3E9A6
:01589A00F01D
:10589B00E490C335F0A3F0A3F0A3F0A3F0A3F09032
:1058AB00C333E07002A3E07003025A1C90C32EE0D6
:1058BB00FEA3E0FFC3E49FFFE49EFED390C334E05E
:1058CB009F90C333E09E4005EEF0A3EFF090C32E04
:1058DB00E0FAA3E0FBEAC313FCEB13FDEB5401FF6F
:1058EB0090C335E4F0A3EFF0C2AFE4F5F1ECF5F2C1
:1058FB00AF058FF375F40175F88330FCFD90C3355C
:10590B00E07002A3E0603D90C330E0FBA3E475F0D0
:10591B00011241F4A9F0FA1240FDF5FC90C330E0FE
:10592B00FBA3E475F0011241F4A9F0FA1240FDF566
:10593B00FDD2FE20FEFD90C334E024FFF090C33374
:10594B00E034FFF090C333E0FCA3E0FDECC313FFA6
:10595B00ED1390C337CFF0A3EFF0ED5401FFA3E4A9
:10596B00F0A3EFF075F88F90C33774FFF5F0124189
:10597B00F445F0605B90C330E0FBA3E475F00112DB
:10598B0041F4A9F0FA1240FDF5FA90C330E0FBA305
:10599B00E475F0011241F4A9F0FA1240FDF5FB9009
:1059AB00C330E0FBA3E475F0011241F4A9F0FA1245
:1059BB0040FDF5FC90C330E0FBA3E475F001124110
:1059CB00F4A9F0FA1240FDF5FDD2FE30FE9980FBF2
:1059DB0090C339E07002A3E0603275F88C90C3304D
:1059EB00E0FBA3E475F0011241F4A9F0FA1240FDBB
:1059FB00F5FA90C330E0FBA3E475F0011241F4A972
:105A0B00F0FA1240FDF5FBD2FE20FEFDE4F5F8D2D4
:015A1B00AFDB
:015A1C002267
:105D340090C440EEF0A3EFF0A3EBF0A3EAF0A3E9E4
:015D4400F06E
:105D4500A3E0FEA3E0FF4E7003025EAD90C440E009
:105D5500FCA3E0FDC3E49DFDE49CFCD3EF9DEE9C1C
:105D6500400AAF0590C445ECF0A3EFF090C440E0C5
:105D7500FCA3E0FDECC313FEED13FBAA06ED5401F5
:105D8500FDC2AFE4F5F1EAF5F2AF038FF375F40167
:105D950075F88330FCFDED604FC390C446E0940276
:105DA50090C445E094005003025EA890C442E0FB15
:105DB500A3E475F0011241F4A9F0FA1240FDF5FCD7
:105DC50090C442E0FBA3E475F0011241F4A9F0FA96
:105DD5001240FDF5FDD2FE20FEFD90C446E024FEF6
:105DE500F090C445E034FFF090C445E0FEA3E078B0
:105DF50002CEC313CE13D8F9FF75F88FEF1FAC068B
:105E050070011E4C605B90C442E0FBA3E475F00199
:105E15001241F4A9F0FA1240FDF5FA90C442E0FBF4
:105E2500A3E475F0011241F4A9F0FA1240FDF5FB67
:105E350090C442E0FBA3E475F0011241F4A9F0FA25
:105E45001240FDF5FC90C442E0FBA3E475F001129D
:105E550041F4A9F0FA1240FDF5FDD2FE30FE9D8019
:105E6500FB90C446E030E1047F0180027F00EF60D3
:105E75003275F88C90C442E0FBA3E475F001124141
:105E8500F4A9F0FA1240FDF5FA90C442E0FBA3E450
:105E950075F0011241F4A9F0FA1240FDF5FBD2FEAE
:085EA50020FEFDE4F5F8D2AF88
:015EAD0022D2
:107FE000EC90C47CF0EDA3F07B017AC4797C90C462
:0A7FF00045E4F0A37402F0025D34D2
:10809400EF4E6010E4FD0DEDC3943240F9EF1F7014
:0480A400EF1E80EC5F
:0180A80022B5
:086F3C0090C44EEEF0A3EFF04B
:106F4400A3745AF0A37401F090C44EE0FCA3E0FDD6
:106F5400EC90C452F0A3EDF07B017AC4795090C355
:106F640033E4F0A37402F07F847E0012588A7FF425
:106F74007E011280947B017AC4795090C32FE4F08F
:106F8400A37402F07F147E001251D190C44EE0FE2F
:106F9400A3E0FFA3E0B506D6A3E0B507D1E490C40F
:106FA40050F0A3F0A3F0A3F07B017AC4795090C30E
:0D6FB40033F0A37402F07F167E0002588AAD
:08790D0090C30DEEF0A3EFF0B2
:10791500E4A3F0A3F090C30DE0FEA3E0FFC390C382
:1079250010E09F90C30FE09E5025E4FBFA7F017E97
:10793500001280940BBB00010ABA01F1BB2CEE903A
:0F794500C310E004F070CE90C30FE004F080C6D2
:017954002210
:10795500EF14601814602314602E24037039740129
:10796500A805088002C333D8FC42B7227401A805D4
:10797500088002C333D8FC42BC227401A8050880E4
:1079850002C333D8FC42BD22AF057401A8070880A5
:0879950002C333D8FC42BE22FC
:10782D00EF1460191460251460312403703D740148
:10783D00A805088002C333D8FCF452B7227401A8FE
:10784D0005088002C333D8FCF452BC227401A8058C
:10785D00088002C333D8FCF452BD22AF057401A8D1
:0C786D0007088002C333D8FCF452BE228E
:106C7200EF14602D14604A14606724036003026DF0
:106C820004EB600E7401A805088002C333D8FC42ED
:106C920080227401A805088002C333D8FCF4528014
:106CA20022EB600E7401A805088002C333D8FC42AF
:106CB20090227401A805088002C333D8FCF45290D4
:106CC20022EB600E7401A805088002C333D8FC428F
:106CD200A0227401A805088002C333D8FCF452A094
:106CE20022EB600E7401A805088002C333D8FC426F
:106CF200B022AF057401A807088002C333D8FCF4A0
:036D020052B0226A
:10769400EF14601A146027146034240370427401D8
:1076A400A805088002C333D8FC5580FE80347401D9
:1076B400A805088002C333D8FC5590FE80247401C9
:1076C400A805088002C333D8FC55A0FE8014AF057A
:1076D4007401A807088002C333D8FC55B0FE8002A9
:0476E400E4FEAF060B
:0176E800227F
:107EAB00758911E4F58CF58AC28CF518F51A43899E
:0E7EBB0001758CBC758ACDD2A9D2AFD28C22B3
:03000B000270B4CC
:0D70B400C0E0C0D075D000C000C006C0070D
:1070C100C2AF758CBC758ACD0519751B0074017E24
:1070D10000A81B088005C333CE33CED8F9FFEF5586
:1070E1001A602DE51B25E02408F808E61618700142
:1070F10016E51B25E02408F8E6FE08E64E7011AF00
:107101001B04A807088002C333D8FC4218F4521AA2
:09711100051BE51BB408B6D2AF62
:0B711A00D007D006D000D0D0D0E0326B
:107FFA00758911E4F58DF58BC28ED2AF4389107560
:0A800A008DBC758BCDD2ABD28E2257
:03001B000281302F
:0D813000C2AF758DBC758BCDB290D2AF3251
:1080D30075C8F075CD58E4F5CC75CB58F5CA43C8CF
:0480E30001D2AD22F7
:03002B0002814906
:09814900C2AFC2C6B291D2AF323E
:107E4A00C2AF7401A807088002C333D8FCFE421AE5
:107E5A00EF25E02408F8A60408A605EEF45218D285
:027E6A00AF2245
:1080A900C2AF7401A807088002C333D8FCF4521A7E
:0580B9005218D2AF22B5
:1080FB00C2AF7401A807088002C333D8FC5518FF20
:02810B00D2AFF1
:01810D00224F
:10779100AB07AA06A905A8047F007E387D317C00CD
:1077A100124300C3E49F90C30CF074049E90C30B7A
:1077B100F043C9407D04E4FF1279557D05E4FF12D1
:1077C100782D43803075D88075985090C30BE0FCBC
:0D77D100A3E0FDECF5BA8DAA43A810D2ACE0
:0177DE002288
:1078C400AB07AA06A905A8047F007E707D627C0030
:1078D400124300C3E49F90C30CF074049E90C30B46
:1078E400F043C9207D06E4FF1279557D07E4FF12B9
:1078F400782D4380C0759B9090C30BE0FCA3E0FD02
:08790400ECF5BB8D9D439A01D7
:01790C002258
:107B8100759680759780AB07AA06A905A8047F00A2
:107B91007EC07D897C01124300AD07AC06ECF5D9AE
:107BA100AF058FE743B80CE4909812F0A3F0A3F06F
:107BB100A3F090981AF0909816F0A3F0A3F0A3F018
:017BC10022A1
:107DFF0075A78075AB80AB07AA06A905A8047F00FD
:107E0F007EC07D897C01124300AD07AC06ECF5AE58
:077E1F00AF058FAF43B8303F
:017E26002239
:10773E00EF14601B1460291460372403704490C347
:10774E0007E0FCA3E0FDA3E0FEA3E0FF027791902B
:10775E00C307E0FCA3E0FDA3E0FEA3E0FF0278C4B4
:10776E0090C307E0FCA3E0FDA3E0FEA3E0FF027BD5
:10777E008190C307E0FCA3E0FDA3E0FEA3E0FF12AF
:03778E007DFF225A
:1053910090C306EFF0A3ECF0A3EDF0A3EBF0A3EACA
:0453A100F0A3E9F09C
:1053A500C2AFE4A3F0A3F090C307E0FEA3E0FFC300
:1053B50090C30DE09F90C30CE09E4003025469909A
:1053C500C309E0FBA3E475F0011241F4A9F0FA1258
:1053D50040FDFF90C306E0FE75F009A42400F582A8
:1053E500E5F03488F583EE75F008A42583F583E0B0
:1053F500FCA3E0FD75F009EEA42400F582E5F03488
:1054050080F583EE75F008A42583F583E5822DF5F7
:1054150082E5833CF583EFF075F009EEA42400F5F1
:1054250082E5F03488F583EE75F008A42583F583CD
:10543500E475F0011241DE75F009EEA42400F58251
:10544500E5F03488F583EE75F008A42583F583E04F
:105455005403F090C30DE004F0700690C30CE00413
:10546500F00253AC90C306E01460421460701470EF
:105475000302551124036003025541908808E0603A
:105485000302554104F0908802E0FEA3E02400F5F4
:105495008274803EF583E0F599908803E004F0700E
:1054A50006908802E004F090880202553D90901124
:1054B500E0600302554104F090900BE0FEA3E02468
:1054C50009F58274883EF583E0F59C90900CE00424
:1054D500F0700690900BE004F090900B805A909835
:1054E5001AE0705804F0909814E0FEA3E02412F539
:1054F5008274903EF583E0F59E909815E004F07077
:1055050006909814E004F0909814802C90A023E065
:10551500702A04F090A01DE0FEA3E0241BF5827420
:10552500983EF583E0F5AC90A01EE004F07006907F
:0E553500A01DE004F090A01DE05403F0D2AFE2
:015543002245
:03002300026E2644
:106E2600C0E0C083C082C0D075D000C006C007C213
:106E3600AF30982AC298908804E0FEA3E02400F5BB
:106E46008274843EF583E599F0908805E004F0703D
:106E560006908804E004F0908804E05403F030992A
:106E66003FC299908802E0FEA3E0FF908800E06EA2
:106E76007003A3E06F602474002FF58274803EF5E2
:106E860083E0F599908803E004F07006908802E0AC
:106E960004F0908802E05403F08005908808E4F03E
:0F6EA600D2AFD007D006D0D0D082D083D0E03288
:0300530002746CC8
:10746C00C0E0C083C082C0D075D000C006C007C2C7
:10747C00AF5396FE909814E0FEA3E0FF909812E0B4
:10748C006E7003A3E06F602474122FF58274903E2B
:10749C00F583E0F59E909815E004F0700690981432
:1074AC00E004F0909814E05403F0800590981AE4EE
:1074BC00F0D2AFD007D006D0D0D082D083D0E0327B
:03005B0002799D8A
:10799D00C0E0C083C082C0D075D000C006C2AF5356
:1079AD0097FE909816E0FEA3E02412F58274943EA3
:1079BD00F583E59FF0909817E004F0700690981607
:1079CD00E004F0909816E05403F0D2AFD006D0D07A
:0779DD00D082D083D0E0321C
:030063000274CC58
:1074CC00C0E0C083C082C0D075D000C006C007C267
:1074DC00AF53A7FE90A01DE0FEA3E0FF90A01BE021
:1074EC006E7003A3E06F6024741B2FF58274983EBA
:1074FC00F583E0F5AC90A01EE004F0700690A01DA2
:10750C00E004F090A01DE05403F0800590A023E46B
:10751C00F0D2AFD007D006D0D0D082D083D0E0321A
:03006B000279E433
:1079E400C0E0C083C082C0D075D000C006C2AF530F
:1079F400ABFE90A01FE0FEA3E0241BF582749C3E26
:107A0400F583E5ADF090A020E004F0700690A01F8F
:107A1400E004F090A01FE05403F0D2AFD006D0D021
:077A2400D082D083D0E032D4
:03008300026BD736
:106BD700C0E0C083C082C0D075D000C006C007C265
:106BE700AFE59B30E02E759B90539BFE90900DE098
:106BF700FEA3E02409F582748C3EF583E59CF090B2
:106C0700900EE004F0700690900DE004F090900D67
:106C1700E05403F0E59B30E143759B90539BFD9057
:106C2700900BE0FEA3E0FF909009E06E7003A3E0F5
:106C37006F602474092FF58274883EF583E0F59C14
:106C470090900CE004F0700690900BE004F09090A8
:106C57000BE05403F08005909011E4F0D2AFD00719
:0B6C6700D006D0D0D082D083D0E03225
:1080BE007596807597807C00ECF5D975E7E0759E16
:0480CE000D53B8F3A3
:0180D200228B
:0B7E270090C33EEBF0A3EAF0A3E9F0EB
:107E320090C3697401F0A374C3F0A37441F090C3BA
:077E420069E4F0A3F0A3F0D6
:017E49002216
:0281600080FE9F
:054DE40042C47E000046
:10689C00E490C301F0A3F0A3740AF0A3740DF0A369
:1068AC0074EFF0127EAB127FFA12500AE4FD7F02F5
:1068BC0012782D7D607CEAE4FF127E4A7DF47C0127
:1068CC007F01127E4A12703ED2AF90C222E0FF12BC
:1068DC007C811256F67D887C137F07127E4A7B01E1
:1068EC007AC3790290C333E4F0A304F07F007E8274
:1068FC0012588A127AFC90C47EE07002A3E07018E1
:10690C007F071280FBEF601090C47EE4F0A304F0CC
:10691C0090C222F0FF127C8190C47EE07002A3E052
:10692C0060D1127B3F127273125A1D90C2FFEEF0AF
:10693C00A3EFF0120100900000E060B7E4F080B328
:104DE90041C29D0042C226000041C2160044C2745D
:104DF9000000000046C20D0000000000006048C12C
:104E0900C5000000010002000300040005000600BF
:104E19000700080009000A000B000C000D000E0035
:104E29000F001000110012001300140015001600E5
:104E39001700180019001A001B001C001D001E0095
:104E49001F002000210022002342C238000041C275
:104E5900A00042C218000042C233000050C28700BD
:104E690000000000000000000000000000000050E9
:104E7900C25800000000000000000000000000000F
:104E8900000050C2430000000000000000000000C4
:104E9900000000000042C2A4000042C270000042AB
:104EA900C231000042C2A1000042C26E000042C2EB
:104EB90098000042C241000042C26C000042C21484
:104EC900000042C23C000041C2850042C2A6000067
:104ED90042C21B000042C224000041C2170041C265
:104EE9007B0141C27C0241C27F0341C2800441C2AD
:104EF900810541C2820641C2830741C21A0841C2E3
:104F09002C0941C2300A41C26A0B41C2210C41C27B
:104F19002B0D41C2400E41C2570F41C29C1041C2E4
:104F2900A31141C22A1241C2841341C29B1441C236
:104F39001E1541C2971641C2781741C2291841C2AC
:104F4900231941C21D1A41C2351B41C26B0042C21D
:104F590036000041C22D0042C268000042C23E0034
:104F69000042C29E000042C22E000041C23B0041E5
:104F7900C2280041C2720041C29A0041C286004162
:104F8900C2130041C2530041C2790041C23A0041F3
:104F9900C2730041C2540041C27A0041C1B200410A
:104FA900C1B30041C1B40041C1B50041C1B600411E
:104FB900C1B70041C1B80042C1B9000042C1BB003C
:104FC9000042C1BD000042C1BF000042C1C1000092
:106FC10090C1BFF0A3F090C1B4F090C21FE0FEA346
:106FD100E0FF7C007D0A124177AA06AB0790C255FB
:106FE100E0FEA3E0FF7D64124177EF2BFFEE3AFE56
:106FF10090C27EE02FFF90C27DE03E90C30AF0A3D5
:0E700100EFF07F0090C30AE0FCA3E0FD7E816B
:10700F0090C1C3EEF0A3EFF090C2A6ECF0A3EDF0A9
:10701F0090C2857401F0FB7AC279A690C333E4F075
:0F702F00A304F012588A7DBC7C027F06027E4AC1
:0C813D00E490C285F090C224F0A3F02270
:1072730090C285E060637F061280FBEF605B90C184
:10728300C3E0FEA3E0FF7B017AC2791B90C32FE426
:10729300F0A304F01251D190C21BE0FEA3E0FF90D3
:1072A300C2A6E0FCA3E0FDB50707ECB50603028127
:1072B3003DC390C225E0940290C224E0940050198B
:1072C30090C1C3E0FEA3E0FF12700F90C225E0045B
:0A72D300F0700690C224E004F022DF
:107F3E0090C48074C0F0A37464F07B017AC479801D
:0B7F4E0090C333E4F0A304F002588A53
:107F590090C32C7418F0A374E3F07B017AC3792CD5
:0B7F690090C333E4F0A304F002588A38
:047E8C007F037E945E
:107E900090C32C74FFF0A37460F07B017AC3792C3B
:0B7EA00090C333E4F0A304F002588A02
:107F740090C32C7405F0A3741DF07B017AC3792C93
:0B7F840090C333E4F0A304F002588A1D
:107F8F0090C48274CEF0A37459F07B017AC47982C5
:0B7F9F0090C333E4F0A304F002588A02
:047F05007F237E5008
:107F090074FF90C32CF0A3F07B017AC3792C90C342
:097F190033E4F0A304F002588ADD
:06815A00E490C216F022C1
:106A960090C3BCEEF0A3EFF0A3ECF0A3EDF0A3EAF5
:046AA600F0A3EBF07E
:106AAA00A3E0FAA3E0FB7C007D64FFAE02124189F9
:106ABA00A3EEF0A3EFF07C007D0AAF03AE02124111
:106ACA00897C007D0A124189A3ECF0A3EDF090C302
:106ADA00C2E0FEA3E0FF7C007D0A12418990C3C890
:106AEA00ECF0A3EDF090C3BCE0FEA3E0FF7B017ADB
:106AFA00C379C490C333E4F0A304F012588A90C354
:106B0A00BEE0FEA3E0FF7B017AC379C690C333E4FB
:106B1A00F0A304F012588A90C3C0E0FEA3E0FF7B02
:106B2A00017AC379C890C333E4F0A304F002588A07
:0E740A0090C410EEF0A3EFF0A3ECF0A3EDF0B1
:107418007C007D3CAF03AE02124189A3EEF0A3EFDE
:10742800F0AE02AF037C007D3C124189A3ECF0A3CF
:10743800EDF090C410E0FEA3E0FF7B017AC479145C
:1074480090C333E4F0A304F012588A90C412E0FE0B
:10745800A3E0FF7B017AC4791690C333E4F0A30458
:04746800F002588A4C
:086B3A0090C454EEF0A3EFF04B
:106B4200E4A3F0A3F0A3F0A304F0FB7AC479569077
:106B5200C333E4F0A304F07F007E2912588A7B013C
:106B62007AC4795890C333E4F0A304F07F007E39ED
:106B720012588A90C454E0FEA3E0FFEE7056EF1460
:106B8200602A04704F7B017AC4795690C333E4F0D3
:106B9200A304F07F007E2912588A7B017AC47958B7
:106BA20090C333E4F0A304F07F0080237B017AC416
:106BB200795690C333E4F0A304F0FF7E2912588A79
:106BC2007B017AC4795890C333E4F0A304F0FF7ECA
:046BD2003912588A92
:016BD600229C
:1062C40090C32AECF0A3EDF0EE60030263D7EF2451
:1062D400FE605E14606014700302639C2403600318
:1062E4000263D790C32AE0FEA3E0FFEE7035EF14FB
:1062F400601514601E2402702A127E8C7F137E9413
:10630400127E907F238055127E8C7F137E94127FA1
:1063140074801A7F037E94127F747F137E94127E9E
:1063240090800A127E8C7F137E94127E907F23804D
:10633400637F530263C490C32AE0FEA3E0FFEE70C0
:1063440043EF14601B14602A240270387F537E9438
:10635400127E907F637E94127E907F737E9480621F
:106364007F537E94127E907F637E94127F747F733A
:1063740080227F537E94127F747F637E94127E907A
:106384007F7380107F537E94127E907F637E94127D
:106394007E907F737E94803890C32AE0FEA3E0FF52
:1063A400EE7022EF14601004701B7F837E92127FC4
:1063B400747F937E9280197F837E92127E907F9366
:1063C4007E92027F747F837E92127E907F937E9270
:0463D400127E902283
:0A44890090C222E0FF7E00E4FDFC7B
:1044930090C32AECF0A3EDF0EE6003024822EF2470
:1044A300F3B40B0040030248229044BA75F003A40E
:1044B300C58325F0C583730244DB0245560245B725
:1044C3000246320246AD02470E0247880247D8022F
:1044D30048220248220247FE90C32AE07002A3E06A
:1044E30070177F037E90127F597F137E90127F593E
:1044F3007F237E90127F74804290C32AE07004A3CE
:10450300E0640170107F037E90127F597F137E90C9
:10451300127F74801F90C32AE07004A3E064027FBB
:10452300037E907005127F748003127F597F137E80
:1045330090127F597F237E90127F5990C32AE07097
:1045430004A3E0640370047D018002E4FDFC7F109A
:104553000247F990C32AE07002A3E070107F537EF4
:1045630090127F597F637E90127F74802F90C32AAD
:10457300E07004A3E0640170097F537E90127F749E
:10458300801390C32AE07004A3E06402700E7F538B
:104593007E90127F597F637E90127F5990C32AE0E9
:1045A3007004A3E0640270047D018002E4FDFC7FDB
:1045B300200247F990C32AE07002A3E070177F73CB
:1045C3007E90127F597F837E90127F597F937E90D6
:1045D300127F74804290C32AE07004A3E0640170E8
:1045E300107F737E90127F597F837E90127F748039
:1045F3001F90C32AE07004A3E064027F737E90706F
:1046030005127F748003127F597F837E90127F5936
:104613007F937E90127F5990C32AE07004A3E064D5
:104623000370047D018002E4FDFC7F300247F990B2
:10463300C32AE07002A3E070177F037E91127F59B3
:104643007F137E91127F597F237E91127F74804264
:1046530090C32AE07004A3E0640170107F037E918D
:10466300127F597F137E91127F74801F90C32AE0BB
:104673007004A3E064027F037E917005127F74804F
:1046830003127F597F137E91127F597F237E9112EC
:104693007F5990C32AE07004A3E0640370047D0192
:1046A3008002E4FDFC7F400247F990C32AE07002D8
:1046B300A3E070107F437E91127F597F537E911246
:1046C3007F74802F90C32AE07004A3E06401700913
:1046D3007F437E91127F74801390C32AE07004A3FA
:1046E300E06402700E7F437E91127F597F537E9167
:1046F300127F5990C32AE07004A3E0640270047D22
:10470300018002E4FDFC7F500247F990C32AE07068
:1047130002A3E070177F637E91127F597F737E91AE
:10472300127F597F837E91127F74804290C32AE067
:104733007004A3E0640170107F637E91127F597F40
:10474300737E91127F74801F90C32AE07004A3E0EC
:1047530064027F637E917005127F748003127F5918
:104763007F737E91127F597F837E91127F5990C30D
:104773002AE07004A3E0640370047D018002E4FD79
:10478300FC7F60807190C32AE07002A3E070097F10
:10479300937E91127F74801F90C32AE07004A3E07C
:1047A30064017F937E91700C127F597F037E921276
:1047B3007F74800A127F597F037E92127F5990C3C0
:1047C3002AE07004A3E0640270047D018002E4FD2A
:1047D300FC7F70802190C32AE07004A3E064017F12
:1047E300137E927009127F597D017C008006127F2F
:1047F30074E4FDFC7F807E39027E7390C32AE070EF
:1048030002A3E070077F337E94027F7490C32AE093
:104813007004A3E0640170077F337E94127F092242
:077E6C007F30E4FDFC7E39CC
:107E730090C32CECF0A3EDF07B017AC3792C90C373
:097E830033E4F0A304F002588A74
:057C7C0090C222F0FFA0
:107C810090C274745AF0A37401F0E4A3F0EF25E0FC
:107C910024C5F582E434C1F583A3E090C277F07B7B
:107CA100017AC2797490C333E4F0A37402F07F8443
:057CB1007E0002588A6C
:0881520090C222EFF0027C81D3
:1075E8007F037E94127F097F137E94127F097F2385
:1075F8007E94127F097F237E92127F097F537E92A9
:10760800127F097F537E94127F097F637E94127FD5
:10761800097F737E94127F097F837E92127F097F90
:10762800937E92127F097F737E92127F09E4FDFC9C
:06763800FF7E30027E73AC
:076EB50090C1B8E0FF7E0070
:106EBC0090C32AEEF0A3EFF064014E7015127E8C95
:106ECC007F137E94127E907F237E94127E907D01A0
:106EDC00803A90C32AE07004A3E06402700B7F2315
:106EEC007E92127E907F53804190C32AE07004A35F
:106EFC00E0640370207F537E94127E907F637E94B7
:106F0C00127E907F737E94127E907D027C007F00B7
:106F1C007E30027E7390C32AE07004A3E064047098
:106F2C000E7F837E92127E907F937E92127E9022B1
:0477DF00AB07AA0644
:1077E3007C007D3C12418990C308EEF0A3EFF0AE1C
:1077F30002AF037C007D3C124189A3ECF0A3EDF0C2
:107803007B017AC3790890C333E4F0A304F07F507B
:107813007E2812588A7B017AC3790A90C333E4F035
:0A782300A304F07F607E2802588A5B
:08763E0090C22EE0FEA3E0FF64
:04764600AB07AA06DE
:10764A007C007D3C12418990C32AEEF0A3EFF0AE94
:10765A0002AF037C007D3C124189A3ECF0A3EDF05C
:10766A007B017AC3792A90C333E4F0A304F07F0044
:10767A007E3112588A7B017AC3792C90C333E4F0A5
:0A768A00A304F07F007E3202588A4C
:107CB60090C22D7401F07F737E92127E907F337E88
:107CC60093127E907F437E93127E907B017AC279D7
:107CD6002E90C32FE4F0A304F07F067E811251D1CB
:097CE6007DE87C037F05027E4A63
:10801400E490C22DF07F737E92127F097F337E93AA
:0A802400127F097F437E93027F095B
:107B3F0090C22DE070077F737E92027F097F05123E
:107B4F0080FBEF602C90C22FE024FFF090C22EE05C
:107B5F0034FFF0127641D390C22FE0940090C22EE2
:107B6F00E0940050030280147DE87C037F05127EB1
:027B7F004A2298
:1056F600E490C306F0A3F07B017AC2793C90C32FF5
:10570600F0A304F07F047E811251D17B017AC37924
:105716000690C32FE4F0A304F07F007E811251D1DE
:1057260090C306E0FAA3E0FB7C007D64FFAE0212A4
:10573600418990C255EEF0A3EFF07C007D0AAF03DD
:10574600AE021241897C007D0A12418990C21FEC8B
:10575600F0A3EDF090C306E0FEA3E0FF7C007D0A17
:1057660012418990C27DECF0A3EDF07B017AC379FA
:105776000690C32FE4F0A304F07F027E811251D17C
:1057860090C306E0FAA3E0FB7C007D64FFAE021244
:10579600418990C231EEF0A3EFF07C007D0AAF03A1
:1057A600AE021241897C007D0A12418990C2A1ECA9
:1057B600F0A3EDF090C306E0FEA3E0FF7C007D0AB7
:1057C60012418990C26EECF0A3EDF07B017AC279AA
:1057D6003E90C32FE4F0A304F07F067E811251D1E0
:1057E60090C23EE0FEA3E0FF1277DF7B017AC37929
:1057F6000690C32FE4F0A304F07F087E811251D1F6
:1058060090C306E0FAA3E0FB7C007D0AFFAE02121D
:1058160041897C007D0A12418990C2A4ECF0A3ED77
:10582600F07C007D0AAF03AE0212418990C270EC93
:10583600F0A3EDF07B017AC3790690C32FE4F0A3C1
:1058460004F07F0A7E811251D190C306E0FAA3E0EC
:10585600FB7C007D0AFFAE021241897C007D0A12A4
:10586600418990C298ECF0A3EDF07C007D0AAF036D
:10587600AE0212418990C241ECF0A3EDF07F737E37
:0458860092027F0902
:10617B0090C23BE0B4080040030262C390618EF80A
:10618B002828730261A60261B20261C90261E302AF
:10619B00620402622C02625B02628F7F137E5012DA
:1061AB007E90127F05800E7F137E50127F097F2316
:1061BB007E50127E907F337E50127F0980117F13A9
:1061CB007E50127F09127F057F337E50127E907FA7
:1061DB00437E50127F0980187F137E50127F091265
:1061EB007F057F337E50127F097F437E50127E9056
:1061FB007F537E50127F09801F7F137E50127F09C1
:10620B00127F057F337E50127F097F437E50127FB2
:10621B00097F537E50127E907F637E50127F0980E0
:10622B00267F137E50127F09127F057F337E50121B
:10623B007F097F437E50127F097F537E50127F0967
:10624B007F637E50127E907F737E50127F09802D6C
:10625B007F137E50127F09127F057F337E50127F92
:10626B00097F437E50127F097F537E50127F097F37
:10627B00637E50127F097F737E50127E907F437E28
:10628B0056027F097F137E50127F09127F057F33E1
:10629B007E50127F097F437E50127F097F537E50C1
:1062AB00127F097F637E50127F097F737E50127FAE
:0962BB00097F437E56127E9022F9
:1073430090C23BE0B40800505A907353F828287356
:1073530002736B0273750273A602737F0273890251
:10736300738D02739702739B90C2727401F07F1D39
:10737300802E90C2867401F07F1E802490C25374C5
:1073830001F07F22801A7F1F801690C23A7401F0A9
:107393007F20800C7F21800890C2547401F07F23EA
:0473A30012815222DF
:0801000090C306EEF0A3EFF03E
:10010800E4A3F0A3F0A3F0A3F090C1B2E0600DE483
:10011800FF1280FBEF6005E490C1B2F090C306E0E7
:10012800FEA3E0FF64014E6006EF64024E70099082
:10013800C1B2E06003023AAD7B017AC179C190C3D4
:100148002FE4F0A304F07F0C7E801251D190C1C13E
:10015800A3E0FF7C0030E0047D0180027D0090C3B5
:100168000CECF0A3EDF0EF7E0030E1047F0180029B
:100178007F0090C30EEEF0A3EFF090C1C1A3E0FFA3
:100188007C0030E2047D0180027D0090C31EECF00B
:10019800A3EDF0EF7E0030E3047F0180027F009042
:1001A800C320EEF0A3EFF090C1C1A3E0FF7C0030C4
:1001B800E4047D0180027D0090C322ECF0A3EDF001
:1001C800EF7E0030E7047F0180027F0090C310EECD
:1001D800F0A3EFF090C1C1E0FEEE7C0030E4047DB6
:1001E8000180027D0090C312ECF0A3EDF0EE7E00DA
:1001F80030E0047F0180027F0090C314EEF0A3EF8B
:10020800F090C1C1A3E0FF7C0030E5047D018002CD
:100218007D0090C316ECF0A3EDF0EF7E0030E6040D
:100228007F0180027F0090C318EEF0A3EFF090C129
:10023800C1E0FEEE7C0030E1047D0180027D00908B
:10024800C31AECF0A3EDF0EE7E0030E2047F0180EB
:10025800027F0090C31CEEF0A3EFF090C1C1E0FE56
:10026800EE7C0030E3047D0180027D0090C324EC25
:10027800F0A3EDF0EE7E0030E5047F0180027F0000
:1002880090C326EEF0A3EFF090C316E07004A3E04D
:040298006401700B82
:09029C0090C32874C0F0A374445F
:1002A500801D90C31AE07004A3E0640190C3287018
:0102B5000840
:0602B6007405F0A3741CA6
:0202BC008006BA
:1002BE0074CEF0A37459F07B017AC3792890C333BE
:0C02CE00E4F0A304F07F137E9312588A22
:0C02DA0090C318E07004A3E06401700BF6
:0902E60090C32874C0F0A3744415
:1002EF00801D90C31CE07004A3E0640190C32870CC
:0102FF0008F6
:060300007405F0A3741C5B
:0203060080066F
:1003080074CEF0A37459F07B017AC3792890C33373
:0C031800E4F0A304F07F237E9312588AC7
:1003240090C233E07002A3E0701990C326E0700419
:10033400A3E06401700D741B127C7C90C233E4F062
:10034400A304F090C314E07004A3E06401700F9060
:10035400C2A0E07009127CB690C2A07401F090C2F1
:1003640022E0B4182990C218E07002A3E0701F7B49
:10037400017AC2792E90C32FF0A304F07F067E8108
:100384001251D112763E90C218E4F0A304F090C347
:100394000CE07004A3E06401600302044C90C238D2
:1003A400E07004A3E06401600302044C7417127C3F
:1003B4007C7B017AC3790A90C32FE4F0A304F07F15
:1003C400067E811251D190C30AE0FAA3E0FB7C00BF
:1003D4007D3CFFAE0212418990C26CEEF0A3EFF0B7
:1003E4007C007D3CAF03AE0212418990C214ECF054
:1003F400A3EDF07B017AC2796C90C333E4F0A304DB
:10040400F07F507E2812588A7B017AC2791490C3F7
:1004140033E4F0A304F07F607E2812588AE490C18C
:10042400B7F090C1B3F0A3F090C1BFF0A3F090C1B6
:10043400B8F090C238F0A3F090C2A0F090C218F0C7
:10044400A3F012801402050990C310E07004A3E025
:100454006401602690C318E07004A3E06401601A8C
:1004640090C316E07004A3E064017002800C90C392
:1004740014E07004A3E0640170321275E890C2388D
:10048400E4F0A304F090C2227418F0FF127C81E41B
:1004940090C1B7F090C1B3F0A3F090C1BFF0A3F046
:1004A40090C1B8F090C233F0A3F0805990C31CE01F
:1004B4007004A3E06401600C90C31AE07004A3E02C
:1004C400640170411275E890C2227419F0FF127C25
:1004D4008112801490C22EE07004A3E064017009BC
:1004E40090C22EF0A3F012763EE490C1B7F090C112
:1004F400B3F0A3F090C1BFF0A3F090C1B8F090C2E4
:1005040038F0A304F090C306E0FEA3E0FFEE60031E
:10051400023AADEF24FE7003021A31147003022F65
:100524008B147003023A3B24036003023AAD90C17A
:10053400BFE07004A3E06401600302195990C29CF7
:10054400E0FF90C222E06F600302077890C1B4E03C
:1005540060030205FA90C27DE0FEA3E0FF90C308A9
:10056400EEF0A3EFF04E700A90C27DF0A37409F090
:10057400800E90C27EE024FFF090C27DE034FFF054
:1005840090C21FE0FEA3E0FF7C007D0A124177AA1F
:1005940006AB0790C255E0FEA3E0FF7D64124177ED
:1005A400EF2BFFEE3AFE90C27EE02FFF90C27DE07B
:1005B4003E90C30AF0A3EFF090C30AE0FEA3E0FF6D
:1005C400D394C8EE9400500AEF9400EE94004002D5
:1005D400800F90C308E0FFA3E090C27DCFF0A3EFAB
:1005E400F07B017AC2797D90C333E4F0A304F07404
:1005F40020FFFE02195390C1B4E0640160030206B7
:10060400B990C21FE0FEA3E0FF90C308EEF0A3EF91
:10061400F04E700A90C21FF0A37409F0800E90C2CD
:1006240020E024FFF090C21FE034FFF090C21FE0EE
:10063400FEA3E0FF7C007D0A124177AA06AB079077
:10064400C255E0FEA3E0FF7D64124177EF2BFFEE7D
:100654003AFE90C27EE02FFF90C27DE03E90C30A36
:10066400F0A3EFF090C30AE0FEA3E0FFD394C8EE3A
:100674009400501DEF9400EE940040157B017AC263
:10068400791F90C333E4F0A304F07F107E20021995
:100694005390C308E0FFA3E090C21FCFF0A3EFF094
:1006A4007B017AC2791F90C333E4F0A304F07F1076
:1006B4007E2002195390C1B4E064026003022F7CCF
:1006C40090C255E0FEA3E0FF90C308EEF0A3EFF064
:1006D4004E700A90C255F0A37402F0800E90C25678
:1006E400E024FFF090C255E034FFF090C21FE0FE1A
:1006F400A3E0FF7C007D0A124177AA06AB0790C2F3
:1007040055E0FEA3E0FF7D64124177EF2BFFEE3A44
:10071400FE90C27EE02FFF90C27DE03E90C30AF0BF
:10072400A3EFF090C30AE0FEA3E0FFD394C8EE94D5
:1007340000501DEF9400EE940040157B017AC279BD
:100744005590C333E4F0A304F07F007E20021953D4
:1007540090C308E0FFA3E090C255CFF0A3EFF07B75
:10076400017AC2795590C333E4F0A304F07F007E8C
:100774002002195390C2A3E0FF90C222E06F6003ED
:100784000208D590C1B4E0600302082D90C270E065
:10079400FEA3E0FF90C308EEF0A3EFF04E700A90C2
:1007A400C270F0A37409F0800E90C271E024FFF0CF
:1007B40090C270E034FFF090C2A4E0FEA3E0FF7C9E
:1007C400007D0A12417790C271E02FFF90C270E061
:1007D4003E90C30AF0A3EFF090C30AE0FEA3E0FF4B
:1007E400D39450EE9400501DEF9400EE9400401505
:1007F4007B017AC2797090C333E4F0A304F07F20C4
:100804007E2102195390C308E0FFA3E090C270CF89
:10081400F0A3EFF07B017AC2797090C333E4F0A3C4
:1008240004F07F207E2102195390C1B4E06401607A
:1008340003022F7C90C2A4E0FEA3E0FF90C308EE65
:10084400F0A3EFF04E700A90C2A4F0A37408F080F5
:100854000E90C2A5E024FFF090C2A4E034FFF09013
:10086400C2A4E0FEA3E0FF7C007D0A12417790C29F
:1008740071E02FFF90C270E03E90C30AF0A3EFF046
:1008840090C30AE0FEA3E0FFD39450EE9400501D01
:10089400EF9400EE940040157B017AC279A490C3D2
:1008A40033E4F0A304F07F107E2102195390C308AF
:1008B400E0FFA3E090C2A4CFF0A3EFF07B017AC2E3
:1008C40079A490C333E4F0A304F07F107E210219CD
:1008D4005390C22AE0FF90C222E06F6003020B46ED
:1008E40090C1B4E060030209B090C1B9E0FEA3E096
:1008F400FF90C308EEF0A3EFF04E700A90C1B9F078
:10090400A37402F0800E90C1BAE024FFF090C1B944
:10091400E034FFF090C1BBE0FEA3E0FF7C007D0A61
:10092400124177AA06AB0790C1B9E0FEA3E0FF7DB0
:1009340064124177EF2BFFEE3AFE90C1BEE02FFF29
:1009440090C1BDE03E90C30AF0A3EFF090C30AE06B
:10095400FEA3E0FFD39432EE9400502CEF9400EE0B
:100964009400402490C1B9E0FFA3E090C28BCFF083
:10097400A3EFF07B017AC179B990C333E4F0A30407
:10098400F07F007E2202195390C308E0FFA3E09099
:10099400C1B9CFF0A3EFF07B017AC179B990C33329
:1009A400E4F0A304F07F007E2202195390C1B4E066
:1009B40064016003020A7E90C1BBE0FEA3E0FF90E5
:1009C400C308EEF0A3EFF04E700A90C1BBF0A3741D
:1009D40005F0800E90C1BCE024FFF090C1BBE03470
:1009E400FFF090C1BBE0FEA3E0FF7C007D0A124152
:1009F40077AA06AB0790C1B9E0FEA3E0FF7D6412BD
:100A04004177EF2BFFEE3AFE90C1BEE02FFF90C17D
:100A1400BDE03E90C30AF0A3EFF090C30AE0FEA34A
:100A2400E0FFD39432EE9400502CEF9400EE940047
:100A3400402490C1BBE0FFA3E090C25CCFF0A3EFE1
:100A4400F07B017AC179BB90C333E4F0A304F07F57
:100A5400107E2202195390C308E0FFA3E090C1BBAB
:100A6400CFF0A3EFF07B017AC179BB90C333E4F0FC
:100A7400A304F07F107E2202195390C1B4E06402F3
:100A84006003022F7C90C1BDE0FEA3E0FF90C30889
:100A9400EEF0A3EFF04E700A90C1BDF0A37409F01C
:100AA400800E90C1BEE024FFF090C1BDE034FFF0A1
:100AB40090C1BBE0FEA3E0FF7C007D0A124177AA4F
:100AC40006AB0790C1B9E0FEA3E0FF7D6412417755
:100AD400EF2BFFEE3AFE90C1BDE0FCA3E0FD2FFF3B
:100AE400EC3E90C30AF0A3EFF090C30AE0FEA3E04B
:100AF400FFD39432EE94005025EF9400EE9400401E
:100B04001D90C247ECF0A3EDF07B017AC179BD9052
:100B1400C333E4F0A304F07F207E2202195390C370
:100B240008E0FFA3E090C1BDCFF0A3EFF07B017A12
:100B3400C179BD90C333E4F0A304F07F207E220288
:100B4400195390C284E0FF90C222E06F6003020D4B
:100B54009090C1B4E06003020C1290C26EE0FEA358
:100B6400E0FF90C308EEF0A3EFF04E700A90C26E5F
:100B7400F0A37409F0800E90C26FE024FFF090C2DD
:100B84006EE034FFF090C2A1E0FEA3E0FF7C007DA4
:100B94000A124177AA06AB0790C231E0FEA3E0FF38
:100BA4007D64124177EF2BFFEE3AFE90C26FE02F87
:100BB400FF90C26EE03E90C30AF0A3EFF090C30A28
:100BC400E0FEA3E0FFD394C8EE9400501DEF940020
:100BD400EE940040157B017AC2796E90C333E4F041
:100BE400A304F07F207E2302195390C308E0FFA3DF
:100BF400E090C26ECFF0A3EFF07B017AC2796E90E1
:100C0400C333E4F0A304F07F207E2302195390C180
:100C1400B4E064016003020CD190C2A1E0FEA3E041
:100C2400FF90C308EEF0A3EFF04E700A90C2A1F05B
:100C3400A37409F0800E90C2A2E024FFF090C2A138
:100C4400E034FFF090C2A1E0FEA3E0FF7C007D0A47
:100C5400124177AA06AB0790C231E0FEA3E0FF7D04
:100C640064124177EF2BFFEE3AFE90C26FE02FFF44
:100C740090C26EE03E90C30AF0A3EFF090C30AE086
:100C8400FEA3E0FFD394C8EE9400501DEF9400EE51
:100C9400940040157B017AC279A190C333E4F0A398
:100CA40004F07F107E2302195390C308E0FFA3E0F1
:100CB40090C2A1CFF0A3EFF07B017AC279A190C3D7
:100CC40033E4F0A304F07F107E2302195390C1B4DF
:100CD400E064026003022F7C90C231E0FEA3E0FFD7
:100CE40090C308EEF0A3EFF04E700A90C231F0A367
:100CF4007402F0800E90C232E024FFF090C231E022
:100D040034FFF090C2A1E0FEA3E0FF7C007D0A1254
:100D14004177AA06AB0790C231E0FEA3E0FF7D64F1
:100D2400124177EF2BFFEE3AFE90C26FE02FFF9057
:100D3400C26EE03E90C30AF0A3EFF090C30AE0FE57
:100D4400A3E0FFD394C8EE9400501DEF9400EE94FA
:100D54000040157B017AC2793190C333E4F0A304D7
:100D6400F07F007E2302195390C308E0FFA3E090B4
:100D7400C231CFF0A3EFF07B017AC2793190C33353
:100D8400E4F0A304F07F007E2302195390C29BE099
:100D9400FF90C222E06F6003020EED90C1B4E060E8
:100DA40003020E4590C241E0FEA3E0FF90C308EEAB
:100DB400F0A3EFF04E700A90C241F0A37409F080E2
:100DC4000E90C242E024FFF090C241E034FFF09064
:100DD400C298E0FEA3E0FF7C007D0A12417790C236
:100DE40042E02FFF90C241E03E90C30AF0A3EFF02F
:100DF40090C30AE0FEA3E0FFD39450EE9400501D8C
:100E0400EF9400EE940040157B017AC2794190C3BF
:100E140033E4F0A304F07F207E2402195390C30826
:100E2400E0FFA3E090C241CFF0A3EFF07B017AC2D0
:100E3400794190C333E4F0A304F07F207E240219A7
:100E44005390C1B4E064016003022F7C90C298E027
:100E5400FEA3E0FF90C308EEF0A3EFF04E700A90FB
:100E6400C298F0A37408F0800E90C299E024FFF0B9
:100E740090C298E034FFF090C298E0FEA3E0FF7CBB
:100E8400007D0A12417790C242E02FFF90C241E0F8
:100E94003E90C30AF0A3EFF090C30AE0FEA3E0FF84
:100EA400D39450EE9400501DEF9400EE940040153E
:100EB4007B017AC2799890C333E4F0A304F07F10E5
:100EC4007E2402195390C308E0FFA3E090C298CF98
:100ED400F0A3EFF07B017AC2799890C333E4F0A3D6
:100EE40004F07F107E2402195390C21EE0FF90C2CA
:100EF40022E06F600302115E90C1B4E06003020F50
:100F0400C890C1B9E0FEA3E0FF90C308EEF0A3EFE0
:100F1400F064024E700890C1B9F0A3F0800E90C145
:100F2400BAE024FFF090C1B9E034FFF090C1BBE017
:100F3400FEA3E0FF7C007D0A124177AA06AB07906E
:100F4400C1B9E0FEA3E0FF7D64124177EF2BFFEE11
:100F54003AFE90C1BEE02FFF90C1BDE03E90C30AAF
:100F6400F0A3EFF090C30AE0FEA3E0FFD39432EEC7
:100F74009400502CEF9400EE9400402490C1B9E00A
:100F8400FFA3E090C291CFF0A3EFF07B017AC17987
:100F9400B990C333E4F0A304F07F007E2502195313
:100FA40090C308E0FFA3E090C1B9CFF0A3EFF07BBA
:100FB400017AC179B990C333E4F0A304F07F007ED1
:100FC4002502195390C1B4E06401600302109690A5
:100FD400C1BBE0FEA3E0FF90C308EEF0A3EFF04E28
:100FE400700A90C1BBF0A37405F0800E90C1BCE000
:100FF40024FFF090C1BBE034FFF090C1BBE0FEA33E
:10100400E0FF7C007D0A124177AA06AB0790C1B9C4
:10101400E0FEA3E0FF7D64124177EF2BFFEE3AFE82
:1010240090C1BEE02FFF90C1BDE03E90C30AF0A383
:10103400EFF090C30AE0FEA3E0FFD39432EE9400F5
:10104400502CEF9400EE9400402490C1BBE0FFA329
:10105400E090C262CFF0A3EFF07B017AC179BB903C
:10106400C333E4F0A304F07F107E2502195390C328
:1010740008E0FFA3E090C1BBCFF0A3EFF07B017ABF
:10108400C179BB90C333E4F0A304F07F107E250242
:10109400195390C1B4E064026003022F7C90C1BD77
:1010A400E0FEA3E0FF90C308EEF0A3EFF04E700A59
:1010B40090C1BDF0A37409F0800E90C1BEE024FF7E
:1010C400F090C1BDE034FFF090C1BBE0FEA3E0FFAF
:1010D4007C007D0A124177AA06AB0790C1B9E0FEF5
:1010E400A3E0FF7D64124177EF2BFFEE3AFE90C13F
:1010F400BDE0FCA3E0FD2FFFEC3E90C30AF0A3EF9C
:10110400F090C30AE0FEA3E0FFD39432EE940050C3
:1011140025EF9400EE9400401D90C24DECF0A3ED39
:10112400F07B017AC179BD90C333E4F0A304F07F6E
:10113400207E2502195390C308E0FFA3E090C1BDAF
:10114400CFF0A3EFF07B017AC179BD90C333E4F013
:10115400A304F07F207E2502195390C297E0FF90EC
:10116400C222E06F60030212CE90C1B4E0600302B9
:10117400122690C26CE0FEA3E0FF90C308EEF0A339
:10118400EFF04E701D90C214E07002A3E090C26CA8
:101194006008E4F0A3743BF08016E4F0A3743CF020
:1011A400800E90C26DE024FFF090C26CE034FFF03A
:1011B40090C26CE0FEA3E0FF7C007D3C124177907E
:1011C400C215E02FFF90C214E03E90C30AF0A3EFD3
:1011D400F090C30AE0FEA3E0FFD39410EE940E5007
:1011E4001DEF9400EE940040157B017AC2796C9057
:1011F400C333E4F0A304F07F507E2802195390C354
:1012040008E0FFA3E090C26CCFF0A3EFF07B017A7B
:10121400C2796C90C333E4F0A304F07F507E2802BB
:10122400195390C1B4E064016003022F7C90C2148E
:10123400E0FEA3E0FF90C308EEF0A3EFF04E700AC7
:1012440090C214F0A3743BF0800E90C215E024FF0A
:10125400F090C214E034FFF090C26CE0FEA3E0FF13
:101264007C007D3C12417790C215E02FFF90C214A0
:10127400E03E90C30AF0A3EFF090C30AE0FEA3E0BF
:10128400FFD39410EE940E501DEF9400EE940040A2
:10129400157B017AC2791490C333E4F0A304F07F80
:1012A400607E2802195390C308E0FFA3E090C214A3
:1012B400CFF0A3EFF07B017AC2791490C333E4F04A
:1012C400A304F07F607E2802195390C278E0FF9057
:1012D400C222E0B5073C90C1B4E06003022F7CD386
:1012E40090C23DE0940190C23CE094005003022F70
:1012F4007CA3E024FFF090C23CE034FFF07B017A51
:10130400C2793C90C333E4F0A304F07F207E290229
:10131400195390C21AE0FF90C222E06F6003022FBB
:101324007C90C1B8E06401600302156B90C1B4E025
:1013340060030213ED90C27DE0FEA3E0FF90C308BA
:10134400EEF0A3EFF04E700A90C27DF0A37409F0A2
:10135400800E90C27EE024FFF090C27DE034FFF066
:1013640090C21FE0FEA3E0FF7C007D0A124177AA31
:1013740006AB0790C255E0FEA3E0FF7D64124177FF
:10138400EF2BFFEE3AFE90C27EE02FFF90C27DE08D
:101394003E90C30AF0A3EFF090C30AE0FEA3E0FF7F
:1013A400D394C8EE9400501DEF9400EE94004015C1
:1013B4007B017AC2797D90C333E4F0A304F07F20EB
:1013C4007E2802195390C308E0FFA3E090C27DCFAA
:1013D400F0A3EFF07B017AC2797D90C333E4F0A3EC
:1013E40004F07F207E2802195390C1B4E0640160A8
:1013F400030214AC90C21FE0FEA3E0FF90C308EE0A
:10140400F0A3EFF04E700A90C21FF0A37409F080AD
:101414000E90C220E024FFF090C21FE034FFF09051
:10142400C21FE0FEA3E0FF7C007D0A124177AA06FA
:10143400AB0790C255E0FEA3E0FF7D64124177EF55
:101444002BFFEE3AFE90C27EE02FFF90C27DE03E7D
:1014540090C30AF0A3EFF090C30AE0FEA3E0FFD329
:1014640094C8EE9400501DEF9400EE940040157B58
:10147400017AC2791F90C333E4F0A304F07F107E95
:101484002802195390C308E0FFA3E090C21FCFF0D5
:10149400A3EFF07B017AC2791F90C333E4F0A30475
:1014A400F07F107E2802195390C1B4E064026003F7
:1014B400022F7C90C255E0FEA3E0FF90C308EEF03B
:1014C400A3EFF04E700A90C255F0A37402F0800EA0
:1014D40090C256E024FFF090C255E034FFF090C271
:1014E4001FE0FEA3E0FF7C007D0A124177AA06AB51
:1014F4000790C255E0FEA3E0FF7D64124177EF2B15
:10150400FFEE3AFE90C27EE02FFF90C27DE03E9057
:10151400C30AF0A3EFF090C30AE0FEA3E0FFD39464
:10152400C8EE9400501DEF9400EE940040157B012A
:101534007AC2795590C333E4F0A304F07F007E2887
:1015440002195390C308E0FFA3E090C255CFF0A363
:10155400EFF07B017AC2795590C333E4F0A304F031
:101564007F007E2802195390C1B8E0B40233D390AF
:10157400C23DE0940190C23CE094005003022F7CF1
:10158400A3E024FFF090C23CE034FFF07B017AC278
:10159400793C90C333E4F0A304F07F307E29021930
:1015A4005390C1B8E0640360030217EB90C1B4E048
:1015B400600302166D90C26EE0FEA3E0FF90C308C4
:1015C400EEF0A3EFF04E700A90C26EF0A37409F02F
:1015D400800E90C26FE024FFF090C26EE034FFF002
:1015E40090C2A1E0FEA3E0FF7C007D0A124177AA2D
:1015F40006AB0790C231E0FEA3E0FF7D64124177A1
:10160400EF2BFFEE3AFE90C26FE02FFF90C26EE028
:101614003E90C30AF0A3EFF090C30AE0FEA3E0FFFC
:10162400D394C8EE9400501DEF9400EE940040153E
:101634007B017AC2796E90C333E4F0A304F07F9007
:101644007E2802195390C308E0FFA3E090C26ECF36
:10165400F0A3EFF07B017AC2796E90C333E4F0A378
:1016640004F07F907E2802195390C1B4E0640160B5
:101674000302172C90C2A1E0FEA3E0FF90C308EE82
:10168400F0A3EFF04E700A90C2A1F0A37409F080A9
:101694000E90C2A2E024FFF090C2A1E034FFF090CB
:1016A400C2A1E0FEA3E0FF7C007D0A124177AA06F6
:1016B400AB0790C231E0FEA3E0FF7D64124177EFF7
:1016C4002BFFEE3AFE90C26FE02FFF90C26EE03E19
:1016D40090C30AF0A3EFF090C30AE0FEA3E0FFD3A7
:1016E40094C8EE9400501DEF9400EE940040157BD6
:1016F400017AC279A190C333E4F0A304F07F807E21
:101704002802195390C308E0FFA3E090C2A1CFF0D0
:10171400A3EFF07B017AC279A190C333E4F0A30470
:10172400F07F807E2802195390C1B4E06402600304
:10173400022F7C90C231E0FEA3E0FF90C308EEF0DC
:10174400A3EFF04E700A90C231F0A37402F0800E41
:1017540090C232E024FFF090C231E034FFF090C236
:10176400A1E0FEA3E0FF7C007D0A124177AA06AB4C
:101774000790C231E0FEA3E0FF7D64124177EF2BB6
:10178400FFEE3AFE90C26FE02FFF90C26EE03E90F3
:10179400C30AF0A3EFF090C30AE0FEA3E0FFD394E2
:1017A400C8EE9400501DEF9400EE940040157B01A8
:1017B4007AC2793190C333E4F0A304F07F707E28B9
:1017C40002195390C308E0FFA3E090C231CFF0A305
:1017D400EFF07B017AC2793190C333E4F0A304F0D3
:1017E4007F707E2802195390C1B8E064046003023C
:1017F4002F7C90C1B4E060030218AF90C26CE0FE8D
:10180400A3E0FF90C308EEF0A3EFF04E701D90C26A
:1018140014E07002A3E090C26C6008E4F0A3743B8F
:10182400F08016E4F0A3743CF0800E90C26DE024C6
:10183400FFF090C26CE034FFF090C26CE0FEA3E0D5
:10184400FF7C007D3C12417790C215E02FFF90C2CF
:1018540014E03E90C30AF0A3EFF090C30AE0FEA3A5
:10186400E0FFD39410EE940E501DEF9400EE94001C
:1018740040157B017AC2796C90C333E4F0A304F081
:101884007F507E2802195390C308E0FFA3E090C262
:101894006CCFF0A3EFF07B017AC2796C90C333E490
:1018A400F0A304F07F507E2802195390C1B4E06481
:1018B400016003022F7C90C214E0FEA3E0FF90C3FA
:1018C40008EEF0A3EFF04E700A90C214F0A3743B3C
:1018D400F0800E90C215E024FFF090C214E034FFB3
:1018E400F090C26CE0FEA3E0FF7C007D3C124177E7
:1018F40090C215E02FFF90C214E03E90C30AF0A3FB
:10190400EFF090C30AE0FEA3E0FFD39410EE940E30
:10191400501CEF9400EE940040147B017AC27914B9
:1019240090C333E4F0A304F07F607E28802190C349
:1019340008E0FFA3E090C214CFF0A3EFF07B017A9C
:10194400C2791490C333E4F0A304F07F607E2812BC
:10195400588A022F7C90C1B7E06401702890C1BFFF
:10196400E07002A3E06003022F7C1275E890C1B816
:10197400E0B401057404F0800690C1B8E014F012DC
:101984006EB5022F7C90C222E0FFD394014008EF91
:10199400D394075002804490C27BE0FF90C222E0BF
:1019A400B5070B90C283E0FF90C222F0803290C151
:1019B400B5E06401703090C257E0FF90C222E0B5F8
:1019C400070590C26A803B90C22CE0FF90C222E0DF
:1019D400B5070590C257802A90C222E014F0E0FFB8
:1019E400127C81022F7C90C1B6E0B4011D90C2210B
:1019F400E0FFA3E0B5070590C257800690C222E03D
:101A040014F0E0FF128152022F7C90C235E0FF9067
:101A1400C222E0B5071490C23BE070057407F08061
:101A24000690C23BE014F012617B022F7C90C1BF90
:101A3400E07004A3E064016003022E8790C29CE07E
:101A4400FF90C222E06F6003021C7A90C1B4E06090
:101A540003021AFA90C27DE0FEA3E0FF90C308EEF1
:101A6400F0A3EFF064094E601090C27EE004F070C1
:101A74000F90C27DE004F08007E490C27DF0A3F0F3
:101A840090C21FE0FEA3E0FF7C007D0A124177AA0A
:101A940006AB0790C255E0FEA3E0FF7D64124177D8
:101AA400EF2BFFEE3AFE90C27EE02FFF90C27DE066
:101AB4003E90C30AF0A3EFF090C30AE0FEA3E0FF58
:101AC400D394C8EE9400500AEF9400EE94004002C0
:101AD400800F90C308E0FFA3E090C27DCFF0A3EF96
:101AE400F07B017AC2797D90C333E4F0A304F074EF
:101AF40020FFFE022E8190C1B4E064016003021B4A
:101B0400BA90C21FE0FEA3E0FF90C308EEF0A3EF7B
:101B1400F064094E601090C220E004F0700F90C28F
:101B24001FE004F08007E490C21FF0A3F090C21FEE
:101B3400E0FEA3E0FF7C007D0A124177AA06AB0712
:101B440090C255E0FEA3E0FF7D64124177EF2BFFC6
:101B5400EE3AFE90C27EE02FFF90C27DE03E90C33D
:101B64000AF0A3EFF090C30AE0FEA3E0FFD394C809
:101B7400EE9400501DEF9400EE940040157B017A22
:101B8400C2791F90C333E4F0A304F07F107E2002D7
:101B94002E8190C308E0FFA3E090C21FCFF0A3EF13
:101BA400F07B017AC2791F90C333E4F0A304F07F81
:101BB400107E20022E8190C1B4E064026003022FE3
:101BC4007C90C255E0FEA3E0FF90C308EEF0A3EFC3
:101BD400F064024E601090C256E004F0700F90C2A0
:101BE40055E004F08007E490C255F0A3F090C21FC2
:101BF400E0FEA3E0FF7C007D0A124177AA06AB0752
:101C040090C255E0FEA3E0FF7D64124177EF2BFF05
:101C1400EE3AFE90C27EE02FFF90C27DE03E90C37C
:101C24000AF0A3EFF090C30AE0FEA3E0FFD394C848
:101C3400EE9400501DEF9400EE940040157B017A61
:101C4400C2795590C333E4F0A304F07F007E2002F0
:101C54002E8190C308E0FFA3E090C255CFF0A3EF1C
:101C6400F07B017AC2795590C333E4F0A304F07F8A
:101C7400007E20022E8190C2A3E0FF90C222E06F7A
:101C84006003021DD890C1B4E06003021D3090C20D
:101C940070E0FEA3E0FF90C308EEF0A3EFF0640948
:101CA4004E601090C271E004F0700F90C270E004B6
:101CB400F08007E490C270F0A3F090C2A4E0FEA309
:101CC400E0FF7C007D0A12417790C271E02FFF9003
:101CD400C270E03E90C30AF0A3EFF090C30AE0FEA6
:101CE400A3E0FFD39450EE9400501DEF9400EE94C3
:101CF4000040157B017AC2797090C333E4F0A304E9
:101D0400F07F207E21022E8190C308E0FFA3E090A3
:101D1400C270CFF0A3EFF07B017AC2797090C33325
:101D2400E4F0A304F07F207E21022E8190C1B4E070
:101D340064016003022F7C90C2A4E0FEA3E0FF9044
:101D4400C308EEF0A3EFF064084E700890C2A4F04C
:101D5400A3F0800E90C2A5E004F0700690C2A4E047
:101D640004F090C2A4E0FEA3E0FF7C007D0A1241CF
:101D74007790C271E02FFF90C270E03E90C30AF0EA
:101D8400A3EFF090C30AE0FEA3E0FFD39450EE94D7
:101D940000501DEF9400EE940040157B017AC27947
:101DA400A490C333E4F0A304F07F107E21022E81BB
:101DB40090C308E0FFA3E090C2A4CFF0A3EFF07BB0
:101DC400017AC279A490C333E4F0A304F07F107EB7
:101DD40021022E8190C22AE0FF90C222E06F6003AC
:101DE40002204990C1B4E06003021EB390C1B9E07F
:101DF400FEA3E0FF90C308EEF0A3EFF064094E7079
:101E04000890C1B9F0A3F0800E90C1BAE004F0705C
:101E14000690C1B9E004F090C1BBE0FEA3E0FF7CF2
:101E2400007D0A124177AA06AB0790C1B9E0FEA370
:101E3400E0FF7D64124177EF2BFFEE3AFE90C1BEC6
:101E4400E02FFF90C1BDE03E90C30AF0A3EFF090F5
:101E5400C30AE0FEA3E0FFD39432EE9400502CEFCB
:101E64009400EE9400402490C1B9E0FFA3E090C236
:101E74008BCFF0A3EFF07B017AC179B990C333E43F
:101E8400F0A304F07F007E22022E8190C308E0FFBD
:101E9400A3E090C1B9CFF0A3EFF07B017AC179B987
:101EA40090C333E4F0A304F07F007E22022E8190DD
:101EB400C1B4E064016003021F8190C1BBE0FEA3D2
:101EC400E0FF90C308EEF0A3EFF064054E700890B5
:101ED400C1BBF0A3F0800E90C1BCE004F07006908A
:101EE400C1BBE004F090C1BBE0FEA3E0FF7C007D39
:101EF4000A124177AA06AB0790C1B9E0FEA3E0FF3E
:101F04007D64124177EF2BFFEE3AFE90C1BEE02FC5
:101F1400FF90C1BDE03E90C30AF0A3EFF090C30A66
:101F2400E0FEA3E0FFD39432EE9400502CEF940033
:101F3400EE9400402490C1BBE0FFA3E090C25CCFCC
:101F4400F0A3EFF07B017AC179BB90C333E4F0A333
:101F540004F07F107E22022E8190C308E0FFA3E0EC
:101F640090C1BBCFF0A3EFF07B017AC179BB90C3E2
:101F740033E4F0A304F07F107E22022E8190C1B4DA
:101F8400E064026003022F7C90C1BDE0FEA3E0FF89
:101F940090C308EEF0A3EFF064094E700890C1BD41
:101FA400F0A3F0800E90C1BEE004F0700690C1BDB5
:101FB400E004F090C1BBE0FEA3E0FF7C007D0A12C8
:101FC4004177AA06AB0790C1B9E0FEA3E0FF7D64A8
:101FD400124177EF2BFFEE3AFE90C1BDE0FCA3E087
:101FE400FD2FFFEC3E90C30AF0A3EFF090C30AE08C
:101FF400FEA3E0FFD39432EE94005025EF9400EE5C
:102004009400401D90C247ECF0A3EDF07B017AC12F
:1020140079BD90C333E4F0A304F07F207E22022E26
:102024008190C308E0FFA3E090C1BDCFF0A3EFF01F
:102034007B017AC179BD90C333E4F0A304F07F201F
:102044007E22022E8190C284E0FF90C222E06F6063
:102054000302229690C1B4E0600302211690C26E7E
:10206400E0FEA3E0FF90C308EEF0A3EFF064094E96
:10207400601090C26FE004F0700F90C26EE004F044
:102084008007E490C26EF0A3F090C2A1E0FEA3E04A
:10209400FF7C007D0A124177AA06AB0790C231E0AB
:1020A400FEA3E0FF7D64124177EF2BFFEE3AFE9032
:1020B400C26FE02FFF90C26EE03E90C30AF0A3EF20
:1020C400F090C30AE0FEA3E0FFD394C8EE9400505E
:1020D4001DEF9400EE940040157B017AC2796E9056
:1020E400C333E4F0A304F07F207E23022E8190C347
:1020F40008E0FFA3E090C26ECFF0A3EFF07B017A7B
:10210400C2796E90C333E4F0A304F07F207E2302EF
:102114002E8190C1B4E0640160030221D690C2A173
:10212400E0FEA3E0FF90C308EEF0A3EFF064094ED5
:10213400601090C2A2E004F0700F90C2A1E004F01D
:102144008007E490C2A1F0A3F090C2A1E0FEA3E056
:10215400FF7C007D0A124177AA06AB0790C231E0EA
:10216400FEA3E0FF7D64124177EF2BFFEE3AFE9071
:10217400C26FE02FFF90C26EE03E90C30AF0A3EF5F
:10218400F090C30AE0FEA3E0FFD394C8EE9400509D
:102194001DEF9400EE940040157B017AC279A19062
:1021A400C333E4F0A304F07F107E23022E8190C396
:1021B40008E0FFA3E090C2A1CFF0A3EFF07B017A87
:1021C400C279A190C333E4F0A304F07F107E23020C
:1021D4002E8190C1B4E064026003022F7C90C2316E
:1021E400E0FEA3E0FF90C308EEF0A3EFF064024E1C
:1021F400601090C232E004F0700F90C231E004F03D
:102204008007E490C231F0A3F090C2A1E0FEA3E005
:10221400FF7C007D0A124177AA06AB0790C231E029
:10222400FEA3E0FF7D64124177EF2BFFEE3AFE90B0
:10223400C26FE02FFF90C26EE03E90C30AF0A3EF9E
:10224400F090C30AE0FEA3E0FFD394C8EE940050DC
:102254001DEF9400EE940040157B017AC279319011
:10226400C333E4F0A304F07F007E23022E8190C3E5
:1022740008E0FFA3E090C231CFF0A3EFF07B017A36
:10228400C2793190C333E4F0A304F07F007E2302CB
:102294002E8190C29BE0FF90C222E06F6003022374
:1022A400F390C1B4E0600302234B90C241E0FEA36B
:1022B400E0FF90C308EEF0A3EFF064094E700890BD
:1022C400C241F0A3F0800E90C242E004F070069088
:1022D400C241E004F090C298E0FEA3E0FF7C007DE0
:1022E4000A12417790C242E02FFF90C241E03E9033
:1022F400C30AF0A3EFF090C30AE0FEA3E0FFD39477
:1023040050EE9400501DEF9400EE940040157B01B4
:102314007AC2794190C333E4F0A304F07F207E2491
:10232400022E8190C308E0FFA3E090C241CFF0A346
:10233400EFF07B017AC2794190C333E4F0A304F057
:102344007F207E24022E8190C1B4E06401600302E8
:102354002F7C90C298E0FEA3E0FF90C308EEF0A3A8
:10236400EFF064084E700890C298F0A3F0800E90CD
:10237400C299E004F0700690C298E004F090C2980C
:10238400E0FEA3E0FF7C007D0A12417790C242E0A8
:102394002FFF90C241E03E90C30AF0A3EFF090C338
:1023A4000AE0FEA3E0FFD39450EE9400501DEF9496
:1023B40000EE940040157B017AC2799890C333E40F
:1023C400F0A304F07F107E24022E8190C308E0FF66
:1023D400A3E090C298CFF0A3EFF07B017AC2799882
:1023E40090C333E4F0A304F07F107E24022E819086
:1023F400C21EE0FF90C222E06F600302266490C117
:10240400B4E060030224CE90C1B9E0FEA3E0FF90E3
:10241400C308EEF0A3EFF064094E700890C1B9F060
:10242400A3F0800E90C1BAE004F0700690C1B9E048
:1024340004F090C1BBE0FEA3E0FF7C007D0A1241E2
:1024440077AA06AB0790C1B9E0FEA3E0FF7D641252
:102454004177EF2BFFEE3AFE90C1BEE02FFF90C113
:10246400BDE03E90C30AF0A3EFF090C30AE0FEA3E0
:10247400E0FFD39432EE9400502CEF9400EE9400DD
:10248400402490C1B9E0FFA3E090C291CFF0A3EF44
:10249400F07B017AC179B990C333E4F0A304F07FEF
:1024A400007E25022E8190C308E0FFA3E090C1B90D
:1024B400CFF0A3EFF07B017AC179B990C333E4F094
:1024C400A304F07F007E25022E8190C1B4E0640154
:1024D400600302259C90C1BBE0FEA3E0FF90C3080B
:1024E400EEF0A3EFF064054E700890C1BBF0A3F0CA
:1024F400800E90C1BCE004F0700690C1BBE004F013
:1025040090C1BBE0FEA3E0FF7C007D0A124177AAE4
:1025140006AB0790C1B9E0FEA3E0FF7D64124177EA
:10252400EF2BFFEE3AFE90C1BEE02FFF90C1BDE05D
:102534003E90C30AF0A3EFF090C30AE0FEA3E0FFCD
:10254400D39432EE9400502CEF9400EE9400402487
:1025540090C1BBE0FFA3E090C262CFF0A3EFF07B99
:10256400017AC179BB90C333E4F0A304F07F107EF9
:1025740025022E8190C308E0FFA3E090C1BBCFF0F9
:10258400A3EFF07B017AC179BB90C333E4F0A304D9
:10259400F07F107E25022E8190C1B4E064026003B6
:1025A400022F7C90C1BDE0FEA3E0FF90C308EEF0D3
:1025B400A3EFF064094E700890C1BDF0A3F0800E43
:1025C40090C1BEE004F0700690C1BDE004F090C17B
:1025D400BBE0FEA3E0FF7C007D0A124177AA06ABB4
:1025E4000790C1B9E0FEA3E0FF7D64124177EF2BB1
:1025F400FFEE3AFE90C1BDE0FCA3E0FD2FFFEC3EF0
:1026040090C30AF0A3EFF090C30AE0FEA3E0FFD367
:102614009432EE94005025EF9400EE9400401D9007
:10262400C24DECF0A3EDF07B017AC179BD90C333C8
:10263400E4F0A304F07F207E25022E8190C308E0FD
:10264400FFA3E090C1BDCFF0A3EFF07B017AC17985
:10265400BD90C333E4F0A304F07F207E25022E81D5
:1026640090C297E0FF90C222E06F60030227EA90D5
:10267400C1B4E0600302274290C26CE0FEA3E0FF15
:1026840090C308EEF0A3EFF0643B4E701D90C214AB
:10269400E07002A3E06003E4801C90C26DE004F0EB
:1026A400702A90C26CE004F0802290C26CE0700446
:1026B400A3E0643C700890C26CF0A3F0800E90C25A
:1026C4006DE004F0700690C26CE004F090C26CE01F
:1026D400FEA3E0FF7C007D3C12417790C215E02F01
:1026E400FF90C214E03E90C30AF0A3EFF090C30A37
:1026F400E0FEA3E0FFD39410EE940E501DEF94007F
:10270400EE940040157B017AC2796C90C333E4F0F7
:10271400A304F07F507E28022E8190C308E0FFA31B
:10272400E090C26CCFF0A3EFF07B017AC2796C9099
:10273400C333E4F0A304F07F507E28022E8190C1BD
:10274400B4E064016003022F7C90C214E0FEA3E0B5
:10275400FF90C308EEF0A3EFF0643B4E700890C204
:1027640014F0A3F0800E90C215E004F0700690C23D
:1027740014E004F090C26CE0FEA3E0FF7C007D3C1A
:1027840012417790C215E02FFF90C214E03E90C32F
:102794000AF0A3EFF090C30AE0FEA3E0FFD3941085
:1027A400EE940E501DEF9400EE940040157B017AD8
:1027B400C2791490C333E4F0A304F07F607E28024E
:1027C4002E8190C308E0FFA3E090C214CFF0A3EFE2
:1027D400F07B017AC2791490C333E4F0A304F07F50
:1027E400607E28022E8190C278E0FF90C222E0B57C
:1027F4000733C390C23DE0941490C23CE09400407F
:1028040003022F7CA3E004F0700690C23CE004F0C5
:102814007B017AC2793C90C333E4F0A304F07F20B7
:102824007E29022E8190C21AE0FF90C222E06F60DE
:1028340003022F7C90C1B8E064016003022A8190F6
:10284400C1B4E0600302290190C27DE0FEA3E0FF71
:1028540090C308EEF0A3EFF064094E601090C27EBE
:10286400E004F0700F90C27DE004F08007E490C2B1
:102874007DF0A3F090C21FE0FEA3E0FF7C007D0A80
:10288400124177AA06AB0790C255E0FEA3E0FF7D94
:1028940064124177EF2BFFEE3AFE90C27EE02FFFE9
:1028A40090C27DE03E90C30AF0A3EFF090C30AE02B
:1028B400FEA3E0FFD394C8EE9400501DEF9400EE05
:1028C400940040157B017AC2797D90C333E4F0A370
:1028D40004F07F207E28022E8190C308E0FFA3E04D
:1028E40090C27DCFF0A3EFF07B017AC2797D90C3D3
:1028F40033E4F0A304F07F207E28022E8190C1B43B
:10290400E0640160030229C190C21FE0FEA3E0FF5E
:1029140090C308EEF0A3EFF064094E601090C2205B
:10292400E004F0700F90C21FE004F08007E490C24E
:102934001FF0A3F090C21FE0FEA3E0FF7C007D0A1D
:10294400124177AA06AB0790C255E0FEA3E0FF7DD3
:1029540064124177EF2BFFEE3AFE90C27EE02FFF28
:1029640090C27DE03E90C30AF0A3EFF090C30AE06A
:10297400FEA3E0FFD394C8EE9400501DEF9400EE44
:10298400940040157B017AC2791F90C333E4F0A30D
:1029940004F07F107E28022E8190C308E0FFA3E09C
:1029A40090C21FCFF0A3EFF07B017AC2791F90C3CE
:1029B40033E4F0A304F07F107E28022E8190C1B48A
:1029C400E064026003022F7C90C255E0FEA3E0FFA6
:1029D40090C308EEF0A3EFF064024E601090C2566C
:1029E400E004F0700F90C255E004F08007E490C258
:1029F40055F0A3F090C21FE0FEA3E0FF7C007D0A27
:102A0400124177AA06AB0790C255E0FEA3E0FF7D12
:102A140064124177EF2BFFEE3AFE90C27EE02FFF67
:102A240090C27DE03E90C30AF0A3EFF090C30AE0A9
:102A3400FEA3E0FFD394C8EE9400501DEF9400EE83
:102A4400940040157B017AC2795590C333E4F0A316
:102A540004F07F007E28022E8190C308E0FFA3E0EB
:102A640090C255CFF0A3EFF07B017AC2795590C3A1
:102A740033E4F0A304F07F007E28022E8190C1B8D5
:102A8400E0B4023290C23CE07004A3E0641470032A
:102A9400022F7C90C23DE004F0700690C23CE0043A
:102AA400F07B017AC2793C90C333E4F0A304F07F55
:102AB400307E29022E8190C1B8E064036003022DA8
:102AC4000390C1B4E06003022B8390C26EE0FEA3C6
:102AD400E0FF90C308EEF0A3EFF064094E6010909D
:102AE400C26FE004F0700F90C26EE004F08007E45F
:102AF40090C26EF0A3F090C2A1E0FEA3E0FF7C00C0
:102B04007D0A124177AA06AB0790C231E0FEA3E02A
:102B1400FF7D64124177EF2BFFEE3AFE90C26FE027
:102B24002FFF90C26EE03E90C30AF0A3EFF090C373
:102B34000AE0FEA3E0FFD394C8EE9400501DEF9486
:102B440000EE940040157B017AC2796E90C333E4A1
:102B5400F0A304F07F907E28022E8190C308E0FF4A
:102B6400A3E090C26ECFF0A3EFF07B017AC2796E3E
:102B740090C333E4F0A304F07F907E28022E81906A
:102B8400C1B4E064016003022C4390C2A1E0FEA33F
:102B9400E0FF90C308EEF0A3EFF064094E601090DC
:102BA400C2A2E004F0700F90C2A1E004F08007E438
:102BB40090C2A1F0A3F090C2A1E0FEA3E0FF7C00CC
:102BC4007D0A124177AA06AB0790C231E0FEA3E06A
:102BD400FF7D64124177EF2BFFEE3AFE90C26FE067
:102BE4002FFF90C26EE03E90C30AF0A3EFF090C3B3
:102BF4000AE0FEA3E0FFD394C8EE9400501DEF94C6
:102C040000EE940040157B017AC279A190C333E4AD
:102C1400F0A304F07F807E28022E8190C308E0FF99
:102C2400A3E090C2A1CFF0A3EFF07B017AC279A117
:102C340090C333E4F0A304F07F807E28022E8190B9
:102C4400C1B4E064026003022F7C90C231E0FEA3B1
:102C5400E0FF90C308EEF0A3EFF064024E60109022
:102C6400C232E004F0700F90C231E004F08007E457
:102C740090C231F0A3F090C2A1E0FEA3E0FF7C007B
:102C84007D0A124177AA06AB0790C231E0FEA3E0A9
:102C9400FF7D64124177EF2BFFEE3AFE90C26FE0A6
:102CA4002FFF90C26EE03E90C30AF0A3EFF090C3F2
:102CB4000AE0FEA3E0FFD394C8EE9400501DEF9405
:102CC40000EE940040157B017AC2793190C333E45D
:102CD400F0A304F07F707E28022E8190C308E0FFE9
:102CE400A3E090C231CFF0A3EFF07B017AC2793137
:102CF40090C333E4F0A304F07F707E28022E819009
:102D0400C1B8E064046003022F7C90C1B4E06003A6
:102D1400022DDD90C26CE0FEA3E0FF90C308EEF04C
:102D2400A3EFF0643B4E701D90C214E07002A3E068
:102D34006003E4801C90C26DE004F0702A90C26CC1
:102D4400E004F0802290C26CE07004A3E0643C7064
:102D54000890C26CF0A3F0800E90C26DE004F07095
:102D64000690C26CE004F090C26CE0FEA3E0FF7C2D
:102D7400007D3C12417790C215E02FFF90C214E011
:102D84003E90C30AF0A3EFF090C30AE0FEA3E0FF75
:102D9400D39410EE940E501DEF9400EE9400401561
:102DA4007B017AC2796C90C333E4F0A304F07F50C2
:102DB4007E28022E8190C308E0FFA3E090C26CCF6E
:102DC400F0A3EFF07B017AC2796C90C333E4F0A3F3
:102DD40004F07F507E28022E8190C1B4E06401602B
:102DE40003022F7C90C214E0FEA3E0FF90C308EE20
:102DF400F0A3EFF0643B4E700890C214F0A3F0808F
:102E04000E90C215E004F0700690C214E004F09035
:102E1400C26CE0FEA3E0FF7C007D3C12417790C2CF
:102E240015E02FFF90C214E03E90C30AF0A3EFF028
:102E340090C30AE0FEA3E0FFD39410EE940E501C5E
:102E4400EF9400EE940040147B017AC2791490C38D
:102E540033E4F0A304F07F607E28802190C308E06F
:102E6400FFA3E090C214CFF0A3EFF07B017AC27904
:102E74001490C333E4F0A304F07F607E2812588AD0
:102E8400022F7C90C1B7E06401702A90C21AE0FF5F
:102E940090C222E06F6003022F7C1275E890C1B8E3
:102EA400E0B404057401F0800690C1B8E004F012A7
:102EB4006EB5022F7C90C283E0FF90C222E0FEC375
:102EC4009F501490C27BE0FFEEC39F400A90C22241
:102ED400E004F0E0FF801590C283E0FF90C222E09E
:102EE400B5070F90C27BE0FF90C222F0127C8102F2
:102EF4002F7C90C1B5E06401702790C26AE0FF9016
:102F0400C222E0B50702802D90C257E0FF90C22292
:102F1400E0B5070590C22C803890C222E004F0800E
:102F24003090C1B6E06401702F90C240E0FF90C2BF
:102F340022E0B5070590C257801790C257E0FF9072
:102F4400C222E0B5070590C221800690C222E004A7
:102F5400F0E0FF128152802090C235E0FF90C2223F
:102F6400E0B5071490C23BE0B40704E4F080069097
:102F7400C23BE004F012617B90C1B27401F07D1E8B
:102F84007C00E4FF027E4A90C228E0B4010302738D
:102F94004390C1BFE07004A3E06401600302332BDB
:102FA40090C21AE0FF90C222E06F60030231579092
:102FB400C1B8E06401702990C1B4E004F0E0640396
:102FC400700F126FC190C1B8E0FF7E007D640231C2
:102FD4005290C1B8E0FF7E0090C1B4E0FD023152CE
:102FE40090C1B8E0B40221E490C1BFF0A3F090C155
:102FF400B4F090C23CE0FCA3E0FD7F047E8112703B
:103004000F7F537E92027E9090C1B8E06403706C8F
:1030140090C1B4E004F0E06403705290C1BFF0A327
:10302400F090C1B4F090C2A1E0FEA3E0FF7C007D6B
:103034000A124177AA06AB0790C231E0FEA3E0FF73
:103044007D64124177EF2BFFEE3AFE90C26FE02FC2
:10305400FF90C26EE03E90C30AF0A3EFF07F02122D
:10306400700590C1B8E0FF7E007D64800C90C1B80B
:10307400E0FF7E0090C1B4E0FD02315290C1B8E09F
:1030840064046003023AAD90C1B4E004F0E0640269
:10309400600302314690C1BFF0A3F090C1B4F07B4D
:1030A400017AC2796C90C32FF0A304F07F507E287C
:1030B4001251D17B017AC2791490C32FE4F0A30496
:1030C400F07F607E281251D190C26CE0FEA3E0FF35
:1030D4007C007D3C12417790C215E02FFF90C21412
:1030E400E03E90C30AF0A3EFF07B017AC27914901A
:1030F400C333E4F0A304F07F607E2812588A90C39F
:103104000AE0FCA3E0FD7F067E8112700F7B017A4A
:10311400C3790A90C333E4F0A304F07F007E8212E3
:10312400588A7B017AC3790A90C333E4F0A304F08C
:103134007F027E8212588A90C1B8E0FF7E007D64CF
:10314400800C90C1B8E0FF7E0090C1B4E0FD7C002B
:103154000262C490C1B4E004F090C222E0FF7E0099
:1031640090C1B4E0FD7C0012449390C29CE0FF90B7
:10317400C222E06F701190C1B4E064047009126F50
:10318400C190C22C023A2590C2A3E0FF90C222E073
:103194006F704890C1B4E06403704090C1BFF0A365
:1031A400F090C1B4F090C2A4E0FEA3E0FF7C007DE7
:1031B4000A12417790C271E02FFF90C270E03E90F6
:1031C400C30AF0A3EFF090C30AE0FCA3E0FD7F087C
:1031D4007E8112700F90C230023A2590C22AE0FF1D
:1031E40090C222E06F705F90C1B4E06404705790A5
:1031F400C1BFF0A3F090C1B4F090C2A1E0FEA3E07F
:10320400FF7C007D0A124177AA06AB0790C231E029
:10321400FEA3E0FF7D64124177EF2BFFEE3AFE90B0
:10322400C26FE02FFF90C26EE03E90C30AF0A3EF9E
:10323400F090C30AE0FCA3E0FD7F027E8112700FD0
:1032440090C26A023A2590C284E0FF90C222E06FE5
:10325400704890C1B4E06403704090C1BFF0A3F023
:1032640090C1B4F090C298E0FEA3E0FF7C007D0A18
:1032740012417790C242E02FFF90C241E03E90C3DA
:103284000AF0A3EFF090C30AE0FCA3E0FD7F0A7EFE
:103294008112700F90C221023A2590C29BE0FF90E8
:1032A400C222E06F704890C1B4E06403704090C1E2
:1032B400BFF0A3F090C1B4F090C26CE0FEA3E0FFB5
:1032C4007C007D3C12417790C215E02FFF90C21420
:1032D400E03E90C30AF0A3EFF090C30AE0FCA3E041
:1032E400FD7F067E8112700F90C22B023A2590C298
:1032F4001EE0FF90C222E06F6003023AAD90C1B4B9
:10330400E064026003023AAD90C1BFF0A3F090C143
:10331400B4F090C23CE0FCA3E0FD7F047E81127017
:103324000F90C240023A2590C27BE0FF90C222E097
:103334006F60030235337B017AC3790A90C32FF09F
:10334400A304F07F007E811251D190C30AE0FAA356
:10335400E0FB7C007D64FFAE0212418990C255EE11
:10336400F0A3EFF07C007D0AAF03AE021241897C2A
:10337400007D0A12418990C21FECF0A3EDF090C3C6
:103384000AE0FEA3E0FF7C007D0A12418990C27D21
:10339400ECF0A3EDF07B017AC2795590C333E4F0ED
:1033A400A304F07F007E2812588A7B017AC2791F19
:1033B40090C333E4F0A304F07F107E2812588A7B74
:1033C400017AC2797D90C333E4F0A304F07F207EB8
:1033D4002812588A7B017AC3790A90C32FE4F0A398
:1033E40004F07F027E811251D190C30AE0FAA3E077
:1033F400FB7C007D64FFAE0212418990C231EEF085
:10340400A3EFF07C007D0AAF03AE021241897C0079
:103414007D0A12418990C2A1ECF0A3EDF090C30A99
:10342400E0FEA3E0FF7C007D0A12418990C26EECAD
:10343400F0A3EDF07B017AC2793190C333E4F0A3B9
:1034440004F07F707E2812588A7B017AC279A19099
:10345400C333E4F0A304F07F807E2812588A7B01F2
:103464007AC2796E90C333E4F0A304F07F907E288F
:1034740012588A7B017AC3790A90C32FE4F0A374AB
:1034840002F07F067E811251D190C30AE0FAA3E0D4
:10349400FB7C007D3CFFAE0212418990C26CEEF0D1
:1034A400A3EFF07C007D3CAF03AE0212418990C2D1
:1034B40014ECF0A3EDF07B017AC2796C90C333E491
:1034C400F0A37402F07F507E2812588A7B017AC2DE
:1034D400791490C333E4F0A37402F07F607E281261
:1034E400588A7B017AC2793C90C32FE4F0A374021A
:1034F400F07F047E811251D17B017AC2793C90C362
:1035040033E4F0A37402F07F307E2912588AE490E9
:10351400C30AF0A3F090C1B804F0126EB890C21AB6
:10352400E0FF90C222F0127C8190C1B702373C9038
:10353400C27CE0FF90C222E0B5071290C1B57401CD
:10354400F090C22CE0FF90C222F0027C8190C27FF6
:10355400E0FF90C222E0B5070C90C1B67401F09070
:10356400C221023A2590C280E0FF90C222E06F603F
:103574000302360B90C1BFF0A304F0FB7AC3790AAF
:1035840090C32FE4F0A304F07F067E811251D19002
:10359400C30AE0FAA3E0FB7C007D3CFFAE021241CB
:1035A4008990C26CEEF0A3EFF07C007D3CAF03AEDB
:1035B4000212418990C214ECF0A3EDF07B017AC2AF
:1035C400796C90C333E4F0A304F07F507E28125842
:1035D4008A7B017AC2791490C333E4F0A304F07FA8
:1035E400607E2812588A90C222E0FF127C817F9369
:1035F4007E91127F747F037E92127F597F70127EB8
:103604006E90C297023A2590C281E0FF90C222E0F8
:103614006F704790C1BFF0A304F0FB7AC2793C906D
:10362400C32FE4F0A304F07F047E811251D17B0107
:103634007AC2793C90C333E4F0A304F07F207E295E
:1036440012588A7F137E92127F74E4FDFC7F807E81
:1036540039127E7390C278023A2590C282E0FF90BC
:10366400C222E06F600302372290C1B704F090C316
:103674000CE07004A3E06401700590C229802590D9
:10368400C30EE07004A3E06401700590C2238014AB
:1036940090C312E07004A3E06401700590C21D8021
:1036A4000390C229E0FF12815290C2A0E06003029D
:1036B4003AAD7B017AC3790A90C32FF0A37402F068
:1036C4007F067E811251D190C30AE0FAA3E0FB7C0D
:1036D400007D3CFFAE0212418990C26CEEF0A3EF74
:1036E400F07C007D3CAF03AE0212418990C214EC21
:1036F400F0A3EDF07B017AC2796C90C333E4F0A3BC
:1037040004F07F507E2812588A7B017AC279149083
:10371400C333E4F0A304F07F607E2802588A90C289
:1037240083E0FF90C222E0B5071290C235E0FF1299
:10373400815212617B90C2287401F02290C22CE065
:10374400FF90C222E06F60030237CE90C1BFF0A3A6
:1037540004F090C28BE0FFA3E090C1B9CFF0A3EFD7
:10376400F090C25CE0FFA3E090C1BBCFF0A3EFF008
:1037740090C247E0FFA3E090C1BDCFF0A3EFF07B80
:10378400017AC179B990C333E4F0A304F07F007ED9
:103794002212588A7B017AC179BB90C333E4F0A327
:1037A40004F07F107E2212588A7B017AC179BD9081
:1037B400C333E4F0A304F07F207E2212588A12441B
:1037C40089127E6C90C29C023A2590C230E0FF9030
:1037D400C222E06F600302385C90C1BFF0A304F022
:1037E40090C28BE0FFA3E090C1B9CFF0A3EFF090BB
:1037F400C25CE0FFA3E090C1BBCFF0A3EFF090C2A6
:1038040047E0FFA3E090C1BDCFF0A3EFF07B017AC6
:10381400C179B990C333E4F0A304F07F007E22128F
:10382400588A7B017AC179BB90C333E4F0A304F0D6
:103834007F107E2212588A7B017AC179BD90C333EE
:10384400E4F0A304F07F207E2212588A12448912E5
:103854007E6C90C22A023A2590C221E0FFA3E06F59
:1038640060030238E890C1BFF0A304F090C28BE07B
:10387400FFA3E090C1B9CFF0A3EFF090C25CE0FFEA
:10388400A3E090C1BBCFF0A3EFF090C247E0FFA349
:10389400E090C1BDCFF0A3EFF07B017AC179B9907C
:1038A400C333E4F0A304F07F007E2212588A7B0124
:1038B4007AC179BB90C333E4F0A304F07F107E2275
:1038C40012588A7B017AC179BD90C333E4F0A30412
:1038D400F07F207E2212588A124489127E6C90C294
:1038E40084023A2590C22BE0FF90C222E06F60036D
:1038F40002397690C1BFF0A304F090C28BE0FFA31D
:10390400E090C1B9CFF0A3EFF090C25CE0FFA3E078
:1039140090C1BBCFF0A3EFF090C247E0FFA3E090CB
:10392400C1BDCFF0A3EFF07B017AC179B990C33365
:10393400E4F0A304F07F007E2212588A7B017AC14E
:1039440079BB90C333E4F0A304F07F107E221258B5
:103954008A7B017AC179BD90C333E4F0A304F07F7C
:10396400207E2212588A124489127E6C90C29B02D5
:103974003A3690C240E0FF90C222E06F6003023A00
:103984000390C1BFF0A304F090C28BE0FFA3E090CA
:10399400C1B9CFF0A3EFF090C25CE0FFA3E090C107
:1039A400BBCFF0A3EFF090C247E0FFA3E090C1BD0E
:1039B400CFF0A3EFF07B017AC179B990C333E4F07F
:1039C400A304F07F007E2212588A7B017AC179BB5E
:1039D40090C333E4F0A304F07F107E2212588A7B54
:1039E400017AC179BD90C333E4F0A304F07F207E53
:1039F4002212588A124489127E6C90C21E8033901F
:103A0400C257E0FF90C222E0B5071890C1B5E0B4F8
:103A14000107E4F090C27C8008E490C1B6F090C243
:103A24007F800F90C229E0FF90C222E06F707A90ED
:103A3400C282E0FF02815290C228E0640170369095
:103A4400C272F090C29AF090C286F090C213F090C5
:103A5400C23AF090C273F090C253F090C279F090E1
:103A6400C254F090C27AF090C228F090C283E0FF72
:103A7400128152802F90C21AE0FF90C222E0B50753
:103A84002390C1BFE07002A3E0701990C1B7F09019
:103A9400C1BFF0A3F090C1B8F090C27BE0FF1281E7
:093AA400521275E8E490C26BF0C7
:013AAD0022F6
:104FD90041C0460041C0490042C047000047C03FA8
:074FE90018091203091E0064
:107C3F007B017AC0793F90C333E4F0A37404F07FE3
:107C4F00107E0012588A90C3B07410F0A3E4F0A312
:107C5F00F0A3F0FFFEFDFC1269F17B017AC0794AB7
:0D7C6F00E490C32FF0A3F0FF7E100251D16E
:105BB0007F007E2012000090C046EFF090C049E0C8
:105BC0006F7003025D3390C046E090C049F07003EF
:105BD000025D3390C048E004F0700690C047E004D6
:105BE000F090C047E07004A3E0641E700690C047C8
:105BF000F0A3F07B017AC379E290C32FE4F0A374A1
:105C000004F07F107E001251D190C047E0FEA3E067
:105C1000FF90C04A75F00C124406EE75F00CA425F6
:105C200083F583E4F0A3745AF090C047E0FCA3E04E
:105C3000FD90C047E0FAA3E0FB90C04C75F00CEF7C
:105C4000124406EE75F00CA42583F583ECF0A3ED69
:105C5000F090C3E2E0FF90C04E75F00CEB124406EA
:105C6000EA75F00CA42583F583EFF090C3E3E0FF21
