:0300000002666E27
:0800F800FFFF4457494E543547
:10666E00759401759502758E0075930075C87075D9
:10667E00C96075F80075F90175A80075B800759AAE
:10668E000075A90075B90053D0E7787FE4F6D8FD00
:10669E009080007F007E80E4F0A3DFFCDEFA75813F
:0466AE001B0266ED78
:1050EB0090C2F0EEF0A3EFF0A3EBF0A3EAF0A3E98C
:0150FB00F0C4
:1050FC00E490C2F7F0A3F0A3F0A3F0A3F0A3F0A305
:10510C00F0A3F090C2F5E0FAA3E0FB4A7003025260
:10511C00AA90C2F0E0FEA3E0FFC3E49FFFE49EFE72
:10512C00E4FCFD90C2FF1244E3AF03AE02E4FCFDCD
:10513C0090C2FFE0F8A3E0F9A3E0FAA3E0FBC312EE
:10514C0044AC501190C2FFA3A3E0FFA3E090C2F5C2
:10515C00CFF0A3EFF090C2F0E0FCA3E0FDECC313A2
:10516C00FFED1390C2F7CFF0A3EFF0ED5401FFA3C6
:10517C00E4F0A3EFF0C2AFE4F5F190C2F7E0FCA3CA
:10518C00E0FDECF5F28DF375F40175F8AF30FCFD34
:10519C0090C2F9E07002A3E0603DD2FE20FEFD90CB
:1051AC00C2F2E0FBA3E475F00112430EA9F0FAE59C
:1051BC00FC12425D90C2F2E0FBA3E475F0011243D5
:1051CC000EA9F0FAE5FD12425D90C2F6E024FFF064
:1051DC0090C2F5E034FFF090C2F5E0FCA3E0FDECEA
:1051EC00C313FFED1390C2FBCFF0A3EFF0ED54010E
:1051FC00FFA3E4F0A3EFF090C2FB74FFF5F01243B1
:10520C000E45F0605BD2FE20FEFD90C2F2E0FBA3E7
:10521C00E475F00112430EA9F0FAE5FA12425D9022
:10522C00C2F2E0FBA3E475F00112430EA9F0FAE51B
:10523C00FB12425D90C2F2E0FBA3E475F001124355
:10524C000EA9F0FAE5FC12425D90C2F2E0FBA3E479
:10525C0075F00112430EA9F0FAE5FD12425D80973C
:10526C0090C2FDE07002A3E0602FD2FE20FEFD9004
:10527C00C2F2E0FBA3E475F00112430EA9F0FAE5CB
:10528C00FA12425D90C2F2E0FBA3E475F001124306
:0E529C000EA9F0FAE5FB12425DE4F5F8D2AF80
:0152AA0022E1
:1057A40090C2F4EEF0A3EFF0A3EBF0A3EAF0A3E9C8
:0157B400F004
:1057B500E490C2FBF0A3F0A3F0A3F0A3F0A3F09054
:1057C500C2F9E07002A3E0700302593690C2F4E01A
:1057D500FEA3E0FFC3E49FFFE49EFED390C2FAE080
:1057E5009F90C2F9E09E4005EEF0A3EFF090C2F461
:1057F500E0FAA3E0FBEAC313FCEB13FDEB5401FF56
:1058050090C2FBE4F0A3EFF0C2AFE4F5F1ECF5F2E2
:10581500AF058FF375F40175F88330FCFD90C2FB7D
:10582500E07002A3E0603D90C2F6E0FBA3E475F0F2
:105835000112430EA9F0FA124217F5FC90C2F6E0E8
:10584500FBA3E475F00112430EA9F0FA124217F515
:10585500FDD2FE20FEFD90C2FAE024FFF090C2F9D1
:10586500E034FFF090C2F9E0FCA3E0FDECC313FFC8
:10587500ED1390C2FDCFF0A3EFF0ED5401FFA3E4CB
:10588500F0A3EFF075F88F90C2FD74FFF5F01243A9
:105895000E45F0605B90C2F6E0FBA3E475F00112E3
:1058A500430EA9F0FA124217F5FA90C2F6E0FBA3EF
:1058B500E475F00112430EA9F0FA124217F5FB90B8
:1058C500C2F6E0FBA3E475F00112430EA9F0FA124B
:1058D5004217F5FC90C2F6E0FBA3E475F001124314
:1058E5000EA9F0FA124217F5FDD2FE30FE9980FBA3
:1058F50090C2FFE07002A3E0603275F88C90C2F6AA
:10590500E0FBA3E475F00112430EA9F0FA12421769
:10591500F5FA90C2F6E0FBA3E475F00112430EA977
:10592500F0FA124217F5FBD2FE20FEFDE4F5F8D29F
:01593500AFC2
:01593600224E
:105C4E0090C406EEF0A3EFF0A3EBF0A3EAF0A3E905
:015C5E00F055
:105C5F00A3E0FEA3E0FF4E7003025DC790C406E011
:105C6F00FCA3E0FDC3E49DFDE49CFCD3EF9DEE9C03
:105C7F00400AAF0590C40BECF0A3EFF090C406E020
:105C8F00FCA3E0FDECC313FEED13FBAA06ED5401DC
:105C9F00FDC2AFE4F5F1EAF5F2AF038FF375F4014E
:105CAF0075F88330FCFDED604FC390C40CE0940297
:105CBF0090C40BE094005003025DC290C408E0FB57
:105CCF00A3E475F00112430EA9F0FA124217F5FC86
:105CDF0090C408E0FBA3E475F00112430EA9F0FA9B
:105CEF00124217F5FDD2FE20FEFD90C40CE024FEFB
:105CFF00F090C40BE034FFF090C40BE0FEA3E0780B
:105D0F0002CEC313CE13D8F9FF75F88FEF1FAC0671
:105D1F0070011E4C605B90C408E0FBA3E475F001BA
:105D2F0012430EA9F0FA124217F5FA90C408E0FBDD
:105D3F00A3E475F00112430EA9F0FA124217F5FB16
:105D4F0090C408E0FBA3E475F00112430EA9F0FA2A
:105D5F00124217F5FC90C408E0FBA3E475F00112A2
:105D6F00430EA9F0FA124217F5FDD2FE30FE9D80C8
:105D7F00FB90C40CE030E1047F0180027F00EF60F4
:105D8F003275F88C90C408E0FBA3E475F001124360
:105D9F000EA9F0FA124217F5FA90C408E0FBA3E43B
:105DAF0075F00112430EA9F0FA124217F5FBD2FE5D
:085DBF0020FEFDE4F5F8D2AF6F
:015DC70022B9
:107E7600EC90C442F0EDA3F07B017AC4794290C441
:0A7E86000BE4F0A37402F0025C4E5E
:107F3F00EF4E6010E4FD0DEDC3943240F9EF1F706A
:047F4F00EF1E80ECB5
:017F5300220B
:086E9C0090C414EEF0A3EFF026
:106EA400A3745AF0A37401F090C414E0FCA3E0FDB1
:106EB400EC90C418F0A3EDF07B017AC4791690C26B
:106EC400F9E4F0A37402F07F847E001257A47FF4E7
:106ED4007E01127F3F7B017AC4791690C2F5E4F0FB
:106EE400A37402F07F147E001250EB90C414E0FEF1
:106EF400A3E0FFA3E0B506D6A3E0B507D1E490C4B0
:106F040016F0A3F0A3F0A3F07B017AC4791690C223
:0D6F1400F9F0A37402F07F167E000257A46E
:0877880090C2D3EEF0A3EFF074
:10779000E4A3F0A3F090C2D3E0FEA3E0FFC390C245
:1077A000D6E09F90C2D5E09E5025E4FBFA7F017E93
:1077B00000127F3F0BBB00010ABA01F1BB2CEE9017
:0F77C000C2D6E004F070CE90C2D5E004F080C6CF
:0177CF002297
:1077D000EF14601814602314602E240370397401B0
:1077E000A805088002C333D8FC42B7227401A8055B
:1077F000088002C333D8FC42BC227401A80508806B
:1078000002C333D8FC42BD22AF057401A80708802B
:0878100002C333D8FC42BE2282
:1076A800EF1460191460251460312403703D7401CF
:1076B800A805088002C333D8FCF452B7227401A885
:1076C80005088002C333D8FCF452BC227401A80513
:1076D800088002C333D8FCF452BD22AF057401A858
:0C76E80007088002C333D8FCF452BE2215
:106BD100EF14602D14604A14606724036003026C93
:106BE10063EB600E7401A805088002C333D8FC4230
:106BF10080227401A805088002C333D8FCF45280B6
:106C010022EB600E7401A805088002C333D8FC4250
:106C110090227401A805088002C333D8FCF4529075
:106C210022EB600E7401A805088002C333D8FC4230
:106C3100A0227401A805088002C333D8FCF452A035
:106C410022EB600E7401A805088002C333D8FC4210
:106C5100B022AF057401A807088002C333D8FCF441
:036C610052B0220C
:1074BD00EF14601A146027146034240370427401B1
:1074CD00A805088002C333D8FC5580FE80347401B2
:1074DD00A805088002C333D8FC5590FE80247401A2
:1074ED00A805088002C333D8FC55A0FE8014AF0553
:1074FD007401A807088002C333D8FC55B0FE800282
:04750D00E4FEAF06E3
:017511002257
:107D4100758911E4F58CF58AC28CF518F51A438909
:0E7D510001758CBC758ACDD2A9D2AFD28C221E
:03000B00026F97EA
:0D6F9700C0E0C0D075D000C000C006C0072B
:106FA400C2AF758CBC758ACD0519751B0074017E42
:106FB40000A81B088005C333CE33CED8F9FFEF55A4
:106FC4001A602DE51B25E02408F808E61618700160
:106FD40016E51B25E02408F8E6FE08E64E7011AF1E
:106FE4001B04A807088002C333D8FC4218F4521AC1
:096FF400051BE51BB408B6D2AF81
:0B6FFD00D007D006D000D0D0D0E0328A
:107E9000758911E4F58DF58BC28ED2AF43891075CB
:0A7EA0008DBC758BCDD2ABD28E22C3
:03001B00027FDB86
:0D7FDB00C2AF758DBC758BCDB290D2AF32A8
:107F7E0075C8F075CD58E4F5CC75CB58F5CA43C825
:047F8E0001D2AD224D
:03002B00027FF45D
:097FF400C2AFC2C6B291D2AF3295
:107D0000C2AF7401A807088002C333D8FCFE421A30
:107D1000EF25E02408F8A60408A605EEF45218D2D0
:027D2000AF2290
:107F5400C2AF7401A807088002C333D8FCF4521AD4
:057F64005218D2AF220B
:107FA600C2AF7401A807088002C333D8FC5518FF76
:027FB600D2AF48
:017FB80022A6
:10760C00AB07AA06A905A8047F007E387D317C0053
:10761C0012441AC3E49F90C2D2F074049E90C2D15B
:10762C00F043C9407D04E4FF1277D07D05E4FF12DE
:10763C0076A843803075D88075985090C2D1E0FC04
:0D764C00A3E0FDECF5BA8DAA43A810D2AC66
:01765900220E
:10773F00AB07AA06A905A8047F007E707D627C00B6
:10774F0012441AC3E49F90C2D2F074049E90C2D127
:10775F00F043C9207D06E4FF1277D07D07E4FF12C6
:10776F0076A84380C0759B9090C2D1E0FCA3E0FD4A
:08777F00ECF5BB8D9D439A015E
:0177870022DF
:1079FC00759680759780AB07AA06A905A8047F0029
:107A0C007EC07D897C0112441AAD07AC06ECF5D919
:107A1C00AF058FE743B80CE4909812F0A3F0A3F0F5
:107A2C00A3F090981AF0909816F0A3F0A3F0A3F09E
:017A3C002227
:107CB50075A78075AB80AB07AA06A905A8047F0048
:107CC5007EC07D897C0112441AAD07AC06ECF5AE89
:077CD500AF058FAF43B8308B
:017CDC002285
:10756700EF14601B1460291460372403704490C221
:10757700CDE0FCA3E0FDA3E0FEA3E0FF02760C90C4
:10758700C2CDE0FCA3E0FDA3E0FEA3E0FF02773F4E
:1075970090C2CDE0FCA3E0FDA3E0FEA3E0FF0279EB
:1075A700FC90C2CDE0FCA3E0FDA3E0FEA3E0FF1248
:0375B7007CB5227E
:1052AB0090C2CCEFF0A3ECF0A3EDF0A3EBF0A3EAEC
:0452BB00F0A3E9F083
:1052BF00C2AFE4A3F0A3F090C2CDE0FEA3E0FFC322
:1052CF0090C2D3E09F90C2D2E09E400302538390DE
:1052DF00C2CFE0FBA3E475F00112430EA9F0FA125E
:1052EF004217FF90C2CCE0FE75F009A42400F582AE
:1052FF00E5F03488F583EE75F008A42583F583E097
:10530F00FCA3E0FD75F009EEA42400F582E5F0346E
:10531F0080F583EE75F008A42583F583E5822DF5DE
:10532F0082E5833CF583EFF075F009EEA42400F5D8
:10533F0082E5F03488F583EE75F008A42583F583B4
:10534F00E475F0011242F875F009EEA42400F5821D
:10535F00E5F03488F583EE75F008A42583F583E036
:10536F005403F090C2D3E004F0700690C2D2E00470
:10537F00F00252C690C2CCE01460421460701470F8
:10538F000302542B2403600302545B908808E060EF
:10539F000302545B04F0908802E0FEA3E02400F5C2
:1053AF008274803EF583E0F599908803E004F070F5
:1053BF0006908802E004F0908802025457909011F2
:1053CF00E0600302545B04F090900BE0FEA3E02436
:1053DF0009F58274883EF583E0F59C90900CE0040B
:1053EF00F0700690900BE004F090900B805A90981C
:1053FF001AE0705804F0909814E0FEA3E02412F520
:10540F008274903EF583E0F59E909815E004F0705D
:10541F0006909814E004F0909814802C90A023E04C
:10542F00702A04F090A01DE0FEA3E0241BF5827407
:10543F00983EF583E0F5AC90A01EE004F070069066
:0E544F00A01DE004F090A01DE05403F0D2AFC9
:01545D00222C
:03002300026D85E6
:106D8500C0E0C083C082C0D075D000C006C007C2B5
:106D9500AF30982AC298908804E0FEA3E02400F55D
:106DA5008274843EF583E599F0908805E004F070DF
:106DB50006908804E004F0908804E05403F03099CC
:106DC5003FC299908802E0FEA3E0FF908800E06E44
:106DD5007003A3E06F602474002FF58274803EF584
:106DE50083E0F599908803E004F07006908802E04E
:106DF50004F0908802E05403F08005908808E4F0E0
:0F6E0500D2AFD007D006D0D0D082D083D0E03229
:030053000272EB4B
:1072EB00C0E0C083C082C0D075D000C006C007C24A
:1072FB00AF5396FE909814E0FEA3E0FF909812E037
:10730B006E7003A3E06F602474122FF58274903EAD
:10731B00F583E0F59E909815E004F07006909814B4
:10732B00E004F0909814E05403F0800590981AE470
:10733B00F0D2AFD007D006D0D0D082D083D0E032FD
:03005B0002781810
:10781800C0E0C083C082C0D075D000C006C2AF53DC
:1078280097FE909816E0FEA3E02412F58274943E29
:10783800F583E59FF0909817E004F070069098168D
:10784800E004F0909816E05403F0D2AFD006D0D000
:07785800D082D083D0E032A2
:0300630002734BDA
:10734B00C0E0C083C082C0D075D000C006C007C2E9
:10735B00AF53A7FE90A01DE0FEA3E0FF90A01BE0A3
:10736B006E7003A3E06F6024741B2FF58274983E3C
:10737B00F583E0F5AC90A01EE004F0700690A01D24
:10738B00E004F090A01DE05403F0800590A023E4EE
:10739B00F0D2AFD007D006D0D0D082D083D0E0329D
:03006B0002785FB9
:10785F00C0E0C083C082C0D075D000C006C2AF5395
:10786F00ABFE90A01FE0FEA3E0241BF582749C3EAC
:10787F00F583E5ADF090A020E004F0700690A01F16
:10788F00E004F090A01FE05403F0D2AFD006D0D0A8
:07789F00D082D083D0E0325B
:03008300026B36D7
:106B3600C0E0C083C082C0D075D000C006C007C206
:106B4600AFE59B30E02E759B90539BFE90900DE039
:106B5600FEA3E02409F582748C3EF583E59CF09053
:106B6600900EE004F0700690900DE004F090900D09
:106B7600E05403F0E59B30E143759B90539BFD90F9
:106B8600900BE0FEA3E0FF909009E06E7003A3E097
:106B96006F602474092FF58274883EF583E0F59CB6
:106BA60090900CE004F0700690900BE004F090904A
:106BB6000BE05403F08005909011E4F0D2AFD007BB
:0B6BC600D006D0D0D082D083D0E032C7
:107F69007596807597807C00ECF5D975E7E0759E6C
:047F79000D53B8F3F9
:017F7D0022E1
:0B7CDD0090C304EBF0A3EAF0A3E9F071
:107CE80090C32F7401F0A374C3F0A37407F090C37A
:077CF8002FE4F0A3F0A3F05C
:017CFF002262
:0280030080FEFD
:055DC80042C44400008C
:1064DD0090C2C6741AF0E4A3F0A3F0A3740AF0A35B
:1064ED00740DF0A374EFF0127D41127E90124F24C3
:1064FD00E4FD7F021276A87D607CEAE4FF127D0048
:10650D007DF47C017F01127D00126F21D2AF90C20C
:10651D00C6E0FF127B371256107D887C137F071261
:10652D007D007B017AC279C890C2F9E4F0A304F032
:10653D007F007E821257A47B017AC279C890C2F97E
:10654D00E4F0A304F07F007E851257A412797790B2
:10655D00C444E07002A3E070197F07127FA6EF60BC
:10656D001190C444E4F0A304F0E490C2C6F0FF120D
:10657D007B3790C444E07002A3E060D01279BA1268
:10658D00715612593790C2C4EEF0A3EFF01201000C
:0A659D00900000E060B6E4F080B268
:105DCD0041C2630042C20C000041C2090041C2023F
:105DDD000044C24A00000000603AC1C60000000144
:105DED00000200030004000500060007000800097A
:105DFD00000A000B000C000D000E000F001000112A
:105E0D0000120013001400150016001700180019D9
:105E1D00001A001B001C42C217000041C26600425E
:105E2D00C203000042C213000050C2510000000026
:105E3D0000000000000000000000000050C2310012
:105E4D0000000000000000000000000000000050F5
:105E5D00C21F000000000000000000000000000054
:105E6D00000042C269000042C248000042C2110057
:105E7D000042C267000042C246000042C2610000FB
:105E8D0042C21D000042C244000042C20000004256
:105E9D00C219000041C2500042C26B000042C2054F
:105EAD00000042C20A000041C2430042C215000078
:105EBD0041C20E0042C241000042C21B000042C25C
:105ECD0064000042C20F000041C1B20042C1B300E4
:105EDD000042C1B5000042C1B7000041C1B9004147
:105EED00C1BA0042C1BB000041C1BD0041C1BE00ED
:0E5EFD0041C1BF0042C1C0000042C1C200004E
:0C7AF7007F0690C2D0E0FCA3E0FD7E8181
:107B030090C1C4EEF0A3EFF090C26BECF0A3EDF0E4
:107B130090C2507401F0FB7AC2796B90C2F9E4F021
:0F7B2300A304F01257A47DBC7C027F06027D00F4
:0C7FE800E490C250F090C20AF0A3F02216
:1071560090C250E060637F06127FA6EF605B90C12D
:10716600C4E0FEA3E0FF7B017AC2790590C2F5E494
:10717600F0A304F01250EB90C205E0FEA3E0FF90EE
:10718600C26BE0FCA3E0FDB50707ECB50603027F82
:10719600E8C390C20BE0940290C20AE09400501932
:1071A60090C1C4E0FEA3E0FF127B0390C20BE00493
:0A71B600F0700690C20AE004F02217
:107DD40090C44674C0F0A37464F07B017AC47946FD
:0B7DE40090C2F9E4F0A304F00257A4E1
:107DEF0090C2F27418F0A374E3F07B017AC279F2B7
:0B7DFF0090C2F9E4F0A304F00257A4C6
:047D22007F037E94C9
:107D260090C2F274FFF0A37460F07B017AC279F21C
:0B7D360090C2F9E4F0A304F00257A48F
:107E0A0090C2F27405F0A3741DF07B017AC279F274
:0B7E1A0090C2F9E4F0A304F00257A4AA
:107E250090C44874CEF0A37459F07B017AC47948A4
:0B7E350090C2F9E4F0A304F00257A48F
:047D9B007F737E92E2
:107D9F0074FF90C2F2F0A3F07B017AC279F290C225
:097DAF00F9E4F0A304F00257A46A
:067FFD00E490C202F02234
:1069F50090C382EEF0A3EFF0A3ECF0A3EDF0A3EAD1
:046A0500F0A3EBF01F
:106A0900A3E0FAA3E0FB7C007D64FFAE021242A37F
:106A1900A3EEF0A3EFF07C007D0AAF03AE021242B1
:106A2900A37C007D0A1242A3A3ECF0A3EDF090C36E
:106A390088E0FEA3E0FF7C007D0A1242A390C38E8A
:106A4900ECF0A3EDF090C382E0FEA3E0FF7B017AB6
:106A5900C3798A90C2F9E4F0A304F01257A490C351
:106A690084E0FEA3E0FF7B017AC3798C90C2F9E44C
:106A7900F0A304F01257A490C386E0FEA3E0FF7BC5
:106A8900017AC3798E90C2F9E4F0A304F00257A405
:0E72890090C3D6EEF0A3EFF0A3ECF0A3EDF06F
:107297007C007D3CAF03AE021242A3A3EEF0A3EF46
:1072A700F0AE02AF037C007D3C1242A3A3ECF0A337
:1072B700EDF090C3D6E0FEA3E0FF7B017AC379DA55
:1072C70090C2F9E4F0A304F01257A490C3D8E0FEEB
:1072D700A3E0FF7B017AC379DC90C2F9E4F0A30451
:0472E700F00257A4B6
:086A990090C41AEEF0A3EFF027
:106AA100E4A3F0A3F0A3F0A304F0FB7AC4791C9053
:106AB100C2F9E4F0A304F07F007E291257A47B0100
:106AC1007AC4791E90C2F9E4F0A304F07F007E3904
:106AD1001257A490C41AE0FEA3E0FFEE7056EF1423
:106AE100602A04704F7B017AC4791C90C2F9E4F0EA
:106AF100A304F07F007E291257A47B017AC4791E7A
:106B010090C2F9E4F0A304F07F0080237B017AC4F2
:106B1100791C90C2F9E4F0A304F0FF7E291257A476
:106B21007B017AC4791E90C2F9E4F0A304F0FF7EE0
:046B3100391257A41A
:016B3500223D
:1062090090C2F0ECF0A3EDF0EE600302631CEF2402
:10621900FE605E1460601470030262E1240360038F
:1062290002631C90C2F0E0FEA3E0FFEE7035EF14AC
:10623900601514601E2402702A127D227F137E9439
:10624900127D267F238055127D227F137E94127E34
:106259000A801A7F037E94127E0A7F137E94127D30
:1062690026800A127D227F137E94127D267F238049
:10627900637F5302630990C2F0E0FEA3E0FFEE7072
:1062890043EF14601B14602A240270387F537E94F4
:10629900127D267F637E94127D267F737E948062B1
:1062A9007F537E94127D267F637E94127E0A7F73CC
:1062B90080227F537E94127E0A7F637E94127D260C
:1062C9007F7380107F537E94127D267F637E9412A4
:1062D9007D267F737E94803890C2F0E0FEA3E0FFB4
:1062E900EE7022EF14601004701B7F837E92127E81
:1062F9000A7F937E9280197F837E92127D267F93F7
:106309007E92027E0A7F837E92127D267F937E9201
:04631900127D2622A9
:0A45C90090C209E0FF7E00E4FDFC53
:1045D30090C2F0ECF0A3EDF0EE6003024962EF2429
:1045E300F3B40B0040030249629045FA75F003A44B
:1045F300C58325F0C5837302461B0246960246F720
:104603000247720247ED02484E0248C802491802A7
:10461300496202496202493E90C2F0E07002A3E09F
:1046230070177F037E90127DEF7F137E90127DEFD4
:104633007F237E90127E0A804290C2F0E07004A332
:10464300E0640170107F037E90127DEF7F137E90F4
:10465300127E0A801F90C2F0E07004A3E064027F20
:10466300037E907005127E0A8003127DEF7F137E16
:1046730090127DEF7F237E90127DEF90C2F0E07069
:1046830004A3E0640370047D018002E4FDFC7F1059
:1046930002493990C2F0E07002A3E070107F537EAC
:1046A30090127DEF7F637E90127E0A802F90C2F07E
:1046B300E07004A3E0640170097F537E90127E0AC8
:1046C300801390C2F0E07004A3E06402700E7F5385
:1046D3007E90127DEF7F637E90127DEF90C2F0E0BB
:1046E3007004A3E0640270047D018002E4FDFC7F9A
:1046F3002002493990C2F0E07002A3E070177F7383
:104703007E90127DEF7F837E90127DEF7F937E906C
:10471300127E0A804290C2F0E07004A3E06401704C
:10472300107F737E90127DEF7F837E90127E0A80CE
:104733001F90C2F0E07004A3E064027F737E907068
:1047430005127E0A8003127DEF7F837E90127DEF38
:104753007F937E90127DEF90C2F0E07004A3E0643B
:104763000370047D018002E4FDFC7F30024939902F
:10477300C2F0E07002A3E070177F037E91127DEF19
:104783007F137E91127DEF7F237E91127E0A8042FA
:1047930090C2F0E07004A3E0640170107F037E9187
:1047A300127DEF7F137E91127E0A801F90C2F0E08C
:1047B3007004A3E064027F037E917005127E0A8079
:1047C30003127DEF7F137E91127DEF7F237E911283
:1047D3007DEF90C2F0E07004A3E0640370047D01F8
:1047E3008002E4FDFC7F4002493990C2F0E0700290
:1047F300A3E070107F437E91127DEF7F537E911271
:104803007E0A802F90C2F0E07004A3E06401700977
:104813007F437E91127E0A801390C2F0E07004A35E
:10482300E06402700E7F437E91127DEF7F537E9191
:10483300127DEF90C2F0E07004A3E0640270047D87
:10484300018002E4FDFC7F5002493990C2F0E07020
:1048530002A3E070177F637E91127DEF7F737E91D9
:10486300127DEF7F837E91127E0A804290C2F0E038
:104873007004A3E0640170107F637E91127DEF7F6B
:10488300737E91127E0A801F90C2F0E07004A3E051
:1048930064027F637E917005127E0A8003127DEFAE
:1048A3007F737E91127DEF7F837E91127DEF90C2A5
:1048B300F0E07004A3E0640370047D018002E4FD72
:1048C300FC7F60807190C2F0E07002A3E070097F0A
:1048D300937E91127E0A801F90C2F0E07004A3E0E1
:1048E30064017F937E91700C127DEF7F037E9212A1
:1048F3007E0A800A127DEF7F037E92127DEF90C2C3
:10490300F0E07004A3E0640270047D018002E4FD22
:10491300FC7F70802190C2F0E07004A3E064017F0B
:10492300137E927009127DEF7D017C008006127E5A
:104933000AE4FDFC7F807E39027EDE90C2F0E070E7
:1049430002A3E070077F337E94027E0A90C2F0E0F8
:104953007004A3E0640170077F337E94127D9F226D
:107EDE0090C2F2ECF0A3EDF07B017AC279F290C27F
:097EEE00F9E4F0A304F00257A42A
:057B320090C209F0FF04
:107B370090C24A745AF0A37401F0E4A3F0EF25E071
:107B470024C6F582E434C1F583A3E090C24DF07BEF
:107B5700017AC2794A90C2F9E4F0A37402F07F84F3
:057B67007E000257A49E
:1075BA007F037E94127D9F7F137E94127D9F7F238B
:1075CA007E94127D9F7F237E92127D9F7F537E92AF
:1075DA00127D9F7F537E94127D9F7F637E94127DDE
:1075EA009F7F737E94127D9F7F837E92127D9F7F01
:1075FA00937E92127D9F127D9BE4FDFCFF7E3002FA
:02760A007EDE22
:086E140090C1C0E0FEA3E0FF05
:106E1C0090C2F0EEF0A3EFF064014E7015127D22DB
:106E2C007F137E94127D267F237E94127D267D0116
:106E3C00803A90C2F0E07004A3E06402700B7F23F0
:106E4C007E92127D267F53804190C2F0E07004A3A5
:106E5C00E0640370207F537E94127D267F637E94C2
:106E6C00127D267F737E94127D267D027C007F002E
:106E7C007E30027EDE90C2F0E07004A3E064047009
:106E8C000E7F837E92127D267F937E92127D262228
:04765A00AB07AA06CA
:10765E007C007D3C1242A390C2CEEEF0A3EFF0AEC2
:10766E0002AF037C007D3C1242A3A3ECF0A3EDF02D
:10767E007B017AC279CE90C2F9E4F0A304F07F5078
:10768E007E281257A47B017AC279D090C2F9E4F019
:0A769E00A304F07F607E280257A4C9
:0874670090C20FE0FEA3E0FF5C
:04746F00AB07AA06B7
:107473007C007D3C1242A390C2F0EEF0A3EFF0AE8D
:1074830002AF037C007D3C1242A3A3ECF0A3EDF01A
:107493007B017AC279F090C2F9E4F0A304F07F0093
:1074A3007E311257A47B017AC279F290C2F9E4F0DB
:0A74B300A304F07F007E320257A40C
:107B6C0090C20E7401F07F737E92127D267F337E5D
:107B7C0093127D267F437E93127D267B017AC279F8
:107B8C000F90C2F5E4F0A304F07F067E811250EB57
:097B9C007DE87C037F05027D00F9
:107F2900E490C20EF0127D9B7F337E93127D9F7F7A
:067F3900437E93027D9FD0
:1079BA0090C20EE070077F737E92027D9F7F051250
:1079CA007FA6EF602C90C210E024FFF090C20FE077
:1079DA0034FFF012746AD390C210E0940090C20F80
:1079EA00E094005003027F297DE87C037F05127D25
:0279FA00002269
:10561000E490C2CCF0A3F07B017AC2791990C2F574
:10562000F0A304F07F047E811250EB7B017AC279F3
:10563000CC90C2F5E4F0A304F07F007E811250EB21
:1056400090C2CCE0FAA3E0FB7C007D64FFAE0212C6
:1056500042A390C22FEEF0A3EFF07C007D0AAF03CF
:10566000AE021242A37C007D0A1242A390C207EC54
:10567000F0A3EDF090C2CCE0FEA3E0FF7C007D0A39
:105680001242A390C24EECF0A3EDF07B017AC279F6
:10569000CC90C2F5E4F0A304F07F027E811250EBBF
:1056A00090C2CCE0FAA3E0FB7C007D64FFAE021266
:1056B00042A390C211EEF0A3EFF07C007D0AAF038D
:1056C000AE021242A37C007D0A1242A390C267EC94
:1056D000F0A3EDF090C2CCE0FEA3E0FF7C007D0AD9
:1056E0001242A390C246ECF0A3EDF07B017AC2799E
:1056F0001B90C2F5E4F0A304F07F067E811250EB0C
:1057000090C21BE0FEA3E0FF12765A7B017AC279B9
:10571000CC90C2F5E4F0A304F07F087E811250EB38
:1057200090C2CCE0FAA3E0FB7C007D0AFFAE02123F
:1057300042A37C007D0A1242A390C269ECF0A3ED63
:10574000F07C007D0AAF03AE021242A390C248EC87
:10575000F0A3EDF07B017AC279CC90C2F5E4F0A31E
:1057600004F07F0A7E811250EB90C2CCE0FAA3E0F5
:10577000FB7C007D0AFFAE021242A37C007D0A1270
:1057800042A390C261ECF0A3EDF07C007D0AAF0370
:10579000AE021242A390C21DECF0A3EDF07F737E27
:0457A00092027D9F55
:0801000090C2CCEEF0A3EFF079
:10010800E4A3F0A3F0A3F0A3F090C1B2E0600DE483
:10011800FF127FA6EF6005E490C1B2F090C2CCE078
:10012800FEA3E0FF64014E6006EF64024E70099082
:10013800C1B2E06003023BC77B017AC179C290C2B9
:10014800F5E4F0A304F07F0C7E801250EB90C1C25E
:10015800A3E0FF7C0030E0047D0180027D0090C2B6
:10016800D2ECF0A3EDF0EF7E0030E1047F018002D5
:100178007F0090C2D4EEF0A3EFF090C1C2A3E0FFDD
:100188007C0030E2047D0180027D0090C2E4ECF046
:10019800A3EDF0EF7E0030E3047F0180027F009042
:1001A800C2E6EEF0A3EFF090C1C2A3E0FF7C0030FE
:1001B800E4047D0180027D0090C2E8ECF0A3EDF03C
:1001C800EF7E0030E7047F0180027F0090C2D6EE08
:1001D800F0A3EFF090C1C2E0FEEE7C0030E4047DB5
:1001E8000180027D0090C2D8ECF0A3EDF0EE7E0015
:1001F80030E0047F0180027F0090C2DAEEF0A3EFC6
:10020800F090C1C2A3E0FF7C0030E5047D018002CC
:100218007D0090C2DCECF0A3EDF0EF7E0030E60448
:100228007F0180027F0090C2DEEEF0A3EFF090C164
:10023800C2E0FEEE7C0030E1047D0180027D00908A
:10024800C2E0ECF0A3EDF0EE7E0030E2047F018026
:10025800027F0090C2E2EEF0A3EFF090C1C2E0FE90
:10026800EE7C0030E3047D0180027D0090C2EAEC60
:10027800F0A3EDF0EE7E0030E5047F0180027F0000
:1002880090C2ECEEF0A3EFF090C2DCE07004A3E0C3
:040298006401700B82
:09029C0090C2EE74C0F0A374449A
:1002A500801D90C2E0E07004A3E0640190C2EE708E
:0102B5000840
:0602B6007405F0A3741CA6
:0202BC008006BA
:1002BE0074CEF0A37459F07B017AC279EE90C2F934
:0C02CE00E4F0A304F07F137E931257A409
:0C02DA0090C2DEE07004A3E06401700B31
:0902E60090C2EE74C0F0A3744450
:1002EF00801D90C2E2E07004A3E0640190C2EE7042
:0102FF0008F6
:060300007405F0A3741C5B
:0203060080066F
:1003080074CEF0A37459F07B017AC279EE90C2F9E9
:0C031800E4F0A304F07F237E931257A4AE
:1003240090C213E07002A3E0701990C2ECE0700474
:10033400A3E06401700D741B127B3290C213E4F0CD
:10034400A304F090C2DAE07004A3E06401700F909B
:10035400C266E07009127B6C90C2667401F090C2B0
:1003640009E0B4182990C203E07002A3E0701F7B77
:10037400017AC2790F90C2F5F0A304F07F067E8162
:100384001250EB12746790C203E4F0A304F090C21D
:10039400D2E07004A3E06401600302044C90C2172D
:1003A400E07004A3E06401600302044C7417127B40
:1003B400327B017AC279D090C2F5E4F0A304F07FD5
:1003C400067E811250EB90C2D0E0FAA3E0FB7C00E1
:1003D4007D3CFFAE021242A390C244EEF0A3EFF0C4
:1003E4007C007D3CAF03AE021242A390C200ECF04D
:1003F400A3EDF07B017AC2794490C2F9E4F0A3043E
:10040400F07F507E281257A47B017AC2790090C2F3
:10041400F9E4F0A304F07F607E281257A4E490C1AD
:10042400BFF090C1B9F0A3F0A3F0A3F090C1C0F065
:10043400A3F090C217F0A3F090C266F090C203F04C
:10044400A3F0127F2902050990C2D6E07004A3E04C
:100454006401602690C2DEE07004A3E06401601AC7
:1004640090C2DCE07004A3E064017002800C90C2CE
:10047400DAE07004A3E0640170321275BA90C21716
:10048400E4F0A304F090C2097418F0FF127B37E47F
:1004940090C1BFF090C1B9F0A3F0A3F0A3F090C154
:1004A400C0F0A3F090C213F0A3F0805990C2E2E030
:1004B4007004A3E06401600C90C2E0E07004A3E067
:1004C400640170411275BA90C2097419F0FF127B6D
:1004D40037127F2990C20FE07004A3E06401700911
:1004E40090C20FF0A3F0127467E490C1BFF090C102
:1004F400B9F0A3F0A3F0A3F090C1C0F0A3F090C2B0
:1005040017F0A304F090C2CCE0FEA3E0FFEE60037A
:10051400023BC7EF24FE70030219CD147003022EB0
:1005240095147003023B9624036003023BC790C1F9
:10053400BBE07004A3E06401600302191190C209D6
:10054400E024F3B409004003022E8690055D75F0A3
:1005540003A4C58325F0C583730205780207A002AE
:1005640008EE020B50020D8B020ED902113B02124F
:10057400960212D290C1BAE0600302062290C24EE3
:10058400E0FEA3E0FF90C2CEEEF0A3EFF04E700ABF
:1005940090C24EF0A37409F0800E90C24FE024FF85
:1005A400F090C24EE034FFF090C207E0FEA3E0FFFB
:1005B4007C007D0A124291AA06AB0790C22FE0FE8E
:1005C400A3E0FF7D64124291EF2BFFEE3AFE90C24E
:1005D4004FE02FFF90C24EE03E90C2D0F0A3EFF068
:1005E40090C2D0E0FEA3E0FFD394C8EE9400500A7A
:1005F400EF9400EE94004002800F90C2CEE0FFA37F
:10060400E090C24ECFF0A3EFF07B017AC2794E9016
:10061400C2F9E4F0A304F07420FFFE02190B90C1A8
:10062400BAE0640160030206E190C207E0FEA3E0C1
:10063400FF90C2CEEEF0A3EFF04E700A90C207F026
:10064400A37409F0800E90C208E024FFF090C20762
:10065400E034FFF090C207E0FEA3E0FF7C007D0AD7
:10066400124291AA06AB0790C22FE0FEA3E0FF7DE1
:1006740064124291EF2BFFEE3AFE90C24FE02FFF3F
:1006840090C24EE03E90C2D0F0A3EFF090C2D0E012
:10069400FEA3E0FFD394C8EE9400501DEF9400EE47
:1006A400940040157B017AC2790790C2F9E4F0A363
:1006B40004F07F107E2002190B90C2CEE0FFA3E06D
:1006C40090C207CFF0A3EFF07B017AC2790790C202
:1006D400F9E4F0A304F07F107E2002190B90C1BA54
:1006E400E064026003022E8690C22FE0FEA3E0FFC6
:1006F40090C2CEEEF0A3EFF04E700A90C22FF0A39A
:100704007402F0800E90C230E024FFF090C22FE01B
:1007140034FFF090C207E0FEA3E0FF7C007D0A12E4
:100724004291AA06AB0790C22FE0FEA3E0FF7D64CE
:10073400124291EF2BFFEE3AFE90C24FE02FFF9052
:10074400C24EE03E90C2D0F0A3EFF090C2D0E0FEE3
:10075400A3E0FFD394C8EE9400501DEF9400EE94F0
:100764000040157B017AC2792F90C2F9E4F0A3040A
:10077400F07F007E2002190B90C2CEE0FFA3E09030
:10078400C22FCFF0A3EFF07B017AC2792F90C2F988
:10079400E4F0A304F07F007E2002190B90C1BAE0BC
:1007A400600302084690C248E0FEA3E0FF90C2CE78
:1007B400EEF0A3EFF04E700A90C248F0A37409F073
:1007C400800E90C249E024FFF090C248E034FFF06C
:1007D40090C269E0FEA3E0FF7C007D0A1242919082
:1007E400C249E02FFF90C248E03E90C2D0F0A3EF90
:1007F400F090C2D0E0FEA3E0FFD39450EE940050FA
:100804001DEF9400EE940040157B017AC279489064
:10081400C2F9E4F0A304F07F207E2102190B90C2F8
:10082400CEE0FFA3E090C248CFF0A3EFF07B017AC3
:10083400C2794890C2F9E4F0A304F07F207E21023B
:10084400190B90C1BAE064016003022E8690C2695C
:10085400E0FEA3E0FF90C2CEEEF0A3EFF04E700AEC
:1008640090C269F0A37408F0800E90C26AE024FF7D
:10087400F090C269E034FFF090C269E0FEA3E0FFAB
:100884007C007D0A12429190C249E02FFF90C24839
:10089400E03E90C2D0F0A3EFF090C2D0E0FEA3E01F
:1008A400FFD39450EE9400501DEF9400EE9400405A
:1008B400157B017AC2796990C2F9E4F0A304F07F50
:1008C400107E2102190B90C2CEE0FFA3E090C26912
:1008D400CFF0A3EFF07B017AC2796990C2F9E4F01A
:1008E400A304F07F107E2102190B90C1BAE06003CB
:1008F4000209BA90C1B3E0FEA3E0FF90C2CEEEF0CD
:10090400A3EFF04E700A90C1B3F0A37402F0800E0E
:1009140090C1B4E024FFF090C1B3E034FFF090C183
:10092400B5E0FEA3E0FF7C007D0A124291AA06AB6B
:100934000790C1B3E0FEA3E0FF7D64124291EF2B68
:10094400FFEE3AFE90C1B8E02FFF90C1B7E03E90B1
:10095400C2D0F0A3EFF090C2D0E0FEA3E0FFD394A6
:1009640032EE9400502CEF9400EE9400402490C199
:10097400B3E0FFA3E090C255CFF0A3EFF07B017A80
:10098400C179B390C2F9E4F0A304F07F007E22029F
:10099400190B90C2CEE0FFA3E090C1B3CFF0A3EF58
:1009A400F07B017AC179B390C2F9E4F0A304F07F3B
:1009B400007E2202190B90C1BAE064016003020AAE
:1009C4008890C1B5E0FEA3E0FF90C2CEEEF0A3EFA5
:1009D400F04E700A90C1B5F0A37405F0800E90C17A
:1009E400B6E024FFF090C1B5E034FFF090C1B5E06B
:1009F400FEA3E0FF7C007D0A124291AA06AB079099
:100A0400C1B3E0FEA3E0FF7D64124291EF2BFFEE41
:100A14003AFE90C1B8E02FFF90C1B7E03E90C2D03B
:100A2400F0A3EFF090C2D0E0FEA3E0FFD39432EE47
:100A34009400502CEF9400EE9400402490C1B5E053
:100A4400FFA3E090C235CFF0A3EFF07B017AC17928
:100A5400B590C2F9E4F0A304F07F107E2202190BD2
:100A640090C2CEE0FFA3E090C1B5CFF0A3EFF07B3E
:100A7400017AC179B590C2F9E4F0A304F07F107E45
:100A84002202190B90C1BAE064026003022E869020
:100A9400C1B7E0FEA3E0FF90C2CEEEF0A3EFF04EAC
:100AA400700A90C1B7F0A37409F0800E90C1B8E049
:100AB40024FFF090C1B7E034FFF090C1B5E0FEA38D
:100AC400E0FF7C007D0A124291AA06AB0790C1B3F5
:100AD400E0FEA3E0FF7D64124291EF2BFFEE3AFEAD
:100AE40090C1B7E0FCA3E0FD2FFFEC3E90C2D0F034
:100AF400A3EFF090C2D0E0FEA3E0FFD39432EE94D3
:100B0400005025EF9400EE9400401D90C223ECF0B9
:100B1400A3EDF07B017AC179B790C2F9E4F0A304A4
:100B2400F07F207E2202190B90C2CEE0FFA3E0905A
:100B3400C1B7CFF0A3EFF07B017AC179B790C2F9C6
:100B4400E4F0A304F07F207E2202190B90C1BAE0E6
:100B54006003020C0D90C246E0FEA3E0FF90C2CEFB
:100B6400EEF0A3EFF04E700A90C246F0A37409F0C1
:100B7400800E90C247E024FFF090C246E034FFF0BC
:100B840090C267E0FEA3E0FF7C007D0A124291AAB6
:100B940006AB0790C211E0FEA3E0FF7D6412429110
:100BA400EF2BFFEE3AFE90C247E02FFF90C246E0E3
:100BB4003E90C2D0F0A3EFF090C2D0E0FEA3E0FFDD
:100BC400D394C8EE9400501DEF9400EE94004015A9
:100BD4007B017AC2794690C2F9E4F0A304F07F2045
:100BE4007E2302190B90C2CEE0FFA3E090C246CF51
:100BF400F0A3EFF07B017AC2794690C2F9E4F0A346
:100C040004F07F207E2302190B90C1BAE0640160D6
:100C140003020CCC90C267E0FEA3E0FF90C2CEEECC
:100C2400F0A3EFF04E700A90C267F0A37409F0804D
:100C34000E90C268E024FFF090C267E034FFF090A9
:100C4400C267E0FEA3E0FF7C007D0A124291AA067F
:100C5400AB0790C211E0FEA3E0FF7D64124291EF66
:100C64002BFFEE3AFE90C247E02FFF90C246E03ED3
:100C740090C2D0F0A3EFF090C2D0E0FEA3E0FFD387
:100C840094C8EE9400501DEF9400EE940040157B40
:100C9400017AC2796790C2F9E4F0A304F07F107E70
:100CA4002302190B90C2CEE0FFA3E090C267CFF0FD
:100CB400A3EFF07B017AC2796790C2F9E4F0A30450
:100CC400F07F107E2302190B90C1BAE06402600326
:100CD400022E8690C211E0FEA3E0FF90C2CEEEF099
:100CE400A3EFF04E700A90C211F0A37402F0800ECC
:100CF40090C212E024FFF090C211E034FFF090C2E1
:100D040067E0FEA3E0FF7C007D0A124291AA06ABD5
:100D14000790C211E0FEA3E0FF7D64124291EF2B25
:100D2400FFEE3AFE90C247E02FFF90C246E03E90AD
:100D3400C2D0F0A3EFF090C2D0E0FEA3E0FFD394C2
:100D4400C8EE9400501DEF9400EE940040157B0112
:100D54007AC2791190C2F9E4F0A304F07F007E23F3
:100D640002190B90C2CEE0FFA3E090C211CFF0A312
:100D7400EFF07B017AC2791190C2F9E4F0A304F098
:100D84007F007E2302190B90C1BAE06003020E318A
:100D940090C21DE0FEA3E0FF90C2CEEEF0A3EFF000
:100DA4004E700A90C21DF0A37409F0800E90C21E0A
:100DB400E024FFF090C21DE034FFF090C261E0FE39
:100DC400A3E0FF7C007D0A12429190C21EE02FFF37
:100DD40090C21DE03E90C2D0F0A3EFF090C2D0E0EC
:100DE400FEA3E0FFD39450EE9400501DEF9400EE68
:100DF400940040157B017AC2791D90C2F9E4F0A3F6
:100E040004F07F207E2402190B90C2CEE0FFA3E001
:100E140090C21DCFF0A3EFF07B017AC2791D90C27E
:100E2400F9E4F0A304F07F207E2402190B90C1BAE8
:100E3400E064016003022E8690C261E0FEA3E0FF3D
:100E440090C2CEEEF0A3EFF04E700A90C261F0A310
:100E54007408F0800E90C262E024FFF090C261E05A
:100E640034FFF090C261E0FEA3E0FF7C007D0A1233
:100E7400429190C21EE02FFF90C21DE03E90C2D06E
:100E8400F0A3EFF090C2D0E0FEA3E0FFD39450EEC5
:100E94009400501DEF9400EE940040157B017AC23B
:100EA400796190C2F9E4F0A304F07F107E24021962
:100EB4000B90C2CEE0FFA3E090C261CFF0A3EFF0AD
:100EC4007B017AC2796190C2F9E4F0A304F07F1047
:100ED4007E2402190B90C1BAE06003020FA590C1F1
:100EE400B3E0FEA3E0FF90C2CEEEF0A3EFF0640205
:100EF4004E700890C1B3F0A3F0800E90C1B4E0240A
:100F0400FFF090C1B3E034FFF090C1B5E0FEA3E080
:100F1400FF7C007D0A124291AA06AB0790C1B3E0A0
:100F2400FEA3E0FF7D64124291EF2BFFEE3AFE90A8
:100F3400C1B8E02FFF90C1B7E03E90C2D0F0A3EF5C
:100F4400F090C2D0E0FEA3E0FFD39432EE940050C0
:100F54002CEF9400EE9400402490C1B3E0FFA3E092
:100F640090C25BCFF0A3EFF07B017AC179B390C25A
:100F7400F9E4F0A304F07F007E2502190B90C2CEA1
:100F8400E0FFA3E090C1B3CFF0A3EFF07B017AC1FF
:100F940079B390C2F9E4F0A304F07F007E2502192E
:100FA4000B90C1BAE06401600302107390C1B5E014
:100FB400FEA3E0FF90C2CEEEF0A3EFF04E700A90D5
:100FC400C1B5F0A37405F0800E90C1B6E024FFF023
:100FD40090C1B5E034FFF090C1B5E0FEA3E0FF7C22
:100FE400007D0A124291AA06AB0790C1B3E0FEA3AA
:100FF400E0FF7D64124291EF2BFFEE3AFE90C1B800
:10100400E02FFF90C1B7E03E90C2D0F0A3EFF09084
:10101400C2D0E0FEA3E0FFD39432EE9400502CEF54
:101024009400EE9400402490C1B5E0FFA3E090C288
:101034003BCFF0A3EFF07B017AC179B590C2F9E41C
:10104400F0A304F07F107E2502190B90C2CEE0FFBE
:10105400A3E090C1B5CFF0A3EFF07B017AC179B5DD
:1010640090C2F9E4F0A304F07F107E2502190B90DE
:10107400C1BAE064026003022E8690C1B7E0FEA309
:10108400E0FF90C2CEEEF0A3EFF04E700A90C1B72D
:10109400F0A37409F0800E90C1B8E024FFF090C171
:1010A400B7E034FFF090C1B5E0FEA3E0FF7C007D23
:1010B4000A124291AA06AB0790C1B3E0FEA3E0FF77
:1010C4007D64124291EF2BFFEE3AFE90C1B7E0FC33
:1010D400A3E0FD2FFFEC3E90C2D0F0A3EFF090C24E
:1010E400D0E0FEA3E0FFD39432EE94005025EF94B9
:1010F40000EE9400401D90C229ECF0A3EDF07B01BA
:101104007AC179B790C2F9E4F0A304F07F207E2578
:1011140002190B90C2CEE0FFA3E090C1B7CFF0A3B9
:10112400EFF07B017AC179B790C2F9E4F0A304F03F
:101134007F207E2502190B90C1BAE060030211F1F1
:1011440090C244E0FEA3E0FF90C2CEEEF0A3EFF025
:101154004E701D90C200E07002A3E090C24460088B
:10116400E4F0A3743BF08016E4F0A3743CF0800E2A
:1011740090C245E024FFF090C244E034FFF090C2F6
:1011840044E0FEA3E0FF7C007D3C12429190C2014A
:10119400E02FFF90C200E03E90C2D0F0A3EFF090A9
:1011A400C2D0E0FEA3E0D39410EE940E501BC3EE25
:1011B400940040157B017AC2794490C2F9E4F0A30B
:1011C40004F07F507E2802190B90C2CEE0FFA3E00A
:1011D40090C244CFF0A3EFF07B017AC2794490C26D
:1011E400F9E4F0A304F07F507E2802190B90C1BAF1
:1011F400E064016003022E8690C200E0FEA3E0FFDB
:1012040090C2CEEEF0A3EFF04E700A90C200F0A3AD
:10121400743BF0800E90C201E024FFF090C200E025
:1012240034FFF090C244E0FEA3E0FF7C007D3C125A
:10123400429190C201E02FFF90C200E03E90C2D0E4
:10124400F0A3EFF090C2D0E0FEA3E0D39410EE94AC
:101254000E501BC3EE940040157B017AC2790090B6
:10126400C2F9E4F0A304F07F607E2802190B90C257
:10127400CEE0FFA3E090C200CFF0A3EFF07B017AB1
:10128400C2790090C2F9E4F0A304F07F607E2802E2
:10129400190B90C1BAE06003022E86D390C21AE003
:1012A400940090C219E094005003022E86A3E02417
:1012B400FFF090C219E034FFF07B017AC2791990F3
:1012C400C2F9E4F0A304F07F207E2902190B90C137
:1012D400C0E07004A3E06401600302151C90C1BA6D
:1012E400E0600302139E90C24EE0FEA3E0FF90C2B2
:1012F400CEEEF0A3EFF04E700A90C24EF0A3740944
:10130400F0800E90C24FE024FFF090C24EE034FF14
:10131400F090C207E0FEA3E0FF7C007D0A12429138
:10132400AA06AB0790C22FE0FEA3E0FF7D64124241
:1013340091EF2BFFEE3AFE90C24FE02FFF90C24E8A
:10134400E03E90C2D0F0A3EFF090C2D0E0FEA3E064
:10135400FFD394C8EE9400501DEF9400EE94004027
:10136400157B017AC2794E90C2F9E4F0A304F07FB0
:10137400207E2802190B90C2CEE0FFA3E090C24E5B
:10138400CFF0A3EFF07B017AC2794E90C2F9E4F07A
:10139400A304F07F207E2802190B90C1BAE06401F7
:1013A400600302145D90C207E0FEA3E0FF90C2CE8A
:1013B400EEF0A3EFF04E700A90C207F0A37409F0A8
:1013C400800E90C208E024FFF090C207E034FFF0E2
:1013D40090C207E0FEA3E0FF7C007D0A124291AABE
:1013E40006AB0790C22FE0FEA3E0FF7D641242919A
:1013F400EF2BFFEE3AFE90C24FE02FFF90C24EE07B
:101404003E90C2D0F0A3EFF090C2D0E0FEA3E0FF84
:10141400D394C8EE9400501DEF9400EE9400401550
:101424007B017AC2790790C2F9E4F0A304F07F103B
:101434007E2802190B90C2CEE0FFA3E090C207CF32
:10144400F0A3EFF07B017AC2790790C2F9E4F0A32C
:1014540004F07F107E2802190B90C1BAE064026088
:1014640003022E8690C22FE0FEA3E0FF90C2CEEED0
:10147400F0A3EFF04E700A90C22FF0A37402F08034
:101484000E90C230E024FFF090C22FE034FFF090C1
:10149400C207E0FEA3E0FF7C007D0A124291AA0687
:1014A400AB0790C22FE0FEA3E0FF7D64124291EFF0
:1014B4002BFFEE3AFE90C24FE02FFF90C24EE03E6B
:1014C40090C2D0F0A3EFF090C2D0E0FEA3E0FFD32F
:1014D40094C8EE9400501DEF9400EE940040157BE8
:1014E400017AC2792F90C2F9E4F0A304F07F007E60
:1014F4002802190B90C2CEE0FFA3E090C22FCFF0D8
:10150400A3EFF07B017AC2792F90C2F9E4F0A3042F
:10151400F07F007E2802190B90C1C0E07004A3E0A4
:1015240064027033D390C21AE0940090C219E0941C
:10153400005003022E86A3E024FFF090C219E03489
:10154400FFF07B017AC2791990C2F9E4F0A304F0A8
:101554007F307E2902190B90C1C0E07004A3E064BF
:101564000360030217A590C1BAE060030216279036
:10157400C246E0FEA3E0FF90C2CEEEF0A3EFF04E31
:10158400700A90C246F0A37409F0800E90C247E03E
:1015940024FFF090C246E034FFF090C267E0FEA35F
:1015A400E0FF7C007D0A124291AA06AB0790C211AB
:1015B400E0FEA3E0FF7D64124291EF2BFFEE3AFEC2
:1015C40090C247E02FFF90C246E03E90C2D0F0A305
:1015D400EFF090C2D0E0FEA3E0FFD394C8EE9400F5
:1015E400501DEF9400EE940040157B017AC27946B9
:1015F40090C2F9E4F0A304F07F907E2802190B90C6
:10160400C2CEE0FFA3E090C246CFF0A3EFF07B018F
:101614007AC2794690C2F9E4F0A304F07F907E2860
:1016240002190B90C1BAE0640160030216E690C28D
:1016340067E0FEA3E0FF90C2CEEEF0A3EFF04E70A1
:101644000A90C267F0A37409F0800E90C268E02487
:10165400FFF090C267E034FFF090C267E0FEA3E0C1
:10166400FF7C007D0A124291AA06AB0790C211E0EA
:10167400FEA3E0FF7D64124291EF2BFFEE3AFE9051
:10168400C247E02FFF90C246E03E90C2D0F0A3EFE5
:10169400F090C2D0E0FEA3E0FFD394C8EE940050D3
:1016A4001DEF9400EE940040157B017AC279679097
:1016B400C2F9E4F0A304F07F807E2802190B90C2E3
:1016C400CEE0FFA3E090C267CFF0A3EFF07B017AF6
:1016D400C2796790C2F9E4F0A304F07F807E280207
:1016E400190B90C1BAE064026003022E8690C21105
:1016F400E0FEA3E0FF90C2CEEEF0A3EFF04E700A3E
:1017040090C211F0A37402F0800E90C212E024FF84
:10171400F090C211E034FFF090C267E0FEA3E0FF56
:101724007C007D0A124291AA06AB0790C211E0FE2A
:10173400A3E0FF7D64124291EF2BFFEE3AFE90C2CC
:1017440047E02FFF90C246E03E90C2D0F0A3EFF0F6
:1017540090C2D0E0FEA3E0FFD394C8EE9400501DE5
:10176400EF9400EE940040157B017AC2791190C287
:10177400F9E4F0A304F07F707E2802190B90C2CE26
:10178400E0FFA3E090C211CFF0A3EFF07B017AC297
:10179400791190C2F9E4F0A304F07F707E28021955
:1017A4000B90C1C0E07004A3E064046003022E86C1
:1017B40090C1BAE0600302186A90C244E0FEA3E05C
:1017C400FF90C2CEEEF0A3EFF04E701D90C200E089
:1017D4007002A3E090C2446008E4F0A3743BF0807C
:1017E40016E4F0A3743CF0800E90C245E024FFF0B0
:1017F40090C244E034FFF090C244E0FEA3E0FF7CDA
:10180400007D3C12429190C201E02FFF90C200E0A3
:101814003E90C2D0F0A3EFF090C2D0E0FEA3E0D39C
:101824009410EE940E501BC3EE940040157B017A85
:10183400C2794490C2F9E4F0A304F07F507E2802F8
:10184400190B90C2CEE0FFA3E090C244CFF0A3EF07
:10185400F07B017AC2794490C2F9E4F0A304F07FEA
:10186400507E2802190B90C1BAE064016003022E75
:101874008690C200E0FEA3E0FF90C2CEEEF0A3EF9C
:10188400F04E700A90C200F0A3743BF0800E90C238
:1018940001E024FFF090C200E034FFF090C244E085
:1018A400FEA3E0FF7C007D3C12429190C201E02F38
:1018B400FF90C200E03E90C2D0F0A3EFF090C2D0FF
:1018C400E0FEA3E0D39410EE940E501AC3EE9400FD
:1018D40040147B017AC2790090C2F9E4F0A304F0C9
:1018E4007F607E28802190C2CEE0FFA3E090C200FA
:1018F400CFF0A3EFF07B017AC2790090C2F9E4F053
:10190400A304F07F607E281257A4022E8690C1BFE4
:10191400E06401703A90C1BBE07002A3E06003028E
:101924002E861275BA90C1C0E07004A3E064017001
:101934000A90C1C0F0A37404F0800E90C1C1E024E9
:10194400FFF090C1C0E034FFF0126E14022E8690B6
:10195400C209E0FFD39400400CEFD394055006E095
:1019640014F0E0805D90C209E070057405F08052C7
:1019740090C1BDE06401702090C209E0B406047413
:1019840009802990C209E0B409057407F080079022
:10199400C209E014F0E0802A90C1BEE06401600353
:1019A400022E8690C209E0B40905740BF0801390EE
:1019B400C209E0B40A057409F0800790C209E01472
:1019C400F0E0FF127B37022E8690C1BBE07004A3C7
:1019D400E064016003022DDB90C209E024F3B40942
:1019E400004003022E869019F875F003A4C58325E0
:1019F400F0C58373021A13021C3E021D8D021FEFF1
:101A040002222D02237B0225DD02274E022781902C
:101A1400C1BAE06003021ABE90C24EE0FEA3E0FF2A
:101A240090C2CEEEF0A3EFF064094E601090C24F66
:101A3400E004F0700F90C24EE004F08007E490C21E
:101A44004EF0A3F090C207E0FEA3E0FF7C007D0A05
:101A5400124291AA06AB0790C22FE0FEA3E0FF7DDD
:101A640064124291EF2BFFEE3AFE90C24FE02FFF3B
:101A740090C24EE03E90C2D0F0A3EFF090C2D0E00E
:101A8400FEA3E0FFD394C8EE9400500AEF9400EE56
:101A940094004002800F90C2CEE0FFA3E090C24EBB
:101AA400CFF0A3EFF07B017AC2794E90C2F9E4F053
:101AB400A304F07420FFFE022DD590C1BAE06401A6
:101AC4006003021B7E90C207E0FEA3E0FF90C2CE3B
:101AD400EEF0A3EFF064094E601090C208E004F049
:101AE400700F90C207E004F08007E490C207F0A3EF
:101AF400F090C207E0FEA3E0FF7C007D0A12429151
:101B0400AA06AB0790C22FE0FEA3E0FF7D64124259
:101B140091EF2BFFEE3AFE90C24FE02FFF90C24EA2
:101B2400E03E90C2D0F0A3EFF090C2D0E0FEA3E07C
:101B3400FFD394C8EE9400501DEF9400EE9400403F
:101B4400157B017AC2790790C2F9E4F0A304F07F0F
:101B5400107E20022DD590C2CEE0FFA3E090C207F4
:101B6400CFF0A3EFF07B017AC2790790C2F9E4F0D9
:101B7400A304F07F107E20022DD590C1BAE0640248
:101B84006003022E8690C22FE0FEA3E0FF90C2CE37
:101B9400EEF0A3EFF064024E601090C230E004F067
:101BA400700F90C22FE004F08007E490C22FF0A3DE
:101BB400F090C207E0FEA3E0FF7C007D0A12429190
:101BC400AA06AB0790C22FE0FEA3E0FF7D64124299
:101BD40091EF2BFFEE3AFE90C24FE02FFF90C24EE2
:101BE400E03E90C2D0F0A3EFF090C2D0E0FEA3E0BC
:101BF400FFD394C8EE9400501DEF9400EE9400407F
:101C0400157B017AC2792F90C2F9E4F0A304F07F26
:101C1400007E20022DD590C2CEE0FFA3E090C22F1B
:101C2400CFF0A3EFF07B017AC2792F90C2F9E4F0F0
:101C3400A304F07F007E20022DD590C1BAE060039A
:101C4400021CE590C248E0FEA3E0FF90C2CEEEF095
:101C5400A3EFF064094E601090C249E004F0700FE5
:101C640090C248E004F08007E490C248F0A3F090EA
:101C7400C269E0FEA3E0FF7C007D0A12429190C29B
:101C840049E02FFF90C248E03E90C2D0F0A3EFF0AD
:101C940090C2D0E0FEA3E0FFD39450EE9400501D18
:101CA400EF9400EE940040157B017AC2794890C20B
:101CB400F9E4F0A304F07F207E21022DD590C2CE5A
:101CC400E0FFA3E090C248CFF0A3EFF07B017AC21B
:101CD400794890C2F9E4F0A304F07F207E21022D1C
:101CE400D590C1BAE064016003022E8690C269E017
:101CF400FEA3E0FF90C2CEEEF0A3EFF064084E70B6
:101D04000890C269F0A3F0800E90C26AE004F070FB
:101D14000690C269E004F090C269E0FEA3E0FF7C93
:101D2400007D0A12429190C249E02FFF90C248E020
:101D34003E90C2D0F0A3EFF090C2D0E0FEA3E0FF4B
:101D4400D39450EE9400501DEF9400EE940040158F
:101D54007B017AC2796990C2F9E4F0A304F07F10A0
:101D64007E21022DD590C2CEE0FFA3E090C269CFC0
:101D7400F0A3EFF07B017AC2796990C2F9E4F0A391
:101D840004F07F107E21022DD590C1BAE0600302D9
:101D94001E5990C1B3E0FEA3E0FF90C2CEEEF0A3C3
:101DA400EFF064094E700890C1B3F0A3F0800E9078
:101DB400C1B4E004F0700690C1B3E004F090C1B582
:101DC400E0FEA3E0FF7C007D0A124291AA06AB0765
:101DD40090C1B3E0FEA3E0FF7D64124291EF2BFFBC
:101DE400EE3AFE90C1B8E02FFF90C1B7E03E90C23A
:101DF400D0F0A3EFF090C2D0E0FEA3E0FFD3943282
:101E0400EE9400502CEF9400EE9400402490C1B363
:101E1400E0FFA3E090C255CFF0A3EFF07B017AC1BD
:101E240079B390C2F9E4F0A304F07F007E22022D7E
:101E3400D590C2CEE0FFA3E090C1B3CFF0A3EFF002
:101E44007B017AC179B390C2F9E4F0A304F07F0076
:101E54007E22022DD590C1BAE064016003021F27DF
:101E640090C1B5E0FEA3E0FF90C2CEEEF0A3EFF088
:101E740064054E700890C1B5F0A3F0800E90C1B611
:101E8400E004F0700690C1B5E004F090C1B5E0FE46
:101E9400A3E0FF7C007D0A124291AA06AB0790C121
:101EA400B3E0FEA3E0FF7D64124291EF2BFFEE3A14
:101EB400FE90C1B8E02FFF90C1B7E03E90C2D0F0D1
:101EC400A3EFF090C2D0E0FEA3E0FFD39432EE94EF
:101ED40000502CEF9400EE9400402490C1B5E0FF34
:101EE400A3E090C235CFF0A3EFF07B017AC179B5BE
:101EF40090C2F9E4F0A304F07F107E22022DD59065
:101F0400C2CEE0FFA3E090C1B5CFF0A3EFF07B0118
:101F14007AC179B590C2F9E4F0A304F07F107E226F
:101F2400022DD590C1BAE064026003022E8690C1EE
:101F3400B7E0FEA3E0FF90C2CEEEF0A3EFF0640999
:101F44004E700890C1B7F0A3F0800E90C1B8E004C1
:101F5400F0700690C1B7E004F090C1B5E0FEA3E0D4
:101F6400FF7C007D0A124291AA06AB0790C1B3E040
:101F7400FEA3E0FF7D64124291EF2BFFEE3AFE9048
:101F8400C1B7E0FCA3E0FD2FFFEC3E90C2D0F0A36C
:101F9400EFF090C2D0E0FEA3E0FFD39432EE9400C1
:101FA4005025EF9400EE9400401D90C223ECF0A362
:101FB400EDF07B017AC179B790C2F9E4F0A304F0A3
:101FC4007F207E22022DD590C2CEE0FFA3E090C1F7
:101FD400B7CFF0A3EFF07B017AC179B790C2F9E4EF
:101FE400F0A304F07F207E22022DD590C1BAE060D8
:101FF400030220AD90C246E0FEA3E0FF90C2CEEE05
:10200400F0A3EFF064094E601090C247E004F07052
:102014000F90C246E004F08007E490C246F0A3F0BB
:1020240090C267E0FEA3E0FF7C007D0A124291AA01
:1020340006AB0790C211E0FEA3E0FF7D641242915B
:10204400EF2BFFEE3AFE90C247E02FFF90C246E02E
:102054003E90C2D0F0A3EFF090C2D0E0FEA3E0FF28
:10206400D394C8EE9400501DEF9400EE94004015F4
:102074007B017AC2794690C2F9E4F0A304F07F2090
:102084007E23022DD590C2CEE0FFA3E090C246CFBE
:10209400F0A3EFF07B017AC2794690C2F9E4F0A391
:1020A40004F07F207E23022DD590C1BAE064016044
:1020B4000302216D90C267E0FEA3E0FF90C2CEEE62
:1020C400F0A3EFF064094E601090C268E004F07071
:1020D4000F90C267E004F08007E490C267F0A3F0B9
:1020E40090C267E0FEA3E0FF7C007D0A124291AA41
:1020F40006AB0790C211E0FEA3E0FF7D641242919B
:10210400EF2BFFEE3AFE90C247E02FFF90C246E06D
:102114003E90C2D0F0A3EFF090C2D0E0FEA3E0FF67
:10212400D394C8EE9400501DEF9400EE9400401533
:102134007B017AC2796790C2F9E4F0A304F07F10BE
:102144007E23022DD590C2CEE0FFA3E090C267CFDC
:10215400F0A3EFF07B017AC2796790C2F9E4F0A3AF
:1021640004F07F107E23022DD590C1BAE064026092
:1021740003022E8690C211E0FEA3E0FF90C2CEEED1
:10218400F0A3EFF064024E601090C212E004F0700D
:102194000F90C211E004F08007E490C211F0A3F0A4
:1021A40090C267E0FEA3E0FF7C007D0A124291AA80
:1021B40006AB0790C211E0FEA3E0FF7D64124291DA
:1021C400EF2BFFEE3AFE90C247E02FFF90C246E0AD
:1021D4003E90C2D0F0A3EFF090C2D0E0FEA3E0FFA7
:1021E400D394C8EE9400501DEF9400EE9400401573
:1021F4007B017AC2791190C2F9E4F0A304F07F0064
:102204007E23022DD590C2CEE0FFA3E090C211CF71
:10221400F0A3EFF07B017AC2791190C2F9E4F0A344
:1022240004F07F007E23022DD590C1BAE060030242
:1022340022D390C21DE0FEA3E0FF90C2CEEEF0A335
:10224400EFF064094E700890C21DF0A3F0800E9068
:10225400C21EE004F0700690C21DE004F090C2615A
:10226400E0FEA3E0FF7C007D0A12429190C21EE0D2
:102274002FFF90C21DE03E90C2D0F0A3EFF090C2B9
:10228400D0E0FEA3E0FFD39450EE9400501DEF94F1
:1022940000EE940040157B017AC2791D90C2F9E4E6
:1022A400F0A304F07F207E24022DD590C2CEE0FF5F
:1022B400A3E090C21DCFF0A3EFF07B017AC2791D99
:1022C40090C2F9E4F0A304F07F207E24022DD5907F
:1022D400C1BAE064016003022E8690C261E0FEA3ED
:1022E400E0FF90C2CEEEF0A3EFF064084E700890C9
:1022F400C261F0A3F0800E90C262E004F070069018
:10230400C261E004F090C261E0FEA3E0FF7C007DC6
:102314000A12429190C21EE02FFF90C21DE03E902F
:10232400C2D0F0A3EFF090C2D0E0FEA3E0FFD394BC
:1023340050EE9400501DEF9400EE940040157B0184
:102344007AC2796190C2F9E4F0A304F07F107E248C
:10235400022DD590C2CEE0FFA3E090C261CFF0A3DE
:10236400EFF07B017AC2796190C2F9E4F0A304F042
:102374007F107E24022DD590C1BAE0600302244769
:1023840090C1B3E0FEA3E0FF90C2CEEEF0A3EFF065
:1023940064094E700890C1B3F0A3F0800E90C1B4EC
:1023A400E004F0700690C1B3E004F090C1B5E0FE23
:1023B400A3E0FF7C007D0A124291AA06AB0790C1FC
:1023C400B3E0FEA3E0FF7D64124291EF2BFFEE3AEF
:1023D400FE90C1B8E02FFF90C1B7E03E90C2D0F0AC
:1023E400A3EFF090C2D0E0FEA3E0FFD39432EE94CA
:1023F40000502CEF9400EE9400402490C1B3E0FF11
:10240400A3E090C25BCFF0A3EFF07B017AC179B374
:1024140090C2F9E4F0A304F07F007E25022DD5904C
:10242400C2CEE0FFA3E090C1B3CFF0A3EFF07B01F5
:102434007AC179B390C2F9E4F0A304F07F007E2559
:10244400022DD590C1BAE06401600302251590C144
:10245400B5E0FEA3E0FF90C2CEEEF0A3EFF064057A
:102464004E700890C1B5F0A3F0800E90C1B6E004A0
:10247400F0700690C1B5E004F090C1B5E0FEA3E0B1
:10248400FF7C007D0A124291AA06AB0790C1B3E01B
:10249400FEA3E0FF7D64124291EF2BFFEE3AFE9023
:1024A400C1B8E02FFF90C1B7E03E90C2D0F0A3EFD7
:1024B400F090C2D0E0FEA3E0FFD39432EE9400503B
:1024C4002CEF9400EE9400402490C1B5E0FFA3E00B
:1024D40090C23BCFF0A3EFF07B017AC179B590C2F3
:1024E400F9E4F0A304F07F107E25022DD590C2CE2E
:1024F400E0FFA3E090C1B5CFF0A3EFF07B017AC178
:1025040079B590C2F9E4F0A304F07F107E25022D82
:10251400D590C1BAE064026003022E8690C1B7E090
:10252400FEA3E0FF90C2CEEEF0A3EFF064094E707C
:102534000890C1B7F0A3F0800E90C1B8E004F07029
:102544000690C1B7E004F090C1B5E0FEA3E0FF7CC3
:10255400007D0A124291AA06AB0790C1B3E0FEA324
:10256400E0FF7D64124291EF2BFFEE3AFE90C1B77B
:10257400E0FCA3E0FD2FFFEC3E90C2D0F0A3EFF00F
:1025840090C2D0E0FEA3E0FFD39432EE9400502535
:10259400EF9400EE9400401D90C229ECF0A3EDF0FE
:1025A4007B017AC179B790C2F9E4F0A304F07F20EB
:1025B4007E25022DD590C2CEE0FFA3E090C1B7CF17
:1025C400F0A3EFF07B017AC179B790C2F9E4F0A3EC
:1025D40004F07F207E25022DD590C1BAE06003026D
:1025E40026A990C244E0FEA3E0FF90C2CEEEF0A381
:1025F400EFF0643B4E701D90C200E07002A3E060F7
:1026040003E4801C90C245E004F0702A90C244E0C8
:1026140004F0802290C244E07004A3E0643C70089B
:1026240090C244F0A3F0800E90C245E004F070061E
:1026340090C244E004F090C244E0FEA3E0FF7C00BA
:102644007D3C12429190C201E02FFF90C200E03E17
:1026540090C2D0F0A3EFF090C2D0E0FEA3E0D394F8
:1026640010EE940E501BC3EE940040157B017AC209
:10267400794490C2F9E4F0A304F07F507E28022D3F
:10268400D590C2CEE0FFA3E090C244CFF0A3EFF018
:102694007B017AC2794490C2F9E4F0A304F07F503C
:1026A4007E28022DD590C1BAE064016003022E8613
:1026B40090C200E0FEA3E0FF90C2CEEEF0A3EFF0E4
:1026C400643B4E700890C200F0A3F0800E90C201EB
:1026D400E004F0700690C200E004F090C244E0FE12
:1026E400A3E0FF7C007D3C12429190C201E02FFFE9
:1026F40090C200E03E90C2D0F0A3EFF090C2D0E0D0
:10270400FEA3E0D39410EE940E501BC3EE9400404D
:10271400157B017AC2790090C2F9E4F0A304F07F3A
:10272400607E28022DD590C2CEE0FFA3E090C200C7
:10273400CFF0A3EFF07B017AC2790090C2F9E4F004
:10274400A304F07F607E28022DD5C390C21AE094C2
:102754001490C219E094004003022E86A3E004F012
:10276400700690C219E004F07B017AC2791990C214
:10277400F9E4F0A304F07F207E29022DD590C1C096
:10278400E07004A3E0640160030229CE90C1BAE0C2
:10279400600302284E90C24EE0FEA3E0FF90C2CE3A
:1027A400EEF0A3EFF064094E601090C24FE004F025
:1027B400700F90C24EE004F08007E490C24EF0A384
:1027C400F090C207E0FEA3E0FF7C007D0A12429174
:1027D400AA06AB0790C22FE0FEA3E0FF7D6412427D
:1027E40091EF2BFFEE3AFE90C24FE02FFF90C24EC6
:1027F400E03E90C2D0F0A3EFF090C2D0E0FEA3E0A0
:10280400FFD394C8EE9400501DEF9400EE94004062
:10281400157B017AC2794E90C2F9E4F0A304F07FEB
:10282400207E28022DD590C2CEE0FFA3E090C24EB8
:10283400CFF0A3EFF07B017AC2794E90C2F9E4F0B5
:10284400A304F07F207E28022DD590C1BAE0640154
:10285400600302290E90C207E0FEA3E0FF90C2CEFF
:10286400EEF0A3EFF064094E601090C208E004F0AB
:10287400700F90C207E004F08007E490C207F0A351
:10288400F090C207E0FEA3E0FF7C007D0A124291B3
:10289400AA06AB0790C22FE0FEA3E0FF7D641242BC
:1028A40091EF2BFFEE3AFE90C24FE02FFF90C24E05
:1028B400E03E90C2D0F0A3EFF090C2D0E0FEA3E0DF
:1028C400FFD394C8EE9400501DEF9400EE940040A2
:1028D400157B017AC2790790C2F9E4F0A304F07F72
:1028E400107E28022DD590C2CEE0FFA3E090C2074F
:1028F400CFF0A3EFF07B017AC2790790C2F9E4F03C
:10290400A304F07F107E28022DD590C1BAE06402A2
:102914006003022E8690C22FE0FEA3E0FF90C2CE99
:10292400EEF0A3EFF064024E601090C230E004F0C9
:10293400700F90C22FE004F08007E490C22FF0A340
:10294400F090C207E0FEA3E0FF7C007D0A124291F2
:10295400AA06AB0790C22FE0FEA3E0FF7D641242FB
:1029640091EF2BFFEE3AFE90C24FE02FFF90C24E44
:10297400E03E90C2D0F0A3EFF090C2D0E0FEA3E01E
:10298400FFD394C8EE9400501DEF9400EE940040E1
:10299400157B017AC2792F90C2F9E4F0A304F07F89
:1029A400007E28022DD590C2CEE0FFA3E090C22F76
:1029B400CFF0A3EFF07B017AC2792F90C2F9E4F053
:1029C400A304F07F007E28022DD590C1C0E07004DE
:1029D400A3E06402703290C219E07004A3E06414AE
:1029E4007003022E8690C21AE004F0700690C21999
:1029F400E004F07B017AC2791990C2F9E4F0A304EF
:102A0400F07F307E29022DD590C1C0E07004A3E090
:102A140064036003022C5990C1BAE06003022AD90E
:102A240090C246E0FEA3E0FF90C2CEEEF0A3EFF02A
:102A340064094E601090C247E004F0700F90C246E3
:102A4400E004F08007E490C246F0A3F090C267E08F
:102A5400FEA3E0FF7C007D0A124291AA06AB079018
:102A6400C211E0FEA3E0FF7D64124291EF2BFFEE62
:102A74003AFE90C247E02FFF90C246E03E90C2D09B
:102A8400F0A3EFF090C2D0E0FEA3E0FFD394C8EE31
:102A94009400501DEF9400EE940040157B017AC21F
:102AA400794690C2F9E4F0A304F07F907E28022DC9
:102AB400D590C2CEE0FFA3E090C246CFF0A3EFF0E2
:102AC4007B017AC2794690C2F9E4F0A304F07F90C6
:102AD4007E28022DD590C1BAE064016003022B99CF
:102AE40090C267E0FEA3E0FF90C2CEEEF0A3EFF049
:102AF40064094E601090C268E004F0700F90C267E1
:102B0400E004F08007E490C267F0A3F090C267E0AD
:102B1400FEA3E0FF7C007D0A124291AA06AB079057
:102B2400C211E0FEA3E0FF7D64124291EF2BFFEEA1
:102B34003AFE90C247E02FFF90C246E03E90C2D0DA
:102B4400F0A3EFF090C2D0E0FEA3E0FFD394C8EE70
:102B54009400501DEF9400EE940040157B017AC25E
:102B6400796790C2F9E4F0A304F07F807E28022DF7
:102B7400D590C2CEE0FFA3E090C267CFF0A3EFF000
:102B84007B017AC2796790C2F9E4F0A304F07F80F4
:102B94007E28022DD590C1BAE064026003022E861D
:102BA40090C211E0FEA3E0FF90C2CEEEF0A3EFF0DE
:102BB40064024E601090C212E004F0700F90C211D3
:102BC400E004F08007E490C211F0A3F090C267E043
:102BD400FEA3E0FF7C007D0A124291AA06AB079097
:102BE400C211E0FEA3E0FF7D64124291EF2BFFEEE1
:102BF4003AFE90C247E02FFF90C246E03E90C2D01A
:102C0400F0A3EFF090C2D0E0FEA3E0FFD394C8EEAF
:102C14009400501DEF9400EE940040157B017AC29D
:102C2400791190C2F9E4F0A304F07F707E28022D9C
:102C3400D590C2CEE0FFA3E090C211CFF0A3EFF095
:102C44007B017AC2791190C2F9E4F0A304F07F7099
:102C54007E28022DD590C1C0E07004A3E064046016
:102C640003022E8690C1BAE06003022D3490C24460
:102C7400E0FEA3E0FF90C2CEEEF0A3EFF0643B4E83
:102C8400701D90C200E07002A3E06003E4801C9019
:102C9400C245E004F0702A90C244E004F08022901F
:102CA400C244E07004A3E0643C700890C244F0A302
:102CB400F0800E90C245E004F0700690C244E00437
:102CC400F090C244E0FEA3E0FF7C007D3C12429100
:102CD40090C201E02FFF90C200E03E90C2D0F0A36A
:102CE400EFF090C2D0E0FEA3E0D39410EE940E5027
:102CF4001BC3EE940040157B017AC2794490C2F95B
:102D0400E4F0A304F07F507E28022DD590C2CEE0DB
:102D1400FFA3E090C244CFF0A3EFF07B017AC27925
:102D24004490C2F9E4F0A304F07F507E28022DD52C
:102D340090C1BAE064016003022E8690C200E0FEF6
:102D4400A3E0FF90C2CEEEF0A3EFF0643B4E700818
:102D540090C200F0A3F0800E90C201E004F070066F
:102D640090C200E004F090C244E0FEA3E0FF7C00C7
:102D74007D3C12429190C201E02FFF90C200E03EE0
:102D840090C2D0F0A3EFF090C2D0E0FEA3E0D394C1
:102D940010EE940E501AC3EE940040147B017AC2D4
:102DA400790090C2F9E4F0A304F07F607E288021CA
:102DB40090C2CEE0FFA3E090C200CFF0A3EFF07B7F
:102DC400017AC2790090C2F9E4F0A304F07F607E36
:102DD400281257A4022E8690C1BFE0640170369079
:102DE400C209E064156003022E861275BA90C1C050
:102DF400E07004A3E06404700990C1C0F0A304F07F
:102E0400800E90C1C1E004F0700690C1C0E004F0EF
:102E1400126E14806D90C209E0C394055006E0045C
:102E2400F0E0805A90C209E0B40504E4F0804F90C9
:102E3400C1BDE06401702090C209E0B409047406C5
:102E4400802690C209E0B407057409F0800790C297
:102E540009E004F0E0802790C1BEE0640170239093
:102E6400C209E0B40905740AF0801390C209E0B401
:102E74000B057409F0800790C209E004F0E0FF122A
:102E84007B3790C1B27401F07D1E7C00E4FF027DAB
:102E94000090C1BBE07004A3E0640160030232C58A
:102EA40090C209E0641560030230A590C1C0E070CF
:102EB40004A3E06401706D90C1BAE004F0E064031F
:102EC4007052A3F0A3F090C1BAF090C207E0FEA341
:102ED400E0FF7C007D0A124291AA06AB0790C22F44
:102EE400E0FEA3E0FF7D64124291EF2BFFEE3AFE79
:102EF40090C24FE02FFF90C24EE03E90C2D0F0A3AC
:102F0400EFF07F00127AF990C1C0E0FEA3E0FF7DEC
:102F1400640230A090C1C0E0FEA3E0FF90C1BAE01B
:102F2400FD0230A090C1C0E07004A3E064027020F0
:102F340090C1BBF0A3F090C1BAF090C219E0FCA319
:102F4400E0FD7F047E81127B037F537E92027D2607
:102F540090C1C0E07004A3E06403707690C1BAE04D
:102F640004F0E06403705BA3F0A3F090C1BAF090A6
:102F7400C267E0FEA3E0FF7C007D0A124291AA062C
:102F8400AB0790C211E0FEA3E0FF7D64124291EF13
:102F94002BFFEE3AFE90C247E02FFF90C246E03E80
:102FA40090C2D0F0A3EFF090C2D0E0FCA3E0FD7F8C
:102FB400027E81127B0390C1C0E0FEA3E0FF7D642A
:102FC400800D90C1C0E0FEA3E0FF90C1BAE0FD0215
:102FD40030A090C1C0E07004A3E064046003023B2D
:102FE400C790C1BAE004F0E064026003023093A326
:102FF400F0A3F090C1BAF07B017AC2794490C2F593
:10300400F0A304F07F507E281250EB7B017AC27942
:103014000090C2F5E4F0A304F07F607E281250EB28
:1030240090C244E0FEA3E0FF7C007D3C12429190FC
:10303400C201E02FFF90C200E03E90C2D0F0A3EFA7
:10304400F07B017AC2790090C2F9E4F0A304F07F26
:10305400607E281257A4127AF77B017AC279D09045
:10306400C2F9E4F0A304F07F007E821257A47B012E
:103074007AC279D090C2F9E4F0A304F07F027E8290
:103084001257A490C1C0E0FEA3E0FF7D64800D90C0
:10309400C1C0E0FEA3E0FF90C1BAE0FD7C00026283
:1030A4000990C1BAE004F090C209E0FF7E0090C12B
:1030B400BAE0FD7C001245D390C209E0640D705B58
:1030C40090C1BAE064047053A3F0A3F090C1BAF0C5
:1030D40090C2097406F090C207E0FEA3E0FF7C00F2
:1030E4007D0A124291AA06AB0790C22FE0FEA3E02C
:1030F400FF7D64124291EF2BFFEE3AFE90C24FE047
:103104002FFF90C24EE03E90C2D0F0A3EFF090C2E9
:10311400D0E0FCA3E0FD7F0002321690C209E06417
:103124000E704490C1BAE06403703CA3F0A3F09025
:10313400C1BAF090C2097407F090C269E0FEA3E03E
:10314400FF7C007D0A12429190C249E02FFF90C299
:1031540048E03E90C2D0F0A3EFF090C2D0E0FCA3D0
:10316400E0FD7F0802321690C209E06410705A90A4
:10317400C1BAE064047052A3F0A3F090C1BAF09015
:10318400C209740AF090C267E0FEA3E0FF7C007DF0
:103194000A124291AA06AB0790C211E0FEA3E0FF17
:1031A4007D64124291EF2BFFEE3AFE90C247E02F6E
:1031B400FF90C246E03E90C2D0F0A3EFF090C2D0A0
:1031C400E0FCA3E0FD7F02804990C209E064117035
:1031D4004990C1BAE064037041A3F0A3F090C1BA6E
:1031E400F090C209740BF090C261E0FEA3E0FF7C92
:1031F400007D0A12429190C21EE02FFF90C21DE092
:103204003E90C2D0F0A3EFF090C2D0E0FCA3E0FD6A
:103214007F0A7E81127B030239F790C209E06413AE
:10322400706890C1BAE064037060A3F0A3F090C129
:10323400BAF090C2097403F0FF127B3790C244E0E5
:10324400FEA3E0FF7C007D3C12429190C201E02F7E
:10325400FF90C200E03E90C2D0F0A3EFF0127AF7E4
:103264007B017AC279D090C2F9E4F0A304F07F0024
:103274007E821257A47B017AC279D090C2F9E4F01D
:10328400A304F07F027E820236B990C209E064147E
:103294006003023BC790C1BAE064026003023BC70B
:1032A400A3F0A3F090C1BAF090C2097404F0FF1225
:1032B4007B3790C219E0FCA3E0FD7F047E81027B92
:1032C4000390C209E012457C330300350101350F38
:1032D40002351D0335B50435FF0536BC06377907BD
:1032E400380C0838960938B20A39710B39FE0C3A91
:1032F4008A153B7D163B85173B8D1B00003BC77B26
:10330400017AC279D090C2F5E4F0A304F07F007E84
:10331400811250EB90C2D0E0FAA3E0FB7C007D6404
:10332400FFAE021242A390C22FEEF0A3EFF07C0096
:103334007D0AAF03AE021242A37C007D0A1242A3AF
:1033440090C207ECF0A3EDF090C2D0E0FEA3E0FF42
:103354007C007D0A1242A390C24EECF0A3EDF07BF8
:10336400017AC2792F90C2F9E4F0A304F07F007EC1
:10337400281257A47B017AC2790790C2F9E4F0A31A
:1033840004F07F107E281257A47B017AC2794E90F4
:10339400C2F9E4F0A304F07F207E281257A47B0135
:1033A4007AC279D090C2F5E4F0A304F07F027E8162
:1033B4001250EB90C2D0E0FAA3E0FB7C007D64FFE6
:1033C400AE021242A390C211EEF0A3EFF07C007D96
:1033D4000AAF03AE021242A37C007D0A1242A390FC
:1033E400C267ECF0A3EDF090C2D0E0FEA3E0FF7C56
:1033F400007D0A1242A390C246ECF0A3EDF07B01DB
:103404007AC2791190C2F9E4F0A304F07F707E28A7
:103414001257A47B017AC2796790C2F9E4F0A3043D
:10342400F07F807E281257A47B017AC2794690C22D
:10343400F9E4F0A304F07F907E281257A47B017A6C
:10344400C279D090C2F5E4F0A37402F07F067E81C5
:103454001250EB90C2D0E0FAA3E0FB7C007D3CFF6D
:10346400AE021242A390C244EEF0A3EFF07C007DC2
:103474003CAF03AE021242A390C200ECF0A3EDF005
:103484007B017AC2794490C2F9E4F0A37402F07F1C
:10349400507E281257A47B017AC2790090C2F9E4C5
:1034A400F0A37402F07F607E281257A47B017AC2D5
:1034B400791990C2F5E4F0A37402F07F047E8112BE
:1034C40050EB7B017AC2791990C2F9E4F0A374023B
:1034D400F07F307E291257A4E490C2D0F0A3F0907C
:1034E400C1C0F0A304F0FF7E00126E1C90C20974E8
:1034F40015F0FF127B3790C1BF7401F02290C1BD5B
:103504007401F090C2097406023B8290C1BE74013A
:10351400F090C209740A023B8290C1BBE4F0A30498
:10352400F090C2097413F07B017AC279D090C2F58D
:10353400E4F0A304F07F067E811250EB90C2D0E049
:10354400FAA3E0FB7C007D3CFFAE021242A390C2D2
:1035540044EEF0A3EFF07C007D3CAF03AE021242D8
:10356400A390C200ECF0A3EDF07B017AC279449001
:10357400C2F9E4F0A304F07F507E281257A47B0123
:103584007AC2790090C2F9E4F0A304F07F607E2847
:103594001257A490C209E0FF127B377F937E9112E9
:1035A4007E0A7F037E92127DEFE4FDFC7F70023A77
:1035B4008590C1BBE4F0A304F0FB7AC2791990C2F0
:1035C400F5E4F0A304F07F047E811250EB7B017AD2
:1035D400C2791990C2F9E4F0A304F07F207E291285
:1035E40057A490C2097414F0FF127B377F137E92A4
:1035F400127E0AE4FDFC7F80023A8590C2D2E0701C
:1036040004A3E06401700790C2097417802490C277
:10361400D4E07004A3E06401700790C209741880B8
:103624001190C2D8E07004A3E0640190C20970094B
:103634007419F0FF127B37800A7417F0FF127B377E
:10364400127D9B90C266E06003023BC77B017AC295
:1036540079D090C2F5F0A37402F07F067E811250F7
:10366400EB90C2D0E0FAA3E0FB7C007D3CFFAE020D
:103674001242A390C244EEF0A3EFF07C007D3CAF75
:1036840003AE021242A390C200ECF0A3EDF07B0162
:103694007AC2794490C2F9E4F0A304F07F507E2802
:1036A4001257A47B017AC2790090C2F9E4F0A30412
:1036B400F07F607E280257A490C209740DF090C177
:1036C400BBE4F0A304F07F0D127B377B017AC2794F
:1036D400D090C2F5E4F0A304F07F007E811250EB99
:1036E40090C2D0E0FAA3E0FB7C007D64FFAE02123E
:1036F40042A390C22FEEF0A3EFF07C007D0AAF034B
:10370400AE021242A37C007D0A1242A390C207ECCF
:10371400F0A3EDF090C2D0E0FEA3E0FF7C007D0AB0
:103724001242A390C24EECF0A3EDF07B017AC27971
:103734002F90C2F9E4F0A304F07F007E201257A476
:103744007B017AC2790790C2F9E4F0A304F07F10F8
:103754007E201257A47B017AC2794E90C2F9E4F01C
:10376400A304F07420FFFE1257A41245C9E4FDFC23
:103774007F10023A8590C209740EF090C1BBE4F048
:10378400A304F0FB7AC279D090C2F5E4F0A304F06C
:103794007F087E811250EB90C2D0E0FAA3E0FB7C5C
:1037A400007D0AFFAE021242A37C007D0A1242A3EE
:1037B40090C269ECF0A3EDF07C007D0AAF03AE0289
:1037C4001242A390C248ECF0A3EDF07B017AC279D7
:1037D4006990C2F9E4F0A304F07F107E211257A48B
:1037E4007B017AC2794890C2F9E4F0A304F07F2007
:1037F4007E211257A41245C990C209E0FF127B37FB
:10380400E4FDFC7F20023A8590C209740FF090C158
:10381400BBE4F0A304F07F0F127B3790C255E0FFA6
:10382400A3E090C1B3CFF0A3EFF090C235E0FFA3C3
:10383400E090C1B5CFF0A3EFF090C223E0FFA3E086
:1038440090C1B7CFF0A3EFF07B017AC179B390C2F6
:10385400F9E4F0A304F07F007E221257A47B017ADE
:10386400C179B590C2F9E4F0A304F07F107E22126E
:1038740057A47B017AC179B790C2F9E4F0A304F0AC
:103884007F207E221257A41245C9E4FDFC7F30023A
:103894003A8590C1BDE0B40108E4F090C209048007
:1038A4000AE490C1BEF090C2097402023B8290C245
:1038B400097410F090C1BBE4F0A304F07F10127BF4
:1038C400377B017AC279D090C2F5E4F0A304F07F8B
:1038D400027E811250EB90C2D0E0FAA3E0FB7C00A0
:1038E4007D64FFAE021242A390C211EEF0A3EFF08A
:1038F4007C007D0AAF03AE021242A37C007D0A1253
:1039040042A390C267ECF0A3EDF090C2D0E0FEA316
:10391400E0FF7C007D0A1242A390C246ECF0A3EDC6
:10392400F07B017AC2791190C2F9E4F0A304F07F2C
:10393400007E231257A47B017AC2796790C2F9E40E
:10394400F0A304F07F107E231257A47B017AC2797E
:103954004690C2F9E4F0A304F07F207E231257A41A
:103964001245C9E4FDFC7F407E29023A8790C209D2
:103974007411F090C1BBE4F0A304F0FB7AC279D0D7
:1039840090C2F5E4F0A304F07F0A7E811250EB901C
:10399400C2D0E0FAA3E0FB7C007D0AFFAE02124233
:1039A400A390C261EEF0A3EFF07C007D0AAF03AEFA
:1039B400021242A390C21DECF0A3EDF07B017AC287
:1039C400796190C2F9E4F0A304F07F107E241257C9
:1039D400A47B017AC2791D90C2F9E4F0A304F07FBC
:1039E400207E241257A41245C9E4FDFC7F507E3981
:1039F400127EDE90C209E0023B9290C2097412F07A
:103A040090C1BBE4F0A304F07F12127B3790C25B39
:103A1400E0FFA3E090C1B3CFF0A3EFF090C23BE08E
:103A2400FFA3E090C1B5CFF0A3EFF090C229E0FF6F
:103A3400A3E090C1B7CFF0A3EFF07B017AC179B3D3
:103A440090C2F9E4F0A304F07F007E251257A47B12
:103A5400017AC179B590C2F9E4F0A304F07F107E35
:103A6400251257A47B017AC179B790C2F9E4F0A377
:103A740004F07F207E251257A41245C9E4FDFC7F83
:103A8400607E39027EDE90C1C0E0FEA3E0FF4E708E
:103A940003023BC790C1BBE4F0A304F0E4FDFC12B5
:103AA400620990C1C0E07004A3E06401705C7B0112
:103AB4007AC279D090C2F5F0A304F07F007E81121F
:103AC40050EB90C2D0E0FAA3E0FB7C007D64FFAE33
:103AD400021242A390C22FEEF0A3EFF07C007D0A05
:103AE400AF03AE021242A37C007D0A1242A390C22D
:103AF40007ECF0A3EDF090C2D0E0FEA3E0FF7C0061
:103B04007D0A1242A390C24E806990C1C0E0700445
:103B1400A3E064036003023BC77B017AC279D090BF
:103B2400C2F5F0A304F07F027E811250EB90C2D064
:103B3400E0FAA3E0FB7C007D64FFAE021242A39096
:103B4400C211EEF0A3EFF07C007D0AAF03AE0212C7
:103B540042A37C007D0A1242A390C267ECF0A3ED5D
:103B6400F090C2D0E0FEA3E0FF7C007D0A1242A3E5
:103B740090C246ECF0A3EDF02290C2097405F080E7
:103B84000D90C2097405F08005E490C209F0FF02AB
:103B94007B3790C209E0B4152590C1BBE07002A345
:103BA400E0701B90C1BFF090C1BBF0A3F090C209BC
:103BB400F090C1C0F0A3F0FF127B371275BAE49005
:033BC400C243F009
:013BC70022DB
:105F0B0041C0460041C0490042C047000047C03F66
:075F1B0018091203091E0022
:107ABA007B017AC0793F90C2F9E4F0A37404F07FA5
:107ACA00107E001257A490C3767410F0A3E4F0A3BA
:107ADA00F0A3F0FFFEFDFC1269507B017AC0794ADF
:0D7AEA00E490C2F5F0A3F0FF7E100250EB17
:105ACA007F007E2012000090C046EFF090C049E0AF
:105ADA006F7003025C4D90C046E090C049F07003BD
:105AEA00025C4D90C048E004F0700690C047E004A4
:105AFA00F090C047E07004A3E0641E700690C047AF
:105B0A00F0A3F07B017AC379A890C2F5E4F0A374FC
:105B1A0004F07F107E001250EB90C047E0FEA3E035
:105B2A00FF90C04A75F00C124520EE75F00CA425C2
:105B3A0083F583E4F0A3745AF090C047E0FCA3E035
:105B4A00FD90C047E0FAA3E0FB90C04C75F00CEF63
:105B5A00124520EE75F00CA42583F583ECF0A3ED35
:105B6A00F090C3A8E0FF90C04E75F00CEB124520F0
:105B7A00EA75F00CA42583F583EFF090C3A9E0FF42
:105B8A0090C04F75F00CEB124520EA75F00CA42575
:105B9A0083F583EFF090C3AAE0FF90C05075F00C34
:105BAA00EB124520EA75F00CA42583F583EFF090FB
:105BBA00C3ACE0FF90C05175F00CEB124520EA75BA
:105BCA00F00CA42583F583EFF090C3ADE0FF90C0FD
:105BDA005275F00CEB124520EA75F00CA42583F5FA
:105BEA0083EFF090C3AEE0FF90C05375F00CEB1258
:105BFA004520EA75F00CA42583F583EFF090C046A2
:105C0A00E0FF90C05475F00CEB124520EA75F00CD9
:105C1A00A42583F583E4F0A3EFF07B017AC0794AE7
:105C2A0090C3B97408F0A3E4F0FFFEFDFC1278ED0E
:105C3A007B017AC0794AE490C2F9F0A3F0FF7E10A2
:035C4A001257A44A
:015C4D002234
:106F210090C2CD1244EF00009600E4FF1275679005
:106F3100C2CD1244EF000096007F0212756790BE29
:106F4100297401F0A37484F0A37400F0A37401F018
:106F5100A37488F0A37404F0A37401F0A37488F0FF
:106F6100A37406F0A37404F0A3E4F07B01A304F07E
:106F7100A37494F0A37412F0A3EBF0A37498F0A39C
:106F81007416F0A3EBF0A37498F0A37418F0A37433
:066F910004F0A3E4F0226D
:0B3BC80090C2CCEBF0A3EAF0A3E9F000
:103BD300C2AF90000312454C124324FFAEF090C2D3
:103BE300D7EEF0A3EFF0D2AF90C2CCE0FBA3E0FAA4
:103BF300A3E0F990000612454C124324FDACF06F8C
:103C03007002EC6E700302411EC390C2D8E09D9017
