:03000000027CF58A
:0800F800FFFF4457494E543547
:107CF500759401759502758E0075930075C870753C
:107D0500C96075F80075F90175A80075B800759A10
:107D15000075A90075B90053D0E7787FE4F6D8FD62
:107D25009080007F007E80E4F0A3DFFCDEFA7581A1
:047D35001B027D743C
:1067250090C7FFEEF0A3EFF0A3EBF0A3EAF0A3E927
:01673500F073
:10673600E490C806F0A3F0A3F0A3F0A3F0A3F0A39F
:10674600F0A3F090C804E0FAA3E0FB4A70030268E5
:10675600E490C7FFE0FEA3E0FFC3E49FFFE49EFED4
:10676600E4FCFD90C80E125B43AF03AE02E4FCFDF1
:1067760090C80EE0F8A3E0F9A3E0FAA3E0FBC31289
:106786005B0C501190C80EA3A3E0FFA3E090C804D1
:10679600CFF0A3EFF090C7FFE0FCA3E0FDECC3133E
:1067A600FFED1390C806CFF0A3EFF0ED5401FFA361
:1067B600E4F0A3EFF0C2AFE4F5F190C806E0FCA365
:1067C600E0FDECF5F28DF375F40175F8AF30FCFDE4
:1067D60090C808E07002A3E0603DD2FE20FEFD9066
:1067E600C801E0FBA3E475F00112596EA9F0FAE5C1
:1067F600FC1258BD90C801E0FBA3E475F0011259E4
:106806006EA9F0FAE5FD1258BD90C805E024FFF028
:1068160090C804E034FFF090C804E0FCA3E0FDEC6F
:10682600C313FFED1390C80ACFF0A3EFF0ED5401A8
:10683600FFA3E4F0A3EFF090C80A74FFF5F0125935
:106846006E45F0605BD2FE20FEFD90C801E0FBA322
:10685600E475F00112596EA9F0FAE5FA1258BD90E6
:10686600C801E0FBA3E475F00112596EA9F0FAE540
:10687600FB1258BD90C801E0FBA3E475F001125964
:106886006EA9F0FAE5FC1258BD90C801E0FBA3E43E
:1068960075F00112596EA9F0FAE5FD1258BD809700
:1068A60090C80CE07002A3E0602FD2FE20FEFD909F
:1068B600C801E0FBA3E475F00112596EA9F0FAE5F0
:1068C600FA1258BD90C801E0FBA3E475F001125915
:0E68D6006EA9F0FAE5FB1258BDE4F5F8D2AF5A
:0168E4002291
:106DDE0090C803EEF0A3EFF0A3EBF0A3EAF0A3E963
:016DEE00F0B4
:106DEF00E490C80AF0A3F0A3F0A3F0A3F0A3F090EF
:106DFF00C808E07002A3E07003026F7090C803E050
:106E0F00FEA3E0FFC3E49FFFE49EFED390C809E01A
:106E1F009F90C808E09E4005EEF0A3EFF090C803E6
:106E2F00E0FAA3E0FBEAC313FCEB13FDEB5401FF05
:106E3F0090C80AE4F0A3EFF0C2AFE4F5F1ECF5F27D
:106E4F00AF058FF375F40175F88330FCFD90C80A18
:106E5F00E07002A3E0603D90C805E0FBA3E475F08D
:106E6F000112596EA9F0FA125877F5FC90C805E097
:106E7F00FBA3E475F00112596EA9F0FA125877F5D9
:106E8F00FDD2FE20FEFD90C809E024FFF090C80857
:106E9F00E034FFF090C808E0FCA3E0FDECC313FF63
:106EAF00ED1390C80CCFF0A3EFF0ED5401FFA3E466
:106EBF00F0A3EFF075F88F90C80C74FFF5F012592E
:106ECF006E45F0605B90C805E0FBA3E475F001121E
:106EDF00596EA9F0FA125877F5FA90C805E0FBA39E
:106EEF00E475F00112596EA9F0FA125877F5FB907C
:106EFF00C805E0FBA3E475F00112596EA9F0FA1270
:106F0F005877F5FC90C805E0FBA3E475F001125922
:106F1F006EA9F0FA125877F5FDD2FE30FE9980FB7C
:106F2F0090C80EE07002A3E0603275F88C90C8052F
:106F3F00E0FBA3E475F00112596EA9F0FA1258772D
:106F4F00F5FA90C805E0FBA3E475F00112596EA99C
:106F5F00F0FA125877F5FBD2FE20FEFDE4F5F8D2D9
:016F6F00AF72
:016F700022FE
:1074140090C915EEF0A3EFF0A3EBF0A3EAF0A3E913
:01742400F077
:10742500A3E0FEA3E0FF4E700302758D90C915E041
:10743500FCA3E0FDC3E49DFDE49CFCD3EF9DEE9C25
:10744500400AAF0590C91AECF0A3EFF090C915E01A
:10745500FCA3E0FDECC313FEED13FBAA06ED5401FE
:10746500FDC2AFE4F5F1EAF5F2AF038FF375F40170
:1074750075F88330FCFDED604FC390C91BE09402A5
:1074850090C91AE09400500302758890C917E0FB73
:10749500A3E475F00112596EA9F0FA125877F5FCBC
:1074A50090C917E0FBA3E475F00112596EA9F0FA33
:1074B500125877F5FDD2FE20FEFD90C91BE024FE93
:1074C500F090C91AE034FFF090C91AE0FEA3E07805
:1074D50002CEC313CE13D8F9FF75F88FEF1FAC0694
:1074E50070011E4C605B90C917E0FBA3E475F001C9
:1074F50012596EA9F0FA125877F5FA90C917E0FB00
:10750500A3E475F00112596EA9F0FA125877F5FB4C
:1075150090C917E0FBA3E475F00112596EA9F0FAC2
:10752500125877F5FC90C917E0FBA3E475F001123A
:10753500596EA9F0FA125877F5FDD2FE30FE9D80FE
:10754500FB90C91BE030E1047F0180027F00EF6002
:107555003275F88C90C917E0FBA3E475F001125958
:107565006EA9F0FA125877F5FA90C917E0FBA3E473
:1075750075F00112596EA9F0FA125877F5FBD2FE93
:0875850020FEFDE4F5F8D2AF91
:01758D0022DB
:10978800EC90C951F0EDA3F07B017AC9795190C9E9
:0A9798001AE4F0A37402F002741446
:10983C00EF4E6010E4FD0DEDC3943240F9EF1F7054
:04984C00EF1E80EC9F
:0198500022F5
:08866A0090C923EEF0A3EFF02C
:10867200A3745AF0A37401F090C923E0FCA3E0FDB7
:10868200EC90C927F0A3EDF07B017AC9792590C857
:1086920008E4F0A37402F07F847E00126DDE7FF4A2
:1086A2007E0112983C7B017AC9792590C804E4F0D6
:1086B200A37402F07F147E0012672590C923E0FEA6
:1086C200A3E0FFA3E0B506D6A3E0B507D1E490C9C5
:1086D20025F0A3F0A3F0A3F07B017AC9792590C815
:0D86E20008F0A37402F07F167E00026DDE2A
:0890810090C7E2EEF0A3EFF04E
:10908900E4A3F0A3F090C7E2E0FEA3E0FFC390C71A
:10909900E5E09F90C7E4E09E5025E4FBFA7F017E5E
:1090A9000012983C0BBB00010ABA01F1BB2CEE90EF
:0F90B900C7E5E004F070CE90C7E4E004F080C695
:0190C8002285
:1090C900EF14601814602314602E2403703974019E
:1090D900A805088002C333D8FC42B7227401A80549
:1090E900088002C333D8FC42BC227401A805088059
:1090F90002C333D8FC42BD22AF057401A80708801A
:0891090002C333D8FC42BE2270
:108FA100EF1460191460251460312403703D7401BD
:108FB100A805088002C333D8FCF452B7227401A873
:108FC10005088002C333D8FCF452BC227401A80501
:108FD100088002C333D8FCF452BD22AF057401A846
:0C8FE10007088002C333D8FCF452BE2203
:10831A00EF14602D14604A1460672403600302831B
:10832A00ACEB600E7401A805088002C333D8FC4286
:10833A0080227401A805088002C333D8FCF4528055
:10834A0022EB600E7401A805088002C333D8FC42F0
:10835A0090227401A805088002C333D8FCF4529015
:10836A0022EB600E7401A805088002C333D8FC42D0
:10837A00A0227401A805088002C333D8FCF452A0D5
:10838A0022EB600E7401A805088002C333D8FC42B0
:10839A00B022AF057401A807088002C333D8FCF4E1
:0383AA0052B022AC
:108D5E00EF14601A146027146034240370427401F7
:108D6E00A805088002C333D8FC5580FE80347401F8
:108D7E00A805088002C333D8FC5590FE80247401E8
:108D8E00A805088002C333D8FC55A0FE8014AF0599
:108D9E007401A807088002C333D8FC55B0FE8002C8
:048DAE00E4FEAF062A
:018DB200229E
:10963500758911E4F58CF58AC28CF518F51A4389FC
:0E96450001758CBC758ACDD2A9D2AFD28C2211
:03000B000287E287
:0D87E200C0E0C0D075D000C000C006C007C8
:1087EF00C2AF758CBC758ACD0519751B0074017EDF
:1087FF0000A81B088005C333CE33CED8F9FFEF5541
:10880F001A602DE51B25E02408F808E616187001FC
:10881F0016E51B25E02408F8E6FE08E64E7011AFBA
:10882F001B04A807088002C333D8FC4218F4521A5D
:09883F00051BE51BB408B6D2AF1D
:0B884800D007D006D000D0D0D0E03226
:1097A200758911E4F58DF58BC28ED2AF43891075A0
:0A97B2008DBC758BCDD2ABD28E2298
:03001B000298D870
:0D98D800C2AF758DBC758BCDB290D2AF3292
:10987B0075C8F075CD58E4F5CC75CB58F5CA43C80F
:04988B0001D2AD2237
:03002B000298F147
:0998F100C2AFC2C6B291D2AF327F
:1095F400C2AF7401A807088002C333D8FCFE421A24
:10960400EF25E02408F8A60408A605EEF45218D2C3
:02961400AF2283
:10985100C2AF7401A807088002C333D8FCF4521ABE
:059861005218D2AF22F5
:1098A300C2AF7401A807088002C333D8FC5518FF60
:0298B300D2AF32
:0198B5002290
:108F0500AB07AA06A905A8047F007E387D317C0041
:108F1500125A7AC3E49F90C7E1F074049E90C7E0AB
:108F2500F043C9407D04E4FF1290C97D05E4FF12BA
:108F35008FA143803075D88075985090C7E0E0FCCC
:0D8F4500A3E0FDECF5BA8DAA43A810D2AC54
:018F520022FC
:10903800AB07AA06A905A8047F007E707D627C00A4
:10904800125A7AC3E49F90C7E1F074049E90C7E077
:10905800F043C9207D06E4FF1290C97D07E4FF12A2
:109068008FA14380C0759B9090C7E0E0FCA3E0FD12
:08907800ECF5BB8D9D439A014C
:0190800022CD
:1092F500759680759780AB07AA06A905A8047F0017
:109305007EC07D897C01125A7AAD07AC06ECF5D991
:10931500AF058FE743B80CE4909812F0A3F0A3F0E3
:10932500A3F090981AF0909816F0A3F0A3F0A3F08C
:019335002215
:1095A90075A78075AB80AB07AA06A905A8047F003B
:1095B9007EC07D897C01125A7AAD07AC06ECF5AE06
:0795C900AF058FAF43B8307E
:0195D0002278
:108EB200EF14601B1460291460372403704490C7B8
:108EC200DCE0FCA3E0FDA3E0FEA3E0FF028F05903F
:108ED200C7DCE0FCA3E0FDA3E0FEA3E0FF029038C4
:108EE20090C7DCE0FCA3E0FDA3E0FEA3E0FF02925A
:108EF200F590C7DCE0FCA3E0FDA3E0FEA3E0FF12D7
:038F020095A9220C
:1068E50090C7DBEFF0A3ECF0A3EDF0A3EBF0A3EA88
:0468F500F0A3E9F033
:1068F900C2AFE4A3F0A3F090C7DCE0FEA3E0FFC3BE
:1069090090C7E2E09F90C7E1E09E40030269BD9015
:10691900C7DEE0FBA3E475F00112596EA9F0FA1283
:106929005877FF90C7DBE0FE75F009A42400F582D3
:10693900E5F03488F583EE75F008A42583F583E046
:10694900FCA3E0FD75F009EEA42400F582E5F0341E
:1069590080F583EE75F008A42583F583E5822DF58E
:1069690082E5833CF583EFF075F009EEA42400F588
:1069790082E5F03488F583EE75F008A42583F58364
:10698900E475F00112595875F009EEA42400F58256
:10699900E5F03488F583EE75F008A42583F583E0E6
:1069A9005403F090C7E2E004F0700690C7E1E004F8
:1069B900F002690090C7DBE0146042146070147043
:1069C90003026A6524036003026A95908808E060FF
:1069D90003026A9504F0908802E0FEA3E02400F522
:1069E9008274803EF583E0F599908803E004F070A5
:1069F90006908802E004F0908802026A9190901152
:106A0900E06003026A9504F090900BE0FEA3E02495
:106A190009F58274883EF583E0F59C90900CE004BA
:106A2900F0700690900BE004F090900B805A9098CB
:106A39001AE0705804F0909814E0FEA3E02412F5CF
:106A49008274903EF583E0F59E909815E004F0700D
:106A590006909814E004F0909814802C90A023E0FC
:106A6900702A04F090A01DE0FEA3E0241BF58274B7
:106A7900983EF583E0F5AC90A01EE004F070069016
:0E6A8900A01DE004F090A01DE05403F0D2AF79
:016A970022DC
:030023000284CE86
:1084CE00C0E0C083C082C0D075D000C006C007C255
:1084DE00AF30982AC298908804E0FEA3E02400F5FD
:1084EE008274843EF583E599F0908805E004F0707F
:1084FE0006908804E004F0908804E05403F030996C
:10850E003FC299908802E0FEA3E0FF908800E06EE3
:10851E007003A3E06F602474002FF58274803EF523
:10852E0083E0F599908803E004F07006908802E0ED
:10853E0004F0908802E05403F08005908808E4F07F
:0F854E00D2AFD007D006D0D0D082D083D0E032C9
:03005300028B36E7
:108B3600C0E0C083C082C0D075D000C006C007C2E6
:108B4600AF5396FE909814E0FEA3E0FF909812E0D3
:108B56006E7003A3E06F602474122FF58274903E4A
:108B6600F583E0F59E909815E004F0700690981451
:108B7600E004F0909814E05403F0800590981AE40D
:108B8600F0D2AFD007D006D0D0D082D083D0E0329A
:03005B00029111FE
:10911100C0E0C083C082C0D075D000C006C2AF53CA
:1091210097FE909816E0FEA3E02412F58274943E17
:10913100F583E59FF0909817E004F070069098167B
:10914100E004F0909816E05403F0D2AFD006D0D0EE
:07915100D082D083D0E03290
:03006300028B9677
:108B9600C0E0C083C082C0D075D000C006C007C286
:108BA600AF53A7FE90A01DE0FEA3E0FF90A01BE040
:108BB6006E7003A3E06F6024741B2FF58274983ED9
:108BC600F583E0F5AC90A01EE004F0700690A01DC1
:108BD600E004F090A01DE05403F0800590A023E48B
:108BE600F0D2AFD007D006D0D0D082D083D0E0323A
:03006B00029158A7
:10915800C0E0C083C082C0D075D000C006C2AF5383
:10916800ABFE90A01FE0FEA3E0241BF582749C3E9A
:10917800F583E5ADF090A020E004F0700690A01F04
:10918800E004F090A01FE05403F0D2AFD006D0D096
:07919800D082D083D0E03249
:0300830002827F77
:10827F00C0E0C083C082C0D075D000C006C007C2A6
:10828F00AFE59B30E02E759B90539BFE90900DE0D9
:10829F00FEA3E02409F582748C3EF583E59CF090F3
:1082AF00900EE004F0700690900DE004F090900DA9
:1082BF00E05403F0E59B30E143759B90539BFD9099
:1082CF00900BE0FEA3E0FF909009E06E7003A3E037
:1082DF006F602474092FF58274883EF583E0F59C56
:1082EF0090900CE004F0700690900BE004F09090EA
:1082FF000BE05403F08005909011E4F0D2AFD0075B
:0B830F00D006D0D0D082D083D0E03266
:109866007596807597807C00ECF5D975E7E0759E56
:049876000D53B8F3E3
:01987A0022CB
:0B95D10090C813EBF0A3EAF0A3E9F050
:1095DC0090C83E7401F0A374C8F0A37416F090C840
:0795EC003EE4F0A3F0A3F040
:0195F3002255
:0299080080FEDF
:053CBC0042C9530000A5
:107DB90090C7D7741AF0E4A3F0A3F0A3740AF012E1
:107DC90096351297A212655EE4FD7F02128FA17D9E
:107DD900607CEAE4FF1295F47DF47C017F01129541
:107DE900F412876CD2AF90C7D7E0FF12950C126CD2
:107DF9004A7D887C137F071295F47B017AC779D96C
:107E090090C808E4F0A304F07F007E82126DDE7B47
:107E1900017AC779D990C808E4F0A304F07F007EFD
:107E290085126DDE12927090C953E07002A3E07062
:107E3900197F071298A3EF601190C953E4F0A304C6
:107E4900F0E490C7D7F0FF12950C90C953E0700287
:107E5900A3E060D01292B31289A1126F7190C7D5B5
:107E6900EEF0A3EFF0120100900000E060B6E4F03C
:027E790080B2D5
:103CC1004ABB4EC720C8000020C138D3054CBC3EBA
:103CD1000049004F0020D14CC2A4D2B84CBE80ACE8
:103CE100F5C7A50020CD08AE30D6544EBB9FB85CB9
:103CF100ADF8002000260020C5D0B7EC4ABBEFC7C5
:103D010091B3D90020C2DCAC0444BB81C5B8C5B4B1
:103D110048BF62D68CC0ACC18CAC1C4EBBFCC5D4B8
:103D2100C9C0B2C8C5B40020BAA8B4DC4ABB38C007
:103D3100C1D3100020C628B3C44ABF7BD558D310C5
:103D41000020C628B3C444BFCDC555B82548BA988C
:103D5100C9C0C5F0C2DCAC044ABED2C0C1D3100098
:103D610020D788D1304ABD65D558D3100020D788D7
:103D7100D13048BFB2C0C1D3100020D32C48BEC837
:103D8100D558D3100020D32C48BEDECF64D504B85B
:103D910008C0E44ABC58C194B808B178C774B4DC0F
:103DA1004CBD8EB370C774D130C774D130B97C5259
:103DB100BDBDCD08AE30D654D558C2DCACA0C2B51D
:103DC100B2C8AE4C44BF5ED655C77844BF9FCDE85C
:103DD100C18C4ABA8ED65CC1310020B85CADF84ABC
:103DE100BE92C5D0B7EC0020B85CADF848BEF5ACCA
:103DF10000C5F4C2DCAC0442BBEDD32C44BEC3C647
:103E010001C5B446BE8CC911AD6DC5B446BB48D51C
:103E11005CAD6DC5B44ABFA5C6A9B9ACCF54B9ACA8
:103E2100C54446BBCFACBDAE30B3C44EBEE6D30C29
:103E3100C8FCC2DC0020C870B9ACC74D4EBC83B20F
:103E4100F9C7ACBD09B85C00200032003958BC94F8
:103E5100003000330031002D003900350033002DD2
:103E610000340030003600334CBF6D004100440087
:103E71004D0049004E000058BFDD0055005300457C
:103E81000052002000530045005400540049004EE8
:103E910000474EBF910049004F00200054004500EB
:103EA1005300545CBD070046004100430054004FDD
:103EB10000520059000D000A005200450053004510
:103EC100005456BB0B004C004F0047002000260059
:103ED10020004500520052004F005250BD6F005269
:103EE1000055004E002000540049004D004550BAD5
:103EF100C5004C0041004E004700550041004700FD
:103F01004558BF150043004F004D00500041004E81
:103F1100005900200049004E0046004F5ABB660080
:103F210045004E00470049004E0045004500520043
:103F310020004D004F0044004550BDE20054004FA9
:103F41000050002000540045004D005056BC1800A0
:103F510042004F00540054004F004D002000540017
:103F610045004D005050BCC6005000520045005362
:103F7100005300550052004554BD47004400450020
:103F81004C00410059002000540049004D004554A7
:103F9100BE2D0054004F0050002000480045004154
:103FA1000054004500525ABC640042004F005400C6
:103FB10054004F004D0020004800450041005400CE
:103FC1004500524EBF4E0054004F005000200046A5
:103FD1000041004E54BE0F0042004F0054005400F7
:103FE1004F004D002000460041004E54BE6C00437E
:103FF100004F004D00500052004500530053004F48
:10400100005250BB8E0053004F004C0045004E0043
:104011004F0049004448BEA80044004100540041FB
:1040210056BE560049004E00490054004900410067
:104031004C0049005A0045003F46BC380059004534
:10404100005344BEB9004E004F54BD3300410043FC
:1040510000540049005600450020004C004F004725
:1040610052BAF9004500520052004F0052002000A0
:104071004C004F00474EBDFF0045004E0047004C2D
:104081000049005300484EBD250043004800490047
:104091004E0045005300454CBFD1004B004F00522C
:1040A10000450041004E58BF350059004F004E00F9
:1040B10047004C00490020004B004F0052004500D2
:1040C1004156BB22004700590045004F004E0047B2
:1040D10000470049002D0044004F6022BAA3005060
:1040E1000041004A0055002D00530049002C0020DA
:1040F100004A004F00520049002D00450055005074
:104101006022BBAD00320039002000440061006E26
:104111000067006A006100650062006F006E006761
:10412100002D0072006F6022BD9B00440041004ED3
:104131000047004A004100450042004F004E004741
:10414100002D0052004F00200032003948BFC575D4
:104151002862378BBE7F6E48BF890049004F6D4B87
:104161008BD54ABCD85DE55382521D59CB53164EAF
:10417100BAE465E55FD700200026002095198BEF92
:1041810048BD5D8FD0884C65F695F444BA8A8BEDB5
:104191008A0048BF0D516C53F87B804ECB4ABB5B04
:1041A1005DE57A0B5E086A215F0F4ABE2398766748
:1041B1007F52A070ED56684ABC4E5E95677F52A053
:1041C10070ED566848BF2D9876677F98CE62474854
:1041D100BDF75E95677F98CE624746BE4B538B7F96
:1041E10029673A46BB88753578C1960048BDD39892
:1041F10076677F6E295EA648BC0F5E95677F6E2944
:104201005EA644BCC2538B529B48BCFF5EF68FDF57
:1042110065F695F444BEA16570636E4ABE41521DB8
:1042210059CB53165417003F44BC32786E8BA444CB
:10423100BEB153D66D8848BCF78FD0884C65E55F19
:10424100D748BADC95198BEF65E55FD744BDDE82AF
:10425100F18BED44BCF34E2D658744BFC197E98BCB
:10426100ED46BAF34EAC757F90534EBA7C57615D03
:10427100DE5E020020676191CC90914EBD805802B4
:10428100624D5CF08DEF00200032003958BBD50043
:104291003000330031002D003900350033002D008E
:1042A1003400300036003341BF7A0042BB46000083
:1042B10041BB420041BA790044BE52000000006097
:1042C1003ABA3C00000001000200030004000500AE
:1042D10006000700080009000A000B000C000D0091
:1042E1000E000F0010001100120013001400150041
:1042F10016001700180019001A001B001C42BC4CC4
:10430100000041BF880042BAA1000042BC0D00007C
:1043110050BEFD0000000000000000000000000091
:1043210000000050BCE3000000000000000000009D
:1043310000000000000050BCB200000000000000BE
:1043410000000000000000000042BFBD000042BDAF
:10435100F5000042BC0B000042BFB0000042BDDCD2
:10436100000042BF5C000042BCB0000042BDCF0073
:104371000042BA77000042BC81000041BEF4004215
:10438100BFBF000042BAD6000042BB44000041BAA0
:104391007A0041BEB80141BEBD0241BEC20341BE69
:1043A100C70441BED00541BED10641BEDC0741BABA
:1043B100D50841BB870941BBFB0A41BD7F0B41BB0E
:1043C100210C41BB860D41BCAE0E41BCE20F41BF89
:1043D100791041BFBC1141BB851241BEDD1341BF04
:1043E1006C1441BAD91541BF4D1641BE9C1741BB52
:1043F100801841BB431941BAD81A41BC171B41BBB4
:104401005A1C41BDF41D41BEB01E41BD5C1F41BBE4
:10441100582041BD5B2141BFAF2241BCAF2341BF09
:104421006A2441BA7B2541BEA02642BE0D0000414F
:10443100BC800041BB650041BF6B0041BC930041A2
:10444100BF850041BA760041BDDB0041BAF20041AF
:10445100BC0A0041BE9F0041BB590041BE51004111
:10446100BAA00041BEA70042BC30000042BC3600E9
:104471000042BC4A000042BC62000042BC7E000017
:1044810042BC91000042BE9D000142BEA500C8424F
:10449100BDD1000142BDF200C842BFA3000042BF2E
:1044A100BA001442BEB5000042BEC00E1041BD9A12
:1044B1000042BC2E000041BB9E0042BD23000042D1
:1044C100BCAC000042BF86000042BBF9000041BA0B
:1044D100290041BA2A0041BA2B0041BA2C0041BA45
:1044E1002D0041BA2E0041BA2F0042BA30000042DD
:1044F100BA32000042BA34000042BA36000042BA71
:034501003800007F
:1086EF0090BA36F0A3F090BA2BF090BADAE0FEA36E
:1086FF00E0FF7C007D0A1258F1AA06AB0790BCD6AA
:10870F00E0FEA3E0FF7D641258F1EF2BFFEE3AFE7F
:10871F0090BEBFE02FFF90BEBEE03E90C7DFF0A33C
:0E872F00EFF07F0090C7DFE0FCA3E0FD7E814D
:10873D0090BA3AEEF0A3EFF090BFBFECF0A3EDF0DE
:10874D0090BEF47401F0FB7ABF79BF90C808E4F0D5
:0F875D00A304F0126DDE7DBC7C027F060295F452
:0C98E500E490BEF4F090BB44F0A3F0222D
:1089A10090BEF4E060637F061298A3EF605B90BA1B
:1089B1003AE0FEA3E0FF7B017ABA79D690C804E4DD
:1089C100F0A304F012672590BAD6E0FEA3E0FF9071
:1089D100BFBFE0FCA3E0FDB50707ECB506030298B5
:1089E100E5C390BB45E0940290BB44E0940050196C
:1089F10090BA3AE0FEA3E0FF12873D90BB45E00448
:0A8A0100F0700690BB44E004F02280
:1096E60090C95574C0F0A37464F07B017AC97955AA
:0B96F60090C808E4F0A304F0026DDE51
:1097010090C8017418F0A374E3F07B017AC8790161
:0B97110090C808E4F0A304F0026DDE35
:049616007F037E94BC
:10961A0090C80174FFF0A37460F07B017AC87901E5
:0B962A0090C808E4F0A304F0026DDE1D
:10971C0090C8017405F0A3741DF07B017AC879011F
:0B972C0090C808E4F0A304F0026DDE1A
:1097370090C95774CEF0A37459F07B017AC9795751
:0B97470090C808E4F0A304F0026DDEFF
:0496AD007F137E5257
:1096B10074FF90C801F0A3F07B017AC8790190C8CA
:0996C10008E4F0A304F0026DDEE0
:088DB30090C7DBE0FEA3E0FF26
:108DBB00EE702BEF24FE601504702390BC0AE0705C
:108DCB000404F0801990BC0AE014F0801190BC0AE6
:108DDB00E0B40104E4F0800690BC0AE004F090BC1F
:108DEB000AE07F937E57700A12961A7F037E580211
:0D8DFB0096B11296B17F037E5812961A228F
:08796F0090C7DBE0FEA3E0FF7E
:10797700EE702CEF24FE601604702490BA76E07047
:10798700057405F0801990BA76E014F0801190BA6A
:1079970076E0B40504E4F0800690BA76E004F0904F
:1079A700BA76E014602214603614604D14606B14CC
:1079B7007003027A4724056003027A6D7F937E5134
:1079C70012961A1296AD800E7F937E511296B17F52
:1079D700137E5212961A7F337E521296B180117F10
:1079E700937E511296B11296AD7F337E5212961A3C
:1079F7007F537E521296B180187F937E511296B1B3
:107A07001296AD7F337E521296B17F537E521296F5
:107A17001A7F737E521296B1801F7F937E51129602
:107A2700B11296AD7F337E521296B17F537E5212BA
:107A370096B17F737E5212961A7F937E520296B149
:107A47007F937E511296B11296AD7F337E52129676
:107A5700B17F537E521296B17F737E521296B17FD9
:077A6700937E5212961A22D1
:088E080090C7DBE0FEA3E0FFD0
:108E1000EE702BEF24FE601504702390BE9FE0706F
:108E20000404F0801990BE9FE014F0801190BE9F62
:108E3000E0B40104E4F0800690BE9FE004F090BE30
:108E40009FE07F737E56700A12961A7F837E5602C9
:0D8E500096B11296B17F837E5612961A22BB
:0885E40090C7DBE0FEA3E0FFFD
:1085EC00EE702CEF24FE601604702490BE51E070E7
:1085FC00057402F0801990BE51E014F0801190BE09
:10860C0051E0B40204E4F0800690BE51E004F09016
:10861C00BE51E070107F537E5512961A7F637E55C3
:10862C001296B1801590BE51E0B401157F537E5562
:10863C001296B17F637E5512961A7F737E55029601
:10864C00B190BE51E0B402157F537E551296B17FA6
:0E865C00637E551296B17F737E5512961A22D8
:1071040090BF6BE0705A7F637E5012961A7F937E15
:10711400501296B17F237E511296B17F537E511245
:1071240096B190BC93E06401702890BF85E070092B
:107134007F737E5012961A802090BF85E0640160B0
:107144000302728F7F737E501296B17F837E50024A
:10715400727E7F737E501296B17F837E5002728C52
:1071640090BF6BE06401705F7F637E501296B17FC5
:10717400937E5012961A7F237E511296B17F537ECE
:10718400511296B190BC93E06401702D90BF85E0DC
:10719400700E7F037E5112961A7F137E5102728CF9
:1071A40090BF85E06401600302728F7F037E5112F9
:1071B40096B17F137E5102727E7F037E511296B187
:1071C4007F137E5102728C90BF6BE06402705A7F11
:1071D400637E501296B17F937E501296B17F237EC8
:1071E4005112961A7F537E511296B190BC93E0646B
:1071F40001702990BF85E0700E7F337E5112961A7C
:107204007F437E5102728C90BF85E06401707C7F65
:10721400337E511296B17F437E51805E7F337E511F
:107224001296B17F437E51805F90BF6BE064037020
:107234005A7F637E501296B17F937E501296B17F2F
:10724400237E511296B17F537E5112961A90BC93AD
:10725400E06401702890BF85E0700D7F637E511259
:10726400961A7F737E51802090BF85E0B4011C7F05
:10727400637E511296B17F737E5102961A7F637EAC
:0C728400511296B17F737E511296B12218
:0852980090C7DBE0FEA3E0FF7C
:1052A00090C7FFEEF0A3EFF04E700990BF6BF09047
:1052B000BC93F02290C7FFE07004A3E06401600398
:1052C0000254FD90BC93E0701590BF6BE0700674C3
:1052D00003F002576690BF6BE014F002576690BF70
:1052E00085E060030253FE90BF6BE0703E90BE9D70
:1052F000E0FEA3E0FFD39401EE9400401BD390BEE8
:10530000A6E09F90BEA5E09E400E90BE9EE024FFCA
:10531000F090BE9DE034FFF07B017ABE799D90C88D
:1053200008E4F0A304F07F7002544090BF6BE0B437
:10533000013E90BDD1E0FEA3E0FFD39401EE9400C6
:10534000401BD390BDF3E09F90BDF2E09E400E90D5
:10535000BDD2E024FFF090BDD1E034FFF07B017AB4
:10536000BD79D190C808E4F0A304F07F0002547D19
:1053700090BF6BE0B4023E90BFA3E0FEA3E0FFD37A
:105380009400EE9400401BD390BFBBE09F90BFBA47
:10539000E09E400E90BFA4E024FFF090BFA3E03455
:1053A000FFF07B017ABF79A390C808E4F0A304F072
:1053B0007F3002547D90BF6BE06403600302576648
:1053C00090BEB5E0FEA3E0FFD39401EE9400401B35
:1053D000D390BEC1E09F90BEC0E09E400E90BEB68E
:1053E000E024FFF090BEB5E034FFF07B017ABE7997
:1053F000B590C808E4F0A304F07F6002547D90BF2C
:1054000085E06401600302576690BF6BE0703690E0
:10541000BE9DE0FEA3E0FFD390BEA6E09F90BEA598
:10542000E09E400CA3E024FFF090BEA5E034FFF026
:105430007B017ABE79A590C808E4F0A304F07F80D0
:105440007E400254F790BF6BE0B4013590BDD1E0CF
:10545000FEA3E0FFD390BDF3E09F90BDF2E09E403D
:105460000CA3E024FFF090BDF2E034FFF07B017A62
:10547000BD79F290C808E4F0A304F07F107E41806B
:105480007690BF6BE0B4023590BFA3E0FEA3E0FFCF
:10549000D390BFBBE09F90BFBAE09E400CA3E02436
:1054A000FFF090BFBAE034FFF07B017ABF79BA9089
:1054B000C808E4F0A304F07F407E41803A90BF6BBF
:1054C000E0B4033690BEB5E0FEA3E0FFD390BEC1CA
:1054D000E09F90BEC0E09E400CA3E024FFF090BE91
:1054E000C0E034FFF07B017ABE79C090C808E4F0D8
:1054F000A304F07F707E41126DDE02576690C7FFF5
:10550000E07004A3E06402600302575290BC93E091
:10551000701590BF6BE0B40305E4F002575090BFE4
:105520006BE004F002575090BF85E06003025627FD
:1055300090BF6BE0703690BE9DE0FEA3E0FFD3907D
:10554000BEA6E09F90BEA5E09E400E90BE9EE004E9
:10555000F0700690BE9DE004F07B017ABE799D90CC
:10556000C808E4F0A304F07F7002567490BF6BE0AB
:10557000B4013690BDD1E0FEA3E0FFD390BDF3E0CF
:105580009F90BDF2E09E400E90BDD2E004F0700608
:1055900090BDD1E004F07B017ABD79D190C808E4D8
:1055A000F0A304F07F000256BC90BF6BE0B402365B
:1055B00090BFA3E0FEA3E0FFD390BFBBE09F90BFEE
:1055C000BAE09E400E90BFA4E004F0700690BFA326
:1055D000E004F07B017ABF79A390C808E4F0A3044B
:1055E000F07F300256BC90BF6BE06403600302574B
:1055F0005090BEB5E0FEA3E0FFD390BEC1E09F9007
:10560000BEC0E09E400E90BEB6E004F0700690BEB4
:10561000B5E004F07B017ABE79B590C808E4F0A348
:1056200004F07F600256BC90BF85E0640160030215
:10563000575090BF6BE0704190BEA5E0FEA3E0FF25
:10564000C394DCEE9400501C90BE9DE0FCA3E0FDF2
:10565000EF9DEE9C400E90BEA6E004F0700690BE5A
:10566000A5E004F07B017ABE79A590C808E4F0A318
:1056700004F07F807E4002574D90BF6BE0B4014143
:1056800090BDF2E0FEA3E0FFC394DCEE9400501C5A
:1056900090BDD1E0FCA3E0FDEF9DEE9C400E90BDDF
:1056A000F3E004F0700690BDF2E004F07B017ABDF7
:1056B00079F290C808E4F0A304F07F107E4102570D
:1056C0004D90BF6BE0B4024090BFBAE0FEA3E0FF94
:1056D000C39414EE9400501C90BFA3E0FCA3E0FD23
:1056E000EF9DEE9C400E90BFBBE004F0700690BFB3
:1056F000BAE004F07B017ABF79BA90C808E4F0A35D
:1057000004F07F407E41804590BF6BE0B403419040
:10571000BEC0E0FEA3E0FFC394B4EE9400501C9022
:10572000BEB5E0FCA3E0FDEF9DEE9C400E90BEC137
:10573000E004F0700690BEC0E004F07B017ABE7910
:10574000C090C808E4F0A304F07F707E41126DDEC3
:10575000801490C7FFE07004A3E06403702290BC43
:1057600093E0700504F002710490BF85E0FF7003C0
:1057700004F022EFB40109E490BC93F090BF85F0EF
:015780002206
:06990200E490BA79F022A6
:10813E0090C891EEF0A3EFF0A3ECF0A3EDF0A3EA5C
:04814E00F0A3EBF0BF
:10815200A3E0FAA3E0FB7C007D64FFAE02125903A8
:10816200A3EEF0A3EFF07C007D0AAF03AE0212593A
:10817200037C007D0A125903A3ECF0A3EDF090C832
:1081820097E0FEA3E0FF7C007D0A12590390C89D90
:10819200ECF0A3EDF090C891E0FEA3E0FF7B017A42
:1081A200C8799990C808E4F0A304F0126DDE90C873
:1081B20093E0FEA3E0FF7B017AC8799B90C808E4B4
:1081C200F0A304F0126DDE90C895E0FEA3E0FF7B01
:1081D200017AC8799D90C808E4F0A304F0026DDE2C
:0E8AD40090C8E5EEF0A3EFF0A3ECF0A3EDF0F8
:108AE2007C007D3CAF03AE02125903A3EEF0A3EF6C
:108AF200F0AE02AF037C007D3C125903A3ECF0A35D
:108B0200EDF090C8E5E0FEA3E0FF7B017AC879E9C9
:108B120090C808E4F0A304F0126DDE90C8E7E0FE0E
:108B2200A3E0FF7B017AC879EB90C808E4F0A304C4
:048B3200F0026DDE02
:0881E20090C929EEF0A3EFF0B3
:1081EA00E4A3F0A3F0A3F0A304F0FB7AC9792B90DF
:1081FA00C808E4F0A304F07F007E29126DDE7B013B
:10820A007AC9792D90C808E4F0A304F07F007E397A
:10821A00126DDE90C929E0FEA3E0FFEE7056EF145E
:10822A00602A04704F7B017AC9792B90C808E4F060
:10823A00A304F07F007E29126DDE7B017AC9792DB5
:10824A0090C808E4F0A304F07F0080237B017AC978
:10825A00792B90C808E4F0A304F0FF7E29126DDEA2
:10826A007B017AC9792D90C808E4F0A304F0FF7E57
:04827A0039126DDE6A
:01827E0022DD
:10785B0090C7FFECF0A3EDF0EE600302796EEF241E
:10786B00FE605E14606014700302793324036003BE
:10787B0002796E90C7FFE0FEA3E0FFEE7035EF14C8
:10788B00601514601E2402702A1296167F137E94C4
:10789B0012961A7F2380551296167F137E94129799
:1078AB001C801A7F037E9412971C7F137E94129672
:1078BB001A800A1296167F137E9412961A7F2380D3
:1078CB00637F5302795B90C7FFE0FEA3E0FFEE708E
:1078DB0043EF14601B14602A240270387F537E948C
:1078EB0012961A7F637E9412961A7F737E9480622F
:1078FB007F537E9412961A7F637E9412971C7F732C
:10790B0080227F537E9412971C7F637E9412961A6B
:10791B007F7380107F537E9412961A7F637E94122E
:10792B00961A7F737E94803890C7FFE0FEA3E0FF2A
:10793B00EE7022EF14601004701B7F837E921297FF
:10794B001C7F937E9280197F837E9212961A7F936F
:10795B007E9202971C7F837E9212961A7F937E9261
:04796B0012961A2234
:0A5C030090BB42E0FF7E00E4FDFCD0
:105C0D0090C7FFECF0A3EDF0EE6003025F9CEF2474
:105C1D00F3B40B004003025F9C905C3475F003A459
:105C2D00C58325F0C58373025C55025CD0025D31DE
:105C3D00025DAC025E27025E88025F02025F5202C5
:105C4D005F9C025F9C025F7890C7FFE07002A3E04B
:105C5D0070177F037E901297017F137E901297012C
:105C6D007F237E9012971C804290C7FFE07004A3A3
:105C7D00E0640170107F037E901297017F137E9078
:105C8D0012971C801F90C7FFE07004A3E064027F91
:105C9D00037E90700512971C80031297017F137E6F
:105CAD00901297017F237E9012970190C7FFE070AD
:105CBD0004A3E0640370047D018002E4FDFC7F1009
:105CCD00025F7390C7FFE07002A3E070107F537EF8
:105CDD00901297017F637E9012971C802F90C7FFC3
:105CED00E07004A3E0640170097F537E9012971C4D
:105CFD00801390C7FFE07004A3E06402700E7F5321
:105D0D007E901297017F637E9012970190C7FFE0FE
:105D1D007004A3E0640270047D018002E4FDFC7F49
:105D2D0020025F7390C7FFE07002A3E070177F73CE
:105D3D007E901297017F837E901297017F937E90C4
:105D4D0012971C804290C7FFE07004A3E0640170BD
:105D5D00107F737E901297017F837E9012971C8027
:105D6D001F90C7FFE07004A3E064027F737E907004
:105D7D000512971C80031297017F837E9012970165
:105D8D007F937E9012970190C7FFE07004A3E064AB
:105D9D000370047D018002E4FDFC7F30025F73908F
:105DAD00C7FFE07002A3E070177F037E9112970189
:105DBD007F137E911297017F237E9112971C804253
:105DCD0090C7FFE07004A3E0640170107F037E9123
:105DDD001297017F137E9112971C801F90C7FFE0D1
:105DED007004A3E064027F037E91700512971C80FE
:105DFD00031297017F137E911297017F237E9112DB
:105E0D00970190C7FFE07004A3E0640370047D0167
:105E1D008002E4FDFC7F40025F7390C7FFE07002DB
:105E2D00A3E070107F437E911297017F537E9112F4
:105E3D00971C802F90C7FFE07004A3E064017009E8
:105E4D007F437E9112971C801390C7FFE07004A3CF
:105E5D00E06402700E7F437E911297017F537E9115
:105E6D0012970190C7FFE07004A3E0640270047DF7
:105E7D00018002E4FDFC7F50025F7390C7FFE0706C
:105E8D0002A3E070177F637E911297017F737E915D
:105E9D001297017F837E9112971C804290C7FFE07D
:105EAD007004A3E0640170107F637E911297017FEF
:105EBD00737E9112971C801F90C7FFE07004A3E0C2
:105ECD0064027F637E91700512971C800312970107
:105EDD007F737E911297017F837E9112970190C7F8
:105EED00FFE07004A3E0640370047D018002E4FD13
:105EFD00FC7F60807190C7FFE07002A3E070097FA6
:105F0D00937E9112971C801F90C7FFE07004A3E051
:105F1D0064017F937E91700C1297017F037E921224
:105F2D00971C800A1297017F037E9212970190C7EA
:105F3D00FFE07004A3E0640270047D018002E4FDC3
:105F4D00FC7F70802190C7FFE07004A3E064017FA7
:105F5D00137E9270091297017D017C0080061297C5
:105F6D001CE4FDFC7F807E3902965890C7FFE070DF
:105F7D0002A3E070077F337E9402971C90C7FFE069
:105F8D007004A3E0640170077F337E941296B122F2
:05965300E4FDFC7F9026
:1096580090C801ECF0A3EDF07B017AC8790190C8BD
:0996680008E4F0A304F0026DDE39
:10950C0090BE52745AF0A37401F0E4A3F0EF25E07E
:10951C00243CF582E434BAF583A3E090BE55F07B8D
:10952C00017ABE795290C808E4F0A37402F07F84EB
:05953C007E00026DDE5F
:0898FA0090BB42EFF002950C57
:108CB2007F037E941296B17F137E941296B17F2326
:108CC2007E941296B17F237E921296B17F537E924A
:108CD2001296B17F537E941296B17F637E94129660
:108CE200B17F737E941296B17F837E921296B17F8A
:108CF200937E921296B17F737E921296B1E4FDFC3E
:068D0200FF7E30029658CE
:10453500E490C7FFF0A3F090BE0DE07002A3E06029
:104545000302464990BB42E0B41B097B017ABF795F
:104555006D0245DE90BB42E0B41C087B017ABF7951
:10456500DD807690BB42E0B41D087B017ABF79DD22
:10457500806790BB42E0B41E087B017ABF79DD807D
:104585005890BB42E0B41F087B017ABF79DD8049B2
:1045950090BB42E0B420087B017ABF79DD803A9078
:1045A500BB42E0B421087B017ABF79DD802B90BB4B
:1045B50042E0B422087B017ABF79DD801C90BB42C2
:1045C500E0B41C087B017ABF79DD800D90BB42E029
:1045D500B41C367B017ABF79DD90C808E4F0A3747A
:1045E50006F07F107E40126DDE90C7FFE4F0A374E5
:1045F5000CF07B017AC779FF90C808E4F0A304F0BA
:104605007F187E50126DDE803B90BB42E0B41C34B7
:104615007B017ABF79DD90C808E4F0A37406F07FCA
:10462500107E40126DDE90C7FFE4F0A3740CF07BA2
:10463500017AC779FF90C808E4F0A304F07F187EDB
:1046450050126DDE90BC80E0B409004003024D3E7F
:1046550090465CF82828730246770247280248A648
:1046650002494E0249F6024A9E024B46024BEE02B1
:104675004C9690BE0DE07002A3E0600302470C7BF0
:10468500017ABB796690C808F0A3740DF07F207E8F
:1046950040126DDE90C7FFE4F0A3741AF07B017A37
:1046A500C779FF90C808E4F0A304F07F287E501274
:1046B5006DDE7B017ABF79DD90C808E4F0A3740C48
:1046C500F07F307E40126DDE90C7FFE4F0A37418D2
:1046D500F07B017AC779FF90C808E4F0A304F07F66
:1046E500387E50126DDE7B017ABF799190C808E45F
:1046F500F0A3740CF07440FFFE126DDE90C7FFE46A
:10470500F0A3740E02493890BE0DE0FEA3E0FF64ED
:10471500014E7003024D3EEF64024E6003024D3EB2
:1047250002483F90BE0DE07002A3E060030247BD62
:104735007B017ABF79DD90C808F0A3740CF07F2067
:104745007E40126DDE90C7FFE4F0A37418F07B0184
:104755007AC779FF90C808E4F0A304F07F287E505B
:10476500126DDE7B017ABF799190C808E4F0A374DD
:1047750007F07F307E40126DDE90C7FFE4F0A37432
:104785000EF07B017AC779FF90C808E4F0A304F026
:104795007F387E50126DDE7B017ABD790790C8089F
:1047A500E4F0A3740AF07440FFFE126DDE90C7FFBB
:1047B500E4F0A3741402493890BE0DE07004A3E040
:1047C500640170677B017ABF79C590C808F0A3744E
:1047D50004F07F307E40126DDE90C7FFE4F0A374D5
:1047E50008F07B017AC779FF90C808E4F0A304F0CC
:1047F5007F387E50126DDE7B017ABF798990C808BB
:10480500E4F0A37404F07F007E44126DDE90C7FFD0
:10481500E4F0A37408F07B017AC779FF90C808E437
:10482500F0A304F07F087E54024D3B90BE0DE0706E
:1048350004A3E064026003024D3E7B017ABB794E1E
:1048450090C808F0A37405F07F107E40126DDE90CD
:10485500C7FFE4F0A3740AF07B017AC779FF90C81B
:1048650008E4F0A304F07F187E50126DDE7B017A18
:10487500BC793E90C808E4F0A37406F07F207E4022
:10488500126DDE90C7FFE4F0A3740CF07B017AC7CC
:1048950079FF90C808E4F0A304F07F287E50024D0C
:1048A5003B90BE0DE07002A3E06003024D3E7B012C
:1048B5007ABF79DD90C808F0A3740CF07F207E40A4
:1048C500126DDE90C7FFE4F0A37418F07B017AC780
:1048D50079FF90C808E4F0A304F07F287E50126D9C
:1048E500DE7B017ABF799190C808E4F0A37407F0E4
:1048F5007F307E40126DDE90C7FFE4F0A3740EF0AA
:104905007B017AC779FF90C808E4F0A304F07F38EB
:104915007E50126DDE7B017ABD790790C808E4F000
:10492500A3740AF07440FFFE126DDE90C7FFE4F039
:10493500A37414F07B017AC779FF90C808E4F0A34B
:1049450004F07F487E50024D3B90BE0DE07002A3FF
:10495500E06003024D3E7B017ABF799190C808F073
:10496500A37407F07F207E40126DDE90C7FFE4F050
:10497500A3740EF07B017AC779FF90C808E4F0A311
:1049850004F07F287E50126DDE7B017ABD79079099
:10499500C808E4F0A3740AF07F307E40126DDE9003
:1049A500C7FFE4F0A37414F07B017AC779FF90C8C0
:1049B50008E4F0A304F07F387E50126DDE7B017AA7
:1049C500BB790B90C808E4F0A3740AF07440FFFEAD
:1049D500126DDE90C7FFE4F0A37414F07B017AC773
:1049E50079FF90C808E4F0A304F07F487E50024D9B
:1049F5003B90BE0DE07002A3E06003024D3E7B01DB
:104A05007ABD790790C808F0A3740AF07F207E402C
:104A1500126DDE90C7FFE4F0A37414F07B017AC732
:104A250079FF90C808E4F0A304F07F287E50126D4A
:104A3500DE7B017ABB790B90C808E4F0A3740AF019
:104A45007F307E40126DDE90C7FFE4F0A37414F052
:104A55007B017AC779FF90C808E4F0A304F07F389A
:104A65007E50126DDE7B017ABD796F90C808E4F047
:104A7500A37408F07440FFFE126DDE90C7FFE4F0EA
:104A8500A37410F07B017AC779FF90C808E4F0A3FE
:104A950004F07F487E50024D3B90BE0DE07002A3AE
:104AA500E06003024D3E7B017ABB790B90C808F0AC
:104AB500A3740AF07F207E40126DDE90C7FFE4F0FC
:104AC500A37414F07B017AC779FF90C808E4F0A3BA
:104AD50004F07F287E50126DDE7B017ABD796F90E0
:104AE500C808E4F0A37408F07F307E40126DDE90B4
:104AF500C7FFE4F0A37410F07B017AC779FF90C873
:104B050008E4F0A304F07F387E50126DDE7B017A55
:104B1500BA79C590C808E4F0A37408F07440FFFEA4
:104B2500126DDE90C7FFE4F0A37410F07B017AC725
:104B350079FF90C808E4F0A304F07F487E50024D49
:104B45003B90BE0DE07002A3E06003024D3E7B0189
:104B55007ABD796F90C808F0A37408F07F207E4075
:104B6500126DDE90C7FFE4F0A37410F07B017AC7E5
:104B750079FF90C808E4F0A304F07F287E50126DF9
:104B8500DE7B017ABA79C590C808E4F0A37408F011
:104B95007F307E40126DDE90C7FFE4F0A37410F005
:104BA5007B017AC779FF90C808E4F0A304F07F3849
:104BB5007E50126DDE7B017ABF791590C808E4F04E
:104BC500A3740CF07440FFFE126DDE90C7FFE4F095
:104BD500A37418F07B017AC779FF90C808E4F0A3A5
:104BE50004F07F487E50024D3B90BE0DE07002A35D
:104BF500E06003024D3E7B017ABA79C590C808F0A2
:104C0500A37408F07F207E40126DDE90C7FFE4F0AC
:104C1500A37410F07B017AC779FF90C808E4F0A36C
:104C250004F07F287E50126DDE7B017ABF791590E6
:104C3500C808E4F0A3740CF07F307E40126DDE905E
:104C4500C7FFE4F0A37418F07B017AC779FF90C819
:104C550008E4F0A304F07F387E50126DDE7B017A04
:104C6500BB796690C808E4F0A3740DF07440FFFEAC
:104C7500126DDE90C7FFE4F0A3741AF07B017AC7CA
:104C850079FF90C808E4F0A304F07F487E50024DF8
:104C95003B90BE0DE07002A3E06003024D3E7B0138
:104CA5007ABF791590C808F0A3740CF07F207E4078
:104CB500126DDE90C7FFE4F0A37418F07B017AC78C
:104CC50079FF90C808E4F0A304F07F287E50126DA8
:104CD500DE7B017ABB796690C808E4F0A3740DF019
:104CE5007F307E40126DDE90C7FFE4F0A3741AF0AA
:104CF5007B017AC779FF90C808E4F0A304F07F38F8
:104D05007E50126DDE7B017ABF79DD90C808E4F034
:104D1500A3740CF07440FFFE126DDE90C7FFE4F043
:104D2500A37418F07B017AC779FF90C808E4F0A353
:094D350004F07F487E50126DDE8F
:014D3E002252
:0893F00090C7DBE0FEA3E0FFE3
:1093F800EF64014E701390BC80E070057408F08033
:109408001F90BC80E014F08017EF64024E7011903A
:10941800BC80E0B40804E4F0800690BC80E004F06E
:03942800024535C5
:07855D0090BA2FE0FF7E0041
:1085640090C7FFEEF0A3EFF064014E70151296165B
:108574007F137E9412961A7F237E9412961A7D019D
:10858400803A90C7FFE07004A3E06402700B7F237D
:108594007E9212961A7F53804190C7FFE07004A325
:1085A400E0640370207F537E9412961A7F637E9456
:1085B40012961A7F737E9412961A7D027C007F00B5
:1085C4007E3002965890C7FFE07004A3E064047004
:1085D4000E7F837E9212961A7F937E9212961A22AF
:048F5300AB07AA06B8
:108F57007C007D3C12590390C7DDEEF0A3EFF0AE25
:108F670002AF037C007D3C125903A3ECF0A3EDF0A4
:108F77007B017AC779DD90C808E4F0A304F07F503D
:108F87007E28126DDE7B017AC779DF90C808E4F08E
:0A8F9700A304F07F607E28026DDE67
:088D080090BBF9E0FEA3E0FFBF
:048D1000AB07AA06FD
:108D14007C007D3C12590390C7FFEEF0A3EFF0AE48
:108D240002AF037C007D3C125903A3ECF0A3EDF0E9
:108D34007B017AC779FF90C808E4F0A304F07F00B0
:108D44007E31126DDE7B017AC8790190C808E4F0A7
:0A8D5400A304F07F007E32026DDE02
:10942B0090BB9E7401F07F737E9212961A7F337EEF
:10943B009312961A7F437E9312961A7B017ABB790D
:10944B00F990C804E4F0A304F07F067E811267252F
:09945B007DE87C037F050295F415
:1097BC00E490BB9EF07F737E921296B17F337E93C2
:0A97CC001296B17F437E930296B11E
:1092B30090BB9EE070077F737E920296B17F05128A
:1092C30098A3EF602C90BBFAE024FFF090BBF9E089
:1092D30034FFF0128D0BD390BBFAE0940090BBF9EE
:1092E300E0940050030297BC7DE87C037F05129550
:0292F300F42263
:106C4A00E490C7DBF0A3F07B017ABC798190C80499
:106C5A00F0A304F07F047E811267257B017AC7794D
:106C6A00DB90C804E4F0A304F07F007E811267255C
:106C7A0090C7DBE0FAA3E0FB7C007D64FFAE021262
:106C8A00590390BCD6EEF0A3EFF07C007D0AAF0367
:106C9A00AE021259037C007D0A12590390BADAEC4B
:106CAA00F0A3EDF090C7DBE0FEA3E0FF7C007D0AD5
:106CBA0012590390BEBEECF0A3EDF07B017AC779BE
:106CCA00DB90C804E4F0A304F07F027E81126725FA
:106CDA0090C7DBE0FAA3E0FB7C007D64FFAE021202
:106CEA00590390BC0BEEF0A3EFF07C007D0AAF03D2
:106CFA00AE021259037C007D0A12590390BFB0EC10
:106D0A00F0A3EDF090C7DBE0FEA3E0FF7C007D0A74
:106D1A0012590390BDDCECF0A3EDF07B017ABC794B
:106D2A00AC90C804E4F0A304F07F067E81126725C4
:106D3A0090BCACE0FEA3E0FF128F537B017AC779C7
:106D4A00DB90C804E4F0A304F07F087E8112672573
:106D5A0090C7DBE0FAA3E0FB7C007D0AFFAE0212DB
:106D6A0059037C007D0A12590390BFBDECF0A3EDD4
:106D7A00F07C007D0AAF03AE0212590390BDF5EC18
:106D8A00F0A3EDF07B017AC779DB90C804E4F0A3A5
:106D9A0004F07F0A7E8112672590C7DBE0FAA3E040
:106DAA00FB7C007D0AFFAE021259037C007D0A12A9
:106DBA00590390BF5CECF0A3EDF07C007D0AAF03B1
:106DCA00AE0212590390BCB0ECF0A3EDF07F737ED3
:046DDA00920296B1DA
:0801000090C7DBEEF0A3EFF065
:10010800E4A3F0A3F0A3F0A3F090BA29E0600DE413
:10011800FF1298A3EF6005E490BA29F090C7DBE0DE
:10012800FEA3E0FF64014E6006EF64024E70099082
:10013800BA29E06003023CBB7B017ABA793890C8DF
:1001480004E4F0A304F07F0C7E8012672590BA388F
:10015800A3E0FF7C0030E0047D0180027D0090C7B1
:10016800E1ECF0A3EDF0EF7E0030E1047F018002C6
:100178007F0090C7E3EEF0A3EFF090BA38A3E0FF5A
:100188007C0030E2047D0180027D0090C7F3ECF032
:10019800A3EDF0EF7E0030E3047F0180027F009042
:1001A800C7F5EEF0A3EFF090BA38A3E0FF7C00307B
:1001B800E4047D0180027D0090C7F7ECF0A3EDF028
:1001C800EF7E0030E7047F0180027F0090C7E5EEF4
:1001D800F0A3EFF090BA38E0FEEE7C0030E4047D46
:1001E8000180027D0090C7E7ECF0A3EDF0EE7E0001
:1001F80030E0047F0180027F0090C7E9EEF0A3EFB2
:10020800F090BA38A3E0FF7C0030E5047D0180025D
:100218007D0090C7EBECF0A3EDF0EF7E0030E60434
:100228007F0180027F0090C7EDEEF0A3EFF090BA57
:1002380038E0FEEE7C0030E1047D0180027D009014
:10024800C7EFECF0A3EDF0EE7E0030E2047F018012
:10025800027F0090C7F1EEF0A3EFF090BA38E0FE0D
:10026800EE7C0030E3047D0180027D0090C7F9EC4C
:10027800F0A3EDF0EE7E0030E5047F0180027F0000
:1002880090C7FBEEF0A3EFF090C7EBE07004A3E09B
:040298006401700B82
:09029C0090C7FD74C0F0A3744486
:1002A500801D90C7EFE07004A3E0640190C7FD7066
:0102B5000840
:0602B6007405F0A3741CA6
:0202BC008006BA
:1002BE0074CEF0A37459F07B017AC779FD90C8080B
:0C02CE00E4F0A304F07F237E14126DDE28
:0C02DA0090C7EDE07004A3E06401700B1D
:0902E60090C7FD74C0F0A374443C
:1002EF00801D90C7F1E07004A3E0640190C7FD701A
:0102FF0008F6
:060300007405F0A3741C5B
:0203060080066F
:1003080074CEF0A37459F07B017AC779FD90C808C0
:0C031800E4F0A304F07F337E14126DDECD
:1003240090C7E9E07004A3E06401700F90BF88E017
:10033400700912942B90BF887401F090BB42E0B412
:10034400182990BAA1E07002A3E0701F7B017ABB68
:1003540079F990C804F0A304F07F067E8112672522
:10036400128D0890BAA1E4F0A304F090C7E1E07004
:1003740004A3E06401600302042C90BC4CE070040C
:10038400A3E06401600302042C90BB80E0FF129898
:10039400FA7B017AC779DF90C804E4F0A304F07F04
:1003A400067E8112672590C7DFE0FAA3E0FB7C009C
:1003B4007D3CFFAE0212590390BDCFEEF0A3EFF0E7
:1003C4007C007D3CAF03AE0212590390BA77ECF087
:1003D400A3EDF07B017ABD79CF90C808E4F0A304C3
:1003E400F07F107E21126DDE7B017ABA797790C896
:1003F40008E4F0A304F07F307E21126DDEE490BAAD
:100404002EF090BA2AF0A3F090BA36F0A3F090BA86
:100414002FF090BC4CF0A3F090BF88F090BAA1F0FC
:10042400A3F01297BC0204E590C7E5E07004A3E0D2
:100434006401602690C7EDE07004A3E06401601AD3
:1004440090C7EBE07004A3E064017002800C90C7D5
:10045400E9E07004A3E06401703012000090BC4C29
:10046400E4F0A304F090BB43E0FF1298FAE490BADE
:100474002EF090BA2AF0A3F090BA36F0A3F090BA16
:100484002FF090BC0DF0A3F0805790C7F1E07004FA
:10049400A3E06401600C90C7EFE07004A3E0640182
:1004A400703F12000090BAD8E0FF1298FA1297BC7D
:1004B40090BBF9E07004A3E06401700990BBF9F00B
:1004C400A3F0128D08E490BA2EF090BA2AF0A3F0AB
:1004D40090BA36F0A3F090BA2FF090BC4CF0A3047D
:1004E400F090C7DBE0FEA3E0FFEE6003023CBBEF4D
:1004F40024FE7003021AB214700302326C147003E7
:10050400023C7624036003023CBB90BA36E07004DC
:10051400A3E06401600302199490BF79E0FF90BBEB
:1005240042E06F600302077190BA2BE0600302059A
:10053400E190BEBEE0FEA3E0FF90C7DDEEF0A3EFC6
:10054400F04E700A90BEBEF0A37409F0800E90BE07
:10055400BFE024FFF090BEBEE034FFF090BADAE0D2
:10056400FEA3E0FF7C007D0A1258F1AA06AB0790B7
:10057400BCD6E0FEA3E0FF7D641258F1EF2BFFEE42
:100584003AFE90BEBFE02FFF90BEBEE03E90C7DFB4
:10059400F0A3EFF090BEA5E0FEA3E0FF90C7DFE07C
:1005A400FCA3E0FDD39FEC9E501190BE9DE0FEA302
:1005B400E0FFC3ED9FEC9E4002800F90C7DDE0FF9B
:1005C400A3E090BEBECFF0A3EFF07B017ABE79BE6C
:1005D40090C808E4F0A304F07F700218B590BA2B19
:1005E400E0640160030206A990BADAE0FEA3E0FF2A
:1005F40090C7DDEEF0A3EFF04E700A90BADAF0A3E4
:100604007409F0800E90BADBE024FFF090BADAE0CF
:1006140034FFF090BADAE0FEA3E0FF7C007D0A121A
:1006240058F1AA06AB0790BCD6E0FEA3E0FF7D64B8
:100634001258F1EF2BFFEE3AFE90BEBFE02FFF9071
:10064400BEBEE03E90C7DFF0A3EFF090BEA5E0FE93
:10065400A3E0FF90C7DFE0FCA3E0FDD39FEC9E5036
:100664002290BE9DE0FEA3E0FFC3ED9FEC9E4013ED
:100674007B017ABA79DA90C808E4F0A304F07F60C9
:100684000218B590C7DDE0FFA3E090BADACFF0A37B
:10069400EFF07B017ABA79DA90C808E4F0A304F0A9
:1006A4007F600218B590BA2BE06402600302325DE9
:1006B40090BCD6E0FEA3E0FF90C7DDEEF0A3EFF020
:1006C4004E700A90BCD6F0A37402F0800E90BCD792
:1006D400E024FFF090BCD6E034FFF090BADAE0FEFC
:1006E400A3E0FF7C007D0A1258F1AA06AB0790BC78
:1006F400D6E0FEA3E0FF7D641258F1EF2BFFEE3A43
:10070400FE90BEBFE02FFF90BEBEE03E90C7DFF07C
:10071400A3EFF090BEA5E0FEA3E0FF90C7DFE0FCEE
:10072400A3E0FDD39FEC9E502290BE9DE0FEA3E08B
:10073400FFC3ED9FEC9E40137B017ABC79D690C831
:1007440008E4F0A304F07F500218B590C7DDE0FF81
:10075400A3E090BCD6CFF0A3EFF07B017ABC79D6AE
:1007640090C808E4F0A304F07F500218B590BFBC11
:10077400E0FF90BB42E06F60030208BC90BA2BE03C
:10078400600302081890BDF5E0FEA3E0FF90C7DD0A
:10079400EEF0A3EFF04E700A90BDF5F0A37409F0EB
:1007A400800E90BDF6E024FFF090BDF5E034FFF03C
:1007B40090BFBDE0FEA3E0FF7C007D0A1258F190DB
:1007C400BDF6E02FFF90BDF5E03E90C7DFF0A3EF4C
:1007D400F090C7DFE0FEA3E0FFD39450EE94005006
:1007E4001BEF9400EE940040137B017ABD79F590E1
:1007F400C808E4F0A304F07F000218B590C7DDE058
:10080400FFA3E090BDF5CFF0A3EFF07B017ABD79B3
:10081400F502097B90BA2BE06401600302325D901B
:10082400BFBDE0FEA3E0FF90C7DDEEF0A3EFF04E06
:10083400700A90BFBDF0A37408F0800E90BFBEE0B4
:1008440024FFF090BFBDE034FFF090BFBDE0FEA3F5
:10085400E0FF7C007D0A1258F190BDF6E02FFF9076
:10086400BDF5E03E90C7DFF0A3EFF090C7DFE0FEF8
:10087400A3E0FFD39450EE9400501BEF9400EE9449
:100884000040137B017ABF79BD90C808E4F0A3044B
:10089400F07F900218B590C7DDE0FFA3E090BFBDE4
:1008A400CFF0A3EFF07B017ABF79BD90C808E4F0E4
:1008B400A304F07F900218B590BB85E0FF90BB4283
:1008C400E06F6003020B1690BA2BE0600302098804
:1008D40090BA30E0FEA3E0FF90C7DDEEF0A3EFF0A6
:1008E4004E700A90BA30F0A37402F0800E90BA31C0
:1008F400E024FFF090BA30E034FFF090BA32E0FE2A
:10090400A3E0FF7C007D0A1258F1AA06AB0790BA57
:1009140030E0FEA3E0FF7D641258F1EF2BFFEE3AC6
:10092400FE90BA35E02FFF90BA34E03E90C7DFF076
:10093400A3EFF090C7DFE0FEA3E0FFD39432EE9480
:1009440000501FEF9400EE9400401790BA30E0FF7F
:10095400A3E090BF01CFF0A3EFF07B017ABA793026
:10096400801590C7DDE0FFA3E090BA30CFF0A3EF8D
:10097400F07B017ABA793090C808E4F0A304F07FE0
:100984000002126E90BA2BE064016003020A5290D6
:10099400BA32E0FEA3E0FF90C7DDEEF0A3EFF04E25
:1009A400700A90BA32F0A37405F0800E90BA33E066
:1009B40024FFF090BA32E034FFF090BA32E0FEA3A4
:1009C400E0FF7C007D0A1258F1AA06AB0790BA300A
:1009D400E0FEA3E0FF7D641258F1EF2BFFEE3AFE38
:1009E40090BA35E02FFF90BA34E03E90C7DFF0A311
:1009F400EFF090C7DFE0FEA3E0FFD39432EE940063
:100A0400502AEF9400EE9400402290BA32E0FFA303
:100A1400E090BCE7CFF0A3EFF07B017ABA79329093
:100A2400C808E4F0A304F07F1002126E90C7DDE062
:100A3400FFA3E090BA32CFF0A3EFF07B017ABA794A
:100A44003290C808E4F0A304F07F1002126E90BA4A
:100A54002BE06402600302325D90BA34E0FEA3E04E
:100A6400FF90C7DDEEF0A3EFF04E700A90BA34F0B9
:100A7400A37409F0800E90BA35E024FFF090BA34E4
:100A8400E034FFF090BA32E0FEA3E0FF7C007D0A80
:100A94001258F1AA06AB0790BA30E0FEA3E0FF7D3E
:100AA400641258F1EF2BFFEE3AFE90BA34E0FCA347
:100AB400E0FD2FFFEC3E90C7DFF0A3EFF090C7DF1F
:100AC400E0FEA3E0FFD39432EE94005023EF9400B1
:100AD400EE9400401B90BCB6ECF0A3EDF07B017AE1
:100AE400BA793490C808E4F0A304F07F2002126EAF
:100AF40090C7DDE0FFA3E090BA34CFF0A3EFF07B22
:100B0400017ABA793490C808E4F0A304F07F200293
:100B1400126E90BEDDE0FF90BB42E06F6003020DF9
:100B24007B90BA2BE06003020BEB90BDDCE0FEA3EC
:100B3400E0FF90C7DDEEF0A3EFF04E700A90BDDC4D
:100B4400F0A37409F0800E90BDDDE024FFF090BDA9
:100B5400DCE034FFF090BFB0E0FEA3E0FF7C007D5A
:100B64000A1258F1AA06AB0790BC0BE0FEA3E0FF03
:100B74007D641258F1EF2BFFEE3AFE90BDDDE02FBD
:100B8400FF90BDDCE03E90C7DFF0A3EFF090BDF234
:100B9400E0FEA3E0FF90C7DFE0FCA3E0FDD39FEC01
:100BA4009E502290BDD1E0FEA3E0FFC3ED9FEC9EDA
:100BB40040137B017ABD79DC90C808E4F0A304F00B
:100BC4007F8002126E90C7DDE0FFA3E090BDDCCF12
:100BD400F0A3EFF07B017ABD79DC90C808E4F0A3C0
:100BE40004F07F8002126E90BA2BE064016003026D
:100BF4000CB390BFB0E0FEA3E0FF90C7DDEEF0A31E
:100C0400EFF04E700A90BFB0F0A37409F0800E901C
:100C1400BFB1E024FFF090BFB0E034FFF090BFB06C
:100C2400E0FEA3E0FF7C007D0A1258F1AA06AB07A0
:100C340090BC0BE0FEA3E0FF7D641258F1EF2BFFA4
:100C4400EE3AFE90BDDDE02FFF90BDDCE03E90C7A4
:100C5400DFF0A3EFF090BDF2E0FEA3E0FF90C7DF6A
:100C6400E0FCA3E0FDD39FEC9E502290BDD1E0FEBA
:100C7400A3E0FFC3ED9FEC9E40137B017ABF79B0E4
:100C840090C808E4F0A304F07F7002126E90C7DDF0
:100C9400E0FFA3E090BFB0CFF0A3EFF07B017ABFF9
:100CA40079B090C808E4F0A304F07F7002126E904B
:100CB400BA2BE06402600302325D90BC0BE0FEA339
:100CC400E0FF90C7DDEEF0A3EFF04E700A90BC0B8E
:100CD400F0A37402F0800E90BC0CE024FFF090BCF2
:100CE4000BE034FFF090BFB0E0FEA3E0FF7C007D9A
:100CF4000A1258F1AA06AB0790BC0BE0FEA3E0FF72
:100D04007D641258F1EF2BFFEE3AFE90BDDDE02F2B
:100D1400FF90BDDCE03E90C7DFF0A3EFF090BDF2A2
:100D2400E0FEA3E0FF90C7DFE0FCA3E0FDD39FEC6F
:100D34009E502290BDD1E0FEA3E0FFC3ED9FEC9E48
:100D440040137B017ABC790B90C808E4F0A304F04B
:100D54007F6002126E90C7DDE0FFA3E090BC0BCF72
:100D6400F0A3EFF07B017ABC790B90C808E4F0A300
:100D740004F07F6002126E90BF6CE0FF90BB42E013
:100D84006F6003020EBF90BA2BE06003020E1B904B
:100D9400BCB0E0FEA3E0FF90C7DDEEF0A3EFF04EA1
:100DA400700A90BCB0F0A37409F0800E90BCB1E05E
:100DB40024FFF090BCB0E034FFF090BF5CE0FEA3F1
:100DC400E0FF7C007D0A1258F190BCB1E02FFF9047
:100DD400BCB0E03E90C7DFF0A3EFF090C7DFE0FEC9
:100DE400A3E0FFD39450EE9400500AEF9400EE94E5
:100DF400004002800F90C7DDE0FFA3E090BCB0CFBD
:100E0400F0A3EFF07B017ABC79B090C808E4F0A3BA
:100E140004F07F100211BA90BA2BE064016003025F
:100E2400325D90BF5CE0FEA3E0FF90C7DDEEF0A36F
:100E3400EFF04E700A90BF5CF0A37408F0800E903F
:100E4400BF5DE024FFF090BF5CE034FFF090BF5C36
:100E5400E0FEA3E0FF7C007D0A1258F190BCB1E0F3
:100E64002FFF90BCB0E03E90C7DFF0A3EFF090C737
:100E7400DFE0FEA3E0FFD39450EE9400501BEF9408
:100E840000EE940040137B017ABF795C90C808E4BB
:100E9400F0A304F07F000211BA90C7DDE0FFA3E0E5
:100EA40090BF5CCFF0A3EFF07B017ABF795C90C870
:100EB40008E4F0A304F07F000211BA90BAD9E0FF6D
:100EC40090BB42E06F600302110F90BA2BE0600305
:100ED400020F8090BA30E0FEA3E0FF90C7DDEEF091
:100EE400A3EFF064024E700890BA30F0A3F0800EC5
:100EF40090BA31E024FFF090BA30E034FFF090BAB9
:100F040032E0FEA3E0FF7C007D0A1258F1AA06AB92
:100F14000790BA30E0FEA3E0FF7D641258F1EF2B96
:100F2400FFEE3AFE90BA35E02FFF90BA34E03E90DF
:100F3400C7DFF0A3EFF090C7DFE0FEA3E0FFD39498
:100F440032EE94005014EF9400EE9400400C90BAEA
:100F540030E0FFA3E090BF07800A90C7DDE0FFA365
:100F6400E090BA30CFF0A3EFF07B017ABA793090F9
:100F7400C808E4F0A304F07F0002110A90BA2BE041
:100F84006401600302104A90BA32E0FEA3E0FF90CD
:100F9400C7DDEEF0A3EFF04E700A90BA32F0A374FE
:100FA40005F0800E90BA33E024FFF090BA32E034BA
:100FB400FFF090BA32E0FEA3E0FF7C007D0A1258F5
:100FC400F1AA06AB0790BA30E0FEA3E0FF7D6412FD
:100FD40058F1EF2BFFEE3AFE90BA35E02FFF90BAAE
:100FE40034E03E90C7DFF0A3EFF090C7DFE0FEA34C
:100FF400E0FFD39432EE9400502AEF9400EE940074
:10100400402290BA32E0FFA3E090BCEDCFF0A3EF12
:10101400F07B017ABA793290C808E4F0A304F07F37
:101024001002110A90C7DDE0FFA3E090BA32CFF0BE
:10103400A3EFF07B017ABA793290C808E4F0A304F4
:10104400F07F1002110A90BA2BE0640260030232AE
:101054005D90BA34E0FEA3E0FF90C7DDEEF0A3EFAD
:10106400F04E700A90BA34F0A37409F0800E90BA6E
:1010740035E024FFF090BA34E034FFF090BA32E067
:10108400FEA3E0FF7C007D0A1258F1AA06AB07908C
:10109400BA30E0FEA3E0FF7D641258F1EF2BFFEEBF
:1010A4003AFE90BA34E0FCA3E0FD2FFFEC3E90C77B
:1010B400DFF0A3EFF090C7DFE0FEA3E0FFD39432AC
:1010C400EE94005022EF9400EE9400401A90BCBCC1
:1010D400ECF0A3EDF07B017ABA793490C808E4F01F
:1010E400A304F07F20801F90C7DDE0FFA3E090BA47
:1010F40034CFF0A3EFF07B017ABA793490C808E4D6
:10110400F0A304F07F207E2502198E90BF4DE0FFEE
:1011140090BB42E06F600302129790BA2BE0600329
:101124000211E390BDCFE0FEA3E0FF90C7DDEEF037
:10113400A3EFF04E701D90BA77E07002A3E090BD6B
:10114400CF6008E4F0A3743BF08016E4F0A3743C91
:10115400F0800E90BDD0E024FFF090BDCFE034FFCE
:10116400F090BDCFE0FEA3E0FF7C007D3C1258F17F
:1011740090BA78E02FFF90BA77E03E90C7DFF0A3F3
:10118400EFF090BEC0E0FEA3E0FF90C7DFE0FCA359
:10119400E0FDD39FEC9E502390BEB5E0FEA3E0FF9C
:1011A400ED9FEC9E40157B017ABD79CF90C808E491
:1011B400F0A304F07F707E2302198E90C7DDE0FF58
:1011C400A3E090BDCFCFF0A3EFF07B017ABD79CF40
:1011D40090C808E4F0A304F07F707E2302198E9077
:1011E400BA2BE06401600302325D90BA77E0FEA39B
:1011F400E0FF90C7DDEEF0A3EFF04E700A90BA77EF
:10120400F0A3743BF0800E90BA78E024FFF090BA1B
:1012140077E034FFF090BDCFE0FEA3E0FF7C007DDB
:101224003C1258F190BA78E02FFF90BA77E03E90E4
:10123400C7DFF0A3EFF090BEC0E0FEA3E0FF90C7CD
:10124400DFE0FCA3E0FDD39FEC9E502390BEB5E00D
:10125400FEA3E0FFED9FEC9E40157B017ABA7977FF
:1012640090C808E4F0A304F07F807E2202198E90D7
:10127400C7DDE0FFA3E090BA77CFF0A3EFF07B01E6
:101284007ABA797790C808E4F0A304F07F807E22CC
:1012940002198E90BE9CE0FF90BB42E06F704290BA
:1012A400BA2BE0600302325D90BFA3E0FEA3E0FF2F
:1012B400D390BC82E09F90BC81E09E500302325DDB
:1012C400A3E024FFF090BC81E034FFF07B017ABC02
:1012D400798190C808E4F0A304F07F007E24021909
:1012E4008E90BAD5E0FF90BB42E06F600302325D9E
:1012F40090BA2FE06401600302156190BA2BE0609C
:10130400030213C990BEBEE0FEA3E0FF90C7DDEE6A
:10131400F0A3EFF04E700A90BEBEF0A37409F08003
:101324000E90BEBFE024FFF090BEBEE034FFF0900C
:10133400BADAE0FEA3E0FF7C007D0A1258F1AA06A7
:10134400AB0790BCD6E0FEA3E0FF7D641258F1EF3A
:101354002BFFEE3AFE90BEBFE02FFF90BEBEE03EF4
:1013640090C7DFF0A3EFF090BEA5E0FEA3E0FF90EE
:10137400C7DFE0FCA3E0FDD39FEC9E502490BE9D0C
:10138400E0FEA3E0FFC3ED9FEC9E40157B017ABE17
:1013940079BE90C808E4F0A304F07F307E200219DF
:1013A4008E90C7DDE0FFA3E090BEBECFF0A3EFF0C8
:1013B4007B017ABE79BE90C808E4F0A304F07F30C4
:1013C4007E2002198E90BA2BE0640160030214950A
:1013D40090BADAE0FEA3E0FF90C7DDEEF0A3EFF0F1
:1013E4004E700A90BADAF0A37409F0800E90BADB5A
:1013F400E024FFF090BADAE034FFF090BADAE0FECD
:10140400A3E0FF7C007D0A1258F1AA06AB0790BC4A
:10141400D6E0FEA3E0FF7D641258F1EF2BFFEE3A15
:10142400FE90BEBFE02FFF90BEBEE03E90C7DFF04F
:10143400A3EFF090BEA5E0FEA3E0FF90C7DFE0FCC1
:10144400A3E0FDD39FEC9E502490BE9DE0FEA3E05C
:10145400FFC3ED9FEC9E40157B017ABA79DA90C800
:1014640008E4F0A304F07F107E2002198E90C7DDFB
:10147400E0FFA3E090BADACFF0A3EFF07B017ABAF1
:1014840079DA90C808E4F0A304F07F107E200219F2
:101494008E90BA2BE06402600302325D90BCD6E009
:1014A400FEA3E0FF90C7DDEEF0A3EFF04E700A90CC
:1014B400BCD6F0A37402F0800E90BCD7E024FFF0F9
:1014C40090BCD6E034FFF090BADAE0FEA3E0FF7CF3
:1014D400007D0A1258F1AA06AB0790BCD6E0FEA321
:1014E400E0FF7D641258F1EF2BFFEE3AFE90BEBF91
:1014F400E02FFF90BEBEE03E90C7DFF0A3EFF09078
:10150400BEA5E0FEA3E0FF90C7DFE0FCA3E0FDD3AF
:101514009FEC9E502490BE9DE0FEA3E0FFC3ED9F90
:10152400EC9E40157B017ABC79D690C808E4F0A300
:1015340004F07F007E2002198E90C7DDE0FFA3E057
:1015440090BCD6CFF0A3EFF07B017ABC79D690C8DB
:1015540008E4F0A304F07F007E2002198E90BA2FD5
:10156400E0B4023990BFA3E0FEA3E0FFD390BC82B5
:10157400E09F90BC81E09E500302325DA3E024FF13
:10158400F090BC81E034FFF07B017ABC798190C893
:1015940008E4F0A304F07F507E2002198E90BA2F45
:1015A400E06403600302180E90BA2BE06003021695
:1015B4007690BDDCE0FEA3E0FF90C7DDEEF0A3EF84
:1015C400F04E700A90BDDCF0A37409F0800E90BD5B
:1015D400DDE024FFF090BDDCE034FFF090BFB0E02C
:1015E400FEA3E0FF7C007D0A1258F1AA06AB079027
:1015F400BC0BE0FEA3E0FF7D641258F1EF2BFFEE7D
:101604003AFE90BDDDE02FFF90BDDCE03E90C7DFE9
:10161400F0A3EFF090BDF2E0FEA3E0FF90C7DFE09F
:10162400FCA3E0FDD39FEC9E502490BDD1E0FEA32B
:10163400E0FFC3ED9FEC9E40157B017ABD79DC9001
:10164400C808E4F0A304F07F807E2002198E90C7BE
:10165400DDE0FFA3E090BDDCCFF0A3EFF07B017AE7
:10166400BD79DC90C808E4F0A304F07F807E2002FA
:10167400198E90BA2BE06401600302174290BFB048
:10168400E0FEA3E0FF90C7DDEEF0A3EFF04E700A9A
:1016940090BFB0F0A37409F0800E90BFB1E024FFB6
:1016A400F090BFB0E034FFF090BFB0E0FEA3E0FFE5
:1016B4007C007D0A1258F1AA06AB0790BC0BE0FE31
:1016C400A3E0FF7D641258F1EF2BFFEE3AFE90BDCC
:1016D400DDE02FFF90BDDCE03E90C7DFF0A3EFF02C
:1016E40090BDF2E0FEA3E0FF90C7DFE0FCA3E0FDC5
:1016F400D39FEC9E502490BDD1E0FEA3E0FFC3ED48
:101704009FEC9E40157B017ABF79B090C808E4F045
:10171400A304F07F707E2002198E90C7DDE0FFA342
:10172400E090BFB0CFF0A3EFF07B017ABF79B09027
:10173400C808E4F0A304F07F707E2002198E90BAEA
:101744002BE06402600302325D90BC0BE0FEA3E078
:10175400FF90C7DDEEF0A3EFF04E700A90BC0BF0E3
:10176400A37402F0800E90BC0CE024FFF090BC0B3C
:10177400E034FFF090BFB0E0FEA3E0FF7C007D0A00
:101784001258F1AA06AB0790BC0BE0FEA3E0FF7D64
:10179400641258F1EF2BFFEE3AFE90BDDDE02FFF0F
:1017A40090BDDCE03E90C7DFF0A3EFF090BDF2E027
:1017B400FEA3E0FF90C7DFE0FCA3E0FDD39FEC9E17
:1017C400502490BDD1E0FEA3E0FFC3ED9FEC9E400A
:1017D400157B017ABC790B90C808E4F0A304F07F70
:1017E400607E2002198E90C7DDE0FFA3E090BC0B61
:1017F400CFF0A3EFF07B017ABC790B90C808E4F03A
:10180400A304F07F607E2002198E90BA2FE0640456
:10181400600302325D90BA2BE060030218DE90BDD3
:10182400CFE0FEA3E0FF90C7DDEEF0A3EFF04E7033
:101834001D90BA77E07002A3E090BDCF6008E4F099
:10184400A3743BF08016E4F0A3743CF0800E90BDCA
:10185400D0E024FFF090BDCFE034FFF090BDCFE0A6
:10186400FEA3E0FF7C007D3C1258F190BA78E02F93
:10187400FF90BA77E03E90C7DFF0A3EFF090BEC0D0
:10188400E0FEA3E0FF90C7DFE0FCA3E0FDD39FEC04
:101894009E502390BEB5E0FEA3E0FFED9FEC9E407A
:1018A400157B017ABD79CF90C808E4F0A304F07FDA
:1018B400107E2102198E90C7DDE0FFA3E090BDCF1A
:1018C400CFF0A3EFF07B017ABD79CF90C808E4F0A4
:1018D400A304F07F107E2102198E90BA2BE06401DC
:1018E400600302325D90BA77E0FEA3E0FF90C7DDAB
:1018F400EEF0A3EFF04E700A90BA77F0A3743BF0C9
:10190400800E90BA78E024FFF090BA77E034FFF0CC
:1019140090BDCFE0FEA3E0FF7C007D3C1258F19027
:10192400BA78E02FFF90BA77E03E90C7DFF0A3EFDC
:10193400F090BEC0E0FEA3E0FF90C7DFE0FCA3E0B0
:10194400FDD39FEC9E502290BEB5E0FEA3E0FFEDD8
:101954009FEC9E40147B017ABA797790C808E4F032
:10196400A304F07F307E21802190C7DDE0FFA3E057
:1019740090BA77CFF0A3EFF07B017ABA797790C869
:1019840008E4F0A304F07F307E21126DDE02325DA4
:1019940090BA2EE06401702890BA36E07002A3E099
:1019A400600302325D12000090BA2FE0B4010574A6
:1019B40004F0800690BA2FE014F012855D02325DC7
:1019C40090BB42E0FFD394014008EFD39407500248
:1019D400804490BEB8E0FF90BB42E0B5070B90BED8
:1019E400DCE0FF90BB42F0803290BA2CE0640170DE
:1019F4002F90BCE2E0FF90BB42E0B5070590BD7FAD
:101A0400803C90BB87E0FF90BB42E0B5070590BCEB
:101A1400E2802B90BB42E014F0E0FF12950C80347E
:101A240090BA2DE0B4011E90BB21E0FF90BB42E0D0
:101A3400B5070590BCE2800690BB42E014F0E0FFDD
:101A44001298FA800F90BC17E0FF90BB42E0B507F4
:101A5400031293F090BB5AE0FF90BB42E0B5070637
:101A640012529802325D90BDF4E0FF90BB42E0B5A3
:101A7400070612796F02325D90BEB0E0FF90BB4260
:101A8400E0B50706128DB302325D90BD5CE0FF90B5
:101A9400BB42E0B50706128E0802325D90BCAFE08F
:101AA400FF90BB42E0B507031285E402325D90BAB1
:101AB40036E07004A3E064016003022F9390BF79C1
:101AC400E0FF90BB42E06F6003021D1890BA2BE068
:101AD4006003021B8690BEBEE0FEA3E0FF90C7DD5C
:101AE400EEF0A3EFF064094E601090BEBFE004F086
:101AF400700F90BEBEE004F08007E490BEBEF0A379
:101B0400F090BADAE0FEA3E0FF7C007D0A1258F1FF
:101B1400AA06AB0790BCD6E0FEA3E0FF7D64125892
:101B2400F1EF2BFFEE3AFE90BEBFE02FFF90BEBE5A
:101B3400E03E90C7DFF0A3EFF090BEA5E0FEA3E087
:101B4400FF90C7DFE0FCA3E0FDD39FEC9E50119013
:101B5400BE9DE0FEA3E0FFC3ED9FEC9E4002800F1C
:101B640090C7DDE0FFA3E090BEBECFF0A3EFF07B13
:101B7400017ABE79BE90C808E4F0A304F07F700235
:101B84002EB590BA2BE064016003021C4F90BADAC0
:101B9400E0FEA3E0FF90C7DDEEF0A3EFF064094E92
:101BA400601090BADBE004F0700F90BADAE004F051
:101BB4008007E490BADAF0A3F090BADAE0FEA3E08A
:101BC400FF7C007D0A1258F1AA06AB0790BCD6E050
:101BD400FEA3E0FF7D641258F1EF2BFFEE3AFE9076
:101BE400BEBFE02FFF90BEBEE03E90C7DFF0A3EF84
:101BF400F090BEA5E0FEA3E0FF90C7DFE0FCA3E009
:101C0400FDD39FEC9E502290BE9DE0FEA3E0FFC357
:101C1400ED9FEC9E40137B017ABA79DA90C808E410
:101C2400F0A304F07F60022EB590C7DDE0FFA3E0CF
:101C340090BADACFF0A3EFF07B017ABA79DA90C8E0
:101C440008E4F0A304F07F60022EB590BA2BE064A0
:101C540002600302325D90BCD6E0FEA3E0FF90C7B1
:101C6400DDEEF0A3EFF064024E601090BCD7E00408
:101C7400F0700F90BCD6E004F08007E490BCD6F07E
:101C8400A3F090BADAE0FEA3E0FF7C007D0A1258CC
:101C9400F1AA06AB0790BCD6E0FEA3E0FF7D641278
:101CA40058F1EF2BFFEE3AFE90BEBFE02FFF90BE3F
:101CB400BEE03E90C7DFF0A3EFF090BEA5E0FEA328
:101CC400E0FF90C7DFE0FCA3E0FDD39FEC9E502231
:101CD40090BE9DE0FEA3E0FFC3ED9FEC9E40137B0E
:101CE400017ABC79D690C808E4F0A304F07F5002CE
:101CF4002EB590C7DDE0FFA3E090BCD6CFF0A3EFF4
:101D0400F07B017ABC79D690C808E4F0A304F07F94
:101D140050022EB590BFBCE0FF90BB42E06F600361
:101D2400021E5390BA2BE06003021DAF90BDF5E094
:101D3400FEA3E0FF90C7DDEEF0A3EFF064094E6070
:101D44001090BDF6E004F0700F90BDF5E004F08053
:101D540007E490BDF5F0A3F090BFBDE0FEA3E0FF63
:101D64007C007D0A1258F190BDF6E02FFF90BDF57E
:101D7400E03E90C7DFF0A3EFF090C7DFE0FEA3E002
:101D8400FFD39450EE9400500AEF9400EE94004078
:101D940002800F90C7DDE0FFA3E090BDF5CFF0A374
:101DA400EFF07B017ABD79F5021F1290BA2BE06443
:101DB40001600302325D90BFBDE0FEA3E0FF90C767
:101DC400DDEEF0A3EFF064084E700890BFBDF0A301
:101DD400F0800E90BFBEE004F0700690BFBDE0043A
:101DE400F090BFBDE0FEA3E0FF7C007D0A1258F135
:101DF40090BDF6E02FFF90BDF5E03E90C7DFF0A365
:101E0400EFF090C7DFE0FEA3E0FFD39450EE940020
:101E1400501BEF9400EE940040137B017ABF79BD10
:101E240090C808E4F0A304F07F90022EB590C7DDBB
:101E3400E0FFA3E090BFBDCFF0A3EFF07B017ABF3A
:101E440079BD90C808E4F0A304F07F90022EB59009
:101E5400BB85E0FF90BB42E06F60030220AD90BA07
:101E64002BE06003021F1F90BA30E0FEA3E0FF9056
:101E7400C7DDEEF0A3EFF064094E700890BA30F0BD
:101E8400A3F0800E90BA31E004F0700690BA30E00E
:101E940004F090BA32E0FEA3E0FF7C007D0A125801
:101EA400F1AA06AB0790BA30E0FEA3E0FF7D64120E
:101EB40058F1EF2BFFEE3AFE90BA35E02FFF90BABF
:101EC40034E03E90C7DFF0A3EFF090C7DFE0FEA35D
:101ED400E0FFD39432EE9400501FEF9400EE940090
:101EE400401790BA30E0FFA3E090BF01CFF0A3EF1A
:101EF400F07B017ABA7930801590C7DDE0FFA3E06A
:101F040090BA30CFF0A3EFF07B017ABA793090C861
:101F140008E4F0A304F07F0002231190BA2BE064DC
:101F2400016003021FE990BA32E0FEA3E0FF90C70C
:101F3400DDEEF0A3EFF064054E700890BA32F0A322
:101F4400F0800E90BA33E004F0700690BA32E004E8
:101F5400F090BA32E0FEA3E0FF7C007D0A1258F153
:101F6400AA06AB0790BA30E0FEA3E0FF7D641258E6
:101F7400F1EF2BFFEE3AFE90BA35E02FFF90BA3422
:101F8400E03E90C7DFF0A3EFF090C7DFE0FEA3E0F0
:101F9400FFD39432EE9400502AEF9400EE94004064
:101FA4002290BA32E0FFA3E090BCE7CFF0A3EFF0B9
:101FB4007B017ABA793290C808E4F0A304F07F1068
:101FC40002231190C7DDE0FFA3E090BA32CFF0A363
:101FD400EFF07B017ABA793290C808E4F0A304F0F8
:101FE4007F1002231190BA2BE06402600302325D79
:101FF40090BA34E0FEA3E0FF90C7DDEEF0A3EFF06B
:1020040064094E700890BA34F0A3F0800E90BA358B
:10201400E004F0700690BA34E004F090BA32E0FEC6
:10202400A3E0FF7C007D0A1258F1AA06AB0790BA20
:1020340030E0FEA3E0FF7D641258F1EF2BFFEE3A8F
:10204400FE90BA34E0FCA3E0FD2FFFEC3E90C7DF26
:10205400F0A3EFF090C7DFE0FEA3E0FFD39432EEED
:1020640094005023EF9400EE9400401B90BCB6EC17
:10207400F0A3EDF07B017ABA793490C808E4F0A3B8
:1020840004F07F2002231190C7DDE0FFA3E090BAA3
:1020940034CFF0A3EFF07B017ABA793490C808E426
:1020A400F0A304F07F2002231190BEDDE0FF90BB7B
:1020B40042E06F600302231690BA2BE06003022112
:1020C4008390BDDCE0FEA3E0FF90C7DDEEF0A3EF5C
:1020D400F064094E601090BDDDE004F0700F90BD17
:1020E400DCE004F08007E490BDDCF0A3F090BFB026
:1020F400E0FEA3E0FF7C007D0A1258F1AA06AB07BC
:1021040090BC0BE0FEA3E0FF7D641258F1EF2BFFBF
:10211400EE3AFE90BDDDE02FFF90BDDCE03E90C7BF
:10212400DFF0A3EFF090BDF2E0FEA3E0FF90C7DF85
:10213400E0FCA3E0FDD39FEC9E502290BDD1E0FED5
:10214400A3E0FFC3ED9FEC9E40137B017ABD79DCD5
:1021540090C808E4F0A304F07F8002231190C7DD47
:10216400E0FFA3E090BDDCCFF0A3EFF07B017ABDEC
:1021740079DC90C808E4F0A304F07F800223119076
:10218400BA2BE06401600302224C90BFB0E0FEA3CE
:10219400E0FF90C7DDEEF0A3EFF064094E6010900D
:1021A400BFB1E004F0700F90BFB0E004F08007E42A
:1021B40090BFB0F0A3F090BFB0E0FEA3E0FF7C00BE
:1021C4007D0A1258F1AA06AB0790BC0BE0FEA3E00F
:1021D400FF7D641258F1EF2BFFEE3AFE90BDDDE077
:1021E4002FFF90BDDCE03E90C7DFF0A3EFF090BD81
:1021F400F2E0FEA3E0FF90C7DFE0FCA3E0FDD39F85
:10220400EC9E502290BDD1E0FEA3E0FFC3ED9FEC15
:102214009E40137B017ABF79B090C808E4F0A30410
:10222400F07F7002231190C7DDE0FFA3E090BFB000
:10223400CFF0A3EFF07B017ABF79B090C808E4F047
:10224400A304F07F7002231190BA2BE064026003B0
:1022540002325D90BC0BE0FEA3E0FF90C7DDEEF020
:10226400A3EFF064024E601090BC0CE004F0700F19
:1022740090BC0BE004F08007E490BC0BF0A3F0905A
:10228400BFB0E0FEA3E0FF7C007D0A1258F1AA066D
:10229400AB0790BC0BE0FEA3E0FF7D641258F1EFA6
:1022A4002BFFEE3AFE90BDDDE02FFF90BDDCE03E5B
:1022B40090C7DFF0A3EFF090BDF2E0FEA3E0FF9043
:1022C400C7DFE0FCA3E0FDD39FEC9E502190BDD17D
:1022D400E0FEA3E0FFC3ED9FEC9E40127B017ABCBD
:1022E400790B90C808E4F0A304F07F60801F90C7C6
:1022F400DDE0FFA3E090BC0BCFF0A3EFF07B017A0D
:10230400BC790B90C808E4F0A304F07F607E22023D
:10231400325A90BF6CE0FF90BB42E06F600302242E
:102324007390BA2BE060030223CB90BCB0E0FEA311
:10233400E0FF90C7DDEEF0A3EFF064094E70089063
:10234400BCB0F0A3F0800E90BCB1E004F070069035
:10235400BCB0E004F090BF5CE0FEA3E0FF7C007D35
:102364000A1258F190BCB1E02FFF90BCB0E03E904F
:10237400C7DFF0A3EFF090C7DFE0FEA3E0FFD39444
:1023840050EE9400501DEF9400EE940040157B0134
:102394007ABC79B090C808E4F0A304F07F107E23DF
:1023A40002325A90C7DDE0FFA3E090BCB0CFF0A3A7
:1023B400EFF07B017ABC79B090C808E4F0A304F094
:1023C4007F107E2302325A90BA2BE064016003022C
:1023D400325D90BF5CE0FEA3E0FF90C7DDEEF0A3AA
:1023E400EFF064084E700890BF5CF0A3F0800E908C
:1023F400BF5DE004F0700690BF5CE004F090BF5C49
:10240400E0FEA3E0FF7C007D0A1258F190BCB1E02D
:102414002FFF90BCB0E03E90C7DFF0A3EFF090C771
:10242400DFE0FEA3E0FFD39450EE9400501DEF9440
:1024340000EE940040157B017ABF795C90C808E4F3
:10244400F0A304F07F007E2302325A90C7DDE0FF40
:10245400A3E090BF5CCFF0A3EFF07B017ABF795C7F
:1024640090C808E4F0A304F07F007E2302325A905F
:10247400BAD9E0FF90BB42E06F60030226E490BA51
:102484002BE0600302254E90BA30E0FEA3E0FF90FB
:10249400C7DDEEF0A3EFF064094E700890BA30F097
:1024A400A3F0800E90BA31E004F0700690BA30E0E8
:1024B40004F090BA32E0FEA3E0FF7C007D0A1258DB
:1024C400F1AA06AB0790BA30E0FEA3E0FF7D6412E8
:1024D40058F1EF2BFFEE3AFE90BA35E02FFF90BA99
:1024E40034E03E90C7DFF0A3EFF090C7DFE0FEA337
:1024F400E0FFD39432EE9400502CEF9400EE94005D
:10250400402490BA30E0FFA3E090BF07CFF0A3EFE0
:10251400F07B017ABA793090C808E4F0A304F07F24
:10252400007E2502325A90C7DDE0FFA3E090BA3066
:10253400CFF0A3EFF07B017ABA793090C808E4F0C9
:10254400A304F07F007E2502325A90BA2BE0640186
:10255400600302261C90BA32E0FEA3E0FF90C7DDC0
:10256400EEF0A3EFF064054E700890BA32F0A3F0D9
:10257400800E90BA33E004F0700690BA32E004F0B2
:1025840090BA32E0FEA3E0FF7C007D0A1258F1AA63
:1025940006AB0790BA30E0FEA3E0FF7D641258F169
:1025A400EF2BFFEE3AFE90BA35E02FFF90BA34E0FD
:1025B4003E90C7DFF0A3EFF090C7DFE0FEA3E0FF9B
:1025C400D39432EE9400502CEF9400EE9400402407
:1025D40090BA32E0FFA3E090BCEDCFF0A3EFF07B24
:1025E400017ABA793290C808E4F0A304F07F107E2F
:1025F4002502325A90C7DDE0FFA3E090BA32CFF053
:10260400A3EFF07B017ABA793290C808E4F0A3040E
