:030000000276E69F
:0800F800FFFF4457494E543547
:1076E600759401759502758E0075930075C8707551
:1076F600C96075F80075F90175A80075B800759A26
:107706000075A90075B90053D0E7787FE4F6D8FD77
:107716009080007F007E80E4F0A3DFFCDEFA7581B6
:047726001B02776566
:105CC60090C36CEEF0A3EFF0A3EBF0A3EAF0A3E928
:015CD600F0DD
:105CD700E490C373F0A3F0A3F0A3F0A3F0A3F0A3A1
:105CE700F0A3F090C371E0FAA3E0FB4A7003025EF1
:105CF7008590C36CE0FEA3E0FFC3E49FFFE49EFE34
:105D0700E4FCFD90C37B124E42AF03AE02E4FCFD00
:105D170090C37BE0F8A3E0F9A3E0FAA3E0FBC3128A
:105D27004E0B501190C37BA3A3E0FFA3E090C37178
:105D3700CFF0A3EFF090C36CE0FCA3E0FDECC3133E
:105D4700FFED1390C373CFF0A3EFF0ED5401FFA362
:105D5700E4F0A3EFF0C2AFE4F5F190C373E0FCA366
:105D6700E0FDECF5F28DF375F40175F8AF30FCFD4D
:105D770090C375E07002A3E0603DD2FE20FEFD9067
:105D8700C36EE0FBA3E475F001124C57A9F0FAE5E6
:105D9700FC124BA690C36EE0FBA3E475F001124C16
:105DA70057A9F0FAE5FD124BA690C372E024FFF065
:105DB70090C371E034FFF090C371E0FCA3E0FDEC09
:105DC700C313FFED1390C377CFF0A3EFF0ED5401AA
:105DD700FFA3E4F0A3EFF090C37774FFF5F0124C44
:105DE7005745F0605BD2FE20FEFD90C36EE0FBA33B
:105DF700E475F001124C57A9F0FAE5FA124BA69098
:105E0700C36EE0FBA3E475F001124C57A9F0FAE565
:105E1700FB124BA690C36EE0FBA3E475F001124C96
:105E270057A9F0FAE5FC124BA690C36EE0FBA3E47A
:105E370075F001124C57A9F0FAE5FD124BA68097B1
:105E470090C379E07002A3E0602FD2FE20FEFD90A0
:105E5700C36EE0FBA3E475F001124C57A9F0FAE515
:105E6700FA124BA690C36EE0FBA3E475F001124C47
:0E5E770057A9F0FAE5FB124BA6E4F5F8D2AFFE
:015E850022FA
:10653D0090C370EEF0A3EFF0A3EBF0A3EAF0A3E9A4
:01654D00F05D
:10654E00E490C377F0A3F0A3F0A3F0A3F0A3F09030
:10655E00C375E07002A3E070030266CF90C370E0D3
:10656E00FEA3E0FFC3E49FFFE49EFED390C376E05C
:10657E009F90C375E09E4005EEF0A3EFF090C370C0
:10658E00E0FAA3E0FBEAC313FCEB13FDEB5401FFAF
:10659E0090C377E4F0A3EFF0C2AFE4F5F1ECF5F2BF
:1065AE00AF058FF375F40175F88330FCFD90C3775A
:1065BE00E07002A3E0603D90C372E0FBA3E475F0CF
:1065CE0001124C57A9F0FA124B60F5FC90C372E021
:1065DE00FBA3E475F001124C57A9F0FA124B60F5CB
:1065EE00FDD2FE20FEFD90C376E024FFF090C37531
:1065FE00E034FFF090C375E0FCA3E0FDECC313FFA5
:10660E00ED1390C379CFF0A3EFF0ED5401FFA3E4A7
:10661E00F0A3EFF075F88F90C37974FFF5F0124C7C
:10662E005745F0605B90C372E0FBA3E475F0011276
:10663E004C57A9F0FA124B60F5FA90C372E0FBA327
:10664E00E475F001124C57A9F0FA124B60F5FB906D
:10665E00C372E0FBA3E475F001124C57A9F0FA12D5
:10666E004B60F5FC90C372E0FBA3E475F001124C95
:10667E0057A9F0FA124B60F5FDD2FE30FE9980FB61
:10668E0090C37BE07002A3E0603275F88C90C37209
:10669E00E0FBA3E475F001124C57A9F0FA124B601F
:1066AE00F5FA90C372E0FBA3E475F001124C57A902
:1066BE00F0FA124B60F5FBD2FE20FEFDE4F5F8D2A7
:0166CE00AF1C
:0166CF0022A8
:1069E70090C46CEEF0A3EFF0A3EBF0A3EAF0A3E9F9
:0169F700F0AF
:1069F800A3E0FEA3E0FF4E7003026B6090C46CE05E
:106A0800FCA3E0FDC3E49DFDE49CFCD3EF9DEE9C5C
:106A1800400AAF0590C471ECF0A3EFF090C46CE0AD
:106A2800FCA3E0FDECC313FEED13FBAA06ED540135
:106A3800FDC2AFE4F5F1EAF5F2AF038FF375F401A7
:106A480075F88330FCFDED604FC390C472E094028A
:106A580090C471E094005003026B5B90C46EE0FB3D
:106A6800A3E475F001124C57A9F0FA124B60F5FC3B
:106A780090C46EE0FBA3E475F001124C57A9F0FA3C
:106A8800124B60F5FDD2FE20FEFD90C472E024FE9C
:106A9800F090C471E034FFF090C471E0FEA3E07898
:106AA80002CEC313CE13D8F9FF75F88FEF1FAC06CB
:106AB80070011E4C605B90C46EE0FBA3E475F001AE
:106AC800124C57A9F0FA124B60F5FA90C46EE0FB2D
:106AD800A3E475F001124C57A9F0FA124B60F5FBCC
:106AE80090C46EE0FBA3E475F001124C57A9F0FACC
:106AF800124B60F5FC90C46EE0FBA3E475F0011244
:106B08004C57A9F0FA124B60F5FDD2FE30FE9D807D
:106B1800FB90C472E030E1047F0180027F00EF60E7
:106B28003275F88C90C46EE0FBA3E475F001124C4A
:106B380057A9F0FA124B60F5FA90C46EE0FBA3E493
:106B480075F001124C57A9F0FA124B60F5FBD2FE12
:086B580020FEFDE4F5F8D2AFC8
:016B60002212
:1090A600EC90C4A2F0EDA3F07B017AC479A290C43F
:0A90B60071E4F0A37402F00269E710
:10915A00EF4E6010E4FD0DEDC3943240F9EF1F703D
:04916A00EF1E80EC88
:01916E0022DE
:087FB20090C47AEEF0A3EFF099
:107FBA00A3745AF0A37401F090C47AE0FCA3E0FD24
:107FCA00EC90C47EF0A3EDF07B017AC4797C90C377
:107FDA0075E4F0A37402F07F847E0012653D7FF49D
:107FEA007E0112915A7B017AC4797C90C371E4F0C4
:107FFA00A37402F07F147E00125CC690C47AE0FE7D
:10800A00A3E0FFA3E0B506D6A3E0B507D1E490C488
:10801A007CF0A3F0A3F0A3F07B017AC4797C90C32F
:0D802A0075F0A37402F07F167E0002653D24
:0889670090C34FEEF0A3EFF006
:10896F00E4A3F0A3F090C34FE0FEA3E0FFC390C3D6
:10897F0052E09F90C351E09E5025E4FBFA7F017EA9
:10898F000012915A0BBB00010ABA01F1BB2CEE90F9
:0F899F00C352E004F070CE90C351E004F080C6E4
:0189AE0022A6
:1089AF00EF14601814602314602E240370397401BF
:1089BF00A805088002C333D8FC42B7227401A8056A
:1089CF00088002C333D8FC42BC227401A80508807A
:1089DF0002C333D8FC42BD22AF057401A80708803B
:0889EF0002C333D8FC42BE2292
:10888700EF1460191460251460312403703D7401DE
:10889700A805088002C333D8FCF452B7227401A894
:1088A70005088002C333D8FCF452BC227401A80522
:1088B700088002C333D8FCF452BD22AF057401A867
:0C88C70007088002C333D8FCF452BE2224
:107C6000EF14602D14604A14606724036003027CE3
:107C7000F2EB600E7401A805088002C333D8FC4201
:107C800080227401A805088002C333D8FCF4528016
:107C900022EB600E7401A805088002C333D8FC42B1
:107CA00090227401A805088002C333D8FCF45290D6
:107CB00022EB600E7401A805088002C333D8FC4291
:107CC000A0227401A805088002C333D8FCF452A096
:107CD00022EB600E7401A805088002C333D8FC4271
:107CE000B022AF057401A807088002C333D8FCF4A2
:037CF00052B0226D
:10864400EF14601A14602714603424037042740118
:10865400A805088002C333D8FC5580FE8034740119
:10866400A805088002C333D8FC5590FE8024740109
:10867400A805088002C333D8FC55A0FE8014AF05BA
:108684007401A807088002C333D8FC55B0FE8002E9
:04869400E4FEAF064B
:0186980022BF
:108F5300758911E4F58CF58AC28CF518F51A4389E5
:0E8F630001758CBC758ACDD2A9D2AFD28C22FA
:03000B0002812A45
:0D812A00C0E0C0D075D000C000C006C00786
:10813700C2AF758CBC758ACD0519751B0074017E9D
:1081470000A81B088005C333CE33CED8F9FFEF55FF
:108157001A602DE51B25E02408F808E616187001BB
:1081670016E51B25E02408F8E6FE08E64E7011AF79
:108177001B04A807088002C333D8FC4218F4521A1C
:09818700051BE51BB408B6D2AFDC
:0B819000D007D006D000D0D0D0E032E5
:1090C000758911E4F58DF58BC28ED2AF4389107589
:0A90D0008DBC758BCDD2ABD28E2281
:03001B0002920B43
:0D920B00C2AF758DBC758BCDB290D2AF3265
:1091AE0075C8F075CD58E4F5CC75CB58F5CA43C8E3
:0491BE0001D2AD220B
:03002B0002922F0F
:09922F00C2AFC2C6B291D2AF3247
:108F1200C2AF7401A807088002C333D8FCFE421A0C
:108F2200EF25E02408F8A60408A605EEF45218D2AC
:028F3200AF226C
:10916F00C2AF7401A807088002C333D8FCF4521AA7
:05917F005218D2AF22DE
:1091D600C2AF7401A807088002C333D8FC5518FF34
:0291E600D2AF06
:0191E8002264
:1087EB00AB07AA06A905A8047F007E387D317C0063
:1087FB00124D63C3E49F90C34EF074049E90C34D1F
:10880B00F043C9407D04E4FF1289AF7D05E4FF12FC
:10881B00888743803075D88075985090C34DE0FCA5
:0D882B00A3E0FDECF5BA8DAA43A810D2AC75
:01883800221D
:10891E00AB07AA06A905A8047F007E707D627C00C5
:10892E00124D63C3E49F90C34EF074049E90C34DEA
:10893E00F043C9207D06E4FF1289AF7D07E4FF12E4
:10894E0088874380C0759B9090C34DE0FCA3E0FDEB
:08895E00ECF5BB8D9D439A016D
:0189660022EE
:108BDB00759680759780AB07AA06A905A8047F0038
:108BEB007EC07D897C01124D63AD07AC06ECF5D9D7
:108BFB00AF058FE743B80CE4909812F0A3F0A3F005
:108C0B00A3F090981AF0909816F0A3F0A3F0A3F0AD
:018C1B002236
:108EC70075A78075AB80AB07AA06A905A8047F0024
:108ED7007EC07D897C01124D63AD07AC06ECF5AE13
:078EE700AF058FAF43B83067
:018EEE002261
:10879800EF14601B1460291460372403704490C3DD
:1087A80049E0FCA3E0FDA3E0FEA3E0FF0287EB9015
:1087B800C349E0FCA3E0FDA3E0FEA3E0FF02891E9D
:1087C80090C349E0FCA3E0FDA3E0FEA3E0FF028B19
:1087D800DB90C349E0FCA3E0FDA3E0FEA3E0FF12A9
:0387E8008EC72217
:1060440090C348EFF0A3ECF0A3EDF0A3EBF0A3EAC8
:04605400F0A3E9F0DC
:10605800C2AFE4A3F0A3F090C349E0FEA3E0FFC3FE
:1060680090C34FE09F90C34EE09E400302611C9096
:10607800C34BE0FBA3E475F001124C57A9F0FA12E8
:106088004B60FF90C348E0FE75F009A42400F58238
:10609800E5F03488F583EE75F008A42583F583E0F0
:1060A800FCA3E0FD75F009EEA42400F582E5F034C8
:1060B80080F583EE75F008A42583F583E5822DF538
:1060C80082E5833CF583EFF075F009EEA42400F532
:1060D80082E5F03488F583EE75F008A42583F5830E
:1060E800E475F001124C4175F009EEA42400F58224
:1060F800E5F03488F583EE75F008A42583F583E090
:106108005403F090C34FE004F0700690C34EE004CF
:10611800F002605F90C348E014604214607014702D
:10612800030261C4240360030261F4908808E060FC
:10613800030261F404F0908802E0FEA3E02400F575
:106148008274803EF583E0F599908803E004F0704E
:1061580006908802E004F09088020261F0909011A5
:10616800E060030261F404F090900BE0FEA3E024E9
:1061780009F58274883EF583E0F59C90900CE00464
:10618800F0700690900BE004F090900B805A909875
:106198001AE0705804F0909814E0FEA3E02412F579
:1061A8008274903EF583E0F59E909815E004F070B7
:1061B80006909814E004F0909814802C90A023E0A6
:1061C800702A04F090A01DE0FEA3E0241BF5827461
:1061D800983EF583E0F5AC90A01EE004F0700690C0
:0E61E800A01DE004F090A01DE05403F0D2AF23
:0161F6002286
:03002300027E1446
:107E1400C0E0C083C082C0D075D000C006C007C215
:107E2400AF30982AC298908804E0FEA3E02400F5BD
:107E34008274843EF583E599F0908805E004F0703F
:107E440006908804E004F0908804E05403F030992C
:107E54003FC299908802E0FEA3E0FF908800E06EA4
:107E64007003A3E06F602474002FF58274803EF5E4
:107E740083E0F599908803E004F07006908802E0AE
:107E840004F0908802E05403F08005908808E4F040
:0F7E9400D2AFD007D006D0D0D082D083D0E0328A
:0300530002841C08
:10841C00C0E0C083C082C0D075D000C006C007C207
:10842C00AF5396FE909814E0FEA3E0FF909812E0F4
:10843C006E7003A3E06F602474122FF58274903E6B
:10844C00F583E0F59E909815E004F0700690981472
:10845C00E004F0909814E05403F0800590981AE42E
:10846C00F0D2AFD007D006D0D0D082D083D0E032BB
:03005B000289F720
:1089F700C0E0C083C082C0D075D000C006C2AF53EC
:108A070097FE909816E0FEA3E02412F58274943E38
:108A1700F583E59FF0909817E004F070069098169C
:108A2700E004F0909816E05403F0D2AFD006D0D00F
:078A3700D082D083D0E032B1
:0300630002847C98
:10847C00C0E0C083C082C0D075D000C006C007C2A7
:10848C00AF53A7FE90A01DE0FEA3E0FF90A01BE061
:10849C006E7003A3E06F6024741B2FF58274983EFA
:1084AC00F583E0F5AC90A01EE004F0700690A01DE2
:1084BC00E004F090A01DE05403F0800590A023E4AC
:1084CC00F0D2AFD007D006D0D0D082D083D0E0325B
:03006B00028A3EC8
:108A3E00C0E0C083C082C0D075D000C006C2AF53A4
:108A4E00ABFE90A01FE0FEA3E0241BF582749C3EBB
:108A5E00F583E5ADF090A020E004F0700690A01F25
:108A6E00E004F090A01FE05403F0D2AFD006D0D0B7
:078A7E00D082D083D0E0326A
:03008300027BC538
:107BC500C0E0C083C082C0D075D000C006C007C267
:107BD500AFE59B30E02E759B90539BFE90900DE09A
:107BE500FEA3E02409F582748C3EF583E59CF090B4
:107BF500900EE004F0700690900DE004F090900D6A
:107C0500E05403F0E59B30E143759B90539BFD9059
:107C1500900BE0FEA3E0FF909009E06E7003A3E0F7
:107C25006F602474092FF58274883EF583E0F59C16
:107C350090900CE004F0700690900BE004F09090AA
:107C45000BE05403F08005909011E4F0D2AFD0071B
:0B7C5500D006D0D0D082D083D0E03227
:109184007596807597807C00ECF5D975E7E0759E3F
:049194000D53B8F3CC
:0191980022B4
:0B8EEF0090C380EBF0A3EAF0A3E9F0D1
:108EFA0090C3AB7401F0A374C3F0A37483F090C35E
:078F0A00ABE4F0A3F0A3F0BB
:018F1100223D
:0292460080FEA8
:0555E00042C4A400001C
:10792300E490C343F0A3F0A3740AF0A3740DF0A38F
:1079330074EFF0128F531290C0125AFFE4FD7F02CE
:107943001288877D607CEAE4FF128F127DF47C014C
:107953007F01128F121280B4D2AF90C22BE0FF12BC
:107963008D171263A97D887C137F07128F127B0109
:107973007AC3794490C375E4F0A304F07F007E8258
:1079830012653D128B5690C4A4E07002A3E07018F8
:107993007F071291D6EF601090C4A4E4F0A304F023
:1079A30090C22BF0FF128D1790C4A4E07002A3E0E5
:1079B30060D1128B991282E91266D090C341EEF026
:1079C300A3EFF0120100900000E060B7E4F080B391
:0B922400544F50204845415445520073
:1055E5004CC257C9CFB2BFCEC2B6C8202020204179
:1055F500C2D90042C22F000041C21C0044C2A30010
:1056050000000046C213000000000000604EC1C546
:105615000000000100020003000400050006000769
:1056250000080009000A000B000C000D000E000F19
:1056350000100011001200130014001500160017C9
:1056450000180019001A001B001C001D001E001F79
:10565500002000210022002300240025002642C24C
:105665004B000041C2DD0042C220000042C24200A0
:105675000050C2C000000000000000000000000053
:105685000000000050C27C00000000000000000087
:105695000000000000000050C2690000000000008A
:1056A5000000000000000000000042C2E6000042C9
:1056B500C29C000042C240000042C2E1000042C25A
:1056C50097000042C2D1000042C267000042C29268
:1056D500000042C21A000042C252000041C2BF008F
:1056E50042C2E8000042C223000042C22D00004130
:1056F500C21D0041C2B30141C2B40241C2B9034156
:10570500C2BA0441C2BB0541C2BC0641C2BD074184
:10571500C2220841C2380941C23E0A41C2900B412A
:10572500C22A0C41C2370D41C2650E41C27B0F41F1
:10573500C2D81041C2E51141C2361241C2BE134161
:10574500C2D71441C2261541C2D01641C2A717417E
:10575500C2351841C22C1941C2251A41C2441B4108
:10576500C2331C41C29B1D41C2AF1E41C28F1F41A6
:10577500C2E02041C2662141C2D52241C21E234159
:10578500C2AB2441C2312541C28E2642C2A80001C6
:1057950042C2AD00C842C294000142C29900C8424B
:1057A500C2DE000042C2E3001442C2B1000042C2A0
:1057B500B70E1042C2D3E24042C239000044C29E35
:1057C500656E670041C2910041C23B0042C28C0038
:1057D5000042C263000042C2DB000042C23C00003E
:1057E50041C2510041C2340041C2D60041C25600F7
:1057F50041C2DA0041C2190041C2960041C22900E6
:1058050041C23F0041C2AA0041C2320041C2A200CA
:1058150041C21F0041C2AC0042C245000042C2471E
:10582500000042C249000042C24D000042C24F0082
:105835000042C254000041C1B20041C1B30041C1A0
:10584500B40041C1B50041C1B60041C1B70041C175
:10585500B80042C1B9000042C1BB000042C1BD0051
:0B5865000042C1BF000042C1C10000B2
:108CD6007BFF7A92792412919990C375EEF0A3EFF7
:108CE600F07BFF7A9279247F707E4212653D7BFF8E
:108CF6007A92792412919990C375EEF0A3EFF07BE6
:0C8D0600FF7A9279247F707E4202653D66
:1080370090C1BFF0A3F090C1B4F090C227E0FEA3B7
:10804700E0FF7C007D0A124BDAAA06AB0790C279E3
:10805700E0FEA3E0FF7D64124BDAEF2BFFEE3AFE62
:1080670090C2B6E02FFF90C2B5E03E90C34CF0A39C
:0E807700EFF07F0090C34CE0FCA3E0FD7E81A3
:1080850090C1C3EEF0A3EFF090C2E8ECF0A3EDF0E1
:1080950090C2BF7401F0FB7AC279E890C375E4F031
:0F80A500A304F012653D7DBC7C027F06028F12A2
:0C921800E490C2BFF090C22DF0A3F02241
:1082E90090C2BFE060637F061291D6EF605B90C1D8
:1082F900C3E0FEA3E0FF7B017AC2792390C371E456
:10830900F0A304F0125CC690C223E0FEA3E0FF9044
:10831900C2E8E0FCA3E0FDB50707ECB5060302924D
:1083290018C390C22EE0940290C22DE09400501917
:1083390090C1C3E0FEA3E0FF12808590C22EE00445
:0A834900F0700690C22DE004F0224F
:1090040090C4A674C0F0A37464F07B017AC479A6FA
:0B90140090C375E4F0A304F002653D7A
:10901F0090C36E7418F0A374E3F07B017AC3796E7A
:0B902F0090C375E4F0A304F002653D5F
:048F34007F037E1029
:108F380090C36E74FFF0A37460F07B017AC3796EFE
:0B8F480090C375E4F0A304F002653D47
:10903A0090C36E7405F0A3741DF07B017AC3796E38
:0B904A0090C375E4F0A304F002653D44
:1090550090C4A874CEF0A37459F07B017AC479A8A2
:0B90650090C375E4F0A304F002653D29
:048FCB007F237E5032
:108FCF0074FF90C36CF0A3F07B017AC3796C90C3EC
:098FDF0075E4F0A304F002653D05
:06924000E490C21CF022C4
:106F770090C36CECF0A3EDF0EE6003027089EF2490
:106F8700FE605E14605F14700302704E240360039A
:106F970002708990C36CE0FEA3E0FFEE7035EF143A
:106FA700601514601E2402702A128F347F137E101E
:106FB700128F387F338054128F347F137E101290D4
:106FC7003A801A7F037E1012903A7F137E10128F39
:106FD70038800A128F347F137E10128F387F3380E8
:106FE700627F53802690C36CE0FEA3E0FFEE704300
:106FF700EF14601B14602A240270387F637E10121E
:107007008F387F737E10128F387F837E1080627F68
:10701700637E10128F387F737E1012903A7F8380C1
:10702700227F637E1012903A7F737E10128F387F13
:107037008380107F637E10128F387F737E10128FCC
:10704700387F837E10803890C36CE0FEA3E0FFEEAC
:107057007022EF14601004701B7F137E1112903A98
:107067007F337E1180197F137E11128F387F337E15
:107077001102903A7F137E11128F387F337E1112DF
:037087008F38221D
:0A4F020090C22BE0FF7E00E4FDFCEE
:104F0C0090C36CECF0A3EDF0EE600302527CEF2446
:104F1C00F0B40800400302527C904F3375F003A4A8
:104F2C00C58325F0C58373024F4B024FC802502B2B
:104F3C000250A80251250251880252040252569086
:104F4C00C36CE07002A3E070177F537E1112901FA8
:104F5C007F637E1112901F7F737E1112903A8042F4
:104F6C0090C36CE07004A3E0640170107F537E1159
:104F7C0012901F7F637E1112903A801F90C36CE0D9
:104F8C007004A3E064027F537E11700512903A8086
:104F9C000312901F7F637E1112901F7F737E11127C
:104FAC00901F90C36CE07004A3E0640370047D0157
:104FBC008002E4FDFC7F807E2102527990C36CE07C
:104FCC007002A3E070107F937E1112901F7F037EFE
:104FDC001212903A802F90C36CE07004A3E064012D
:104FEC0070097F937E1112903A801390C36CE0701D
:104FFC0004A3E06402700E7F937E1112901F7F0356
:10500C007E1212901F90C36CE07004A3E0640270D7
:10501C00047D018002E4FDFC7F107E220252799017
:10502C00C36CE07002A3E070177F237E1212901FF6
:10503C007F837E9012901F7F937E9012903A8042D5
:10504C0090C36CE07004A3E0640170107F237E12A7
:10505C0012901F7F837E9012903A801F90C36CE059
:10506C007004A3E064027F237E12700512903A80D4
:10507C000312901F7F837E9012901F7F937E90125D
:10508C00901F90C36CE07004A3E0640370047D0176
:10509C008002E4FDFC7F307E3902527990C36CE0D3
:1050AC007002A3E070177F637E1212901F7F337E15
:1050BC001212901F7F437E1212903A804290C36C62
:1050CC00E07004A3E0640170107F637E1212901FE5
:1050DC007F337E1212903A801F90C36CE07004A351
:1050EC00E064027F637E12700512903A8003129086
:1050FC001F7F337E1212901F7F437E1212901F90DF
:10510C00C36CE07004A3E0640370047D018002E4CE
:10511C00FDFC7F507E2202527990C36CE07002A39A
:10512C00E070107F037E1312901F7413FFFE129019
:10513C003A802F90C36CE07004A3E0640170097F87
:10514C00037E1312903A801390C36CE07004A3E0BA
:10515C006402700E7F037E1312901F7413FFFE12F5
:10516C00901F90C36CE07004A3E0640270047D0196
:10517C008002E4FDFC7F207E2302527990C36CE018
:10518C007002A3E070177F337E1312901F7F437E53
:10519C001312901F7F537E1312903A804290C36C6F
:1051AC00E07004A3E0640170107F337E1312901F33
:1051BC007F437E1312903A801F90C36CE07004A35F
:1051CC00E064027F337E13700512903A80031290D4
:1051DC001F7F437E1312901F7F537E1312901F90DC
:1051EC00C36CE07004A3E0640370047D018002E4EE
:1051FC00FDFC7F607E23807590C36CE07002A3E0A1
:10520C0070097F737E1312903A801F90C36CE0700C
:10521C0004A3E064017F737E13700C12901F7F83D4
:10522C007E1312903A800A12901F7F837E13129085
:10523C001F90C36CE07004A3E0640270047D0180D5
:10524C0002E4FDFC7F907E23802390C36CE070040D
:10525C00A3E064017F037E14700912901F7D017C12
:10526C0000800612903AE4FDFC7F107E24128F76AB
:01527C00220F
:058F7100E4FDFC7F900F
:108F760090C36EECF0A3EDF07B017AC3796E90C3DB
:098F860075E4F0A304F002653D5E
:058D120090C22BF0FFF0
:108D170090C2A3745AF0A37401F0E4A3F0EF25E026
:108D270024C5F582E434C1F583A3E090C2A6F07BA5
:108D3700017AC279A390C375E4F0A37402F07F842B
:058D47007E0002653D05
:0892380090C22BEFF0028D172C
:108598007F037E10128FCF7F137E10128FCF7F3311
:1085A8007E10128FCF7F437E10128FCF7F537E10A5
:1085B800128FCF7F637E10128FCF7F737E10128F42
:1085C800CF7F837E10128FCF7F137E11128FCF7FC4
:1085D800337E11128FCF7F737E92128FCFE4FDFC12
:0685E800FF7E30028F76D9
:077EA30090C1B8E0FF7E0072
:107EAA0090C36CEEF0A3EFF064014E7015128F349C
:107EBA007F137E10128F387F337E10128F387D0128
:107ECA00803C90C36CE07004A3E06402700D7F43B1
:107EDA007E10128F387F537E10804390C36CE070FF
:107EEA0004A3E0640370207F637E10128F387F73CF
:107EFA007E10128F387F837E10128F387D027C00AD
:107F0A007F007E30028F7690C36CE07004A3E06439
:107F1A0004700E7F137E11128F387F337E11128FF9
:027F2A003822FB
:04883900AB07AA06D9
:10883D007C007D3C124BEC90C34AEEF0A3EFF0AE02
:10884D0002AF037C007D3C124BECA3ECF0A3EDF0EA
:10885D007B017AC3794A90C375E4F0A304F07F10CD
:10886D007E2112653D7B017AC3794C90C375E4F08E
:0A887D00A304F07F307E2102653D68
:0885EE0090C23CE0FEA3E0FF97
:0485F600AB07AA061F
:1085FA007C007D3C124BEC90C36CEEF0A3EFF0AE26
:10860A0002AF037C007D3C124BECA3ECF0A3EDF02F
:10861A007B017AC3796C90C375E4F0A304F07F0000
:10862A007E3112653D7B017AC3796E90C375E4F0A1
:0A863A00A304F07F007E3202653DCC
:108D4C0090C23B7401F07F737E92128F387F337E1A
:108D5C0093128F387F437E93128F387B017AC279BE
:108D6C003C90C371E4F0A304F07F067E81125CC6D4
:098D7C007DE87C037F05028F12E3
:1090DA00E490C23BF07F737E92128FCF7F337E93F0
:0A90EA00128FCF7F437E93028FCFD9
:108B990090C23BE070077F737E92028FCF7F0512F0
:108BA90091D6EF602C90C23DE024FFF090C23CE0EA
:108BB90034FFF01285F1D390C23DE0940090C23C9D
:108BC900E0940050030290DA7DE87C037F05128F60
:028BD900122266
:1063A900E490C348F0A3F07B017AC2795290C3719B
:1063B900F0A304F07F047E81125CC67B017AC37965
:1063C9004890C371E4F0A304F07F007E81125CC69B
:1063D90090C348E0FAA3E0FB7C007D64FFAE0212A3
:1063E9004BEC90C279EEF0A3EFF07C007D0AAF038D
:1063F900AE02124BEC7C007D0A124BEC90C227ECEA
:10640900F0A3EDF090C348E0FEA3E0FF7C007D0A15
:10641900124BEC90C2B5ECF0A3EDF07B017AC37995
:106429004890C371E4F0A304F07F027E81125CC638
:1064390090C348E0FAA3E0FB7C007D64FFAE021242
:106449004BEC90C240EEF0A3EFF07C007D0AAF0365
:10645900AE02124BEC7C007D0A124BEC90C2E1ECCF
:10646900F0A3EDF090C348E0FEA3E0FF7C007D0AB5
:10647900124BEC90C297ECF0A3EDF07B017AC27954
:106489006390C371E4F0A304F07F067E81125CC6B9
:1064990090C263E0FEA3E0FF1288397B017AC379D9
:1064A9004890C371E4F0A304F07F087E81125CC6B2
:1064B90090C348E0FAA3E0FB7C007D0AFFAE02121C
:1064C9004BEC7C007D0A124BEC90C2E6ECF0A3ED9C
:1064D900F07C007D0AAF03AE02124BEC90C29CEC3B
:1064E900F0A3EDF07B017AC3794890C371E4F0A37E
:1064F90004F07F0A7E81125CC690C348E0FAA3E0EB
:10650900FB7C007D0AFFAE02124BEC7C007D0A1277
:106519004BEC90C2D1ECF0A3EDF07C007D0AAF0307
:10652900AE02124BEC90C267ECF0A3EDF07F737EE4
:0465390092028FCF6C
:106E2E0090C251E0B408004003026F76906E41F8B4
:106E3E00282873026E59026E65026E7C026E9602EF
:106E4E006EB7026EDF026F0E026F427F137E50121C
:106E5E008F38128FCB800E7F137E50128FCF7F23F1
:106E6E007E50128F387F337E50128FCF80117F135A
:106E7E007E50128FCF128FCB7F337E50128F387F82
:106E8E00437E50128FCF80187F137E50128FCF12F9
:106E9E008FCB7F337E50128FCF7F437E50128F3831
:106EAE007F537E50128FCF801F7F137E50128FCF55
:106EBE00128FCB7F337E50128FCF7F437E50128F37
:106ECE00CF7F537E50128F387F637E50128FCF80CC
:106EDE00267F137E50128FCF128FCB7F337E5012B0
:106EEE008FCF7F437E50128FCF7F537E50128FCF26
:106EFE007F637E50128F387F737E50128FCF802D1E
:106F0E007F137E50128FCF128FCB7F337E50128F16
:106F1E00CF7F437E50128FCF7F537E50128FCF7F05
:106F2E00637E50128FCF7F737E50128F387F437ED9
:106F3E0056028FCF7F137E50128FCF128FCB7F339F
:106F4E007E50128FCF7F437E50128FCF7F537E5055
:106F5E00128FCF7F637E50128FCF7F737E50128F32
:096F6E00CF7F437E56128F3822BA
:10719D0090C2D6E014604614607B14700302725BDB
:1071AD002403600302729790C256E070097F037E3C
:1071BD0051128FCF800D90C2DAE0700B7F037E519C
:1071CD00128F387F13806E90C2DAE0640160030283
:1071DD0072977F037E51128FCF7F13806D90C256B1
:1071ED00E0700B7F337E51128FCF7F43804790C26B
:1071FD00DAE0700B7F337E51128F387F43803690EB
:10720D00C2DAE0640160030272977F337E51128F00
:10721D00CF7F43803590C256E0700B7F637E511255
:10722D008FCF7F73800F90C2DAE0700D7F637E5138
:10723D00128F387F737E51803990C2DAE06401700D
:10724D00497F637E51128FCF7F737E51803990C2FB
:10725D0056E0700D7F937E51128FCF7F037E52804B
:10726D001190C2DAE0700E7F937E51128F387F033A
:10727D007E52028FCF90C2DAE0B4010E7F937E5121
:0B728D00128FCF7F037E52128F382239
:0879D30090C348E0FEA3E0FFB1
:1079DB00EE702CEF24FE601604702490C2D6E0707B
:1079EB00057403F0801990C2D6E014F0801190C298
:1079FB00D6E0B40304E4F0800690C2D6E004F09025
:107A0B00C2D6E014601A14602E1460472403705F12
:107A1B007F937E50128F387F237E51128FCF800E33
:107A2B007F937E50128FCF7F237E51128F387F53DF
:107A3B007E51128FCF80157F937E50128FCF7F2375
:107A4B007E51128FCF7F537E51128F387F837E51A1
:107A5B00028FCF7F937E50128FCF7F237E51128F59
:107A6B00CF7F537E51128FCF7F837E51128F38225F
:08708A0090C348E0FEA3E0FF03
:10709200EE702CEF24FE601604702490C219E0708A
:1070A200057405F0801990C219E014F0801190C2A5
:1070B20019E0B40504E4F0800690C219E004F090EF
:1070C200C219E014602614603A14605514607714F3
:1070D20070030271722405600302719C7F137E5259
:1070E200128F387F437E52128FCF800E7F137E52D3
:1070F200128FCF7F437E52128F387F737E52128F50
:10710200CF80157F137E52128FCF7F437E52128F14
:10711200CF7F737E52128F387F037E53128FCF80C0
:107122001C7F137E52128FCF7F437E52128FCF7FEE
:10713200737E52128FCF7F037E53128F387F437E2E
:1071420053128FCF80237F137E52128FCF7F437EC5
:1071520052128FCF7F737E52128FCF7F037E5312D4
:107162008FCF7F437E53128F387F737E53028FCF30
:107172007F137E52128FCF7F437E52128FCF7F7347
:107182007E52128FCF7F037E53128FCF7F437E5367
:0B719200128FCF7F737E53128F3822C4
:105E860090C219E0146061147003025F301470034D
:105E9600025F72147003025FB4147003025FF92488
:105EA60005600302604390C296E07F237E52B401F0
:105EB6001C128F387F337E52128FCF90C2B074017E
:105EC600F0FB7AC279B090C375E4026038128FCFC6
:105ED6007F337E52128F38E490C2B0F07B017AC2D3
:105EE60079B090C37502603890C296E07F537E52B7
:105EF600B4011C128F387F637E52128FCF90C2B0CE
:105F06007402F07B017AC279B090C375E4801812EE
:105F16008FCF7F637E52128F38E490C2B0F07B0140
:105F26007AC279B090C37502603890C296E07F83DA
:105F36007E52B4011C128F387F937E52128FCF90FF
:105F4600C2B07403F07B017AC279B090C375E48065
:105F560018128FCF7F937E52128F38E490C2B0F022
:105F66007B017AC279B090C37502603890C296E020
:105F76007F137E53B4011C128F387F237E53128FFA
:105F8600CF90C2B07404F07B017AC279B090C37529
:105F9600E48018128FCF7F237E53128F38E490C28D
:105FA600B0F07B017AC279B090C37502603890C2B6
:105FB60096E0B401207453FFFE128F387F637E5340
:105FC600128FCF90C2B07405F07B017AC279B0907F
:105FD600C375E4801C7453FFFE128FCF7F637E531C
:105FE600128F38E490C2B0F07B017AC279B090C3C8
:105FF60075803F90C296E07F837E53B4011C128F5A
:10600600387F937E53128FCF90C2B07406F07B0117
:106016007AC279B090C375E48018128FCF7F937ED1
:1060260053128F38E490C2B0F07B017AC279B090F7
:0E603600C375F0A304F07F107E8212653D2238
:0886990090C348E0FEA3E0FFDE
:1086A100EE702BEF24FE601504702390C23FE07042
:1086B1000404F0801990C23FE014F0801190C23F91
:1086C100E0B40104E4F0800690C23FE004F090C2FF
:1086D1003FE07F937E57700A128F387F037E5802E6
:0D86E1008FCF128FCF7F037E58128F38226B
:0886EE0090C348E0FEA3E0FF89
:1086F600EE702BEF24FE601504702390C2AAE07082
:108706000404F0801990C2AAE014F0801190C2AA65
:10871600E0B40104E4F0800690C2AAE004F090C23E
:10872600AAE07F737E56700A128F387F837E5602C8
:0D8736008FCF128FCF7F837E56128F382297
:087F2C0090C348E0FEA3E0FF52
:107F3400EE702CEF24FE601604702490C2A2E07050
:107F4400057402F0801990C2A2E014F0801190C26E
:107F5400A2E0B40204E4F0800690C2A2E004F0902F
:107F6400C2A2E070107F537E55128F387F637E5516
:107F7400128FCF801590C2A2E0B401157F537E55B5
:107F8400128FCF7F637E55128F387F737E55028F99
:107F9400CF90C2A2E0B402157F537E55128FCF7FDB
:0E7FA400637E55128FCF7F737E55128F382269
:1074680090C2ACE014602614603A1460551460773A
:10747800147003027519240560030275437F037EA7
:1074880057128F387F137E57128FCF800E7F037E5F
:1074980057128FCF7F137E57128F387F237E571254
:1074A8008FCF80157F037E57128FCF7F137E5712A1
:1074B8008FCF7F237E57128F387F337E57128FCF1F
:1074C800801C7F037E57128FCF7F137E57128FCF7A
:1074D8007F237E57128FCF7F337E57128F387F439B
:1074E8007E57128FCF80237F037E57128FCF7F1353
:1074F8007E57128FCF7F237E57128FCF7F337E57D1
:10750800128FCF7F437E57128F387F537E57028F5B
:10751800CF7F037E57128FCF7F137E57128FCF7F77
:10752800237E57128FCF7F337E57128FCF7F437EB4
:0C75380057128FCF7F537E57128F3822DE
:1072980090C251E0B4080040030273829072ABF8C8
:1072A8002828730272C30272E5027314027327025C
:1072B800733A02733F02736F0273777F937E5012A3
:1072C8008F387F237E51128FCF7F537E51128FCFFD
:1072D8007F837E51128FCF90C2330273727F137EE9
:1072E80052128F387F437E52128FCF7F737E521295
:1072F8008FCF7F037E53128FCF7F437E53128FCF62
:107308007F737E53128FCF90C29B805E7F937E5790
:10731800128F387F037E58128FCF90C2AF804B7F79
:10732800737E56128F387F837E56128FCF90C28F0E
:10733800803890C2E080337F537E55128F387F6348
:107348007E55128FCF7F737E55128FCF7B017AC205
:10735800795790C375E4F0A3740CF07F507E451202
:10736800653D90C266800390C2D5E0FF02923890D6
:0B737800C21EE0FF129238127468225F
:108E9500E490C251F090C2D6F090C256F090C2DA7A
:108EA500F090C219F090C229F090C23FF090C2AA8A
:108EB500F090C232F090C2A2F090C21FF090C2AC06
:028EC500F02299
:0801000090C348EEF0A3EFF0FC
:10010800E4A3F0A3F0A3F0A3F090C1B2E0600DE483
:10011800FF1291D6EF6005E490C1B2F090C348E0B9
:10012800FEA3E0FF64014E6006EF64024E70099082
:10013800C1B2E06003024510128CD67B017AC17906
:10014800C190C371E4F0A304F07F0C7E80125CC6FA
:1001580090C1C1A3E0FF7C0030E0047D0180027DF6
:100168000090C34EECF0A3EDF0EF7E0030E1047F89
:100178000180027F0090C350EEF0A3EFF090C1C160
:10018800A3E0FF7C0030E2047D0180027D0090C383
:1001980060ECF0A3EDF0EF7E0030E3047F01800215
:1001A8007F0090C362EEF0A3EFF090C1C1A3E0FF1F
:1001B8007C0030E4047D0180027D0090C364ECF093
:1001C800A3EDF0EF7E0030E7047F0180027F00900E
:1001D800C352EEF0A3EFF090C1C1E0FEEE7C003018
:1001E800E4047D0180027D0090C354ECF0A3EDF09F
:1001F800EE7E0030E0047F0180027F0090C356EE5F
:10020800F0A3EFF090C1C1A3E0FF7C0030E5047DCE
:100218000180027D0090C358ECF0A3EDF0EF7E0062
:1002280030E6047F0180027F0090C35AEEF0A3EF0E
:10023800F090C1C1E0FEEE7C0030E1047D01800257
:100248007D0090C35CECF0A3EDF0EE7E0030E2049C
:100258007F0180027F0090C35EEEF0A3EFF090C1B3
:10026800C1E0FEEE7C0030E3047D0180027D009059
:10027800C366ECF0A3EDF0EE7E0030E5047F01806C
:10028800027F0090C368EEF0A3EFF090C358E070CF
:0702980004A3E06401700BF8
:09029F0090C36A74C0F0A374441A
:1002A800801D90C35CE07004A3E0640190C36A7091
:0102B800083D
:0602B9007405F0A3741CA3
:0202BF008006B7
:1002C10074CEF0A37459F07B017AC3796A90C37537
:0C02D100E4F0A304F07F137E9312653D5F
:0C02DD0090C35AE07004A3E06401700BB1
:0902E90090C36A74C0F0A37444D0
:1002F200801D90C35EE07004A3E0640190C36A7045
:0103020008F2
:060303007405F0A3741C58
:0203090080066C
:10030B0074CEF0A37459F07B017AC3796A90C375EC
:0C031B00E4F0A304F07F237E9312653D04
:1003270090C242E07002A3E0701990C368E07004C5
:10033700A3E06401700D741B128D1290C242E4F0A9
:10034700A304F090C356E07004A3E06401700F901B
:10035700C2DDE07009128D4C90C2DD7401F090C2CD
:100367002BE0B4182990C220E07002A3E0701F7B35
:10037700017AC2793C90C371F0A304F07F067E81B5
:10038700125CC61285EE90C220E4F0A304F090C37D
:100397004EE07004A3E06401600302044F90C24B77
:1003A700E07004A3E06401600302044F7417128D28
:1003B700127B017AC3794C90C371E4F0A304F07FF8
:1003C700067E81125CC690C34CE0FAA3E0FB7C007A
:1003D7007D3CFFAE02124BEC90C292EEF0A3EFF021
:1003E7007C007D3CAF03AE02124BEC90C21AECF0DE
:1003F700A3EDF07B017AC2799290C375E4F0A30470
:10040700F07F107E2112653D7B017AC2791A90C375
:1004170075E4F0A304F07F307E2112653DE490C1BE
:10042700B7F090C1B3F0A3F090C1BFF0A3F090C1B3
:10043700B8F090C24BF0A3F090C2DDF090C220F06C
:10044700A3F01290DA02050C90C352E07004A3E007
:100457006401602690C35AE07004A3E06401601A47
:1004670090C358E07004A3E064017002800C90C34D
:1004770056E07004A3E06401703212859890C24B75
:10048700E4F0A304F090C22B7418F0FF128D17E468
:1004970090C1B7F090C1B3F0A3F090C1BFF0A3F043
:1004A70090C1B8F090C242F0A3F0805990C35EE0CB
:1004B7007004A3E06401600C90C35CE07004A3E0E7
:1004C7006401704112859890C22B7419F0FF128D48
:1004D700171290DA90C23CE07004A3E0640170093F
:1004E70090C23CF0A3F01285EEE490C1B7F090C142
:1004F700B3F0A3F090C1BFF0A3F090C1B8F090C2E1
:100507004BF0A304F090C348E0FEA3E0FFEE6003C6
:10051700024510EF24FE7003021F0E147003023908
:100527007F1470030244AA2403600302451090C19C
:10053700BFE07004A3E064016003021C3290C2D8DC
:10054700E0FF90C22BE06F600302079890C1B4E010
:10055700600302060890C2B5E0FEA3E0FF90C34A1D
:10056700EEF0A3EFF04E700A90C2B5F0A37409F055
:10057700800E90C2B6E024FFF090C2B5E034FFF0E1
:1005870090C227E0FEA3E0FF7C007D0A124BDAAAA7
:1005970006AB0790C279E0FEA3E0FF7D64124BDA59
:1005A700EF2BFFEE3AFE90C2B6E02FFF90C2B5E008
:1005B7003E90C34CF0A3EFF090C2ADE0FEA3E0FF86
:1005C70090C34CE0FCA3E0FDD39FEC9E501190C27A
:1005D700A8E0FEA3E0FFC3ED9FEC9E4002800F90D2
:1005E700C34AE0FFA3E090C2B5CFF0A3EFF07B01D1
:1005F7007AC279B590C375E4F0A304F07F7002184E
:10060700DC90C1B4E0640160030206D090C227E029
:10061700FEA3E0FF90C34AEEF0A3EFF04E700A90FE
:10062700C227F0A37409F0800E90C228E024FFF0DF
:1006370090C227E034FFF090C227E0FEA3E0FF7CE2
:10064700007D0A124BDAAA06AB0790C279E0FEA337
:10065700E0FF7D64124BDAEF2BFFEE3AFE90C2B655
:10066700E02FFF90C2B5E03E90C34CF0A3EFF090AF
:10067700C2ADE0FEA3E0FF90C34CE0FCA3E0FDD3D6
:100687009FEC9E502290C2A8E0FEA3E0FFC3ED9F1F
:10069700EC9E40137B017AC2792790C375E4F0A3DF
:1006A70004F07F600218DC90C34AE0FFA3E090C229
:1006B70027CFF0A3EFF07B017AC2792790C375E4C7
:1006C700F0A304F07F600218DC90C1B4E06402601C
:1006D7000302397090C279E0FEA3E0FF90C34AEEAF
:1006E700F0A3EFF04E700A90C279F0A37402F08085
:1006F7000E90C27AE024FFF090C279E034FFF090C8
:10070700C227E0FEA3E0FF7C007D0A124BDAAA06AF
:10071700AB0790C279E0FEA3E0FF7D64124BDAEFEE
:100727002BFFEE3AFE90C2B6E02FFF90C2B5E03E37
:1007370090C34CF0A3EFF090C2ADE0FEA3E0FF90B2
:10074700C34CE0FCA3E0FDD39FEC9E502290C2A8CF
:10075700E0FEA3E0FFC3ED9FEC9E40137B017AC24E
:10076700797990C375E4F0A304F07F500218DC9008
:10077700C34AE0FFA3E090C279CFF0A3EFF07B017B
:100787007AC2797990C375E4F0A304F07F50021818
:10079700DC90C2E5E0FF90C22BE06F60030208E344
:1007A70090C1B4E0600302083F90C29CE0FEA3E062
:1007B700FF90C34AEEF0A3EFF04E700A90C29CF090
:1007C700A37409F0800E90C29DE024FFF090C29CB4
:1007D700E034FFF090C2E6E0FEA3E0FF7C007D0A74
:1007E700124BDA90C29DE02FFF90C29CE03E90C36F
:1007F7004CF0A3EFF090C34CE0FEA3E0FFD394507E
:10080700EE9400501BEF9400EE940040137B017AA6
:10081700C2799C90C375E4F0A304F07F000218DC52
:1008270090C34AE0FFA3E090C29CCFF0A3EFF07B18
:10083700017AC2799C0209A290C1B4E06401600305
:1008470002397090C2E6E0FEA3E0FF90C34AEEF0E3
:10085700A3EFF04E700A90C2E6F0A37408F0800E82
:1008670090C2E7E024FFF090C2E6E034FFF090C2C8
:10087700E6E0FEA3E0FF7C007D0A124BDA90C29D02
:10088700E02FFF90C29CE03E90C34CF0A3EFF090A6
:10089700C34CE0FEA3E0FFD39450EE9400501BEF4F
:1008A7009400EE940040137B017AC279E690C375F9
:1008B700E4F0A304F07F900218DC90C34AE0FFA3A2
:1008C700E090C2E6CFF0A3EFF07B017AC279E69021
:1008D700C375E4F0A304F07F900218DC90C236E001
:1008E700FF90C22BE06F6003020B3D90C1B4E06044
:1008F700030209AF90C1B9E0FEA3E0FF90C34AEE3F
:10090700F0A3EFF04E700A90C1B9F0A37402F08023
:100917000E90C1BAE024FFF090C1B9E034FFF09027
:10092700C1BBE0FEA3E0FF7C007D0A124BDAAA06FA
:10093700AB0790C1B9E0FEA3E0FF7D64124BDAEF8D
:100947002BFFEE3AFE90C1BEE02FFF90C1BDE03E07
:1009570090C34CF0A3EFF090C34CE0FEA3E0FFD3AD
:100967009432EE9400501FEF9400EE9400401790DD
:10097700C1B9E0FFA3E090C2C4CFF0A3EFF07B01C1
:100987007AC179B9801590C34AE0FFA3E090C1B955
:10099700CFF0A3EFF07B017AC179B990C375E4F08A
:1009A700A304F07F0002129590C1B4E064016003D4
:1009B700020A7990C1BBE0FEA3E0FF90C34AEEF0C4
:1009C700A3EFF04E700A90C1BBF0A37405F0800E40
:1009D70090C1BCE024FFF090C1BBE034FFF090C1B0
:1009E700BBE0FEA3E0FF7C007D0A124BDAAA06AB50
:1009F7000790C1B9E0FEA3E0FF7D64124BDAEF2B4D
:100A0700FFEE3AFE90C1BEE02FFF90C1BDE03E90E1
:100A1700C34CF0A3EFF090C34CE0FEA3E0FFD394E8
:100A270032EE9400502AEF9400EE9400402290C1D9
:100A3700BBE0FFA3E090C280CFF0A3EFF07B017A89
:100A4700C179BB90C375E4F0A304F07F100212953F
:100A570090C34AE0FFA3E090C1BBCFF0A3EFF07BC8
:100A6700017AC179BB90C375E4F0A304F07F10024B
:100A7700129590C1B4E06402600302397090C1BD61
:100A8700E0FEA3E0FF90C34AEEF0A3EFF04E700A3A
:100A970090C1BDF0A37409F0800E90C1BEE024FFA1
:100AA700F090C1BDE034FFF090C1BBE0FEA3E0FFD2
:100AB7007C007D0A124BDAAA06AB0790C1B9E0FEAB
:100AC700A3E0FF7D64124BDAEF2BFFEE3AFE90C1F5
:100AD700BDE0FCA3E0FD2FFFEC3E90C34CF0A3EF7D
:100AE700F090C34CE0FEA3E0FFD39432EE940050A5
:100AF70023EF9400EE9400401B90C26DECF0A3ED41
:100B0700F07B017AC179BD90C375E4F0A304F07F4F
:100B17002002129590C34AE0FFA3E090C1BDCFF039
:100B2700A3EFF07B017AC179BD90C375E4F0A3040C
:100B3700F07F2002129590C2BEE0FF90C22BE06FBB
:100B47006003020DA290C1B4E06003020C1290C2D0
:100B570097E0FEA3E0FF90C34AEEF0A3EFF04E70DC
:100B67000A90C297F0A37409F0800E90C298E0240F
:100B7700FFF090C297E034FFF090C2E1E0FEA3E0FF
:100B8700FF7C007D0A124BDAAA06AB0790C240E051
:100B9700FEA3E0FF7D64124BDAEF2BFFEE3AFE90E7
:100BA700C298E02FFF90C297E03E90C34CF0A3EFAE
:100BB700F090C299E0FEA3E0FF90C34CE0FCA3E0F5
:100BC700FDD39FEC9E502290C294E0FEA3E0FFC3AA
:100BD700ED9FEC9E40137B017AC2799790C375E431
:100BE700F0A304F07F8002129590C34AE0FFA3E0D0
:100BF70090C297CFF0A3EFF07B017AC2799790C3A9
:100C070075E4F0A304F07F8002129590C1B4E0640C
:100C1700016003020CDA90C2E1E0FEA3E0FF90C39B
:100C27004AEEF0A3EFF04E700A90C2E1F0A3740908
:100C3700F0800E90C2E2E024FFF090C2E1E034FFC2
:100C4700F090C2E1E0FEA3E0FF7C007D0A124BDAE0
:100C5700AA06AB0790C240E0FEA3E0FF7D64124BFB
:100C6700DAEF2BFFEE3AFE90C298E02FFF90C29783
:100C7700E03E90C34CF0A3EFF090C299E0FEA3E0F2
:100C8700FF90C34CE0FCA3E0FDD39FEC9E50229065
:100C9700C294E0FEA3E0FFC3ED9FEC9E40137B01EF
:100CA7007AC279E190C375E4F0A304F07F70021271
:100CB7009590C34AE0FFA3E090C2E1CFF0A3EFF025
:100CC7007B017AC279E190C375E4F0A304F07F70E9
:100CD70002129590C1B4E06402600302397090C2B9
:100CE70040E0FEA3E0FF90C34AEEF0A3EFF04E70A2
:100CF7000A90C240F0A37402F0800E90C241E02433
:100D0700FFF090C240E034FFF090C2E1E0FEA3E0C4
:100D1700FF7C007D0A124BDAAA06AB0790C240E0BF
:100D2700FEA3E0FF7D64124BDAEF2BFFEE3AFE9055
:100D3700C298E02FFF90C297E03E90C34CF0A3EF1C
:100D4700F090C299E0FEA3E0FF90C34CE0FCA3E063
:100D5700FDD39FEC9E502290C294E0FEA3E0FFC318
:100D6700ED9FEC9E40137B017AC2794090C375E4F6
:100D7700F0A304F07F6002129590C34AE0FFA3E05E
:100D870090C240CFF0A3EFF07B017AC2794090C3C5
:100D970075E4F0A304F07F6002129590C2D7E0FFDC
:100DA70090C22BE06F6003020EE690C1B4E06003CF
:100DB700020E4290C267E0FEA3E0FF90C34AEEF046
:100DC700A3EFF04E700A90C267F0A37409F0800E8B
:100DD70090C268E024FFF090C267E034FFF090C251
:100DE700D1E0FEA3E0FF7C007D0A124BDA90C268D7
:100DF700E02FFF90C267E03E90C34CF0A3EFF09066
:100E0700C34CE0FEA3E0FFD39450EE9400500AEFEA
:100E17009400EE94004002800F90C34AE0FFA3E0E5
:100E270090C267CFF0A3EFF07B017AC2796790C3D6
:100E370075E4F0A304F07F100211E190C1B4E064FF
:100E470001600302397090C2D1E0FEA3E0FF90C3B6
:100E57004AEEF0A3EFF04E700A90C2D1F0A37408E7
:100E6700F0800E90C2D2E024FFF090C2D1E034FFB0
:100E7700F090C2D1E0FEA3E0FF7C007D0A124BDABE
:100E870090C268E02FFF90C267E03E90C34CF0A38A
:100E9700EFF090C34CE0FEA3E0FFD39450EE940034
:100EA700501BEF9400EE940040137B017AC279D176
:100EB70090C375E4F0A304F07F000211E190C34AE8
:100EC700E0FFA3E090C2D1CFF0A3EFF07B017AC29D
:100ED70079D190C375E4F0A304F07F000211E1908B
:100EE700C226E0FF90C22BE06F600302113690C16B
:100EF700B4E06003020FA790C1B9E0FEA3E0FF9042
:100F0700C34AEEF0A3EFF064024E700890C1B9F047
:100F1700A3F0800E90C1BAE024FFF090C1B9E0348D
:100F2700FFF090C1BBE0FEA3E0FF7C007D0A124BFF
:100F3700DAAA06AB0790C1B9E0FEA3E0FF7D641211
:100F47004BDAEF2BFFEE3AFE90C1BEE02FFF90C1C8
:100F5700BDE03E90C34CF0A3EFF090C34CE0FEA37E
:100F6700E0FFD39432EE94005014EF9400EE940017
:100F7700400C90C1B9E0FFA3E090C2CA800A90C3B9
:100F87004AE0FFA3E090C1B9CFF0A3EFF07B017A6D
:100F9700C179B990C375E4F0A304F07F0002113161
:100FA70090C1B4E06401600302107190C1BBE0FE20
:100FB700A3E0FF90C34AEEF0A3EFF04E700A90C192
:100FC700BBF0A37405F0800E90C1BCE024FFF09045
:100FD700C1BBE034FFF090C1BBE0FEA3E0FF7C00A3
:100FE7007D0A124BDAAA06AB0790C1B9E0FEA3E06F
:100FF700FF7D64124BDAEF2BFFEE3AFE90C1BEE0A5
:101007002FFF90C1BDE03E90C34CF0A3EFF090C31B
:101017004CE0FEA3E0FFD39432EE9400502AEF9405
:1010270000EE9400402290C1BBE0FFA3E090C2868F
:10103700CFF0A3EFF07B017AC179BB90C375E4F0E1
:10104700A304F07F1002113190C34AE0FFA3E090A0
:10105700C1BBCFF0A3EFF07B017AC179BB90C37519
:10106700E4F0A304F07F1002113190C1B4E06402F0
:10107700600302397090C1BDE0FEA3E0FF90C34A50
:10108700EEF0A3EFF04E700A90C1BDF0A37409F023
:10109700800E90C1BEE024FFF090C1BDE034FFF0A8
:1010A70090C1BBE0FEA3E0FF7C007D0A124BDAAAE9
:1010B70006AB0790C1B9E0FEA3E0FF7D64124BDAEF
:1010C700EF2BFFEE3AFE90C1BDE0FCA3E0FD2FFF42
:1010D700EC3E90C34CF0A3EFF090C34CE0FEA3E0CE
:1010E700FFD39432EE94005022EF9400EE94004028
:1010F7001A90C273ECF0A3EDF07B017AC179BD9031
:10110700C375E4F0A304F07F20801F90C34AE0FF7B
:10111700A3E090C1BDCFF0A3EFF07B017AC179BD09
:1011270090C375E4F0A304F07F207E25021F08908A
:10113700C2D0E0FF90C22BE06F60030212BE90C1E5
:10114700B4E0600302120A90C292E0FEA3E0FF90AF
:10115700C34AEEF0A3EFF04E701D90C21AE0700282
:10116700A3E090C2926008E4F0A3743BF08016E419
:10117700F0A3743CF0800E90C293E024FFF090C27D
:1011870092E034FFF090C292E0FEA3E0FF7C007D86
:101197003C124BDA90C21BE02FFF90C21AE03E9040
:1011A700C34CF0A3EFF090C2B7E0FEA3E0FF90C3FB
:1011B7004CE0FCA3E0FDD39FEC9E502390C2B1E02E
:1011C700FEA3E0FFED9FEC9E40157B017AC279926A
:1011D70090C375E4F0A304F07F707E23021F08908C
:1011E700C34AE0FFA3E090C292CFF0A3EFF07B01E8
:1011F7007AC2799290C375E4F0A304F07F707E23DE
:10120700021F0890C1B4E06401600302397090C204
:101217001AE0FEA3E0FF90C34AEEF0A3EFF04E7092
:101227000A90C21AF0A3743BF0800E90C21BE02410
:10123700FFF090C21AE034FFF090C292E0FEA3E004
:10124700FF7C007D3C124BDA90C21BE02FFF90C25F
:101257001AE03E90C34CF0A3EFF090C2B7E0FEA3B4
:10126700E0FF90C34CE0FCA3E0FDD39FEC9E50232E
:1012770090C2B1E0FEA3E0FFED9FEC9E40157B011D
:101287007AC2791A90C375E4F0A304F07F807E22B6
:10129700021F0890C34AE0FFA3E090C21ACFF0A351
:1012A700EFF07B017AC2791A90C375E4F0A304F0DA
:1012B7007F807E22021F0890C2A7E0FF90C22BE02A
:1012C7006F704290C1B4E0600302397090C2DEE0F3
:1012D700FEA3E0FFD390C253E09F90C252E09E501E
:1012E70003023970A3E024FFF090C252E034FFF00C
:1012F7007B017AC2795290C375E4F0A304F07F00B2
:101307007E24021F0890C222E0FF90C22BE06F608C
:10131700030219B990C1B8E064016003021588900F
:10132700C1B4E060030213F090C2B5E0FEA3E0FF92
:1013370090C34AEEF0A3EFF04E700A90C2B5F0A347
:101347007409F0800E90C2B6E024FFF090C2B5E0B9
:1013570034FFF090C227E0FEA3E0FF7C007D0A1275
:101367004BDAAA06AB0790C279E0FEA3E0FF7D64E3
:10137700124BDAEF2BFFEE3AFE90C2B6E02FFF904A
:10138700C2B5E03E90C34CF0A3EFF090C2ADE0FED3
:10139700A3E0FF90C34CE0FCA3E0FDD39FEC9E507D
:1013A7002490C2A8E0FEA3E0FFC3ED9FEC9E40158A
:1013B7007B017AC279B590C375E4F0A304F07F305E
:1013C7007E20021F0890C34AE0FFA3E090C2B5CF7A
:1013D700F0A3EFF07B017AC279B590C375E4F0A36F
:1013E70004F07F307E20021F0890C1B4E0640160E2
:1013F700030214BC90C227E0FEA3E0FF90C34AEEAD
:10140700F0A3EFF04E700A90C227F0A37409F080A2
:101417000E90C228E024FFF090C227E034FFF0903E
:10142700C227E0FEA3E0FF7C007D0A124BDAAA0682
:10143700AB0790C279E0FEA3E0FF7D64124BDAEFC1
:101447002BFFEE3AFE90C2B6E02FFF90C2B5E03E0A
:1014570090C34CF0A3EFF090C2ADE0FEA3E0FF9085
:10146700C34CE0FCA3E0FDD39FEC9E502490C2A8A0
:10147700E0FEA3E0FFC3ED9FEC9E40157B017AC21F
:10148700792790C375E4F0A304F07F107E20021F34
:101497000890C34AE0FFA3E090C227CFF0A3EFF084
:1014A7007B017AC2792790C375E4F0A304F07F101B
:1014B7007E20021F0890C1B4E06402600302397005
:1014C70090C279E0FEA3E0FF90C34AEEF0A3EFF0ED
:1014D7004E700A90C279F0A37402F0800E90C27A1F
:1014E700E024FFF090C279E034FFF090C227E0FEDD
:1014F700A3E0FF7C007D0A124BDAAA06AB0790C275
:1015070079E0FEA3E0FF7D64124BDAEF2BFFEE3AA2
:10151700FE90C2B6E02FFF90C2B5E03E90C34CF0FC
:10152700A3EFF090C2ADE0FEA3E0FF90C34CE0FC58
:10153700A3E0FDD39FEC9E502490C2A8E0FEA3E059
:10154700FFC3ED9FEC9E40157B017AC2797990C36A
:1015570075E4F0A304F07F007E20021F0890C34AC1
:10156700E0FFA3E090C279CFF0A3EFF07B017AC24E
:10157700797990C375E4F0A304F07F007E20021F01
:101587000890C1B8E0B4023990C2DEE0FEA3E0FFE4
:10159700D390C253E09F90C252E09E50030239702D
:1015A700A3E024FFF090C252E034FFF07B017AC23F
:1015B700795290C375E4F0A304F07F507E20021F98
:1015C7000890C1B8E06403600302183590C1B4E025
:1015D700600302169D90C297E0FEA3E0FF90C34A06
:1015E700EEF0A3EFF04E700A90C297F0A37409F0E3
:1015F700800E90C298E024FFF090C297E034FFF08D
:1016070090C2E1E0FEA3E0FF7C007D0A124BDAAA5C
:1016170006AB0790C240E0FEA3E0FF7D64124BDA01
:10162700EF2BFFEE3AFE90C298E02FFF90C297E0B3
:101637003E90C34CF0A3EFF090C299E0FEA3E0FF09
:1016470090C34CE0FCA3E0FDD39FEC9E502490C2D6
:1016570094E0FEA3E0FFC3ED9FEC9E40157B017A6B
:10166700C2799790C375E4F0A304F07F807E2002CF
:101677001F0890C34AE0FFA3E090C297CFF0A3EF03
:10168700F07B017AC2799790C375E4F0A304F07FE9
:10169700807E20021F0890C1B4E064016003021736
:1016A7006990C2E1E0FEA3E0FF90C34AEEF0A3EF2A
:1016B700F04E700A90C2E1F0A37409F0800E90C258
:1016C700E2E024FFF090C2E1E034FFF090C2E1E0F5
:1016D700FEA3E0FF7C007D0A124BDAAA06AB079057
:1016E700C240E0FEA3E0FF7D64124BDAEF2BFFEE72
:1016F7003AFE90C298E02FFF90C297E03E90C34C0D
:10170700F0A3EFF090C299E0FEA3E0FF90C34CE096
:10171700FCA3E0FDD39FEC9E502490C294E0FEA36F
:10172700E0FFC3ED9FEC9E40157B017AC279E19003
:10173700C375E4F0A304F07F707E20021F0890C3F6
:101747004AE0FFA3E090C2E1CFF0A3EFF07B017A7C
:10175700C279E190C375E4F0A304F07F707E2002A4
:101767001F0890C1B4E06402600302397090C24060
:10177700E0FEA3E0FF90C34AEEF0A3EFF04E700A3D
:1017870090C240F0A37402F0800E90C241E024FFA3
:10179700F090C240E034FFF090C2E1E0FEA3E0FF2A
:1017A7007C007D0A124BDAAA06AB0790C240E0FE26
:1017B700A3E0FF7D64124BDAEF2BFFEE3AFE90C2F7
:1017C70098E02FFF90C297E03E90C34CF0A3EFF054
:1017D70090C299E0FEA3E0FF90C34CE0FCA3E0FDBC
:1017E700D39FEC9E502490C294E0FEA3E0FFC3ED8C
:1017F7009FEC9E40157B017AC2794090C375E4F057
:10180700A304F07F607E20021F0890C34AE0FFA375
:10181700E090C240CFF0A3EFF07B017AC27940900D
:10182700C375E4F0A304F07F607E20021F0890C117
:10183700B8E06404600302397090C1B4E060030249
:10184700190590C292E0FEA3E0FF90C34AEEF0A311
:10185700EFF04E701D90C21AE07002A3E090C292A2
:101867006008E4F0A3743BF08016E4F0A3743CF046
:10187700800E90C293E024FFF090C292E034FFF014
:1018870090C292E0FEA3E0FF7C007D3C124BDA9011
:10189700C21BE02FFF90C21AE03E90C34CF0A3EFAB
:1018A700F090C2B7E0FEA3E0FF90C34CE0FCA3E0DA
:1018B700FDD39FEC9E502390C2B1E0FEA3E0FFED65
:1018C7009FEC9E40157B017AC2799290C375E4F034
:1018D700A304F07F107E21021F0890C34AE0FFA3F4
:1018E700E090C292CFF0A3EFF07B017AC279929099
:1018F700C375E4F0A304F07F107E21021F0890C196
:10190700B4E06401600302397090C21AE0FEA3E0FC
:10191700FF90C34AEEF0A3EFF04E700A90C21AF0A0
:10192700A3743BF0800E90C21BE024FFF090C21A14
:10193700E034FFF090C292E0FEA3E0FF7C007D3C24
:10194700124BDA90C21BE02FFF90C21AE03E90C301
:101957004CF0A3EFF090C2B7E0FEA3E0FF90C34CBA
:10196700E0FCA3E0FDD39FEC9E502390C2B1E0FEC4
:10197700A3E0FFED9FEC9E40157B017AC2791A9098
:10198700C375E4F0A304F07F307E21021F0890C3E3
:101997004AE0FFA3E090C21ACFF0A3EFF07B017AF1
:1019A700C2791A90C375E4F0A304F07F307E210258
:1019B7001F0890C234E06401600302397090C2339B
:1019C700E0FF90C22BE06F6003021BF190C2D6E0EC
:1019D7006003021A5990C2DAE07033D390C2A9E0CB
:1019E700940190C2A8E094005003023970A3E02448
:1019F700FFF090C2A8E034FFF07B017AC279A8908B
:101A0700C375E4F0A304F07F007E41021F0890C273
:101A1700DAE06401600302397090C2A8E0FEA3E037
:101A2700FFD390C2AEE09F90C2ADE09E5003023953
:101A370070A3E024FFF090C2ADE034FFF07B017AA1
:101A4700C279AD90C375E4F0A304F07F107E410224
:101A57001F0890C2D6E064016003021AE190C2DA5F
:101A6700E07033D390C295E0940190C294E0940063
:101A77005003023970A3E024FFF090C294E034FFD2
:101A8700F07B017AC2799490C375E4F0A304F07FE8
:101A9700307E41021F0890C2DAE064016003023918
:101AA7007090C294E0FEA3E0FFD390C29AE09F90AB
:101AB700C299E09E5003023970A3E024FFF090C260
:101AC70099E034FFF07B017AC2799990C375E4F00D
:101AD700A304F07F407E41021F0890C2D6E0640253
:101AE7006003021B6990C2DAE07033D390C2DFE073
:101AF700940090C2DEE094005003023970A3E02402
:101B0700FFF090C2DEE034FFF07B017AC279DE900D
:101B1700C375E4F0A304F07F607E41021F0890C202
:101B2700DAE06401600302397090C2DEE0FEA3E0F0
:101B3700FFD390C2E4E09F90C2E3E09E50030239D6
:101B470070A3E024FFF090C2E3E034FFF07B017A5A
:101B5700C279E390C375E4F0A304F07F707E41027D
:101B67001F0890C2D6E06403600302397090C2DA9E
:101B7700E07033D390C2B2E0940090C2B1E0940019
:101B87005003023970A3E024FFF090C2B1E034FFA4
:101B9700F07B017AC279B190C375E4F0A304F07FBA
:101BA700907E41021F0890C2DAE0640160030239A7
:101BB7007090C2B1E0FEA3E0FFD390C2B8E09F905F
:101BC700C2B7E09E5003023970A3E024FFF090C231
:101BD700B7E034FFF07B017AC279B790C375E4F0C0
:101BE700A304F07F007E42021F0890C28FE0FF909F
:101BF700C22BE0FE6F700302397090C2E0E06E7096
:101C07000302397090C266E0FF90C22BE0FE6F704E
:101C17000302397090C2D5E06E700302397090C22A
:101C27001EE0FF90C22BE06F02397090C1B7E064ED
:101C370001702890C1BFE07002A3E0600302397011
:101C470012859890C1B8E0B401057404F08006903D
:101C5700C1B8E014F0127EA302397090C22BE0FFE6
:101C6700D394014008EFD394075002804490C2B345
:101C7700E0FF90C22BE0B5070B90C2BDE0FF90C21A
:101C87002BF0803290C1B5E06401703090C27BE0E8
:101C9700FF90C22BE0B5070590C290803B90C238F9
:101CA700E0FF90C22BE0B5070590C27B802A90C267
:101CB7002BE014F0E0FF128D1702397090C1B6E0E7
:101CC700B4011D90C22AE0FFA3E0B5070590C27BCF
:101CD700800690C22BE014F0E0FF129238023970B0
:101CE70090C234E06401600302397090C244E0FF9F
:101CF70090C22BE0B5071790C251E070057407F04A
:101D0700800690C251E014F0126E2E02397090C214
:101D170033E0FF90C22BE0B507061279D302397082
:101D270090C29BE0FF90C22BE0B5070F90C296E0F0
:101D3700600302397012708A02397090C2AFE0FFF7
:101D470090C22BE0B5070612869902397090C28FB0
:101D5700E0FF90C22BE0B507061286EE02397090BD
:101D6700C2E0E0FF90C22BE0FE6F70030239709073
:101D7700C266E0B50606127F2C02397090C2D5E024
:101D8700FF90C22BE0FE6F700302397090C21EE015
:101D97006E600302397090C2ACE014605614700391
:101DA700021E31147003021E68147003021E9E1473
:101DB7007003021ED42405600302397090C245E007
:101DC7007002A3E0700A90C245F0A37409F0800E78
:101DD70090C246E024FFF090C245E034FFF07B015B
:101DE7007AC2794590C375E4F0A304F07F007E477B
:101DF700021F0890C247E07002A3E0700A90C24732
:101E0700F0A37409F0800E90C248E024FFF090C25E
:101E170047E034FFF07B017AC2794790C375E4F05D
:101E2700A304F07F107E47021F0890C249E07002AA
:101E3700A3E0700A90C249F0A37409F0800E90C223
:101E47004AE024FFF090C249E034FFF07B017AC2F8
:101E5700794990C375E4F0A304F07F207E47021F01
:101E67000890C24DE07002A3E0700A90C24DF0A343
:101E77007409F0800E90C24EE024FFF090C24DE04E
:101E870034FFF07B017AC2794D90C375E4F0A30467
:101E9700F07F307E47806A90C24FE07002A3E07007
:101EA7000A90C24FF0A37409F0800E90C250E0244C
:101EB700FFF090C24FE034FFF07B017AC2794F9078
:101EC700C375E4F0A304F07F407E47803490C2548A
:101ED700E07002A3E0700A90C254F0A37409F08086
:101EE7000E90C255E024FFF090C254E034FFF07B1F
:101EF700017AC2795490C375E4F0A304F07F507E51
:101F07004712653D02397090C1BFE07004A3E064D9
:101F170001600302367690C2D8E0FF90C22BE06FD3
:101F2700600302217490C1B4E06003021FE290C213
:101F3700B5E0FEA3E0FF90C34AEEF0A3EFF064091B
:101F47004E601090C2B6E004F0700F90C2B5E00486
:101F5700F08007E490C2B5F0A3F090C227E0FEA39B
:101F6700E0FF7C007D0A124BDAAA06AB0790C27924
:101F7700E0FEA3E0FF7D64124BDAEF2BFFEE3AFEA3
:101F870090C2B6E02FFF90C2B5E03E90C34CF0A3DD
:101F9700EFF090C2ADE0FEA3E0FF90C34CE0FCA3DE
:101FA700E0FDD39FEC9E501190C2A8E0FEA3E0FF96
:101FB700C3ED9FEC9E4002800F90C34AE0FFA3E071
:101FC70090C2B5CFF0A3EFF07B017AC279B590C389
:101FD70075E4F0A304F07F7002331190C1B4E0649C
:101FE7000160030220AB90C227E0FEA3E0FF90C38D
:101FF7004AEEF0A3EFF064094E601090C228E004A7
:10200700F0700F90C227E004F08007E490C227F039
:10201700A3F090C227E0FEA3E0FF7C007D0A124BED
:10202700DAAA06AB0790C279E0FEA3E0FF7D64124F
:102037004BDAEF2BFFEE3AFE90C2B6E02FFF90C2CD
:10204700B5E03E90C34CF0A3EFF090C2ADE0FEA325
:10205700E0FF90C34CE0FCA3E0FDD39FEC9E502231
:1020670090C2A8E0FEA3E0FFC3ED9FEC9E40137B68
:10207700017AC2792790C375E4F0A304F07F600268
:10208700331190C34AE0FFA3E090C227CFF0A3EF3C
:10209700F07B017AC2792790C375E4F0A304F07F3F
:1020A7006002331190C1B4E064026003023970909A
:1020B700C279E0FEA3E0FF90C34AEEF0A3EFF0641D
:1020C700024E601090C27AE004F0700F90C279E07F
:1020D70004F08007E490C279F0A3F090C227E0FEF5
:1020E700A3E0FF7C007D0A124BDAAA06AB0790C279
:1020F70079E0FEA3E0FF7D64124BDAEF2BFFEE3AA7
:10210700FE90C2B6E02FFF90C2B5E03E90C34CF000
:10211700A3EFF090C2ADE0FEA3E0FF90C34CE0FC5C
:10212700A3E0FDD39FEC9E502290C2A8E0FEA3E05F
:10213700FFC3ED9FEC9E40137B017AC2797990C370
:1021470075E4F0A304F07F5002331190C34AE0FF17
:10215700A3E090C279CFF0A3EFF07B017AC279793F
:1021670090C375E4F0A304F07F5002331190C2E5E9
:10217700E0FF90C22BE06F60030222AF90C1B4E092
:10218700600302220B90C29CE0FEA3E0FF90C34ACB
:10219700EEF0A3EFF064094E601090C29DE004F0EA
:1021A700700F90C29CE004F08007E490C29CF0A3FB
:1021B700F090C2E6E0FEA3E0FF7C007D0A124BDA56
:1021C70090C29DE02FFF90C29CE03E90C34CF0A3CD
:1021D700EFF090C34CE0FEA3E0FFD39450EE9400E1
:1021E700500AEF9400EE94004002800F90C34AE03B
:1021F700FFA3E090C29CCFF0A3EFF07B017AC279F6
:102207009C02236E90C1B4E06401600302397090B0
:10221700C2E6E0FEA3E0FF90C34AEEF0A3EFF0644E
:10222700084E700890C2E6F0A3F0800E90C2E7E077
:1022370004F0700690C2E6E004F090C2E6E0FEA368
:10224700E0FF7C007D0A124BDA90C29DE02FFF90E1
:10225700C29CE03E90C34CF0A3EFF090C34CE0FE6D
:10226700A3E0FFD39450EE9400501BEF9400EE943C
:102277000040137B017AC279E690C375E4F0A304AA
:10228700F07F9002331190C34AE0FFA3E090C2E6CB
:10229700CFF0A3EFF07B017AC279E690C375E4F043
:1022A700A304F07F9002331190C236E0FF90C22B57
:1022B700E06F600302250990C1B4E0600302237B4D
:1022C70090C1B9E0FEA3E0FF90C34AEEF0A3EFF0A0
:1022D70064094E700890C1B9F0A3F0800E90C1BA9E
:1022E700E004F0700690C1B9E004F090C1BBE0FED5
:1022F700A3E0FF7C007D0A124BDAAA06AB0790C168
:10230700B9E0FEA3E0FF7D64124BDAEF2BFFEE3A54
:10231700FE90C1BEE02FFF90C1BDE03E90C34CF0E0
:10232700A3EFF090C34CE0FEA3E0FFD39432EE940A
:1023370000501FEF9400EE9400401790C1B9E0FFE2
:10234700A3E090C2C4CFF0A3EFF07B017AC179B9C3
:10235700801590C34AE0FFA3E090C1B9CFF0A3EF87
:10236700F07B017AC179B990C375E4F0A304F07FDB
:102377000002276D90C1B4E0640160030224459018
:10238700C1BBE0FEA3E0FF90C34AEEF0A3EFF06409
:10239700054E700890C1BBF0A3F0800E90C1BCE061
:1023A70004F0700690C1BBE004F090C1BBE0FEA34F
:1023B700E0FF7C007D0A124BDAAA06AB0790C1B991
:1023C700E0FEA3E0FF7D64124BDAEF2BFFEE3AFE4F
:1023D70090C1BEE02FFF90C1BDE03E90C34CF0A37B
:1023E700EFF090C34CE0FEA3E0FFD39432EE9400ED
:1023F700502AEF9400EE9400402290C1BBE0FFA367
:10240700E090C280CFF0A3EFF07B017AC179BB9057
:10241700C375E4F0A304F07F1002276D90C34AE070
:10242700FFA3E090C1BBCFF0A3EFF07B017AC179A6
:10243700BB90C375E4F0A304F07F1002276D90C131
:10244700B4E06402600302397090C1BDE0FEA3E00E
:10245700FF90C34AEEF0A3EFF064094E700890C1F5
:10246700BDF0A3F0800E90C1BEE004F0700690C1ED
:10247700BDE004F090C1BBE0FEA3E0FF7C007D0A55
:10248700124BDAAA06AB0790C1B9E0FEA3E0FF7DC5
:1024970064124BDAEF2BFFEE3AFE90C1BDE0FCA3CE
:1024A700E0FD2FFFEC3E90C34CF0A3EFF090C34C40
:1024B700E0FEA3E0FFD39432EE94005023EF9400A4
:1024C700EE9400401B90C26DECF0A3EDF07B017A17
:1024D700C179BD90C375E4F0A304F07F2002276D96
:1024E70090C34AE0FFA3E090C1BDCFF0A3EFF07B1C
:1024F700017AC179BD90C375E4F0A304F07F20028F
:10250700276D90C2BEE0FF90C22BE06F60030227E9
:102517007290C1B4E060030225DF90C297E0FEA38A
:10252700E0FF90C34AEEF0A3EFF064094E6010900D
:10253700C298E004F0700F90C297E004F08007E4BF
:1025470090C297F0A3F090C2E1E0FEA3E0FF7C0009
:102557007D0A124BDAAA06AB0790C240E0FEA3E061
:10256700FF7D64124BDAEF2BFFEE3AFE90C298E044
:102577002FFF90C297E03E90C34CF0A3EFF090C2BC
:1025870099E0FEA3E0FF90C34CE0FCA3E0FDD39FDE
:10259700EC9E502290C294E0FEA3E0FFC3ED9FECB7
:1025A7009E40137B017AC2799790C375E4F0A30428
:1025B700F07F8002276D90C34AE0FFA3E090C297A7
:1025C700CFF0A3EFF07B017AC2799790C375E4F05F
:1025D700A304F07F8002276D90C1B4E0640160031B
:1025E7000226A890C2E1E0FEA3E0FF90C34AEEF006
:1025F700A3EFF064094E601090C2E2E004F0700FA0
:1026070090C2E1E004F08007E490C2E1F0A3F0900B
:10261700C2E1E0FEA3E0FF7C007D0A124BDAAA06C6
:10262700AB0790C240E0FEA3E0FF7D64124BDAEFF8
:102637002BFFEE3AFE90C298E02FFF90C297E03E44
:1026470090C34CF0A3EFF090C299E0FEA3E0FF9097
:10265700C34CE0FCA3E0FDD39FEC9E502290C294B4
:10266700E0FEA3E0FFC3ED9FEC9E40137B017AC21F
:1026770079E190C375E4F0A304F07F7002276D90B1
:10268700C34AE0FFA3E090C2E1CFF0A3EFF07B01E4
:102697007AC279E190C375E4F0A304F07F70022752
:1026A7006D90C1B4E06402600302397090C240E0EB
:1026B700FEA3E0FF90C34AEEF0A3EFF064024E6082
:1026C7001090C241E004F0700F90C240E004F08027
:1026D70007E490C240F0A3F090C2E1E0FEA3E0FF60
:1026E7007C007D0A124BDAAA06AB0790C240E0FED7
:1026F700A3E0FF7D64124BDAEF2BFFEE3AFE90C2A8
:1027070098E02FFF90C297E03E90C34CF0A3EFF004
:1027170090C299E0FEA3E0FF90C34CE0FCA3E0FD6C
:10272700D39FEC9E502190C294E0FEA3E0FFC3ED3F
:102737009FEC9E40127B017AC2794090C375E4F00A
:10274700A304F07F60801F90C34AE0FFA3E090C21C
:1027570040CFF0A3EFF07B017AC2794090C375E4D4
:10276700F0A304F07F607E2202396D90C2D7E0FFAC
:1027770090C22BE06F60030228CF90C1B4E06003E2
:1027870002282790C267E0FEA3E0FF90C34AEEF05D
:10279700A3EFF064094E700890C267F0A3F0800EB3
:1027A70090C268E004F0700690C267E004F090C23F
:1027B700D1E0FEA3E0FF7C007D0A124BDA90C268ED
:1027C700E02FFF90C267E03E90C34CF0A3EFF0907C
:1027D700C34CE0FEA3E0FFD39450EE9400501DEFEE
:1027E7009400EE940040157B017AC2796790C37517
:1027F700E4F0A304F07F107E2302396D90C34AE012
:10280700FFA3E090C267CFF0A3EFF07B017AC27914
:102817006790C375E4F0A304F07F107E2302396D3F
:1028270090C1B4E06401600302397090C2D1E0FE48
:10283700A3E0FF90C34AEEF0A3EFF064084E7008E0
:1028470090C2D1F0A3F0800E90C2D2E004F07006DF
:1028570090C2D1E004F090C2D1E0FEA3E0FF7C007B
:102867007D0A124BDA90C268E02FFF90C267E03E04
:1028770090C34CF0A3EFF090C34CE0FEA3E0FFD36E
:102887009450EE9400501DEF9400EE940040157B99
:10289700017AC279D190C375E4F0A304F07F007E7A
:1028A7002302396D90C34AE0FFA3E090C2D1CFF075
:1028B700A3EFF07B017AC279D190C375E4F0A3044A
:1028C700F07F007E2302396D90C226E0FF90C22B75
:1028D700E06F6003022B4090C1B4E060030229AAB5
:1028E70090C1B9E0FEA3E0FF90C34AEEF0A3EFF07A
:1028F70064094E700890C1B9F0A3F0800E90C1BA78
:10290700E004F0700690C1B9E004F090C1BBE0FEAE
:10291700A3E0FF7C007D0A124BDAAA06AB0790C141
:10292700B9E0FEA3E0FF7D64124BDAEF2BFFEE3A2E
:10293700FE90C1BEE02FFF90C1BDE03E90C34CF0BA
:10294700A3EFF090C34CE0FEA3E0FFD39432EE94E4
:1029570000502CEF9400EE9400402490C1B9E0FFA2
:10296700A3E090C2CACFF0A3EFF07B017AC179B997
:1029770090C375E4F0A304F07F007E2502396D90C3
:10298700C34AE0FFA3E090C1B9CFF0A3EFF07B010A
:102997007AC179B990C375E4F0A304F07F007E256E
:1029A70002396D90C1B4E064016003022A7890C1D6
:1029B700BBE0FEA3E0FF90C34AEEF0A3EFF064058F
:1029C7004E700890C1BBF0A3F0800E90C1BCE0042C
:1029D700F0700690C1BBE004F090C1BBE0FEA3E03D
:1029E700FF7C007D0A124BDAAA06AB0790C1B9E05B
:1029F700FEA3E0FF7D64124BDAEF2BFFEE3AFE9069
:102A0700C1BEE02FFF90C1BDE03E90C34CF0A3EFE5
:102A1700F090C34CE0FEA3E0FFD39432EE94005055
:102A27002CEF9400EE9400402490C1BBE0FFA3E09C
:102A370090C286CFF0A3EFF07B017AC179BB90C338
:102A470075E4F0A304F07F107E2502396D90C34A28
:102A5700E0FFA3E090C1BBCFF0A3EFF07B017AC109
:102A670079BB90C375E4F0A304F07F107E2502398B
:102A77006D90C1B4E06402600302397090C1BDE09B
:102A8700FEA3E0FF90C34AEEF0A3EFF064094E7097
:102A97000890C1BDF0A3F0800E90C1BEE004F070B5
:102AA7000690C1BDE004F090C1BBE0FEA3E0FF7C4F
:102AB700007D0A124BDAAA06AB0790C1B9E0FEA364
:102AC700E0FF7D64124BDAEF2BFFEE3AFE90C1BDBB
:102AD700E0FCA3E0FD2FFFEC3E90C34CF0A3EFF02A
:102AE70090C34CE0FEA3E0FFD39432EE9400502550
:102AF700EF9400EE9400401D90C273ECF0A3EDF04C
:102B07007B017AC179BD90C375E4F0A304F07F20FF
:102B17007E2502396D90C34AE0FFA3E090C1BDCF87
:102B2700F0A3EFF07B017AC179BD90C375E4F0A300
:102B370004F07F207E2502396D90C2D0E0FF90C25D
:102B47002BE06F6003022CDE90C1B4E06003022C1F
:102B57002A90C292E0FEA3E0FF90C34AEEF0A3EFF3
:102B6700F0643B4E701D90C21AE07002A3E0600350
:102B7700E4801C90C293E004F0702A90C292E004B3
:102B8700F0802290C292E07004A3E0643C70089049
:102B9700C292F0A3F0800E90C293E004F07006900A
:102BA700C292E004F090C292E0FEA3E0FF7C007DB9
:102BB7003C124BDA90C21BE02FFF90C21AE03E9006
:102BC700C34CF0A3EFF090C2B7E0FEA3E0FF90C3C1
:102BD7004CE0FCA3E0FDD39FEC9E502390C2B1E0F4
:102BE700FEA3E0FFED9FEC9E40157B017AC2799230
:102BF70090C375E4F0A304F07F707E2302396D90D3
:102C0700C34AE0FFA3E090C292CFF0A3EFF07B01AD
:102C17007AC2799290C375E4F0A304F07F707E23A3
:102C270002396D90C1B4E06401600302397090C24B
:102C37001AE0FEA3E0FF90C34AEEF0A3EFF0643B77
:102C47004E700890C21AF0A3F0800E90C21BE004E9
:102C5700F0700690C21AE004F090C292E0FEA3E082
:102C6700FF7C007D3C124BDA90C21BE02FFF90C225
:102C77001AE03E90C34CF0A3EFF090C2B7E0FEA37A
:102C8700E0FF90C34CE0FCA3E0FDD39FEC9E5023F4
:102C970090C2B1E0FEA3E0FFED9FEC9E40157B01E3
:102CA7007AC2791A90C375E4F0A304F07F807E237B
:102CB70002396D90C34AE0FFA3E090C21ACFF0A398
:102CC700EFF07B017AC2791A90C375E4F0A304F0A0
:102CD7007F807E2302396D90C2A7E0FF90C22BE070
:102CE700B5073990C2E3E0FEA3E0FFC390C253E00B
:102CF7009F90C252E09E4003023970A3E004F07037
:102D07000690C252E004F07B017AC2795290C375F3
:102D1700E4F0A304F07F007E2402396D90C222E024
:102D2700FF90C22BE06F60030233EF90C1B8E064FD
:102D3700016003022FA290C1B4E06003022E089045
:102D4700C2B5E0FEA3E0FF90C34AEEF0A3EFF06444
:102D5700094E601090C2B6E004F0700F90C2B5E063
:102D670004F08007E490C2B5F0A3F090C227E0FE1C
:102D7700A3E0FF7C007D0A124BDAAA06AB0790C2DC
:102D870079E0FEA3E0FF7D64124BDAEF2BFFEE3A0A
:102D9700FE90C2B6E02FFF90C2B5E03E90C34CF064
:102DA700A3EFF090C2ADE0FEA3E0FF90C34CE0FCC0
:102DB700A3E0FDD39FEC9E502490C2A8E0FEA3E0C1
:102DC700FFC3ED9FEC9E40157B017AC279B590C396
:102DD70075E4F0A304F07F307E2002396D90C34A7A
:102DE700E0FFA3E090C2B5CFF0A3EFF07B017AC27A
:102DF70079B590C375E4F0A304F07F307E200239E3
:102E07006D90C1B4E064016003022ED590C227E043
:102E1700FEA3E0FF90C34AEEF0A3EFF064094E6013
:102E27001090C228E004F0700F90C227E004F080F1
:102E370007E490C227F0A3F090C227E0FEA3E0FFCB
:102E47007C007D0A124BDAAA06AB0790C279E0FE36
:102E5700A3E0FF7D64124BDAEF2BFFEE3AFE90C240
:102E6700B6E02FFF90C2B5E03E90C34CF0A3EFF061
:102E770090C2ADE0FEA3E0FF90C34CE0FCA3E0FDF1
:102E8700D39FEC9E502490C2A8E0FEA3E0FFC3EDC1
:102E97009FEC9E40157B017AC2792790C375E4F0B9
:102EA700A304F07F107E2002396D90C34AE0FFA390
:102EB700E090C227CFF0A3EFF07B017AC279279089
:102EC700C375E4F0A304F07F107E2002396D90C132
:102ED700B4E06402600302397090C279E0FEA3E0B7
:102EE700FF90C34AEEF0A3EFF064024E601090C269
:102EF7007AE004F0700F90C279E004F08007E49064
:102F0700C279F0A3F090C227E0FEA3E0FF7C007D2A
:102F17000A124BDAAA06AB0790C279E0FEA3E0FFDC
:102F27007D64124BDAEF2BFFEE3AFE90C2B6E02F2C
:102F3700FF90C2B5E03E90C34CF0A3EFF090C2AD56
:102F4700E0FEA3E0FF90C34CE0FCA3E0FDD39FECC1
:102F57009E502490C2A8E0FEA3E0FFC3ED9FEC9E25
:102F670040157B017AC2797990C375E4F0A304F028
:102F77007F007E2002396D90C34AE0FFA3E090C234
:102F870079CFF0A3EFF07B017AC2797990C375E42A
:102F9700F0A304F07F007E2002396D90C1B8E0B441
:102FA700023A90C2E3E0FEA3E0FF90C252E06E70E7
:102FB70003A3E06F700302397090C253E004F0700E
:102FC7000690C252E004F07B017AC2795290C37531
:102FD700E4F0A304F07F507E2002396D90C1B8E081
:102FE7006403600302325390C1B4E060030230B956
:102FF70090C297E0FEA3E0FF90C34AEEF0A3EFF084
:1030070064094E601090C298E004F0700F90C29768
:10301700E004F08007E490C297F0A3F090C2E1E0EB
:10302700FEA3E0FF7C007D0A124BDAAA06AB0790ED
:10303700C240E0FEA3E0FF7D64124BDAEF2BFFEE08
:103047003AFE90C298E02FFF90C297E03E90C34CA3
:10305700F0A3EFF090C299E0FEA3E0FF90C34CE02D
:10306700FCA3E0FDD39FEC9E502490C294E0FEA306
:10307700E0FFC3ED9FEC9E40157B017AC2799790E4
:10308700C375E4F0A304F07F807E2002396D90C3FE
:103097004AE0FFA3E090C297CFF0A3EFF07B017A5D
:1030A700C2799790C375E4F0A304F07F807E200275
:1030B700396D90C1B4E06401600302318690C2E1CA
:1030C700E0FEA3E0FF90C34AEEF0A3EFF064094EE1
:1030D700601090C2E2E004F0700F90C2E1E004F0EB
:1030E7008007E490C2E1F0A3F090C2E1E0FEA3E024
:1030F700FF7C007D0A124BDAAA06AB0790C240E0BC
:10310700FEA3E0FF7D64124BDAEF2BFFEE3AFE9051
:10311700C298E02FFF90C297E03E90C34CF0A3EF18
:10312700F090C299E0FEA3E0FF90C34CE0FCA3E05F
:10313700FDD39FEC9E502490C294E0FEA3E0FFC312
:10314700ED9FEC9E40157B017AC279E190C375E44F
:10315700F0A304F07F707E2002396D90C34AE0FF30
:10316700A3E090C2E1CFF0A3EFF07B017AC279E14F
:1031770090C375E4F0A304F07F707E2002396D9050
:10318700C1B4E06402600302397090C240E0FEA35C
:10319700E0FF90C34AEEF0A3EFF064024E60109098
:1031A700C241E004F0700F90C240E004F08007E4F1
:1031B70090C240F0A3F090C2E1E0FEA3E0FF7C00E4
:1031C7007D0A124BDAAA06AB0790C240E0FEA3E0E5
:1031D700FF7D64124BDAEF2BFFEE3AFE90C298E0C8
:1031E7002FFF90C297E03E90C34CF0A3EFF090C240
:1031F70099E0FEA3E0FF90C34CE0FCA3E0FDD39F62
:10320700EC9E502490C294E0FEA3E0FFC3ED9FEC38
:103217009E40157B017AC2794090C375E4F0A30400
:10322700F07F607E2002396D90C34AE0FFA3E090F3
:10323700C240CFF0A3EFF07B017AC2794090C3750B
:10324700E4F0A304F07F607E2002396D90C1B8E0FE
:103257006404600302397090C1B4E0600302333A3A
:1032670090C292E0FEA3E0FF90C34AEEF0A3EFF016
:10327700643B4E701D90C21AE07002A3E06003E445
:10328700801C90C293E004F0702A90C292E004F090
:10329700802290C292E07004A3E0643C700890C260
:1032A70092F0A3F0800E90C293E004F0700690C2F3
:1032B70092E004F090C292E0FEA3E0FF7C007D3C28
:1032C700124BDA90C21BE02FFF90C21AE03E90C368
:1032D7004CF0A3EFF090C2B7E0FEA3E0FF90C34C21
:1032E700E0FCA3E0FDD39FEC9E502490C2B1E0FE2A
:1032F700A3E0FFC3ED9FEC9E40157B017AC2799254
:1033070090C375E4F0A304F07F107E2102396D901D
:10331700C34AE0FFA3E090C292CFF0A3EFF07B0196
:103327007AC2799290C375E4F0A304F07F107E21EE
:1033370002396D90C1B4E06401600302397090C234
:103347001AE0FEA3E0FF90C34AEEF0A3EFF0643B60
:103357004E700890C21AF0A3F0800E90C21BE004D2
:10336700F0700690C21AE004F090C292E0FEA3E06B
:10337700FF7C007D3C124BDA90C21BE02FFF90C20E
:103387001AE03E90C34CF0A3EFF090C2B7E0FEA363
:10339700E0FF90C34CE0FCA3E0FDD39FEC9E5024DC
:1033A70090C2B1E0FEA3E0FFC3ED9FEC9E40157B0A
:1033B700017AC2791A90C375E4F0A304F07F307ED6
:1033C7002102396D90C34AE0FFA3E090C21ACFF003
:1033D700A3EFF07B017AC2791A90C375E4F0A304D6
:1033E700F07F307E2102396D90C234E064016003C2
:1033F70002397090C233E0FF90C22BE06F60030286
:10340700363190C2D6E0600302348F90C2DAE070A2
:103417003990C2ADE0FEA3E0FFC390C2A9E09F9040
:10342700C2A8E09E4003023970A3E004F070069042
:10343700C2A8E004F07B017AC279A890C375E4F0D2
:10344700A304F07F007E4102396D90C2DAE0640187
:103457006003023970C390C2AEE094DC90C2ADE065
:1034670094004003023970A3E004F0700690C2ADE7
:10347700E004F07B017AC279AD90C375E4F0A30450
:10348700F07F107E4102396D90C2D6E0640160037F
:1034970002351790C2DAE0703990C299E0FEA3E0D6
:1034A700FFC390C295E09F90C294E09E400302390B
:1034B70070A3E004F0700690C294E004F07B017AF8
:1034C700C2799490C375E4F0A304F07F307E410283
:1034D700396D90C2DAE064016003023970C390C2AB
:1034E7009AE094DC90C299E094004003023970A3FB
:1034F700E004F0700690C299E004F07B017AC2798B
:103507009990C375E4F0A304F07F407E4102396DC2
:1035170090C2D6E06402600302359F90C2DAE07081
:103527003990C2E3E0FEA3E0FFC390C2DFE09F90C3
:10353700C2DEE09E4003023970A3E004F0700690FB
:10354700C2DEE004F07B017AC279DE90C375E4F055
:10355700A304F07F607E4102396D90C2DAE0640116
