:0300000002C84DE6
:0800F800FFFF4457494E543547
:10C84D00759401759502758E0075930075C8707598
:10C85D00C96075F80075F90175A80075B800759A6D
:10C86D000075A90075B90053D0E7787FE4F6D8FDBF
:10C87D009080007F007E80E4F0A3DFFCDEFA7581FE
:04C88D001B02C8CCF6
:10AF870090C8C3EEF0A3EFF0A3EBF0A3EAF0A3E9B8
:01AF9700F0C9
:10AF9800E490C8CAF0A3F0A3F0A3F0A3F0A3F0A331
:10AFA800F0A3F090C8C8E0FAA3E0FB4A700302B12E
:10AFB8004690C8C3E0FEA3E0FFC3E49FFFE49EFE03
:10AFC800E4FCFD90C8D212A03DAF03AE02E4FCFD44
:10AFD80090C8D2E0F8A3E0F9A3E0FAA3E0FBC3121B
:10AFE800A006501190C8D2A3A3E0FFA3E090C8C860
:10AFF800CFF0A3EFF090C8C3E0FCA3E0FDECC313CF
:10B00800FFED1390C8CACFF0A3EFF0ED5401FFA3F2
:10B01800E4F0A3EFF0C2AFE4F5F190C8CAE0FCA3F6
:10B02800E0FDECF5F28DF375F40175F8AF30FCFD39
:10B0380090C8CCE07002A3E0603DD2FE20FEFD90F7
:10B04800C8C5E0FBA3E475F001129E19A9F0FAE562
:10B05800FC129D6890C8C5E0FBA3E475F001129E40
:10B0680019A9F0FAE5FD129D6890C8C9E024FFF01F
:10B0780090C8C8E034FFF090C8C8E0FCA3E0FDEC3D
:10B08800C313FFED1390C8CECFF0A3EFF0ED54013A
:10B09800FFA3E4F0A3EFF090C8CE74FFF5F0129E82
:10B0A8001945F0605BD2FE20FEFD90C8C5E0FBA309
:10B0B800E475F001129E19A9F0FAE5FA129D68905C
:10B0C800C8C5E0FBA3E475F001129E19A9F0FAE5E2
:10B0D800FB129D6890C8C5E0FBA3E475F001129EC1
:10B0E80019A9F0FAE5FC129D6890C8C5E0FBA3E435
:10B0F80075F001129E19A9F0FAE5FD129D68809776
:10B1080090C8D0E07002A3E0602FD2FE20FEFD9030
:10B11800C8C5E0FBA3E475F001129E19A9F0FAE591
:10B12800FA129D6890C8C5E0FBA3E475F001129E71
:0EB1380019A9F0FAE5FB129D68E4F5F8D2AF14
:01B1460022E6
:10B4AC0090C8C7EEF0A3EFF0A3EBF0A3EAF0A3E98A
:01B4BC00F09F
:10B4BD00E490C8CEF0A3F0A3F0A3F0A3F0A3F09016
:10B4CD00C8CCE07002A3E0700302B63E90C8C7E09E
:10B4DD00FEA3E0FFC3E49FFFE49EFED390C8CDE042
:10B4ED009F90C8CCE09E4005EEF0A3EFF090C8C74A
:10B4FD00E0FAA3E0FBEAC313FCEB13FDEB5401FFF1
:10B50D0090C8CEE4F0A3EFF0C2AFE4F5F1ECF5F2A4
:10B51D00AF058FF375F40175F88330FCFD90C8CE3F
:10B52D00E07002A3E0603D90C8C9E0FBA3E475F0B4
:10B53D0001129E19A9F0FA129D22F5FC90C8C9E0DE
:10B54D00FBA3E475F001129E19A9F0FA129D22F5E4
:10B55D00FDD2FE20FEFD90C8CDE024FFF090C8CCBA
:10B56D00E034FFF090C8CCE0FCA3E0FDECC313FF8A
:10B57D00ED1390C8D0CFF0A3EFF0ED5401FFA3E48D
:10B58D00F0A3EFF075F88F90C8D074FFF5F0129E10
:10B59D001945F0605B90C8C9E0FBA3E475F001129A
:10B5AD009E19A9F0FA129D22F5FA90C8C9E0FBA3E5
:10B5BD00E475F001129E19A9F0FA129D22F5FB9087
:10B5CD00C8C9E0FBA3E475F001129E19A9F0FA12A7
:10B5DD009D22F5FC90C8C9E0FBA3E475F001129E15
:10B5ED0019A9F0FA129D22F5FDD2FE30FE9980FBCD
:10B5FD0090C8D2E07002A3E0603275F88C90C8C993
:10B60D00E0FBA3E475F001129E19A9F0FA129D2238
:10B61D00F5FA90C8C9E0FBA3E475F001129E19A9D3
:10B62D00F0FA129D22F5FBD2FE20FEFDE4F5F8D2D4
:01B63D00AF5D
:01B63E0022E9
:10BAE20090C9C3EEF0A3EFF0A3EBF0A3EAF0A3E951
:01BAF200F063
:10BAF300A3E0FEA3E0FF4E700302BC5B90C9C3E06A
:10BB0300FCA3E0FDC3E49DFDE49CFCD3EF9DEE9C10
:10BB1300400AAF0590C9C8ECF0A3EFF090C9C3E0A9
:10BB2300FCA3E0FDECC313FEED13FBAA06ED5401E9
:10BB3300FDC2AFE4F5F1EAF5F2AF038FF375F4015B
:10BB430075F88330FCFDED604FC390C9C9E09402E2
:10BB530090C9C8E09400500302BC5690C9C5E0FBED
:10BB6300A3E475F001129E19A9F0FA129D22F5FCC7
:10BB730090C9C5E0FBA3E475F001129E19A9F0FA80
:10BB8300129D22F5FDD2FE20FEFD90C9C9E024FEE0
:10BB9300F090C9C8E034FFF090C9C8E0FEA3E07894
:10BBA30002CEC313CE13D8F9FF75F88FEF1FAC067F
:10BBB30070011E4C605B90C9C5E0FBA3E475F00106
:10BBC300129E19A9F0FA129D22F5FA90C9C5E0FB5D
:10BBD300A3E475F001129E19A9F0FA129D22F5FB58
:10BBE30090C9C5E0FBA3E475F001129E19A9F0FA10
:10BBF300129D22F5FC90C9C5E0FBA3E475F0011288
:10BC03009E19A9F0FA129D22F5FDD2FE30FE9D8009
:10BC1300FB90C9C9E030E1047F0180027F00EF603F
:10BC23003275F88C90C9C5E0FBA3E475F001129E50
:10BC330019A9F0FA129D22F5FA90C9C5E0FBA3E415
:10BC430075F001129E19A9F0FA129D22F5FBD2FE9E
:08BC530020FEFDE4F5F8D2AF7C
:01BC5B0022C6
:10E24F00EC90C9F9F0EDA3F07B017AC979F990C987
:0AE25F00C8E4F0A37402F002BAE272
:10E30200EF4E6010E4FD0DEDC3943240F9EF1F7043
:04E31200EF1E80EC8E
:01E3160022E4
:08D11C0090C9D1EEF0A3EFF081
:10D12400A3745AF0A37401F090C9D1E0FCA3E0FD0C
:10D13400EC90C9D5F0A3EDF07B017AC979D390C8FE
:10D14400CCE4F0A37402F07F847E0012B4AC7FF4CC
:10D154007E0112E3027B017AC979D390C8C8E4F056
:10D16400A37402F07F147E0012AF8790C9D1E0FE51
:10D17400A3E0FFA3E0B506D6A3E0B507D1E490C9C8
:10D18400D3F0A3F0A3F0A3F07B017AC979D390C8BC
:0DD19400CCF0A37402F07F167E0002B4AC54
:08DB190090C8A2EEF0A3EFF0AA
:10DB2100E4A3F0A3F090C8A2E0FEA3E0FFC390C875
:10DB3100A5E09F90C8A4E09E5025E4FBFA7F017EFA
:10DB41000012E3020BBB00010ABA01F1BB2CEE90FB
:0FDB5100C8A5E004F070CE90C8A4E004F080C630
:01DB600022A2
:10DB6100EF14601814602314602E240370397401BB
:10DB7100A805088002C333D8FC42B7227401A80566
:10DB8100088002C333D8FC42BC227401A805088076
:10DB910002C333D8FC42BD22AF057401A807088037
:08DBA10002C333D8FC42BE228E
:10DA3900EF1460191460251460312403703D7401DA
:10DA4900A805088002C333D8FCF452B7227401A890
:10DA590005088002C333D8FCF452BC227401A8051E
:10DA6900088002C333D8FCF452BD22AF057401A863
:0CDA790007088002C333D8FCF452BE2220
:10CDBA00EF14602D14604A1460672403600302CEE6
:10CDCA004CEB600E7401A805088002C333D8FC42FC
:10CDDA0080227401A805088002C333D8FCF452806B
:10CDEA0022EB600E7401A805088002C333D8FC4206
:10CDFA0090227401A805088002C333D8FCF452902B
:10CE0A0022EB600E7401A805088002C333D8FC42E5
:10CE1A00A0227401A805088002C333D8FCF452A0EA
:10CE2A0022EB600E7401A805088002C333D8FC42C5
:10CE3A00B022AF057401A807088002C333D8FCF4F6
:03CE4A0052B022C1
:10D8A000EF14601A1460271460342403704274016A
:10D8B000A805088002C333D8FC5580FE803474016B
:10D8C000A805088002C333D8FC5590FE802474015B
:10D8D000A805088002C333D8FC55A0FE8014AF050C
:10D8E0007401A807088002C333D8FC55B0FE80023B
:04D8F000E4FEAF069D
:01D8F4002211
:10E0FE00758911E4F58CF58AC28CF518F51A4389E9
:0EE10E0001758CBC758ACDD2A9D2AFD28C22FD
:03000B0002D38697
:0DD38600C0E0C0D075D000C000C006C007D8
:10D39300C2AF758CBC758ACD0519751B0074017EEF
:10D3A30000A81B088005C333CE33CED8F9FFEF5551
:10D3B3001A602DE51B25E02408F808E6161870010D
:10D3C30016E51B25E02408F8E6FE08E64E7011AFCB
:10D3D3001B04A807088002C333D8FC4218F4521A6E
:09D3E300051BE51BB408B6D2AF2E
:0BD3EC00D007D006D000D0D0D0E03237
:10E26900758911E4F58DF58BC28ED2AF438910758E
:0AE279008DBC758BCDD2ABD28E2286
:03001B0002E39E5F
:0DE39E00C2AF758DBC758BCDB290D2AF3281
:10E3410075C8F075CD58E4F5CC75CB58F5CA43C8FE
:04E3510001D2AD2226
:03002B0002E3C429
:09E3C400C2AFC2C6B291D2AF3261
:10E0BB00C2AF7401A807088002C333D8FCFE421A12
:10E0CB00EF25E02408F8A60408A605EEF45218D2B2
:02E0DB00AF2272
:10E31700C2AF7401A807088002C333D8FCF4521AAD
:05E327005218D2AF22E4
:10E36900C2AF7401A807088002C333D8FC5518FF4F
:02E37900D2AF21
:01E37B00227F
:10D99D00AB07AA06A905A8047F007E387D317C005F
:10D9AD00129F74C3E49F90C8A1F074049E90C8A008
:10D9BD00F043C9407D04E4FF12DB617D05E4FF12F5
:10D9CD00DA3943803075D88075985090C8A0E0FC46
:0DD9DD00A3E0FDECF5BA8DAA43A810D2AC72
:01D9EA00221A
:10DAD000AB07AA06A905A8047F007E707D627C00C2
:10DAE000129F74C3E49F90C8A1F074049E90C8A0D4
:10DAF000F043C9207D06E4FF12DB617D07E4FF12DD
:10DB0000DA394380C0759B9090C8A0E0FCA3E0FD8B
:08DB1000ECF5BB8D9D439A0169
:01DB180022EA
:10DD8D00759680759780AB07AA06A905A8047F0034
:10DD9D007EC07D897C01129F74AD07AC06ECF5D970
:10DDAD00AF058FE743B80CE4909812F0A3F0A3F001
:10DDBD00A3F090981AF0909816F0A3F0A3F0A3F0AA
:01DDCD002233
:10E0700075A78075AB80AB07AA06A905A8047F0029
:10E080007EC07D897C01129F74AD07AC06ECF5AEB5
:07E09000AF058FAF43B8306C
:01E097002266
:10D94A00EF14601B1460291460372403704490C8D4
:10D95A009CE0FCA3E0FDA3E0FEA3E0FF02D99D90BA
:10D96A00C89CE0FCA3E0FDA3E0FEA3E0FF02DAD03E
:10D97A0090C89CE0FCA3E0FDA3E0FEA3E0FF02DD6B
:10D98A008D90C89CE0FCA3E0FDA3E0FEA3E0FF129B
:03D99A00E0702218
:10B1470090C89BEFF0A3ECF0A3EDF0A3EBF0A3EA1C
:04B15700F0A3E9F088
:10B15B00C2AFE4A3F0A3F090C89CE0FEA3E0FFC352
:10B16B0090C8A2E09F90C8A1E09E400302B21F903E
:10B17B00C89EE0FBA3E475F001129E19A9F0FA1228
:10B18B009D22FF90C89BE0FE75F009A42400F58278
:10B19B00E5F03488F583EE75F008A42583F583E09C
:10B1AB00FCA3E0FD75F009EEA42400F582E5F03474
:10B1BB0080F583EE75F008A42583F583E5822DF5E4
:10B1CB0082E5833CF583EFF075F009EEA42400F5DE
:10B1DB0082E5F03488F583EE75F008A42583F583BA
:10B1EB00E475F001129E0375F009EEA42400F582BC
:10B1FB00E5F03488F583EE75F008A42583F583E03C
:10B20B005403F090C8A2E004F0700690C8A1E004CB
:10B21B00F002B16290C89BE014604214607014702D
:10B22B000302B2C72403600302B2F7908808E06000
:10B23B000302B2F704F0908802E0FEA3E02400F5CD
:10B24B008274803EF583E0F599908803E004F070FA
:10B25B0006908802E004F090880202B2F3909011FD
:10B26B00E0600302B2F704F090900BE0FEA3E02441
:10B27B0009F58274883EF583E0F59C90900CE00410
:10B28B00F0700690900BE004F090900B805A909821
:10B29B001AE0705804F0909814E0FEA3E02412F525
:10B2AB008274903EF583E0F59E909815E004F07063
:10B2BB0006909814E004F0909814802C90A023E052
:10B2CB00702A04F090A01DE0FEA3E0241BF582740D
:10B2DB00983EF583E0F5AC90A01EE004F07006906C
:0EB2EB00A01DE004F090A01DE05403F0D2AFCF
:01B2F9002232
:0300230002D00008
:10D00000C0E0C083C082C0D075D000C006C007C2D7
:10D01000AF30982AC298908804E0FEA3E02400F57F
:10D020008274843EF583E599F0908805E004F07001
:10D0300006908804E004F0908804E05403F03099EE
:10D040003FC299908802E0FEA3E0FF908800E06E66
:10D050007003A3E06F602474002FF58274803EF5A6
:10D0600083E0F599908803E004F07006908802E070
:10D0700004F0908802E05403F08005908808E4F002
:0FD08000D2AFD007D006D0D0D082D083D0E0324C
:0300530002D6785A
:10D67800C0E0C083C082C0D075D000C006C007C259
:10D68800AF5396FE909814E0FEA3E0FF909812E046
:10D698006E7003A3E06F602474122FF58274903EBD
:10D6A800F583E0F59E909815E004F07006909814C4
:10D6B800E004F0909814E05403F0800590981AE480
:10D6C800F0D2AFD007D006D0D0D082D083D0E0320D
:03005B0002DBA91C
:10DBA900C0E0C083C082C0D075D000C006C2AF53E8
:10DBB90097FE909816E0FEA3E02412F58274943E35
:10DBC900F583E59FF0909817E004F0700690981699
:10DBD900E004F0909816E05403F0D2AFD006D0D00C
:07DBE900D082D083D0E032AE
:0300630002D6D8EA
:10D6D800C0E0C083C082C0D075D000C006C007C2F9
:10D6E800AF53A7FE90A01DE0FEA3E0FF90A01BE0B3
:10D6F8006E7003A3E06F6024741B2FF58274983E4C
:10D70800F583E0F5AC90A01EE004F0700690A01D33
:10D71800E004F090A01DE05403F0800590A023E4FD
:10D72800F0D2AFD007D006D0D0D082D083D0E032AC
:03006B0002DBF0C5
:10DBF000C0E0C083C082C0D075D000C006C2AF53A1
:10DC0000ABFE90A01FE0FEA3E0241BF582749C3EB7
:10DC1000F583E5ADF090A020E004F0700690A01F21
:10DC2000E004F090A01FE05403F0D2AFD006D0D0B3
:07DC3000D082D083D0E03266
:0300830002CD1F8C
:10CD1F00C0E0C083C082C0D075D000C006C007C2BB
:10CD2F00AFE59B30E02E759B90539BFE90900DE0EE
:10CD3F00FEA3E02409F582748C3EF583E59CF09008
:10CD4F00900EE004F0700690900DE004F090900DBE
:10CD5F00E05403F0E59B30E143759B90539BFD90AE
:10CD6F00900BE0FEA3E0FF909009E06E7003A3E04C
:10CD7F006F602474092FF58274883EF583E0F59C6B
:10CD8F0090900CE004F0700690900BE004F09090FF
:10CD9F000BE05403F08005909011E4F0D2AFD00770
:0BCDAF00D006D0D0D082D083D0E0327C
:10E32C007596807597807C00ECF5D975E7E0759E45
:04E33C000D53B8F3D2
:01E3400022BA
:0BE0980090C8D7EBF0A3EAF0A3E9F07A
:10E0A30090C9027401F0A374C8F0A374DAF090C9A4
:07E0B30002E4F0A3F0A3F06A
:01E0BA002243
:02E3D30080FECA
:057AC40042C9FB0000B7
:10CA8A00E490C896F0A3F0A3740AF0A3740DF0A37F
:10CA9A0074EFF012E0FE12E26912ADC0E4FD7F020B
:10CAAA0012DA397D607CEAE4FF12E0BB7DF47C0196
:10CABA007F0112E0BB12D310D2AF90C71CE0FF1265
:10CACA00DECE12A4927D887C137F0712E0BB7B0125
:10CADA007AC8799790C8CCE4F0A304F07F007E82EC
:10CAEA0012B4AC12536D12DD0890C9FBE07002A3B8
:10CAFA00E070187F0712E369EF601090C9FBE4F059
:10CB0A00A304F090C71CF0FF12DECE90C9FBE070C0
:10CB1A0002A3E060D112DD4B12D54512B63F90C890
:0BCB2A0094EEF0A3EFF012010080BBBE
:107AC90041C7BA0042C720000041C70D0044C7831F
:107AD9000000000046C705000000000000608AC6DB
:107AE9007B000000010002000300040005000600FD
:107AF9000700080009000A000B000C000D000E0029
:107B09000F001000110012001300140015001600D8
:107B19001700180019001A001B001C001D001E0088
:107B29001F00200021002200230024002500260038
:107B39002700280029002A002B002C002D002E00E8
:107B49002F00300031003200330034003500360098
:107B59003700380039003A003B003C003D003E0048
:107B69003F0040004100420043004442C739000041
:107B790041C7BD0042C711000042C735000050C7C8
:107B8900A00000000000000000000000000000004C
:107B99000050C7570000000000000000000000006E
:107BA9000000000050C74400000000000000000071
:107BB900000000000000004CC77100000000000038
:107BC90000000000000042C7C4000042C781000055
:107BD90042C733000042C7C0000042C77D000042CF
:107BE900C7B2000042C742000042C76F000042C747
:107BF9000B000042C73B000041C79F0042C7C600B7
:107C09000042C714000042C71E000041C70E0042CF
:107C1900C78D012842C78F022942C793032A42C749
:107C290095042B42C797052C42C799062D42C79B3D
:107C3900072E41C7130842C72A092F42C7310A3004
:107C490041C76D0B42C71A0C3142C7280D3241C7D3
:107C59003F0E41C7560F42C7B8103342C7C211344D
:107C690041C7271242C79D133542C7B6143641C7CB
:107C7900171542C7B0163742C787173841C72618A4
:107C890041C71D1941C7161A42C7371B3942C724B4
:107C99001C3A42C77F1D3B42C78B1E3C42C76B1F24
:107CA9003D42C722203E42C769213F42C7BE22400A
:107CB90042C740234142C7B4244242C70F25434229
:107CC900C789264442C72C000041C76E0041C72E10
:107CD9000042C767000042C73D000042C7BB000021
:107CE90042C72F000041C6680041C6690041C66A03
:107CF9000041C66B0041C66C0041C66D0041C66EAD
:107D09000042C66F000042C671000042C6730000FF
:0A7D190042C675000042C677000064
:10D1A10090C675F0A3F090C66AF090C718E0FEA390
:10D1B100E0FF7C007D0A129D9CAA06AB0790C75434
:10D1C100E0FEA3E0FF7D64129D9CEF2BFFEE3AFE93
:10D1D10090C792E02FFF90C791E03E90C89FF0A3C7
:0ED1E100EFF07F0090C89FE0FCA3E0FD7E8190
:10D1EF0090C679EEF0A3EFF090C7C6ECF0A3EDF088
:10D1FF0090C79F7401F0FB7AC779C690C8CCE4F052
:0FD20F00A304F012B4AC7DBC7C027F0602E0BB2E
:0CE3B800E490C79FF090C71EF0A3F02275
:10D5450090C79FE060637F0612E369EF605B90C65A
:10D5550079E0FEA3E0FF7B017AC7791490C8C8E49F
:10D56500F0A304F012AF8790C714E0FEA3E0FF908C
:10D57500C7C6E0FCA3E0FDB50707ECB5060302E36B
:10D58500B8C390C71FE0940290C71EE094005019DD
:10D5950090C679E0FEA3E0FF12D1EF90C71FE0042B
:0AD5A500F0700690C71EE004F022AB
:06E3CD00E490C70DF022F0
:10C0960090C8BFECF0A3EDF0EE600302C1B4EF244C
:10C0A600FE606A14606B14700302C1792403600396
:10C0B60002C1B490C8BFE0FEA3E0FFEE703DEF14EE
:10C0C6006019146026240270327F037E1012E1C8C4
:10C0D6007F137E1012E1C87F33805C7F037E1012CF
:10C0E600E1C87F137E1012E1E3801E7F037E1012EB
:10C0F600E1E37F137E1012E1C8800E7F037E1012EB
:10C10600E1C87F137E1012E1C87F3380627F5380BF
:10C116002690C8BFE0FEA3E0FFEE7043EF14601B5D
:10C1260014602A240270387F637E1012E1C87F7380
:10C136007E1012E1C87F837E1080627F637E1012BC
:10C14600E1C87F737E1012E1E37F8380227F637EE6
:10C156001012E1E37F737E1012E1C87F8380107FA7
:10C16600637E1012E1C87F737E1012E1C87F837E62
:10C1760010803890C8BFE0FEA3E0FFEE7022EF14F7
:10C18600601004701B7F137E1112E1E37F337E1172
:10C1960080197F137E1112E1C87F337E1102E1E31D
:0FC1A6007F137E1112E1C87F337E1112E1C82290
:10912E0090C8BFECF0A3EDF0EE60030296D2EF1202
:10913E00A0D6916E1092621193281293A513949F4C
:10914E001495651595E21696871791E53392C534F9
:10915E0094223595023696353796AC38000096D265
:10916E0090C8BFE07002A3E070177F537E1112E12A
:10917E00AD7F637E1112E1AD7F737E1112E1E3804C
:10918E004290C8BFE07004A3E0640170107F537E6C
:10919E001112E1AD7F637E1112E1E3801F90C8BF13
:1091AE00E07004A3E064027F537E11700512E1E3C8
:1091BE00800312E1AD7F637E1112E1AD7F737E11EC
:1091CE0012E1AD90C8BFE07004A3E0640370047DAB
:1091DE00018079E4FD807590C8BFE07002A3E07055
:1091EE00177F537E1112E1AD7F637E1112E1AD7FC9
:1091FE00737E1112E1E3804290C8BFE07004A3E0D9
:10920E00640170107F537E1112E1AD7F637E1112E7
:10921E00E1E3801F90C8BFE07004A3E064027F53B7
:10922E007E11700512E1E3800312E1AD7F637E11C2
:10923E0012E1AD7F737E1112E1AD90C8BFE07004F4
:10924E00A3E0640370047D018002E4FDFC7F807E58
:10925E00210296CF90C8BFE07002A3E070107F93FA
:10926E007E1112E1AD7F037E1212E1E3802F90C8D2
:10927E00BFE07004A3E0640170097F937E1112E1D8
:10928E00E3801390C8BFE07004A3E06402700E7F09
:10929E00937E1112E1AD7F037E1212E1AD90C8BF35
:1092AE00E07004A3E0640270047D018002E4FDFC22
:1092BE007F107E220296CF90C8BFE07002A3E070AE
:1092CE00107F937E1112E1AD7F037E1212E1E380D7
:1092DE002F90C8BFE07004A3E0640170097F937EF5
:1092EE001112E1E3801390C8BFE07004A3E06402A2
:1092FE00700E7F937E1112E1AD7F037E1212E1ADEF
:10930E0090C8BFE07004A3E0640270047D01800287
:10931E00E4FDFC7F107E220296CF90C8BFE0700263
:10932E00A3E070177F237E1212E1AD7F837E901231
:10933E00E1AD7F937E9012E1E3804290C8BFE07072
:10934E0004A3E0640170107F237E1212E1AD7F83CF
:10935E007E9012E1E3801F90C8BFE07004A3E0642A
:10936E00027F237E12700512E1E3800312E1AD7FCE
:10937E00837E9012E1AD7F937E9012E1AD90C8BFD7
:10938E00E07004A3E0640370047D018002E4FDFC40
:10939E007F307E390296CF90C8BFE07002A3E07096
:1093AE00177F637E1212E1AD7F737E1212E1AD7FE5
:1093BE00837E1212E1E3804290C8BFE07004A3E006
:1093CE00640170107F637E1212E1AD7F737E121204
:1093DE00E1E3801F90C8BFE07004A3E064027F63E6
:1093EE007E12700512E1E3800312E1AD7F737E12EF
:1093FE0012E1AD7F837E1212E1AD90C8BFE0700422
:10940E00A3E0640370047D018002E4FDFC7F907E86
:10941E00220296CF90C8BFE07002A3E070177F6360
:10942E007E1212E1AD7F737E1212E1AD7F837E124A
:10943E0012E1E3804290C8BFE07004A3E0640170C3
:10944E00107F637E1212E1AD7F737E1212E1E38014
:10945E001F90C8BFE07004A3E064027F637E1270A9
:10946E000512E1E3800312E1AD7F737E1212E1ADCE
:10947E007F837E1212E1AD90C8BFE07004A3E0645A
:10948E000370047D018002E4FDFC7F907E22029633
:10949E00CF90C8BFE07002A3E070107F037E13125E
:1094AE00E1AD7413FFFE12E1E3802F90C8BFE070B0
:1094BE0004A3E0640170097F037E1312E1E38013BD
:1094CE0090C8BFE07004A3E06402700E7F037E13A9
:1094DE0012E1AD7413FFFE12E1AD90C8BFE070044F
:1094EE00A3E0640270047D018002E4FDFC7F207E17
:1094FE00230296CF90C8BFE07002A3E070107F03E6
:10950E007E1312E1AD7413FFFE12E1E3802F90C8BB
:10951E00BFE07004A3E0640170097F037E1312E1C3
:10952E00E3801390C8BFE07004A3E06402700E7F66
:10953E00037E1312E1AD7413FFFE12E1AD90C8BFAE
:10954E00E07004A3E0640270047D018002E4FDFC7F
:10955E007F207E230296CF90C8BFE07002A3E070FA
:10956E00177F337E1312E1AD7F437E1312E1AD7F81
:10957E00537E1312E1E3804290C8BFE07004A3E073
:10958E00640170107F337E1312E1AD7F437E1312A0
:10959E00E1E3801F90C8BFE07004A3E064027F3354
:1095AE007E13700512E1E3800312E1AD7F437E135B
:1095BE0012E1AD7F537E1312E1AD90C8BFE070048F
:1095CE00A3E0640370047D018002E4FDFC7F607EF5
:1095DE00230296CF90C8BFE07002A3E070097F739C
:1095EE007E1312E1E3801F90C8BFE07004A3E06415
:1095FE00017F737E13700C12E1AD7F837E1312E137
:10960E00E3800A12E1AD7F837E1312E1AD90C8BFF5
:10961E00E07004A3E0640270047D018002E4FDFCAE
:10962E007F907E230296CF90C8BFE07002A3E070B9
:10963E00097F737E1312E1E3801F90C8BFE07004B0
:10964E00A3E064017F737E13700C12E1AD7F837E05
:10965E001312E1E3800A12E1AD7F837E1312E1ADB6
:10966E0090C8BFE07004A3E0640270047D01800224
:10967E00E4FDFC7F907E23804890C8BFE07004A379
:10968E00E064017F037E14700912E1AD7D017C0060
:10969E00800612E1E3E4FDFC7F107E24802390C857
:1096AE00BFE07004A3E064017F037E14700912E131
:1096BE00AD7D017C00800612E1E3E4FDFC7F107EAF
:0596CE002412E121223D
:05E11C00E4FDFC7F9012
:10E1210090C8C1ECF0A3EDF07B017AC879C190C829
:09E13100CCE4F0A304F002B4AC4C
:06DEC800E0FF90C71CF012
:10DECE0090C783745AF0A37401F0E4A3F0EF25E039
:10DEDE00247BF582E434C6F583A3E090C786F07BFD
:10DEEE00017AC7798390C8CCE4F0A37402F07F84E2
:05DEFE007E0002B4AC3F
:05E3AB003EF583E0FFD8
:08E3B00090C71CEFF002DECE65
:10A1230090C7EBE0B40900400302A49190A136F874
:10A1330028287302A15102A24F02A28902A2A702F8
:10A14300A2C502A39202A3B702A3C702A47E7F63A0
:10A153007E5012E1C87F737E5012E2B77F837E5038
:10A1630012E2B77F937E5012E2B77F037E5112E271
:10A17300B77F137E5112E2B77F237E5112E2B77F7E
:10A18300337E5112E2B77F437E5112E2B77F537E93
:10A193005112E2B790C7FEE0FEA3E02424F58274D7
:10A1A300C712E3AB7B017AC8790190C8CCE4F0A372
:10A1B30004F07F707E4012B4AC7B017AC8790490BE
:10A1C300C8CCE4F0A304F07F807E4012B4AC7B01E2
:10A1D3007AC779F790C8CCE4F0A304F07F007E41FE
:10A1E30012B4AC7B017AC779FC90C8CCE4F0A30429
:10A1F300F07F107E4112B4AC7B017AC8793790C8E6
:10A20300CCE4F0A304F07F307E4112B4AC7B017A3E
:10A21300C8793B90C8CCE4F0A304F07F407E4112A0
:10A22300B4AC7B017AC8790790C8CCE4F0A304F0FE
:10A233007F607E4112B4AC7B017AC8790990C8CCA7
:10A24300E4F0A304F07F707E4102B4AC7F937E51AF
:10A2530012E1C87F137E5212E2B77F337E5212E2BD
:10A26300B77F537E5212E2B77F737E5212E2B77FFB
:10A27300937E5212E2B790C7FEE0FEA3E0247FF57F
:10A283008274C702A48E7F437E5312E1C87453FFC6
:10A29300FE12E2B790C7FEE0FEA3E0248BF58274C2
:10A2A300C702A48E7F737E5312E1C87F837E53124D
:10A2B300E2B790C7FEE0FEA3E0246BF58274C70209
:10A2C300A48E7B017AC8790F90C8CCE4F0A304F084
:10A2D3007F307E4412B4AC7B017AC8791590C8CC28
:10A2E300E4F0A304F07F407E4412B4AC7B017AC84F
:10A2F300791C90C8CCE4F0A304F07F507E4412B4E0
:10A30300AC7B017AC8791E90C8CCE4F0A304F07F3B
:10A31300707E4412B4AC7B017AC8793490C8CCE423
:10A32300F0A304F07F807E4412B4AC7B017AC87939
:10A333003990C8CCE4F0A304F07F907E4412B4AC0F
:10A343007B017AC8790D90C8CCE4F0A304F07F10A8
:10A353007E4512B4AC7B017AC8791390C8CCE4F083
:10A36300A304F07F207E4512B4AC7B017AC8791A2E
:10A3730090C8CCE4F0A304F07F307E4512B4AC90D7
:10A38300C7FEE0FEA3E024BEF58274C702A48E7F5D
:10A39300537E5512E1C87F637E5512E2B77F737E09
:10A3A3005512E2B790C7FEE0FEA3E02440F58274A5
:10A3B300C702A48E90C7FEE0FEA3E024B4F5827426
:10A3C300C702A48E7F937E5512E1C87F037E561287
:10A3D300E2B77F137E5612E2B77F237E5612E2B7AF
:10A3E3007F337E5612E2B77F437E5612E2B77B017C
:10A3F3007AC779E190C8CCE4F0A304F07F907E455E
:10A4030012B4AC7B017AC779E390C8CCE4F0A3041F
:10A41300F07F007E4612B4AC7B017AC779E590C821
:10A42300CCE4F0A304F07F107E4612B4AC7B017A37
:10A43300C779E790C8CCE4F0A304F07F207E4612EE
:10A44300B4AC7B017AC779E990C8CCE4F0A304F0FB
:10A453007F307E4612B4AC7B017AC779ED90C8CCCD
:10A46300E4F0A304F07F407E4612B4AC90C7FEE054
:10A47300FEA3E0240FF58274C7801012E04690C754
:0FA48300FEE0FEA3E0249BF58274C712E3AB2238
:10D7F4007F037E1012E2B77F137E1012E2B77F33ED
:10D804007E1012E2B77F437E1012E2B77F537E1080
:10D8140012E2B77F637E1012E2B77F737E1012E2CA
:10D82400B77F837E1012E2B77F137E1112E2B77FB7
:10D83400337E1112E2B77F737E9212E2B7E4FDFCED
:06D84400FF7E3002E1212D
:07D08F0090C66EE0FF7E0079
:10D0960090C8BFEEF0A3EFF064014E70197F037ED7
:10D0A6001012E1C87F137E1012E1C87F337E101282
:10D0B600E1C87D01803C90C8BFE07004A3E0640233
:10D0C600700D7F437E1012E1C87F537E108043901F
:10D0D600C8BFE07004A3E0640370207F637E101273
:10D0E600E1C87F737E1012E1C87F837E1012E1C80B
:10D0F6007D027C007F007E3002E12190C8BFE07097
:10D1060004A3E06404700E7F137E1112E1C87F331E
:06D116007E1112E1C822A7
:04D9EB00AB07AA06D6
:10D9EF007C007D3C129DAE90C8C3EEF0A3EFF0AE6D
:10D9FF0002AF037C007D3C129DAEA3ECF0A3EDF0D3
:10DA0F007B017AC879C390C8CCE4F0A304F07F10EF
:10DA1F007E2112B4AC7B017AC879C590C8CCE4F0F2
:0ADA2F00A304F07F307E2102B4ACA6
:08D84A0090C72FE0FEA3E0FFF0
:04D85200AB07AA0670
:10D856007C007D3C129DAE90C8BFEEF0A3EFF0AE0B
:10D8660002AF037C007D3C129DAEA3ECF0A3EDF06D
:10D876007B017AC879BF90C8CCE4F0A304F07F009E
:10D886007E3112B4AC7B017AC879C190C8CCE4F081
:0AD89600A304F07F007E3202B4AC60
:10DDCE0090C72E7401F07F037E1112E1C87F137E7F
:10DDDE001112E1C87F237E1112E1C87F337E11122A
:10DDEE00E1C87B017AC7792F90C8C8E4F0A304F08C
:10DDFE007F067E8112AF877DE87C037F0502E0BB44
:10E0DD00E490C72EF07F037E1112E2B77F137E11FD
:10E0ED0012E2B77F237E1112E2B77F337E1102E277
:01E0FD00B76B
:10DD4B0090C72EE070077F037E1102E2B77F0512AA
:10DD5B00E369EF602C90C730E024FFF090C72FE011
:10DD6B0034FFF012D84DD390C730E0940090C72FFA
:10DD7B00E09400500302E0DD7DE87C037F0512E0B8
:02DD8B00BB22B9
:10A49200E490C8C1F0A3F07B017AC7793B90C8C8A9
:10A4A200F0A304F07F047E8112AF877B017AC87922
:10A4B200C190C8C8E4F0A304F07F007E8112AF8788
:10A4C20090C8C1E0FAA3E0FB7C007D64FFAE0212FB
:10A4D2009DAE90C754EEF0A3EFF07C007D0AAF036F
:10A4E200AE02129DAE7C007D0A129DAE90C718ECA2
:10A4F200F0A3EDF090C8C1E0FEA3E0FF7C007D0A6E
:10A50200129DAE90C791ECF0A3EDF07B017AC77972
:10A512005490C8CCE4F0A304F07F007E2012B4ACC7
:10A522007B017AC7791890C8CCE4F0A304F07F10BD
:10A532007E2012B4AC7B017AC7799190C8CCE4F04A
:10A54200A304F07F307E2012B4AC7B017AC7795429
:10A5520090C8CCE4F0A304F07F507E2112B4AC7B0F
:10A56200017AC7791890C8CCE4F0A304F07F607E2A
:10A572002112B4AC7B017AC7799190C8CCE4F0A3E4
:10A5820004F07F707E2112B4AC7B017AC879C1904D
:10A59200C8C8E4F0A304F07F027E8112AF8790C89E
:10A5A200C1E0FAA3E0FB7C007D64FFAE02129DAE27
:10A5B20090C733EEF0A3EFF07C007D0AAF03AE024A
:10A5C200129DAE7C007D0A129DAE90C7C0ECF0A336
:10A5D200EDF090C8C1E0FEA3E0FF7C007D0A129D71
:10A5E200AE90C77DECF0A3EDF07B017AC779339092
:10A5F200C8CCE4F0A304F07F607E2012B4AC7B01EF
:10A602007AC779C090C8CCE4F0A304F07F707E20B2
:10A6120012B4AC7B017AC7797D90C8CCE4F0A30474
:10A62200F07F807E2012B4AC7B017AC7793390C868
:10A63200CCE4F0A304F07F607E2212B4AC7B017AFA
:10A64200C779C090C8CCE4F0A304F07F707E2212D8
:10A65200B4AC7B017AC7797D90C8CCE4F0A304F056
:10A662007F807E2212B4AC7B017AC7793D90C8C844
:10A67200E4F0A304F07F067E8112AF8790C73DE02D
:10A68200FEA3E0FF12D9EB90C8C1E0FAA3E0FB7C85
:10A69200007D3CFFAE02129DAE90C76FEEF0A3EFBD
:10A6A200F07C007D3CAF03AE02129DAE90C70BEC76
:10A6B200F0A3EDF07B017AC7796F90C8CCE4F0A3E8
:10A6C2007402F07F107E2112B4AC7B017AC7790B41
:10A6D20090C8CCE4F0A37402F07F207E2112B4ACC7
:10A6E2007B017AC7796F90C8CCE4F0A37402F07F43
:10A6F200707E2312B4AC7B017AC7790B90C8CCE48C
:10A70200F0A37402F07F807E2312B4AC7B017AC87E
:10A7120079C190C8C8E4F0A304F07F087E8112AF2B
:10A722008790C8C1E0FAA3E0FB7C007D0AFFAE027D
:10A73200129DAE7C007D0A129DAE90C7C4ECF0A3C0
:10A74200EDF07C007D0AAF03AE02129DAE90C78190
:10A75200ECF0A3EDF07B017AC779C490C8CCE4F0A9
:10A76200A37402F07F907E2112B4AC7B017AC77988
:10A772008190C8CCE4F0A37402F07F007E2212B470
:10A78200AC7B017AC879C190C8C8E4F0A304F07F19
:10A792000A7E8112AF8790C8C1E0FAA3E0FB7C0079
:10A7A2007D0AFFAE02129DAE7C007D0A129DAE9024
:10A7B200C7B2ECF0A3EDF07C007D0AAF03AE02124B
:10A7C2009DAE90C742ECF0A3EDF07B017AC779C44D
:10A7D20090C8CCE4F0A37402F07F007E2312B4ACE4
:10A7E2007B017AC7798190C8CCE4F0A37402F07F30
:0DA7F200107E2312B4AC7F737E9202E2B79A
:0801000090C89BEEF0A3EFF0A4
:10010800E4A3F0A3F0A3F0A3F090C668E0600DE4C8
:10011800FF12E369EF6005E490C668F090C89BE0C1
:10012800FEA3E0FF64014E6006EF64024E70099082
:10013800C668E0600302426C7B017AC6797790C892
:10014800C8E4F0A304F07F0C7E8012AF8790C677D6
:10015800A3E0FF7C0030E0047D0180027D0090C8B0
:10016800A1ECF0A3EDF0EF7E0030E1047F01800206
:100178007F0090C8A3EEF0A3EFF090C677A3E0FF4E
:100188007C0030E2047D0180027D0090C8B3ECF071
:10019800A3EDF0EF7E0030E3047F0180027F009042
:1001A800C8B5EEF0A3EFF090C677A3E0FF7C00306F
:1001B800E4047D0180027D0090C8B7ECF0A3EDF067
:1001C800EF7E0030E7047F0180027F0090C8A5EE33
:1001D800F0A3EFF090C677E0FEEE7C0030E4047DFB
:1001E8000180027D0090C8A7ECF0A3EDF0EE7E0040
:1001F80030E0047F0180027F0090C8A9EEF0A3EFF1
:10020800F090C677A3E0FF7C0030E5047D01800212
:100218007D0090C8ABECF0A3EDF0EF7E0030E60473
:100228007F0180027F0090C8ADEEF0A3EFF090C68A
:1002380077E0FEEE7C0030E1047D0180027D0090D5
:10024800C8AFECF0A3EDF0EE7E0030E2047F018051
:10025800027F0090C8B1EEF0A3EFF090C677E0FE01
:10026800EE7C0030E3047D0180027D0090C8B9EC8B
:10027800F0A3EDF0EE7E0030E5047F0180027F0000
:1002880090C8BBEEF0A3EFF090C8ABE07004A3E019
:040298006401700B82
:09029C0090C8BD74C0F0A37444C5
:1002A500801D90C8AFE07004A3E0640190C8BD70E4
:0102B5000840
:0602B6007405F0A3741CA6
:0202BC008006BA
:1002BE0074CEF0A37459F07B017AC879BD90C8CC86
:0C02CE00E4F0A304F07F237E1412B4AC13
:0C02DA0090C8ADE07004A3E06401700B5C
:0902E60090C8BD74C0F0A374447B
:1002EF00801D90C8B1E07004A3E0640190C8BD7098
:0102FF0008F6
:060300007405F0A3741C5B
:0203060080066F
:1003080074CEF0A37459F07B017AC879BD90C8CC3B
:0C031800E4F0A304F07F337E1412B4ACB8
:1003240090C8A9E07004A3E06401700F90C7BDE019
:10033400700912DDCE90C7BD7401F090C71CE0B403
:10034400182990C711E07002A3E0701F7B017AC7DF
:10035400792F90C8C8F0A304F07F067E8112AF877E
:1003640012D84A90C711E4F0A304F090C8A1E07039
:1003740004A3E06401600302042C90C739E0700414
:10038400A3E06401600302042C90C726E0FF12E39B
:10039400B07B017AC8799F90C8C8E4F0A304F07FC9
:1003A400067E8112AF8790C89FE0FAA3E0FB7C0031
:1003B4007D3CFFAE02129DAE90C76FEEF0A3EFF04E
:1003C4007C007D3CAF03AE02129DAE90C70BECF0F7
:1003D400A3EDF07B017AC7796F90C8CCE4F0A30455
:1003E400F07F107E2112B4AC7B017AC7790B90C8E0
:1003F400CCE4F0A304F07F307E2112B4ACE490C6C8
:100404006DF090C669F0A3F090C675F0A3F090C6A5
:100414006EF090C739F0A3F090C7BDF090C711F00B
:10042400A3F012E0DD0204E590C8A5E07004A3E0A7
:100434006401602690C8ADE07004A3E06401601A12
:1004440090C8ABE07004A3E064017002800C90C813
:10045400A9E07004A3E06401703012D7F490C739A6
:10046400E4F0A304F090C71DE0FF12E3B0E490C6EB
:100474006DF090C669F0A3F090C675F0A3F090C635
:100484006EF090C735F0A3F0805790C8B1E07004C7
:10049400A3E06401600C90C8AFE07004A3E06401C1
:1004A400703F12D7F490C716E0FF12E3B012E0DDFC
:1004B40090C72FE07004A3E06401700990C72FF087
:1004C400A3F012D84AE490C66DF090C669F0A3F088
:1004D40090C675F0A3F090C66EF090C739F0A304EF
:1004E400F090C89BE0FEA3E0FFEE600302426CEFD5
:1004F40024FE7003021C7B1470030234371470034F
:100504000241192403600302426C90C675E0700432
:10051400A3E064016003021A1D90C7FEE0FEA3E09D
:1005240024B8F58274C73EF583E0FF90C71CE06FE2
:10053400600302077E90C66AE060030205EE90C77E
:1005440091E0FEA3E0FF90C89DEEF0A3EFF04E70A3
:100554000A90C791F0A37409F0800E90C792E0242A
:10056400FFF090C791E034FFF090C718E0FEA3E0DD
:10057400FF7C007D0A129D9CAA06AB0790C754E03D
:10058400FEA3E0FF7D64129D9CEF2BFFEE3AFE90EC
:10059400C792E02FFF90C791E03E90C89FF0A3EF71
:1005A400F090C804E0FEA3E0FF90C89FE0FCA3E045
:1005B400FDD39FEC9E501190C801E0FEA3E0FFC361
:1005C400ED9FEC9E4002800F90C89DE0FFA3E09059
:1005D400C791CFF0A3EFF07B017AC7799190C8CC93
:1005E400E4F0A304F07F7002193E90C66AE064014F
:1005F40060030206B690C718E0FEA3E0FF90C89D12
:10060400EEF0A3EFF04E700A90C718F0A37409F04F
:10061400800E90C719E024FFF090C718E034FFF073
:1006240090C718E0FEA3E0FF7C007D0A129D9CAAFF
:1006340006AB0790C754E0FEA3E0FF7D64129D9CC7
:10064400EF2BFFEE3AFE90C792E02FFF90C791E0A8
:100654003E90C89FF0A3EFF090C804E0FEA3E0FF33
:1006640090C89FE0FCA3E0FDD39FEC9E502290C86D
:1006740001E0FEA3E0FFC3ED9FEC9E40137B017AF3
:10068400C7791890C8CCE4F0A304F07F6002193E47
:1006940090C89DE0FFA3E090C718CFF0A3EFF07BD4
:1006A400017AC7791890C8CCE4F0A304F07F600203
:1006B400193E90C66AE06402600302342890C7546D
:1006C400E0FEA3E0FF90C89DEEF0A3EFF04E700AA9
:1006D40090C754F0A37402F0800E90C755E024FF35
:1006E400F090C754E034FFF090C718E0FEA3E0FF99
:1006F4007C007D0A129D9CAA06AB0790C754E0FEBD
:10070400A3E0FF7D64129D9CEF2BFFEE3AFE90C7A1
:1007140092E02FFF90C791E03E90C89FF0A3EFF0C6
:1007240090C804E0FEA3E0FF90C89FE0FCA3E0FDB6
:10073400D39FEC9E502290C801E0FEA3E0FFC3EDDE
:100744009FEC9E40137B017AC7795490C8CCE4F0A7
:10075400A304F07F5002193E90C89DE0FFA3E090EF
:10076400C754CFF0A3EFF07B017AC7795490C8CC7B
:10077400E4F0A304F07F5002193E90C7FEE0FEA30C
:10078400E024C2F58274C73EF583E0FF90C71CE005
:100794006F60030208D690C66AE0600302083290D4
:1007A400C781E0FEA3E0FF90C89DEEF0A3EFF04EFA
:1007B400700A90C781F0A37409F0800E90C782E09C
:1007C40024FFF090C781E034FFF090C7C4E0FEA39B
:1007D400E0FF7C007D0A129D9C90C782E02FFF9071
:1007E400C781E03E90C89FF0A3EFF090C89FE0FE61
:1007F400A3E0FFD39450EE9400501BEF9400EE94CA
:100804000040137B017AC7798190C8CCE4F0A3043B
:10081400F07F0002193E90C89DE0FFA3E090C781DD
:10082400CFF0A3EFF07B017AC7798102099590C6D6
:100834006AE06401600302342890C7C4E0FEA3E0C8
:10084400FF90C89DEEF0A3EFF04E700A90C7C4F07D
:10085400A37408F0800E90C7C5E024FFF090C7C4CD
:10086400E034FFF090C7C4E0FEA3E0FF7C007D0A03
:10087400129D9C90C782E02FFF90C781E03E90C8F4
:100884009FF0A3EFF090C89FE0FEA3E0FFD3945045
:10089400EE9400501BEF9400EE940040137B017A19
:1008A400C779C490C8CCE4F0A304F07F9002193E49
:1008B40090C89DE0FFA3E090C7C4CFF0A3EFF07B06
:1008C400017AC779C490C8CCE4F0A304F07F900205
:1008D400193E90C727E0FF90C71CE06F6003020B2E
:1008E4003090C66AE060030209A290C66FE0FEA3DE
:1008F400E0FF90C89DEEF0A3EFF04E700A90C66F33
:10090400F0A37402F0800E90C670E024FFF090C64D
:100914006FE034FFF090C671E0FEA3E0FF7C007D41
:100924000A129D9CAA06AB0790C66FE0FEA3E0FFE7
:100934007D64129D9CEF2BFFEE3AFE90C674E02F6F
:10094400FF90C673E03E90C89FF0A3EFF090C89F5D
:10095400E0FEA3E0FFD39432EE9400501FEF940026
:10096400EE9400401790C66FE0FFA3E090C7A4CFB9
:10097400F0A3EFF07B017AC6796F801590C89DE0F3
:10098400FFA3E090C66FCFF0A3EFF07B017AC679A6
:100994006F90C8CCE4F0A304F07F00020D9E90C6D3
:1009A4006AE064016003020A6C90C671E0FEA3E091
:1009B400FF90C89DEEF0A3EFF04E700A90C671F060
:1009C400A37405F0800E90C672E024FFF090C67107
:1009D400E034FFF090C671E0FEA3E0FF7C007D0AE6
:1009E400129D9CAA06AB0790C66FE0FEA3E0FF7DB4
:1009F40064129D9CEF2BFFEE3AFE90C674E02FFF2D
:100A040090C673E03E90C89FF0A3EFF090C89FE0BB
:100A1400FEA3E0FFD39432EE9400502AEF9400EE4C
:100A24009400402290C671E0FFA3E090C75BCFF032
:100A3400A3EFF07B017AC6797190C8CCE4F0A304EB
:100A4400F07F10020D9E90C89DE0FFA3E090C67158
:100A5400CFF0A3EFF07B017AC6797190C8CCE4F0B3
:100A6400A304F07F10020D9E90C66AE06402600346
:100A740002342890C673E0FEA3E0FF90C89DEEF018
:100A8400A3EFF04E700A90C673F0A37409F0800EC1
:100A940090C674E024FFF090C673E034FFF090C673
:100AA40071E0FEA3E0FF7C007D0A129D9CAA06ABC8
:100AB4000790C66FE0FEA3E0FF7D64129D9CEF2BC0
:100AC400FFEE3AFE90C673E0FCA3E0FD2FFFEC3E80
:100AD40090C89FF0A3EFF090C89FE0FEA3E0FFD37F
:100AE4009432EE94005023EF9400EE9400401B9057
:100AF400C748ECF0A3EDF07B017AC6797390C8CCBB
:100B0400E4F0A304F07F20020D9E90C89DE0FFA3B3
:100B1400E090C673CFF0A3EFF07B017AC6797390AF
:100B2400C8CCE4F0A304F07F20020D9E90C7FEE041
:100B3400FEA3E0249DF58274C73EF583E0FF90C7D1
:100B44001CE06F6003020DA390C66AE06003020C10
:100B54001290C77DE0FEA3E0FF90C89DEEF0A3EFE6
:100B6400F04E700A90C77DF0A37409F0800E90C710
:100B74007EE024FFF090C77DE034FFF090C7C0E032
:100B8400FEA3E0FF7C007D0A129D9CAA06AB0790A1
:100B9400C733E0FEA3E0FF7D64129D9CEF2BFFEEC4
:100BA4003AFE90C77EE02FFF90C77DE03E90C89F3D
:100BB400F0A3EFF090C7FCE0FEA3E0FF90C89FE035
:100BC400FCA3E0FDD39FEC9E502290C7F7E0FEA368
:100BD400E0FFC3ED9FEC9E40137B017AC7797D90C3
:100BE400C8CCE4F0A304F07F80020D9E90C89DE081
:100BF400FFA3E090C77DCFF0A3EFF07B017AC77924
:100C04007D90C8CCE4F0A304F07F80020D9E90C6D2
:100C14006AE064016003020CDA90C7C0E0FEA3E05E
:100C2400FF90C89DEEF0A3EFF04E700A90C7C0F09D
:100C3400A37409F0800E90C7C1E024FFF090C7C0F0
:100C4400E034FFF090C7C0E0FEA3E0FF7C007D0A23
:100C5400129D9CAA06AB0790C733E0FEA3E0FF7D7C
:100C640064129D9CEF2BFFEE3AFE90C77EE02FFFAF
:100C740090C77DE03E90C89FF0A3EFF090C7FCE0E2
:100C8400FEA3E0FF90C89FE0FCA3E0FDD39FEC9E91
:100C9400502290C7F7E0FEA3E0FFC3ED9FEC9E4017
:100CA400137B017AC779C090C8CCE4F0A304F07F29
:100CB40070020D9E90C89DE0FFA3E090C7C0CFF0E6
:100CC400A3EFF07B017AC779C090C8CCE4F0A30409
:100CD400F07F70020D9E90C66AE0640260030234E5
:100CE4002890C733E0FEA3E0FF90C89DEEF0A3EF89
:100CF400F04E700A90C733F0A37402F0800E90C7D0
:100D040034E024FFF090C733E034FFF090C7C0E034
:100D1400FEA3E0FF7C007D0A129D9CAA06AB07900F
:100D2400C733E0FEA3E0FF7D64129D9CEF2BFFEE32
:100D34003AFE90C77EE02FFF90C77DE03E90C89FAB
:100D4400F0A3EFF090C7FCE0FEA3E0FF90C89FE0A3
:100D5400FCA3E0FDD39FEC9E502190C7F7E0FEA3D7
:100D6400E0FFC3ED9FEC9E40127B017AC77933907C
:100D7400C8CCE4F0A304F07F60801F90C89DE0FF1E
:100D8400A3E090C733CFF0A3EFF07B017AC77933A8
:100D940090C8CCE4F0A304F07F607E22021A17907E
:100DA400C7FEE0FEA3E024B6F58274C73EF583E0F7
:100DB400FF90C71CE06F6003020F0D90C66AE060ED
:100DC40003020E6590C742E0FEA3E0FF90C89DEECB
:100DD400F0A3EFF04E700A90C742F0A37409F080BC
:100DE4000E90C743E024FFF090C742E034FFF09038
:100DF400C7B2E0FEA3E0FF7C007D0A129D9C90C771
:100E040043E02FFF90C742E03E90C89FF0A3EFF06D
:100E140090C89FE0FEA3E0FFD39450EE9400501DD1
:100E2400EF9400EE940040157B017AC7794290C894
:100E3400CCE4F0A304F07F107E23021A1790C89D1F
:100E4400E0FFA3E090C742CFF0A3EFF07B017AC7A5
:100E5400794290C8CCE4F0A304F07F107E23021AF8
:100E64001790C66AE06401600302342890C7B2E0B8
:100E7400FEA3E0FF90C89DEEF0A3EFF04E700A9041
:100E8400C7B2F0A37408F0800E90C7B3E024FFF05B
:100E940090C7B2E034FFF090C7B2E0FEA3E0FF7C5D
:100EA400007D0A129D9C90C743E02FFF90C742E04B
:100EB4003E90C89FF0A3EFF090C89FE0FEA3E0FF30
:100EC400D39450EE9400501DEF9400EE940040151E
:100ED4007B017AC779B290C8CCE4F0A304F07F0018
:100EE4007E23021A1790C89DE0FFA3E090C7B2CFFB
:100EF400F0A3EFF07B017AC779B290C8CCE4F0A3F9
:100F040004F07F007E23021A1790C717E0FF90C7F2
:100F14001CE06F600302117E90C66AE06003020F5A
:100F2400E890C66FE0FEA3E0FF90C89DEEF0A3EF4B
:100F3400F064024E700890C66FF0A3F0800E90C665
:100F440070E024FFF090C66FE034FFF090C671E0CB
:100F5400FEA3E0FF7C007D0A129D9CAA06AB0790CD
:100F6400C66FE0FEA3E0FF7D64129D9CEF2BFFEEB5
:100F74003AFE90C674E02FFF90C673E03E90C89F7F
:100F8400F0A3EFF090C89FE0FEA3E0FFD39432EE0D
:100F94009400502CEF9400EE9400402490C66FE02F
:100FA400FFA3E090C7AACFF0A3EFF07B017AC67944
:100FB4006F90C8CCE4F0A304F07F007E25021A17DA
:100FC40090C89DE0FFA3E090C66FCFF0A3EFF07B45
:100FD400017AC6796F90C8CCE4F0A304F07F007E58
:100FE40025021A1790C66AE0640160030210B690E5
:100FF400C671E0FEA3E0FF90C89DEEF0A3EFF04EB3
:10100400700A90C671F0A37405F0800E90C672E069
:1010140024FFF090C671E034FFF090C671E0FEA3A7
:10102400E0FF7C007D0A129D9CAA06AB0790C66F68
:10103400E0FEA3E0FF7D64129D9CEF2BFFEE3AFEE1
:1010440090C674E02FFF90C673E03E90C89FF0A353
:10105400EFF090C89FE0FEA3E0FFD39432EE94003B
:10106400502CEF9400EE9400402490C671E0FFA34E
:10107400E090C761CFF0A3EFF07B017AC67971905D
:10108400C8CCE4F0A304F07F107E25021A1790C8A0
:101094009DE0FFA3E090C671CFF0A3EFF07B017A4F
:1010A400C6797190C8CCE4F0A304F07F107E2502C9
:1010B4001A1790C66AE06402600302342890C6736B
:1010C400E0FEA3E0FF90C89DEEF0A3EFF04E700A9F
:1010D40090C673F0A37409F0800E90C674E024FFE8
:1010E400F090C673E034FFF090C671E0FEA3E0FF19
:1010F4007C007D0A129D9CAA06AB0790C66FE0FE99
:10110400A3E0FF7D64129D9CEF2BFFEE3AFE90C698
:1011140073E0FCA3E0FD2FFFEC3E90C89FF0A3EF2B
:10112400F090C89FE0FEA3E0FFD39432EE94005009
:1011340025EF9400EE9400401D90C74EECF0A3ED13
:10114400F07B017AC6797390C8CCE4F0A304F07FF5
:10115400207E25021A1790C89DE0FFA3E090C67375
:10116400CFF0A3EFF07B017AC6797390C8CCE4F09A
:10117400A304F07F207E25021A1790C7FEE0FEA389
:10118400E024B0F58274C73EF583E0FF90C71CE00D
:101194006F600302131390C66AE0600302125F904B
:1011A400C76FE0FEA3E0FF90C89DEEF0A3EFF04E02
:1011B400701D90C70BE07002A3E090C76F6008E455
:1011C400F0A3743BF08016E4F0A3743CF0800E901E
:1011D400C770E024FFF090C76FE034FFF090C76F52
:1011E400E0FEA3E0FF7C007D3C129D9C90C70CE0D8
:1011F4002FFF90C70BE03E90C89FF0A3EFF090C87C
:1012040009E0FEA3E0FF90C89FE0FCA3E0FDD39FAC
:10121400EC9E502390C807E0FEA3E0FFED9FEC9EF8
:1012240040157B017AC7796F90C8CCE4F0A304F031
:101234007F707E23021A1790C89DE0FFA3E090C739
:101244006FCFF0A3EFF07B017AC7796F90C8CCE43D
:10125400F0A304F07F707E23021A1790C66AE0643C
:1012640001600302342890C70BE0FEA3E0FF90C89E
:101274009DEEF0A3EFF04E700A90C70BF0A3743B01
:10128400F0800E90C70CE024FFF090C70BE034FF11
:10129400F090C76FE0FEA3E0FF7C007D3C129D9CB4
:1012A40090C70CE02FFF90C70BE03E90C89FF0A3BF
:1012B400EFF090C809E0FEA3E0FF90C89FE0FCA314
:1012C400E0FDD39FEC9E502390C807E0FEA3E0FF0F
:1012D400ED9FEC9E40157B017AC7790B90C8CCE456
:1012E400F0A304F07F807E23021A1790C89DE0FFCC
:1012F400A3E090C70BCFF0A3EFF07B017AC7790B83
:1013040090C8CCE4F0A304F07F807E23021A1790E7
:10131400C7FEE0FEA3E02487F58274C73EF583E0B0
:10132400FF90C71CE06F704290C66AE0600302340D
:101334002890C837E0FEA3E0FFD390C73CE09F901D
:10134400C73BE09E5003023428A3E024FFF090C77B
:101354003BE034FFF07B017AC7793B90C8CCE4F0E2
:10136400A304F07F007E24021A1790C713E0FF90B5
:10137400C71CE06F600302342890C66EE06401600D
:10138400030215EA90C66AE0600302145290C79102
:10139400E0FEA3E0FF90C89DEEF0A3EFF04E700ACC
:1013A40090C791F0A37409F0800E90C792E024FFD7
:1013B400F090C791E034FFF090C718E0FEA3E0FF7F
:1013C4007C007D0A129D9CAA06AB0790C754E0FEE0
:1013D400A3E0FF7D64129D9CEF2BFFEE3AFE90C7C5
:1013E40092E02FFF90C791E03E90C89FF0A3EFF0EA
:1013F40090C804E0FEA3E0FF90C89FE0FCA3E0FDDA
:10140400D39FEC9E502490C801E0FEA3E0FFC3EDFF
:101414009FEC9E40157B017AC7799190C8CCE4F08B
:10142400A304F07F307E20021A1790C89DE0FFA32A
:10143400E090C791CFF0A3EFF07B017AC779919048
:10144400C8CCE4F0A304F07F307E20021A1790C6C3
:101454006AE06401600302151E90C718E0FEA3E071
:10146400FF90C89DEEF0A3EFF04E700A90C718F0FD
:10147400A37409F0800E90C719E024FFF090C718F8
:10148400E034FFF090C718E0FEA3E0FF7C007D0A83
:10149400129D9CAA06AB0790C754E0FEA3E0FF7D13
:1014A40064129D9CEF2BFFEE3AFE90C792E02FFF53
:1014B40090C791E03E90C89FF0A3EFF090C804E07D
:1014C400FEA3E0FF90C89FE0FCA3E0FDD39FEC9E49
:1014D400502490C801E0FEA3E0FFC3ED9FEC9E40C2
:1014E400157B017AC7791890C8CCE4F0A304F07F87
:1014F400107E20021A1790C89DE0FFA3E090C71841
:10150400CFF0A3EFF07B017AC7791890C8CCE4F050
:10151400A304F07F107E20021A1790C66AE06402CA
:10152400600302342890C754E0FEA3E0FF90C89DF6
:10153400EEF0A3EFF04E700A90C754F0A37402F0DB
:10154400800E90C755E024FFF090C754E034FFF0BC
:1015540090C718E0FEA3E0FF7C007D0A129D9CAAC0
:1015640006AB0790C754E0FEA3E0FF7D64129D9C88
:10157400EF2BFFEE3AFE90C792E02FFF90C791E069
:101584003E90C89FF0A3EFF090C804E0FEA3E0FFF4
:1015940090C89FE0FCA3E0FDD39FEC9E502490C82C
:1015A40001E0FEA3E0FFC3ED9FEC9E40157B017AB2
:1015B400C7795490C8CCE4F0A304F07F007E2002E5
:1015C4001A1790C89DE0FFA3E090C754CFF0A3EF93
:1015D400F07B017AC7795490C8CCE4F0A304F07F7F
:1015E400007E20021A1790C66EE0B4023990C83704
:1015F400E0FEA3E0FFD390C73CE09F90C73BE09E92
:101604005003023428A3E024FFF090C73BE034FFEA
:10161400F07B017AC7793B90C8CCE4F0A304F07F57
:10162400507E20021A1790C66EE06403600302180D
:101634009790C66AE060030216FF90C77DE0FEA3A0
:10164400E0FF90C89DEEF0A3EFF04E700A90C77DC6
:10165400F0A37409F0800E90C77EE024FFF090C7D9
:101664007DE034FFF090C7C0E0FEA3E0FF7C007D86
:101674000A129D9CAA06AB0790C733E0FEA3E0FFC5
:101684007D64129D9CEF2BFFEE3AFE90C77EE02F07
:10169400FF90C77DE03E90C89FF0A3EFF090C7FC99
:1016A400E0FEA3E0FF90C89FE0FCA3E0FDD39FEC25
:1016B4009E502490C7F7E0FEA3E0FFC3ED9FEC9E8D
:1016C40040157B017AC7797D90C8CCE4F0A304F07F
:1016D4007F807E20021A1790C89DE0FFA3E090C788
:1016E4007DCFF0A3EFF07B017AC7797D90C8CCE47D
:1016F400F0A304F07F807E20021A1790C66AE0648B
:101704000160030217CB90C7C0E0FEA3E0FF90C8BE
:101714009DEEF0A3EFF04E700A90C7C0F0A37409D9
:10172400F0800E90C7C1E024FFF090C7C0E034FF02
:10173400F090C7C0E0FEA3E0FF7C007D0A129D9CF0
:10174400AA06AB0790C733E0FEA3E0FF7D64129DB9
:101754009CEF2BFFEE3AFE90C77EE02FFF90C77DF3
:10176400E03E90C89FF0A3EFF090C7FCE0FEA3E03A
:10177400FF90C89FE0FCA3E0FDD39FEC9E50249013
:10178400C7F7E0FEA3E0FFC3ED9FEC9E40157B018D
:101794007AC779C090C8CCE4F0A304F07F707E20AF
:1017A400021A1790C89DE0FFA3E090C7C0CFF0A332
:1017B400EFF07B017AC779C090C8CCE4F0A304F0C1
:1017C4007F707E20021A1790C66AE06402600302EA
:1017D400342890C733E0FEA3E0FF90C89DEEF0A349
:1017E400EFF04E700A90C733F0A37402F0800E90AD
:1017F400C734E024FFF090C733E034FFF090C7C053
:10180400E0FEA3E0FF7C007D0A129D9CAA06AB07C4
:1018140090C733E0FEA3E0FF7D64129D9CEF2BFF95
:10182400EE3AFE90C77EE02FFF90C77DE03E90C861
:101834009FF0A3EFF090C7FCE0FEA3E0FF90C89FE9
:10184400E0FCA3E0FDD39FEC9E502490C7F7E0FE9C
:10185400A3E0FFC3ED9FEC9E40157B017AC779336B
:1018640090C8CCE4F0A304F07F607E20021A1790A5
:10187400C89DE0FFA3E090C733CFF0A3EFF07B0156
:101884007AC7793390C8CCE4F0A304F07F607E205B
:10189400021A1790C66EE06404600302342890C6EE
:1018A4006AE0600302196790C76FE0FEA3E0FF904F
:1018B400C89DEEF0A3EFF04E701D90C70BE07002D0
:1018C400A3E090C76F6008E4F0A3743BF08016E4D3
:1018D400F0A3743CF0800E90C770E024FFF090C732
:1018E4006FE034FFF090C76FE0FEA3E0FF7C007D63
:1018F4003C129D9C90C70CE02FFF90C70BE03E90DC
:10190400C89FF0A3EFF090C809E0FEA3E0FF90C8E1
:101914009FE0FCA3E0FDD39FEC9E502390C807E01A
:10192400FEA3E0FFED9FEC9E40157B017AC7796F23
:1019340090C8CCE4F0A304F07F107E21021A179023
:10194400C89DE0FFA3E090C76FCFF0A3EFF07B0149
:101954007AC7796F90C8CCE4F0A304F07F107E219D
:10196400021A1790C66AE06401600302342890C723
:101974000BE0FEA3E0FF90C89DEEF0A3EFF04E70E5
:101984000A90C70BF0A3743BF0800E90C70CE024C0
:10199400FFF090C70BE034FFF090C76FE0FEA3E0C8
:1019A400FF7C007D3C129D9C90C70CE02FFF90C7EC
:1019B4000BE03E90C89FF0A3EFF090C809E0FEA3AF
:1019C400E0FF90C89FE0FCA3E0FDD39FEC9E502273
:1019D40090C807E0FEA3E0FFED9FEC9E40147B015E
:1019E4007AC7790B90C8CCE4F0A304F07F307E2151
:1019F400802190C89DE0FFA3E090C70BCFF0A3EF38
:101A0400F07B017AC7790B90C8CCE4F0A304F07F93
:101A1400307E2112B4AC02342890C66DE0640170AB
:101A24002890C675E07002A3E0600302342812D740
:101A3400F490C66EE0B401057404F0800690C66E9E
:101A4400E014F012D08F02342890C7FEE0FEA3E029
:101A5400FF248DF58274C73EF583E0FD90C71CE03A
:101A6400FCD39D4013749B2FF58274C73EF583E02D
:101A7400FFECD39F5002807090C7FEE0FEA3E0FF0E
:101A8400248DF58274C73EF583E0FD90C71CE0B554
:101A94000512749B2FF58274C73EF583E0FF90C74F
:101AA4001CF0804C90C66BE06401704990C756E00E
:101AB400FF90C71CE0B5071290C7FEE0FEA3E02428
:101AC40031F58274C73EF583807590C7FEE0FEA3AE
:101AD400E0242AF58274C73EF583E0FF90C71CE03A
:101AE400B5070590C756805790C71CE014F0E0FF77
:101AF40012DECE807190C66CE06401704990C7FE1E
:101B0400E0FEA3E0241AF58274C73EF583E0FF905B
:101B1400C71CE0B5070590C756802490C756E0FF60
:101B240090C71CE0B5071290C7FEE0FEA3E024288E
:101B3400F58274C73EF583800690C71CE014F0E07C
:101B4400FF12E3B0802090C7FEE0FEA3E02437F547
:101B54008274C73EF583E0FF90C71CE0B507077F9A
:101B6400017E0012E01390C7FEE0FEA3E02424F5FA
:101B74008274C73EF583E0FF90C71CE0B5070E9062
:101B8400C89BE0FEA3E0FF12847C02342890C7FEC9
:101B9400E0FEA3E0247FF58274C73EF583E0FF9066
:101BA400C71CE0B5070E90C89BE0FEA3E0FF12C27D
:101BB400D202342890C7FEE0FEA3E0248BF58274A1
:101BC400C73EF583E0FF90C71CE0B5070E90C89BA5
:101BD400E0FEA3E0FF12C1B502342890C7FEE0FE88
:101BE400A3E0246BF58274C73EF583E0FF90C71C25
:101BF400E0B5070E90C89BE0FEA3E0FF12CE4D02B5
:101C0400342890C7FEE0FEA3E02440F58274C73E6A
:101C1400F583E0FF90C71CE0B5070E90C89BE0FE7B
:101C2400A3E0FF12D21E02342890C7FEE0FEA3E018
:101C3400240FF58274C73EF583E0FF90C71CE0B51E
:101C4400070E90C89BE0FEA3E0FF128B76023428B7
:101C540090C7FEE0FEA3E02489F58274C73EF583B5
:101C6400E0FF90C71CE0B5070B90C89BE0FEA3E023
:101C7400FF12BC5C02342890C675E07004A3E064D3
:101C84000160030231B590C7FEE0FEA3E024B8F57D
:101C94008274C73EF583E0FF90C71CE06F600302C7
:101CA4001EEE90C66AE06003021D5C90C791E0FEE0
:101CB400A3E0FF90C89DEEF0A3EFF064094E60101E
:101CC40090C792E004F0700F90C791E004F0800791
:101CD400E490C791F0A3F090C718E0FEA3E0FF7C66
:101CE400007D0A129D9CAA06AB0790C754E0FEA390
:101CF400E0FF7D64129D9CEF2BFFEE3AFE90C792AD
:101D0400E02FFF90C791E03E90C89FF0A3EFF090C2
:101D1400C804E0FEA3E0FF90C89FE0FCA3E0FDD36D
:101D24009FEC9E501190C801E0FEA3E0FFC3ED9F1D
:101D3400EC9E4002800F90C89DE0FFA3E090C79105
:101D4400CFF0A3EFF07B017AC7799190C8CCE4F08F
:101D5400A304F07F700230D590C66AE0640160038A
:101D6400021E2590C718E0FEA3E0FF90C89DEEF088
:101D7400A3EFF064094E601090C719E004F0700FEF
:101D840090C718E004F08007E490C718F0A3F0901F
:101D9400C718E0FEA3E0FF7C007D0A129D9CAA0602
:101DA400AB0790C754E0FEA3E0FF7D64129D9CEF57
:101DB4002BFFEE3AFE90C792E02FFF90C791E03ED2
:101DC40090C89FF0A3EFF090C804E0FEA3E0FF905A
:101DD400C89FE0FCA3E0FDD39FEC9E502290C80175
:101DE400E0FEA3E0FFC3ED9FEC9E40137B017AC7A6
:101DF400791890C8CCE4F0A304F07F600230D59049
:101E0400C89DE0FFA3E090C718CFF0A3EFF07B01DB
:101E14007AC7791890C8CCE4F0A304F07F6002304C
:101E2400D590C66AE06402600302342890C754E087
:101E3400FEA3E0FF90C89DEEF0A3EFF064024E60B5
:101E44001090C755E004F0700F90C754E004F08080
:101E540007E490C754F0A3F090C718E0FEA3E0FF96
:101E64007C007D0A129D9CAA06AB0790C754E0FE35
:101E7400A3E0FF7D64129D9CEF2BFFEE3AFE90C71A
:101E840092E02FFF90C791E03E90C89FF0A3EFF03F
:101E940090C804E0FEA3E0FF90C89FE0FCA3E0FD2F
:101EA400D39FEC9E502290C801E0FEA3E0FFC3ED57
:101EB4009FEC9E40137B017AC7795490C8CCE4F020
:101EC400A304F07F500230D590C89DE0FFA3E090BA
:101ED400C754CFF0A3EFF07B017AC7795490C8CCF4
:101EE400E4F0A304F07F500230D590C7FEE0FEA3D7
:101EF400E024C2F58274C73EF583E0FF90C71CE07E
:101F04006F600302203690C66AE06003021F92905D
:101F1400C781E0FEA3E0FF90C89DEEF0A3EFF0645C
:101F2400094E601090C782E004F0700F90C781E002
:101F340004F08007E490C781F0A3F090C7C4E0FEEA
:101F4400A3E0FF7C007D0A129D9C90C782E02FFFD6
:101F540090C781E03E90C89FF0A3EFF090C89FE047
:101F6400FEA3E0FFD39450EE9400500AEF9400EEE9
:101F740094004002800F90C89DE0FFA3E090C781C9
:101F8400CFF0A3EFF07B017AC779810220F590C6E8
:101F94006AE06401600302342890C7C4E0FEA3E051
:101FA400FF90C89DEEF0A3EFF064084E700890C750
:101FB400C4F0A3F0800E90C7C5E004F0700690C78B
:101FC400C4E004F090C7C4E0FEA3E0FF7C007D0AF7
:101FD400129D9C90C782E02FFF90C781E03E90C87D
:101FE4009FF0A3EFF090C89FE0FEA3E0FFD39450CE
:101FF400EE9400501BEF9400EE940040137B017AA2
:10200400C779C490C8CCE4F0A304F07F900230D523
:1020140090C89DE0FFA3E090C7C4CFF0A3EFF07B8E
:10202400017AC779C490C8CCE4F0A304F07F90028D
:1020340030D590C727E0FF90C71CE06F60030222F1
:102044009090C66AE0600302210290C66FE0FEA38E
:10205400E0FF90C89DEEF0A3EFF064094E70089085
:10206400C66FF0A3F0800E90C670E004F070069086
:10207400C66FE004F090C671E0FEA3E0FF7C007D33
:102084000A129D9CAA06AB0790C66FE0FEA3E0FF70
:102094007D64129D9CEF2BFFEE3AFE90C674E02FF8
:1020A400FF90C673E03E90C89FF0A3EFF090C89FE6
:1020B400E0FEA3E0FFD39432EE9400501FEF9400AF
:1020C400EE9400401790C66FE0FFA3E090C7A4CF42
:1020D400F0A3EFF07B017AC6796F801590C89DE07C
:1020E400FFA3E090C66FCFF0A3EFF07B017AC6792F
:1020F4006F90C8CCE4F0A304F07F0002250190C6E1
:102104006AE0640160030221CC90C671E0FEA3E0A2
:10211400FF90C89DEEF0A3EFF064054E700890C6E2
:1021240071F0A3F0800E90C672E004F0700690C6C1
:1021340071E004F090C671E0FEA3E0FF7C007D0A2C
:10214400129D9CAA06AB0790C66FE0FEA3E0FF7D3C
:1021540064129D9CEF2BFFEE3AFE90C674E02FFFB5
:1021640090C673E03E90C89FF0A3EFF090C89FE044
:10217400FEA3E0FFD39432EE9400502AEF9400EED5
:102184009400402290C671E0FFA3E090C75BCFF0BB
:10219400A3EFF07B017AC6797190C8CCE4F0A30474
:1021A400F07F1002250190C89DE0FFA3E090C67166
:1021B400CFF0A3EFF07B017AC6797190C8CCE4F03C
:1021C400A304F07F1002250190C66AE06402600354
:1021D40002342890C673E0FEA3E0FF90C89DEEF0A1
:1021E400A3EFF064094E700890C673F0A3F0800E5C
:1021F40090C674E004F0700690C673E004F090C6D4
:1022040071E0FEA3E0FF7C007D0A129D9CAA06AB50
:102214000790C66FE0FEA3E0FF7D64129D9CEF2B48
:10222400FFEE3AFE90C673E0FCA3E0FD2FFFEC3E08
:1022340090C89FF0A3EFF090C89FE0FEA3E0FFD307
:102244009432EE94005023EF9400EE9400401B90DF
:10225400C748ECF0A3EDF07B017AC6797390C8CC43
:10226400E4F0A304F07F2002250190C89DE0FFA3C1
:10227400E090C673CFF0A3EFF07B017AC679739038
:10228400C8CCE4F0A304F07F2002250190C7FEE04F
:10229400FEA3E0249DF58274C73EF583E0FF90C75A
:1022A4001CE06F600302250690C66AE06003022307
:1022B4007390C77DE0FEA3E0FF90C89DEEF0A3EF0E
:1022C400F064094E601090C77EE004F0700F90C770
:1022D4007DE004F08007E490C77DF0A3F090C7C0D0
:1022E400E0FEA3E0FF7C007D0A129D9CAA06AB07DA
:1022F40090C733E0FEA3E0FF7D64129D9CEF2BFFAB
:10230400EE3AFE90C77EE02FFF90C77DE03E90C876
:102314009FF0A3EFF090C7FCE0FEA3E0FF90C89FFE
:10232400E0FCA3E0FDD39FEC9E502290C7F7E0FEB3
:10233400A3E0FFC3ED9FEC9E40137B017AC7797D38
:1023440090C8CCE4F0A304F07F8002250190C89DDE
:10235400E0FFA3E090C77DCFF0A3EFF07B017AC745
:10236400797D90C8CCE4F0A304F07F80022501902D
:10237400C66AE06401600302243C90C7C0E0FEA387
:10238400E0FF90C89DEEF0A3EFF064094E6010905A
:10239400C7C1E004F0700F90C7C0E004F08007E408
:1023A40090C7C0F0A3F090C7C0E0FEA3E0FF7C009C
:1023B4007D0A129D9CAA06AB0790C733E0FEA3E0FA
:1023C400FF7D64129D9CEF2BFFEE3AFE90C77EE0EA
:1023D4002FFF90C77DE03E90C89FF0A3EFF090C719
:1023E400FCE0FEA3E0FF90C89FE0FCA3E0FDD39FC8
:1023F400EC9E502290C7F7E0FEA3E0FFC3ED9FECF4
:102404009E40137B017AC779C090C8CCE4F0A30442
:10241400F07F7002250190C89DE0FFA3E090C7C043
:10242400CFF0A3EFF07B017AC779C090C8CCE4F079
:10243400A304F07F7002250190C66AE06402600381
:1024440002342890C733E0FEA3E0FF90C89DEEF06D
:10245400A3EFF064024E601090C734E004F0700FF4
:1024640090C733E004F08007E490C733F0A3F09002
:10247400C7C0E0FEA3E0FF7C007D0A129D9CAA0673
:10248400AB0790C733E0FEA3E0FF7D64129D9CEF91
:102494002BFFEE3AFE90C77EE02FFF90C77DE03E13
:1024A40090C89FF0A3EFF090C7FCE0FEA3E0FF907C
:1024B400C89FE0FCA3E0FDD39FEC9E502190C7F79A
:1024C400E0FEA3E0FFC3ED9FEC9E40127B017AC7C0
:1024D400793390C8CCE4F0A304F07F60801F90C8E7
:1024E4009DE0FFA3E090C733CFF0A3EFF07B017A28
:1024F400C7793390C8CCE4F0A304F07F607E220255
:1025040031AF90C7FEE0FEA3E024B6F58274C73E67
:10251400F583E0FF90C71CE06F600302267090C64D
:102524006AE060030225C890C742E0FEA3E0FF9082
:10253400C89DEEF0A3EFF064094E700890C742F016
:10254400A3F0800E90C743E004F0700690C742E009
:1025540004F090C7B2E0FEA3E0FF7C007D0A129D68
:102564009C90C743E02FFF90C742E03E90C89FF085
:10257400A3EFF090C89FE0FEA3E0FFD39450EE9445
:1025840000501DEF9400EE940040157B017AC7794A
:102594004290C8CCE4F0A304F07F107E230231AF54
:1025A40090C89DE0FFA3E090C742CFF0A3EFF07B7B
:1025B400017AC7794290C8CCE4F0A304F07F107E7E
:1025C400230231AF90C66AE06401600302342890AC
:1025D400C7B2E0FEA3E0FF90C89DEEF0A3EFF06465
:1025E400084E700890C7B2F0A3F0800E90C7B3E015
:1025F40004F0700690C7B2E004F090C7B2E0FEA306
:10260400E0FF7C007D0A129D9C90C743E02FFF9061
:10261400C742E03E90C89FF0A3EFF090C89FE0FE51
:10262400A3E0FFD39450EE9400501DEF9400EE9479
:102634000040157B017AC779B290C8CCE4F0A304BA
:10264400F07F007E230231AF90C89DE0FFA3E090AD
:10265400C7B2CFF0A3EFF07B017AC779B290C8CCB0
:10266400E4F0A304F07F007E230231AF90C717E0AB
:10267400FF90C71CE06F60030228E190C66AE06027
:102684000302274B90C66FE0FEA3E0FF90C89DEEC7
:10269400F0A3EFF064094E700890C66FF0A3F080C9
:1026A4000E90C670E004F0700690C66FE004F090DF
:1026B400C671E0FEA3E0FF7C007D0A129D9CAA0681
:1026C400AB0790C66FE0FEA3E0FF7D64129D9CEF14
:1026D4002BFFEE3AFE90C674E02FFF90C673E03EE7
:1026E40090C89FF0A3EFF090C89FE0FEA3E0FFD353
:1026F4009432EE9400502CEF9400EE940040249019
:10270400C66FE0FFA3E090C7AACFF0A3EFF07B0170
:102714007AC6796F90C8CCE4F0A304F07F007E25DC
:102724000231AF90C89DE0FFA3E090C66FCFF0A345
:10273400EFF07B017AC6796F90C8CCE4F0A304F083
:102744007F007E250231AF90C66AE0640160030217
:10275400281990C671E0FEA3E0FF90C89DEEF0A397
:10276400EFF064054E700890C671F0A3F0800E90EF
:10277400C672E004F0700690C671E004F090C67171
:10278400E0FEA3E0FF7C007D0A129D9CAA06AB0735
:1027940090C66FE0FEA3E0FF7D64129D9CEF2BFFCB
:1027A400EE3AFE90C674E02FFF90C673E03E90C8E8
:1027B4009FF0A3EFF090C89FE0FEA3E0FFD3943214
:1027C400EE9400502CEF9400EE9400402490C671D7
:1027D400E0FFA3E090C761CFF0A3EFF07B017AC6DE
:1027E400797190C8CCE4F0A304F07F107E25023107
:1027F400AF90C89DE0FFA3E090C671CFF0A3EFF0C7
:102804007B017AC6797190C8CCE4F0A304F07F1000
:102814007E250231AF90C66AE06402600302342868
:1028240090C673E0FEA3E0FF90C89DEEF0A3EFF026
:1028340064094E700890C673F0A3F0800E90C674BD
:10284400E004F0700690C673E004F090C671E0FEF8
:10285400A3E0FF7C007D0A129D9CAA06AB0790C6EC
:102864006FE0FEA3E0FF7D64129D9CEF2BFFEE3A28
:10287400FE90C673E0FCA3E0FD2FFFEC3E90C89FE2
:10288400F0A3EFF090C89FE0FEA3E0FFD39432EEF4
:1028940094005025EF9400EE9400401D90C74EEC38
:1028A400F0A3EDF07B017AC6797390C8CCE4F0A371
:1028B40004F07F207E250231AF90C89DE0FFA3E0A5
:1028C40090C673CFF0A3EFF07B017AC6797390C8FA
:1028D400CCE4F0A304F07F207E250231AF90C7FE44
:1028E400E0FEA3E024B0F58274C73EF583E0FF90D8
:1028F400C71CE06F6003022A8C90C66AE060030282
:1029040029D890C76FE0FEA3E0FF90C89DEEF0A326
:10291400EFF0643B4E701D90C70BE07002A3E060C3
:1029240003E4801C90C770E004F0702A90C76FE045
:1029340004F0802290C76FE07004A3E0643C700848
:1029440090C76FF0A3F0800E90C770E004F070069B
:1029540090C76FE004F090C76FE0FEA3E0FF7C0037
:102964007D3C129D9C90C70CE02FFF90C70BE03E6E
:1029740090C89FF0A3EFF090C809E0FEA3E0FF9099
:10298400C89FE0FCA3E0FDD39FEC9E502390C807B2
:10299400E0FEA3E0FFED9FEC9E40157B017AC77932
:1029A4006F90C8CCE4F0A304F07F707E230231AFB3
:1029B40090C89DE0FFA3E090C76FCFF0A3EFF07B3A
:1029C400017AC7796F90C8CCE4F0A304F07F707EDD
:1029D400230231AF90C66AE0640160030234289098
:1029E400C70BE0FEA3E0FF90C89DEEF0A3EFF064F8
:1029F4003B4E700890C70BF0A3F0800E90C70CE01C
:102A040004F0700690C70BE004F090C76FE0FEA3DB
:102A1400E0FF7C007D3C129D9C90C70CE02FFF9052
:102A2400C70BE03E90C89FF0A3EFF090C809E0FE0A
:102A3400A3E0FF90C89FE0FCA3E0FDD39FEC9E5071
:102A44002390C807E0FEA3E0FFED9FEC9E40157BBA
:102A5400017AC7790B90C8CCE4F0A304F07F807EA0
:102A6400230231AF90C89DE0FFA3E090C70BCFF0E5
:102A7400A3EFF07B017AC7790B90C8CCE4F0A304F0
:102A8400F07F807E230231AF90C7FEE0FEA3E024F6
:102A940087F58274C73EF583E0FF90C71CE06F7032
:102AA4004290C66AE0600302342890C83BE0FEA36B
:102AB400E0FFC390C73CE09F90C73BE09E40030209
:102AC4003428A3E004F0700690C73BE004F07B01D7
:102AD4007AC7793B90C8CCE4F0A304F07F007E244D
:102AE4000231AF90C713E0FF90C71CE06F60030290
:102AF400342890C66EE064016003022D6690C66AB5
:102B0400E06003022BCC90C791E0FEA3E0FF90C8E5
:102B14009DEEF0A3EFF064094E601090C792E004BC
:102B2400F0700F90C791E004F08007E490C791F033
:102B3400A3F090C718E0FEA3E0FF7C007D0A129D7D
:102B44009CAA06AB0790C754E0FEA3E0FF7D641285
:102B54009D9CEF2BFFEE3AFE90C792E02FFF90C7AB
:102B640091E03E90C89FF0A3EFF090C804E0FEA36C
:102B7400E0FF90C89FE0FCA3E0FDD39FEC9E5024AF
:102B840090C801E0FEA3E0FFC3ED9FEC9E40157BDF
:102B9400017AC7799190C8CCE4F0A304F07F307E29
:102BA400200231AF90C89DE0FFA3E090C791CFF021
:102BB400A3EFF07B017AC7799190C8CCE4F0A30429
:102BC400F07F307E200231AF90C66AE0640160037A
:102BD400022C9990C718E0FEA3E0FF90C89DEEF088
:102BE400A3EFF064094E601090C719E004F0700F71
:102BF40090C718E004F08007E490C718F0A3F090A1
:102C0400C718E0FEA3E0FF7C007D0A129D9CAA0683
:102C1400AB0790C754E0FEA3E0FF7D64129D9CEFD8
:102C24002BFFEE3AFE90C792E02FFF90C791E03E53
:102C340090C89FF0A3EFF090C804E0FEA3E0FF90DB
:102C4400C89FE0FCA3E0FDD39FEC9E502490C801F4
:102C5400E0FEA3E0FFC3ED9FEC9E40157B017AC725
:102C6400791890C8CCE4F0A304F07F107E200231E0
:102C7400AF90C89DE0FFA3E090C718CFF0A3EFF09A
:102C84007B017AC7791890C8CCE4F0A304F07F10D4
:102C94007E200231AF90C66AE064026003023428E9
:102CA40090C754E0FEA3E0FF90C89DEEF0A3EFF0C0
:102CB40064024E601090C755E004F0700F90C75442
:102CC400E004F08007E490C754F0A3F090C718E044
:102CD400FEA3E0FF7C007D0A129D9CAA06AB079030
:102CE400C754E0FEA3E0FF7D64129D9CEF2BFFEE32
:102CF4003AFE90C792E02FFF90C791E03E90C89FA4
:102D0400F0A3EFF090C804E0FEA3E0FF90C89FE0BA
:102D1400FCA3E0FDD39FEC9E502490C801E0FEA3E9
:102D2400E0FFC3ED9FEC9E40157B017AC779549078
:102D3400C8CCE4F0A304F07F007E200231AF90C839
:102D44009DE0FFA3E090C754CFF0A3EFF07B017A9E
:102D5400C7795490C8CCE4F0A304F07F007E20022D
:102D640031AF90C66EE0B4023A90C83BE0FEA3E0F7
:102D7400FF90C73BE06E7003A3E06F70030234283A
:102D840090C73CE004F0700690C73BE004F07B0180
:102D94007AC7793B90C8CCE4F0A304F07F507E203E
:102DA4000231AF90C66EE06403600302301790C630
:102DB4006AE06003022E7D90C77DE0FEA3E0FF90F1
:102DC400C89DEEF0A3EFF064094E601090C77EE05A
:102DD40004F0700F90C77DE004F08007E490C77D95
:102DE400F0A3F090C7C0E0FEA3E0FF7C007D0A12D0
:102DF4009D9CAA06AB0790C733E0FEA3E0FF7D6469
:102E0400129D9CEF2BFFEE3AFE90C77EE02FFF90C1
:102E1400C77DE03E90C89FF0A3EFF090C7FCE0FEB2
:102E2400A3E0FF90C89FE0FCA3E0FDD39FEC9E507D
:102E34002490C7F7E0FEA3E0FFC3ED9FEC9E40158E
:102E44007B017AC7797D90C8CCE4F0A304F07F803D
:102E54007E200231AF90C89DE0FFA3E090C77DCFF4
:102E6400F0A3EFF07B017AC7797D90C8CCE4F0A39E
:102E740004F07F807E200231AF90C66AE064016076
:102E840003022F4A90C7C0E0FEA3E0FF90C89DEE66
:102E9400F0A3EFF064094E601090C7C1E004F07035
:102EA4000F90C7C0E004F08007E490C7C0F0A3F01F
:102EB40090C7C0E0FEA3E0FF7C007D0A129D9CAA9F
:102EC40006AB0790C733E0FEA3E0FF7D64129D9C30
:102ED400EF2BFFEE3AFE90C77EE02FFF90C77DE018
:102EE4003E90C89FF0A3EFF090C7FCE0FEA3E0FF84
:102EF40090C89FE0FCA3E0FDD39FEC9E502490C7B4
:102F0400F7E0FEA3E0FFC3ED9FEC9E40157B017A42
:102F1400C779C090C8CCE4F0A304F07F707E20028F
:102F240031AF90C89DE0FFA3E090C7C0CFF0A3EFFE
:102F3400F07B017AC779C090C8CCE4F0A304F07F99
:102F4400707E200231AF90C66AE0640260030234EE
:102F54002890C733E0FEA3E0FF90C89DEEF0A3EFF6
:102F6400F064024E601090C734E004F0700F90C714
:102F740033E004F08007E490C733F0A3F090C7C0B7
:102F8400E0FEA3E0FF7C007D0A129D9CAA06AB072D
:102F940090C733E0FEA3E0FF7D64129D9CEF2BFFFE
:102FA400EE3AFE90C77EE02FFF90C77DE03E90C8CA
:102FB4009FF0A3EFF090C7FCE0FEA3E0FF90C89F52
:102FC400E0FCA3E0FDD39FEC9E502490C7F7E0FE05
:102FD400A3E0FFC3ED9FEC9E40157B017AC77933D4
:102FE40090C8CCE4F0A304F07F607E200231AF905F
:102FF400C89DE0FFA3E090C733CFF0A3EFF07B01BF
:103004007AC7793390C8CCE4F0A304F07F607E20C3
:103014000231AF90C66EE06404600302342890C6A7
:103024006AE060030230FE90C76FE0FEA3E0FF9009
:10303400C89DEEF0A3EFF0643B4E701D90C70BE00B
:103044007002A3E06003E4801C90C770E004F07099
:103054002A90C76FE004F0802290C76FE07004A349
:10306400E0643C700890C76FF0A3F0800E90C770C6
:10307400E004F0700690C76FE004F090C76FE0FEC4
:10308400A3E0FF7C007D3C129D9C90C70CE02FFFC9
:1030940090C70BE03E90C89FF0A3EFF090C809E002
:1030A400FEA3E0FF90C89FE0FCA3E0FDD39FEC9E4D
:1030B400502490C807E0FEA3E0FFC3ED9FEC9E40C0
:1030C400157B017AC7796F90C8CCE4F0A304F07F34
:1030D400107E210231AF90C89DE0FFA3E090C76F3E
:1030E400CFF0A3EFF07B017AC7796F90C8CCE4F0FE
:1030F400A304F07F107E210231AF90C66AE0640120
:10310400600302342890C70BE0FEA3E0FF90C89D43
:10311400EEF0A3EFF0643B4E700890C70BF0A3F001
:10312400800E90C70CE004F0700690C70BE004F02A
:1031340090C76FE0FEA3E0FF7C007D3C129D9C9055
:10314400C70CE02FFF90C70BE03E90C89FF0A3EFA1
:10315400F090C809E0FEA3E0FF90C89FE0FCA3E064
:10316400FDD39FEC9E502390C807E0FEA3E0FFC36D
:10317400ED9FEC9E40147B017AC7790B90C8CCE498
:10318400F0A304F07F307E21802190C89DE0FFA34E
:10319400E090C70BCFF0A3EFF07B017AC7790B90D7
:1031A400C8CCE4F0A304F07F307E2112B4AC023426
:1031B4002890C66DE06401702A90C713E0FF90C7A1
:1031C4001CE06F600302342812D7F490C66EE0B49A
:1031D40004057401F0800690C66EE004F012D08FEE
:1031E40002342890C7FEE0FEA3E0FF249BF582741E
:1031F400C73EF583E0FD90C71CE0FCC39D501B74E3
:103204008D2FF58274C73EF583E0FFECC39F400A1F
:1032140090C71CE004F0E0FF802A90C7FEE0FEA304
:10322400E0FF249BF58274C73EF583E0FD90C71C44
:10323400E0B50516748D2FF58274C73EF583E0FF63
:1032440090C71CF012DECE02342890C66BE06401F5
:10325400704190C7FEE0FEA3E02431F58274C73EBE
:10326400F583E0FF90C71CE0B50702804790C7567E
:10327400E0FF90C71CE0B5071290C7FEE0FEA3E094
:10328400242AF58274C73EF583805290C71CE0045B
:10329400F0804A90C66CE06401704A90C7FEE0FE7C
:1032A400A3E02428F58274C73EF583E0FF90C71C91
:1032B400E0B5070590C756802490C756E0FF90C735
:1032C4001CE0B5071290C7FEE0FEA3E0241AF582C5
:1032D40074C73EF583800690C71CE004F0E0FF123B
:1032E400E3B002342890C7FEE0FEA3E02437F58261
:1032F40074C73EF583E0FF90C71CE0B5070A7F0260
:103304007E0012E01302342890C7FEE0FEA3E024FE
:1033140024F58274C73EF583E0FF90C71CE0B5072F
:103324000E90C89BE0FEA3E0FF12847C0234289038
:10333400C7FEE0FEA3E0247FF58274C73EF583E078
:10334400FF90C71CE0B5070E90C89BE0FEA3E0FF0A
:1033540012C2D202342890C7FEE0FEA3E0248BF50B
:103364008274C73EF583E0FF90C71CE0B5070E905A
:10337400C89BE0FEA3E0FF12C1B502342890C7FE4B
:10338400E0FEA3E0246BF58274C73EF583E0FF9072
:10339400C71CE0B5070E90C89BE0FEA3E0FF12CE69
:1033A4004D02342890C7FEE0FEA3E0FF24BEF58260
:1033B40074C73EF583E0FD90C71CE0FC6D60657446
:1033C400402FF58274C73EF583E0B5040D90C89B89
:1033D400E0FEA3E0FF12D21E804A90C7FEE0FEA3E7
:1033E400E0240FF58274C73EF583E0FF90C71CE02C
:1033F400B5070D90C89BE0FEA3E0FF128B768024F6
:1034040090C7FEE0FEA3E02489F58274C73EF583ED
:10341400E0FF90C71CE0B5070B90C89BE0FEA3E05B
:10342400FF12BC5C90C6687401F07D1E7C00E4FF52
:1034340002E0BB90C675E07004A3E064016003027F
:10344400388190C713E0FF90C71CE06F600302351A
:10345400CF90C66EE06401702990C66AE004F0E083
:103464006403700F12D1A190C66EE0FF7E007D64EC
:103474000235CA90C66EE0FF7E0090C66AE0FD0287
:1034840035CA90C66EE0B40221E490C675F0A3F08C
:1034940090C66AF090C73BE0FCA3E0FD7F047E8108
:1034A40012D1EF7F537E1002E1C890C66EE0640330
:1034B400706C90C66AE004F0E06403705290C675C4
:1034C400F0A3F090C66AF090C7C0E0FEA3E0FF7CD2
:1034D400007D0A129D9CAA06AB0790C733E0FEA3A9
:1034E400E0FF7D64129D9CEF2BFFEE3AFE90C77EB9
:1034F400E02FFF90C77DE03E90C89FF0A3EFF07FE0
:103504000212D1E590C66EE0FF7E007D64800C90CF
:10351400C66EE0FF7E0090C66AE0FD0235CA90C622
:103524006EE06404600302426C90C66AE004F0E05A
:10353400640260030235BE90C675F0A3F090C66ABB
:10354400F07B017AC7796F90C8C8F0A304F07F10AC
:103554007E2112AF877B017AC7790B90C8C8E4F04B
:10356400A304F07F307E2112AF8790C76FE0FEA3E3
:10357400E0FF7C007D3C129D9C90C70CE02FFF90E7
:10358400C70BE03E90C89FF0A3EFF07B017AC779A8
:103594000B90C8CCE4F0A304F07F307E2112B4ACCD
:1035A40090C89FE0FCA3E0FD7F067E8112D1EF90DE
:1035B400C66EE0FF7E007D64800C90C66EE0FF7EE8
:1035C4000090C66AE0FD7C00023F6690C66AE00493
:1035D400F090C71CE0FF7E0090C66AE0FD7C0012FC
:1035E400912E90C7FEE0FEA3E024B8F58274C73E96
:1035F400F583E0FF90C71CE06F701B90C66AE0641F
:1036040004701312D1A190C7FEE0FEA3E0242AF5B2
:103614008274C7023F2390C7FEE0FEA3E024C2F5F4
:103624008274C73EF583E0FF90C71CE06F70529030
:10363400C66AE06403704A90C675F0A3F090C66A47
:10364400F090C7C4E0FEA3E0FF7C007D0A129D9CBD
:1036540090C782E02FFF90C781E03E90C89FF0A3FF
:10366400EFF090C89FE0FCA3E0FD7F087E8112D1BB
:10367400EF90C7FEE0FEA3E02431F58274C7023F59
:103684002390C727E0FF90C71CE0B5071890C66ACF
:10369400E0B40411E490C675F0A3F090C66AF0900B
:1036A400C76D02411490C7FEE0FEA3E0249DF5829D
:1036B40074C73EF583E0FF90C71CE06F706C90C642
:1036C4006AE06404706490C675F0A3F090C66AF072
:1036D40090C7C0E0FEA3E0FF7C007D0A129D9CAA77
:1036E40006AB0790C733E0FEA3E0FF7D64129D9C08
:1036F400EF2BFFEE3AFE90C77EE02FFF90C77DE0F0
:103704003E90C89FF0A3EFF090C89FE0FCA3E0FDBB
:103714007F027E8112D1EF90C7FEE0FEA3E0241A5F
:10372400F58274C73EF58302411490C7FEE0FEA300
:10373400E024B6F58274C73EF583E0FF90C71CE031
:103744006F705590C66AE06403704D90C675F0A31F
:10375400F090C66AF090C7B2E0FEA3E0FF7C007D63
:103764000A129D9C90C743E02FFF90C742E03E9011
:10377400C89FF0A3EFF090C89FE0FCA3E0FD7F0A90
:103784007E8112D1EF90C7FEE0FEA3E02428F582EB
:1037940074C73EF58302411490C717E0FF90C71C1D
:1037A400E0B5071890C66AE0B40211E490C675F05B
:1037B400A3F090C66AF090C73F02411490C7FEE0A0
:1037C400FEA3E024B0F58274C73EF583E0FF90C702
:1037D4001CE06F705590C66AE06403704D90C67526
:1037E400F0A3F090C66AF090C76FE0FEA3E0FF7C00
:1037F400007D3C129D9C90C70CE02FFF90C70BE00E
:103804003E90C89FF0A3EFF090C89FE0FCA3E0FDBA
