:0300000002C875BE
:0800F800FFFF4457494E543547
:10C87500759401759502758E0075930075C8707570
:10C88500C96075F80075F90175A80075B800759A45
:10C895000075A90075B90053D0E7787FE4F6D8FD97
:10C8A5009080007F007E80E4F0A3DFFCDEFA7581D6
:04C8B5001B02C8F4A6
:10AEE00090C8C5EEF0A3EFF0A3EBF0A3EAF0A3E95E
:01AEF000F071
:10AEF100E490C8CCF0A3F0A3F0A3F0A3F0A3F0A3D7
:10AF0100F0A3F090C8CAE0FAA3E0FB4A700302B0D4
:10AF11009F90C8C5E0FEA3E0FFC3E49FFFE49EFE4F
:10AF2100E4FCFD90C8D4129F96AF03AE02E4FCFD91
:10AF310090C8D4E0F8A3E0F9A3E0FAA3E0FBC312C0
:10AF41009F5F501190C8D4A3A3E0FFA3E090C8CAAB
:10AF5100CFF0A3EFF090C8C5E0FCA3E0FDECC31374
:10AF6100FFED1390C8CCCFF0A3EFF0ED5401FFA398
:10AF7100E4F0A3EFF0C2AFE4F5F190C8CCE0FCA39C
:10AF8100E0FDECF5F28DF375F40175F8AF30FCFDE1
:10AF910090C8CEE07002A3E0603DD2FE20FEFD909D
:10AFA100C8C7E0FBA3E475F001129D72A9F0FAE5B0
:10AFB100FC129CC190C8C7E0FBA3E475F001129D8F
:10AFC10072A9F0FAE5FD129CC190C8CBE024FFF014
:10AFD10090C8CAE034FFF090C8CAE0FCA3E0FDECE1
:10AFE100C313FFED1390C8D0CFF0A3EFF0ED5401E0
:10AFF100FFA3E4F0A3EFF090C8D074FFF5F0129D29
:10B001007245F0605BD2FE20FEFD90C8C7E0FBA355
:10B01100E475F001129D72A9F0FAE5FA129CC19053
:10B02100C8C7E0FBA3E475F001129D72A9F0FAE52F
:10B03100FB129CC190C8C7E0FBA3E475F001129D0F
:10B0410072A9F0FAE5FC129CC190C8C7E0FBA3E429
:10B0510075F001129D72A9F0FAE5FD129CC180976D
:10B0610090C8D2E07002A3E0602FD2FE20FEFD90D6
:10B07100C8C7E0FBA3E475F001129D72A9F0FAE5DF
:10B08100FA129CC190C8C7E0FBA3E475F001129DC0
:0EB0910072A9F0FAE5FB129CC1E4F5F8D2AF0B
:01B09F00228E
:10B4050090C8C9EEF0A3EFF0A3EBF0A3EAF0A3E92F
:01B41500F046
:10B41600E490C8D0F0A3F0A3F0A3F0A3F0A3F090BB
:10B42600C8CEE07002A3E0700302B59790C8C9E0E9
:10B43600FEA3E0FFC3E49FFFE49EFED390C8CFE0E7
:10B446009F90C8CEE09E4005EEF0A3EFF090C8C9ED
:10B45600E0FAA3E0FBEAC313FCEB13FDEB5401FF98
:10B4660090C8D0E4F0A3EFF0C2AFE4F5F1ECF5F24A
:10B47600AF058FF375F40175F88330FCFD90C8D0E5
:10B48600E07002A3E0603D90C8CBE0FBA3E475F05A
:10B4960001129D72A9F0FA129C7BF5FC90C8CBE0D4
:10B4A600FBA3E475F001129D72A9F0FA129C7BF5DC
:10B4B600FDD2FE20FEFD90C8CFE024FFF090C8CE5E
:10B4C600E034FFF090C8CEE0FCA3E0FDECC313FF30
:10B4D600ED1390C8D2CFF0A3EFF0ED5401FFA3E433
:10B4E600F0A3EFF075F88F90C8D274FFF5F0129DB7
:10B4F6007245F0605B90C8CBE0FBA3E475F00112E7
:10B506009D72A9F0FA129C7BF5FA90C8CBE0FBA3DA
:10B51600E475F001129D72A9F0FA129C7BF5FB907E
:10B52600C8CBE0FBA3E475F001129D72A9F0FA12F4
:10B536009C7BF5FC90C8CBE0FBA3E475F001129D63
:10B5460072A9F0FA129C7BF5FDD2FE30FE9980FBC3
:10B5560090C8D4E07002A3E0603275F88C90C8CB36
:10B56600E0FBA3E475F001129D72A9F0FA129C7B30
:10B57600F5FA90C8CBE0FBA3E475F001129D72A921
:10B58600F0FA129C7BF5FBD2FE20FEFDE4F5F8D224
:01B59600AF05
:01B597002291
:10BA3B0090C9C5EEF0A3EFF0A3EBF0A3EAF0A3E9F6
:01BA4B00F00A
:10BA4C00A3E0FEA3E0FF4E700302BBB490C9C5E0B7
:10BA5C00FCA3E0FDC3E49DFDE49CFCD3EF9DEE9CB8
:10BA6C00400AAF0590C9CAECF0A3EFF090C9C5E04D
:10BA7C00FCA3E0FDECC313FEED13FBAA06ED540191
:10BA8C00FDC2AFE4F5F1EAF5F2AF038FF375F40103
:10BA9C0075F88330FCFDED604FC390C9CBE0940288
:10BAAC0090C9CAE09400500302BBAF90C9C7E0FB39
:10BABC00A3E475F001129D72A9F0FA129C7BF5FCBF
:10BACC0090C9C7E0FBA3E475F001129D72A9F0FACE
:10BADC00129C7BF5FDD2FE20FEFD90C9CBE024FE2E
:10BAEC00F090C9CAE034FFF090C9CAE0FEA3E07838
:10BAFC0002CEC313CE13D8F9FF75F88FEF1FAC0627
:10BB0C0070011E4C605B90C9C7E0FBA3E475F001AB
:10BB1C00129D72A9F0FA129C7BF5FA90C9C7E0FB52
:10BB2C00A3E475F001129D72A9F0FA129C7BF5FB4F
:10BB3C0090C9C7E0FBA3E475F001129D72A9F0FA5D
:10BB4C00129C7BF5FC90C9C7E0FBA3E475F00112D5
:10BB5C009D72A9F0FA129C7BF5FDD2FE30FE9D8001
:10BB6C00FB90C9CBE030E1047F0180027F00EF60E5
:10BB7C003275F88C90C9C7E0FBA3E475F001129DF7
:10BB8C0072A9F0FA129C7BF5FA90C9C7E0FBA3E40A
:10BB9C0075F001129D72A9F0FA129C7BF5FBD2FE96
:08BBAC0020FEFDE4F5F8D2AF24
:01BBB400226E
:10E1CC00EC90C9FBF0EDA3F07B017AC979FB90C907
:0AE1DC00CAE4F0A37402F002BA3B9B
:10E27F00EF4E6010E4FD0DEDC3943240F9EF1F70C7
:04E28F00EF1E80EC12
:01E293002268
:08D0990090C9D3EEF0A3EFF003
:10D0A100A3745AF0A37401F090C9D3E0FCA3E0FD8E
:10D0B100EC90C9D7F0A3EDF07B017AC979D590C87E
:10D0C100CEE4F0A37402F07F847E0012B4057FF4F5
:10D0D1007E0112E27F7B017AC979D590C8CAE4F05A
:10D0E100A37402F07F147E0012AEE090C9D3E0FE7B
:10D0F100A3E0FFA3E0B506D6A3E0B507D1E490C94C
:10D10100D5F0A3F0A3F0A3F07B017AC979D590C83B
:0DD11100CEF0A37402F07F167E0002B4057C
:08DA960090C8A4EEF0A3EFF02C
:10DA9E00E4A3F0A3F090C8A4E0FEA3E0FFC390C8F7
:10DAAE00A7E09F90C8A6E09E5025E4FBFA7F017E7A
:10DABE000012E27F0BBB00010ABA01F1BB2CEE9003
:0FDACE00C8A7E004F070CE90C8A6E004F080C6B0
:01DADD002226
:10DADE00EF14601814602314602E2403703974013F
:10DAEE00A805088002C333D8FC42B7227401A805EA
:10DAFE00088002C333D8FC42BC227401A8050880FA
:10DB0E0002C333D8FC42BD22AF057401A8070880BA
:08DB1E0002C333D8FC42BE2211
:10D9B600EF1460191460251460312403703D74015E
:10D9C600A805088002C333D8FCF452B7227401A814
:10D9D60005088002C333D8FCF452BC227401A805A2
:10D9E600088002C333D8FCF452BD22AF057401A8E7
:0CD9F60007088002C333D8FCF452BE22A4
:10CD3700EF14602D14604A1460672403600302CD6A
:10CD4700C9EB600E7401A805088002C333D8FC4202
:10CD570080227401A805088002C333D8FCF45280EE
:10CD670022EB600E7401A805088002C333D8FC4289
:10CD770090227401A805088002C333D8FCF45290AE
:10CD870022EB600E7401A805088002C333D8FC4269
:10CD9700A0227401A805088002C333D8FCF452A06E
:10CDA70022EB600E7401A805088002C333D8FC4249
:10CDB700B022AF057401A807088002C333D8FCF47A
:03CDC70052B02245
:10D81D00EF14601A146027146034240370427401ED
:10D82D00A805088002C333D8FC5580FE80347401EE
:10D83D00A805088002C333D8FC5590FE80247401DE
:10D84D00A805088002C333D8FC55A0FE8014AF058F
:10D85D007401A807088002C333D8FC55B0FE8002BE
:04D86D00E4FEAF0620
:01D871002294
:10E07B00758911E4F58CF58AC28CF518F51A43896C
:0EE08B0001758CBC758ACDD2A9D2AFD28C2281
:03000B0002D3031A
:0DD30300C0E0C0D075D000C000C006C0075B
:10D31000C2AF758CBC758ACD0519751B0074017E72
:10D3200000A81B088005C333CE33CED8F9FFEF55D4
:10D330001A602DE51B25E02408F808E61618700190
:10D3400016E51B25E02408F8E6FE08E64E7011AF4E
:10D350001B04A807088002C333D8FC4218F4521AF1
:09D36000051BE51BB408B6D2AFB1
:0BD36900D007D006D000D0D0D0E032BA
:10E1E600758911E4F58DF58BC28ED2AF4389107512
:0AE1F6008DBC758BCDD2ABD28E220A
:03001B0002E31BE2
:0DE31B00C2AF758DBC758BCDB290D2AF3204
:10E2BE0075C8F075CD58E4F5CC75CB58F5CA43C882
:04E2CE0001D2AD22AA
:03002B0002E341AC
:09E34100C2AFC2C6B291D2AF32E4
:10E03800C2AF7401A807088002C333D8FCFE421A95
:10E04800EF25E02408F8A60408A605EEF45218D235
:02E05800AF22F5
:10E29400C2AF7401A807088002C333D8FCF4521A31
:05E2A4005218D2AF2268
:10E2E600C2AF7401A807088002C333D8FC5518FFD3
:02E2F600D2AFA5
:01E2F8002203
:10D91A00AB07AA06A905A8047F007E387D317C00E2
:10D92A00129ECDC3E49F90C8A3F074049E90C8A22F
:10D93A00F043C9407D04E4FF12DADE7D05E4FF12FC
:10D94A00D9B643803075D88075985090C8A2E0FC4B
:0DD95A00A3E0FDECF5BA8DAA43A810D2ACF5
:01D96700229D
:10DA4D00AB07AA06A905A8047F007E707D627C0045
:10DA5D00129ECDC3E49F90C8A3F074049E90C8A2FB
:10DA6D00F043C9207D06E4FF12DADE7D07E4FF12E4
:10DA7D00D9B64380C0759B9090C8A2E0FCA3E0FD91
:08DA8D00ECF5BB8D9D439A01ED
:01DA9500226E
:10DD0A00759680759780AB07AA06A905A8047F00B7
:10DD1A007EC07D897C01129ECDAD07AC06ECF5D99B
:10DD2A00AF058FE743B80CE4909812F0A3F0A3F084
:10DD3A00A3F090981AF0909816F0A3F0A3F0A3F02D
:01DD4A0022B6
:10DFED0075A78075AB80AB07AA06A905A8047F00AD
:10DFFD007EC07D897C01129ECDAD07AC06ECF5AEE1
:07E00D00AF058FAF43B830EF
:01E0140022E9
:10D8C700EF14601B1460291460372403704490C858
:10D8D7009EE0FCA3E0FDA3E0FEA3E0FF02D91A90BF
:10D8E700C89EE0FCA3E0FDA3E0FEA3E0FF02DA4D43
:10D8F70090C89EE0FCA3E0FDA3E0FEA3E0FF02DDED
:10D907000A90C89EE0FCA3E0FDA3E0FEA3E0FF129F
:03D91700DFED221F
:10B0A00090C89DEFF0A3ECF0A3EDF0A3EBF0A3EAC2
:04B0B000F0A3E9F030
:10B0B400C2AFE4A3F0A3F090C89EE0FEA3E0FFC3F8
:10B0C40090C8A4E09F90C8A3E09E400302B178908A
:10B0D400C8A0E0FBA3E475F001129D72A9F0FA1276
:10B0E4009C7BFF90C89DE0FE75F009A42400F582C6
:10B0F400E5F03488F583EE75F008A42583F583E044
:10B10400FCA3E0FD75F009EEA42400F582E5F0341B
:10B1140080F583EE75F008A42583F583E5822DF58B
:10B1240082E5833CF583EFF075F009EEA42400F585
:10B1340082E5F03488F583EE75F008A42583F58361
:10B14400E475F001129D5C75F009EEA42400F5820B
:10B15400E5F03488F583EE75F008A42583F583E0E3
:10B164005403F090C8A4E004F0700690C8A3E0046F
:10B17400F002B0BB90C89DE014604214607014707B
:10B184000302B2202403600302B250908808E060F6
:10B194000302B25004F0908802E0FEA3E02400F51C
:10B1A4008274803EF583E0F599908803E004F070A2
:10B1B40006908802E004F090880202B24C9090114C
:10B1C400E0600302B25004F090900BE0FEA3E02490
:10B1D40009F58274883EF583E0F59C90900CE004B8
:10B1E400F0700690900BE004F090900B805A9098C9
:10B1F4001AE0705804F0909814E0FEA3E02412F5CD
:10B204008274903EF583E0F59E909815E004F0700A
:10B2140006909814E004F0909814802C90A023E0F9
:10B22400702A04F090A01DE0FEA3E0241BF58274B4
:10B23400983EF583E0F5AC90A01EE004F070069013
:0EB24400A01DE004F090A01DE05403F0D2AF76
:01B2520022D9
:0300230002CF7D8C
:10CF7D00C0E0C083C082C0D075D000C006C007C25B
:10CF8D00AF30982AC298908804E0FEA3E02400F503
:10CF9D008274843EF583E599F0908805E004F07085
:10CFAD0006908804E004F0908804E05403F0309972
:10CFBD003FC299908802E0FEA3E0FF908800E06EEA
:10CFCD007003A3E06F602474002FF58274803EF52A
:10CFDD0083E0F599908803E004F07006908802E0F4
:10CFED0004F0908802E05403F08005908808E4F086
:0FCFFD00D2AFD007D006D0D0D082D083D0E032D0
:0300530002D5F5DE
:10D5F500C0E0C083C082C0D075D000C006C007C2DD
:10D60500AF5396FE909814E0FEA3E0FF909812E0C9
:10D615006E7003A3E06F602474122FF58274903E40
:10D62500F583E0F59E909815E004F0700690981447
:10D63500E004F0909814E05403F0800590981AE403
:10D64500F0D2AFD007D006D0D0D082D083D0E03290
:03005B0002DB269F
:10DB2600C0E0C083C082C0D075D000C006C2AF536B
:10DB360097FE909816E0FEA3E02412F58274943EB8
:10DB4600F583E59FF0909817E004F070069098161C
:10DB5600E004F0909816E05403F0D2AFD006D0D08F
:07DB6600D082D083D0E03231
:0300630002D6556D
:10D65500C0E0C083C082C0D075D000C006C007C27C
:10D66500AF53A7FE90A01DE0FEA3E0FF90A01BE036
:10D675006E7003A3E06F6024741B2FF58274983ECF
:10D68500F583E0F5AC90A01EE004F0700690A01DB7
:10D69500E004F090A01DE05403F0800590A023E481
:10D6A500F0D2AFD007D006D0D0D082D083D0E03230
:03006B0002DB6D48
:10DB6D00C0E0C083C082C0D075D000C006C2AF5324
:10DB7D00ABFE90A01FE0FEA3E0241BF582749C3E3B
:10DB8D00F583E5ADF090A020E004F0700690A01FA5
:10DB9D00E004F090A01FE05403F0D2AFD006D0D037
:07DBAD00D082D083D0E032EA
:0300830002CC9C10
:10CC9C00C0E0C083C082C0D075D000C006C007C23F
:10CCAC00AFE59B30E02E759B90539BFE90900DE072
:10CCBC00FEA3E02409F582748C3EF583E59CF0908C
:10CCCC00900EE004F0700690900DE004F090900D42
:10CCDC00E05403F0E59B30E143759B90539BFD9032
:10CCEC00900BE0FEA3E0FF909009E06E7003A3E0D0
:10CCFC006F602474092FF58274883EF583E0F59CEF
:10CD0C0090900CE004F0700690900BE004F0909082
:10CD1C000BE05403F08005909011E4F0D2AFD007F3
:0BCD2C00D006D0D0D082D083D0E032FF
:10E2A9007596807597807C00ECF5D975E7E0759EC9
:04E2B9000D53B8F356
:01E2BD00223E
:0BE0150090C8D9EBF0A3EAF0A3E9F0FB
:10E0200090C9047401F0A374C8F0A374DCF090C923
:07E0300004E4F0A3F0A3F0EB
:01E0370022C6
:02E3500080FE4D
:057A180042C9FD000061
:10C6DF00E490C898F0A3F0A3740AF0A3740DF0A32C
:10C6EF0074EFF012E07B12E1E612AD19E4FD7F0268
:10C6FF0012D9B67D607CEAE4FF12E0387DF47C014C
:10C70F007F0112E03812D28DD2AF90C71CE0FF121A
:10C71F00DE4B12A3EB7D887C137F0712E0387B0181
:10C72F007AC8799990C8CEE4F0A304F07F007E8296
:10C73F0012B4057B017AC8790090C8CAE4F0A3044B
:10C74F00F07F467E8112AEE090C800E07002A3E059
:10C75F0070051254AF800312630B12DC8590C9FD74
:10C76F00E07002A3E070187F0712E2E6EF6010900E
:10C77F00C9FDE4F0A304F090C71CF0FF12DE4B904C
:10C78F00C9FDE07002A3E060D112DCC812D4C2125E
:0FC79F00B59890C896EEF0A3EFF012010080BBA2
:107A1D0041C7BA0042C720000041C70D0044C783CB
:107A2D000000000046C705000000000000608AC687
:107A3D007B000000010002000300040005000600A9
:107A4D000700080009000A000B000C000D000E00D5
:107A5D000F00100011001200130014001500160085
:107A6D001700180019001A001B001C001D001E0035
:107A7D001F002000210022002300240025002600E5
:107A8D002700280029002A002B002C002D002E0095
:107A9D002F00300031003200330034003500360045
:107AAD003700380039003A003B003C003D003E00F5
:107ABD003F0040004100420043004442C7390000EE
:107ACD0041C7BD0042C711000042C735000050C775
:107ADD00A0000000000000000000000000000000F9
:107AED000050C7570000000000000000000000001B
:107AFD000000000050C7440000000000000000001E
:107B0D00000000000000004CC771000000000000E4
:107B1D0000000000000042C7C4000042C781000001
:107B2D0042C733000042C7C0000042C77D0000427B
:107B3D00C7B2000042C742000042C76F000042C7F3
:107B4D000B000042C73B000041C79F0042C7C60063
:107B5D000042C714000042C71E000041C70E00427C
:107B6D00C78D012842C78F022942C793032A42C7F6
:107B7D0095042B42C797052C42C799062D42C79BEA
:107B8D00072E41C7130842C72A092F42C7310A30B1
:107B9D0041C76D0B42C71A0C3142C7280D3241C780
:107BAD003F0E41C7560F42C7B8103342C7C21134FA
:107BBD0041C7271242C79D133542C7B6143641C778
:107BCD00171542C7B0163742C787173841C7261851
:107BDD0041C71D1941C7161A42C7371B3942C72461
:107BED001C3A42C77F1D3B42C78B1E3C42C76B1FD1
:107BFD003D42C722203E42C769213F42C7BE2240B7
:107C0D0042C740234142C7B4244242C70F254342D5
:107C1D00C789264442C72C000041C76E0041C72EBC
:107C2D000042C767000042C73D000042C7BB0000CD
:107C3D0042C72F000041C6680041C6690041C66AAF
:107C4D000041C66B0041C66C0041C66D0041C66E59
:107C5D000042C66F000042C671000042C6730000AC
:0A7C6D0042C675000042C677000011
:10D11E0090C675F0A3F090C66AF090C718E0FEA313
:10D12E00E0FF7C007D0A129CF5AA06AB0790C7545F
:10D13E00E0FEA3E0FF7D64129CF5EF2BFFEE3AFEBE
:10D14E0090C792E02FFF90C791E03E90C8A1F0A348
:0ED15E00EFF07F0090C8A1E0FCA3E0FD7E8111
:10D16C0090C679EEF0A3EFF090C7C6ECF0A3EDF00B
:10D17C0090C79F7401F0FB7AC779C690C8CEE4F0D3
:0FD18C00A304F012B4057DBC7C027F0602E038DC
:0CE33500E490C79FF090C71EF0A3F022F8
:10D4C20090C79FE060637F0612E2E6EF605B90C662
:10D4D20079E0FEA3E0FF7B017AC7791490C8CAE421
:10D4E200F0A304F012AEE090C714E0FEA3E0FF90B8
:10D4F200C7C6E0FCA3E0FDB50707ECB5060302E3EF
:10D5020035C390C71FE0940290C71EE094005019E3
:10D5120090C679E0FEA3E0FF12D16C90C71FE00431
:0AD52200F0700690C71EE004F0222E
:06E34A00E490C70DF02273
:10BFEF0090C8C1ECF0A3EDF0EE600302C10DEF2499
:10BFFF00FE606A14606B14700302C0D224036003E6
:10C00F0002C10D90C8C1E0FEA3E0FFEE703DEF143A
:10C01F006019146026240270327F037E1012E145EE
:10C02F007F137E1012E1457F33805C7F037E1012F9
:10C03F00E1457F137E1012E160801E7F037E101298
:10C04F00E1607F137E1012E145800E7F037E101298
:10C05F00E1457F137E1012E1457F3380627F53806D
:10C06F002690C8C1E0FEA3E0FFEE7043EF14601B03
:10C07F0014602A240270387F637E1012E1457F73AB
:10C08F007E1012E1457F837E1080627F637E1012E7
:10C09F00E1457F737E1012E1607F8380227F637E94
:10C0AF001012E1607F737E1012E1457F8380107F55
:10C0BF00637E1012E1457F737E1012E1457F837E10
:10C0CF0010803890C8C1E0FEA3E0FFEE7022EF149D
:10C0DF00601004701B7F137E1112E1607F337E119D
:10C0EF0080197F137E1112E1457F337E1102E160CB
:0FC0FF007F137E1112E1457F337E1112E145223E
:1090870090C8C1ECF0A3EDF0EE600302962BEF124F
:10909700A02F90C71091BB1192811292FE1393F8E3
:1090A7001494BE15953B1695E017913E33921E34E6
:1090B700937B35945B36958E379605380000962B53
:1090C70090C8C1E07002A3E070177F537E1112E1D0
:1090D7002A7F637E1112E12A7F737E1112E160807D
:1090E7004290C8C1E07004A3E0640170107F537E12
:1090F7001112E12A7F637E1112E160801F90C8C1BF
:10910700E07004A3E064027F537E11700512E160F2
:10911700800312E12A7F637E1112E12A7F737E1199
:1091270012E12A90C8C1E07004A3E0640370047DD3
:10913700018079E4FD807590C8C1E07002A3E070FA
:10914700177F537E1112E12A7F637E1112E12A7F76
:10915700737E1112E160804290C8C1E07004A3E001
:10916700640170107F537E1112E12A7F637E111212
:10917700E160801F90C8C1E07004A3E064027F53E0
:109187007E11700512E160800312E12A7F637E1170
:1091970012E12A7F737E1112E12A90C8C1E07004A0
:1091A700A3E0640370047D018002E4FDFC7F807E00
:1091B7002102962890C8C1E07002A3E070107F9347
:1091C7007E1112E12A7F037E1212E160802F90C880
:1091D700C1E07004A3E0640170097F937E1112E17E
:1091E70060801390C8C1E07004A3E06402700E7F32
:1091F700937E1112E12A7F037E1212E12A90C8C1E1
:10920700E07004A3E0640270047D018002E4FDFCC9
:109217007F107E2202962890C8C1E07002A3E070FA
:10922700107F937E1112E12A7F037E1212E1608084
:109237002F90C8C1E07004A3E0640170097F937E9A
:109247001112E160801390C8C1E07004A3E06402CA
:10925700700E7F937E1112E12A7F037E1212E12A9C
:1092670090C8C1E07004A3E0640270047D0180022D
:10927700E4FDFC7F107E2202962890C8C1E07002B0
:10928700A3E070177F237E1212E12A7F837E90125C
:10929700E12A7F937E9012E160804290C8C1E0701E
:1092A70004A3E0640170107F237E1212E12A7F83FA
:1092B7007E9012E160801F90C8C1E07004A3E06453
:1092C700027F237E12700512E160800312E12A7F7C
:1092D700837E9012E12A7F937E9012E12A90C8C183
:1092E700E07004A3E0640370047D018002E4FDFCE8
:1092F7007F307E3902962890C8C1E07002A3E070E3
:10930700177F637E1212E12A7F737E1212E12A7F92
:10931700837E1212E160804290C8C1E07004A3E02E
:10932700640170107F637E1212E12A7F737E12122E
:10933700E160801F90C8C1E07004A3E064027F630E
:109347007E12700512E160800312E12A7F737E129C
:1093570012E12A7F837E1212E12A90C8C1E07004CD
:10936700A3E0640370047D018002E4FDFC7F907E2E
:109377002202962890C8C1E07002A3E070177F63AD
:109387007E1212E12A7F737E1212E12A7F837E12F8
:1093970012E160804290C8C1E07004A3E0640170EC
:1093A700107F637E1212E12A7F737E1212E16080C2
:1093B7001F90C8C1E07004A3E064027F637E12704F
:1093C7000512E160800312E12A7F737E1212E12AFF
:1093D7007F837E1212E12A90C8C1E07004A3E06483
:1093E7000370047D018002E4FDFC7F907E220296DB
:1093F7002890C8C1E07002A3E070107F037E1312AB
:10940700E12A7413FFFE12E160802F90C8C1E0705B
:1094170004A3E0640170097F037E1312E1608013E7
:1094270090C8C1E07004A3E06402700E7F037E134E
:1094370012E12A7413FFFE12E12A90C8C1E07004FA
:10944700A3E0640270047D018002E4FDFC7F207EBE
:109457002302962890C8C1E07002A3E070107F0332
:109467007E1312E12A7413FFFE12E160802F90C869
:10947700C1E07004A3E0640170097F037E1312E169
:1094870060801390C8C1E07004A3E06402700E7F8F
:10949700037E1312E12A7413FFFE12E12A90C8C15A
:1094A700E07004A3E0640270047D018002E4FDFC27
:1094B7007F207E2302962890C8C1E07002A3E07047
:1094C700177F337E1312E12A7F437E1312E12A7F2F
:1094D700537E1312E160804290C8C1E07004A3E09C
:1094E700640170107F337E1312E12A7F437E1312CB
:1094F700E160801F90C8C1E07004A3E064027F337D
:109507007E13700512E160800312E12A7F437E1308
:1095170012E12A7F537E1312E12A90C8C1E070043A
:10952700A3E0640370047D018002E4FDFC7F607E9C
:109537002302962890C8C1E07002A3E070097F73E8
:109547007E1312E160801F90C8C1E07004A3E0643D
:10955700017F737E13700C12E12A7F837E1312E161
:1095670060800A12E12A7F837E1312E12A90C8C124
:10957700E07004A3E0640270047D018002E4FDFC56
:109587007F907E2302962890C8C1E07002A3E07006
:10959700097F737E1312E160801F90C8C1E07004D9
:1095A700A3E064017F737E13700C12E12A7F837E30
:1095B7001312E160800A12E12A7F837E1312E12AE7
:1095C70090C8C1E07004A3E0640270047D018002CA
:1095D700E4FDFC7F907E23804890C8C1E07004A31F
:1095E700E064017F037E14700912E12A7D017C008B
:1095F700800612E160E4FDFC7F107E24802390C882
:10960700C1E07004A3E064017F037E14700912E1D6
:109617002A7D017C00800612E160E4FDFC7F107E5C
:059627002412E09E2268
:05E09900E4FDFC7F9096
:10E09E0090C8C3ECF0A3EDF07B017AC879C390C8A9
:09E0AE00CEE4F0A304F002B40575
:06DE4500E0FF90C71CF095
:10DE4B0090C783745AF0A37401F0E4A3F0EF25E0BC
:10DE5B00247BF582E434C6F583A3E090C786F07B80
:10DE6B00017AC7798390C8CEE4F0A37402F07F8463
:05DE7B007E0002B40569
:05E328003EF583E0FF5B
:08E32D0090C71CEFF002DE4B6B
:10A07C0090C7EBE0B40900400302A3EA90A08FF86C
:10A08C0028287302A0AA02A1A802A1E202A200023F
:10A09C00A21E02A2EB02A31002A32002A3D77F638D
:10A0AC007E5012E1457F737E5012E2347F837E50E6
:10A0BC0012E2347F937E5012E2347F037E5112E21F
:10A0CC00347F137E5112E2347F237E5112E2347FAF
:10A0DC00337E5112E2347F437E5112E2347F537E41
:10A0EC005112E23490C800E0FEA3E02424F58274FF
:10A0FC00C712E3287B017AC8790390C8CEE4F0A399
:10A10C0004F07F707E4012B4057B017AC87906900A
:10A11C00C8CEE4F0A304F07F807E4012B4057B012E
:10A12C007AC779F990C8CEE4F0A304F07F007E41A1
:10A13C0012B4057B017AC779FE90C8CEE4F0A30473
:10A14C00F07F107E4112B4057B017AC8793990C832
:10A15C00CEE4F0A304F07F307E4112B4057B017A8B
:10A16C00C8793D90C8CEE4F0A304F07F407E411244
:10A17C00B4057B017AC8790990C8CEE4F0A304F049
:10A18C007F607E4112B4057B017AC8790B90C8CEF2
:10A19C00E4F0A304F07F707E4102B4057F937E51FE
:10A1AC0012E1457F137E5212E2347F337E5212E26B
:10A1BC00347F537E5212E2347F737E5212E2347F2C
:10A1CC00937E5212E23490C800E0FEA3E0247FF5A7
:10A1DC008274C702A3E77F437E5312E1457453FF99
:10A1EC00FE12E23490C800E0FEA3E0248BF58274EA
:10A1FC00C702A3E77F737E5312E1457F837E531220
:10A20C00E23490C800E0FEA3E0246BF58274C70230
:10A21C00A3E77B017AC8791190C8CEE4F0A304F0CF
:10A22C007F307E4412B4057B017AC8791790C8CE72
:10A23C00E4F0A304F07F407E4412B4057B017AC89D
:10A24C00791E90C8CEE4F0A304F07F507E4412B483
:10A25C00057B017AC8792090C8CEE4F0A304F07F86
:10A26C00707E4412B4057B017AC8793690C8CEE46E
:10A27C00F0A304F07F807E4412B4057B017AC87988
:10A28C003B90C8CEE4F0A304F07F907E4412B4055A
:10A29C007B017AC8790F90C8CEE4F0A304F07F104C
:10A2AC007E4512B4057B017AC8791590C8CEE4F0CE
:10A2BC00A304F07F207E4512B4057B017AC8791C7B
:10A2CC0090C8CEE4F0A304F07F307E4512B4059024
:10A2DC00C800E0FEA3E024BEF58274C702A3E77FAA
:10A2EC00537E5512E1457F637E5512E2347F737EB7
:10A2FC005512E23490C800E0FEA3E02440F58274CD
:10A30C00C702A3E790C800E0FEA3E024B4F5827472
:10A31C00C702A3E77F937E5512E1457F037E561259
:10A32C00E2347F137E5612E2347F237E5612E234DF
:10A33C007F337E5612E2347F437E5612E2347B0129
:10A34C007AC779E190C8CEE4F0A304F07F907E4503
:10A35C0012B4057B017AC779E390C8CEE4F0A3046C
:10A36C00F07F007E4612B4057B017AC779E590C870
:10A37C00CEE4F0A304F07F107E4612B4057B017A84
:10A38C00C779E790C8CEE4F0A304F07F207E461294
:10A39C00B4057B017AC779E990C8CEE4F0A304F048
:10A3AC007F307E4612B4057B017AC779ED90C8CE1A
:10A3BC00E4F0A304F07F407E4612B40590C800E0A0
:10A3CC00FEA3E0240FF58274C7801012DFC390C87F
:0FA3DC0000E0FEA3E0249BF58274C712E3282261
:10D771007F037E1012E2347F137E1012E2347F3376
:10D781007E1012E2347F437E1012E2347F537E100A
:10D7910012E2347F637E1012E2347F737E1012E254
:10D7A100347F837E1012E2347F137E1112E2347FC4
:10D7B100337E1112E2347F737E9212E234E4FDFC77
:06D7C100FF7E3002E09E35
:07D00C0090C66EE0FF7E00FC
:10D0130090C8C1EEF0A3EFF064014E70197F037E58
:10D023001012E1457F137E1012E1457F337E10120B
:10D03300E1457D01803C90C8C1E07004A3E0640237
:10D04300700D7F437E1012E1457F537E1080439025
:10D05300C8C1E07004A3E0640370207F637E1012F4
:10D06300E1457F737E1012E1457F837E1012E14517
:10D073007D027C007F007E3002E09E90C8C1E0709C
:10D0830004A3E06404700E7F137E1112E1457F3325
:06D093007E1112E14522AE
:04D96800AB07AA0659
:10D96C007C007D3C129D0790C8C5EEF0A3EFF0AE95
:10D97C0002AF037C007D3C129D07A3ECF0A3EDF0FD
:10D98C007B017AC879C590C8CEE4F0A304F07F106F
:10D99C007E2112B4057B017AC879C790C8CEE4F019
:0AD9AC00A304F07F307E2102B405D1
:08D7C70090C72FE0FEA3E0FF74
:04D7CF00AB07AA06F4
:10D7D3007C007D3C129D0790C8C1EEF0A3EFF0AE34
:10D7E30002AF037C007D3C129D07A3ECF0A3EDF098
:10D7F3007B017AC879C190C8CEE4F0A304F07F001E
:10D803007E3112B4057B017AC879C390C8CEE4F0A7
:0AD81300A304F07F007E3202B4058A
:10DD4B0090C72E7401F07F037E1112E1457F137E85
:10DD5B001112E1457F237E1112E1457F337E1112B3
:10DD6B00E1457B017AC7792F90C8CAE4F0A304F090
:10DD7B007F067E8112AEE07DE87C037F0502E038F2
:10E05A00E490C72EF07F037E1112E2347F137E1103
:10E06A0012E2347F237E1112E2347F337E1102E200
:01E07A003471
:10DCC80090C72EE070077F037E1102E2347F0512B1
:10DCD800E2E6EF602C90C730E024FFF090C72FE019
:10DCE80034FFF012D7CAD390C730E0940090C72F02
:10DCF800E09400500302E05A7DE87C037F0512E0BF
:02DD08003822BF
:10A3EB00E490C8C3F0A3F07B017AC7793B90C8CA4D
:10A3FB00F0A304F07F047E8112AEE07B017AC87972
:10A40B00C390C8CAE4F0A304F07F007E8112AEE0D3
:10A41B0090C8C3E0FAA3E0FB7C007D64FFAE0212A0
:10A42B009D0790C754EEF0A3EFF07C007D0AAF03BD
:10A43B00AE02129D077C007D0A129D0790C718EC97
:10A44B00F0A3EDF090C8C3E0FEA3E0FF7C007D0A13
:10A45B00129D0790C791ECF0A3EDF07B017AC779C1
:10A46B005490C8CEE4F0A304F07F007E2012B40514
:10A47B007B017AC7791890C8CEE4F0A304F07F1063
:10A48B007E2012B4057B017AC7799190C8CEE4F097
:10A49B00A304F07F307E2012B4057B017AC7795478
:10A4AB0090C8CEE4F0A304F07F507E2112B4057B5C
:10A4BB00017AC7791890C8CEE4F0A304F07F607ED0
:10A4CB002112B4057B017AC7799190C8CEE4F0A331
:10A4DB0004F07F707E2112B4057B017AC879C3909A
:10A4EB00C8CAE4F0A304F07F027E8112AEE090C8EC
:10A4FB00C3E0FAA3E0FB7C007D64FFAE02129D0774
:10A50B0090C733EEF0A3EFF07C007D0AAF03AE02F1
:10A51B00129D077C007D0A129D0790C7C0ECF0A32B
:10A52B00EDF090C8C3E0FEA3E0FF7C007D0A129D16
:10A53B000790C77DECF0A3EDF07B017AC7793390E0
:10A54B00C8CEE4F0A304F07F607E2012B4057B013B
:10A55B007AC779C090C8CEE4F0A304F07F707E2058
:10A56B0012B4057B017AC7797D90C8CEE4F0A304C1
:10A57B00F07F807E2012B4057B017AC7793390C8B7
:10A58B00CEE4F0A304F07F607E2212B4057B017A47
:10A59B00C779C090C8CEE4F0A304F07F707E22127E
:10A5AB00B4057B017AC7797D90C8CEE4F0A304F0A3
:10A5BB007F807E2212B4057B017AC7793D90C8CA91
:10A5CB00E4F0A304F07F067E8112AEE090C73DE07D
:10A5DB00FEA3E0FF12D96890C8C3E0FAA3E0FB7CAE
:10A5EB00007D3CFFAE02129D0790C76FEEF0A3EF0C
:10A5FB00F07C007D3CAF03AE02129D0790C70BECC5
:10A60B00F0A3EDF07B017AC7796F90C8CEE4F0A38D
:10A61B007402F07F107E2112B4057B017AC7790B8F
:10A62B0090C8CEE4F0A37402F07F207E2112B40513
:10A63B007B017AC7796F90C8CEE4F0A37402F07FE8
:10A64B00707E2312B4057B017AC7790B90C8CEE4D8
:10A65B00F0A37402F07F807E2312B4057B017AC8CD
:10A66B0079C390C8CAE4F0A304F07F087E8112AED0
:10A67B00E090C8C3E0FAA3E0FB7C007D0AFFAE02CA
:10A68B00129D077C007D0A129D0790C7C4ECF0A3B6
:10A69B00EDF07C007D0AAF03AE02129D0790C781DF
:10A6AB00ECF0A3EDF07B017AC779C490C8CEE4F04F
:10A6BB00A37402F07F907E2112B4057B017AC779D7
:10A6CB008190C8CEE4F0A37402F07F007E2212B416
:10A6DB00057B017AC879C390C8CAE4F0A304F07F64
:10A6EB000A7E8112AEE090C8C3E0FAA3E0FB7C00C7
:10A6FB007D0AFFAE02129D077C007D0A129D07901A
:10A70B00C7B2ECF0A3EDF07C007D0AAF03AE0212F2
:10A71B009D0790C742ECF0A3EDF07B017AC779C49B
:10A72B0090C8CEE4F0A37402F07F007E2312B40530
:10A73B007B017AC7798190C8CEE4F0A37402F07FD5
:0DA74B00107E2312B4057F737E9202E2346B
:0801000090C89DEEF0A3EFF0A2
:10010800E4A3F0A3F0A3F0A3F090C668E0600DE4C8
:10011800FF12E2E6EF6005E490C668F090C89DE043
:10012800FEA3E0FF64014E6006EF64024E70099082
:10013800C668E060030243AE7B017AC6797790C84F
:10014800CAE4F0A304F07F0C7E8012AEE090C6777C
:10015800A3E0FF7C0030E0047D0180027D0090C8B0
:10016800A3ECF0A3EDF0EF7E0030E1047F01800204
:100178007F0090C8A5EEF0A3EFF090C677A3E0FF4C
:100188007C0030E2047D0180027D0090C8B5ECF06F
:10019800A3EDF0EF7E0030E3047F0180027F009042
:1001A800C8B7EEF0A3EFF090C677A3E0FF7C00306D
:1001B800E4047D0180027D0090C8B9ECF0A3EDF065
:1001C800EF7E0030E7047F0180027F0090C8A7EE31
:1001D800F0A3EFF090C677E0FEEE7C0030E4047DFB
:1001E8000180027D0090C8A9ECF0A3EDF0EE7E003E
:1001F80030E0047F0180027F0090C8ABEEF0A3EFEF
:10020800F090C677A3E0FF7C0030E5047D01800212
:100218007D0090C8ADECF0A3EDF0EF7E0030E60471
:100228007F0180027F0090C8AFEEF0A3EFF090C688
:1002380077E0FEEE7C0030E1047D0180027D0090D5
:10024800C8B1ECF0A3EDF0EE7E0030E2047F01804F
:10025800027F0090C8B3EEF0A3EFF090C677E0FEFF
:10026800EE7C0030E3047D0180027D0090C8BBEC89
:10027800F0A3EDF0EE7E0030E5047F0180027F0000
:1002880090C8BDEEF0A3EFF090C8ADE07004A3E015
:040298006401700B82
:09029C0090C8BF74C0F0A37444C3
:1002A500801D90C8B1E07004A3E0640190C8BF70E0
:0102B5000840
:0602B6007405F0A3741CA6
:0202BC008006BA
:1002BE0074CEF0A37459F07B017AC879BF90C8CE82
:0C02CE00E4F0A304F07F237E1412B405BA
:0C02DA0090C8AFE07004A3E06401700B5A
:0902E60090C8BF74C0F0A3744479
:1002EF00801D90C8B3E07004A3E0640190C8BF7094
:0102FF0008F6
:060300007405F0A3741C5B
:0203060080066F
:1003080074CEF0A37459F07B017AC879BF90C8CE37
:0C031800E4F0A304F07F337E1412B4055F
:1003240090C8ABE07004A3E06401700F90C7BDE017
:10033400700912DD4B90C7BD7401F090C71CE0B486
:10034400182990C711E07002A3E0701F7B017AC7DF
:10035400792F90C8CAF0A304F07F067E8112AEE024
:1003640012D7C790C711E4F0A304F090C8A3E070BB
:1003740004A3E06401600302042C90C739E0700414
:10038400A3E06401600302042C90C726E0FF12E39B
:100394002D7B017AC879A190C8CAE4F0A304F07F48
:1003A400067E8112AEE090C8A1E0FAA3E0FB7C00D7
:1003B4007D3CFFAE02129D0790C76FEEF0A3EFF0F5
:1003C4007C007D3CAF03AE02129D0790C70BECF09E
:1003D400A3EDF07B017AC7796F90C8CEE4F0A30453
:1003E400F07F107E2112B4057B017AC7790B90C887
:1003F400CEE4F0A304F07F307E2112B405E490C66D
:100404006DF090C669F0A3F090C675F0A3F090C6A5
:100414006EF090C739F0A3F090C7BDF090C711F00B
:10042400A3F012E05A0204E590C8A7E07004A3E028
:100434006401602690C8AFE07004A3E06401601A10
:1004440090C8ADE07004A3E064017002800C90C811
:10045400ABE07004A3E06401703012D77190C73927
:10046400E4F0A304F090C71DE0FF12E32DE490C66E
:100474006DF090C669F0A3F090C675F0A3F090C635
:100484006EF090C735F0A3F0805790C8B3E07004C5
:10049400A3E06401600C90C8B1E07004A3E06401BF
:1004A400703F12D77190C716E0FF12E32D12E05A85
:1004B40090C72FE07004A3E06401700990C72FF087
:1004C400A3F012D7C7E490C66DF090C669F0A3F00C
:1004D40090C675F0A3F090C66EF090C739F0A304EF
:1004E400F090C89DE0FEA3E0FFEE60030243AEEF90
:1004F40024FE7003021C7B1470030234371470034F
:1005040002425B240360030243AE90C675E07004AC
:10051400A3E064016003021A1D90C800E0FEA3E09A
:1005240024B8F58274C73EF583E0FF90C71CE06FE2
:10053400600302077E90C66AE060030205EE90C77E
:1005440091E0FEA3E0FF90C89FEEF0A3EFF04E70A1
:100554000A90C791F0A37409F0800E90C792E0242A
:10056400FFF090C791E034FFF090C718E0FEA3E0DD
:10057400FF7C007D0A129CF5AA06AB0790C754E0E5
:10058400FEA3E0FF7D64129CF5EF2BFFEE3AFE9094
:10059400C792E02FFF90C791E03E90C8A1F0A3EF6F
:1005A400F090C806E0FEA3E0FF90C8A1E0FCA3E041
:1005B400FDD39FEC9E501190C803E0FEA3E0FFC35F
:1005C400ED9FEC9E4002800F90C89FE0FFA3E09057
:1005D400C791CFF0A3EFF07B017AC7799190C8CE91
:1005E400E4F0A304F07F7002193E90C66AE064014F
:1005F40060030206B690C718E0FEA3E0FF90C89F10
:10060400EEF0A3EFF04E700A90C718F0A37409F04F
:10061400800E90C719E024FFF090C718E034FFF073
:1006240090C718E0FEA3E0FF7C007D0A129CF5AAA7
:1006340006AB0790C754E0FEA3E0FF7D64129CF56F
:10064400EF2BFFEE3AFE90C792E02FFF90C791E0A8
:100654003E90C8A1F0A3EFF090C806E0FEA3E0FF2F
:1006640090C8A1E0FCA3E0FDD39FEC9E502290C86B
:1006740003E0FEA3E0FFC3ED9FEC9E40137B017AF1
:10068400C7791890C8CEE4F0A304F07F6002193E45
:1006940090C89FE0FFA3E090C718CFF0A3EFF07BD2
:1006A400017AC7791890C8CEE4F0A304F07F600201
:1006B400193E90C66AE06402600302342890C7546D
:1006C400E0FEA3E0FF90C89FEEF0A3EFF04E700AA7
:1006D40090C754F0A37402F0800E90C755E024FF35
:1006E400F090C754E034FFF090C718E0FEA3E0FF99
:1006F4007C007D0A129CF5AA06AB0790C754E0FE65
:10070400A3E0FF7D64129CF5EF2BFFEE3AFE90C749
:1007140092E02FFF90C791E03E90C8A1F0A3EFF0C4
:1007240090C806E0FEA3E0FF90C8A1E0FCA3E0FDB2
:10073400D39FEC9E502290C803E0FEA3E0FFC3EDDC
:100744009FEC9E40137B017AC7795490C8CEE4F0A5
:10075400A304F07F5002193E90C89FE0FFA3E090ED
:10076400C754CFF0A3EFF07B017AC7795490C8CE79
:10077400E4F0A304F07F5002193E90C800E0FEA309
:10078400E024C2F58274C73EF583E0FF90C71CE005
:100794006F60030208D690C66AE0600302083290D4
:1007A400C781E0FEA3E0FF90C89FEEF0A3EFF04EF8
:1007B400700A90C781F0A37409F0800E90C782E09C
:1007C40024FFF090C781E034FFF090C7C4E0FEA39B
:1007D400E0FF7C007D0A129CF590C782E02FFF9019
:1007E400C781E03E90C8A1F0A3EFF090C8A1E0FE5D
:1007F400A3E0FFD39450EE9400501BEF9400EE94CA
:100804000040137B017AC7798190C8CEE4F0A30439
:10081400F07F0002193E90C89FE0FFA3E090C781DB
:10082400CFF0A3EFF07B017AC7798102099590C6D6
:100834006AE06401600302342890C7C4E0FEA3E0C8
:10084400FF90C89FEEF0A3EFF04E700A90C7C4F07B
:10085400A37408F0800E90C7C5E024FFF090C7C4CD
:10086400E034FFF090C7C4E0FEA3E0FF7C007D0A03
:10087400129CF590C782E02FFF90C781E03E90C89C
:10088400A1F0A3EFF090C8A1E0FEA3E0FFD3945041
:10089400EE9400501BEF9400EE940040137B017A19
:1008A400C779C490C8CEE4F0A304F07F9002193E47
:1008B40090C89FE0FFA3E090C7C4CFF0A3EFF07B04
:1008C400017AC779C490C8CEE4F0A304F07F900203
:1008D400193E90C727E0FF90C71CE06F6003020B2E
:1008E4003090C66AE060030209A290C66FE0FEA3DE
:1008F400E0FF90C89FEEF0A3EFF04E700A90C66F31
:10090400F0A37402F0800E90C670E024FFF090C64D
:100914006FE034FFF090C671E0FEA3E0FF7C007D41
:100924000A129CF5AA06AB0790C66FE0FEA3E0FF8F
:100934007D64129CF5EF2BFFEE3AFE90C674E02F17
:10094400FF90C673E03E90C8A1F0A3EFF090C8A159
:10095400E0FEA3E0FFD39432EE9400501FEF940026
:10096400EE9400401790C66FE0FFA3E090C7A4CFB9
:10097400F0A3EFF07B017AC6796F801590C89FE0F1
:10098400FFA3E090C66FCFF0A3EFF07B017AC679A6
:100994006F90C8CEE4F0A304F07F00020D9E90C6D1
:1009A4006AE064016003020A6C90C671E0FEA3E091
:1009B400FF90C89FEEF0A3EFF04E700A90C671F05E
:1009C400A37405F0800E90C672E024FFF090C67107
:1009D400E034FFF090C671E0FEA3E0FF7C007D0AE6
:1009E400129CF5AA06AB0790C66FE0FEA3E0FF7D5C
:1009F40064129CF5EF2BFFEE3AFE90C674E02FFFD5
:100A040090C673E03E90C8A1F0A3EFF090C8A1E0B7
:100A1400FEA3E0FFD39432EE9400502AEF9400EE4C
:100A24009400402290C671E0FFA3E090C75BCFF032
:100A3400A3EFF07B017AC6797190C8CEE4F0A304E9
:100A4400F07F10020D9E90C89FE0FFA3E090C67156
:100A5400CFF0A3EFF07B017AC6797190C8CEE4F0B1
:100A6400A304F07F10020D9E90C66AE06402600346
:100A740002342890C673E0FEA3E0FF90C89FEEF016
:100A8400A3EFF04E700A90C673F0A37409F0800EC1
:100A940090C674E024FFF090C673E034FFF090C673
:100AA40071E0FEA3E0FF7C007D0A129CF5AA06AB70
:100AB4000790C66FE0FEA3E0FF7D64129CF5EF2B68
:100AC400FFEE3AFE90C673E0FCA3E0FD2FFFEC3E80
:100AD40090C8A1F0A3EFF090C8A1E0FEA3E0FFD37B
:100AE4009432EE94005023EF9400EE9400401B9057
:100AF400C748ECF0A3EDF07B017AC6797390C8CEB9
:100B0400E4F0A304F07F20020D9E90C89FE0FFA3B1
:100B1400E090C673CFF0A3EFF07B017AC6797390AF
:100B2400C8CEE4F0A304F07F20020D9E90C800E03C
:100B3400FEA3E0249DF58274C73EF583E0FF90C7D1
:100B44001CE06F6003020DA390C66AE06003020C10
:100B54001290C77DE0FEA3E0FF90C89FEEF0A3EFE4
:100B6400F04E700A90C77DF0A37409F0800E90C710
:100B74007EE024FFF090C77DE034FFF090C7C0E032
:100B8400FEA3E0FF7C007D0A129CF5AA06AB079049
:100B9400C733E0FEA3E0FF7D64129CF5EF2BFFEE6C
:100BA4003AFE90C77EE02FFF90C77DE03E90C8A13B
:100BB400F0A3EFF090C7FEE0FEA3E0FF90C8A1E031
:100BC400FCA3E0FDD39FEC9E502290C7F9E0FEA366
:100BD400E0FFC3ED9FEC9E40137B017AC7797D90C3
:100BE400C8CEE4F0A304F07F80020D9E90C89FE07D
:100BF400FFA3E090C77DCFF0A3EFF07B017AC77924
:100C04007D90C8CEE4F0A304F07F80020D9E90C6D0
:100C14006AE064016003020CDA90C7C0E0FEA3E05E
:100C2400FF90C89FEEF0A3EFF04E700A90C7C0F09B
:100C3400A37409F0800E90C7C1E024FFF090C7C0F0
:100C4400E034FFF090C7C0E0FEA3E0FF7C007D0A23
:100C5400129CF5AA06AB0790C733E0FEA3E0FF7D24
:100C640064129CF5EF2BFFEE3AFE90C77EE02FFF57
:100C740090C77DE03E90C8A1F0A3EFF090C7FEE0DE
:100C8400FEA3E0FF90C8A1E0FCA3E0FDD39FEC9E8F
:100C9400502290C7F9E0FEA3E0FFC3ED9FEC9E4015
:100CA400137B017AC779C090C8CEE4F0A304F07F27
:100CB40070020D9E90C89FE0FFA3E090C7C0CFF0E4
:100CC400A3EFF07B017AC779C090C8CEE4F0A30407
:100CD400F07F70020D9E90C66AE0640260030234E5
:100CE4002890C733E0FEA3E0FF90C89FEEF0A3EF87
:100CF400F04E700A90C733F0A37402F0800E90C7D0
:100D040034E024FFF090C733E034FFF090C7C0E034
:100D1400FEA3E0FF7C007D0A129CF5AA06AB0790B7
:100D2400C733E0FEA3E0FF7D64129CF5EF2BFFEEDA
:100D34003AFE90C77EE02FFF90C77DE03E90C8A1A9
:100D4400F0A3EFF090C7FEE0FEA3E0FF90C8A1E09F
:100D5400FCA3E0FDD39FEC9E502190C7F9E0FEA3D5
:100D6400E0FFC3ED9FEC9E40127B017AC77933907C
:100D7400C8CEE4F0A304F07F60801F90C89FE0FF1A
:100D8400A3E090C733CFF0A3EFF07B017AC77933A8
:100D940090C8CEE4F0A304F07F607E22021A17907C
:100DA400C800E0FEA3E024B6F58274C73EF583E0F4
:100DB400FF90C71CE06F6003020F0D90C66AE060ED
:100DC40003020E6590C742E0FEA3E0FF90C89FEEC9
:100DD400F0A3EFF04E700A90C742F0A37409F080BC
:100DE4000E90C743E024FFF090C742E034FFF09038
:100DF400C7B2E0FEA3E0FF7C007D0A129CF590C719
:100E040043E02FFF90C742E03E90C8A1F0A3EFF06B
:100E140090C8A1E0FEA3E0FFD39450EE9400501DCF
:100E2400EF9400EE940040157B017AC7794290C894
:100E3400CEE4F0A304F07F107E23021A1790C89F1B
:100E4400E0FFA3E090C742CFF0A3EFF07B017AC7A5
:100E5400794290C8CEE4F0A304F07F107E23021AF6
:100E64001790C66AE06401600302342890C7B2E0B8
:100E7400FEA3E0FF90C89FEEF0A3EFF04E700A903F
:100E8400C7B2F0A37408F0800E90C7B3E024FFF05B
:100E940090C7B2E034FFF090C7B2E0FEA3E0FF7C5D
:100EA400007D0A129CF590C743E02FFF90C742E0F3
:100EB4003E90C8A1F0A3EFF090C8A1E0FEA3E0FF2C
:100EC400D39450EE9400501DEF9400EE940040151E
:100ED4007B017AC779B290C8CEE4F0A304F07F0016
:100EE4007E23021A1790C89FE0FFA3E090C7B2CFF9
:100EF400F0A3EFF07B017AC779B290C8CEE4F0A3F7
:100F040004F07F007E23021A1790C717E0FF90C7F2
:100F14001CE06F600302117E90C66AE06003020F5A
:100F2400E890C66FE0FEA3E0FF90C89FEEF0A3EF49
:100F3400F064024E700890C66FF0A3F0800E90C665
:100F440070E024FFF090C66FE034FFF090C671E0CB
:100F5400FEA3E0FF7C007D0A129CF5AA06AB079075
:100F6400C66FE0FEA3E0FF7D64129CF5EF2BFFEE5D
:100F74003AFE90C674E02FFF90C673E03E90C8A17D
:100F8400F0A3EFF090C8A1E0FEA3E0FFD39432EE0B
:100F94009400502CEF9400EE9400402490C66FE02F
:100FA400FFA3E090C7AACFF0A3EFF07B017AC67944
:100FB4006F90C8CEE4F0A304F07F007E25021A17D8
:100FC40090C89FE0FFA3E090C66FCFF0A3EFF07B43
:100FD400017AC6796F90C8CEE4F0A304F07F007E56
:100FE40025021A1790C66AE0640160030210B690E5
:100FF400C671E0FEA3E0FF90C89FEEF0A3EFF04EB1
:10100400700A90C671F0A37405F0800E90C672E069
:1010140024FFF090C671E034FFF090C671E0FEA3A7
:10102400E0FF7C007D0A129CF5AA06AB0790C66F10
:10103400E0FEA3E0FF7D64129CF5EF2BFFEE3AFE89
:1010440090C674E02FFF90C673E03E90C8A1F0A351
:10105400EFF090C8A1E0FEA3E0FFD39432EE940039
:10106400502CEF9400EE9400402490C671E0FFA34E
:10107400E090C761CFF0A3EFF07B017AC67971905D
:10108400C8CEE4F0A304F07F107E25021A1790C89E
:101094009FE0FFA3E090C671CFF0A3EFF07B017A4D
:1010A400C6797190C8CEE4F0A304F07F107E2502C7
:1010B4001A1790C66AE06402600302342890C6736B
:1010C400E0FEA3E0FF90C89FEEF0A3EFF04E700A9D
:1010D40090C673F0A37409F0800E90C674E024FFE8
:1010E400F090C673E034FFF090C671E0FEA3E0FF19
:1010F4007C007D0A129CF5AA06AB0790C66FE0FE41
:10110400A3E0FF7D64129CF5EF2BFFEE3AFE90C640
:1011140073E0FCA3E0FD2FFFEC3E90C8A1F0A3EF29
:10112400F090C8A1E0FEA3E0FFD39432EE94005007
:1011340025EF9400EE9400401D90C74EECF0A3ED13
:10114400F07B017AC6797390C8CEE4F0A304F07FF3
:10115400207E25021A1790C89FE0FFA3E090C67373
:10116400CFF0A3EFF07B017AC6797390C8CEE4F098
:10117400A304F07F207E25021A1790C800E0FEA386
:10118400E024B0F58274C73EF583E0FF90C71CE00D
:101194006F600302131390C66AE0600302125F904B
:1011A400C76FE0FEA3E0FF90C89FEEF0A3EFF04E00
:1011B400701D90C70BE07002A3E090C76F6008E455
:1011C400F0A3743BF08016E4F0A3743CF0800E901E
:1011D400C770E024FFF090C76FE034FFF090C76F52
:1011E400E0FEA3E0FF7C007D3C129CF590C70CE080
:1011F4002FFF90C70BE03E90C8A1F0A3EFF090C87A
:101204000BE0FEA3E0FF90C8A1E0FCA3E0FDD39FA8
:10121400EC9E502390C809E0FEA3E0FFED9FEC9EF6
:1012240040157B017AC7796F90C8CEE4F0A304F02F
:101234007F707E23021A1790C89FE0FFA3E090C737
:101244006FCFF0A3EFF07B017AC7796F90C8CEE43B
:10125400F0A304F07F707E23021A1790C66AE0643C
:1012640001600302342890C70BE0FEA3E0FF90C89E
:101274009FEEF0A3EFF04E700A90C70BF0A3743BFF
:10128400F0800E90C70CE024FFF090C70BE034FF11
:10129400F090C76FE0FEA3E0FF7C007D3C129CF55C
:1012A40090C70CE02FFF90C70BE03E90C8A1F0A3BD
:1012B400EFF090C80BE0FEA3E0FF90C8A1E0FCA310
:1012C400E0FDD39FEC9E502390C809E0FEA3E0FF0D
:1012D400ED9FEC9E40157B017AC7790B90C8CEE454
:1012E400F0A304F07F807E23021A1790C89FE0FFCA
:1012F400A3E090C70BCFF0A3EFF07B017AC7790B83
:1013040090C8CEE4F0A304F07F807E23021A1790E5
:10131400C800E0FEA3E02487F58274C73EF583E0AD
:10132400FF90C71CE06F704290C66AE0600302340D
:101334002890C839E0FEA3E0FFD390C73CE09F901B
:10134400C73BE09E5003023428A3E024FFF090C77B
:101354003BE034FFF07B017AC7793B90C8CEE4F0E0
:10136400A304F07F007E24021A1790C713E0FF90B5
:10137400C71CE06F600302342890C66EE06401600D
:10138400030215EA90C66AE0600302145290C79102
:10139400E0FEA3E0FF90C89FEEF0A3EFF04E700ACA
:1013A40090C791F0A37409F0800E90C792E024FFD7
:1013B400F090C791E034FFF090C718E0FEA3E0FF7F
:1013C4007C007D0A129CF5AA06AB0790C754E0FE88
:1013D400A3E0FF7D64129CF5EF2BFFEE3AFE90C76D
:1013E40092E02FFF90C791E03E90C8A1F0A3EFF0E8
:1013F40090C806E0FEA3E0FF90C8A1E0FCA3E0FDD6
:10140400D39FEC9E502490C803E0FEA3E0FFC3EDFD
:101414009FEC9E40157B017AC7799190C8CEE4F089
:10142400A304F07F307E20021A1790C89FE0FFA328
:10143400E090C791CFF0A3EFF07B017AC779919048
:10144400C8CEE4F0A304F07F307E20021A1790C6C1
:101454006AE06401600302151E90C718E0FEA3E071
:10146400FF90C89FEEF0A3EFF04E700A90C718F0FB
:10147400A37409F0800E90C719E024FFF090C718F8
:10148400E034FFF090C718E0FEA3E0FF7C007D0A83
:10149400129CF5AA06AB0790C754E0FEA3E0FF7DBB
:1014A40064129CF5EF2BFFEE3AFE90C792E02FFFFB
:1014B40090C791E03E90C8A1F0A3EFF090C806E079
:1014C400FEA3E0FF90C8A1E0FCA3E0FDD39FEC9E47
:1014D400502490C803E0FEA3E0FFC3ED9FEC9E40C0
:1014E400157B017AC7791890C8CEE4F0A304F07F85
:1014F400107E20021A1790C89FE0FFA3E090C7183F
:10150400CFF0A3EFF07B017AC7791890C8CEE4F04E
:10151400A304F07F107E20021A1790C66AE06402CA
:10152400600302342890C754E0FEA3E0FF90C89FF4
:10153400EEF0A3EFF04E700A90C754F0A37402F0DB
:10154400800E90C755E024FFF090C754E034FFF0BC
:1015540090C718E0FEA3E0FF7C007D0A129CF5AA68
:1015640006AB0790C754E0FEA3E0FF7D64129CF530
:10157400EF2BFFEE3AFE90C792E02FFF90C791E069
:101584003E90C8A1F0A3EFF090C806E0FEA3E0FFF0
:1015940090C8A1E0FCA3E0FDD39FEC9E502490C82A
:1015A40003E0FEA3E0FFC3ED9FEC9E40157B017AB0
:1015B400C7795490C8CEE4F0A304F07F007E2002E3
:1015C4001A1790C89FE0FFA3E090C754CFF0A3EF91
:1015D400F07B017AC7795490C8CEE4F0A304F07F7D
:1015E400007E20021A1790C66EE0B4023990C83902
:1015F400E0FEA3E0FFD390C73CE09F90C73BE09E92
:101604005003023428A3E024FFF090C73BE034FFEA
:10161400F07B017AC7793B90C8CEE4F0A304F07F55
:10162400507E20021A1790C66EE06403600302180D
:101634009790C66AE060030216FF90C77DE0FEA3A0
:10164400E0FF90C89FEEF0A3EFF04E700A90C77DC4
:10165400F0A37409F0800E90C77EE024FFF090C7D9
:101664007DE034FFF090C7C0E0FEA3E0FF7C007D86
:101674000A129CF5AA06AB0790C733E0FEA3E0FF6D
:101684007D64129CF5EF2BFFEE3AFE90C77EE02FAF
:10169400FF90C77DE03E90C8A1F0A3EFF090C7FE95
:1016A400E0FEA3E0FF90C8A1E0FCA3E0FDD39FEC23
:1016B4009E502490C7F9E0FEA3E0FFC3ED9FEC9E8B
:1016C40040157B017AC7797D90C8CEE4F0A304F07D
:1016D4007F807E20021A1790C89FE0FFA3E090C786
:1016E4007DCFF0A3EFF07B017AC7797D90C8CEE47B
:1016F400F0A304F07F807E20021A1790C66AE0648B
:101704000160030217CB90C7C0E0FEA3E0FF90C8BE
:101714009FEEF0A3EFF04E700A90C7C0F0A37409D7
:10172400F0800E90C7C1E024FFF090C7C0E034FF02
:10173400F090C7C0E0FEA3E0FF7C007D0A129CF598
:10174400AA06AB0790C733E0FEA3E0FF7D64129CBA
:10175400F5EF2BFFEE3AFE90C77EE02FFF90C77D9A
:10176400E03E90C8A1F0A3EFF090C7FEE0FEA3E036
:10177400FF90C8A1E0FCA3E0FDD39FEC9E50249011
:10178400C7F9E0FEA3E0FFC3ED9FEC9E40157B018B
:101794007AC779C090C8CEE4F0A304F07F707E20AD
:1017A400021A1790C89FE0FFA3E090C7C0CFF0A330
:1017B400EFF07B017AC779C090C8CEE4F0A304F0BF
:1017C4007F707E20021A1790C66AE06402600302EA
:1017D400342890C733E0FEA3E0FF90C89FEEF0A347
:1017E400EFF04E700A90C733F0A37402F0800E90AD
:1017F400C734E024FFF090C733E034FFF090C7C053
:10180400E0FEA3E0FF7C007D0A129CF5AA06AB076C
:1018140090C733E0FEA3E0FF7D64129CF5EF2BFF3D
:10182400EE3AFE90C77EE02FFF90C77DE03E90C861
:10183400A1F0A3EFF090C7FEE0FEA3E0FF90C8A1E3
:10184400E0FCA3E0FDD39FEC9E502490C7F9E0FE9A
:10185400A3E0FFC3ED9FEC9E40157B017AC779336B
:1018640090C8CEE4F0A304F07F607E20021A1790A3
:10187400C89FE0FFA3E090C733CFF0A3EFF07B0154
:101884007AC7793390C8CEE4F0A304F07F607E2059
:10189400021A1790C66EE06404600302342890C6EE
:1018A4006AE0600302196790C76FE0FEA3E0FF904F
:1018B400C89FEEF0A3EFF04E701D90C70BE07002CE
:1018C400A3E090C76F6008E4F0A3743BF08016E4D3
:1018D400F0A3743CF0800E90C770E024FFF090C732
:1018E4006FE034FFF090C76FE0FEA3E0FF7C007D63
:1018F4003C129CF590C70CE02FFF90C70BE03E9084
:10190400C8A1F0A3EFF090C80BE0FEA3E0FF90C8DD
:10191400A1E0FCA3E0FDD39FEC9E502390C809E016
:10192400FEA3E0FFED9FEC9E40157B017AC7796F23
:1019340090C8CEE4F0A304F07F107E21021A179021
:10194400C89FE0FFA3E090C76FCFF0A3EFF07B0147
:101954007AC7796F90C8CEE4F0A304F07F107E219B
:10196400021A1790C66AE06401600302342890C723
:101974000BE0FEA3E0FF90C89FEEF0A3EFF04E70E3
:101984000A90C70BF0A3743BF0800E90C70CE024C0
:10199400FFF090C70BE034FFF090C76FE0FEA3E0C8
:1019A400FF7C007D3C129CF590C70CE02FFF90C794
:1019B4000BE03E90C8A1F0A3EFF090C80BE0FEA3AB
:1019C400E0FF90C8A1E0FCA3E0FDD39FEC9E502271
:1019D40090C809E0FEA3E0FFED9FEC9E40147B015C
:1019E4007AC7790B90C8CEE4F0A304F07F307E214F
:1019F400802190C89FE0FFA3E090C70BCFF0A3EF36
:101A0400F07B017AC7790B90C8CEE4F0A304F07F91
:101A1400307E2112B40502342890C66DE064017052
:101A24002890C675E07002A3E0600302342812D740
:101A34007190C66EE0B401057404F0800690C66E21
:101A4400E014F012D00C02342890C800E0FEA3E0A9
:101A5400FF248DF58274C73EF583E0FD90C71CE03A
:101A6400FCD39D4013749B2FF58274C73EF583E02D
:101A7400FFECD39F5002807090C800E0FEA3E0FF0B
:101A8400248DF58274C73EF583E0FD90C71CE0B554
:101A94000512749B2FF58274C73EF583E0FF90C74F
:101AA4001CF0804C90C66BE06401704990C756E00E
:101AB400FF90C71CE0B5071290C800E0FEA3E02425
:101AC40031F58274C73EF583807590C800E0FEA3AB
:101AD400E0242AF58274C73EF583E0FF90C71CE03A
:101AE400B5070590C756805790C71CE014F0E0FF77
:101AF40012DE4B807190C66CE06401704990C8009E
:101B0400E0FEA3E0241AF58274C73EF583E0FF905B
:101B1400C71CE0B5070590C756802490C756E0FF60
:101B240090C71CE0B5071290C800E0FEA3E024288B
:101B3400F58274C73EF583800690C71CE014F0E07C
:101B4400FF12E32D802090C800E0FEA3E02437F5C7
:101B54008274C73EF583E0FF90C71CE0B507077F9A
:101B6400017E0012DF9090C800E0FEA3E02424F57B
:101B74008274C73EF583E0FF90C71CE0B5070E9062
:101B8400C89DE0FEA3E0FF1283D502342890C8006C
:101B9400E0FEA3E0247FF58274C73EF583E0FF9066
:101BA400C71CE0B5070E90C89DE0FEA3E0FF12C27B
:101BB4002B02342890C800E0FEA3E0248BF5827445
:101BC400C73EF583E0FF90C71CE0B5070E90C89DA3
:101BD400E0FEA3E0FF12C10E02342890C800E0FE2C
:101BE400A3E0246BF58274C73EF583E0FF90C71C25
:101BF400E0B5070E90C89DE0FEA3E0FF12CDCA0237
:101C0400342890C800E0FEA3E02440F58274C73E67
:101C1400F583E0FF90C71CE0B5070E90C89DE0FE79
:101C2400A3E0FF12D19B02342890C800E0FEA3E099
:101C3400240FF58274C73EF583E0FF90C71CE0B51E
:101C4400070E90C89DE0FEA3E0FF128ACF0234285D
:101C540090C800E0FEA3E02489F58274C73EF583B2
:101C6400E0FF90C71CE0B5070B90C89DE0FEA3E021
:101C7400FF12BBB502342890C675E07004A3E0647B
:101C84000160030231B590C800E0FEA3E024B8F57A
:101C94008274C73EF583E0FF90C71CE06F600302C7
:101CA4001EEE90C66AE06003021D5C90C791E0FEE0
:101CB400A3E0FF90C89FEEF0A3EFF064094E60101C
:101CC40090C792E004F0700F90C791E004F0800791
:101CD400E490C791F0A3F090C718E0FEA3E0FF7C66
:101CE400007D0A129CF5AA06AB0790C754E0FEA338
:101CF400E0FF7D64129CF5EF2BFFEE3AFE90C79255
:101D0400E02FFF90C791E03E90C8A1F0A3EFF090C0
:101D1400C806E0FEA3E0FF90C8A1E0FCA3E0FDD369
:101D24009FEC9E501190C803E0FEA3E0FFC3ED9F1B
:101D3400EC9E4002800F90C89FE0FFA3E090C79103
:101D4400CFF0A3EFF07B017AC7799190C8CEE4F08D
:101D5400A304F07F700230D590C66AE0640160038A
:101D6400021E2590C718E0FEA3E0FF90C89FEEF086
:101D7400A3EFF064094E601090C719E004F0700FEF
:101D840090C718E004F08007E490C718F0A3F0901F
:101D9400C718E0FEA3E0FF7C007D0A129CF5AA06AA
:101DA400AB0790C754E0FEA3E0FF7D64129CF5EFFF
:101DB4002BFFEE3AFE90C792E02FFF90C791E03ED2
:101DC40090C8A1F0A3EFF090C806E0FEA3E0FF9056
:101DD400C8A1E0FCA3E0FDD39FEC9E502290C80371
:101DE400E0FEA3E0FFC3ED9FEC9E40137B017AC7A6
:101DF400791890C8CEE4F0A304F07F600230D59047
:101E0400C89FE0FFA3E090C718CFF0A3EFF07B01D9
:101E14007AC7791890C8CEE4F0A304F07F6002304A
:101E2400D590C66AE06402600302342890C754E087
:101E3400FEA3E0FF90C89FEEF0A3EFF064024E60B3
:101E44001090C755E004F0700F90C754E004F08080
:101E540007E490C754F0A3F090C718E0FEA3E0FF96
:101E64007C007D0A129CF5AA06AB0790C754E0FEDD
:101E7400A3E0FF7D64129CF5EF2BFFEE3AFE90C7C2
:101E840092E02FFF90C791E03E90C8A1F0A3EFF03D
:101E940090C806E0FEA3E0FF90C8A1E0FCA3E0FD2B
:101EA400D39FEC9E502290C803E0FEA3E0FFC3ED55
:101EB4009FEC9E40137B017AC7795490C8CEE4F01E
:101EC400A304F07F500230D590C89FE0FFA3E090B8
:101ED400C754CFF0A3EFF07B017AC7795490C8CEF2
:101EE400E4F0A304F07F500230D590C800E0FEA3D4
:101EF400E024C2F58274C73EF583E0FF90C71CE07E
:101F04006F600302203690C66AE06003021F92905D
:101F1400C781E0FEA3E0FF90C89FEEF0A3EFF0645A
:101F2400094E601090C782E004F0700F90C781E002
:101F340004F08007E490C781F0A3F090C7C4E0FEEA
:101F4400A3E0FF7C007D0A129CF590C782E02FFF7E
:101F540090C781E03E90C8A1F0A3EFF090C8A1E043
:101F6400FEA3E0FFD39450EE9400500AEF9400EEE9
:101F740094004002800F90C89FE0FFA3E090C781C7
:101F8400CFF0A3EFF07B017AC779810220F590C6E8
:101F94006AE06401600302342890C7C4E0FEA3E051
:101FA400FF90C89FEEF0A3EFF064084E700890C74E
:101FB400C4F0A3F0800E90C7C5E004F0700690C78B
:101FC400C4E004F090C7C4E0FEA3E0FF7C007D0AF7
:101FD400129CF590C782E02FFF90C781E03E90C825
:101FE400A1F0A3EFF090C8A1E0FEA3E0FFD39450CA
:101FF400EE9400501BEF9400EE940040137B017AA2
:10200400C779C490C8CEE4F0A304F07F900230D521
:1020140090C89FE0FFA3E090C7C4CFF0A3EFF07B8C
:10202400017AC779C490C8CEE4F0A304F07F90028B
:1020340030D590C727E0FF90C71CE06F60030222F1
:102044009090C66AE0600302210290C66FE0FEA38E
:10205400E0FF90C89FEEF0A3EFF064094E70089083
:10206400C66FF0A3F0800E90C670E004F070069086
:10207400C66FE004F090C671E0FEA3E0FF7C007D33
:102084000A129CF5AA06AB0790C66FE0FEA3E0FF18
:102094007D64129CF5EF2BFFEE3AFE90C674E02FA0
:1020A400FF90C673E03E90C8A1F0A3EFF090C8A1E2
:1020B400E0FEA3E0FFD39432EE9400501FEF9400AF
:1020C400EE9400401790C66FE0FFA3E090C7A4CF42
:1020D400F0A3EFF07B017AC6796F801590C89FE07A
:1020E400FFA3E090C66FCFF0A3EFF07B017AC6792F
:1020F4006F90C8CEE4F0A304F07F0002250190C6DF
:102104006AE0640160030221CC90C671E0FEA3E0A2
:10211400FF90C89FEEF0A3EFF064054E700890C6E0
:1021240071F0A3F0800E90C672E004F0700690C6C1
:1021340071E004F090C671E0FEA3E0FF7C007D0A2C
:10214400129CF5AA06AB0790C66FE0FEA3E0FF7DE4
:1021540064129CF5EF2BFFEE3AFE90C674E02FFF5D
:1021640090C673E03E90C8A1F0A3EFF090C8A1E040
:10217400FEA3E0FFD39432EE9400502AEF9400EED5
:102184009400402290C671E0FFA3E090C75BCFF0BB
:10219400A3EFF07B017AC6797190C8CEE4F0A30472
:1021A400F07F1002250190C89FE0FFA3E090C67164
:1021B400CFF0A3EFF07B017AC6797190C8CEE4F03A
:1021C400A304F07F1002250190C66AE06402600354
:1021D40002342890C673E0FEA3E0FF90C89FEEF09F
:1021E400A3EFF064094E700890C673F0A3F0800E5C
:1021F40090C674E004F0700690C673E004F090C6D4
:1022040071E0FEA3E0FF7C007D0A129CF5AA06ABF8
:102214000790C66FE0FEA3E0FF7D64129CF5EF2BF0
:10222400FFEE3AFE90C673E0FCA3E0FD2FFFEC3E08
:1022340090C8A1F0A3EFF090C8A1E0FEA3E0FFD303
:102244009432EE94005023EF9400EE9400401B90DF
:10225400C748ECF0A3EDF07B017AC6797390C8CE41
:10226400E4F0A304F07F2002250190C89FE0FFA3BF
:10227400E090C673CFF0A3EFF07B017AC679739038
:10228400C8CEE4F0A304F07F2002250190C800E04A
:10229400FEA3E0249DF58274C73EF583E0FF90C75A
:1022A4001CE06F600302250690C66AE06003022307
:1022B4007390C77DE0FEA3E0FF90C89FEEF0A3EF0C
:1022C400F064094E601090C77EE004F0700F90C770
:1022D4007DE004F08007E490C77DF0A3F090C7C0D0
:1022E400E0FEA3E0FF7C007D0A129CF5AA06AB0782
:1022F40090C733E0FEA3E0FF7D64129CF5EF2BFF53
:10230400EE3AFE90C77EE02FFF90C77DE03E90C876
:10231400A1F0A3EFF090C7FEE0FEA3E0FF90C8A1F8
:10232400E0FCA3E0FDD39FEC9E502290C7F9E0FEB1
:10233400A3E0FFC3ED9FEC9E40137B017AC7797D38
:1023440090C8CEE4F0A304F07F8002250190C89FDA
:10235400E0FFA3E090C77DCFF0A3EFF07B017AC745
:10236400797D90C8CEE4F0A304F07F80022501902B
:10237400C66AE06401600302243C90C7C0E0FEA387
:10238400E0FF90C89FEEF0A3EFF064094E60109058
:10239400C7C1E004F0700F90C7C0E004F08007E408
:1023A40090C7C0F0A3F090C7C0E0FEA3E0FF7C009C
:1023B4007D0A129CF5AA06AB0790C733E0FEA3E0A2
:1023C400FF7D64129CF5EF2BFFEE3AFE90C77EE092
:1023D4002FFF90C77DE03E90C8A1F0A3EFF090C717
:1023E400FEE0FEA3E0FF90C8A1E0FCA3E0FDD39FC4
:1023F400EC9E502290C7F9E0FEA3E0FFC3ED9FECF2
:102404009E40137B017AC779C090C8CEE4F0A30440
:10241400F07F7002250190C89FE0FFA3E090C7C041
:10242400CFF0A3EFF07B017AC779C090C8CEE4F077
:10243400A304F07F7002250190C66AE06402600381
:1024440002342890C733E0FEA3E0FF90C89FEEF06B
:10245400A3EFF064024E601090C734E004F0700FF4
:1024640090C733E004F08007E490C733F0A3F09002
:10247400C7C0E0FEA3E0FF7C007D0A129CF5AA061B
:10248400AB0790C733E0FEA3E0FF7D64129CF5EF39
:102494002BFFEE3AFE90C77EE02FFF90C77DE03E13
:1024A40090C8A1F0A3EFF090C7FEE0FEA3E0FF9078
:1024B400C8A1E0FCA3E0FDD39FEC9E502190C7F996
:1024C400E0FEA3E0FFC3ED9FEC9E40127B017AC7C0
:1024D400793390C8CEE4F0A304F07F60801F90C8E5
:1024E4009FE0FFA3E090C733CFF0A3EFF07B017A26
:1024F400C7793390C8CEE4F0A304F07F607E220253
:1025040031AF90C800E0FEA3E024B6F58274C73E64
:10251400F583E0FF90C71CE06F600302267090C64D
:102524006AE060030225C890C742E0FEA3E0FF9082
:10253400C89FEEF0A3EFF064094E700890C742F014
:10254400A3F0800E90C743E004F0700690C742E009
:1025540004F090C7B2E0FEA3E0FF7C007D0A129C69
:10256400F590C743E02FFF90C742E03E90C8A1F02A
:10257400A3EFF090C8A1E0FEA3E0FFD39450EE9443
:1025840000501DEF9400EE940040157B017AC7794A
:102594004290C8CEE4F0A304F07F107E230231AF52
:1025A40090C89FE0FFA3E090C742CFF0A3EFF07B79
:1025B400017AC7794290C8CEE4F0A304F07F107E7C
:1025C400230231AF90C66AE06401600302342890AC
:1025D400C7B2E0FEA3E0FF90C89FEEF0A3EFF06463
:1025E400084E700890C7B2F0A3F0800E90C7B3E015
:1025F40004F0700690C7B2E004F090C7B2E0FEA306
:10260400E0FF7C007D0A129CF590C743E02FFF9009
:10261400C742E03E90C8A1F0A3EFF090C8A1E0FE4D
:10262400A3E0FFD39450EE9400501DEF9400EE9479
:102634000040157B017AC779B290C8CEE4F0A304B8
:10264400F07F007E230231AF90C89FE0FFA3E090AB
:10265400C7B2CFF0A3EFF07B017AC779B290C8CEAE
:10266400E4F0A304F07F007E230231AF90C717E0AB
:10267400FF90C71CE06F60030228E190C66AE06027
:102684000302274B90C66FE0FEA3E0FF90C89FEEC5
:10269400F0A3EFF064094E700890C66FF0A3F080C9
:1026A4000E90C670E004F0700690C66FE004F090DF
:1026B400C671E0FEA3E0FF7C007D0A129CF5AA0629
:1026C400AB0790C66FE0FEA3E0FF7D64129CF5EFBC
:1026D4002BFFEE3AFE90C674E02FFF90C673E03EE7
:1026E40090C8A1F0A3EFF090C8A1E0FEA3E0FFD34F
:1026F4009432EE9400502CEF9400EE940040249019
:10270400C66FE0FFA3E090C7AACFF0A3EFF07B0170
:102714007AC6796F90C8CEE4F0A304F07F007E25DA
:102724000231AF90C89FE0FFA3E090C66FCFF0A343
:10273400EFF07B017AC6796F90C8CEE4F0A304F081
:102744007F007E250231AF90C66AE0640160030217
:10275400281990C671E0FEA3E0FF90C89FEEF0A395
:10276400EFF064054E700890C671F0A3F0800E90EF
:10277400C672E004F0700690C671E004F090C67171
:10278400E0FEA3E0FF7C007D0A129CF5AA06AB07DD
:1027940090C66FE0FEA3E0FF7D64129CF5EF2BFF73
:1027A400EE3AFE90C674E02FFF90C673E03E90C8E8
:1027B400A1F0A3EFF090C8A1E0FEA3E0FFD3943210
:1027C400EE9400502CEF9400EE9400402490C671D7
:1027D400E0FFA3E090C761CFF0A3EFF07B017AC6DE
:1027E400797190C8CEE4F0A304F07F107E25023105
:1027F400AF90C89FE0FFA3E090C671CFF0A3EFF0C5
:102804007B017AC6797190C8CEE4F0A304F07F10FE
:102814007E250231AF90C66AE06402600302342868
:1028240090C673E0FEA3E0FF90C89FEEF0A3EFF024
:1028340064094E700890C673F0A3F0800E90C674BD
:10284400E004F0700690C673E004F090C671E0FEF8
:10285400A3E0FF7C007D0A129CF5AA06AB0790C694
:102864006FE0FEA3E0FF7D64129CF5EF2BFFEE3AD0
:10287400FE90C673E0FCA3E0FD2FFFEC3E90C8A1E0
:10288400F0A3EFF090C8A1E0FEA3E0FFD39432EEF2
:1028940094005025EF9400EE9400401D90C74EEC38
:1028A400F0A3EDF07B017AC6797390C8CEE4F0A36F
:1028B40004F07F207E250231AF90C89FE0FFA3E0A3
:1028C40090C673CFF0A3EFF07B017AC6797390C8FA
:1028D400CEE4F0A304F07F207E250231AF90C8003F
:1028E400E0FEA3E024B0F58274C73EF583E0FF90D8
:1028F400C71CE06F6003022A8C90C66AE060030282
:1029040029D890C76FE0FEA3E0FF90C89FEEF0A324
:10291400EFF0643B4E701D90C70BE07002A3E060C3
:1029240003E4801C90C770E004F0702A90C76FE045
:1029340004F0802290C76FE07004A3E0643C700848
:1029440090C76FF0A3F0800E90C770E004F070069B
:1029540090C76FE004F090C76FE0FEA3E0FF7C0037
:102964007D3C129CF590C70CE02FFF90C70BE03E16
:1029740090C8A1F0A3EFF090C80BE0FEA3E0FF9095
:10298400C8A1E0FCA3E0FDD39FEC9E502390C809AE
:10299400E0FEA3E0FFED9FEC9E40157B017AC77932
:1029A4006F90C8CEE4F0A304F07F707E230231AFB1
:1029B40090C89FE0FFA3E090C76FCFF0A3EFF07B38
:1029C400017AC7796F90C8CEE4F0A304F07F707EDB
:1029D400230231AF90C66AE0640160030234289098
:1029E400C70BE0FEA3E0FF90C89FEEF0A3EFF064F6
:1029F4003B4E700890C70BF0A3F0800E90C70CE01C
:102A040004F0700690C70BE004F090C76FE0FEA3DB
:102A1400E0FF7C007D3C129CF590C70CE02FFF90FA
:102A2400C70BE03E90C8A1F0A3EFF090C80BE0FE06
:102A3400A3E0FF90C8A1E0FCA3E0FDD39FEC9E506F
:102A44002390C809E0FEA3E0FFED9FEC9E40157BB8
:102A5400017AC7790B90C8CEE4F0A304F07F807E9E
:102A6400230231AF90C89FE0FFA3E090C70BCFF0E3
:102A7400A3EFF07B017AC7790B90C8CEE4F0A304EE
:102A8400F07F807E230231AF90C800E0FEA3E024F3
:102A940087F58274C73EF583E0FF90C71CE06F7032
:102AA4004290C66AE0600302342890C83DE0FEA369
:102AB400E0FFC390C73CE09F90C73BE09E40030209
:102AC4003428A3E004F0700690C73BE004F07B01D7
:102AD4007AC7793B90C8CEE4F0A304F07F007E244B
:102AE4000231AF90C713E0FF90C71CE06F60030290
:102AF400342890C66EE064016003022D6690C66AB5
:102B0400E06003022BCC90C791E0FEA3E0FF90C8E5
:102B14009FEEF0A3EFF064094E601090C792E004BA
:102B2400F0700F90C791E004F08007E490C791F033
:102B3400A3F090C718E0FEA3E0FF7C007D0A129C7E
:102B4400F5AA06AB0790C754E0FEA3E0FF7D64122C
:102B54009CF5EF2BFFEE3AFE90C792E02FFF90C753
:102B640091E03E90C8A1F0A3EFF090C806E0FEA368
:102B7400E0FF90C8A1E0FCA3E0FDD39FEC9E5024AD
:102B840090C803E0FEA3E0FFC3ED9FEC9E40157BDD
:102B9400017AC7799190C8CEE4F0A304F07F307E27
:102BA400200231AF90C89FE0FFA3E090C791CFF01F
:102BB400A3EFF07B017AC7799190C8CEE4F0A30427
:102BC400F07F307E200231AF90C66AE0640160037A
:102BD400022C9990C718E0FEA3E0FF90C89FEEF086
:102BE400A3EFF064094E601090C719E004F0700F71
:102BF40090C718E004F08007E490C718F0A3F090A1
:102C0400C718E0FEA3E0FF7C007D0A129CF5AA062B
:102C1400AB0790C754E0FEA3E0FF7D64129CF5EF80
:102C24002BFFEE3AFE90C792E02FFF90C791E03E53
:102C340090C8A1F0A3EFF090C806E0FEA3E0FF90D7
:102C4400C8A1E0FCA3E0FDD39FEC9E502490C803F0
:102C5400E0FEA3E0FFC3ED9FEC9E40157B017AC725
:102C6400791890C8CEE4F0A304F07F107E200231DE
:102C7400AF90C89FE0FFA3E090C718CFF0A3EFF098
:102C84007B017AC7791890C8CEE4F0A304F07F10D2
:102C94007E200231AF90C66AE064026003023428E9
:102CA40090C754E0FEA3E0FF90C89FEEF0A3EFF0BE
:102CB40064024E601090C755E004F0700F90C75442
:102CC400E004F08007E490C754F0A3F090C718E044
:102CD400FEA3E0FF7C007D0A129CF5AA06AB0790D8
:102CE400C754E0FEA3E0FF7D64129CF5EF2BFFEEDA
:102CF4003AFE90C792E02FFF90C791E03E90C8A1A2
:102D0400F0A3EFF090C806E0FEA3E0FF90C8A1E0B6
:102D1400FCA3E0FDD39FEC9E502490C803E0FEA3E7
:102D2400E0FFC3ED9FEC9E40157B017AC779549078
:102D3400C8CEE4F0A304F07F007E200231AF90C837
:102D44009FE0FFA3E090C754CFF0A3EFF07B017A9C
:102D5400C7795490C8CEE4F0A304F07F007E20022B
:102D640031AF90C66EE0B4023A90C83DE0FEA3E0F5
:102D7400FF90C73BE06E7003A3E06F70030234283A
:102D840090C73CE004F0700690C73BE004F07B0180
:102D94007AC7793B90C8CEE4F0A304F07F507E203C
:102DA4000231AF90C66EE06403600302301790C630
:102DB4006AE06003022E7D90C77DE0FEA3E0FF90F1
:102DC400C89FEEF0A3EFF064094E601090C77EE058
:102DD40004F0700F90C77DE004F08007E490C77D95
:102DE400F0A3F090C7C0E0FEA3E0FF7C007D0A12D0
:102DF4009CF5AA06AB0790C733E0FEA3E0FF7D6411
:102E0400129CF5EF2BFFEE3AFE90C77EE02FFF9069
:102E1400C77DE03E90C8A1F0A3EFF090C7FEE0FEAE
:102E2400A3E0FF90C8A1E0FCA3E0FDD39FEC9E507B
:102E34002490C7F9E0FEA3E0FFC3ED9FEC9E40158C
:102E44007B017AC7797D90C8CEE4F0A304F07F803B
:102E54007E200231AF90C89FE0FFA3E090C77DCFF2
:102E6400F0A3EFF07B017AC7797D90C8CEE4F0A39C
:102E740004F07F807E200231AF90C66AE064016076
:102E840003022F4A90C7C0E0FEA3E0FF90C89FEE64
:102E9400F0A3EFF064094E601090C7C1E004F07035
:102EA4000F90C7C0E004F08007E490C7C0F0A3F01F
:102EB40090C7C0E0FEA3E0FF7C007D0A129CF5AA47
:102EC40006AB0790C733E0FEA3E0FF7D64129CF5D8
:102ED400EF2BFFEE3AFE90C77EE02FFF90C77DE018
:102EE4003E90C8A1F0A3EFF090C7FEE0FEA3E0FF80
:102EF40090C8A1E0FCA3E0FDD39FEC9E502490C7B2
:102F0400F9E0FEA3E0FFC3ED9FEC9E40157B017A40
:102F1400C779C090C8CEE4F0A304F07F707E20028D
:102F240031AF90C89FE0FFA3E090C7C0CFF0A3EFFC
:102F3400F07B017AC779C090C8CEE4F0A304F07F97
:102F4400707E200231AF90C66AE0640260030234EE
:102F54002890C733E0FEA3E0FF90C89FEEF0A3EFF4
:102F6400F064024E601090C734E004F0700F90C714
:102F740033E004F08007E490C733F0A3F090C7C0B7
:102F8400E0FEA3E0FF7C007D0A129CF5AA06AB07D5
:102F940090C733E0FEA3E0FF7D64129CF5EF2BFFA6
:102FA400EE3AFE90C77EE02FFF90C77DE03E90C8CA
:102FB400A1F0A3EFF090C7FEE0FEA3E0FF90C8A14C
:102FC400E0FCA3E0FDD39FEC9E502490C7F9E0FE03
:102FD400A3E0FFC3ED9FEC9E40157B017AC77933D4
:102FE40090C8CEE4F0A304F07F607E200231AF905D
:102FF400C89FE0FFA3E090C733CFF0A3EFF07B01BD
:103004007AC7793390C8CEE4F0A304F07F607E20C1
:103014000231AF90C66EE06404600302342890C6A7
:103024006AE060030230FE90C76FE0FEA3E0FF9009
:10303400C89FEEF0A3EFF0643B4E701D90C70BE009
:103044007002A3E06003E4801C90C770E004F07099
:103054002A90C76FE004F0802290C76FE07004A349
:10306400E0643C700890C76FF0A3F0800E90C770C6
:10307400E004F0700690C76FE004F090C76FE0FEC4
:10308400A3E0FF7C007D3C129CF590C70CE02FFF71
:1030940090C70BE03E90C8A1F0A3EFF090C80BE0FE
:1030A400FEA3E0FF90C8A1E0FCA3E0FDD39FEC9E4B
:1030B400502490C809E0FEA3E0FFC3ED9FEC9E40BE
:1030C400157B017AC7796F90C8CEE4F0A304F07F32
:1030D400107E210231AF90C89FE0FFA3E090C76F3C
:1030E400CFF0A3EFF07B017AC7796F90C8CEE4F0FC
:1030F400A304F07F107E210231AF90C66AE0640120
:10310400600302342890C70BE0FEA3E0FF90C89F41
:10311400EEF0A3EFF0643B4E700890C70BF0A3F001
:10312400800E90C70CE004F0700690C70BE004F02A
:1031340090C76FE0FEA3E0FF7C007D3C129CF590FD
:10314400C70CE02FFF90C70BE03E90C8A1F0A3EF9F
:10315400F090C80BE0FEA3E0FF90C8A1E0FCA3E060
:10316400FDD39FEC9E502390C809E0FEA3E0FFC36B
:10317400ED9FEC9E40147B017AC7790B90C8CEE496
:10318400F0A304F07F307E21802190C89FE0FFA34C
:10319400E090C70BCFF0A3EFF07B017AC7790B90D7
:1031A400C8CEE4F0A304F07F307E2112B4050234CB
:1031B4002890C66DE06401702A90C713E0FF90C7A1
:1031C4001CE06F600302342812D77190C66EE0B41D
:1031D40004057401F0800690C66EE004F012D00C71
:1031E40002342890C800E0FEA3E0FF249BF582741B
:1031F400C73EF583E0FD90C71CE0FCC39D501B74E3
:103204008D2FF58274C73EF583E0FFECC39F400A1F
:1032140090C71CE004F0E0FF802A90C800E0FEA301
:10322400E0FF249BF58274C73EF583E0FD90C71C44
:10323400E0B50516748D2FF58274C73EF583E0FF63
:1032440090C71CF012DE4B02342890C66BE0640178
:10325400704190C800E0FEA3E02431F58274C73EBB
:10326400F583E0FF90C71CE0B50702804790C7567E
:10327400E0FF90C71CE0B5071290C800E0FEA3E091
:10328400242AF58274C73EF583805290C71CE0045B
:10329400F0804A90C66CE06401704A90C800E0FE79
:1032A400A3E02428F58274C73EF583E0FF90C71C91
:1032B400E0B5070590C756802490C756E0FF90C735
:1032C4001CE0B5071290C800E0FEA3E0241AF582C2
:1032D40074C73EF583800690C71CE004F0E0FF123B
:1032E400E32D02342890C800E0FEA3E02437F582E1
:1032F40074C73EF583E0FF90C71CE0B5070A7F0260
:103304007E0012DF9002342890C800E0FEA3E0247F
:1033140024F58274C73EF583E0FF90C71CE0B5072F
:103324000E90C89DE0FEA3E0FF1283D502342890DE
:10333400C800E0FEA3E0247FF58274C73EF583E075
:10334400FF90C71CE0B5070E90C89DE0FEA3E0FF08
:1033540012C22B02342890C800E0FEA3E0248BF5AF
:103364008274C73EF583E0FF90C71CE0B5070E905A
:10337400C89DE0FEA3E0FF12C10E02342890C800ED
:10338400E0FEA3E0246BF58274C73EF583E0FF9072
:10339400C71CE0B5070E90C89DE0FEA3E0FF12CD68
:1033A400CA02342890C800E0FEA3E0FF24BEF582E0
:1033B40074C73EF583E0FD90C71CE0FC6D60657446
:1033C400402FF58274C73EF583E0B5040D90C89D87
:1033D400E0FEA3E0FF12D19B804A90C800E0FEA368
:1033E400E0240FF58274C73EF583E0FF90C71CE02C
:1033F400B5070D90C89DE0FEA3E0FF128ACF80249C
:1034040090C800E0FEA3E02489F58274C73EF583EA
:10341400E0FF90C71CE0B5070B90C89DE0FEA3E059
:10342400FF12BBB590C6687401F07D1E7C00E4FFFA
:1034340002E03890C675E07004A3E0640160030202
:10344400388190C713E0FF90C71CE06F600302351A
:10345400CF90C66EE06401702990C66AE004F0E083
:103464006403700F12D11E90C66EE0FF7E007D646F
:103474000235CA90C66EE0FF7E0090C66AE0FD0287
:1034840035CA90C66EE0B40221E490C675F0A3F08C
:1034940090C66AF090C73BE0FCA3E0FD7F047E8108
:1034A40012D16C7F537E1002E14590C66EE0640336
:1034B400706C90C66AE004F0E06403705290C675C4
:1034C400F0A3F090C66AF090C7C0E0FEA3E0FF7CD2
:1034D400007D0A129CF5AA06AB0790C733E0FEA351
:1034E400E0FF7D64129CF5EF2BFFEE3AFE90C77E61
:1034F400E02FFF90C77DE03E90C8A1F0A3EFF07FDE
:103504000212D16290C66EE0FF7E007D64800C9052
:10351400C66EE0FF7E0090C66AE0FD0235CA90C622
:103524006EE0640460030243AE90C66AE004F0E017
:10353400640260030235BE90C675F0A3F090C66ABB
:10354400F07B017AC7796F90C8CAF0A304F07F10AA
:103554007E2112AEE07B017AC7790B90C8CAE4F0F1
:10356400A304F07F307E2112AEE090C76FE0FEA38B
:10357400E0FF7C007D3C129CF590C70CE02FFF908F
:10358400C70BE03E90C8A1F0A3EFF07B017AC779A6
:103594000B90C8CEE4F0A304F07F307E2112B40572
:1035A40090C8A1E0FCA3E0FD7F067E8112D16C905F
:1035B400C66EE0FF7E007D64800C90C66EE0FF7EE8
:1035C4000090C66AE0FD7C00023F6690C66AE00493
:1035D400F090C71CE0FF7E0090C66AE0FD7C0012FC
:1035E400908790C800E0FEA3E024B8F58274C73E3B
:1035F400F583E0FF90C71CE06F701B90C66AE0641F
:1036040004701312D11E90C800E0FEA3E0242AF532
:103614008274C7023F2390C800E0FEA3E024C2F5F1
:103624008274C73EF583E0FF90C71CE06F70529030
:10363400C66AE06403704A90C675F0A3F090C66A47
:10364400F090C7C4E0FEA3E0FF7C007D0A129CF565
:1036540090C782E02FFF90C781E03E90C8A1F0A3FD
:10366400EFF090C8A1E0FCA3E0FD7F087E8112D1B9
:103674006C90C800E0FEA3E02431F58274C7023FD9
:103684002390C727E0FF90C71CE0B5071890C66ACF
:10369400E0B40411E490C675F0A3F090C66AF0900B
:1036A400C76D02425690C800E0FEA3E0249DF58257
:1036B40074C73EF583E0FF90C71CE06F706C90C642
:1036C4006AE06404706490C675F0A3F090C66AF072
:1036D40090C7C0E0FEA3E0FF7C007D0A129CF5AA1F
:1036E40006AB0790C733E0FEA3E0FF7D64129CF5B0
:1036F400EF2BFFEE3AFE90C77EE02FFF90C77DE0F0
:103704003E90C8A1F0A3EFF090C8A1E0FCA3E0FDB7
:103714007F027E8112D16C90C800E0FEA3E0241ADF
:10372400F58274C73EF58302425690C800E0FEA3BA
:10373400E024B6F58274C73EF583E0FF90C71CE031
:103744006F705590C66AE06403704D90C675F0A31F
:10375400F090C66AF090C7B2E0FEA3E0FF7C007D63
:103764000A129CF590C743E02FFF90C742E03E90B9
:10377400C8A1F0A3EFF090C8A1E0FCA3E0FD7F0A8C
:103784007E8112D16C90C800E0FEA3E02428F5826B
:1037940074C73EF58302425690C717E0FF90C71CDA
:1037A400E0B5071890C66AE0B40211E490C675F05B
:1037B400A3F090C66AF090C73F02425690C800E05A
:1037C400FEA3E024B0F58274C73EF583E0FF90C702
:1037D4001CE06F705590C66AE06403704D90C67526
