:0300000002BC3E01
:0800F800FFFF4457494E543547
:10BC3E00759401759502758E0075930075C87075B3
:10BC4E00C96075F80075F90175A80075B800759A88
:10BC5E000075A90075B90053D0E7787FE4F6D8FDDA
:10BC6E009080007F007E80E4F0A3DFFCDEFA758119
:04BC7E001B02BCBD2C
:10A3A10090C89BEEF0A3EFF0A3EBF0A3EAF0A3E9D2
:01A3B100F0BB
:10A3B200E490C8A2F0A3F0A3F0A3F0A3F0A3F0A34B
:10A3C200F0A3F090C8A0E0FAA3E0FB4A700302A554
:10A3D2006090C89BE0FEA3E0FFC3E49FFFE49EFE03
:10A3E200E4FCFD90C8AA128FE6AF03AE02E4FCFDC6
:10A3F20090C8AAE0F8A3E0F9A3E0FAA3E0FBC31235
:10A402008FAF501190C8AAA3A3E0FFA3E090C8A009
:10A41200CFF0A3EFF090C89BE0FCA3E0FDECC313E8
:10A42200FFED1390C8A2CFF0A3EFF0ED5401FFA30C
:10A43200E4F0A3EFF0C2AFE4F5F190C8A2E0FCA310
:10A44200E0FDECF5F28DF375F40175F8AF30FCFD2B
:10A4520090C8A4E07002A3E0603DD2FE20FEFD9011
:10A46200C89DE0FBA3E475F001128DC2A9F0FAE5E4
:10A47200FC128D1190C89DE0FBA3E475F001128DD2
:10A48200C2A9F0FAE5FD128D1190C8A1E024FFF0F7
:10A4920090C8A0E034FFF090C8A0E0FCA3E0FDEC7F
:10A4A200C313FFED1390C8A6CFF0A3EFF0ED540154
:10A4B200FFA3E4F0A3EFF090C8A674FFF5F0128DAD
:10A4C200C245F0605BD2FE20FEFD90C89DE0FBA37A
:10A4D200E475F001128DC2A9F0FAE5FA128D11901D
:10A4E200C89DE0FBA3E475F001128DC2A9F0FAE564
:10A4F200FB128D1190C89DE0FBA3E475F001128D53
:10A50200C2A9F0FAE5FC128D1190C89DE0FBA3E40C
:10A5120075F001128DC2A9F0FAE5FD128D11809736
:10A5220090C8A8E07002A3E0602FD2FE20FEFD904A
:10A53200C89DE0FBA3E475F001128DC2A9F0FAE513
:10A54200FA128D1190C89DE0FBA3E475F001128D03
:0EA55200C2A9F0FAE5FB128D11E4F5F8D2AFC4
:01A5600022D8
:10A8C60090C89FEEF0A3EFF0A3EBF0A3EAF0A3E9A4
:01A8D600F091
:10A8D700E490C8A6F0A3F0A3F0A3F0A3F0A3F09030
:10A8E700C8A4E07002A3E0700302AA5890C89FE0D2
:10A8F700FEA3E0FFC3E49FFFE49EFED390C8A5E05C
:10A907009F90C8A4E09E4005EEF0A3EFF090C89F8B
:10A91700E0FAA3E0FBEAC313FCEB13FDEB5401FFE2
:10A9270090C8A6E4F0A3EFF0C2AFE4F5F1ECF5F2BE
:10A93700AF058FF375F40175F88330FCFD90C8A659
:10A94700E07002A3E0603D90C8A1E0FBA3E475F0CE
:10A9570001128DC2A9F0FA128CCBF5FC90C8A1E0C8
:10A96700FBA3E475F001128DC2A9F0FA128CCBF5A6
:10A97700FDD2FE20FEFD90C8A5E024FFF090C8A4FC
:10A98700E034FFF090C8A4E0FCA3E0FDECC313FFA4
:10A99700ED1390C8A8CFF0A3EFF0ED5401FFA3E4A7
:10A9A700F0A3EFF075F88F90C8A874FFF5F0128D3B
:10A9B700C245F0605B90C8A1E0FBA3E475F001120B
:10A9C7008DC2A9F0FA128CCBF5FA90C8A1E0FBA3CF
:10A9D700E475F001128DC2A9F0FA128CCBF5FB9049
:10A9E700C8A1E0FBA3E475F001128DC2A9F0FA1229
:10A9F7008CCBF5FC90C8A1E0FBA3E475F001128DA8
:10AA0700C2A9F0FA128CCBF5FDD2FE30FE9980FB7D
:10AA170090C8AAE07002A3E0603275F88C90C8A1D4
:10AA2700E0FBA3E475F001128DC2A9F0FA128CCBFA
:10AA3700F5FA90C8A1E0FBA3E475F001128DC2A955
:10AA4700F0FA128CCBF5FBD2FE20FEFDE4F5F8D22E
:01AA5700AF4F
:01AA580022DB
:10AEFC0090C99BEEF0A3EFF0A3EBF0A3EAF0A3E96B
:01AF0C00F054
:10AF0D00A3E0FEA3E0FF4E700302B07590C99BE075
:10AF1D00FCA3E0FDC3E49DFDE49CFCD3EF9DEE9C02
:10AF2D00400AAF0590C9A0ECF0A3EFF090C99BE0EB
:10AF3D00FCA3E0FDECC313FEED13FBAA06ED5401DB
:10AF4D00FDC2AFE4F5F1EAF5F2AF038FF375F4014D
:10AF5D0075F88330FCFDED604FC390C9A1E09402FC
:10AF6D0090C9A0E09400500302B07090C99DE0FB21
:10AF7D00A3E475F001128DC2A9F0FA128CCBF5FC89
:10AF8D0090C99DE0FBA3E475F001128DC2A9F0FA02
:10AF9D00128CCBF5FDD2FE20FEFD90C9A1E024FE62
:10AFAD00F090C9A0E034FFF090C9A0E0FEA3E078D6
:10AFBD0002CEC313CE13D8F9FF75F88FEF1FAC0671
:10AFCD0070011E4C605B90C99DE0FBA3E475F00120
:10AFDD00128DC2A9F0FA128CCBF5FA90C99DE0FB47
:10AFED00A3E475F001128DC2A9F0FA128CCBF5FB1A
:10AFFD0090C99DE0FBA3E475F001128DC2A9F0FA92
:10B00D00128CCBF5FC90C99DE0FBA3E475F0011209
:10B01D008DC2A9F0FA128CCBF5FDD2FE30FE9D80CB
:10B02D00FB90C9A1E030E1047F0180027F00EF6059
:10B03D003275F88C90C99DE0FBA3E475F001128D7B
:10B04D00C2A9F0FA128CCBF5FA90C99DE0FBA3E4EE
:10B05D0075F001128DC2A9F0FA128CCBF5FBD2FE60
:08B06D0020FEFDE4F5F8D2AF6E
:01B0750022B8
:10D61300EC90C9D1F0EDA3F07B017AC979D190C91F
:0AD62300A0E4F0A37402F002AEFCD4
:10D6C600EF4E6010E4FD0DEDC3943240F9EF1F708C
:04D6D600EF1E80ECD7
:01D6DA00222D
:08C47B0090C9A9EEF0A3EFF057
:10C48300A3745AF0A37401F090C9A9E0FCA3E0FDE2
:10C49300EC90C9ADF0A3EDF07B017AC979AB90C8FC
:10C4A300A4E4F0A37402F07F847E0012A8C67FF494
:10C4B3007E0112D6C67B017AC979AB90C8A0E4F09D
:10C4C300A37402F07F147E0012A3A190C9A9E0FE19
:10C4D300A3E0FFA3E0B506D6A3E0B507D1E490C976
:10C4E300ABF0A3F0A3F0A3F07B017AC979AB90C8BA
:0DC4F300A4F0A37402F07F167E0002A8C61C
:08CEDD0090C87AEEF0A3EFF01B
:10CEE500E4A3F0A3F090C87AE0FEA3E0FFC390C8E6
:10CEF5007DE09F90C87CE09E5025E4FBFA7F017E93
:10CF05000012D6C60BBB00010ABA01F1BB2CEE908C
:0FCF1500C87DE004F070CE90C87CE004F080C6C8
:01CF240022EA
:10CF2500EF14601814602314602E24037039740103
:10CF3500A805088002C333D8FC42B7227401A805AE
:10CF4500088002C333D8FC42BC227401A8050880BE
:10CF550002C333D8FC42BD22AF057401A80708807F
:08CF650002C333D8FC42BE22D6
:10CDFD00EF1460191460251460312403703D740123
:10CE0D00A805088002C333D8FCF452B7227401A8D8
:10CE1D0005088002C333D8FCF452BC227401A80566
:10CE2D00088002C333D8FCF452BD22AF057401A8AB
:0CCE3D0007088002C333D8FCF452BE2268
:10C1AB00EF14602D14604A1460672403600302C20D
:10C1BB003DEB600E7401A805088002C333D8FC4226
:10C1CB0080227401A805088002C333D8FCF4528086
:10C1DB0022EB600E7401A805088002C333D8FC4221
:10C1EB0090227401A805088002C333D8FCF4529046
:10C1FB0022EB600E7401A805088002C333D8FC4201
:10C20B00A0227401A805088002C333D8FCF452A005
:10C21B0022EB600E7401A805088002C333D8FC42E0
:10C22B00B022AF057401A807088002C333D8FCF411
:03C23B0052B022DC
:10CC6400EF14601A146027146034240370427401B2
:10CC7400A805088002C333D8FC5580FE80347401B3
:10CC8400A805088002C333D8FC5590FE80247401A3
:10CC9400A805088002C333D8FC55A0FE8014AF0554
:10CCA4007401A807088002C333D8FC55B0FE800283
:04CCB400E4FEAF06E5
:01CCB8002259
:10D4C200758911E4F58CF58AC28CF518F51A438931
:0ED4D20001758CBC758ACDD2A9D2AFD28C2246
:03000B0002C6DE4C
:0DC6DE00C0E0C0D075D000C000C006C0078D
:10C6EB00C2AF758CBC758ACD0519751B0074017EA4
:10C6FB0000A81B088005C333CE33CED8F9FFEF5506
:10C70B001A602DE51B25E02408F808E616187001C1
:10C71B0016E51B25E02408F8E6FE08E64E7011AF7F
:10C72B001B04A807088002C333D8FC4218F4521A22
:09C73B00051BE51BB408B6D2AFE2
:0BC74400D007D006D000D0D0D0E032EB
:10D62D00758911E4F58DF58BC28ED2AF43891075D6
:0AD63D008DBC758BCDD2ABD28E22CE
:03001B0002D762A7
:0DD76200C2AF758DBC758BCDB290D2AF32C9
:10D7050075C8F075CD58E4F5CC75CB58F5CA43C846
:04D7150001D2AD226E
:03002B0002D77B7E
:09D77B00C2AFC2C6B291D2AF32B6
:10D47F00C2AF7401A807088002C333D8FCFE421A5A
:10D48F00EF25E02408F8A60408A605EEF45218D2FA
:02D49F00AF22BA
:10D6DB00C2AF7401A807088002C333D8FCF4521AF6
:05D6EB005218D2AF222D
:10D72D00C2AF7401A807088002C333D8FC5518FF97
:02D73D00D2AF69
:01D73F0022C7
:10CD6100AB07AA06A905A8047F007E387D317C00A7
:10CD7100128F1DC3E49F90C879F074049E90C87807
:10CD8100F043C9407D04E4FF12CF257D05E4FF1285
:10CD9100CDFD43803075D88075985090C878E0FCFF
:0DCDA100A3E0FDECF5BA8DAA43A810D2ACBA
:01CDAE002262
:10CE9400AB07AA06A905A8047F007E707D627C000A
:10CEA400128F1DC3E49F90C879F074049E90C878D3
:10CEB400F043C9207D06E4FF12CF257D07E4FF126D
:10CEC400CDFD4380C0759B9090C878E0FCA3E0FD45
:08CED400ECF5BB8D9D439A01B2
:01CEDC002233
:10D15100759680759780AB07AA06A905A8047F007C
:10D161007EC07D897C01128F1DAD07AC06ECF5D91F
:10D17100AF058FE743B80CE4909812F0A3F0A3F049
:10D18100A3F090981AF0909816F0A3F0A3F0A3F0F2
:01D19100227B
:10D4340075A78075AB80AB07AA06A905A8047F0071
:10D444007EC07D897C01128F1DAD07AC06ECF5AE64
:07D45400AF058FAF43B830B4
:01D45B0022AE
:10CD0E00EF14601B1460291460372403704490C81C
:10CD1E0074E0FCA3E0FDA3E0FEA3E0FF02CD619072
:10CD2E00C874E0FCA3E0FDA3E0FEA3E0FF02CE94F6
:10CD3E0090C874E0FCA3E0FDA3E0FEA3E0FF02D1E7
:10CD4E005190C874E0FCA3E0FDA3E0FEA3E0FF1247
:03CD5E00D43422A8
:10A5610090C873EFF0A3ECF0A3EDF0A3EBF0A3EA36
:04A57100F0A3E9F07A
:10A57500C2AFE4A3F0A3F090C874E0FEA3E0FFC36C
:10A5850090C87AE09F90C879E09E400302A6399072
:10A59500C876E0FBA3E475F001128DC2A9F0FA12AA
:10A5A5008CCBFF90C873E0FE75F009A42400F582FA
:10A5B500E5F03488F583EE75F008A42583F583E08E
:10A5C500FCA3E0FD75F009EEA42400F582E5F03466
:10A5D50080F583EE75F008A42583F583E5822DF5D6
:10A5E50082E5833CF583EFF075F009EEA42400F5D0
:10A5F50082E5F03488F583EE75F008A42583F583AC
:10A60500E475F001128DAC75F009EEA42400F58215
:10A61500E5F03488F583EE75F008A42583F583E02D
:10A625005403F090C87AE004F0700690C879E0040D
:10A63500F002A57C90C873E0146042146070147039
:10A645000302A6E12403600302A711908808E060D5
:10A655000302A71104F0908802E0FEA3E02400F5B0
:10A665008274803EF583E0F599908803E004F070EC
:10A6750006908802E004F090880202A70D909011E0
:10A68500E0600302A71104F090900BE0FEA3E02424
:10A6950009F58274883EF583E0F59C90900CE00402
:10A6A500F0700690900BE004F090900B805A909813
:10A6B5001AE0705804F0909814E0FEA3E02412F517
:10A6C5008274903EF583E0F59E909815E004F07055
:10A6D50006909814E004F0909814802C90A023E044
:10A6E500702A04F090A01DE0FEA3E0241BF58274FF
:10A6F500983EF583E0F5AC90A01EE004F07006905E
:0EA70500A01DE004F090A01DE05403F0D2AFC0
:01A713002223
:0300230002C35FB6
:10C35F00C0E0C083C082C0D075D000C006C007C285
:10C36F00AF30982AC298908804E0FEA3E02400F52D
:10C37F008274843EF583E599F0908805E004F070AF
:10C38F0006908804E004F0908804E05403F030999C
:10C39F003FC299908802E0FEA3E0FF908800E06E14
:10C3AF007003A3E06F602474002FF58274803EF554
:10C3BF0083E0F599908803E004F07006908802E01E
:10C3CF0004F0908802E05403F08005908808E4F0B0
:0FC3DF00D2AFD007D006D0D0D082D083D0E032FA
:0300530002CA3CA2
:10CA3C00C0E0C083C082C0D075D000C006C007C2A1
:10CA4C00AF5396FE909814E0FEA3E0FF909812E08E
:10CA5C006E7003A3E06F602474122FF58274903E05
:10CA6C00F583E0F59E909815E004F070069098140C
:10CA7C00E004F0909814E05403F0800590981AE4C8
:10CA8C00F0D2AFD007D006D0D0D082D083D0E03255
:03005B0002CF6D64
:10CF6D00C0E0C083C082C0D075D000C006C2AF5330
:10CF7D0097FE909816E0FEA3E02412F58274943E7D
:10CF8D00F583E59FF0909817E004F07006909816E1
:10CF9D00E004F0909816E05403F0D2AFD006D0D054
:07CFAD00D082D083D0E032F6
:0300630002CA9C32
:10CA9C00C0E0C083C082C0D075D000C006C007C241
:10CAAC00AF53A7FE90A01DE0FEA3E0FF90A01BE0FB
:10CABC006E7003A3E06F6024741B2FF58274983E94
:10CACC00F583E0F5AC90A01EE004F0700690A01D7C
:10CADC00E004F090A01DE05403F0800590A023E446
:10CAEC00F0D2AFD007D006D0D0D082D083D0E032F5
:03006B0002CFB40D
:10CFB400C0E0C083C082C0D075D000C006C2AF53E9
:10CFC400ABFE90A01FE0FEA3E0241BF582749C3E00
:10CFD400F583E5ADF090A020E004F0700690A01F6A
:10CFE400E004F090A01FE05403F0D2AFD006D0D0FC
:07CFF400D082D083D0E032AF
:0300830002C110A7
:10C11000C0E0C083C082C0D075D000C006C007C2D6
:10C12000AFE59B30E02E759B90539BFE90900DE009
:10C13000FEA3E02409F582748C3EF583E59CF09023
:10C14000900EE004F0700690900DE004F090900DD9
:10C15000E05403F0E59B30E143759B90539BFD90C9
:10C16000900BE0FEA3E0FF909009E06E7003A3E067
:10C170006F602474092FF58274883EF583E0F59C86
:10C1800090900CE004F0700690900BE004F090901A
:10C190000BE05403F08005909011E4F0D2AFD0078B
:0BC1A000D006D0D0D082D083D0E03297
:10D6F0007596807597807C00ECF5D975E7E0759E8E
:04D700000D53B8F31A
:01D704002202
:0BD45C0090C8AFEBF0A3EAF0A3E9F0EA
:10D4670090C8DA7401F0A374C8F0A374B2F090C83E
:07D47700DAE4F0A3F0A3F0DA
:01D47E00228B
:02D7920080FE17
:056C340042C9D300007D
:10BE7B00E490C86EF0A3F0A3740AF0A3740DF0A3C2
:10BE8B0074EFF012D4C212D62D12A1DAE4FD7F02A8
:10BE9B0012CDFD7D607CEAE4FF12D47F7DF47C0142
:10BEAB007F0112D47F12C5F3D2AF90C727E0FF12E8
:10BEBB00D2921295B07D887C137F0712D47F7B01C1
:10BECB007AC8796F90C8A4E4F0A304F07F007E8257
:10BEDB0012A8C612515312D0CC90C9D3E07002A352
:10BEEB00E070187F0712D72DEF601090C9D3E4F0E4
:10BEFB00A304F090C727F0FF12D29290C9D3E07041
:10BF0B0002A3E060D112D10F12C90912AA5990C82D
:0BBF1B006CEEF0A3EFF012010080BB01
:106C390041C7AF0042C72B000041C7190044C77BB9
:106C49000000000046C7110000000000006072C685
:106C59009F00000001000200030004000500060077
:106C69000700080009000A000B000C000D000E00C7
:106C79000F00100011001200130014001500160077
:106C89001700180019001A001B001C001D001E0027
:106C99001F002000210022002300240025002600D7
:106CA9002700280029002A002B002C002D002E0087
:106CB9002F00300031003200330034003500360037
:106CC90037003842C741000041C7B20042C71C0023
:106CD9000042C73E000050C79600000000000000B7
:106CE90000000000000000000050C75E0000000026
:106CF90000000000000000000000000050C74B0029
:106D09000000000000000000000000000000004238
:106D1900C7B8000042C779000042C73C000042C71B
:106D2900B4000042C776000042C7A8000042C74924
:106D3900000042C774000042C717000042C7430061
:106D49000041C7950042C7BA000042C71F00004270
:106D5900C729000041C71A0042C783012842C785D5
:106D6900022942C789032A42C78B042B42C78D05D2
:106D79002C42C78F062D42C791072E41C71E0842D4
:106D8900C733092F42C73A0A3041C7720B42C72598
:106D99000C3142C7310D3241C7470E41C75D0F4221
:106DA900C7AD103342C7B6113441C7301242C79339
:106DB900133542C7AB143641C7221542C7A6163749
:106DC90042C77F173841C72F1841C7281941C72122
:106DD9001A41C7401B41C72E1C41C7781D41C782B4
:106DE9001E41C7711F41C72D2041C7702141C7B33B
:106DF9002241C7482341C7AA2441C71B2541C7814E
:106E09002642C735000041C7730041C7370042C752
:106E19006E000042C745000042C7B0000042C738B3
:106E2900000041C68C0041C68D0041C68E0041C696
:106E39008F0041C6900041C6910041C6920042C6EA
:106E490093000042C695000042C697000042C699C9
:076E5900000042C69B00008F
:10C5000090C699F0A3F090C68EF090C723E0FEA3EA
:10C51000E0FF7C007D0A128D45AA06AB0790C75B41
:10C52000E0FEA3E0FF7D64128D45EF2BFFEE3AFEA7
:10C5300090C788E02FFF90C787E03E90C877F0A3B0
:0EC54000EFF07F0090C877E0FCA3E0FD7E8165
:10C54E0090C69DEEF0A3EFF090C7BAECF0A3EDF01D
:10C55E0090C7957401F0FB7AC779BA90C8A4E4F03D
:0FC56E00A304F012A8C67DBC7C027F0602D47F16
:0CD76F00E490C795F090C729F0A3F022C9
:10C9090090C795E060637F0612D72DEF605B90C6F4
:10C919009DE0FEA3E0FF7B017AC7791F90C8A0E4E0
:10C92900F0A304F012A3A190C71FE0FEA3E0FF90BB
:10C93900C7BAE0FCA3E0FDB50707ECB5060302D7CB
:10C949006FC390C72AE0940290C729E09400501958
:10C9590090C69DE0FEA3E0FF12C54E90C72AE004F1
:0AC96900F0700690C729E004F022E8
:06D78C00E490C719F02231
:10B4B00090C897ECF0A3EDF0EE600302B5CEEF2458
:10B4C000FE606A14606B14700302B593240360037A
:10B4D00002B5CE90C897E0FEA3E0FFEE703DEF14FA
:10B4E0006019146026240270327F037E1012D58CFE
:10B4F0007F137E1012D58C7F33805C7F037E101209
:10B50000D58C7F137E1012D5A7801E7F037E10126C
:10B51000D5A77F137E1012D58C800E7F037E10126C
:10B52000D58C7F137E1012D58C7F3380627F538041
:10B530002690C897E0FEA3E0FFEE7043EF14601B77
:10B5400014602A240270387F637E1012D58C7F73BA
:10B550007E1012D58C7F837E1080627F637E1012F6
:10B56000D58C7F737E1012D5A77F8380227F637E68
:10B570001012D5A77F737E1012D58C7F8380107F29
:10B58000637E1012D58C7F737E1012D58C7F837EE4
:10B5900010803890C897E0FEA3E0FFEE7022EF1411
:10B5A000601004701B7F137E1112D5A77F337E11AC
:10B5B00080197F137E1112D58C7F337E1102D5A79F
:0FB5C0007F137E1112D58C7F337E1112D58C2212
:1075BB0090C897ECF0A3EDF0EE6003027B5FEF1247
:1075CB00907F75FB1076EF1177B512783213792C0B
:1075DB001479F2157A6F167B14177672337752344F
:1075EB0078AF35798F367AC2377B393800007B5FBD
:1075FB0090C897E07002A3E070177F537E1112D5ED
:10760B00717F637E1112D5717F737E1112D5A780A6
:10761B004290C897E07004A3E0640170107F537E22
:10762B001112D5717F637E1112D5A7801F90C89759
:10763B00E07004A3E064027F537E11700512D5A79E
:10764B00800312D5717F637E1112D5717F737E110A
:10765B0012D57190C897E07004A3E0640370047DA9
:10766B00018079E4FD807590C897E07002A3E0700B
:10767B00177F537E1112D5717F637E1112D5717FE7
:10768B00737E1112D5A7804290C897E07004A3E0D7
:10769B00640170107F537E1112D5717F637E1112BE
:1076AB00D5A7801F90C897E07004A3E064027F53B6
:1076BB007E11700512D5A7800312D5717F637E11E1
:1076CB0012D5717F737E1112D57190C897E070043B
:1076DB00A3E0640370047D018002E4FDFC7F807EE7
:1076EB0021027B5C90C897E07002A3E070107F933F
:1076FB007E1112D5717F037E1212D5A7802F90C8F1
:10770B0097E07004A3E0640170097F937E1112D59A
:10771B00A7801390C897E07004A3E06402700E7FFB
:10772B00937E1112D5717F037E1212D57190C8977B
:10773B00E07004A3E0640270047D018002E4FDFCB0
:10774B007F107E22027B5C90C897E07002A3E070F2
:10775B00107F937E1112D5717F037E1212D5A780F5
:10776B002F90C897E07004A3E0640170097F937EAB
:10777B001112D5A7801390C897E07004A3E06402A0
:10778B00700E7F937E1112D5717F037E1212D5710D
:10779B0090C897E07004A3E0640270047D0180023E
:1077AB00E4FDFC7F107E22027B5C90C897E07002A8
:1077BB00A3E070177F237E1212D5717F837E901208
:1077CB00D5717F937E9012D5A7804290C897E070B9
:1077DB0004A3E0640170107F237E1212D5717F83A6
:1077EB007E9012D5A7801F90C897E07004A3E06429
:1077FB00027F237E12700512D5A7800312D5717FED
:10780B00837E9012D5717F937E9012D57190C8971D
:10781B00E07004A3E0640370047D018002E4FDFCCE
:10782B007F307E39027B5C90C897E07002A3E070DA
:10783B00177F637E1212D5717F737E1212D5717F03
:10784B00837E1212D5A7804290C897E07004A3E004
:10785B00640170107F637E1212D5717F737E1212DA
:10786B00D5A7801F90C897E07004A3E064027F63E4
:10787B007E12700512D5A7800312D5717F737E120D
:10788B0012D5717F837E1212D57190C897E0700468
:10789B00A3E0640370047D018002E4FDFC7F907E15
:1078AB0022027B5C90C897E07002A3E070177F63A5
:1078BB007E1212D5717F737E1212D5717F837E1269
:1078CB0012D5A7804290C897E07004A3E0640170C2
:1078DB00107F637E1212D5717F737E1212D5A78033
:1078EB001F90C897E07004A3E064027F637E127060
:1078FB000512D5A7800312D5717F737E1212D57135
:10790B007F837E1212D57190C897E07004A3E06458
:10791B000370047D018002E4FDFC7F907E22027BDC
:10792B005C90C897E07002A3E070107F037E131287
:10793B00D5717413FFFE12D5A7802F90C897E070F6
:10794B0004A3E0640170097F037E1312D5A7801393
:10795B0090C897E07004A3E06402700E7F037E135F
:10796B0012D5717413FFFE12D57190C897E0700495
:10797B00A3E0640270047D018002E4FDFC7F207EA5
:10798B0023027B5C90C897E07002A3E070107F032A
:10799B007E1312D5717413FFFE12D5A7802F90C8DA
:1079AB0097E07004A3E0640170097F037E1312D586
:1079BB00A7801390C897E07004A3E06402700E7F59
:1079CB00037E1312D5717413FFFE12D57190C897F5
:1079DB00E07004A3E0640270047D018002E4FDFC0E
:1079EB007F207E23027B5C90C897E07002A3E0703F
:1079FB00177F337E1312D5717F437E1312D5717FA0
:107A0B00537E1312D5A7804290C897E07004A3E071
:107A1B00640170107F337E1312D5717F437E131276
:107A2B00D5A7801F90C897E07004A3E064027F3352
:107A3B007E13700512D5A7800312D5717F437E1379
:107A4B0012D5717F537E1312D57190C897E07004D5
:107A5B00A3E0640370047D018002E4FDFC7F607E83
:107A6B0023027B5C90C897E07002A3E070097F73E0
:107A7B007E1312D5A7801F90C897E07004A3E06413
:107A8B00017F737E13700C12D5717F837E1312D519
:107A9B00A7800A12D5717F837E1312D57190C89778
:107AAB00E07004A3E0640270047D018002E4FDFC3D
:107ABB007F907E23027B5C90C897E07002A3E070FE
:107ACB00097F737E1312D5A7801F90C897E07004AF
:107ADB00A3E064017F737E13700C12D5717F837EDC
:107AEB001312D5A7800A12D5717F837E1312D5711D
:107AFB0090C897E07004A3E0640270047D018002DB
:107B0B00E4FDFC7F907E23804890C897E07004A32F
:107B1B00E064017F037E14700912D5717D017C0036
:107B2B00800612D5A7E4FDFC7F107E24802390C82D
:107B3B0097E07004A3E064017F037E14700912D5F3
:107B4B00717D017C00800612D5A7E4FDFC7F107EC1
:057B5B002412D4E52214
:05D4E000E4FDFC7F905B
:10D4E50090C899ECF0A3EDF07B017AC8799990C8C2
:09D4F500A4E4F0A304F002A8C6AF
:06D28C00E0FF90C727F04F
:10D2920090C77B745AF0A37401F0E4A3F0EF25E089
:10D2A200249FF582E434C6F583A3E090C77EF07B29
:10D2B200017AC7797B90C8A4E4F0A37402F07F845A
:05D2C2007E0002A8C679
:08D7840090C727EFF002D292DA
:109C800090C7D3E0B409004003029F7B909C93F8F7
:109C9000282873029CAE029D7A029DAA029DBE02F4
:109CA0009DD2029E95029EB0029EB6029F637F6384
:109CB0007E5012D58C7F937E5012D67B7F237E51AF
:109CC00012D67B7F537E5112D67B90C72EE0FF12B7
:109CD000D7847B017AC779E990C8A4E4F0A304F0A3
:109CE0007F707E4012A8C67B017AC779EC90C8A429
:109CF000E4F0A304F07F807E4012A8C67B017AC7FF
:109D000079DF90C8A4E4F0A304F07F007E4112A89C
:109D1000C67B017AC779E490C8A4E4F0A304F07F7D
:109D2000107E4112A8C67B017AC8790F90C8A4E4BE
:109D3000F0A304F07F307E4112A8C67B017AC87977
:109D40001390C8A4E4F0A304F07F407E4112A8C69B
:109D50007B017AC779EF90C8A4E4F0A304F07F6098
:109D60007E4112A8C67B017AC779F190C8A4E4F0BD
:109D7000A304F07F707E4102A8C67F937E5112D566
:109D80008C7F137E5212D67B7F337E5212D67B7F1E
:109D9000537E5212D67B7F737E5212D67B7F937E88
:109DA0005212D67B90C778029F767F437E5312D59E
:109DB0008C7453FFFE12D67B90C782029F767F730E
:109DC0007E5312D58C7F837E5312D67B90C771024F
:109DD0009F767B017AC779F790C8A4E4F0A304F0DA
:109DE0007F307E4412A8C67B017AC779FD90C8A453
:109DF000E4F0A304F07F407E4412A8C67B017AC839
:109E0000790490C8A4E4F0A304F07F507E4412A823
:109E1000C67B017AC8790690C8A4E4F0A304F07F59
:109E2000707E4412A8C67B017AC8790C90C8A4E45D
:109E3000F0A304F07F807E4412A8C67B017AC87923
:109E40001190C8A4E4F0A304F07F907E4412A8C649
:109E50007B017AC779F590C8A4E4F0A304F07F10E1
:109E60007E4512A8C67B017AC779FB90C8A4E4F0AE
:109E7000A304F07F207E4512A8C67B017AC8790230
:109E800090C8A4E4F0A304F07F307E4512A8C690E9
:109E9000C7B3029F767F537E5512D58C7F637E5564
:109EA00012D67B7F737E5512D67B90C748029F7671
:109EB00090C7AA029F767F937E5512D58C7F037E32
:109EC0005612D67B7F137E5612D67B7F237E561288
:109ED000D67B7F337E5612D67B7F437E5612D67B4F
:109EE0007B017AC779C990C8A4E4F0A304F07F90FD
:109EF0007E4512A8C67B017AC779CB90C8A4E4F04E
:109F0000A304F07F007E4612A8C67B017AC779CDF4
:109F100090C8A4E4F0A304F07F107E4612A8C67B8C
:109F2000017AC779CF90C8A4E4F0A304F07F207E23
:109F30004612A8C67B017AC779D190C8A4E4F0A3E1
:109F400004F07F307E4612A8C67B017AC779D5908F
:109F5000C8A4E4F0A304F07F407E4612A8C690C7D0
:109F60001B801312D40A90C7E6E0FEA3E02491F50B
:0C9F70008274C73EF583E0FF12D7842204
:10CBB8007F037E1012D67B7F137E1012D67B7F33C5
:10CBC8007E1012D67B7F437E1012D67B7F537E1059
:10CBD80012D67B7F637E1012D67B7F737E1012D6AF
:10CBE8007B7F837E1012D67B7F137E1112D67B7FCC
:10CBF800337E1112D67B7F737E9212D67BE4FDFCC6
:06CC0800FF7E3002D4E5BE
:07C3EE0090C692E0FF7E0003
:10C3F50090C897EEF0A3EFF064014E70197F037EAD
:10C405001012D58C7F137E1012D58C7F337E1012BF
:10C41500D58C7D01803C90C897E07004A3E0640250
:10C42500700D7F437E1012D58C7F537E1080439014
:10C43500C897E07004A3E0640370207F637E101248
:10C44500D58C7F737E1012D58C7F837E1012D58C90
:10C455007D027C007F007E3002D4E590C897E070B5
:10C4650004A3E06404700E7F137E1112D58C7F3314
:06C475007E1112D58C229D
:04CDAF00AB07AA061E
:10CDB3007C007D3C128D5790C89BEEF0A3EFF0AE44
:10CDC30002AF037C007D3C128D57A3ECF0A3EDF082
:10CDD3007B017AC8799B90C8A4E4F0A304F07F1088
:10CDE3007E2112A8C67B017AC8799D90C8A4E4F07D
:0ACDF300A304F07F307E2102A8C6E1
:08CC0E0090C738E0FEA3E0FF2F
:04CC1600AB07AA06B8
:10CC1A007C007D3C128D5790C897EEF0A3EFF0AEE2
:10CC2A0002AF037C007D3C128D57A3ECF0A3EDF01C
:10CC3A007B017AC8799790C8A4E4F0A304F07F0036
:10CC4A007E3112A8C67B017AC8799990C8A4E4F00B
:0ACC5A00A304F07F007E3202A8C69A
:10D1920090C7377401F07F037E1112D58C7F137E06
:10D1A2001112D58C7F237E1112D58C7F337E111202
:10D1B200D58C7B017AC7793890C8A0E4F0A304F03B
:10D1C2007F067E8112A3A17DE87C037F0502D47FC6
:10D4A100E490C737F07F037E1112D67B7F137E1184
:10D4B10012D67B7F237E1112D67B7F337E1102D65B
:01D4C1007BEF
:10D10F0090C737E070077F037E1102D67B7F051231
:10D11F00D72DEF602C90C739E024FFF090C738E08F
:10D12F0034FFF012CC11D390C739E0940090C73878
:10D13F00E09400500302D4A17DE87C037F0512D454
:02D14F007F223D
:1095B000E490C899F0A3F07B017AC7794390C8A0E2
:1095C000F0A304F07F047E8112A3A17B017AC87905
:1095D0009990C8A0E4F0A304F07F007E8112A3A1BB
:1095E00090C899E0FAA3E0FB7C007D64FFAE021214
:1095F0008D5790C75BEEF0A3EFF07C007D0AAF03C0
:10960000AE02128D577C007D0A128D5790C723EC55
:10961000F0A3EDF090C899E0FEA3E0FF7C007D0A86
:10962000128D5790C787ECF0A3EDF07B017AC779D4
:109630005B90C8A4E4F0A304F07F007E2012A8C6CB
:109640007B017AC7792390C8A4E4F0A304F07F10CB
:109650007E2012A8C67B017AC7798790C8A4E4F05F
:10966000A304F07F307E2012A8C67B017AC7795B05
:1096700090C8A4E4F0A304F07F507E2112A8C67B1A
:10968000017AC7792390C8A4E4F0A304F07F607E38
:109690002112A8C67B017AC7798790C8A4E4F0A3F9
:1096A00004F07F707E2112A8C67B017AC879999058
:1096B000C8A0E4F0A304F07F027E8112A3A190C8A9
:1096C00099E0FAA3E0FB7C007D64FFAE02128D57A7
:1096D00090C73CEEF0A3EFF07C007D0AAF03AE0232
:1096E000128D577C007D0A128D5790C7B4ECF0A301
:1096F000EDF090C899E0FEA3E0FF7C007D0A128D9A
:109700005790C776ECF0A3EDF07B017AC7793C90D7
:10971000C8A4E4F0A304F07F607E2012A8C67B01F9
:109720007AC779B490C8A4E4F0A304F07F707E20D7
:1097300012A8C67B017AC7797690C8A4E4F0A30486
:10974000F07F807E2012A8C67B017AC7793C90C842
:10975000A4E4F0A304F07F607E2212A8C67B017A05
:10976000C779B490C8A4E4F0A304F07F707E2212FD
:10977000A8C67B017AC7797690C8A4E4F0A304F068
:109780007F807E2212A8C67B017AC7794590C8A047
:10979000E4F0A304F07F067E8112A3A190C745E008
:1097A000FEA3E0FF12CDAF90C899E0FAA3E0FB7CE6
:1097B000007D3CFFAE02128D5790C774EEF0A3EF10
:1097C000F07C007D3CAF03AE02128D5790C717ECC2
:1097D000F0A3EDF07B017AC7797490C8A4E4F0A3FC
:1097E0007402F07F107E2112A8C67B017AC7791718
:1097F00090C8A4E4F0A37402F07F207E2112A8C6D2
:109800007B017AC7797490C8A4E4F0A37402F07F56
:10981000707E2312A8C67B017AC7791790C8A4E48A
:10982000F0A37402F07F807E2312A8C67B017AC861
:10983000799990C8A0E4F0A304F07F087E8112A378
:10984000A190C899E0FAA3E0FB7C007D0AFFAE027C
:10985000128D577C007D0A128D5790C7B8ECF0A38B
:10986000EDF07C007D0AAF03AE02128D5790C779F0
:10987000ECF0A3EDF07B017AC779B890C8A4E4F0CE
:10988000A37402F07F907E2112A8C67B017AC7796B
:109890007990C8A4E4F0A37402F07F007E2212A89D
:1098A000C67B017AC8799990C8A0E4F0A304F07F40
:1098B0000A7E8112A3A190C899E0FAA3E0FB7C0084
:1098C0007D0AFFAE02128D577C007D0A128D5790E3
:1098D000C7A8ECF0A3EDF07C007D0AAF03AE021246
:1098E0008D5790C749ECF0A3EDF07B017AC779B8AA
:1098F00090C8A4E4F0A37402F07F007E2312A8C6EF
:109900007B017AC7797990C8A4E4F0A37402F07F50
:0D991000107E2312A8C67F737E9202D67BC4
:0801000090C873EEF0A3EFF0CC
:10010800E4A3F0A3F0A3F0A3F090C68CE0600DE4A4
:10011800FF12D72DEF6005E490C68CF090C873E00D
:10012800FEA3E0FF64014E6006EF64024E70099082
:10013800C68CE060030240527B017AC6799B90C866
:10014800A0E4F0A304F07F0C7E8012A3A190C69BCC
:10015800A3E0FF7C0030E0047D0180027D0090C8B0
:1001680079ECF0A3EDF0EF7E0030E1047F0180022E
:100178007F0090C87BEEF0A3EFF090C69BA3E0FF52
:100188007C0030E2047D0180027D0090C88BECF099
:10019800A3EDF0EF7E0030E3047F0180027F009042
:1001A800C88DEEF0A3EFF090C69BA3E0FF7C003073
:1001B800E4047D0180027D0090C88FECF0A3EDF08F
:1001C800EF7E0030E7047F0180027F0090C87DEE5B
:1001D800F0A3EFF090C69BE0FEEE7C0030E4047DD7
:1001E8000180027D0090C87FECF0A3EDF0EE7E0068
:1001F80030E0047F0180027F0090C881EEF0A3EF19
:10020800F090C69BA3E0FF7C0030E5047D018002EE
:100218007D0090C883ECF0A3EDF0EF7E0030E6049B
:100228007F0180027F0090C885EEF0A3EFF090C6B2
:100238009BE0FEEE7C0030E1047D0180027D0090B1
:10024800C887ECF0A3EDF0EE7E0030E2047F018079
:10025800027F0090C889EEF0A3EFF090C69BE0FE05
:10026800EE7C0030E3047D0180027D0090C891ECB3
:10027800F0A3EDF0EE7E0030E5047F0180027F0000
:1002880090C893EEF0A3EFF090C883E07004A3E069
:040298006401700B82
:09029C0090C89574C0F0A37444ED
:1002A500801D90C887E07004A3E0640190C8957034
:0102B5000840
:0602B6007405F0A3741CA6
:0202BC008006BA
:1002BE0074CEF0A37459F07B017AC8799590C8A4D6
:0C02CE00E4F0A304F07F237E1412A8C605
:0C02DA0090C885E07004A3E06401700B84
:0902E60090C89574C0F0A37444A3
:1002EF00801D90C889E07004A3E0640190C89570E8
:0102FF0008F6
:060300007405F0A3741C5B
:0203060080066F
:1003080074CEF0A37459F07B017AC8799590C8A48B
:0C031800E4F0A304F07F337E1412A8C6AA
:1003240090C881E07004A3E06401700F90C7B2E04C
:10033400700912D19290C7B27401F090C727E0B44B
:10034400182990C71CE07002A3E0701F7B017AC7D4
:10035400793890C8A0F0A304F07F067E8112A3A18F
:1003640012CC0E90C71CE4F0A304F090C879E0709E
:1003740004A3E06401600302042C90C741E070040C
:10038400A3E06401600302042C90C72FE0FF12D79E
:10039400847B017AC8797790C8A0E4F0A304F07F45
:1003A400067E8112A3A190C877E0FAA3E0FB7C004B
:1003B4007D3CFFAE02128D5790C774EEF0A3EFF0B0
:1003C4007C007D3CAF03AE02128D5790C717ECF052
:1003D400A3EDF07B017AC7797490C8A4E4F0A30478
:1003E400F07F107E2112A8C67B017AC7791790C8C6
:1003F400A4E4F0A304F07F307E2112A8C6E490C6E2
:1004040091F090C68DF0A3F090C699F0A3F090C639
:1004140092F090C741F0A3F090C7B2F090C71CF0DF
:10042400A3F012D4A10204E590C87DE07004A3E017
:100434006401602690C885E07004A3E06401601A3A
:1004440090C883E07004A3E064017002800C90C83B
:1004540081E07004A3E06401703012CBB890C7410E
:10046400E4F0A304F090C728E0FF12D784E490C618
:1004740091F090C68DF0A3F090C699F0A3F090C6C9
:1004840092F090C73EF0A3F0805790C889E07004C2
:10049400A3E06401600C90C887E07004A3E06401E9
:1004A400703F12CBB890C721E0FF12D78412D4A1B9
:1004B40090C738E07004A3E06401700990C738F075
:1004C400A3F012CC0EE490C691F090C68DF0A3F088
:1004D40090C699F0A3F090C692F090C741F0A3049F
:1004E400F090C873E0FEA3E0FFEE6003024052EF19
:1004F40024FE7003021C1314700302335D14700392
:10050400023F7E2403600302405290C699E07004C7
:10051400A3E064016003021A1D90C7E6E0FEA3E0B5
:1005240024ADF58274C73EF583E0FF90C727E06FE2
:10053400600302077E90C68EE060030205EE90C75A
:1005440087E0FEA3E0FF90C875EEF0A3EFF04E70D5
:100554000A90C787F0A37409F0800E90C788E0243E
:10056400FFF090C787E034FFF090C723E0FEA3E0DC
:10057400FF7C007D0A128D45AA06AB0790C75BE09D
:10058400FEA3E0FF7D64128D45EF2BFFEE3AFE9053
:10059400C788E02FFF90C787E03E90C877F0A3EFAD
:1005A400F090C7ECE0FEA3E0FF90C877E0FCA3E086
:1005B400FDD39FEC9E501190C7E9E0FEA3E0FFC37A
:1005C400ED9FEC9E4002800F90C875E0FFA3E09081
:1005D400C787CFF0A3EFF07B017AC7798790C8A4CF
:1005E400E4F0A304F07F7002193E90C68EE064012B
:1005F40060030206B690C723E0FEA3E0FF90C8752F
:10060400EEF0A3EFF04E700A90C723F0A37409F044
:10061400800E90C724E024FFF090C723E034FFF05D
:1006240090C723E0FEA3E0FF7C007D0A128D45AA5B
:1006340006AB0790C75BE0FEA3E0FF7D64128D4527
:10064400EF2BFFEE3AFE90C788E02FFF90C787E0BC
:100654003E90C877F0A3EFF090C7ECE0FEA3E0FF74
:1006640090C877E0FCA3E0FDD39FEC9E502290C796
:10067400E9E0FEA3E0FFC3ED9FEC9E40137B017A0B
:10068400C7792390C8A4E4F0A304F07F6002193E64
:1006940090C875E0FFA3E090C723CFF0A3EFF07BF1
:1006A400017AC7792390C8A4E4F0A304F07F600220
:1006B400193E90C68EE06402600302334E90C75B1D
:1006C400E0FEA3E0FF90C875EEF0A3EFF04E700AD1
:1006D40090C75BF0A37402F0800E90C75CE024FF27
:1006E400F090C75BE034FFF090C723E0FEA3E0FF87
:1006F4007C007D0A128D45AA06AB0790C75BE0FE1D
:10070400A3E0FF7D64128D45EF2BFFEE3AFE90C708
:1007140088E02FFF90C787E03E90C877F0A3EFF002
:1007240090C7ECE0FEA3E0FF90C877E0FCA3E0FDF7
:10073400D39FEC9E502290C7E9E0FEA3E0FFC3EDF7
:100744009FEC9E40137B017AC7795B90C8A4E4F0C8
:10075400A304F07F5002193E90C875E0FFA3E09017
:10076400C75BCFF0A3EFF07B017AC7795B90C8A495
:10077400E4F0A304F07F5002193E90C7E6E0FEA324
:10078400E024B6F58274C73EF583E0FF90C727E006
:100794006F60030208D690C68EE0600302083290B0
:1007A400C779E0FEA3E0FF90C875EEF0A3EFF04E2A
:1007B400700A90C779F0A37409F0800E90C77AE0AC
:1007C40024FFF090C779E034FFF090C7B8E0FEA3AF
:1007D400E0FF7C007D0A128D4590C77AE02FFF90E0
:1007E400C779E03E90C877F0A3EFF090C877E0FEB9
:1007F400A3E0FFD39450EE9400501BEF9400EE94CA
:100804000040137B017AC7797990C8A4E4F0A3046B
:10081400F07F0002193E90C875E0FFA3E090C7790D
:10082400CFF0A3EFF07B017AC7797902099590C6DE
:100834008EE06401600302334E90C7B8E0FEA3E08B
:10084400FF90C875EEF0A3EFF04E700A90C7B8F0B1
:10085400A37408F0800E90C7B9E024FFF090C7B8E5
:10086400E034FFF090C7B8E0FEA3E0FF7C007D0A0F
:10087400128D4590C77AE02FFF90C779E03E90C86B
:1008840077F0A3EFF090C877E0FEA3E0FFD3945095
:10089400EE9400501BEF9400EE940040137B017A19
:1008A400C779B890C8A4E4F0A304F07F9002193E7D
:1008B40090C875E0FFA3E090C7B8CFF0A3EFF07B3A
:1008C400017AC779B890C8A4E4F0A304F07F900239
:1008D400193E90C730E0FF90C727E06F6003020B1A
:1008E4003090C68EE060030209A290C693E0FEA396
:1008F400E0FF90C875EEF0A3EFF04E700A90C69337
:10090400F0A37402F0800E90C694E024FFF090C629
:1009140093E034FFF090C695E0FEA3E0FF7C007DF9
:100924000A128D45AA06AB0790C693E0FEA3E0FF2A
:100934007D64128D45EF2BFFEE3AFE90C698E02FB2
:10094400FF90C697E03E90C877F0A3EFF090C87789
:10095400E0FEA3E0FFD39432EE9400501FEF940026
:10096400EE9400401790C693E0FFA3E090C79ACF9F
:10097400F0A3EFF07B017AC67993801590C875E0F7
:10098400FFA3E090C693CFF0A3EFF07B017AC67982
:100994009390C8A4E4F0A304F07F00020D9E90C6D7
:1009A4008EE064016003020A6C90C695E0FEA3E049
:1009B400FF90C875EEF0A3EFF04E700A90C695F064
:1009C400A37405F0800E90C696E024FFF090C695BF
:1009D400E034FFF090C695E0FEA3E0FF7C007D0AC2
:1009E400128D45AA06AB0790C693E0FEA3E0FF7DF7
:1009F40064128D45EF2BFFEE3AFE90C698E02FFF70
:100A040090C697E03E90C877F0A3EFF090C877E0E7
:100A1400FEA3E0FFD39432EE9400502AEF9400EE4C
:100A24009400402290C695E0FFA3E090C762CFF007
:100A3400A3EFF07B017AC6799590C8A4E4F0A304EF
:100A4400F07F10020D9E90C875E0FFA3E090C6955C
:100A5400CFF0A3EFF07B017AC6799590C8A4E4F0B7
:100A6400A304F07F10020D9E90C68EE06402600322
:100A740002334E90C697E0FEA3E0FF90C875EEF0F7
:100A8400A3EFF04E700A90C697F0A37409F0800E9D
:100A940090C698E024FFF090C697E034FFF090C62B
:100AA40095E0FEA3E0FF7C007D0A128D45AA06AB0B
:100AB4000790C693E0FEA3E0FF7D64128D45EF2B03
:100AC400FFEE3AFE90C697E0FCA3E0FD2FFFEC3E5C
:100AD40090C877F0A3EFF090C877E0FEA3E0FFD3CF
:100AE4009432EE94005023EF9400EE9400401B9057
:100AF400C74FECF0A3EDF07B017AC6799790C8A4B8
:100B0400E4F0A304F07F20020D9E90C875E0FFA3DB
:100B1400E090C697CFF0A3EFF07B017AC679979067
:100B2400C8A4E4F0A304F07F20020D9E90C7E6E081
:100B3400FEA3E02493F58274C73EF583E0FF90C7DB
:100B440027E06F6003020DA390C68EE06003020CE1
:100B54001290C776E0FEA3E0FF90C875EEF0A3EF15
:100B6400F04E700A90C776F0A37409F0800E90C717
:100B740077E024FFF090C776E034FFF090C7B4E04C
:100B8400FEA3E0FF7C007D0A128D45AA06AB079008
:100B9400C73CE0FEA3E0FF7D64128D45EF2BFFEE22
:100BA4003AFE90C777E02FFF90C776E03E90C87773
:100BB400F0A3EFF090C7E4E0FEA3E0FF90C877E075
:100BC400FCA3E0FDD39FEC9E502290C7DFE0FEA380
:100BD400E0FFC3ED9FEC9E40137B017AC7797690CA
:100BE400C8A4E4F0A304F07F80020D9E90C875E0D1
:100BF400FFA3E090C776CFF0A3EFF07B017AC7792B
:100C04007690C8A4E4F0A304F07F80020D9E90C601
:100C14008EE064016003020CDA90C7B4E0FEA3E046
:100C2400FF90C875EEF0A3EFF04E700A90C7B4F0D1
:100C3400A37409F0800E90C7B5E024FFF090C7B408
:100C4400E034FFF090C7B4E0FEA3E0FF7C007D0A2F
:100C5400128D45AA06AB0790C73CE0FEA3E0FF7DDA
:100C640064128D45EF2BFFEE3AFE90C777E02FFF1D
:100C740090C776E03E90C877F0A3EFF090C7E4E029
:100C8400FEA3E0FF90C877E0FCA3E0FDD39FEC9EB9
:100C9400502290C7DFE0FEA3E0FFC3ED9FEC9E402F
:100CA400137B017AC779B490C8A4E4F0A304F07F5D
:100CB40070020D9E90C875E0FFA3E090C7B4CFF01A
:100CC400A3EFF07B017AC779B490C8A4E4F0A3043D
:100CD400F07F70020D9E90C68EE0640260030233C2
:100CE4004E90C73CE0FEA3E0FF90C875EEF0A3EF82
:100CF400F04E700A90C73CF0A37402F0800E90C7C7
:100D04003DE024FFF090C73CE034FFF090C7B4E02E
:100D1400FEA3E0FF7C007D0A128D45AA06AB079076
:100D2400C73CE0FEA3E0FF7D64128D45EF2BFFEE90
:100D34003AFE90C777E02FFF90C776E03E90C877E1
:100D4400F0A3EFF090C7E4E0FEA3E0FF90C877E0E3
:100D5400FCA3E0FDD39FEC9E502190C7DFE0FEA3EF
:100D6400E0FFC3ED9FEC9E40127B017AC7793C9073
:100D7400C8A4E4F0A304F07F60801F90C875E0FF6E
:100D8400A3E090C73CCFF0A3EFF07B017AC7793C96
:100D940090C8A4E4F0A304F07F607E22021A1790A6
:100DA400C7E6E0FEA3E024ABF58274C73EF583E01A
:100DB400FF90C727E06F6003020F0D90C68EE060BE
:100DC40003020E6590C749E0FEA3E0FF90C875EEEC
:100DD400F0A3EFF04E700A90C749F0A37409F080B5
:100DE4000E90C74AE024FFF090C749E034FFF0902A
:100DF400C7A8E0FEA3E0FF7C007D0A128D4590C7E2
:100E04004AE02FFF90C749E03E90C877F0A3EFF087
:100E140090C877E0FEA3E0FFD39450EE9400501DF9
:100E2400EF9400EE940040157B017AC7794990C88D
:100E3400A4E4F0A304F07F107E23021A1790C8756F
:100E4400E0FFA3E090C749CFF0A3EFF07B017AC79E
:100E5400794990C8A4E4F0A304F07F107E23021A19
:100E64001790C68EE06401600302334E90C7A8E079
:100E7400FEA3E0FF90C875EEF0A3EFF04E700A9069
:100E8400C7A8F0A37408F0800E90C7A9E024FFF06F
:100E940090C7A8E034FFF090C7A8E0FEA3E0FF7C71
:100EA400007D0A128D4590C74AE02FFF90C749E0A4
:100EB4003E90C877F0A3EFF090C877E0FEA3E0FF80
:100EC400D39450EE9400501DEF9400EE940040151E
:100ED4007B017AC779A890C8A4E4F0A304F07F004A
:100EE4007E23021A1790C875E0FFA3E090C7A8CF2D
:100EF400F0A3EFF07B017AC779A890C8A4E4F0A32B
:100F040004F07F007E23021A1790C722E0FF90C7E7
:100F140027E06F600302117E90C68EE06003020F2B
:100F2400E890C693E0FEA3E0FF90C875EEF0A3EF4F
:100F3400F064024E700890C693F0A3F0800E90C641
:100F440094E024FFF090C693E034FFF090C695E05F
:100F5400FEA3E0FF7C007D0A128D45AA06AB079034
:100F6400C693E0FEA3E0FF7D64128D45EF2BFFEEF8
:100F74003AFE90C698E02FFF90C697E03E90C8775F
:100F8400F0A3EFF090C877E0FEA3E0FFD39432EE35
:100F94009400502CEF9400EE9400402490C693E00B
:100FA400FFA3E090C7A0CFF0A3EFF07B017AC6794E
:100FB4009390C8A4E4F0A304F07F007E25021A17DE
:100FC40090C875E0FFA3E090C693CFF0A3EFF07B49
:100FD400017AC6799390C8A4E4F0A304F07F007E5C
:100FE40025021A1790C68EE0640160030210B690C1
:100FF400C695E0FEA3E0FF90C875EEF0A3EFF04EB7
:10100400700A90C695F0A37405F0800E90C696E021
:1010140024FFF090C695E034FFF090C695E0FEA35F
:10102400E0FF7C007D0A128D45AA06AB0790C693AB
:10103400E0FEA3E0FF7D64128D45EF2BFFEE3AFE48
:1010440090C698E02FFF90C697E03E90C877F0A333
:10105400EFF090C877E0FEA3E0FFD39432EE940063
:10106400502CEF9400EE9400402490C695E0FFA32A
:10107400E090C768CFF0A3EFF07B017AC679959032
:10108400C8A4E4F0A304F07F107E25021A1790C8C8
:1010940075E0FFA3E090C695CFF0A3EFF07B017A53
:1010A400C6799590C8A4E4F0A304F07F107E2502CD
:1010B4001A1790C68EE06402600302334E90C697FE
:1010C400E0FEA3E0FF90C875EEF0A3EFF04E700AC7
:1010D40090C697F0A37409F0800E90C698E024FFA0
:1010E400F090C697E034FFF090C695E0FEA3E0FFD1
:1010F4007C007D0A128D45AA06AB0790C693E0FEDC
:10110400A3E0FF7D64128D45EF2BFFEE3AFE90C6FF
:1011140097E0FCA3E0FD2FFFEC3E90C877F0A3EF2F
:10112400F090C877E0FEA3E0FFD39432EE94005031
:1011340025EF9400EE9400401D90C755ECF0A3ED0C
:10114400F07B017AC6799790C8A4E4F0A304F07FF9
:10115400207E25021A1790C875E0FFA3E090C69779
:10116400CFF0A3EFF07B017AC6799790C8A4E4F09E
:10117400A304F07F207E25021A1790C7E6E0FEA3A1
:10118400E024A6F58274C73EF583E0FF90C727E00C
:101194006F600302131390C68EE0600302125F9027
:1011A400C774E0FEA3E0FF90C875EEF0A3EFF04E25
:1011B400701D90C717E07002A3E090C7746008E444
:1011C400F0A3743BF08016E4F0A3743CF0800E901E
:1011D400C775E024FFF090C774E034FFF090C77443
:1011E400E0FEA3E0FF7C007D3C128D4590C718E033
:1011F4002FFF90C717E03E90C877F0A3EFF090C799
:10120400F1E0FEA3E0FF90C877E0FCA3E0FDD39FEC
:10121400EC9E502390C7EFE0FEA3E0FFED9FEC9E11
:1012240040157B017AC7797490C8A4E4F0A304F054
:101234007F707E23021A1790C875E0FFA3E090C761
:1012440074CFF0A3EFF07B017AC7797490C8A4E45B
:10125400F0A304F07F707E23021A1790C68EE06418
:1012640001600302334E90C717E0FEA3E0FF90C86D
:1012740075EEF0A3EFF04E700A90C717F0A3743B1D
:10128400F0800E90C718E024FFF090C717E034FFF9
:10129400F090C774E0FEA3E0FF7C007D3C128D4516
:1012A40090C718E02FFF90C717E03E90C877F0A3CF
:1012B400EFF090C7F1E0FEA3E0FF90C877E0FCA355
:1012C400E0FDD39FEC9E502390C7EFE0FEA3E0FF28
:1012D400ED9FEC9E40157B017AC7791790C8A4E472
:1012E400F0A304F07F807E23021A1790C875E0FFF4
:1012F400A3E090C717CFF0A3EFF07B017AC779176B
:1013040090C8A4E4F0A304F07F807E23021A17900F
:10131400C7E6E0FEA3E0247FF58274C73EF583E0D0
:10132400FF90C727E06F704290C68EE060030233DF
:101334004E90C80FE0FEA3E0FFD390C744E09F9017
:10134400C743E09E500302334EA3E024FFF090C74E
:1013540043E034FFF07B017AC7794390C8A4E4F0FA
:10136400A304F07F007E24021A1790C71EE0FF90AA
:10137400C727E06F600302334E90C692E0640160B9
:10138400030215EA90C68EE0600302145290C787E8
:10139400E0FEA3E0FF90C875EEF0A3EFF04E700AF4
:1013A40090C787F0A37409F0800E90C788E024FFEB
:1013B400F090C787E034FFF090C723E0FEA3E0FF7E
:1013C4007C007D0A128D45AA06AB0790C75BE0FE40
:1013D400A3E0FF7D64128D45EF2BFFEE3AFE90C72C
:1013E40088E02FFF90C787E03E90C877F0A3EFF026
:1013F40090C7ECE0FEA3E0FF90C877E0FCA3E0FD1B
:10140400D39FEC9E502490C7E9E0FEA3E0FFC3ED18
:101414009FEC9E40157B017AC7798790C8A4E4F0BD
:10142400A304F07F307E20021A1790C875E0FFA352
:10143400E090C787CFF0A3EFF07B017AC77987905C
:10144400C8A4E4F0A304F07F307E20021A1790C6EB
:101454008EE06401600302151E90C723E0FEA3E042
:10146400FF90C875EEF0A3EFF04E700A90C723F01A
:10147400A37409F0800E90C724E024FFF090C723E2
:10148400E034FFF090C723E0FEA3E0FF7C007D0A78
:10149400128D45AA06AB0790C75BE0FEA3E0FF7D73
:1014A40064128D45EF2BFFEE3AFE90C788E02FFFC4
:1014B40090C787E03E90C877F0A3EFF090C7ECE0C8
:1014C400FEA3E0FF90C877E0FCA3E0FDD39FEC9E71
:1014D400502490C7E9E0FEA3E0FFC3ED9FEC9E40DB
:1014E400157B017AC7792390C8A4E4F0A304F07FA4
:1014F400107E20021A1790C875E0FFA3E090C7235E
:10150400CFF0A3EFF07B017AC7792390C8A4E4F06D
:10151400A304F07F107E20021A1790C68EE06402A6
:10152400600302334E90C75BE0FEA3E0FF90C875F2
:10153400EEF0A3EFF04E700A90C75BF0A37402F0D4
:10154400800E90C75CE024FFF090C75BE034FFF0AE
:1015540090C723E0FEA3E0FF7C007D0A128D45AA1C
:1015640006AB0790C75BE0FEA3E0FF7D64128D45E8
:10157400EF2BFFEE3AFE90C788E02FFF90C787E07D
:101584003E90C877F0A3EFF090C7ECE0FEA3E0FF35
:1015940090C877E0FCA3E0FDD39FEC9E502490C755
:1015A400E9E0FEA3E0FFC3ED9FEC9E40157B017ACA
:1015B400C7795B90C8A4E4F0A304F07F007E200206
:1015C4001A1790C875E0FFA3E090C75BCFF0A3EFB4
:1015D400F07B017AC7795B90C8A4E4F0A304F07FA0
:1015E400007E20021A1790C692E0B4023990C80F08
:1015F400E0FEA3E0FFD390C744E09F90C743E09E82
:10160400500302334EA3E024FFF090C743E034FFBD
:10161400F07B017AC7794390C8A4E4F0A304F07F77
:10162400507E20021A1790C692E0640360030218E9
:101634009790C68EE060030216FF90C776E0FEA383
:10164400E0FF90C875EEF0A3EFF04E700A90C776F5
:10165400F0A37409F0800E90C777E024FFF090C7E0
:1016640076E034FFF090C7B4E0FEA3E0FF7C007D99
:101674000A128D45AA06AB0790C73CE0FEA3E0FF23
:101684007D64128D45EF2BFFEE3AFE90C777E02F75
:10169400FF90C776E03E90C877F0A3EFF090C7E4E0
:1016A400E0FEA3E0FF90C877E0FCA3E0FDD39FEC4D
:1016B4009E502490C7DFE0FEA3E0FFC3ED9FEC9EA5
:1016C40040157B017AC7797690C8A4E4F0A304F0AE
:1016D4007F807E20021A1790C875E0FFA3E090C7B0
:1016E40076CFF0A3EFF07B017AC7797690C8A4E4B3
:1016F400F0A304F07F807E20021A1790C68EE06467
:101704000160030217CB90C7B4E0FEA3E0FF90C8CA
:1017140075EEF0A3EFF04E700A90C7B4F0A374090D
:10172400F0800E90C7B5E024FFF090C7B4E034FF1A
:10173400F090C7B4E0FEA3E0FF7C007D0A128D4563
:10174400AA06AB0790C73CE0FEA3E0FF7D64128DC0
:1017540045EF2BFFEE3AFE90C777E02FFF90C77658
:10176400E03E90C877F0A3EFF090C7E4E0FEA3E07A
:10177400FF90C877E0FCA3E0FDD39FEC9E5024903B
:10178400C7DFE0FEA3E0FFC3ED9FEC9E40157B01A5
:101794007AC779B490C8A4E4F0A304F07F707E20E3
:1017A400021A1790C875E0FFA3E090C7B4CFF0A366
:1017B400EFF07B017AC779B490C8A4E4F0A304F0F5
:1017C4007F707E20021A1790C68EE06402600302C6
:1017D400334E90C73CE0FEA3E0FF90C875EEF0A343
:1017E400EFF04E700A90C73CF0A37402F0800E90A4
:1017F400C73DE024FFF090C73CE034FFF090C7B44D
:10180400E0FEA3E0FF7C007D0A128D45AA06AB072B
:1018140090C73CE0FEA3E0FF7D64128D45EF2BFFF3
:10182400EE3AFE90C777E02FFF90C776E03E90C86F
:1018340077F0A3EFF090C7E4E0FEA3E0FF90C87751
:10184400E0FCA3E0FDD39FEC9E502490C7DFE0FEB4
:10185400A3E0FFC3ED9FEC9E40157B017AC7793C62
:1018640090C8A4E4F0A304F07F607E20021A1790CD
:10187400C875E0FFA3E090C73CCFF0A3EFF07B0175
:101884007AC7793C90C8A4E4F0A304F07F607E207A
:10189400021A1790C692E06404600302334E90C6A5
:1018A4008EE0600302196790C774E0FEA3E0FF9026
:1018B400C875EEF0A3EFF04E701D90C717E07002EC
:1018C400A3E090C7746008E4F0A3743BF08016E4CE
:1018D400F0A3743CF0800E90C775E024FFF090C72D
:1018E40074E034FFF090C774E0FEA3E0FF7C007D59
:1018F4003C128D4590C718E02FFF90C717E03E902B
:10190400C877F0A3EFF090C7F1E0FEA3E0FF90C822
:1019140077E0FCA3E0FDD39FEC9E502390C7EFE05B
:10192400FEA3E0FFED9FEC9E40157B017AC779741E
:1019340090C8A4E4F0A304F07F107E21021A17904B
:10194400C875E0FFA3E090C774CFF0A3EFF07B016C
:101954007AC7797490C8A4E4F0A304F07F107E21C0
:10196400021A1790C68EE06401600302334E90C7DA
:1019740017E0FEA3E0FF90C875EEF0A3EFF04E7001
:101984000A90C717F0A3743BF0800E90C718E024A8
:10199400FFF090C717E034FFF090C774E0FEA3E0B7
:1019A400FF7C007D3C128D4590C718E02FFF90C747
:1019B40017E03E90C877F0A3EFF090C7F1E0FEA3E4
:1019C400E0FF90C877E0FCA3E0FDD39FEC9E50229B
:1019D40090C7EFE0FEA3E0FFED9FEC9E40147B0177
:1019E4007AC7791790C8A4E4F0A304F07F307E216D
:1019F400802190C875E0FFA3E090C717CFF0A3EF54
:101A0400F07B017AC7791790C8A4E4F0A304F07FAF
:101A1400307E2112A8C602334E90C691E064017054
:101A24002890C699E07002A3E0600302334E12CB03
:101A3400B890C692E0B401057404F0800690C69292
:101A4400E014F012C3EE02334E90C7E6E0FEA3E0CA
:101A5400FF2483F58274C73EF583E0FD90C727E039
:101A6400FCD39D401374912FF58274C73EF583E037
:101A7400FFECD39F5002807090C7E6E0FEA3E0FF26
:101A84002483F58274C73EF583E0FD90C727E0B553
:101A9400051274912FF58274C73EF583E0FF90C759
:101AA40027F0804C90C68FE06401704990C75DE0D8
:101AB400FF90C727E0B5071290C7E6E0FEA3E02435
:101AC4003AF58274C73EF583807590C7E6E0FEA3BD
:101AD400E02433F58274C73EF583E0FF90C727E026
:101AE400B5070590C75D805790C727E014F0E0FF65
:101AF40012D292806490C690E06401704990C7E667
:101B0400E0FEA3E02425F58274C73EF583E0FF9050
:101B1400C727E0B5070590C75D802490C75DE0FF47
:101B240090C727E0B5071290C7E6E0FEA3E0243192
:101B3400F58274C73EF583800690C727E014F0E071
:101B4400FF12D784801390C740E0FF90C727E0B509
:101B540007077F017E0012D3D790C72EE0FF90C7FE
:101B640027E0B5070E90C873E0FEA3E0FF1290CC07
:101B740002334E90C778E0FF90C727E0B5070E9078
:101B8400C873E0FEA3E0FF12B5CF02334E90C782C4
:101B9400E0FF90C727E0B5070E90C873E0FEA3E00E
:101BA400FF12B7DB02334E90C771E0FF90C727E006
:101BB400B5070E90C873E0FEA3E0FF12C89D023380
:101BC4004E90C748E0FF90C727E0B5070E90C87352
:101BD400E0FEA3E0FF12C66902334E90C71BE0FF8C
:101BE40090C727E0B5070E90C873E0FEA3E0FF128C
:101BF4007B6002334E90C781E0FF90C727E0B507B2
:101C04000B90C873E0FEA3E0FF12B07602334E904F
:101C1400C699E07004A3E06401600302314D90C7EB
:101C2400E6E0FEA3E024ADF58274C73EF583E0FF51
:101C340090C727E06F6003021E8690C68EE06003A3
:101C4400021CF490C787E0FEA3E0FF90C875EEF095
:101C5400A3EFF064094E601090C788E004F0700FA1
:101C640090C787E004F08007E490C787F0A3F09062
:101C7400C723E0FEA3E0FF7C007D0A128D45AA067F
:101C8400AB0790C75BE0FEA3E0FF7D64128D45EFD8
:101C94002BFFEE3AFE90C788E02FFF90C787E03E07
:101CA40090C877F0A3EFF090C7ECE0FEA3E0FF90BC
:101CB400C877E0FCA3E0FDD39FEC9E501190C7E9E8
:101CC400E0FEA3E0FFC3ED9FEC9E4002800F90C8AE
:101CD40075E0FFA3E090C787CFF0A3EFF07B017A14
:101CE400C7798790C8A4E4F0A304F07F7002306D34
:101CF40090C68EE064016003021DBD90C723E0FE20
:101D0400A3E0FF90C875EEF0A3EFF064094E6010F5
:101D140090C724E004F0700F90C723E004F080071C
:101D2400E490C723F0A3F090C723E0FEA3E0FF7C78
:101D3400007D0A128D45AA06AB0790C75BE0FEA39F
:101D4400E0FF7D64128D45EF2BFFEE3AFE90C788CD
:101D5400E02FFF90C787E03E90C877F0A3EFF090A4
:101D6400C7ECE0FEA3E0FF90C877E0FCA3E0FDD35E
:101D74009FEC9E502290C7E9E0FEA3E0FFC3ED9FD5
:101D8400EC9E40137B017AC7792390C8A4E4F0A3A6
:101D940004F07F6002306D90C875E0FFA3E090C747
:101DA40023CFF0A3EFF07B017AC7792390C8A4E492
:101DB400F0A304F07F6002306D90C68EE064026090
:101DC4000302334E90C75BE0FEA3E0FF90C875EEBC
:101DD400F0A3EFF064024E601090C75CE004F07072
:101DE4000F90C75BE004F08007E490C75BF0A3F0BA
:101DF40090C723E0FEA3E0FF7C007D0A128D45AA74
:101E040006AB0790C75BE0FEA3E0FF7D64128D453F
:101E1400EF2BFFEE3AFE90C788E02FFF90C787E0D4
:101E24003E90C877F0A3EFF090C7ECE0FEA3E0FF8C
:101E340090C877E0FCA3E0FDD39FEC9E502290C7AE
:101E4400E9E0FEA3E0FFC3ED9FEC9E40137B017A23
:101E5400C7795B90C8A4E4F0A304F07F5002306D0E
:101E640090C875E0FFA3E090C75BCFF0A3EFF07BD1
:101E7400017AC7795B90C8A4E4F0A304F07F500210
:101E8400306D90C7E6E0FEA3E024B6F58274C73E49
:101E9400F583E0FF90C727E06F6003021FCE90C672
:101EA4008EE06003021F2A90C779E0FEA3E0FF9052
:101EB400C875EEF0A3EFF064094E601090C77AE0A5
:101EC40004F0700F90C779E004F08007E490C779BC
:101ED400F0A3F090C7B8E0FEA3E0FF7C007D0A12F7
:101EE4008D4590C77AE02FFF90C779E03E90C87780
:101EF400F0A3EFF090C877E0FEA3E0FFD39450EE98
:101F04009400500AEF9400EE94004002800F90C8B1
:101F140075E0FFA3E090C779CFF0A3EFF07B017ADF
:101F2400C7797902208D90C68EE064016003023384
:101F34004E90C7B8E0FEA3E0FF90C875EEF0A3EFA3
:101F4400F064084E700890C7B8F0A3F0800E90C7F4
:101F5400B9E004F0700690C7B8E004F090C7B8E0A8
:101F6400FEA3E0FF7C007D0A128D4590C77AE02F26
:101F7400FF90C779E03E90C877F0A3EFF090C87760
:101F8400E0FEA3E0FFD39450EE9400501BEF9400C6
:101F9400EE940040137B017AC779B890C8A4E4F0AA
:101FA400A304F07F9002306D90C875E0FFA3E09029
:101FB400C7B8CFF0A3EFF07B017AC779B890C8A473
:101FC400E4F0A304F07F9002306D90C730E0FF90FE
:101FD400C727E06F600302222890C68EE0600302E8
:101FE400209A90C693E0FEA3E0FF90C875EEF0A39C
:101FF400EFF064094E700890C693F0A3F0800E9041
:10200400C694E004F0700690C693E004F090C69580
:10201400E0FEA3E0FF7C007D0A128D45AA06AB0713
:1020240090C693E0FEA3E0FF7D64128D45EF2BFF85
:10203400EE3AFE90C698E02FFF90C697E03E90C817
:1020440077F0A3EFF090C877E0FEA3E0FFD39432DB
:10205400EE9400501FEF9400EE9400401790C69346
:10206400E0FFA3E090C79ACFF0A3EFF07B017AC61C
:102074007993801590C875E0FFA3E090C693CFF0E4
:10208400A3EFF07B017AC6799390C8A4E4F0A3048B
:10209400F07F0002249990C68EE06401600302215F
:1020A4006490C695E0FEA3E0FF90C875EEF0A3EF40
:1020B400F064054E700890C695F0A3F0800E90C6AB
:1020C40096E004F0700690C695E004F090C695E0A2
:1020D400FEA3E0FF7C007D0A128D45AA06AB0790A3
:1020E400C693E0FEA3E0FF7D64128D45EF2BFFEE67
:1020F4003AFE90C698E02FFF90C697E03E90C877CE
:10210400F0A3EFF090C877E0FEA3E0FFD39432EEA3
:102114009400502AEF9400EE9400402290C695E07B
:10212400FFA3E090C762CFF0A3EFF07B017AC679FA
:102134009590C8A4E4F0A304F07F1002249990C8F9
:1021440075E0FFA3E090C695CFF0A3EFF07B017A92
:10215400C6799590C8A4E4F0A304F07F10022499F2
:1021640090C68EE06402600302334E90C697E0FE90
:10217400A3E0FF90C875EEF0A3EFF064094E700879
:1021840090C697F0A3F0800E90C698E004F0700615
:1021940090C697E004F090C695E0FEA3E0FF7C00B3
:1021A4007D0A128D45AA06AB0790C693E0FEA3E014
:1021B400FF7D64128D45EF2BFFEE3AFE90C697E04B
:1021C400FCA3E0FD2FFFEC3E90C877F0A3EFF09066
:1021D400C877E0FEA3E0FFD39432EE94005023EFDF
:1021E4009400EE9400401B90C74FECF0A3EDF07BFD
:1021F400017AC6799790C8A4E4F0A304F07F200282
:10220400249990C875E0FFA3E090C697CFF0A3EFA0
:10221400F07B017AC6799790C8A4E4F0A304F07F18
:102224002002249990C7E6E0FEA3E02493F582748B
:10223400C73EF583E0FF90C727E06F600302249E4A
:1022440090C68EE0600302230B90C776E0FEA3E005
:10225400FF90C875EEF0A3EFF064094E601090C7CC
:1022640077E004F0700F90C776E004F08007E49004
:10227400C776F0A3F090C7B4E0FEA3E0FF7C007D36
:102284000A128D45AA06AB0790C73CE0FEA3E0FF07
:102294007D64128D45EF2BFFEE3AFE90C777E02F59
:1022A400FF90C776E03E90C877F0A3EFF090C7E4C4
:1022B400E0FEA3E0FF90C877E0FCA3E0FDD39FEC31
:1022C4009E502290C7DFE0FEA3E0FFC3ED9FEC9E8B
:1022D40040137B017AC7797690C8A4E4F0A304F094
:1022E4007F8002249990C875E0FFA3E090C776CF61
:1022F400F0A3EFF07B017AC7797690C8A4E4F0A349
:1023040004F07F8002249990C68EE0640160030289
:1023140023D490C7B4E0FEA3E0FF90C875EEF0A309
:10232400EFF064094E601090C7B5E004F0700F90B0
:10233400C7B4E004F08007E490C7B4F0A3F090C7FA
:10234400B4E0FEA3E0FF7C007D0A128D45AA06AB33
:102354000790C73CE0FEA3E0FF7D64128D45EF2BA0
:10236400FFEE3AFE90C777E02FFF90C776E03E90ED
:10237400C877F0A3EFF090C7E4E0FEA3E0FF90C8B5
:1023840077E0FCA3E0FDD39FEC9E502290C7DFE0F2
:10239400FEA3E0FFC3ED9FEC9E40137B017AC77957
:1023A400B490C8A4E4F0A304F07F7002249990C808
:1023B40075E0FFA3E090C7B4CFF0A3EFF07B017A00
:1023C400C779B490C8A4E4F0A304F07F7002249900
:1023D40090C68EE06402600302334E90C73CE0FE78
:1023E400A3E0FF90C875EEF0A3EFF064024E601016
:1023F40090C73DE004F0700F90C73CE004F0800704
:10240400E490C73CF0A3F090C7B4E0FEA3E0FF7CE7
:10241400007D0A128D45AA06AB0790C73CE0FEA3D7
:10242400E0FF7D64128D45EF2BFFEE3AFE90C777F7
:10243400E02FFF90C776E03E90C877F0A3EFF090CE
:10244400C7E4E0FEA3E0FF90C877E0FCA3E0FDD37F
:102454009FEC9E502190C7DFE0FEA3E0FFC3ED9FF9
:10246400EC9E40127B017AC7793C90C8A4E4F0A3A7
:1024740004F07F60801F90C875E0FFA3E090C73C24
:10248400CFF0A3EFF07B017AC7793C90C8A4E4F0C5
:10249400A304F07F607E2202314790C7E6E0FEA3EA
:1024A400E024ABF58274C73EF583E0FF90C727E0D4
:1024B4006F600302260890C68EE0600302256090D8
:1024C400C749E0FEA3E0FF90C875EEF0A3EFF06407
:1024D400094E700890C749F0A3F0800E90C74AE0F7
:1024E40004F0700690C749E004F090C7A8E0FEA38A
:1024F400E0FF7C007D0A128D4590C74AE02FFF90D3
:10250400C749E03E90C877F0A3EFF090C877E0FEAB
:10251400A3E0FFD39450EE9400501DEF9400EE948A
:102524000040157B017AC7794990C8A4E4F0A3045C
:10253400F07F107E2302314790C875E0FFA3E0903E
:10254400C749CFF0A3EFF07B017AC7794990C8A4BB
:10255400E4F0A304F07F107E2302314790C68EE09E
:102564006401600302334E90C7A8E0FEA3E0FF902D
:10257400C875EEF0A3EFF064084E700890C7A8F099
:10258400A3F0800E90C7A9E004F0700690C7A8E0FD
:1025940004F090C7A8E0FEA3E0FF7C007D0A128D42
:1025A4004590C74AE02FFF90C749E03E90C877F0B6
:1025B400A3EFF090C877E0FEA3E0FFD39450EE942D
:1025C40000501DEF9400EE940040157B017AC7790A
:1025D400A890C8A4E4F0A304F07F007E230231474E
:1025E40090C875E0FFA3E090C7A8CFF0A3EFF07BFD
:1025F400017AC779A890C8A4E4F0A304F07F007E10
:102604002302314790C722E0FF90C727E06F6003A1
:1026140002287990C68EE060030226E390C693E018
:10262400FEA3E0FF90C875EEF0A3EFF064094E70CE
:102634000890C693F0A3F0800E90C694E004F07066
:102644000690C693E004F090C695E0FEA3E0FF7CFC
:10265400007D0A128D45AA06AB0790C693E0FEA33F
:10266400E0FF7D64128D45EF2BFFEE3AFE90C69895
:10267400E02FFF90C697E03E90C877F0A3EFF0906C
:10268400C877E0FEA3E0FFD39432EE9400502CEF21
:102694009400EE9400402490C693E0FFA3E090C71A
:1026A400A0CFF0A3EFF07B017AC6799390C8A4E49D
:1026B400F0A304F07F007E2502314790C875E0FF47
:1026C400A3E090C693CFF0A3EFF07B017AC6799391
:1026D40090C8A4E4F0A304F07F007E250231479063
:1026E400C68EE0640160030227B190C695E0FEA3A4
:1026F400E0FF90C875EEF0A3EFF064054E7008900B
:10270400C695F0A3F0800E90C696E004F070069093
:10271400C695E004F090C695E0FEA3E0FF7C007D42
:102724000A128D45AA06AB0790C693E0FEA3E0FF0C
:102734007D64128D45EF2BFFEE3AFE90C698E02F94
:10274400FF90C697E03E90C877F0A3EFF090C8776B
:10275400E0FEA3E0FFD39432EE9400502CEF9400FB
:10276400EE9400402490C695E0FFA3E090C768CFA4
:10277400F0A3EFF07B017AC6799590C8A4E4F0A3A6
:1027840004F07F107E2502314790C875E0FFA3E076
:1027940090C695CFF0A3EFF07B017AC6799590C8E7
:1027A400A4E4F0A304F07F107E2502314790C68E86
:1027B400E06402600302334E90C697E0FEA3E0FF9C
:1027C40090C875EEF0A3EFF064094E700890C697B8
:1027D400F0A3F0800E90C698E004F0700690C697BF
:1027E400E004F090C695E0FEA3E0FF7C007D0A12B1
:1027F4008D45AA06AB0790C693E0FEA3E0FF7D6477
:10280400128D45EF2BFFEE3AFE90C697E0FCA3E055
:10281400FD2FFFEC3E90C877F0A3EFF090C877E06F
:10282400FEA3E0FFD39432EE94005025EF9400EE23
:102834009400401D90C755ECF0A3EDF07B017AC6DF
:10284400799790C8A4E4F0A304F07F207E25023198
:102854004790C875E0FFA3E090C697CFF0A3EFF0D0
:102864007B017AC6799790C8A4E4F0A304F07F2092
:102874007E2502314790C7E6E0FEA3E024A6F58258
:1028840074C73EF583E0FF90C727E06F6003022A18
:102894002490C68EE0600302297090C774E0FEA302
:1028A400E0FF90C875EEF0A3EFF0643B4E701D900E
:1028B400C717E07002A3E06003E4801C90C775E0D2
:1028C40004F0702A90C774E004F0802290C774E08A
:1028D4007004A3E0643C700890C774F0A3F0800E09
:1028E40090C775E004F0700690C774E004F090C7D8
:1028F40074E0FEA3E0FF7C007D3C128D4590C71878
:10290400E02FFF90C717E03E90C877F0A3EFF09058
:10291400C7F1E0FEA3E0FF90C877E0FCA3E0FDD39D
:102924009FEC9E502390C7EFE0FEA3E0FFED9FECE9
:102934009E40157B017AC7797490C8A4E4F0A3047F
:10294400F07F707E2302314790C875E0FFA3E090CA
:10295400C774CFF0A3EFF07B017AC7797490C8A451
:10296400E4F0A304F07F707E2302314790C68EE02A
:102974006401600302334E90C717E0FEA3E0FF90AA
:10298400C875EEF0A3EFF0643B4E700890C717F0E3
:10299400A3F0800E90C718E004F0700690C717E00B
:1029A40004F090C774E0FEA3E0FF7C007D3C128D30
:1029B4004590C718E02FFF90C717E03E90C877F006
:1029C400A3EFF090C7F1E0FEA3E0FF90C877E0FC2E
:1029D400A3E0FDD39FEC9E502390C7EFE0FEA3E05D
:1029E400FFED9FEC9E40157B017AC7791790C8A430
:1029F400E4F0A304F07F807E2302314790C875E0A1
:102A0400FFA3E090C717CFF0A3EFF07B017AC7795B
:102A14001790C8A4E4F0A304F07F807E230231471A
:102A240090C7E6E0FEA3E0247FF58274C73EF583F9
:102A3400E0FF90C727E06F704290C68EE06003020B
:102A4400334E90C813E0FEA3E0FFC390C744E09F59
:102A540090C743E09E400302334EA3E004F07006A7
:102A640090C743E004F07B017AC7794390C8A4E49B
:102A7400F0A304F07F007E2402314790C71EE0FFDC
:102A840090C727E06F600302334E90C692E0640162
:102A94006003022CFE90C68EE06003022B6490C794
:102AA40087E0FEA3E0FF90C875EEF0A3EFF06409A1
:102AB4004E601090C788E004F0700F90C787E00460
:102AC400F08007E490C787F0A3F090C723E0FEA34B
:102AD400E0FF7C007D0A128D45AA06AB0790C75B18
:102AE400E0FEA3E0FF7D64128D45EF2BFFEE3AFE7E
:102AF40090C788E02FFF90C787E03E90C877F0A387
:102B0400EFF090C7ECE0FEA3E0FF90C877E0FCA3F1
:102B1400E0FDD39FEC9E502490C7E9E0FEA3E0FFC4
:102B2400C3ED9FEC9E40157B017AC7798790C8A4BA
:102B3400E4F0A304F07F307E2002314790C875E0B2
:102B4400FFA3E090C787CFF0A3EFF07B017AC779AA
:102B54008790C8A4E4F0A304F07F307E20023147BC
:102B640090C68EE064016003022C3190C723E0FE1E
:102B7400A3E0FF90C875EEF0A3EFF064094E601077
:102B840090C724E004F0700F90C723E004F080079E
:102B9400E490C723F0A3F090C723E0FEA3E0FF7CFA
:102BA400007D0A128D45AA06AB0790C75BE0FEA321
:102BB400E0FF7D64128D45EF2BFFEE3AFE90C7884F
:102BC400E02FFF90C787E03E90C877F0A3EFF09026
:102BD400C7ECE0FEA3E0FF90C877E0FCA3E0FDD3E0
:102BE4009FEC9E502490C7E9E0FEA3E0FFC3ED9F55
:102BF400EC9E40157B017AC7792390C8A4E4F0A326
:102C040004F07F107E2002314790C875E0FFA3E0F6
:102C140090C723CFF0A3EFF07B017AC7792390C844
:102C2400A4E4F0A304F07F107E2002314790C68E06
:102C3400E06402600302334E90C75BE0FEA3E0FF52
:102C440090C875EEF0A3EFF064024E601090C75C7C
:102C5400E004F0700F90C75BE004F08007E490C7D5
:102C64005BF0A3F090C723E0FEA3E0FF7C007D0AA5
:102C7400128D45AA06AB0790C75BE0FEA3E0FF7D7B
:102C840064128D45EF2BFFEE3AFE90C788E02FFFCC
:102C940090C787E03E90C877F0A3EFF090C7ECE0D0
:102CA400FEA3E0FF90C877E0FCA3E0FDD39FEC9E79
:102CB400502490C7E9E0FEA3E0FFC3ED9FEC9E40E3
:102CC400157B017AC7795B90C8A4E4F0A304F07F74
:102CD400007E2002314790C875E0FFA3E090C75BF7
:102CE400CFF0A3EFF07B017AC7795B90C8A4E4F03E
:102CF400A304F07F007E2002314790C692E0B40224
:102D04003A90C813E0FEA3E0FF90C743E06E70035F
:102D1400A3E06F700302334E90C744E004F07006E2
:102D240090C743E004F07B017AC7794390C8A4E4D8
:102D3400F0A304F07F507E2002314790C692E064F5
:102D4400036003022FAF90C68EE06003022E15903D
:102D5400C776E0FEA3E0FF90C875EEF0A3EFF06441
:102D6400094E601090C777E004F0700F90C776E0CA
:102D740004F08007E490C776F0A3F090C7B4E0FEB7
:102D8400A3E0FF7C007D0A128D45AA06AB0790C71D
:102D94003CE0FEA3E0FF7D64128D45EF2BFFEE3A8D
:102DA400FE90C777E02FFF90C776E03E90C877F09B
:102DB400A3EFF090C7E4E0FEA3E0FF90C877E0FC47
:102DC400A3E0FDD39FEC9E502490C7DFE0FEA3E078
:102DD400FFC3ED9FEC9E40157B017AC7797690C8BE
:102DE400A4E4F0A304F07F807E2002314790C875EC
:102DF400E0FFA3E090C776CFF0A3EFF07B017AC7A2
:102E0400797690C8A4E4F0A304F07F807E20023198
:102E14004790C68EE064016003022EE290C7B4E0DE
:102E2400FEA3E0FF90C875EEF0A3EFF064094E60D6
:102E34001090C7B5E004F0700F90C7B4E004F080C0
:102E440007E490C7B4F0A3F090C7B4E0FEA3E0FF9A
:102E54007C007D0A128D45AA06AB0790C73CE0FEB4
:102E6400A3E0FF7D64128D45EF2BFFEE3AFE90C781
:102E740077E02FFF90C776E03E90C877F0A3EFF09D
:102E840090C7E4E0FEA3E0FF90C877E0FCA3E0FD78
:102E9400D39FEC9E502490C7DFE0FEA3E0FFC3ED78
:102EA4009FEC9E40157B017AC779B490C8A4E4F0E6
:102EB400A304F07F707E2002314790C875E0FFA321
:102EC400E090C7B4CFF0A3EFF07B017AC779B49058
:102ED400C8A4E4F0A304F07F707E2002314790C6BA
:102EE4008EE06402600302334E90C73CE0FEA3E030
:102EF400FF90C875EEF0A3EFF064024E601090C727
:102F04003DE004F0700F90C73CE004F08007E490CB
:102F1400C73CF0A3F090C7B4E0FEA3E0FF7C007DC3
:102F24000A128D45AA06AB0790C73CE0FEA3E0FF5A
:102F34007D64128D45EF2BFFEE3AFE90C777E02FAC
:102F4400FF90C776E03E90C877F0A3EFF090C7E417
:102F5400E0FEA3E0FF90C877E0FCA3E0FDD39FEC84
:102F64009E502490C7DFE0FEA3E0FFC3ED9FEC9EDC
:102F740040157B017AC7793C90C8A4E4F0A304F01F
:102F84007F607E2002314790C875E0FFA3E090C7C0
:102F94003CCFF0A3EFF07B017AC7793C90C8A4E45E
:102FA400F0A304F07F607E2002314790C692E06473
:102FB40004600302334E90C68EE0600302309690A4
:102FC400C774E0FEA3E0FF90C875EEF0A3EFF064D1
:102FD4003B4E701D90C717E07002A3E06003E480CD
:102FE4001C90C775E004F0702A90C774E004F08068
:102FF4002290C774E07004A3E0643C700890C77426
:10300400F0A3F0800E90C775E004F0700690C774CA
:10301400E004F090C774E0FEA3E0FF7C007D3C1266
:103024008D4590C718E02FFF90C717E03E90C877F2
:10303400F0A3EFF090C7F1E0FEA3E0FF90C877E0C3
:10304400FCA3E0FDD39FEC9E502490C7EFE0FEA3C9
:10305400E0FFC3ED9FEC9E40157B017AC779749025
:10306400C8A4E4F0A304F07F107E2102314790C885
:1030740075E0FFA3E090C774CFF0A3EFF07B017A73
:10308400C7797490C8A4E4F0A304F07F107E2102F1
:10309400314790C68EE06401600302334E90C71737
:1030A400E0FEA3E0FF90C875EEF0A3EFF0643B4EA2
:1030B400700890C717F0A3F0800E90C718E004F0D2
:1030C400700690C717E004F090C774E0FEA3E0FF19
:1030D4007C007D3C128D4590C718E02FFF90C717E8
:1030E400E03E90C877F0A3EFF090C7F1E0FEA3E0D4
:1030F400FF90C877E0FCA3E0FDD39FEC9E502390A3
:10310400C7EFE0FEA3E0FFC3ED9FEC9E40147B01FC
:103114007AC7791790C8A4E4F0A304F07F307E2125
:10312400802190C875E0FFA3E090C717CFF0A3EF0C
:10313400F07B017AC7791790C8A4E4F0A304F07F68
:10314400307E2112A8C602334E90C691E06401700D
:103154002A90C71EE0FF90C727E06F600302334E3A
:1031640012CBB890C692E0B404057401F0800690C6
:10317400C692E004F012C3EE02334E90C7E6E0FEBE
:10318400A3E0FF2491F58274C73EF583E0FD90C768
:1031940027E0FCC39D501B74832FF58274C73EF552
:1031A40083E0FFECC39F400A90C727E004F0E0FFF0
:1031B400802A90C7E6E0FEA3E0FF2491F58274C75D
:1031C4003EF583E0FD90C727E0B5051674832FF51F
:1031D4008274C73EF583E0FF90C727F012D29202B3
:1031E400334E90C68FE06401704190C7E6E0FEA3C1
:1031F400E0243AF58274C73EF583E0FF90C727E0E8
:10320400B50702804790C75DE0FF90C727E0B50788
:103214001290C7E6E0FEA3E02433F58274C73EF5BE
:1032240083805290C727E004F0804A90C690E064FF
:1032340001704A90C7E6E0FEA3E02431F58274C72A
:103244003EF583E0FF90C727E0B5070590C75D8092
:103254002490C75DE0FF90C727E0B5071290C7E64A
:10326400E0FEA3E02425F58274C73EF58380069032
:10327400C727E004F0E0FF12D78402334E90C74022
:10328400E0FF90C727E0B5070A7F027E0012D3D77C
:1032940002334E90C72EE0FF90C727E0B5070E908B
:1032A400C873E0FEA3E0FF1290CC02334E90C778BF
:1032B400E0FF90C727E0B5070E90C873E0FEA3E0D7
:1032C400FF12B5CF02334E90C782E0FF90C727E0CC
:1032D400B5070D90C873E0FEA3E0FF12B7DB806A68
:1032E40090C771E0FF90C727E0B5070D90C873E061
:1032F400FEA3E0FF12C89D805190C7B3E0FF90C7C2
:1033040027E0FE6F604490C748E0B5060D90C8738F
:10331400E0FEA3E0FF12C669803090C71BE0FF9077
:10332400C727E0B5070D90C873E0FEA3E0FF127B4A
:1033340060801790C781E0FF90C727E0B5070B9026
:10334400C873E0FEA3E0FF12B07690C68C7401F05F
:103354007D1E7C00E4FF02D47F90C699E07004A334
:10336400E0640160030237A790C71EE0FF90C727FF
:10337400E06F60030234F590C692E0640170299016
:10338400C68EE004F0E06403700F12C50090C6928C
:10339400E0FF7E007D640234F090C692E0FF7E0080
:1033A40090C68EE0FD0234F090C692E0B40221E4AF
:1033B40090C699F0A3F090C68EF090C743E0FCA3AA
:1033C400E0FD7F047E8112C54E7F537E1002D58CB2
:1033D40090C692E06403706C90C68EE004F0E064E2
:1033E40003705290C699F0A3F090C68EF090C7B4C3
:1033F400E0FEA3E0FF7C007D0A128D45AA06AB0720
:1034040090C73CE0FEA3E0FF7D64128D45EF2BFFE7
:10341400EE3AFE90C777E02FFF90C776E03E90C863
:1034240077F0A3EFF07F0212C54490C692E0FF7ECE
:10343400007D64800C90C692E0FF7E0090C68EE012
:10344400FD0234F090C692E064046003024052909E
:10345400C68EE004F0E0640260030234E490C6998E
:10346400F0A3F090C68EF07B017AC7797490C8A05F
:10347400F0A304F07F107E2112A3A17B017AC77907
:103484001790C8A0E4F0A304F07F307E2112A3A11A
:1034940090C774E0FEA3E0FF7C007D3C128D459054
:1034A400C718E02FFF90C717E03E90C877F0A3EF4E
:1034B400F07B017AC7791790C8A4E4F0A304F07FE5
:1034C400307E2112A8C690C877E0FCA3E0FD7F06F9
:1034D4007E8112C54E90C692E0FF7E007D64800C12
:1034E40090C692E0FF7E0090C68EE0FD7C00023E16
:1034F4008990C68EE004F090C727E0FF7E0090C656
:103504008EE0FD7C001275BB90C7E6E0FEA3E024CC
:10351400ADF58274C73EF583E0FF90C727E06F7076
:103524001B90C68EE06404701312C50090C7E6E0D9
:10353400FEA3E02433F58274C7023E4690C7E6E05A
:10354400FEA3E024B6F58274C73EF583E0FF90C77E
:1035540027E06F705290C68EE06403704A90C6995B
:10356400F0A3F090C68EF090C7B8E0FEA3E0FF7C15
:10357400007D0A128D4590C77AE02FFF90C779E04D
:103584003E90C877F0A3EFF090C877E0FCA3E0FD8D
:103594007F087E8112C54E90C7E6E0FEA3E0243A80
:1035A400F58274C7023E4690C730E0FF90C727E01B
:1035B400B5071890C68EE0B40411E490C699F0A340
:1035C400F090C68EF090C772023F7990C7E6E0FE95
:1035D400A3E02493F58274C73EF583E0FF90C727E8
:1035E400E06F706C90C68EE06404706490C699F0CD
:1035F400A3F090C68EF090C7B4E0FEA3E0FF7C0079
:103604007D0A128D45AA06AB0790C73CE0FEA3E0F5
:10361400FF7D64128D45EF2BFFEE3AFE90C777E0F5
:103624002FFF90C776E03E90C877F0A3EFF090C8E4
:1036340077E0FCA3E0FD7F027E8112C54E90C7E6D1
:10364400E0FEA3E02425F58274C73EF583023F79AA
:1036540090C7E6E0FEA3E024ABF58274C73EF58391
:10366400E0FF90C727E06F705590C68EE06403704A
:103674004D90C699F0A3F090C68EF090C7A8E0FED6
:10368400A3E0FF7C007D0A128D4590C74AE02FFF1E
:1036940090C749E03E90C877F0A3EFF090C877E078
:1036A400FCA3E0FD7F0A7E8112C54E90C7E6E0FED2
:1036B400A3E02431F58274C73EF583023F7990C7B5
:1036C40022E0FF90C727E0B5071890C68EE0B40249
:1036D40011E490C699F0A3F090C68EF090C747020B
:1036E4003F7990C7E6E0FEA3E024A6F58274C73EC6
:1036F400F583E0FF90C727E06F705590C68EE064B5
:1037040003704D90C699F0A3F090C68EF090C774E4
:10371400E0FEA3E0FF7C007D3C128D4590C718E0DD
:103724002FFF90C717E03E90C877F0A3EFF090C842
:1037340077E0FCA3E0FD7F067E8112C54E90C7E6CC
:10374400E0FEA3E0248BF58274C73EF583023F7943
:1037540090C7E6E0FEA3E0247FF58274C73EF583BC
:10376400E0FF90C727E06F600302405290C68EE0EE
:103774006402600302405290C699F0A3F090C68E92
:10378400F090C743E0FCA3E0FD7F047E8112C54EA8
:1037940090C7E6E0FEA3E0248DF58274C73EF5836E
:1037A400023F7990C7E6E0FEA3E02483F58274C764
:1037B4003EF583E0FF90C727E06F60030239B77BD3
:1037C400017AC8797790C8A0F0A304F07F007E81C5
:1037D40012A3A190C877E0FAA3E0FB7C007D64FF0C
:1037E400AE02128D5790C75BEEF0A3EFF07C007D24
:1037F4000AAF03AE02128D577C007D0A128D5790DA
:10380400C723ECF0A3EDF090C877E0FEA3E0FF7CC3
:10381400007D0A128D5790C787ECF0A3EDF07B0171
:103824007AC7795B90C8A4E4F0A304F07F007E20FB
:1038340012A8C67B017AC7792390C8A4E4F0A30434
:10384400F07F107E2012A8C67B017AC7798790C8C2
:10385400A4E4F0A304F07F307E2012A8C67B017A92
:10386400C8797790C8A0E4F0A304F07F027E8112A7
:10387400A3A190C877E0FAA3E0FB7C007D64FFAECF
:1038840002128D5790C73CEEF0A3EFF07C007D0A46
:10389400AF03AE02128D577C007D0A128D5790C77C
:1038A400B4ECF0A3EDF090C877E0FEA3E0FF7C0059
