:0300000002780B78
:0800F800FFFF4457494E543547
:10780B00759401759502758E0075930075C870752A
:10781B00C96075F80075F90175A80075B800759AFF
:10782B000075A90075B90053D0E7787FE4F6D8FD51
:10783B009080007F007E80E4F0A3DFFCDEFA758190
:04784B001B02788A1A
:105EDE0090C35CEEF0A3EFF0A3EBF0A3EAF0A3E91E
:015EEE00F0C3
:105EEF00E490C363F0A3F0A3F0A3F0A3F0A3F0A397
:105EFF00F0A3F090C361E0FAA3E0FB4A70030260E5
:105F0F009D90C35CE0FEA3E0FFC3E49FFFE49EFE11
:105F1F00E4FCFD90C36B125059AF03AE02E4FCFDDD
:105F2F0090C36BE0F8A3E0F9A3E0FAA3E0FBC31280
:105F3F005022501190C36BA3A3E0FFA3E090C36165
:105F4F00CFF0A3EFF090C35CE0FCA3E0FDECC31334
:105F5F00FFED1390C363CFF0A3EFF0ED5401FFA358
:105F6F00E4F0A3EFF0C2AFE4F5F190C363E0FCA35C
:105F7F00E0FDECF5F28DF375F40175F8AF30FCFD33
:105F8F0090C365E07002A3E0603DD2FE20FEFD905D
:105F9F00C35EE0FBA3E475F001124E6EA9F0FAE5C3
:105FAF00FC124DBD90C35EE0FBA3E475F001124EF1
:105FBF006EA9F0FAE5FD124DBD90C362E024FFF02B
:105FCF0090C361E034FFF090C361E0FCA3E0FDEC0F
:105FDF00C313FFED1390C367CFF0A3EFF0ED5401A0
:105FEF00FFA3E4F0A3EFF090C36774FFF5F0124E38
:105FFF006E45F0605BD2FE20FEFD90C35EE0FBA31A
:10600F00E475F001124E6EA9F0FAE5FA124DBD904B
:10601F00C35EE0FBA3E475F001124E6EA9F0FAE542
:10602F00FB124DBD90C35EE0FBA3E475F001124E71
:10603F006EA9F0FAE5FC124DBD90C35EE0FBA3E440
:10604F0075F001124E6EA9F0FAE5FD124DBD809765
:10605F0090C369E07002A3E0602FD2FE20FEFD9096
:10606F00C35EE0FBA3E475F001124E6EA9F0FAE5F2
:10607F00FA124DBD90C35EE0FBA3E475F001124E22
:0E608F006EA9F0FAE5FB124DBDE4F5F8D2AFB4
:01609D0022E0
:1065970090C360EEF0A3EFF0A3EBF0A3EAF0A3E95A
:0165A700F003
:1065A800E490C367F0A3F0A3F0A3F0A3F0A3F090E6
:1065B800C365E07002A3E0700302672990C360E03E
:1065C800FEA3E0FFC3E49FFFE49EFED390C366E012
:1065D8009F90C365E09E4005EEF0A3EFF090C36086
:1065E800E0FAA3E0FBEAC313FCEB13FDEB5401FF55
:1065F80090C367E4F0A3EFF0C2AFE4F5F1ECF5F275
:10660800AF058FF375F40175F88330FCFD90C3670F
:10661800E07002A3E0603D90C362E0FBA3E475F084
:1066280001124E6EA9F0FA124D77F5FC90C362E0A4
:10663800FBA3E475F001124E6EA9F0FA124D77F53E
:10664800FDD2FE20FEFD90C366E024FFF090C365F6
:10665800E034FFF090C365E0FCA3E0FDECC313FF5A
:10666800ED1390C369CFF0A3EFF0ED5401FFA3E45D
:10667800F0A3EFF075F88F90C36974FFF5F0124E30
:106688006E45F0605B90C362E0FBA3E475F0011215
:106698004E6EA9F0FA124D77F5FA90C362E0FBA3AB
:1066A800E475F001124E6EA9F0FA124D77F5FB90E1
:1066B800C362E0FBA3E475F001124E6EA9F0FA1272
:1066C8004D77F5FC90C362E0FBA3E475F001124E30
:1066D8006EA9F0FA124D77F5FDD2FE30FE9980FBD7
:1066E80090C36BE07002A3E0603275F88C90C362CF
:1066F800E0FBA3E475F001124E6EA9F0FA124D7793
:10670800F5FA90C362E0FBA3E475F001124E6EA99E
:10671800F0FA124D77F5FBD2FE20FEFDE4F5F8D233
:01672800AFC1
:01672900224D
:106A410090C45CEEF0A3EFF0A3EBF0A3EAF0A3E9AE
:016A5100F054
:106A5200A3E0FEA3E0FF4E7003026BBA90C45CE0B9
:106A6200FCA3E0FDC3E49DFDE49CFCD3EF9DEE9C02
:106A7200400AAF0590C461ECF0A3EFF090C45CE073
:106A8200FCA3E0FDECC313FEED13FBAA06ED5401DB
:106A9200FDC2AFE4F5F1EAF5F2AF038FF375F4014D
:106AA20075F88330FCFDED604FC390C462E0940240
:106AB20090C461E094005003026BB590C45EE0FBA9
:106AC200A3E475F001124E6EA9F0FA124D77F5FCAF
:106AD20090C45EE0FBA3E475F001124E6EA9F0FAD9
:106AE200124D77F5FDD2FE20FEFD90C462E024FE39
:106AF200F090C461E034FFF090C461E0FEA3E0785E
:106B020002CEC313CE13D8F9FF75F88FEF1FAC0670
:106B120070011E4C605B90C45EE0FBA3E475F00163
:106B2200124E6EA9F0FA124D77F5FA90C45EE0FBB0
:106B3200A3E475F001124E6EA9F0FA124D77F5FB3F
:106B420090C45EE0FBA3E475F001124E6EA9F0FA68
:106B5200124D77F5FC90C45EE0FBA3E475F00112E0
:106B62004E6EA9F0FA124D77F5FDD2FE30FE9D80F1
:106B7200FB90C462E030E1047F0180027F00EF609D
:106B82003275F88C90C45EE0FBA3E475F001124EFE
:106B92006EA9F0FA124D77F5FA90C45EE0FBA3E419
:106BA20075F001124E6EA9F0FA124D77F5FBD2FE86
:086BB20020FEFDE4F5F8D2AF6E
:016BBA0022B8
:10918F00EC90C492F0EDA3F07B017AC4799290C475
:0A919F0061E4F0A37402F0026A41DB
:10924300EF4E6010E4FD0DEDC3943240F9EF1F7053
:04925300EF1E80EC9E
:0192570022F4
:0880D50090C46AEEF0A3EFF085
:1080DD00A3745AF0A37401F090C46AE0FCA3E0FD10
:1080ED00EC90C46EF0A3EDF07B017AC4796C90C373
:1080FD0065E4F0A37402F07F847E001265977FF42F
:10810D007E011292437B017AC4796C90C361E4F0D5
:10811D00A37402F07F147E00125EDE90C46AE0FE4E
:10812D00A3E0FFA3E0B506D6A3E0B507D1E490C464
:10813D006CF0A3F0A3F0A3F07B017AC4796C90C32B
:0D814D0065F0A37402F07F167E00026597B6
:088A8A0090C33FEEF0A3EFF0F2
:108A9200E4A3F0A3F090C33FE0FEA3E0FFC390C3C2
:108AA20042E09F90C341E09E5025E4FBFA7F017EA5
:108AB200001292430BBB00010ABA01F1BB2CEE90EB
:0F8AC200C342E004F070CE90C341E004F080C6E0
:018AD1002282
:108AD200EF14601814602314602E2403703974019B
:108AE200A805088002C333D8FC42B7227401A80546
:108AF200088002C333D8FC42BC227401A805088056
:108B020002C333D8FC42BD22AF057401A807088016
:088B120002C333D8FC42BE226D
:1089AA00EF1460191460251460312403703D7401BA
:1089BA00A805088002C333D8FCF452B7227401A870
:1089CA0005088002C333D8FCF452BC227401A805FE
:1089DA00088002C333D8FCF452BD22AF057401A843
:0C89EA0007088002C333D8FCF452BE2200
:107D8500EF14602D14604A14606724036003027EBB
:107D950017EB600E7401A805088002C333D8FC42B6
:107DA50080227401A805088002C333D8FCF45280F0
:107DB50022EB600E7401A805088002C333D8FC428B
:107DC50090227401A805088002C333D8FCF45290B0
:107DD50022EB600E7401A805088002C333D8FC426B
:107DE500A0227401A805088002C333D8FCF452A070
:107DF50022EB600E7401A805088002C333D8FC424B
:107E0500B022AF057401A807088002C333D8FCF47B
:037E150052B02246
:10876700EF14601A146027146034240370427401F4
:10877700A805088002C333D8FC5580FE80347401F5
:10878700A805088002C333D8FC5590FE80247401E5
:10879700A805088002C333D8FC55A0FE8014AF0596
:1087A7007401A807088002C333D8FC55B0FE8002C5
:0487B700E4FEAF0627
:0187BB00229B
:10905A00758911E4F58CF58AC28CF518F51A4389DD
:0E906A0001758CBC758ACDD2A9D2AFD28C22F2
:03000B0002824D21
:0D824D00C0E0C0D075D000C000C006C00762
:10825A00C2AF758CBC758ACD0519751B0074017E79
:10826A0000A81B088005C333CE33CED8F9FFEF55DB
:10827A001A602DE51B25E02408F808E61618700197
:10828A0016E51B25E02408F8E6FE08E64E7011AF55
:10829A001B04A807088002C333D8FC4218F4521AF8
:0982AA00051BE51BB408B6D2AFB8
:0B82B300D007D006D000D0D0D0E032C1
:1091A900758911E4F58DF58BC28ED2AF438910759F
:0A91B9008DBC758BCDD2ABD28E2297
:03001B000292DF6F
:0D92DF00C2AF758DBC758BCDB290D2AF3291
:1092820075C8F075CD58E4F5CC75CB58F5CA43C80E
:0492920001D2AD2236
:03002B000292F846
:0992F800C2AFC2C6B291D2AF327E
:108FF900C2AF7401A807088002C333D8FCFE421A25
:10900900EF25E02408F8A60408A605EEF45218D2C4
:02901900AF2284
:10925800C2AF7401A807088002C333D8FCF4521ABD
:059268005218D2AF22F4
:1092AA00C2AF7401A807088002C333D8FC5518FF5F
:0292BA00D2AF31
:0192BC00228F
:10890E00AB07AA06A905A8047F007E387D317C003E
:10891E00124F7AC3E49F90C33EF074049E90C33D01
:10892E00F043C9407D04E4FF128AD27D05E4FF12B4
:10893E0089AA43803075D88075985090C33DE0FC6D
:0D894E00A3E0FDECF5BA8DAA43A810D2AC51
:01895B0022F9
:108A4100AB07AA06A905A8047F007E707D627C00A1
:108A5100124F7AC3E49F90C33EF074049E90C33DCD
:108A6100F043C9207D06E4FF128AD27D07E4FF129C
:108A710089AA4380C0759B9090C33DE0FCA3E0FDB3
:088A8100ECF5BB8D9D439A0149
:018A890022CA
:108CFE00759680759780AB07AA06A905A8047F0014
:108D0E007EC07D897C01124F7AAD07AC06ECF5D999
:108D1E00AF058FE743B80CE4909812F0A3F0A3F0E0
:108D2E00A3F090981AF0909816F0A3F0A3F0A3F089
:018D3E002212
:108FAE0075A78075AB80AB07AA06A905A8047F003C
:108FBE007EC07D897C01124F7AAD07AC06ECF5AE12
:078FCE00AF058FAF43B8307F
:018FD5002279
:1088BB00EF14601B1460291460372403704490C3B9
:1088CB0039E0FCA3E0FDA3E0FEA3E0FF02890E90DC
:1088DB00C339E0FCA3E0FDA3E0FEA3E0FF028A4165
:1088EB0090C339E0FCA3E0FDA3E0FEA3E0FF028C04
:1088FB00FE90C339E0FCA3E0FDA3E0FEA3E0FF1272
:03890B008FAE220A
:10609E0090C338EFF0A3ECF0A3EDF0A3EBF0A3EA7E
:0460AE00F0A3E9F082
:1060B200C2AFE4A3F0A3F090C339E0FEA3E0FFC3B4
:1060C20090C33FE09F90C33EE09E40030261769002
:1060D200C33BE0FBA3E475F001124E6EA9F0FA1285
:1060E2004D77FF90C338E0FE75F009A42400F582D5
:1060F200E5F03488F583EE75F008A42583F583E096
:10610200FCA3E0FD75F009EEA42400F582E5F0346D
:1061120080F583EE75F008A42583F583E5822DF5DD
:1061220082E5833CF583EFF075F009EEA42400F5D7
:1061320082E5F03488F583EE75F008A42583F583B3
:10614200E475F001124E5875F009EEA42400F582B0
:10615200E5F03488F583EE75F008A42583F583E035
:106162005403F090C33FE004F0700690C33EE00495
:10617200F00260B990C338E0146042146070147089
:106182000302621E2403600302624E908808E060EC
:106192000302624E04F0908802E0FEA3E02400F5C0
:1061A2008274803EF583E0F599908803E004F070F4
:1061B20006908802E004F090880202624A909011F0
:1061C200E0600302624E04F090900BE0FEA3E02434
:1061D20009F58274883EF583E0F59C90900CE0040A
:1061E200F0700690900BE004F090900B805A90981B
:1061F2001AE0705804F0909814E0FEA3E02412F51F
:106202008274903EF583E0F59E909815E004F0705C
:1062120006909814E004F0909814802C90A023E04B
:10622200702A04F090A01DE0FEA3E0241BF5827406
:10623200983EF583E0F5AC90A01EE004F070069065
:0E624200A01DE004F090A01DE05403F0D2AFC8
:01625000222B
:03002300027F3920
:107F3900C0E0C083C082C0D075D000C006C007C2EF
:107F4900AF30982AC298908804E0FEA3E02400F597
:107F59008274843EF583E599F0908805E004F07019
:107F690006908804E004F0908804E05403F0309906
:107F79003FC299908802E0FEA3E0FF908800E06E7E
:107F89007003A3E06F602474002FF58274803EF5BE
:107F990083E0F599908803E004F07006908802E088
:107FA90004F0908802E05403F08005908808E4F01A
:0F7FB900D2AFD007D006D0D0D082D083D0E03264
:0300530002853FE4
:10853F00C0E0C083C082C0D075D000C006C007C2E3
:10854F00AF5396FE909814E0FEA3E0FF909812E0D0
:10855F006E7003A3E06F602474122FF58274903E47
:10856F00F583E0F59E909815E004F070069098144E
:10857F00E004F0909814E05403F0800590981AE40A
:10858F00F0D2AFD007D006D0D0D082D083D0E03297
:03005B00028B1AFB
:108B1A00C0E0C083C082C0D075D000C006C2AF53C7
:108B2A0097FE909816E0FEA3E02412F58274943E14
:108B3A00F583E59FF0909817E004F0700690981678
:108B4A00E004F0909816E05403F0D2AFD006D0D0EB
:078B5A00D082D083D0E0328D
:0300630002859F74
:10859F00C0E0C083C082C0D075D000C006C007C283
:1085AF00AF53A7FE90A01DE0FEA3E0FF90A01BE03D
:1085BF006E7003A3E06F6024741B2FF58274983ED6
:1085CF00F583E0F5AC90A01EE004F0700690A01DBE
:1085DF00E004F090A01DE05403F0800590A023E488
:1085EF00F0D2AFD007D006D0D0D082D083D0E03237
:03006B00028B61A4
:108B6100C0E0C083C082C0D075D000C006C2AF5380
:108B7100ABFE90A01FE0FEA3E0241BF582749C3E97
:108B8100F583E5ADF090A020E004F0700690A01F01
:108B9100E004F090A01FE05403F0D2AFD006D0D093
:078BA100D082D083D0E03246
:03008300027CEA12
:107CEA00C0E0C083C082C0D075D000C006C007C241
:107CFA00AFE59B30E02E759B90539BFE90900DE074
:107D0A00FEA3E02409F582748C3EF583E59CF0908D
:107D1A00900EE004F0700690900DE004F090900D43
:107D2A00E05403F0E59B30E143759B90539BFD9033
:107D3A00900BE0FEA3E0FF909009E06E7003A3E0D1
:107D4A006F602474092FF58274883EF583E0F59CF0
:107D5A0090900CE004F0700690900BE004F0909084
:107D6A000BE05403F08005909011E4F0D2AFD007F5
:0B7D7A00D006D0D0D082D083D0E03201
:10926D007596807597807C00ECF5D975E7E0759E55
:04927D000D53B8F3E2
:0192810022CA
:0B8FD60090C370EBF0A3EAF0A3E9F0F9
:108FE10090C39B7401F0A374C3F0A37473F090C396
:078FF1009BE4F0A3F0A3F0E4
:018FF8002256
:02930F0080FEDE
:0558160042C4940000F3
:107A4800E490C333F0A3F0A3740AF0A3740DF0A379
:107A580074EFF012905A1291A9125D17E4FD7F029B
:107A68001289AA7D607CEAE4FF128FF97DF47C011B
:107A78007F01128FF91281D7D2AF90C225E0FF1291
:107A88008DFE1264037D887C137F07128FF97B01BA
:107A98007AC3793490C365E4F0A304F07F007E8252
:107AA800126597128C7990C494E07002A3E0701864
:107AB8007F071292AAEF601090C494E4F0A304F038
:107AC80090C225F0FF128DFE90C494E07002A3E0EE
:107AD80060D1128CBC12840C12672A90C331EEF06C
:107AE800A3EFF0120100900000E060B7E4F080B36B
:10581B004CC24EC9CFB2BFCEC2B6C8202020204149
:10582B00C2C90042C229000041C2160044C29700FF
:10583B0000000046C20D0000000000006048C1C51A
:10584B000000000100020003000400050006000731
:10585B0000080009000A000B000C000D000E000FE1
:10586B000010001100120013001400150016001791
:10587B0000180019001A001B001C001D001E001F41
:10588B00002000210022002342C242000041C2CD71
:10589B000042C21A000042C239000050C2B20000DE
:1058AB00000000000000000000000000000050C2DB
:1058BB00730000000000000000000000000000006A
:1058CB000050C2600000000000000000000000005B
:1058DB000000000042C2D6000042C292000042C249
:1058EB0037000042C2D1000042C28D000042C2C349
:1058FB00000042C25E000042C288000042C2140097
:10590B000042C249000041C2B10042C2D80000426D
:10591B00C21D000042C227000041C2170041C2A5B0
:10592B000141C2A60241C2AB0341C2AC0441C2ADAC
:10593B000541C2AE0641C2AF0741C21C0841C2318C
:10594B000941C2350A41C2860B41C2240C41C23007
:10595B000D41C25C0E41C2720F41C2C81041C2D58B
:10596B001141C22F1241C2B01341C2C71441C22010
:10597B001541C2C21641C29B1741C22E1841C22605
:10598B001941C21F1A41C23B1B41C22C1C41C2917F
:10599B001D41C2A21E41C2851F41C2D02041C25D22
:1059AB002141C2C52241C2182342C29C000142C2FE
:1059BB00A000C842C28A000142C28F00C842C2CEB8
:1059CB00000042C2D3001442C2A3000042C2A90E7F
:1059DB001042C294000041C2870041C2320042C251
:1059EB0083000042C25A000042C2CB000042C233C5
:1059FB00000041C2480041C22D0041C2C60041C255
:105A0B004D0041C2CA0041C2130041C28C0041C2C9
:105A1B00230041C2360041C29E0041C22B0041C24D
:105A2B00960041C2190041C29F0042C23C00004295
:105A3B00C23E000042C240000042C244000042C2CB
:105A4B0046000042C24B000041C1B20041C1B3004D
:105A5B0041C1B40041C1B50041C1B60041C1B7005D
:105A6B0041C1B80042C1B9000042C1BB000042C1F4
:0D5A7B00BD000042C1BF000042C1C10000DB
:10815A0090C1BFF0A3F090C1B4F090C221E0FEA399
:10816A00E0FF7C007D0A124DF1AA06AB0790C270AF
:10817A00E0FEA3E0FF7D64124DF1EF2BFFEE3AFE25
:10818A0090C2A8E02FFF90C2A7E03E90C33CF0A3A4
:0E819A00EFF07F0090C33CE0FCA3E0FD7E818F
:1081A80090C1C3EEF0A3EFF090C2D8ECF0A3EDF0CD
:1081B80090C2B17401F0FB7AC279D890C365E4F03B
:0F81C800A304F01265977DBC7C027F06028FF93D
:0C92EC00E490C2B1F090C227F0A3F02281
:10840C0090C2B1E060637F061292AAEF605B90C1EC
:10841C00C3E0FEA3E0FF7B017AC2791D90C361E447
:10842C00F0A304F0125EDE90C21DE0FEA3E0FF900C
:10843C00C2D8E0FCA3E0FDB50707ECB50603029239
:10844C00ECC390C228E0940290C227E0940050192B
:10845C0090C1C3E0FEA3E0FF1281A890C228E00403
:0A846C00F0700690C227E004F02231
:1090ED0090C49674C0F0A37464F07B017AC4799631
:0B90FD0090C365E4F0A304F002659747
:1091080090C35E7418F0A374E3F07B017AC3795EB0
:0B91180090C365E4F0A304F00265972B
:04903B007F037E949D
:10903F0090C35E74FFF0A37460F07B017AC3795E16
:0B904F0090C365E4F0A304F0026597F5
:1091230090C35E7405F0A3741DF07B017AC3795E6E
:0B91330090C365E4F0A304F002659710
:10913E0090C49874CEF0A37459F07B017AC47998D8
:0B914E0090C365E4F0A304F0026597F5
:0490B4007F237E5048
:1090B80074FF90C35EF0A3F07B017AC3795E90C31E
:0990C80065E4F0A304F0026597D1
:06930900E490C216F02200
:106FD10090C35CECF0A3EDF0EE60030270E4EF24EB
:106FE100FE605E1460601470030270A924036003E4
:106FF1000270E490C35CE0FEA3E0FFEE7035EF1495
:10700100601514601E2402702A12903B7F137E9437
:1070110012903F7F23805512903B7F137E941291F3
:1070210023801A7F037E941291237F137E94129002
:107031003F800A12903B7F137E9412903F7F238002
:10704100637F530270D190C35CE0FEA3E0FFEE705A
:1070510043EF14601B14602A240270387F537E941E
:1070610012903F7F637E9412903F7F737E94806283
:107071007F537E9412903F7F637E941291237F739E
:1070810080227F537E941291237F637E9412903FDE
:107091007F7380107F537E9412903F7F637E9412A2
:1070A100903F7F737E94803890C35CE0FEA3E0FF45
:1070B100EE7022EF14601004701B7F837E92129198
:1070C100237F937E9280197F837E9212903F7F93DC
:1070D1007E920291237F837E9212903F7F937E92D4
:0470E10012903F22A8
:0A51190090C225E0FF7E00E4FDFCDB
:1051230090C35CECF0A3EDF0EE60030254B2EF2405
:10513300F3B40B0040030254B290514A75F003A438
:10514300C58325F0C5837302516B0251E6025247B2
:105153000252C202533D02539E0254180254680283
:1051630054B20254B202548E90C35CE07002A3E0C6
:1051730070177F037E901291087F137E901291081F
:105183007F237E90129123804290C35CE07004A33E
:10519300E0640170107F037E901291087F137E906C
:1051A300129123801F90C35CE07004A3E064027F2C
:1051B300037E90700512912380031291087F137E62
:1051C300901291087F237E9012910890C35CE07047
:1051D30004A3E0640370047D018002E4FDFC7F10FE
:1051E30002548990C35CE07002A3E070107F537E89
:1051F300901291087F637E90129123802F90C35C5D
:10520300E07004A3E0640170097F537E9012912340
:10521300801390C35CE07004A3E06402700E7F53BC
:105223007E901291087F637E9012910890C35CE098
:105233007004A3E0640270047D018002E4FDFC7F3E
:105243002002548990C35CE07002A3E070177F735F
:105253007E901291087F837E901291087F937E90B7
:10526300129123804290C35CE07004A3E064017058
:10527300107F737E901291087F837E90129123801A
:105283001F90C35CE07004A3E064027F737E9070A0
:105293000512912380031291087F837E9012910857
:1052A3007F937E9012910890C35CE07004A3E06446
:1052B3000370047D018002E4FDFC7F300254899079
:1052C300C35CE07002A3E070177F037E9112910824
:1052D3007F137E911291087F237E91129123804246
:1052E30090C35CE07004A3E0640170107F037E91BF
:1052F3001291087F137E91129123801F90C35CE06B
:105303007004A3E064027F037E91700512912380F1
:10531300031291087F137E911291087F237E9112CD
:10532300910890C35CE07004A3E0640370047D0102
:105333008002E4FDFC7F4002548990C35CE070026C
:10534300A3E070107F437E911291087F537E9112E8
:105353009123802F90C35CE07004A3E06401700983
:105363007F437E91129123801390C35CE07004A36A
:10537300E06402700E7F437E911291087F537E9109
:1053830012910890C35CE07004A3E0640270047D92
:10539300018002E4FDFC7F5002548990C35CE070FD
:1053A30002A3E070177F637E911291087F737E9151
:1053B3001291087F837E91129123804290C35CE017
:1053C3007004A3E0640170107F637E911291087FE3
:1053D300737E91129123801F90C35CE07004A3E05D
:1053E30064027F637E9170051291238003129108FA
:1053F3007F737E911291087F837E9112910890C3EF
:105403005CE07004A3E0640370047D018002E4FDAA
:10541300FC7F60807190C35CE07002A3E070097F41
:10542300937E91129123801F90C35CE07004A3E0EC
:1054330064017F937E91700C1291087F037E921218
:105443009123800A1291087F037E9212910890C3E0
:105453005CE07004A3E0640270047D018002E4FD5B
:10546300FC7F70802190C35CE07004A3E064017F43
:10547300137E9270091291087D017C0080061291BF
:1054830023E4FDFC7F807E3902902290C35CE070B0
:1054930002A3E070077F337E9402912390C35CE004
:1054A3007004A3E0640170077F337E941290B822E6
:07901B007F30E4FDFC7E390B
:1090220090C35EECF0A3EDF07B017AC3795E90C34E
:0990320065E4F0A304F002659767
:058DF90090C225F0FF0F
:108DFE0090C297745AF0A37401F0E4A3F0EF25E04B
:108E0E0024C5F582E434C1F583A3E090C29AF07BC9
:108E1E00017AC2799790C365E4F0A37402F07F845F
:058E2E007E00026597C3
:0893010090C225EFF0028DFE81
:1086BB007F037E941290B87F137E941290B87F2321
:1086CB007E941290B87F237E921290B87F537E9245
:1086DB001290B87F537E941290B87F637E94129061
:1086EB00B87F737E941290B87F837E921290B87F7E
:1086FB00937E921290B87F737E921290B8E4FDFC39
:06870B00FF7E3002902207
:077FC80090C1B8E0FF7E004C
:107FCF0090C35CEEF0A3EFF064014E701512903B7E
:107FDF007F137E9412903F7F237E9412903F7D01FA
:107FEF00803A90C35CE07004A3E06402700B7F23BF
:107FFF007E9212903F7F53804190C35CE07004A348
:10800F00E0640370207F537E9412903F7F637E94D1
:10801F0012903F7F737E9412903F7D027C007F0011
:10802F007E3002902290C35CE07004A3E064047081
:10803F000E7F837E9212903F7F937E9212903F220B
:04895C00AB07AA06B5
:108960007C007D3C124E0390C33AEEF0A3EFF0AED4
:1089700002AF037C007D3C124E03A3ECF0A3EDF0AC
:108980007B017AC3793A90C365E4F0A304F07F5089
:108990007E281265977B017AC3793C90C365E4F029
:0A89A000A304F07F607E28026597B3
:0887110090C233E0FEA3E0FF7B
:04871900AB07AA06FA
:10871D007C007D3C124E0390C35CEEF0A3EFF0AEF7
:10872D0002AF037C007D3C124E03A3ECF0A3EDF0F1
:10873D007B017AC3795C90C365E4F0A304F07F00FC
:10874D007E311265977B017AC3795E90C365E4F043
:0A875D00A304F07F007E320265974E
:108E330090C2327401F07F737E9212903F7F337E33
:108E43009312903F7F437E9312903F7B017AC279C6
:108E53003390C361E4F0A304F07F067E81125EDEEB
:098E63007DE87C037F05028FF914
:1091C300E490C232F07F737E921290B87F337E9325
:0A91D3001290B87F437E930290B81B
:108CBC0090C232E070077F737E920290B87F0512EB
:108CCC0092AAEF602C90C234E024FFF090C233E003
:108CDC0034FFF0128714D390C234E0940090C23366
:108CEC00E0940050030291C37DE87C037F05128F52
:028CFC00F9225B
:10640300E490C338F0A3F07B017AC2794990C36169
:10641300F0A304F07F047E81125EDE7B017AC379F0
:106423003890C361E4F0A304F07F007E81125EDE46
:1064330090C338E0FAA3E0FB7C007D64FFAE021258
:106443004E0390C270EEF0A3EFF07C007D0AAF0321
:10645300AE02124E037C007D0A124E0390C221EC61
:10646300F0A3EDF090C338E0FEA3E0FF7C007D0ACB
:10647300124E0390C2A7ECF0A3EDF07B017AC3792F
:106483003890C361E4F0A304F07F027E81125EDEE4
:1064930090C338E0FAA3E0FB7C007D64FFAE0212F8
:1064A3004E0390C237EEF0A3EFF07C007D0AAF03FA
:1064B300AE02124E037C007D0A124E0390C2D1EC51
:1064C300F0A3EDF090C338E0FEA3E0FF7C007D0A6B
:1064D300124E0390C28DECF0A3EDF07B017AC279EA
:1064E3005A90C361E4F0A304F07F067E81125EDE5E
:1064F30090C25AE0FEA3E0FF12895C7B017AC37964
:106503003890C361E4F0A304F07F087E81125EDE5D
:1065130090C338E0FAA3E0FB7C007D0AFFAE0212D1
:106523004E037C007D0A124E0390C2D6ECF0A3ED1D
:10653300F07C007D0AAF03AE02124E0390C292ECD0
:10654300F0A3EDF07B017AC3793890C361E4F0A343
:1065530004F07F0A7E81125EDE90C338E0FAA3E086
:10656300FB7C007D0AFFAE02124E037C007D0A1203
:106573004E0390C2C3ECF0A3EDF07C007D0AAF03A1
:10658300AE02124E0390C25EECF0A3EDF07F737E79
:04659300920290B828
:106E880090C248E0B408004003026FD0906E9BF8AF
:106E9800282873026EB3026EBF026ED6026EF0022D
:106EA8006F11026F39026F68026F9C7F137E501258
:106EB800903F1290B4800E7F137E501290B87F23BB
:106EC8007E5012903F7F337E501290B880117F130E
:106ED8007E501290B81290B47F337E5012903F7F4C
:106EE800437E501290B880187F137E501290B812CB
:106EF80090B47F337E501290B87F437E5012903FFB
:106F08007F537E501290B8801F7F137E501290B826
:106F18001290B47F337E501290B87F437E50129007
:106F2800B87F537E5012903F7F637E501290B88096
:106F3800267F137E501290B81290B47F337E501281
:106F480090B87F437E501290B87F537E501290B80D
:106F58007F637E5012903F7F737E501290B8802DD1
:106F68007F137E501290B81290B47F337E501290E7
:106F7800B87F437E501290B87F537E501290B87FEE
:106F8800637E501290B87F737E5012903F7F437E8D
:106F9800560290B87F137E501290B81290B47F3387
:106FA8007E501290B87F437E501290B87F537E5027
:106FB8001290B87F637E501290B87F737E50129003
:096FC800B87F437E5612903F226F
:1071F80090C2C6E014604614607B1470030272B635
:10720800240360030272F290C24DE070097F037E8E
:10721800511290B8800D90C2CAE0700B7F037E5166
:1072280012903F7F13806E90C2CAE064016003022F
:1072380072F27F037E511290B87F13806D90C24D19
:10724800E0700B7F337E511290B87F43804790C225
:10725800CAE0700B7F337E5112903F7F4380369097
:10726800C2CAE0640160030272F27F337E51129059
:10727800B87F43803590C24DE0700B7F637E51121A
:1072880090B87F73800F90C2CAE0700D7F637E5103
:1072980012903F7F737E51803990C2CAE0640170BA
:1072A800497F637E511290B87F737E51803990C2B6
:1072B8004DE0700D7F937E511290B87F037E52800F
:1072C8001190C2CAE0700E7F937E5112903F7F03E7
:1072D8007E520290B890C2CAE0B4010E7F937E51EC
:0B72E8001290B87F037E5212903F22EC
:087AF80090C338E0FEA3E0FF9B
:107B0000EE702CEF24FE601604702490C2C6E07064
:107B1000057403F0801990C2C6E014F0801190C281
:107B2000C6E0B40304E4F0800690C2C6E004F0901E
:107B3000C2C6E014601A14602E1460472403705FFC
:107B40007F937E5012903F7F237E511290B8800E1B
:107B50007F937E501290B87F237E5112903F7F53C7
:107B60007E511290B880157F937E501290B87F237B
:107B70007E511290B87F537E5112903F7F837E5189
:107B80000290B87F937E501290B87F237E5112905E
:107B9000B87F537E511290B87F837E5112903F225E
:0870E50090C338E0FEA3E0FFB8
:1070ED00EE702CEF24FE601604702490C213E07035
:1070FD00057405F0801990C213E014F0801190C250
:10710D0013E0B40504E4F0800690C213E004F0909F
:10711D00C213E014602614603A146055146077149D
:10712D0070030271CD240560030271F77F137E5247
:10713D0012903F7F437E521290B8800E7F137E5285
:10714D001290B87F437E5212903F7F737E52129001
:10715D00B880157F137E521290B87F437E521290E5
:10716D00B87F737E5212903F7F037E531290B8808A
:10717D001C7F137E521290B87F437E521290B87FBF
:10718D00737E521290B87F037E5312903F7F437EE1
:10719D00531290B880237F137E521290B87F437E96
:1071AD00521290B87F737E521290B87F037E5312A5
:1071BD0090B87F437E5312903F7F737E530290B8F9
:1071CD007F137E521290B87F437E521290B87F7318
:1071DD007E521290B87F037E531290B87F437E5338
:0B71ED001290B87F737E5312903F2277
:10767A0090C213E014602F14604514605F1460799F
:10768A001470030277242405600302774390C28CA6
:10769A00E07F237E52B4010712903F7F338030127D
:1076AA0090B87F33803290C28CE07F537E52B4010F
:1076BA000712903F7F6380171290B87F63801990FA
:1076CA00C28CE07F837E52B4010912903F7F937E81
:1076DA005280591290B87F937E52805A90C28CE0A1
:1076EA007F137E53B4010912903F7F237E53803C5F
:1076FA001290B87F237E53803D90C28CE0B4010D76
:10770A007453FFFE12903F7F637E53801F7453FFB2
:10771A00FE1290B87F637E53801C90C28CE07F83F8
:10772A007E53B4010A12903F7F937E530290B8129F
:0A773A0090B87F937E5312903F2217
:0887BC0090C338E0FEA3E0FFCA
:1087C400EE702BEF24FE601504702390C236E07027
:1087D4000404F0801990C236E014F0801190C2367F
:1087E400E0B40104E4F0800690C236E004F090C2E4
:1087F40036E07F937E57700A12903F7F037E5802C3
:0D88040090B81290B87F037E5812903F226A
:0888110090C338E0FEA3E0FF74
:10881900EE702BEF24FE601504702390C29EE07069
:108829000404F0801990C29EE014F0801190C29E59
:10883900E0B40104E4F0800690C29EE004F090C226
:108849009EE07F737E56700A12903F7F837E5602A8
:0D88590090B81290B87F837E5612903F2297
:08804F0090C338E0FEA3E0FF3E
:10805700EE702CEF24FE601604702490C296E07038
:10806700057402F0801990C296E014F0801190C256
:1080770096E0B40204E4F0800690C296E004F09023
:10808700C296E070107F537E5512903F7F637E55F6
:108097001290B8801590C296E0B401157F537E55B3
:1080A7001290B87F637E5512903F7F737E55029082
:1080B700B890C296E0B402157F537E551290B87FF0
:0E80C700637E551290B87F737E5512903F2253
:1074C30090C29FE014602614603A146055146077EC
:1074D3001470030275742405600302759E7F037E96
:1074E3005712903F7F137E571290B8800E7F037E12
:1074F300571290B87F137E5712903F7F237E571207
:1075030090B880157F037E571290B87F137E571271
:1075130090B87F237E5712903F7F337E571290B8E7
:10752300801C7F037E571290B87F137E571290B84A
:107533007F237E571290B87F337E5712903F7F434D
:107543007E571290B880237F037E571290B87F1323
:107553007E571290B87F237E571290B87F337E57A1
:107563001290B87F437E5712903F7F537E5702900D
:10757300B87F037E571290B87F137E571290B87F5F
:10758300237E571290B87F337E571290B87F437E85
:0C759300571290B87F537E5712903F2291
:1072F30090C248E0B4080040030273DD907306F8BF
:1073030028287302731E02734002736F0273820292
:10731300739502739A0273CA0273D27F937E5012DB
:10732300903F7F237E511290B87F537E511290B8C5
:107333007F837E511290B890C22C0273CD7F137E4F
:107343005212903F7F437E521290B87F737E521247
:1073530090B87F037E531290B87F437E531290B848
:107363007F737E531290B890C291805E7F937E5755
:1073730012903F7F037E581290B890C2A2804B7F39
:10738300737E5612903F7F837E561290B890C285CB
:10739300803890C2D080337F537E5512903F7F63F5
:1073A3007E551290B87F737E551290B87B017AC2D6
:1073B300794E90C365E4F0A3740CF07F507E4512C0
:1073C300659790C25D800390C2C5E0FF0293019070
:0B73D300C218E0FF1293011274C322E5
:108F7C00E490C248F090C2C6F090C24DF090C2CAC4
:108F8C00F090C213F090C223F090C236F090C29EC3
:108F9C00F090C22BF090C296F090C219F090C29F44
:028FAC00F022B1
:0801000090C338EEF0A3EFF00C
:10010800E4A3F0A3F0A3F0A3F090C1B2E0600DE483
:10011800FF1292AAEF6005E490C1B2F090C338E0F4
:10012800FEA3E0FF64014E6006EF64024E70099082
:10013800C1B2E060030247277B017AC179C190C34D
:1001480061E4F0A304F07F0C7E80125EDE90C1C1F2
:10015800A3E0FF7C0030E0047D0180027D0090C3B5
:100168003EECF0A3EDF0EF7E0030E1047F01800269
:100178007F0090C340EEF0A3EFF090C1C1A3E0FF71
:100188007C0030E2047D0180027D0090C350ECF0D9
:10019800A3EDF0EF7E0030E3047F0180027F009042
:1001A800C352EEF0A3EFF090C1C1A3E0FF7C003092
:1001B800E4047D0180027D0090C354ECF0A3EDF0CF
:1001C800EF7E0030E7047F0180027F0090C342EE9B
:1001D800F0A3EFF090C1C1E0FEEE7C0030E4047DB6
:1001E8000180027D0090C344ECF0A3EDF0EE7E00A8
:1001F80030E0047F0180027F0090C346EEF0A3EF59
:10020800F090C1C1A3E0FF7C0030E5047D018002CD
:100218007D0090C348ECF0A3EDF0EF7E0030E604DB
:100228007F0180027F0090C34AEEF0A3EFF090C1F7
:10023800C1E0FEEE7C0030E1047D0180027D00908B
:10024800C34CECF0A3EDF0EE7E0030E2047F0180B9
:10025800027F0090C34EEEF0A3EFF090C1C1E0FE24
:10026800EE7C0030E3047D0180027D0090C356ECF3
:10027800F0A3EDF0EE7E0030E5047F0180027F0000
:1002880090C358EEF0A3EFF090C348E07004A3E0E9
:040298006401700B82
:09029C0090C35A74C0F0A374442D
:1002A500801D90C34CE07004A3E0640190C35A70B4
:0102B5000840
:0602B6007405F0A3741CA6
:0202BC008006BA
:1002BE0074CEF0A37459F07B017AC3795A90C3655A
:0C02CE00E4F0A304F07F137E9312659708
:0C02DA0090C34AE07004A3E06401700BC4
:0902E60090C35A74C0F0A37444E3
:1002EF00801D90C34EE07004A3E0640190C35A7068
:0102FF0008F6
:060300007405F0A3741C5B
:0203060080066F
:1003080074CEF0A37459F07B017AC3795A90C3650F
:0C031800E4F0A304F07F237E93126597AD
:1003240090C239E07002A3E0701990C358E07004E1
:10033400A3E06401700D741B128DF990C239E4F0CE
:10034400A304F090C346E07004A3E06401700F902E
:10035400C2CDE07009128E3390C2CD7401F090C208
:1003640025E0B4182990C21AE07002A3E0701F7B44
:10037400017AC2793390C361F0A304F07F067E81D1
:10038400125EDE12871190C21AE4F0A304F090C347
:100394003EE07004A3E06401600302044C90C24296
:1003A400E07004A3E06401600302044C7417128D2E
:1003B400F97B017AC3793C90C361E4F0A304F07F34
:1003C400067E81125EDE90C33CE0FAA3E0FB7C0073
:1003D4007D3CFFAE02124E0390C288EEF0A3EFF014
:1003E4007C007D3CAF03AE02124E0390C214ECF0CD
:1003F400A3EDF07B017AC2798890C365E4F0A3048D
:10040400F07F507E281265977B017AC2791490C3DD
:1004140065E4F0A304F07F607E28126597E490C140
:10042400B7F090C1B3F0A3F090C1BFF0A3F090C1B6
:10043400B8F090C242F0A3F090C2CDF090C21AF08E
:10044400A3F01291C302050990C342E07004A3E033
:100454006401602690C34AE07004A3E06401601A5A
:1004640090C348E07004A3E064017002800C90C360
:1004740046E07004A3E0640170321286BB90C2426D
:10048400E4F0A304F090C2257418F0FF128DFEE48A
:1004940090C1B7F090C1B3F0A3F090C1BFF0A3F046
:1004A40090C1B8F090C239F0A3F0805990C34EE0E7
:1004B4007004A3E06401600C90C34CE07004A3E0FA
:1004C400640170411286BB90C2257419F0FF128D2D
:1004D400FE1291C390C233E07004A3E0640170097A
:1004E40090C233F0A3F0128711E490C1B7F090C129
:1004F400B3F0A3F090C1BFF0A3F090C1B8F090C2E4
:1005040042F0A304F090C338E0FEA3E0FFEE6003E2
:10051400024727EF24FE7003021F83147003023A7C
:10052400401470030246C12403600302472790C1AC
:10053400BFE07004A3E064016003021CA790C2C87A
:10054400E0FF90C225E06F600302079C90C1B4E015
:10055400600302060690C2A7E0FEA3E0FF90C33A40
:10056400EEF0A3EFF04E700A90C2A7F0A37409F066
:10057400800E90C2A8E024FFF090C2A7E034FFF000
:1005840090C221E0FEA3E0FF7C007D0A124DF1AA97
:1005940006AB0790C270E0FEA3E0FF7D64124DF14C
:1005A400EF2BFFEE3AFE90C2A8E02FFF90C2A7E027
:1005B4003E90C33CF0A3EFF090C2A0E0FEA3E0FFA6
:1005C40090C33CE0FCA3E0FDD39FEC9E501090C28E
:1005D4009CE0FEA3E0FFED9FEC9E4002800F90C3E1
:1005E4003AE0FFA3E090C2A7CFF0A3EFF07B017A3B
:1005F400C279A790C365E4F0A304F07420FFFE025F
:100604001F7D90C1B4E0640160030206D190C22151
:10061400E0FEA3E0FF90C33AEEF0A3EFF04E700AC1
:1006240090C221F0A37409F0800E90C222E024FF4E
:10063400F090C221E034FFF090C221E0FEA3E0FF7D
:100644007C007D0A124DF1AA06AB0790C270E0FE51
:10065400A3E0FF7D64124DF1EF2BFFEE3AFE90C252
:10066400A8E02FFF90C2A7E03E90C33CF0A3EFF0B8
:1006740090C2A0E0FEA3E0FF90C33CE0FCA3E0FD39
:10068400D39FEC9E502390C29CE0FEA3E0FFED9F1D
:10069400EC9E40157B017AC2792190C365E4F0A3F6
:1006A40004F07F107E20021F7D90C33AE0FFA3E098
:1006B40090C221CFF0A3EFF07B017AC2792190C3DD
:1006C40065E4F0A304F07F107E20021F7D90C1B486
:1006D400E064026003023A3190C270E0FEA3E0FFDE
:1006E40090C33AEEF0A3EFF04E700A90C270F0A3FC
:1006F4007402F0800E90C271E024FFF090C270E0AA
:1007040034FFF090C221E0FEA3E0FF7C007D0A12DA
:100714004DF1AA06AB0790C270E0FEA3E0FF7D6432
:10072400124DF1EF2BFFEE3AFE90C2A8E02FFF909E
:10073400C2A7E03E90C33CF0A3EFF090C2A0E0FE5D
:10074400A3E0FF90C33CE0FCA3E0FDD39FEC9E50EC
:100754002390C29CE0FEA3E0FFED9FEC9E40157B3E
:10076400017AC2797090C365E4F0A304F07F007E3F
:1007740020021F7D90C33AE0FFA3E090C270CFF047
:10078400A3EFF07B017AC2797090C365E4F0A3040F
:10079400F07F007E20021F7D90C2D5E0FF90C2252D
:1007A400E06F60030208F990C1B4E06003020851ED
:1007B40090C292E0FEA3E0FF90C33AEEF0A3EFF004
:1007C4004E700A90C292F0A37409F0800E90C29306
:1007D400E024FFF090C292E034FFF090C2D6E0FE35
:1007E400A3E0FF7C007D0A124DF190C293E02FFF3D
:1007F40090C292E03E90C33CF0A3EFF090C33CE083
:10080400FEA3E0FFD39450EE9400501DEF9400EE4D
:10081400940040157B017AC2799290C365E4F0A3F9
:1008240004F07F207E21021F7D90C33AE0FFA3E005
:1008340090C292CFF0A3EFF07B017AC2799290C379
:1008440065E4F0A304F07F207E21021F7D90C1B4F3
:10085400E064016003023A3190C2D6E0FEA3E0FFF7
:1008640090C33AEEF0A3EFF04E700A90C2D6F0A314
:100874007408F0800E90C2D7E024FFF090C2D6E056
:1008840034FFF090C2D6E0FEA3E0FF7C007D0A12A4
:100894004DF190C293E02FFF90C292E03E90C33C92
:1008A400F0A3EFF090C33CE0FEA3E0FFD39450EE3E
:1008B4009400501DEF9400EE940040157B017AC221
:1008C40079D690C365E4F0A304F07F107E21021F63
:1008D4007D90C33AE0FFA3E090C2D6CFF0A3EFF03F
:1008E4007B017AC279D690C365E4F0A304F07F104B
:1008F4007E21021F7D90C22FE0FF90C225E06F6031
:1009040003020B6A90C1B4E060030209D490C1B938
:10091400E0FEA3E0FF90C33AEEF0A3EFF04E700ABE
:1009240090C1B9F0A37402F0800E90C1BAE024FF24
:10093400F090C1B9E034FFF090C1BBE0FEA3E0FF4A
:100944007C007D0A124DF1AA06AB0790C1B9E0FE06
:10095400A3E0FF7D64124DF1EF2BFFEE3AFE90C150
:10096400BEE02FFF90C1BDE03E90C33CF0A3EFF08A
:1009740090C33CE0FEA3E0FFD39432EE9400502CED
:10098400EF9400EE9400402490C1B9E0FFA3E090FE
:10099400C2B6CFF0A3EFF07B017AC179B990C365F9
:1009A400E4F0A304F07F007E22021F7D90C33AE0AE
:1009B400FFA3E090C1B9CFF0A3EFF07B017AC17936
:1009C400B990C365E4F0A304F07F007E22021F7D8A
:1009D40090C1B4E064016003020AA290C1BBE0FECE
:1009E400A3E0FF90C33AEEF0A3EFF04E700A90C17B
:1009F400BBF0A37405F0800E90C1BCE024FFF0901E
:100A0400C1BBE034FFF090C1BBE0FEA3E0FF7C007B
:100A14007D0A124DF1AA06AB0790C1B9E0FEA3E02E
:100A2400FF7D64124DF1EF2BFFEE3AFE90C1BEE064
:100A34002FFF90C1BDE03E90C33CF0A3EFF090C304
:100A44003CE0FEA3E0FFD39432EE9400502CEF94EC
:100A540000EE9400402490C1BBE0FFA3E090C27775
:100A6400CFF0A3EFF07B017AC179BB90C365E4F0CA
:100A7400A304F07F107E22021F7D90C33AE0FFA3FF
:100A8400E090C1BBCFF0A3EFF07B017AC179BB90BA
:100A9400C365E4F0A304F07F107E22021F7D90C1A1
:100AA400B4E064026003023A3190C1BDE0FEA3E009
:100AB400FF90C33AEEF0A3EFF04E700A90C1BDF080
:100AC400A37409F0800E90C1BEE024FFF090C1BD74
:100AD400E034FFF090C1BBE0FEA3E0FF7C007D0AA0
:100AE400124DF1AA06AB0790C1B9E0FEA3E0FF7D69
:100AF40064124DF1EF2BFFEE3AFE90C1BDE0FCA372
:100B0400E0FD2FFFEC3E90C33CF0A3EFF090C33C1C
:100B1400E0FEA3E0FFD39432EE94005025EF94005E
:100B2400EE9400401D90C264ECF0A3EDF07B017ADA
:100B3400C179BD90C365E4F0A304F07F207E220256
:100B44001F7D90C33AE0FFA3E090C1BDCFF0A3EFB7
:100B5400F07B017AC179BD90C365E4F0A304F07F12
:100B6400207E22021F7D90C2B0E0FF90C225E06F7C
:100B74006003020DD890C1B4E06003020C4290C23D
:100B84008DE0FEA3E0FF90C33AEEF0A3EFF04E70C9
:100B94000A90C28DF0A37409F0800E90C28EE024F6
:100BA400FFF090C28DE034FFF090C2D1E0FEA3E0EC
:100BB400FF7C007D0A124DF1AA06AB0790C237E014
:100BC400FEA3E0FF7D64124DF1EF2BFFEE3AFE90A1
:100BD400C28EE02FFF90C28DE03E90C33CF0A3EFA5
:100BE400F090C28FE0FEA3E0FF90C33CE0FCA3E0E2
:100BF400FDD39FEC9E502390C28AE0FEA3E0FFED5C
:100C04009FEC9E40157B017AC2798D90C365E4F018
:100C1400A304F07F207E23021F7D90C33AE0FFA34C
:100C2400E090C28DCFF0A3EFF07B017AC2798D9072
:100C3400C365E4F0A304F07F207E23021F7D90C1EE
:100C4400B4E064016003020D0D90C2D1E0FEA3E0A4
:100C5400FF90C33AEEF0A3EFF04E700A90C2D1F0C9
:100C6400A37409F0800E90C2D2E024FFF090C2D1A8
:100C7400E034FFF090C2D1E0FEA3E0FF7C007D0AE7
:100C8400124DF1AA06AB0790C237E0FEA3E0FF7D48
:100C940064124DF1EF2BFFEE3AFE90C28EE02FFF6F
:100CA40090C28DE03E90C33CF0A3EFF090C28FE081
:100CB400FEA3E0FF90C33CE0FCA3E0FDD39FEC9EC9
:100CC400502390C28AE0FEA3E0FFED9FEC9E401506
:100CD4007B017AC279D190C365E4F0A304F07F105C
:100CE4007E23021F7D90C33AE0FFA3E090C2D1CFE0
:100CF400F0A3EFF07B017AC279D190C365E4F0A34D
:100D040004F07F107E23021F7D90C1B4E064026072
:100D140003023A3190C237E0FEA3E0FF90C33AEEFB
:100D2400F0A3EFF04E700A90C237F0A37402F08083
:100D34000E90C238E024FFF090C237E034FFF09008
:100D4400C2D1E0FEA3E0FF7C007D0A124DF1AA06A9
:100D5400AB0790C237E0FEA3E0FF7D64124DF1EFD4
:100D64002BFFEE3AFE90C28EE02FFF90C28DE03E44
:100D740090C33CF0A3EFF090C28FE0FEA3E0FF909D
:100D8400C33CE0FCA3E0FDD39FEC9E502390C28AB9
:100D9400E0FEA3E0FFED9FEC9E40157B017AC27953
:100DA4003790C365E4F0A304F07F007E23021F7D27
:100DB40090C33AE0FFA3E090C237CFF0A3EFF07BFB
:100DC400017AC2793790C365E4F0A304F07F007E12
:100DD40023021F7D90C2C7E0FF90C225E06F60032D
:100DE400020F3590C1B4E06003020E8D90C25EE044
:100DF400FEA3E0FF90C33AEEF0A3EFF04E700A902A
:100E0400C25EF0A37409F0800E90C25FE024FFF08C
:100E140090C25EE034FFF090C2C3E0FEA3E0FF7C2A
:100E2400007D0A124DF190C25FE02FFF90C25EE098
:100E34003E90C33CF0A3EFF090C33CE0FEA3E0FF80
:100E4400D39450EE9400501DEF9400EE940040159E
:100E54007B017AC2795E90C365E4F0A304F07F203D
:100E64007E24021F7D90C33AE0FFA3E090C25ECFD0
:100E7400F0A3EFF07B017AC2795E90C365E4F0A33E
:100E840004F07F207E24021F7D90C1B4E0640160E1
:100E940003023A3190C2C3E0FEA3E0FF90C33AEEEE
:100EA400F0A3EFF04E700A90C2C3F0A37408F08070
:100EB4000E90C2C4E024FFF090C2C3E034FFF0906F
:100EC400C2C3E0FEA3E0FF7C007D0A124DF190C294
:100ED4005FE02FFF90C25EE03E90C33CF0A3EFF0D2
:100EE40090C33CE0FEA3E0FFD39450EE9400501D69
:100EF400EF9400EE940040157B017AC279C390C34D
:100F040065E4F0A304F07F107E24021F7D90C33AB1
:100F1400E0FFA3E090C2C3CFF0A3EFF07B017AC25D
:100F240079C390C365E4F0A304F07F107E24021F0C
:100F34007D90C220E0FF90C225E06F60030211A6FD
:100F440090C1B4E0600302101090C1B9E0FEA3E0C8
:100F5400FF90C33AEEF0A3EFF064024E700890C124
:100F6400B9F0A3F0800E90C1BAE024FFF090C1B9AB
:100F7400E034FFF090C1BBE0FEA3E0FF7C007D0AFB
:100F8400124DF1AA06AB0790C1B9E0FEA3E0FF7DC4
:100F940064124DF1EF2BFFEE3AFE90C1BEE02FFF3D
:100FA40090C1BDE03E90C33CF0A3EFF090C33CE0A1
:100FB400FEA3E0FFD39432EE9400502CEF9400EEA5
:100FC4009400402490C1B9E0FFA3E090C2BCCFF0EC
:100FD400A3EFF07B017AC179B990C365E4F0A3046F
:100FE400F07F007E25021F7D90C33AE0FFA3E090CE
:100FF400C1B9CFF0A3EFF07B017AC179B990C36591
:10100400E4F0A304F07F007E25021F7D90C1B4E0CC
:10101400640160030210DE90C1BBE0FEA3E0FF9018
:10102400C33AEEF0A3EFF04E700A90C1BBF0A37484
:1010340005F0800E90C1BCE024FFF090C1BBE03409
:10104400FFF090C1BBE0FEA3E0FF7C007D0A124DDF
:10105400F1AA06AB0790C1B9E0FEA3E0FF7D6412DC
:101064004DF1EF2BFFEE3AFE90C1BEE02FFF90C191
:10107400BDE03E90C33CF0A3EFF090C33CE0FEA380
:10108400E0FFD39432EE9400502CEF9400EE9400E1
:10109400402490C1BBE0FFA3E090C27DCFF0A3EF5A
:1010A400F07B017AC179BB90C365E4F0A304F07FBF
:1010B400107E25021F7D90C33AE0FFA3E090C1BBE0
:1010C400CFF0A3EFF07B017AC179BB90C365E4F064
:1010D400A304F07F107E25021F7D90C1B4E064025A
:1010E4006003023A3190C1BDE0FEA3E0FF90C33A31
:1010F400EEF0A3EFF04E700A90C1BDF0A37409F0B6
:10110400800E90C1BEE024FFF090C1BDE034FFF03A
:1011140090C1BBE0FEA3E0FF7C007D0A124DF1AA62
:1011240006AB0790C1B9E0FEA3E0FF7D64124DF168
:10113400EF2BFFEE3AFE90C1BDE0FCA3E0FD2FFFD4
:10114400EC3E90C33CF0A3EFF090C33CE0FEA3E080
:10115400FFD39432EE94005025EF9400EE940040B7
:101164001D90C26AECF0A3EDF07B017AC179BD90C9
:10117400C365E4F0A304F07F207E25021F7D90C3A5
:101184003AE0FFA3E090C1BDCFF0A3EFF07B017A7A
:10119400C179BD90C365E4F0A304F07F207E2502ED
:1011A4001F7D90C2C2E0FF90C225E06F600302136E
:1011B4002E90C1B4E0600302127A90C288E0FEA3CC
:1011C400E0FF90C33AEEF0A3EFF04E701D90C2140E
:1011D400E07002A3E090C2886008E4F0A3743BF0DE
:1011E4008016E4F0A3743CF0800E90C289E024FFE2
:1011F400F090C288E034FFF090C288E0FEA3E0FFE4
:101204007C007D3C124DF190C215E02FFF90C2147A
:10121400E03E90C33CF0A3EFF090C2A9E0FEA3E04F
:10122400FF90C33CE0FCA3E0FDD39FEC9E502390D1
:10123400C2A3E0FEA3E0FFED9FEC9E40157B017A84
:10124400C2798890C365E4F0A304F07F507E28023D
:101254001F7D90C33AE0FFA3E090C288CFF0A3EFD4
:10126400F07B017AC2798890C365E4F0A304F07F2F
:10127400507E28021F7D90C1B4E064016003023AED
:101284003190C214E0FEA3E0FF90C33AEEF0A3EF66
:10129400F04E700A90C214F0A3743BF0800E90C21A
:1012A40015E024FFF090C214E034FFF090C288E00F
:1012B400FEA3E0FF7C007D3C124DF190C215E02FAF
:1012C400FF90C214E03E90C33CF0A3EFF090C2A99B
:1012D400E0FEA3E0FF90C33CE0FCA3E0FDD39FEC61
:1012E4009E502390C2A3E0FEA3E0FFED9FEC9E403E
:1012F400157B017AC2791490C365E4F0A304F07FEE
:10130400607E28021F7D90C33AE0FFA3E090C214E0
:10131400CFF0A3EFF07B017AC2791490C365E4F0B7
:10132400A304F07F607E28021F7D90C29BE0FF90A3
:10133400C225E06F704290C1B4E06003023A31907C
:10134400C2CEE0FEA3E0FFD390C24AE09F90C24920
:10135400E09E5003023A31A3E024FFF090C249E03A
:1013640034FFF07B017AC2794990C365E4F0A304A9
:10137400F07F207E29021F7D90C21CE0FF90C225D1
:10138400E06F6003021A2390C1B8E06401600302B5
:1013940015F590C1B4E0600302145F90C2A7E0FEAB
:1013A400A3E0FF90C33AEEF0A3EFF04E700A90C2B0
:1013B400A7F0A37409F0800E90C2A8E024FFF09077
:1013C400C2A7E034FFF090C221E0FEA3E0FF7C005E
:1013D4007D0A124DF1AA06AB0790C270E0FEA3E0AD
:1013E400FF7D64124DF1EF2BFFEE3AFE90C2A8E0B0
:1013F4002FFF90C2A7E03E90C33CF0A3EFF090C251
:10140400A0E0FEA3E0FF90C33CE0FCA3E0FDD39F7B
:10141400EC9E502390C29CE0FEA3E0FFED9FEC9E67
:1014240040157B017AC279A790C365E4F0A304F068
:101434007F207E28021F7D90C33AE0FFA3E090C284
:10144400A7CFF0A3EFF07B017AC279A790C365E43C
:10145400F0A304F07F207E28021F7D90C1B4E064D5
:1014640001600302152A90C221E0FEA3E0FF90C3AD
:101474003AEEF0A3EFF04E700A90C221F0A3740983
:10148400F0800E90C222E024FFF090C221E034FFED
:10149400F090C221E0FEA3E0FF7C007D0A124DF132
:1014A400AA06AB0790C270E0FEA3E0FF7D64124D74
:1014B400F1EF2BFFEE3AFE90C2A8E02FFF90C2A7F7
:1014C400E03E90C33CF0A3EFF090C2A0E0FEA3E0A6
:1014D400FF90C33CE0FCA3E0FDD39FEC9E5023901F
:1014E400C29CE0FEA3E0FFED9FEC9E40157B017AD9
:1014F400C2792190C365E4F0A304F07F107E280232
:101504001F7D90C33AE0FFA3E090C221CFF0A3EF88
:10151400F07B017AC2792190C365E4F0A304F07FE3
:10152400107E28021F7D90C1B4E064026003023A79
:101534003190C270E0FEA3E0FF90C33AEEF0A3EF57
:10154400F04E700A90C270F0A37402F0800E90C244
:1015540071E024FFF090C270E034FFF090C221E00B
:10156400FEA3E0FF7C007D0A124DF1AA06AB0790B2
:10157400C270E0FEA3E0FF7D64124DF1EF2BFFEE9D
:101584003AFE90C2A8E02FFF90C2A7E03E90C33C71
:10159400F0A3EFF090C2A0E0FEA3E0FF90C33CE014
:1015A400FCA3E0FDD39FEC9E502390C29CE0FEA3DD
:1015B400E0FFED9FEC9E40157B017AC2797090C3E9
:1015C40065E4F0A304F07F007E28021F7D90C33AF7
:1015D400E0FFA3E090C270CFF0A3EFF07B017AC2EA
:1015E400797090C365E4F0A304F07F007E28021FA5
:1015F4007D90C1B8E0B4023990C2CEE0FEA3E0FF12
:10160400D390C24AE09F90C249E09E5003023A310F
:10161400A3E024FFF090C249E034FFF07B017AC2DA
:10162400794990C365E4F0A304F07F307E29021F5A
:101634007D90C1B8E06403600302189F90C1B4E0D8
:10164400600302170990C28DE0FEA3E0FF90C33A45
:10165400EEF0A3EFF04E700A90C28DF0A37409F07F
:10166400800E90C28EE024FFF090C28DE034FFF033
:1016740090C2D1E0FEA3E0FF7C007D0A124DF1AAE6
:1016840006AB0790C237E0FEA3E0FF7D64124DF184
:10169400EF2BFFEE3AFE90C28EE02FFF90C28DE05A
:1016A4003E90C33CF0A3EFF090C28FE0FEA3E0FFB6
:1016B40090C33CE0FCA3E0FDD39FEC9E502390C27A
:1016C4008AE0FEA3E0FFED9FEC9E40157B017AC209
:1016D400798D90C365E4F0A304F07F907E28021F07
:1016E4007D90C33AE0FFA3E090C28DCFF0A3EFF06A
:1016F4007B017AC2798D90C365E4F0A304F07F90F6
:101704007E28021F7D90C1B4E0640160030217D4F7
:1017140090C2D1E0FEA3E0FF90C33AEEF0A3EFF055
:101724004E700A90C2D1F0A37409F0800E90C2D218
:10173400E024FFF090C2D1E034FFF090C2D1E0FE8B
:10174400A3E0FF7C007D0A124DF1AA06AB0790C20C
:1017540037E0FEA3E0FF7D64124DF1EF2BFFEE3A7C
:10176400FE90C28EE02FFF90C28DE03E90C33CF00D
:10177400A3EFF090C28FE0FEA3E0FF90C33CE0FC37
:10178400A3E0FDD39FEC9E502390C28AE0FEA3E029
:10179400FFED9FEC9E40157B017AC279D190C36521
:1017A400E4F0A304F07F807E28021F7D90C33AE01A
:1017B400FFA3E090C2D1CFF0A3EFF07B017AC2790E
:1017C400D190C365E4F0A304F07F807E28021F7DDE
:1017D40090C1B4E064026003023A3190C237E0FE83
:1017E400A3E0FF90C33AEEF0A3EFF04E700A90C26C
:1017F40037F0A37402F0800E90C238E024FFF0901A
:10180400C237E034FFF090C2D1E0FEA3E0FF7C00D9
:101814007D0A124DF1AA06AB0790C237E0FEA3E0A1
:10182400FF7D64124DF1EF2BFFEE3AFE90C28EE085
:101834002FFF90C28DE03E90C33CF0A3EFF090C226
:101844008FE0FEA3E0FF90C33CE0FCA3E0FDD39F48
:10185400EC9E502390C28AE0FEA3E0FFED9FEC9E35
:1018640040157B017AC2793790C365E4F0A304F094
:101874007F707E28021F7D90C33AE0FFA3E090C2F0
:1018840037CFF0A3EFF07B017AC2793790C365E4D8
:10189400F0A304F07F707E28021F7D90C1B8E0643D
:1018A400046003023A3190C1B4E0600302196F90FE
:1018B400C288E0FEA3E0FF90C33AEEF0A3EFF04E3F
:1018C400701D90C214E07002A3E090C2886008E426
:1018D400F0A3743BF08016E4F0A3743CF0800E9007
:1018E400C289E024FFF090C288E034FFF090C288FF
:1018F400E0FEA3E0FF7C007D3C124DF190C215E0B8
:101904002FFF90C214E03E90C33CF0A3EFF090C2CE
:10191400A9E0FEA3E0FF90C33CE0FCA3E0FDD39F5D
:10192400EC9E502390C2A3E0FEA3E0FFED9FEC9E4B
:1019340040157B017AC2798890C365E4F0A304F072
:101944007F507E28021F7D90C33AE0FFA3E090C23F
:1019540088CFF0A3EFF07B017AC2798890C365E465
:10196400F0A304F07F507E28021F7D90C1B4E06490
:10197400016003023A3190C214E0FEA3E0FF90C379
:101984003AEEF0A3EFF04E700A90C214F0A3743B49
:10199400F0800E90C215E024FFF090C214E034FFF2
:1019A400F090C288E0FEA3E0FF7C007D3C124DF184
:1019B40090C215E02FFF90C214E03E90C33CF0A308
:1019C400EFF090C2A9E0FEA3E0FF90C33CE0FCA3CB
:1019D400E0FDD39FEC9E502390C2A3E0FEA3E0FF62
:1019E400ED9FEC9E40157B017AC2791490C365E4A7
:1019F400F0A304F07F607E28021F7D90C33AE0FFCD
:101A0400A3E090C214CFF0A3EFF07B017AC2791463
:101A140090C365E4F0A304F07F607E28021F7D90EC
:101A2400C22DE064016003023A3190C22CE0FF90C1
:101A3400C225E06F6003021C5B90C2C6E060030233
:101A44001AC390C2CAE07033D390C29DE09401904F
:101A5400C29CE094005003023A31A3E024FFF090CA
:101A6400C29CE034FFF07B017AC2799C90C365E4A8
:101A7400F0A304F07F007E41021F7D90C2CAE0649F
:101A8400016003023A3190C29CE0FEA3E0FFD390D0
:101A9400C2A1E09F90C2A0E09E5003023A31A3E0AD
:101AA40024FFF090C2A0E034FFF07B017AC279A059
:101AB40090C365E4F0A304F07F107E41021F7D9083
:101AC400C2C6E064016003021B4B90C2CAE07033DB
:101AD400D390C28BE0940190C28AE0940050030238
:101AE4003A31A3E024FFF090C28AE034FFF07B0196
:101AF4007AC2798A90C365E4F0A304F07F307E4112
:101B0400021F7D90C2CAE064016003023A3190C2B0
:101B14008AE0FEA3E0FFD390C290E09F90C28FE0E2
:101B24009E5003023A31A3E024FFF090C28FE034C8
:101B3400FFF07B017AC2798F90C365E4F0A304F0CF
:101B44007F407E41021F7D90C2C6E06402600302B2
:101B54001BD390C2CAE07033D390C2CFE0940090FC
:101B6400C2CEE094005003023A31A3E024FFF09087
:101B7400C2CEE034FFF07B017AC279CE90C365E433
:101B8400F0A304F07F607E41021F7D90C2CAE0642E
:101B9400016003023A3190C2CEE0FEA3E0FFD3908D
:101BA400C2D4E09F90C2D3E09E5003023A31A3E036
:101BB40024FFF090C2D3E034FFF07B017AC279D3E2
:101BC40090C365E4F0A304F07F707E41021F7D9012
:101BD400C2C6E064036003023A3190C2CAE07033C3
:101BE400D390C2A4E0940090C2A3E09400500302F6
:101BF4003A31A3E024FFF090C2A3E034FFF07B016C
:101C04007AC279A390C365E4F0A304F07F907E4187
:101C1400021F7D90C2CAE064016003023A3190C29F
:101C2400A3E0FEA3E0FFD390C2AAE09F90C2A9E084
:101C34009E5003023A31A3E024FFF090C2A9E0349D
:101C4400FFF07B017AC279A990C365E4F0A304F0A4
:101C54007F007E42021F7D90C2A2E0FF90C225E079
:101C6400FE6F7003023A3190C285E06E7003023A4F
:101C74003190C2D0E0FF90C225E0FE6F7003023ABB
:101C84003190C25DE06E7003023A3190C2C5E0FF4C
:101C940090C225E0FE6F7003023A3190C218E06EE4
:101CA400023A3190C1B7E06401702890C1BFE0707E
:101CB40002A3E06003023A311286BB90C1B8E0B4DB
:101CC40001057404F0800690C1B8E014F0127FC8D6
:101CD400023A3190C225E0FFD394014008EFD39437
:101CE400075002804490C2A5E0FF90C225E0B507EA
:101CF4000B90C2AFE0FF90C225F0803290C1B5E0F6
:101D04006401703090C272E0FF90C225E0B507050F
:101D140090C286803B90C231E0FF90C225E0B507B7
:101D24000590C272802A90C225E014F0E0FF128D63
:101D3400FE023A3190C1B6E0B4011D90C224E0FF26
:101D4400A3E0B5070590C272800690C225E014F0A6
:101D5400E0FF129301023A3190C22DE06401600366
:101D6400023A3190C23BE0FF90C225E0B5071790DC
:101D7400C248E070057407F0800690C248E014F091
:101D8400126E88023A3190C22CE0FF90C225E0B571
:101D94000706127AF8023A3190C291E0FF90C22508
:101DA400E0B5070F90C28CE06003023A311270E58F
:101DB400023A3190C2A2E0FF90C225E0B5070612B4
:101DC40087BC023A3190C285E0FF90C225E0B50796
:101DD40006128811023A3190C2D0E0FF90C225E089
:101DE400FE6F7003023A3190C25DE0B506061280C0
:101DF4004F023A3190C2C5E0FF90C225E0FE6F70F9
:101E040003023A3190C218E06E6003023A3190C284
:101E14009FE0146056147003021EA6147003021E81
:101E2400DD147003021F13147003021F492405609C
:101E340003023A3190C23CE07002A3E0700A90C2FF
:101E44003CF0A37409F0800E90C23DE024FFF090B2
:101E5400C23CE034FFF07B017AC2793C90C365E474
:101E6400F0A304F07F007E47021F7D90C23EE07025
:101E740002A3E0700A90C23EF0A37409F0800E90B1
:101E8400C23FE024FFF090C23EE034FFF07B017AD1
:101E9400C2793E90C365E4F0A304F07F107E47024C
:101EA4001F7D90C240E07002A3E0700A90C240F02F
:101EB400A37409F0800E90C241E024FFF090C24068
:101EC400E034FFF07B017AC2794090C365E4F0A36B
:101ED40004F07F207E47021F7D90C244E07002A37D
:101EE400E0700A90C244F0A37409F0800E90C245D9
:101EF400E024FFF090C244E034FFF07B017AC27921
:101F04004490C365E4F0A304F07F307E47806A9078
:101F1400C246E07002A3E0700A90C246F0A37409BE
:101F2400F0800E90C247E024FFF090C246E034FFF8
:101F3400F07B017AC2794690C365E4F0A304F07F94
:101F4400407E47803490C24BE07002A3E0700A9058
:101F5400C24BF0A37409F0800E90C24CE024FFF051
:101F640090C24BE034FFF07B017AC2794B90C36599
:101F7400E4F0A304F07F507E47126597023A319053
:101F8400C1BFE07004A3E06401600302373790C26C
:101F9400C8E0FF90C225E06F60030221F090C1B455
:101FA400E0600302205890C2A7E0FEA3E0FF90C3C4
:101FB4003AEEF0A3EFF064094E601090C2A8E0047A
:101FC400F0700F90C2A7E004F08007E490C2A7F07D
:101FD400A3F090C221E0FEA3E0FF7C007D0A124D35
:101FE400F1AA06AB0790C270E0FEA3E0FF7D641285
:101FF4004DF1EF2BFFEE3AFE90C2A8E02FFF90C206
:10200400A7E03E90C33CF0A3EFF090C2A0E0FEA393
:10201400E0FF90C33CE0FCA3E0FDD39FEC9E501096
:1020240090C29CE0FEA3E0FFED9FEC9E4002800F77
:1020340090C33AE0FFA3E090C2A7CFF0A3EFF07BF8
:10204400017AC279A790C365E4F0A304F07420FF79
:10205400FE023A2E90C1B4E0640160030221249090
:10206400C221E0FEA3E0FF90C33AEEF0A3EFF064D8
:10207400094E601090C222E004F0700F90C221E07B
:1020840004F08007E490C221F0A3F090C221E0FEA6
:10209400A3E0FF7C007D0A124DF1AA06AB0790C2B3
:1020A40070E0FEA3E0FF7D64124DF1EF2BFFEE3AEA
:1020B400FE90C2A8E02FFF90C2A7E03E90C33CF080
:1020C400A3EFF090C2A0E0FEA3E0FF90C33CE0FCCD
:1020D400A3E0FDD39FEC9E502390C29CE0FEA3E0BE
:1020E400FFED9FEC9E40157B017AC2792190C36578
:1020F400E4F0A304F07F107E20023A2E90C33AE06D
:10210400FFA3E090C221CFF0A3EFF07B017AC27964
:102114002190C365E4F0A304F07F107E20023A2EE0
:1021240090C1B4E064026003023A3190C270E0FEF0
:10213400A3E0FF90C33AEEF0A3EFF064024E601008
:1021440090C271E004F0700F90C270E004F0800758
:10215400E490C270F0A3F090C221E0FEA3E0FF7C03
:10216400007D0A124DF1AA06AB0790C270E0FEA3EF
:10217400E0FF7D64124DF1EF2BFFEE3AFE90C2A812
:10218400E02FFF90C2A7E03E90C33CF0A3EFF09095
:10219400C2A0E0FEA3E0FF90C33CE0FCA3E0FDD3BB
:1021A4009FEC9E502390C29CE0FEA3E0FFED9FECC9
:1021B4009E40157B017AC2797090C365E4F0A30454
:1021C400F07F007E20023A2E90C33AE0FFA3E09015
:1021D400C270CFF0A3EFF07B017AC2797090C3652F
:1021E400E4F0A304F07F007E20023A2E90C2D5E0F2
:1021F400FF90C225E06F600302234E90C1B4E060FB
:10220400030222A690C292E0FEA3E0FF90C33AEE3E
:10221400F0A3EFF064094E601090C293E004F070F4
:102224000F90C292E004F08007E490C292F0A3F011
:1022340090C2D6E0FEA3E0FF7C007D0A124DF1902F
:10224400C293E02FFF90C292E03E90C33CF0A3EF14
:10225400F090C33CE0FEA3E0FFD39450EE94005012
:102264001DEF9400EE940040157B017AC2799290A0
:10227400C365E4F0A304F07F207E21023A2E90C3CC
:102284003AE0FFA3E090C292CFF0A3EFF07B017A93
:10229400C2799290C365E4F0A304F07F207E21020A
:1022A4003A2E90C1B4E064016003023A3190C2D680
:1022B400E0FEA3E0FF90C33AEEF0A3EFF064084E13
:1022C400700890C2D6F0A3F0800E90C2D7E004F05C
:1022D400700690C2D6E004F090C2D6E0FEA3E0FF00
:1022E4007C007D0A124DF190C293E02FFF90C292C0
:1022F400E03E90C33CF0A3EFF090C33CE0FEA3E0CB
:10230400FFD39450EE9400501DEF9400EE940040DF
:10231400157B017AC279D690C365E4F0A304F07FFB
:10232400107E21023A2E90C33AE0FFA3E090C2D679
:10233400CFF0A3EFF07B017AC279D690C365E4F0C5
:10234400A304F07F107E21023A2E90C22FE0FF906A
:10235400C225E06F60030225BF90C1B4E0600302B0
:10236400242990C1B9E0FEA3E0FF90C33AEEF0A3A4
:10237400EFF064094E700890C1B9F0A3F0800E909C
:10238400C1BAE004F0700690C1B9E004F090C1BB9A
:10239400E0FEA3E0FF7C007D0A124DF1AA06AB0724
:1023A40090C1B9E0FEA3E0FF7D64124DF1EF2BFF75
:1023B400EE3AFE90C1BEE02FFF90C1BDE03E90C357
:1023C4003CF0A3EFF090C33CE0FEA3E0FFD39432D3
:1023D400EE9400502CEF9400EE9400402490C1B988
:1023E400E0FFA3E090C2B6CFF0A3EFF07B017AC187
:1023F40079B990C365E4F0A304F07F007E22023A29
:102404002E90C33AE0FFA3E090C1B9CFF0A3EFF060
:102414007B017AC179B990C365E4F0A304F07F002D
:102424007E22023A2E90C1B4E0640160030224F7D4
:1024340090C1BBE0FEA3E0FF90C33AEEF0A3EFF03F
:1024440064054E700890C1BBF0A3F0800E90C1BC2F
:10245400E004F0700690C1BBE004F090C1BBE0FE64
:10246400A3E0FF7C007D0A124DF1AA06AB0790C1E0
:10247400B9E0FEA3E0FF7D64124DF1EF2BFFEE3ACD
:10248400FE90C1BEE02FFF90C1BDE03E90C33CF082
:10249400A3EFF090C33CE0FEA3E0FFD39432EE94AC
:1024A40000502CEF9400EE9400402490C1BBE0FF58
:1024B400A3E090C277CFF0A3EFF07B017AC179BBA0
:1024C40090C365E4F0A304F07F107E22023A2E90BC
:1024D400C33AE0FFA3E090C1BBCFF0A3EFF07B01D0
:1024E4007AC179BB90C365E4F0A304F07F107E2227
:1024F400023A2E90C1B4E064026003023A3190C102
:10250400BDE0FEA3E0FF90C33AEEF0A3EFF0640950
:102514004E700890C1BDF0A3F0800E90C1BEE004DF
:10252400F0700690C1BDE004F090C1BBE0FEA3E0F2
:10253400FF7C007D0A124DF1AA06AB0790C1B9E0F9
:10254400FEA3E0FF7D64124DF1EF2BFFEE3AFE9007
:10255400C1BDE0FCA3E0FD2FFFEC3E90C33CF0A323
:10256400EFF090C33CE0FEA3E0FFD39432EE94007E
:102574005025EF9400EE9400401D90C264ECF0A34B
:10258400EDF07B017AC179BD90C365E4F0A304F05A
:102594007F207E22023A2E90C33AE0FFA3E090C14E
:1025A400BDCFF0A3EFF07B017AC179BD90C365E4A0
:1025B400F0A304F07F207E22023A2E90C2B0E0FF06
:1025C40090C225E06F600302283090C1B4E060033C
:1025D40002269890C28DE0FEA3E0FF90C33AEEF08D
:1025E400A3EFF064094E601090C28EE004F0700F07
:1025F40090C28DE004F08007E490C28DF0A3F090C7
:10260400C2D1E0FEA3E0FF7C007D0A124DF1AA06D0
:10261400AB0790C237E0FEA3E0FF7D64124DF1EFFB
:102624002BFFEE3AFE90C28EE02FFF90C28DE03E6B
:1026340090C33CF0A3EFF090C28FE0FEA3E0FF90C4
:10264400C33CE0FCA3E0FDD39FEC9E502390C28AE0
:10265400E0FEA3E0FFED9FEC9E40157B017AC2797A
:102664008D90C365E4F0A304F07F207E23023A2E0C
:1026740090C33AE0FFA3E090C28DCFF0A3EFF07BCC
:10268400017AC2798D90C365E4F0A304F07F207EC3
:1026940023023A2E90C1B4E06401600302276490DF
:1026A400C2D1E0FEA3E0FF90C33AEEF0A3EFF064E2
:1026B400094E601090C2D2E004F0700F90C2D1E0D5
:1026C40004F08007E490C2D1F0A3F090C2D1E0FE00
:1026D400A3E0FF7C007D0A124DF1AA06AB0790C26D
:1026E40037E0FEA3E0FF7D64124DF1EF2BFFEE3ADD
:1026F400FE90C28EE02FFF90C28DE03E90C33CF06E
:10270400A3EFF090C28FE0FEA3E0FF90C33CE0FC97
:10271400A3E0FDD39FEC9E502390C28AE0FEA3E089
:10272400FFED9FEC9E40157B017AC279D190C36581
:10273400E4F0A304F07F107E23023A2E90C33AE023
:10274400FFA3E090C2D1CFF0A3EFF07B017AC2796E
:10275400D190C365E4F0A304F07F107E23023A2EE7
:1027640090C1B4E064026003023A3190C237E0FEE3
:10277400A3E0FF90C33AEEF0A3EFF064024E6010C2
:1027840090C238E004F0700F90C237E004F0800784
:10279400E490C237F0A3F090C2D1E0FEA3E0FF7C46
:1027A400007D0A124DF1AA06AB0790C237E0FEA3E2
:1027B400E0FF7D64124DF1EF2BFFEE3AFE90C28EE6
:1027C400E02FFF90C28DE03E90C33CF0A3EFF09069
:1027D400C28FE0FEA3E0FF90C33CE0FCA3E0FDD386
:1027E4009FEC9E502390C28AE0FEA3E0FFED9FEC95
:1027F4009E40157B017AC2793790C365E4F0A30447
:10280400F07F007E23023A2E90C33AE0FFA3E090CB
:10281400C237CFF0A3EFF07B017AC2793790C3655A
:10282400E4F0A304F07F007E23023A2E90C2C7E0B6
:10283400FF90C225E06F600302298D90C1B4E0606F
:10284400030228E590C25EE0FEA3E0FF90C33AEEE7
:10285400F0A3EFF064094E700890C25EF0A3F0801C
:102864000E90C25FE004F0700690C25EE004F09047
:10287400C2C3E0FEA3E0FF7C007D0A124DF190C2CA
:102884005FE02FFF90C25EE03E90C33CF0A3EFF008
:1028940090C33CE0FEA3E0FFD39450EE9400501D9F
:1028A400EF9400EE940040157B017AC2795E90C3E8
:1028B40065E4F0A304F07F207E24023A2E90C33A0C
:1028C400E0FFA3E090C25ECFF0A3EFF07B017AC2F9
:1028D400795E90C365E4F0A304F07F207E24023A7D
:1028E4002E90C1B4E064016003023A3190C2C3E0A7
:1028F400FEA3E0FF90C33AEEF0A3EFF064084E703D
:102904000890C2C3F0A3F0800E90C2C4E004F0703B
:102914000690C2C3E004F090C2C3E0FEA3E0FF7CD3
:10292400007D0A124DF190C25FE02FFF90C25EE07D
:102934003E90C33CF0A3EFF090C33CE0FEA3E0FF65
:10294400D39450EE9400501DEF9400EE9400401583
:102954007B017AC279C390C365E4F0A304F07F10CD
:102964007E24023A2E90C33AE0FFA3E090C2C3CF84
:10297400F0A3EFF07B017AC279C390C365E4F0A3BE
:1029840004F07F107E24023A2E90C220E0FF90C211
:1029940025E06F6003022BFE90C1B4E06003022ABD
:1029A4006890C1B9E0FEA3E0FF90C33AEEF0A3EF54
:1029B400F064094E700890C1B9F0A3F0800E90C184
:1029C400BAE004F0700690C1B9E004F090C1BBE035
:1029D400FEA3E0FF7C007D0A124DF1AA06AB07902E
:1029E400C1B9E0FEA3E0FF7D64124DF1EF2BFFEED1
:1029F4003AFE90C1BEE02FFF90C1BDE03E90C33CC3
:102A0400F0A3EFF090C33CE0FEA3E0FFD39432EEDA
:102A14009400502CEF9400EE9400402490C1B9E04F
:102A2400FFA3E090C2BCCFF0A3EFF07B017AC179A1
:102A3400B990C365E4F0A304F07F007E25023A2E2A
:102A440090C33AE0FFA3E090C1B9CFF0A3EFF07BCD
:102A5400017AC179B990C365E4F0A304F07F007EE4
:102A640025023A2E90C1B4E064016003022B369033
:102A7400C1BBE0FEA3E0FF90C33AEEF0A3EFF06425
:102A8400054E700890C1BBF0A3F0800E90C1BCE06D
:102A940004F0700690C1BBE004F090C1BBE0FEA35B
:102AA400E0FF7C007D0A124DF1AA06AB0790C1B984
:102AB400E0FEA3E0FF7D64124DF1EF2BFFEE3AFE42
:102AC40090C1BEE02FFF90C1BDE03E90C33CF0A397
:102AD400EFF090C33CE0FEA3E0FFD39432EE940009
:102AE400502CEF9400EE9400402490C1BBE0FFA36F
:102AF400E090C27DCFF0A3EFF07B017AC179BB9067
:102B0400C365E4F0A304F07F107E25023A2E90C33F
:102B14003AE0FFA3E090C1BBCFF0A3EFF07B017AD2
:102B2400C179BB90C365E4F0A304F07F107E250255
:102B34003A2E90C1B4E064026003023A3190C1BD00
:102B4400E0FEA3E0FF90C33AEEF0A3EFF064094E79
:102B5400700890C1BDF0A3F0800E90C1BEE004F0F7
:102B6400700690C1BDE004F090C1BBE0FEA3E0FF9D
:102B74007C007D0A124DF1AA06AB0790C1B9E0FEB4
:102B8400A3E0FF7D64124DF1EF2BFFEE3AFE90C1FE
:102B9400BDE0FCA3E0FD2FFFEC3E90C33CF0A3EFAF
:102BA400F090C33CE0FEA3E0FFD39432EE940050D7
:102BB40025EF9400EE9400401D90C26AECF0A3ED62
:102BC400F07B017AC179BD90C365E4F0A304F07F82
:102BD400207E25023A2E90C33AE0FFA3E090C1BDC7
:102BE400CFF0A3EFF07B017AC179BD90C365E4F027
:102BF400A304F07F207E25023A2E90C2C2E0FF900B
:102C0400C225E06F6003022D9C90C1B4E060030212
:102C14002CE890C288E0FEA3E0FF90C33AEEF0A354
:102C2400EFF0643B4E701D90C214E07002A3E060AC
:102C340003E4801C90C289E004F0702A90C288E00A
:102C440004F0802290C288E07004A3E0643C700821
:102C540090C288F0A3F0800E90C289E004F0700660
:102C640090C288E004F090C288E0FEA3E0FF7C00FC
:102C74007D3C124DF190C215E02FFF90C214E03E4E
:102C840090C33CF0A3EFF090C2A9E0FEA3E0FF9054
:102C9400C33CE0FCA3E0FDD39FEC9E502390C2A371
:102CA400E0FEA3E0FFED9FEC9E40157B017AC27924
:102CB4008890C365E4F0A304F07F507E28023A2E86
:102CC40090C33AE0FFA3E090C288CFF0A3EFF07B7B
:102CD400017AC2798890C365E4F0A304F07F507E42
:102CE40028023A2E90C1B4E064016003023A3190A4
:102CF400C214E0FEA3E0FF90C33AEEF0A3EFF06449
:102D04003B4E700890C214F0A3F0800E90C215E000
:102D140004F0700690C214E004F090C288E0FEA3B0
:102D2400E0FF7C007D3C124DF190C215E02FFF9036
:102D3400C214E03E90C33CF0A3EFF090C2A9E0FEC1
:102D4400A3E0FF90C33CE0FCA3E0FDD39FEC9E50C6
:102D54002390C2A3E0FEA3E0FFED9FEC9E40157B11
:102D6400017AC2791490C365E4F0A304F07F607E15
:102D740028023A2E90C33AE0FFA3E090C214CFF0A9
:102D8400A3EFF07B017AC2791490C365E4F0A30445
:102D9400F07F607E28023A2E90C29BE0FF90C2250D
:102DA400E0B5073990C2D3E0FEA3E0FFC390C24A66
:102DB400E09F90C249E09E4003023A31A3E004F050
:102DC400700690C249E004F07B017AC2794990C34D
:102DD40065E4F0A304F07F207E29023A2E90C21C01
:102DE400E0FF90C225E06F60030234A590C1B8E013
:102DF4006401600302305D90C1B4E06003022EC53B
:102E040090C2A7E0FEA3E0FF90C33AEEF0A3EFF078
:102E140064094E601090C2A8E004F0700F90C2A73D
:102E2400E004F08007E490C2A7F0A3F090C221E090
:102E3400FEA3E0FF7C007D0A124DF1AA06AB0790C9
:102E4400C270E0FEA3E0FF7D64124DF1EF2BFFEEB4
:102E54003AFE90C2A8E02FFF90C2A7E03E90C33C88
:102E6400F0A3EFF090C2A0E0FEA3E0FF90C33CE02B
:102E7400FCA3E0FDD39FEC9E502390C29CE0FEA3F4
:102E8400E0FFED9FEC9E40157B017AC279A790C3C9
:102E940065E4F0A304F07F207E28023A2E90C33A22
:102EA400E0FFA3E090C2A7CFF0A3EFF07B017AC2CA
:102EB40079A790C365E4F0A304F07F207E28023A4A
:102EC4002E90C1B4E064016003022F9190C221E00E
:102ED400FEA3E0FF90C33AEEF0A3EFF064094E6066
:102EE4001090C222E004F0700F90C221E004F08040
:102EF40007E490C221F0A3F090C221E0FEA3E0FF1A
:102F04007C007D0A124DF1AA06AB0790C270E0FE68
:102F1400A3E0FF7D64124DF1EF2BFFEE3AFE90C269
:102F2400A8E02FFF90C2A7E03E90C33CF0A3EFF0CF
:102F340090C2A0E0FEA3E0FF90C33CE0FCA3E0FD50
:102F4400D39FEC9E502390C29CE0FEA3E0FFED9F34
:102F5400EC9E40157B017AC2792190C365E4F0A30D
:102F640004F07F107E28023A2E90C33AE0FFA3E0DB
:102F740090C221CFF0A3EFF07B017AC2792190C3F4
:102F840065E4F0A304F07F107E28023A2E90C1B4C9
:102F9400E064026003023A3190C270E0FEA3E0FFF5
:102FA40090C33AEEF0A3EFF064024E601090C27149
:102FB400E004F0700F90C270E004F08007E490C267
:102FC40070F0A3F090C221E0FEA3E0FF7C007D0A34
:102FD400124DF1AA06AB0790C270E0FEA3E0FF7D9C
:102FE40064124DF1EF2BFFEE3AFE90C2A8E02FFFE2
:102FF40090C2A7E03E90C33CF0A3EFF090C2A0E0E3
:10300400FEA3E0FF90C33CE0FCA3E0FDD39FEC9E55
:10301400502390C29CE0FEA3E0FFED9FEC9E401580
:103024007B017AC2797090C365E4F0A304F07F0059
:103034007E28023A2E90C33AE0FFA3E090C270CFFC
:10304400F0A3EFF07B017AC2797090C365E4F0A33A
:1030540004F07F007E28023A2E90C1B8E0B4023A10
:1030640090C2D3E0FEA3E0FF90C249E06E7003A3D8
:10307400E06F7003023A3190C24AE004F0700690A7
:10308400C249E004F07B017AC2794990C365E4F057
:10309400A304F07F307E29023A2E90C1B8E0640385
:1030A400600302330B90C1B4E0600302317390C239
:1030B4008DE0FEA3E0FF90C33AEEF0A3EFF06409C5
:1030C4004E601090C28EE004F0700F90C28DE00448
:1030D400F08007E490C28DF0A3F090C2D1E0FEA38B
:1030E400E0FF7C007D0A124DF1AA06AB0790C237BF
:1030F400E0FEA3E0FF7D64124DF1EF2BFFEE3AFEFC
:1031040090C28EE02FFF90C28DE03E90C33CF0A3AE
:10311400EFF090C28FE0FEA3E0FF90C33CE0FCA37D
:10312400E0FDD39FEC9E502390C28AE0FEA3E0FF13
:10313400ED9FEC9E40157B017AC2798D90C365E4C6
:10314400F0A304F07F907E28023A2E90C33AE0FF69
:10315400A3E090C28DCFF0A3EFF07B017AC2798D0A
:1031640090C365E4F0A304F07F907E28023A2E9089
:10317400C1B4E06401600302323F90C2D1E0FEA317
:10318400E0FF90C33AEEF0A3EFF064094E601090B4
:10319400C2D2E004F0700F90C2D1E004F08007E4E2
:1031A40090C2D1F0A3F090C2D1E0FEA3E0FF7C0076
:1031B4007D0A124DF1AA06AB0790C237E0FEA3E0E8
:1031C400FF7D64124DF1EF2BFFEE3AFE90C28EE0CC
:1031D4002FFF90C28DE03E90C33CF0A3EFF090C26D
:1031E4008FE0FEA3E0FF90C33CE0FCA3E0FDD39F8F
:1031F400EC9E502390C28AE0FEA3E0FFED9FEC9E7C
:1032040040157B017AC279D190C365E4F0A304F040
:103214007F807E28023A2E90C33AE0FFA3E090C25A
:10322400D1CFF0A3EFF07B017AC279D190C365E4EA
:10323400F0A304F07F807E28023A2E90C1B4E064AB
:10324400026003023A3190C237E0FEA3E0FF90C36C
:103254003AEEF0A3EFF064024E601090C238E0043E
:10326400F0700F90C237E004F08007E490C237F0AA
:10327400A3F090C2D1E0FEA3E0FF7C007D0A124DD2
:10328400F1AA06AB0790C237E0FEA3E0FF7D64120B
:103294004DF1EF2BFFEE3AFE90C28EE02FFF90C26D
:1032A4008DE03E90C33CF0A3EFF090C28FE0FEA30C
:1032B400E0FF90C33CE0FCA3E0FDD39FEC9E5023D1
:1032C40090C28AE0FEA3E0FFED9FEC9E40157B01D7
:1032D4007AC2793790C365E4F0A304F07F707E2846
:1032E400023A2E90C33AE0FFA3E090C237CFF0A396
:1032F400EFF07B017AC2793790C365E4F0A304F060
:103304007F707E28023A2E90C1B8E0640460030204
:103314003A3190C1B4E060030233F190C288E0FE18
:10332400A3E0FF90C33AEEF0A3EFF0643B4E701DB0
:1033340090C214E07002A3E06003E4801C90C28990
:10334400E004F0702A90C288E004F0802290C288E1
:10335400E07004A3E0643C700890C288F0A3F0809D
:103364000E90C289E004F0700690C288E004F090E8
:10337400C288E0FEA3E0FF7C007D3C124DF190C2C8
:1033840015E02FFF90C214E03E90C33CF0A3EFF091
:1033940090C2A9E0FEA3E0FF90C33CE0FCA3E0FDE3
:1033A400D39FEC9E502390C2A3E0FEA3E0FFED9FC9
:1033B400EC9E40157B017AC2798890C365E4F0A342
:1033C40004F07F507E28023A2E90C33AE0FFA3E037
:1033D40090C288CFF0A3EFF07B017AC2798890C3C2
:1033E40065E4F0A304F07F507E28023A2E90C1B425
:1033F400E064016003023A3190C214E0FEA3E0FFEE
:1034040090C33AEEF0A3EFF0643B4E700890C21400
:10341400F0A3F0800E90C215E004F0700690C21480
:10342400E004F090C288E0FEA3E0FF7C007D3C1243
:103434004DF190C215E02FFF90C214E03E90C33CC2
:10344400F0A3EFF090C2A9E0FEA3E0FF90C33CE03C
:10345400FCA3E0FDD39FEC9E502390C2A3E0FEA307
:10346400E0FFED9FEC9E40157B017AC2791490C376
:1034740065E4F0A304F07F607E28023A2E90C33AFC
:10348400E0FFA3E090C214CFF0A3EFF07B017AC277
:10349400791490C365E4F0A304F07F607E28023AB7
:1034A4002E90C22DE064016003023A3190C22CE0F8
:1034B400FF90C225E06F60030236E790C2C6E06069
:1034C4000302354590C2CAE0703990C2A0E0FEA361
:1034D400E0FFC390C29DE09F90C29CE09E40030227
:1034E4003A31A3E004F0700690C29CE004F07B0142
:1034F4007AC2799C90C365E4F0A304F07F007E4116
:10350400023A2E90C2CAE064016003023A31C390C9
:10351400C2A1E094DC90C2A0E094004003023A31DE
:10352400A3E004F0700690C2A0E004F07B017AC22C
:1035340079A090C365E4F0A304F07F107E41023AC1
:103544002E90C2C6E0640160030235CD90C2CAE089
:10355400703990C28FE0FEA3E0FFC390C28BE09F5E
:1035640090C28AE09E4003023A31A3E004F0700660
:1035740090C28AE004F07B017AC2798A90C365E440
:10358400F0A304F07F307E41023A2E90C2CAE06478
:10359400016003023A31C390C290E094DC90C28F80
:1035A400E094004003023A31A3E004F0700690C2B4
:1035B4008FE004F07B017AC2798F90C365E4F0A3B5
:1035C40004F07F407E41023A2E90C2C6E06402605D
:1035D4000302365590C2CAE0703990C2D3E0FEA30C
:1035E400E0FFC390C2CFE09F90C2CEE09E400302B2
:1035F4003A31A3E004F0700690C2CEE004F07B01FF
:103604007AC279CE90C365E4F0A304F07F607E4172
:10361400023A2E90C2CAE064016003023A31C390B8
:10362400C2D4E0941490C2D3E094004003023A312F
:10363400A3E004F0700690C2D3E004F07B017AC2E8
:1036440079D390C365E4F0A304F07F707E41023A1D
:103654002E90C2C6E064036003023A3190C2CAE00D
:10366400703990C2A9E0FEA3E0FFC390C2A4E09F1A
:1036740090C2A3E09E4003023A31A3E004F0700636
:1036840090C2A3E004F07B017AC279A390C365E4FD
:10369400F0A304F07F907E41023A2E90C2CAE06407
:1036A400016003023A3190C2A9E0FEA3E0FFE4FC0A
